:020000040800F2
:10000000D8330020B955000845020008470200080F
:100010004B0200084F0200085302000800000000D5
:100020000000000000000000000000009D0100082A
:100030005702000800000000E1010008D385000815
:10004000D3550008D3550008D3550008D3550008F0
:10005000D3550008D3550008D3550008D3550008E0
:10006000A5040008E9040008D35500081903000896
:10007000FB02000857030008D3550008750200086A
:10008000D355000881020008D3550008D355000855
:10009000D3550008D3550008D3550008D3550008A0
:1000A000D3550008C1030008ED030008D35500082C
:1000B000EF0300081D04000849040008D355000898
:1000C000D3550008D3550008D3550008A1040008F3
:1000D000D35500085D020008D3550008D355000829
:1000E000D3550008D3550008D3550008D355000850
:1000F000D3550008D3550008D35500083303000832
:10010000D3550008D355000875040008A30400085F
:10011000D3550008D3550008930300089F03000837
:10012000D35500089B020008CD020008D3550008F3
:10013000D3550008D3550008D3550008D3550008FF
:10014000D3550008D3550008D3550008D3550008EF
:10015000ED020008D3550008D3550008D355000818
:10016000D3550008D3550008D3550008D3550008CF
:10017000D3550008D3550008D3550008D3550008BF
:10018000D3550008D3550008DFF80CD009F084FDE2
:1001900000480047FB520008D8330020234B196861
:1001A0000868B0E8F04F80F309884FF0000080F352
:1001B000118870470000000003480068006880F361
:1001C000088862B600DF00BF08ED00E0DFF80C0031
:1001D000016841F470010160704700BF88ED00E0E4
:1001E000EFF30980114B1A681EF0100F08BF20EDC5
:1001F000108A20E9F04F106008B54FF0140080F32A
:10020000118808F0AEFD4FF0000080F31188BDE8C2
:10021000084019680868B0E8F04F1EF0100F08BFDA
:10022000B0EC108A80F30988704700BF18040020E2
:10023000EFF311804FF0140181F31188704780F3C0
:1002400011887047704700BFFEE700BFFEE700BFA0
:10025000FEE700BFFEE770477047704710B540F2F9
:100260002551A24807F0C9FA18B120219F4807F08C
:10027000BBFA10BD10B59E499E4806F0F3F910BDBB
:1002800010B59D499B48303006F0C2F920B19A491B
:100290009848303006F0E6F910BD10B597499848F7
:1002A00006F0B6F988B19549954806F0DBF901F0FA
:1002B000CCFD0021924806F001F90421904806F097
:1002C0001EF901218E4806F0F9F810BD10B58D49D0
:1002D0008B48183006F0C6F98B4840788A4909786F
:1002E00040EA012000B28949088010BD10B5884954
:1002F0008348603006F0B6F910BD10B57F497D48DF
:10030000483806F085F930B17C497A48483806F01B
:10031000A9F900F0B7FA10BD10B57E4975486038EC
:1003200006F076F920B17B497248603806F09AF9F8
:1003300010BD10B578496F48483006F069F948B1EA
:1003400000216C48483006F0B9F8734969484830D4
:1003500006F088F910BD10B56A496648303806F0D5
:1003600057F9A8B167496348303806F07BF901F0C6
:1003700027FC00215F48303806F0A0F804215D48D2
:10038000303806F0BCF801215A48303806F096F8AB
:1003900010BD10B50121614806F08CFF10BD10B5ED
:1003A00001215F4806F086FF7A20504988800121AC
:1003B0005C4807F031F901215B4807F02DF910BDC9
:1003C00010B50121594806F075FF5848008800F023
:1003D000100028B156480068401E5549086004E0E6
:1003E00053480068401C5249086010BD704710B562
:1003F0000121880706F05EFF4FF08040008800F082
:10040000100028B14B480068401E4A49086004E0CB
:1004100048480068401C4749086010BD10B50121DC
:10042000454806F047FF4448008800F0100028B116
:1004300042480068401E4149086004E03F480068A7
:10044000401C3E49086010BD10B501213C4806F033
:1004500031FF3B48008800F0100028B1394800689F
:10046000401E3849086004E036480068401C3549A1
:10047000086010BD10B50121334806F01BFF32485B
:10048000008800F0100028B130480068401E2F4955
:10049000086004E02D480068401C2C49086010BD2D
:1004A0007047704710B5042006F074F9D8B12021C8
:1004B000274805F0F8F90421264805F0CFF901286E
:1004C00004D10021164806F075FA09E004212148FC
:1004D00005F0C4F920B9124806F070FA1E49086008
:1004E00004201E49086010BD704700000010014044
:1004F00020800020706002400080202000880010D2
:100500002864024000802010340600208C00002067
:10051000008800202080001000800028001000408B
:100520000014004000480040001401400000014059
:100530006C000020700000200004004074000020C7
:100540000008004088000020000C004078000020D7
:1005500000000240000C024068000020143C0140F2
:1005600070B50446204608F0E5FF05462146FE48E2
:1005700008F0E7FFA0B195222146FB4808F0CEFF26
:100580000021FA4805F09AFFF748F8490C31086055
:10059000F648B838C0F8BC500121F44805F08EFF89
:1005A00070BD70B50446002510E0605D68B1615D06
:1005B000EF4807F05CF800BF8021ED4807F007F92D
:1005C0000028F9D0681CC5B200E070BDEDE770B539
:1005D000044600250FE05CB12146E54807F047F8E6
:1005E00000BF8021E24807F0F2F80028F9D000E0CF
:1005F00070BD681CC5B2032DEDDB00BFF8E713B575
:100600000C460020FFF7E3FFDAA0FFF7CAFF2346FE
:10061000D9A29621D94809F089FBD848FFF7C1FF34
:10062000D7A0FFF7BEFFD4A29621D448009B09F0C3
:100630007DFBD248FFF7B5FFD3A0FFF7B2FFFF2045
:10064000FFF7C5FFFF20FFF7C2FFFF20FFF7BFFF47
:100650001CBD70B505460C46C6A0FFF7A2FF22469A
:10066000C5A1C64809F07AFBC448FFF79AFFC4A0A9
:10067000FFF797FF2846FFF794FFC3A0FFF791FF0E
:10068000FF20FFF7A4FF70BD77B585B00546FF26B4
:10069000BBA103C9CDE90301BBA000680290B5A0CE
:1006A0000068019000240AE00020B8490855B849C4
:1006B0000855B2490855AC490855601CC4B21E2CF7
:1006C000F2DB0A20AD490870FF2048708870C870BE
:1006D000A9A1AF48079A09F041FBAD4901A808F06C
:1006E00011FF01A9A54808F00DFF03A9A34808F0D0
:1006F00009FF2946A14808F005FF9FA1A448069AD2
:1007000009F02CFBA2499D4808F0FCFE02A99B4879
:1007100008F0F8FEFF209D490870487088709748DF
:1007200008F0F0FE9548FFF71BFF08B070BDF7B565
:1007300084B005460E46FF2791A103C9CDE9020109
:1007400091A0006801908BA000680090002408E050
:1007500000208E4908558E49085588490855601C67
:10076000C4B20A2CF4DB0A2084490870FF204870C8
:100770008870C87080A18648069A09F0EFFA84490B
:10078000684608F0BFFE69467C4808F0BBFE02A937
:100790007A4808F0B7FE2946784808F0B3FE31469B
:1007A000764808F0AFFE01A9744808F0ABFEFF20C0
:1007B00076490870487088700020C87008716F48CA
:1007C00008F0A0FE6D48FFF7CBFE07B0F0BD01B505
:1007D0008EB070A2322101A80E9B09F0A7FA01A8E1
:1007E000FFF7BEFE0FB000BD73B584B00546FF260F
:1007F00063A103C9CDE9020163A0006801905DA077
:100800000068009000240AE0002060490855604913
:1008100008555A49085554490855601CC4B21E2C45
:10082000F2DB0A2055490870FF2048708870C870B4
:1008300051A15748059A09F091FA5549684608F0C0
:1008400061FE69464D4808F05DFE02A94B4808F07C
:1008500059FE2946494808F055FE4D49474808F0D9
:1008600051FE01A9454808F04DFEFF204749087098
:1008700048708870414808F045FE4048FFF770FE18
:1008800006B070BD1CB54648007845494978084413
:100890004349897808444249C9780844404909795C
:1008A00008443F49497908443D49897908443C490D
:1008B000C97908443A49097A0844C0B201903848D5
:1008C000007A00F00F0000909DF800000D2803D082
:1008D0000021344806F0A0FE1CBD3148007A00F02B
:1008E0000F000D2806D12E48007800F0010008B155
:1008F0000D2070470020FCE72948007800F0020036
:1009000008B1012070470020FCE730B52DED048BC5
:1009100083B0254806F052F82449096840EA0145A9
:10092000284608F0A4FF41EC190B9FED210B53EC76
:10093000102B08F02DFF41EC180B08F0A9FF0190D7
:1009400000244DE0184806F039F81849096840EAD3
:100950000145284608F08BFF41EC190B9FED140B65
:1009600053EC102B28E000008E050020B8600240F8
:10097000005000407400000025640000580400206E
:100980002E7478743D220000220000003E050020F5
:10099000160500206A302E76616C3D25640000004B
:1009A0007006002000480040000400407400002051
:1009B0006666666666A64E4008F0EAFE41EC180BD5
:1009C00008F066FF0290DDE90121881A002801DBAA
:1009D000014600E04142052900DA641C02980190BA
:1009E000022CAFDB0298404203B0BDEC048B30BD5B
:1009F00030B52DED048B83B0FE4805F0DFFFFE49D6
:100A0000096840EA0145284608F031FF41EC190B1E
:100A10001FED190B53EC102B08F0BAFE41EC180B2C
:100A200008F036FF0190002423E0F24805F0C6FFED
:100A3000F149096840EA0145284608F018FF41ECF1
:100A4000190B1FED250B53EC102B08F0A1FE41EC08
:100A5000180B08F01DFF0290DDE90121881A00281B
:100A600001DB014600E04142052900DA641C0298DE
:100A70000190022CD9DB0298404203B0BDEC048BFC
:100A800030BD30B52DED048B83B04FF0804005F0C4
:100A900095FFDA49096840EA0145284608F0E7FE73
:100AA00041EC190B1FED3E0B53EC102B08F070FEC0
:100AB00041EC180B08F0ECFE0190002424E04FF00C
:100AC000804005F07BFFCD49096840EA0145284692
:100AD00008F0CDFE41EC190B1FED4B0B53EC102B26
:100AE00008F056FE41EC180B08F0D2FE0290DDE94A
:100AF0000121881A002801DB014600E04142052956
:100B000000DA641C02980190022CD8DB029803B032
:100B1000BDEC048B30BD30B52DED048B83B0B848EF
:100B200005F04CFFB749096840EA0145284608F03E
:100B30009EFE41EC190B1FED620B53EC102B08F0DD
:100B400027FE41EC180B08F0A3FE0190002423E0DF
:100B5000AB4805F033FFAB49096840EA0145284638
:100B600008F085FE41EC190B1FED6F0B53EC102BB9
:100B700008F00EFE41EC180B08F08AFE0290DDE949
:100B80000121881A002801DB014600E04142322998
:100B900000DA641C02980190022CD9DB029803B0A1
:100BA000BDEC048B30BD01B581B0002000900198F0
:100BB00000EBC0004000009002E00098401E009052
:100BC00000980028F9D10CBD01B581B0002000903B
:100BD00044F2506101984843009002E00098401EA2
:100BE000009000980028F9D10CBD1CB501211F20F0
:100BF00005F018F84FF6FF70009001208DF8040002
:100C000000208DF8060001208DF8070003208DF8E4
:100C1000050069467C4804F0BFFD4FF6FF70009068
:100C200001208DF8040000208DF8060001208DF8C9
:100C3000070003208DF805006946744804F0ACFDF8
:100C40004FF6FF70009001208DF8040000208DF811
:100C5000060001208DF8070003208DF80500694685
:100C60006B4804F099FD1CBD1CB501217E2004F0E9
:100C7000D9FFC020009000208DF8040001208DF8DD
:100C8000070002208DF805006946624804F084FDE3
:100C90000620009000208DF8040001208DF8070048
:100CA00002208DF805006946574804F075FD0420C0
:100CB000009000208DF8040001208DF8070002202C
:100CC0008DF805006946514804F066FD1CBD1FB54E
:100CD0004FF4E06004F082FC36208DF80000002024
:100CE0008DF801008DF8020001208DF803006846A0
:100CF00004F079FC0121102004F0C7FF3220ADF888
:100D0000040040F2E73002900020ADF80C00ADF88E
:100D1000060001A9404805F004FE01213E4806F006
:100D2000C9FA012211463C4806F09CFA00213A48D3
:100D300005F040FE0121384805F07CFE1FBD1FB5BF
:100D40004FF4E06004F04AFC37208DF800000020EA
:100D50008DF801008DF8020001208DF8030068462F
:100D600004F041FC0121202004F08FFF3220ADF877
:100D7000040040F2E73002900020ADF80C00ADF81E
:100D8000060001A9254805F0CCFD0121234806F005
:100D900091FA01221146214806F064FA00211F4809
:100DA00005F008FE01211D4805F044FE1FBD00B5F9
:100DB0008BB00121022004F079FF01210C2004F006
:100DC00031FF03220621114804F071FD032207219F
:100DD0000E4804F06CFD032208210C4804F067FD66
:100DE00003220921094804F062FD4FF47070069057
:100DF000022015E0000C0040780000207000002068
:100E0000000001406C000020000402400008024085
:100E1000000C02400000024000100040001400409E
:100E20008DF81C0003208DF81D0000208DF81E0099
:100E300001208DF81F0006A9FE4804F0ADFCA42097
:100E4000ADF8200040F6B83009904FF48070ADF84E
:100E500028000020ADF8220008A9F74805F061FD40
:100E60006020ADF804000120ADF8060000200390DA
:100E7000ADF810000121F04805F0DCFD0021EE483E
:100E800005F098FD01A9EC4805F0E0FD01A9EA484C
:100E900005F015FE01A9E84805F05EFE01A9E64847
:100EA00005F0C0FE0121E44806F0B5F90BB000BD25
:100EB00000B58BB00121082004F0E7FE01210846AF
:100EC00004F0B0FE02220021DC4804F0F0FC022213
:100ED0000121DA4804F0EBFC02221146D74804F065
:100EE000E6FC02220321D54804F0E1FC0F20069025
:100EF00002208DF81C0003208DF81D0000208DF8C5
:100F00001E0001208DF81F0006A9CC4804F044FC07
:100F1000BA20ADF8200042F2107009900020ADF820
:100F20002800ADF8220008A9C54805F0FAFC6020A9
:100F3000ADF804000120ADF8060000200390ADF8E4
:100F400010000121BE4805F075FD0021BC4805F0E8
:100F500031FD01A9BA4805F079FD01A9B84805F0AD
:100F6000AEFD01A9B64805F0F7FD01A9B44805F0AA
:100F700059FE0121B24806F04EF90BB000BD00B594
:100F80008BB00121042004F080FE01210D2004F02B
:100F900049FE02220C21AB4804F089FC02220D21FB
:100FA000A84804F084FC02220E21A64804F07FFC2D
:100FB00002220F21A34804F07AFC4FF470400690FF
:100FC00002208DF81C0003208DF81D0000208DF8F4
:100FD0001E0001208DF81F0006A99A4804F0DCFBD2
:100FE000A420ADF8200040F6B83009904FF480708E
:100FF000ADF828000020ADF8220008A9924805F0BD
:1010000090FC6020ADF804000120ADF8060000203F
:101010000390ADF8100001218B4805F00BFD002175
:10102000894805F0C7FC01A9874805F00FFD01A913
:10103000854805F044FD01A9834805F08DFD01A90F
:10104000814805F0EFFD0BB000BD00B589B001216E
:10105000080404F02BFE0121084604F0E3FD0322FE
:101060001146764804F023FC03220221734804F061
:101070001EFC0C20019002208DF8080003208DF842
:10108000090000208DF80A0001208DF80B0001A94D
:101090006A4804F081FB0020ADF818004FF6FF709D
:1010A00007900020ADF82000ADF81A0006A96748A7
:1010B00005F037FC0420ADF80C000020ADF80E0060
:1010C000C820ADF814000120ADF8100003A95F4856
:1010D00005F0FEFF00231A4603215D4806F095F94E
:1010E00001215B4806F0E6F801221146584806F057
:1010F000B9F80121554805F09DFC0021544805F040
:1011000059FC09B000BD00B589B00121084604F0C2
:10111000BCFD0121022004F0B8FD0121032004F0F0
:1011200081FD01220F21454804F0C1FB012203216A
:10113000484804F0BCFB02220421464804F0B7FBF7
:1011400002220521434804F0B2FB3820019002201E
:101150008DF8080003208DF8090000208DF80A00A2
:1011600001208DF80B0001A93A4804F015FB4FF45B
:101170000040019002208DF8080003208DF809003E
:1011800000208DF80A0001208DF80B0001A92B48E2
:1011900004F002FB0020ADF818004FF6FF70079036
:1011A0000020ADF82000ADF81A0006A94FF08040ED
:1011B00005F0B7FB06A9284805F0B3FB0420ADF8FD
:1011C0000C000220ADF80E001420ADF81400012030
:1011D000ADF8100003A9800705F07AFF03A91E48A7
:1011E00005F076FF02231A460321580706F00DF991
:1011F00002231A460321184806F007F9012188073F
:1012000006F058F80121144806F054F8012211465E
:10121000900706F027F8012211460F4806F022F841
:101220000121880705F006FC01210B4805F002FCAE
:10123000002113E0000802400004014000000240C9
:10124000000C0040000C024000080040000001407B
:101250000040014000040240000400404FF0804084
:1012600005F0A8FB0021FE4805F0A4FB4FF4C06088
:1012700004F0B4F91D208DF8000003208DF8010062
:1012800000208DF8020001208DF80300684604F06C
:10129000AAF91C208DF8000004208DF80100002020
:1012A0008DF8020001208DF80300684604F09BF9D8
:1012B00009B000BD00B589B00121084604F0F6FC74
:1012C0000121102004F0AEFC4FF4206001900220B8
:1012D0008DF8080003208DF8090000208DF80A0021
:1012E00001208DF80B0001A9DE4804F055FA012217
:1012F0000921DC4804F0DBFA01220B21D94804F073
:10130000D6FA0020ADF818004FF6FF7007900020C5
:10131000ADF82000ADF81A0006A9D34805F001FB8E
:101320000420ADF80C000020ADF80E000A20ADF846
:1013300014000120ADF8100003A9CB4805F0C8FE49
:1013400000231A460321C84806F05FF80121C64869
:1013500005F0B0FF01221146C34805F083FF0121CB
:10136000C14805F0A7FF01221146BF4805F07AFFEA
:101370000121BD4805F05EFB0021BB4805F01AFBCA
:101380004FF4C06004F02AF919208DF80000012004
:101390008DF8010000208DF8020001208DF8030077
:1013A000684604F020F909B000BD00B589B00121FC
:1013B000042004F06AFC0121082004F033FC4FF4FF
:1013C0004050019002208DF8080003208DF809009C
:1013D00000208DF80A0001208DF80B0001A9A34818
:1013E00004F0DAF90020ADF818004FF6FF7007900E
:1013F0000020ADF82000ADF81A0006A99C4805F0C1
:1014000090FA02220C21994804F051FA02220D218F
:10141000964804F04CFA0420ADF80C000220ADF818
:101420000E00C820ADF814000120ADF8100003A98B
:101430008F4805F04DFE02231A4603218C4805F023
:10144000E4FF01218A4805F035FF01221146884852
:1014500005F008FF0121864805F0ECFA00218448D8
:1014600005F0A8FA00208249143108800120804943
:1014700008804FF4C06004F0B1F81E208DF8000021
:1014800004208DF8010000208DF8020001208DF865
:101490000300684604F0A7F809B000BD00B589B0A4
:1014A0000121082004F0F1FB0121084604F0BAFBF9
:1014B0000320019002208DF8080003208DF8090018
:1014C00000208DF80A0001208DF80B0001A9694861
:1014D00004F062F90020ADF818004FF6FF70079095
:1014E0000020ADF82000ADF81A0006A9624805F00A
:1014F00018FA022200215F4804F0D9F902220121E2
:101500005C4804F0D4F90420ADF80C000220ADF8DA
:101510000E00C820ADF814000120ADF8100003A99A
:10152000554805F0D5FD02231A460321524805F01F
:101530006CFF0121504805F0BDFE012211464E48C6
:1015400005F090FE01214C4805F074FA00214A484C
:1015500005F030FA0020484914310880012046493E
:1015600008804FF4C06004F039F832208DF8000094
:1015700004208DF8010000208DF8020001208DF874
:101580000300684604F02FF809B000BD00B59BB019
:1015900001213A4804F046FB0121080204F086FBD1
:1015A00000200290364803903648049000200590B1
:1015B00008200690002007904FF4806008904000BB
:1015C000099080000A9040110B9040020C9000207E
:1015D0000D9001200E9000200F90109002A92A4833
:1015E00004F032FF0121284804F068FF3C200090FD
:1015F00003208DF8040000208DF8070069461D487F
:1016000004F0CAF83C20009003208DF8040000206C
:101610008DF8070069461D4804F0BEF800201190BF
:1016200012901390149011A804F074FC4FF0807085
:10163000159001208DF858008DF859000020179062
:101640001890199008208DF8680015A90C484C389E
:1016500004F031FC00230122022109484C3817E034
:10166000000400400010024000000140000C024055
:101670000008004000000240000C0040050040004F
:101680004C20014024060020106402400008024063
:1016900004F097FC002302220321FA4804F091FC95
:1016A000002303220421F74804F08BFC00230422CA
:1016B0000521F44804F085FC002305220C21F148A3
:1016C00004F07FFC002306220D21EE4804F079FC93
:1016D000002307220E21EB4804F073FC00230822AC
:1016E0000F21E84804F06DFC0121E64804F014FDE8
:1016F0000121E44804F005FD0121E24804F021FC49
:10170000E04804F0BAFC1BB000BD08B54FF4E0603F
:1017100003F064FF25208DF8000000208DF8010003
:101720008DF8020001208DF80300684603F05BFF8E
:1017300008BD10B596B004460121102004F0B6FA99
:101740000121084604F06EFA0121880504F06AFAC6
:101750004FF4C060009002208DF8040000208DF846
:1017600006008DF8070002208DF805006946C6487E
:1017700004F012F807220921C34804F098F8072260
:101780000A21C14804F093F802940020ADF80C003F
:10179000ADF80E00ADF81000ADF814000C20ADF857
:1017A000120002A9B94805F0AFFE0121B74805F0C3
:1017B00033FF4FF4A06003F011FF3A208DF81800BA
:1017C00000208DF819008DF81A0001208DF81B00FB
:1017D00006A803F008FFAE4804F094FD4FF0006047
:1017E000079000200A90AB4809900A200B90A74868
:1017F000001D089000200C904FF480600D90002098
:101800000E900F904FF480701090400211900420C1
:1018100012900320139000201490159007A99C4863
:1018200004F012FE01224021984805F0A2FF012297
:101830001021974804F0CFFE0121954804F03EFEA8
:1018400016B010BD10B596B004460121480504F04D
:10185000E9F90121480404F018FA0121082004F0F4
:10186000E1F96020009002208DF8040000208DF83E
:1018700006008DF8070002208DF8050069468648AD
:1018800003F08AFF07220521834804F010F807229D
:101890000621814804F00BF802940020ADF80C00FA
:1018A000ADF80E00ADF81000ADF814000C20ADF846
:1018B000120002A9794805F027FE0121774805F0BA
:1018C000ABFE4FF4A06003F089FE11208DF81800E4
:1018D00000208DF819008DF81A0001208DF81B00EA
:1018E00006A803F080FE6E4804F00CFD4FF0006087
:1018F000079040200A906B48099050200B90674851
:10190000001D089000200C904FF480600D90002086
:101910000E900F904FF480701090400211900420B0
:1019200012900320139000201490159007A95C4892
:1019300004F08AFD01228021584805F01AFF012297
:101940008021564805F015FF01221021544804F06B
:1019500042FE0121524804F0B1FD16B010BD10B591
:1019600096B004460121880404F08FF90121082073
:1019700004F058F90121480504F054F94FF440707F
:10198000009002208DF8040000208DF806008DF8EC
:10199000070002208DF8050069463F4803F0FCFE71
:1019A000072208213C4803F082FF072209213A4818
:1019B00003F07DFF02940020ADF80C00ADF80E009E
:1019C000ADF81000ADF814000C20ADF8120002A91B
:1019D000354805F099FD0121334805F01DFE4FF40F
:1019E000A06003F0FBFD0C208DF8180000208DF89E
:1019F00019008DF81A0001208DF81B0006A803F0CD
:101A0000F2FD2748783804F07DFC4FF00060079025
:101A100000200A90254809900A200B902248001DBA
:101A2000089000200C904FF480600D9000200E90E4
:101A30000F904FF48070109040021190042012908B
:101A40000320139000201490159007A914487838AB
:101A500004F0FAFC01224021134805F08AFE01221D
:101A60004021114805F085FE012210210C487838EC
:101A700004F0B1FD01210A48783804F01FFD16B0CA
:101A800010BD000000200140000002400010014095
:101A90004064024034060020000C02400044004034
:101AA000A0600240040000200048004070060020B2
:101AB00010B596B004460121C80404F0E6F80121EF
:101AC000042004F0AFF80121480504F0ABF84FF40E
:101AD0004060009002208DF8040000208DF8060080
:101AE0008DF8070003208DF805006946FE4803F0D5
:101AF00053FE08220A21FC4803F0D9FE08220B21DC
:101B0000F94803F0D4FE02940020ADF80C00ADF8C3
:101B10000E00ADF81000ADF814000C20ADF8120066
:101B200002A9F24805F0F0FC0121F04805F074FD2F
:101B30004FF4A06003F052FD0D208DF81800022034
:101B40008DF8190001208DF81A008DF81B0006A8E9
:101B500003F049FDE64804F0D5FB4FF00060079024
:101B600000200A90E348099004200B90DF48001DF4
:101B7000089000200C904FF480600D9000200E9093
:101B80000F9010904FF4003011900020129003201D
:101B9000139000201490159007A9D54804F054FC28
:101BA00001224021D14805F0E4FD01221021D04856
:101BB00004F011FD0121CE4804F080FC16B010BDE8
:101BC0000CB5002001900090CA480078022812D17C
:101BD000C84840780190C748C078C649897840EA2B
:101BE000012000909DF80400C3490870BDF8000072
:101BF000C249088004E00420BF490870BF4908803A
:101C00000CBD10B596B004460121480504F00AF851
:101C10000121080504F039F801210C2004F002F834
:101C20000420009002208DF8040000208DF80600AA
:101C30008DF8070002208DF805006946B04803F0D2
:101C4000ABFD4FF48050009002208DF8040000207E
:101C50008DF806008DF8070002208DF80500694612
:101C6000A14803F099FD08220221A54803F01FFEB8
:101C700008220C219C4803F01AFE4FF4A06003F0E8
:101C8000ADFC2F208DF8180005208DF819008DF877
:101C90001A0001208DF81B0006A803F0A4FC029492
:101CA0000020ADF80C00ADF80E00ADF81000ADF856
:101CB00014000C20ADF8120002A9924805F024FC93
:101CC0000121904805F0A8FC8948783004F01AFBFF
:101CD0004FF00060079040200A908B4809909620B2
:101CE0000B908848001D089000200C904FF48060F5
:101CF0000D9000200E900F9010904FF40030119036
:101D0000002012900320139000201490159007A932
:101D10007748783004F098FB01228021794805F05B
:101D200028FD012210217248783004F054FC012172
:101D30006F48783004F0C2FB16B010BD10B596B0F5
:101D400004460121202003F0B1FF0121042003F00B
:101D500069FF0121880503F065FFC0200090022083
:101D60008DF8040000208DF806008DF80700032090
:101D70008DF8050069465C4803F00EFD0822062137
:101D8000594803F094FD08220721574803F08FFDBE
:101D900002940020ADF80C00ADF80E00ADF8100074
:101DA000ADF814000C20ADF8120002A9574805F058
:101DB000ABFB0121554805F02FFC4FF4A06003F068
:101DC0000DFC39208DF8180003208DF81900012032
:101DD0008DF81A008DF81B0006A803F004FC4C488F
:101DE00004F090FA4FF02060079000200A904948D4
:101DF000099004200B904548001D089000200C908D
:101E00004FF480600D9000200E900F9010904FF4D2
:101E100000301190002012900320139000201490A5
:101E2000159007A93A4804F00FFB012240213748DA
:101E300005F09FFC01221021354804F0CCFB012164
:101E4000334804F03BFB16B010BD0CB500200190E8
:101E5000009030480078022812D12E484078019036
:101E60002C48C0782B49897840EA012000909DF8E1
:101E7000040029490870BDF800002849088004E0E2
:101E8000042025490870254908800CBD00B585B09F
:101E90000121082003F0C6FE0121880303F006FF9C
:101EA00000208DF8100001208DF813000C20039005
:101EB00003A9134803F070FC0221032005F0F2FC93
:101EC0000420009000208DF8040010208DF80500FB
:101ED00001208DF80600684604F0F6FB08208DF816
:101EE000080000201CE0000000080240004C0040F8
:101EF000406002407B0100207F0100208001002023
:101F0000000C0240005000408E05002000140140EB
:101F10002864024082010020860100208801002000
:101F20008DF809008DF80A0001208DF80B0002A839
:101F300003F059FB05B000BD70B504460D46012CF9
:101F40000BD12946FE4805F092FB00BF4021FC481A
:101F500005F03DFC0028F9D028E0032C0BD12946E0
:101F6000F84805F084FB00BF4021F64805F02FFC3F
:101F70000028F9D01AE0042C0BD12946F24805F0CC
:101F800076FB00BF4021F04805F021FC0028F9D085
:101F90000CE0052C0AD12946EC4805F068FB00BF8F
:101FA0004021EA4805F013FC0028F9D070BD00205C
:101FB000E7494862E7490860E7490860E74908607F
:101FC00070470020E2494862E24908604FF08041D2
:101FD0004862E3490860E3490860E3490860DE4974
:101FE0000860DE490860E1490860E149086070471F
:101FF00000204FF080414862D949086070470020B6
:10200000D8490860D8490860704710B50020D94900
:102010000870002407E061210120FFF78DFF3220C6
:10202000FEF7D2FD641C022CF5D30120D1490870C3
:102030007A20D149087010BD10B50020CF49087032
:10204000002407E061210320FFF776FF3220FEF72E
:10205000BBFD641C022CF5D30120C84908707A200E
:10206000C749087010BD2DE9F14FAEB0C5A02D9045
:1020700000202C908DF888008DF860002E98122892
:1020800031D2DFE800F009313A41484F565F6871BC
:102090007A81888F969DA4FD0221C34803F0DEFB60
:1020A00088B100224FF40041C04803F0F5FB4FF423
:1020B0000041BE4803F0DFFB044600222146BCA0DD
:1020C000FEF7E2FA0FE00122D103B84803F0E4FB87
:1020D0004FF40041B54803F0CEFB044600222146F0
:1020E000BBA0FEF7D1FA53E20122C148B0F90000CB
:1020F0004142C0A0FEF7C8FA4AE20222BF48016886
:10210000BFA0FEF7C1FA43E20322C0480168C0A0A5
:10211000FEF7BAFA3CE20422C1480168C1A0FEF70A
:10212000B3FA35E20522C2480168C2A0FEF7ACFA54
:102130002EE2FEF7EAFB044606222146C1A0FEF786
:10214000A3FA25E2FEF754FC044607222146C0A06C
:10215000FEF79AFA1CE2FEF794FC04460822214698
:10216000BEA0FEF791FA13E2FEF7D5FC0446092261
:102170002146BDA0FEF788FA0AE20A22BD4801689E
:10218000BDA0FEF781FA03E20B22A5480168BEA0BC
:10219000FEF77AFAFCE10C22BF480168BFA0FEF707
:1021A00073FAF5E10D22C0480178C0A0FEF76CFA81
:1021B000EEE10E22C0480188C0A0FEF765FAE7E113
:1021C0000F22C0480168C0A0FEF75EFAE0E10121DD
:1021D000C14803F043FB4FF400511790734803F0DC
:1021E0003DFB04460221BC4803F038FB05464FF492
:1021F00080416E4803F032FB06460421B64803F0E6
:102200002DFB4FF400411690B34803F027FB07461F
:102210000821B14803F022FB80464FF48041AE48CC
:1022200003F01CFB81461021AB4803F017FB4FF471
:1022300000511590A84803F011FB82460821A748D9
:1022400003F00CFB4FF480511490A34803F006FBFD
:1022500010211390A14803F001FB4FF4806112900C
:102260009D4803F0FBFA834680219B4803F0F6FA71
:102270004FF480711190984803F0F0FA109000E04C
:1022800021E01798CDE90B65CDE90D401698CDE911
:102290000798CDE90970DDE913121598CDE9042AF4
:1022A00003910690DDE91101CDE901B100908CA206
:1022B000282122A8109B07F039FD102222A991A005
:1022C000FEF735FA64E18021374803F0D4FA04467A
:1022D0000121354803F0CFFA05464021324803F08A
:1022E000CAFA06464FF400417C4803F0C4FA074698
:1022F0004FF48051844803F0BEFA80464FF4806169
:10230000294803F0B8FA81464FF400617E4803F093
:10231000B2FA4FF400611790234803F0ACFA8246FA
:102320004FF480616D4803F0A6FA83464FF4805164
:102330001D4803F0A0FA4FF4006116906748E5E0ED
:102340000010014000480040004C00400050004098
:10235000000001406C00002024080040880000209C
:10236000700000202404004074000020240C004071
:1023700078000020910000209000002093000020B1
:10238000920000203131313131313131313131314F
:10239000313131313131313131313031313131312E
:1023A00031313131000000000004024000080240D9
:1023B000524F424F5420322044414E47204348411F
:1023C000592053414E2058414E483A2020200000C9
:1023D000524F424F5420322044414E4720434841FF
:1023E000592053414E20444F3A2020200000000045
:1023F0008C000020494D553A00000000B00000203C
:1024000042545F4E414E475F48413A00300300203E
:10241000204C55435F63687579656E203A00000073
:102420001C0300204C75632042616E3A20000000BE
:102430009C0000204769615F7472695F6C617A6516
:1024400072200000454E434F4445525F3048200003
:10245000454E434F4445525F34482000454E434F5C
:102460004445525F38482000454E434F4445525F33
:1024700052522000AC00002042545F4E414E475F54
:102480004E4F4E473A00000046696E616C5F666FC2
:10249000726365203A00000024030020666F7263B7
:1024A000655F4C3A00000000860100204F666673AD
:1024B0006574203A000000008801002044697374AC
:1024C000633A00002C030020466F7263655F7472EC
:1024D00061636B3A0000000000100240000C0240F3
:1024E00025642564256425642564256425642564A4
:1024F0002564256425642564256425642564256494
:1025000000000000493A00000000024003F0B3F967
:102510004FF400511590F84803F0ADF94FF48041A5
:102520001490F64803F0A7F94FF480411390F24855
:1025300003F0A1F94FF480711290F14803F09BF978
:102540004FF400411190EC4803F095F9CDE90B767A
:10255000CDE90D5410901798CDE907A0CDE9099861
:1025600014A807C803ABA3E80708DDE91112139804
:10257000CDE900120290AFF29802282122A8109B08
:1025800007F0D4FB112222A9DEA0FEF7D0F800BF8D
:1025900000BF2FB0BDE8F08F10B50121DB4803F07C
:1025A0008DFF10BD01B5DA4800680099884203DD4F
:1025B0000020D749086004E0D5480068401CD44991
:1025C0000860D3480068FFF74EFD08BD10B5FEF760
:1025D0009CF9D0490860FEF70BFACF490860FEF776
:1025E00050FACE49086010BD2DE9F0412DED088B61
:1025F00006460F46304607F03AF941EC190B9FEDBD
:10260000C81BB0EE490AF0EE690A08F015F8B0EE02
:10261000408AF0EE608A51EC180B07F039F9044655
:10262000002C02DBA4F5E16401E004F5E164384626
:1026300007F01DF941EC1B0B9FEDB91BB0EE4B0AE7
:10264000F0EE6B0A07F0F8FFB0EE409AF0EE609AF9
:10265000304607F00CF941EC1B0B9FEDB11BB0EEBF
:102660004B0AF0EE6B0A07F0E7FFB0EE40AAF0EE7F
:1026700060AA53EC192B51EC1A0B07F011F841EC3E
:10268000180B07F005F905462846211E01DB0A460E
:1026900000E04A42002801DB034600E043429A4240
:1026A00005DA25464FF0FF309F49086003E03546C4
:1026B00001209D4908602846BDEC088BBDE8F081EB
:1026C0000146FA2901DDFA2102E0032900DC02219A
:1026D000C8B2704710B504460B4624B99348007839
:1026E0009349C87116E0934890ED000AB5EEC00A10
:1026F000F1EE10FA07DD2046FFF7E2FF8C49C871C2
:102700000120887106E06042FFF7DAFF8849C8714E
:102710000020887123B9854800788549C87516E07E
:10272000854890ED000AB5EEC00AF1EE10FA07DD1B
:102730001846FFF7C5FF7E49C8750020887506E07A
:102740005842FFF7BDFF7A49C8750120887522B944
:10275000764800787649C87316E0784890ED000A0C
:10276000B5EEC00AF1EE10FA07DD1046FFF7A8FF3C
:102770006F49C8730120887306E05042FFF7A0FF3D
:102780006B49C8730020887310BD6D4B18606D4B8A
:1027900019606D4B1A607047654AD071D075D0735F
:1027A00070476348C079032809DA6148C07D03286F
:1027B00005DA5F48C07B032801DA0120704700205A
:1027C000FCE701206149086070476148006847F2F2
:1027D0003051884201D0012070470020FCE710B53D
:1027E000FFF713FC10BD5B48B0F900004042704792
:1027F000B5EEC00AF1EE10FA09D25748D0ED000A42
:1028000070EE600AFDEEE00A10EE900A7047524842
:10281000D0ED000A70EE200AFDEEE00A10EE900AFC
:10282000F4E710B52DED0A8B044624B99FED4B0A51
:10283000BDEC0A8B10BD002C25DA4948006807F072
:1028400016F841EC190B204607F011F841EC1C0B6F
:102850009FED440B53EC102B06F028FF41EC1B0BB3
:102860009FED420B53EC102B06F01AFF41EC1A0BB4
:1028700053EC192B06F08CFF41EC180B07F03AF8DB
:1028800000EE100AD4E73648006806F0F0FF41EC8D
:10289000190B204606F0EBFF41EC1C0B9FED310BB2
:1028A00053EC102B06F002FF41EC1B0B9FED2F0B9E
:1028B00053EC102B06F053FE41EC1A0B53EC192B82
:1028C00006F066FF41EC180B07F014F800EE100A52
:1028D000AEE7F0EE400AF5EEC00AF1EE10FA02DBC8
:1028E000B0EE600A7047B1EE600AFBE701460029CE
:1028F00040DB08467047000000040240000C024024
:10290000000002404F55543A00000000A060024011
:102910008400002084030020880300208C03002012
:10292000000000000020AC4078020020D40100200C
:10293000040000203C02002040020020440200204D
:10294000600200206402002068020020B40200201F
:10295000000200208C0000209401002000000000F4
:10296000EC01002000000000000004400000000016
:102970000000E03F484270470146FE48D0ED000AA3
:10298000F1EE600AFC48D0ED001A80EEA11A00EECC
:10299000901AF8EEE01AF748D0ED000A41EE210A4D
:1029A000B0EE600AFDEEC00A10EE900A7047F0EE3D
:1029B000401A9FEDF22AB0EE420AF5EEC01AF1EE8F
:1029C00010FA03D2B1EE612AF0EE421AF5EEC00A17
:1029D000F1EE10FA03D2B1EE602AF0EE420AB5EE43
:1029E000C01AF1EE10FA03D2B1EE412AB0EE421A4B
:1029F000F4EEC01AF1EE10FA01DDB0EE610AF4EE69
:102A0000C00AF1EE10FA01DDB0EE600AB4EEC01AB1
:102A1000F1EE10FA01DDB0EE410A7047D8480068C7
:102A20007047D8480068704710B52DED0A8BF0EE5E
:102A3000408A18EE900A06F04AFF41EC1C0B1FED8D
:102A4000481BB0EE4C0AF0EE6C0A07F0F5FDB0EE54
:102A500040BAF0EE60BA1FED4E0B53EC102B51EC68
:102A60001B0B06F07CFD41EC1A0B1FED531BB0EE67
:102A70004A0AF0EE6A0A07F0DFFDB0EE409AF0EE87
:102A8000609A51EC190B06F035FF08EE100A9FED25
:102A9000BE0AB4EEC08AF1EE10FA06DD9FEDBB0A65
:102AA000B4EEC08AF1EE10FA0BD3B5EEC08AF1EEA7
:102AB00010FA0ADB9FEDB60AB4EEC08AF1EE10FA06
:102AC00003D80120BDEC0A8B10BD9FEDB20AB4EE15
:102AD000C08AF1EE10FA01D80220F3E79FEDAE0AAA
:102AE000B4EEC08AF1EE10FA01D80320EAE7042020
:102AF000E8E710B52DED108B8AB0B0EE408AF0EE0D
:102B0000608AB0EE419AA54890ED000A28EE000ACE
:102B1000DFEDA30A80EE201A11EE104A204606F0DF
:102B2000D6FECDE908019DED080B07F081FAB0EE65
:102B300040FAF0EE60FA18EE900A06F0C8FE41EC9A
:102B40001E0B53EC1F2B06F0B1FD41EC1C0B06F0E5
:102B5000D1FE0AEE900A19EE100A06F0B8FECDE991
:102B600006018E4890ED000A28EE000ADFED8C0A7F
:102B700080EE201A11EE104A204606F0A8FE41EC25
:102B80001E0BB0EE4E0AF0EE6E0A08F099FE8DEDC7
:102B9000040B18EE900A06F09AFE41EC1C0B9DED1A
:102BA000040B53EC102B06F081FD41EC1F0B9DED47
:102BB000060B53EC102B06F0D2FCCDE908019DED7D
:102BC000080B51EC100B06F095FE0BEE100A9FED72
:102BD000750A38EE400A7148D0ED000A20EE200A4E
:102BE000DFED6F0A80EE201A11EE104A204606F043
:102BF0006EFECDE908019DED080B07F019FAB0EE65
:102C000040FAF0EE60FA18EE900A06F060FE41EC31
:102C10001E0B53EC1F2B06F049FD41EC1C0B06F07C
:102C200069FE0BEE900A19EE100A06F050FE41EC18
:102C30001F0B9FED5C0A38EE400A5848D0ED000AA1
:102C400020EE200ADFED560A80EE201A11EE104A1F
:102C5000204606F03CFE41EC1E0BB0EE4E0AF0EEB4
:102C60006E0A08F02DFE8DED040B18EE900A06F0AA
:102C70002EFE41EC1C0B9DED040B53EC102B06F0CB
:102C800015FD53EC1F2BCDE906019DED060B51EC14
:102C9000100B06F064FCCDE908019DED080B51EC2A
:102CA000100B06F027FE0DEE100A9FED3F0A38EEDE
:102CB000400A3A48D0ED000A20EE200ADFED380A3B
:102CC00080EE201A11EE104A204606F000FE41EC7C
:102CD0001E0BB0EE4E0AF0EE6E0A07F0A9F9B0EE48
:102CE00040FAF0EE60FA18EE900A06F0F0FD41ECC2
:102CF0001C0B53EC1F2B06F0D9FCCDE908019DED10
:102D0000080B51EC100B06F0F5FD09EE900A19EED8
:102D1000100A06F0DCFD9FED240A38EE400ACDE9EA
:102D200006011E48D0ED000A20EE200ADFED1C0A45
:102D300080EE201A11EE104A204606F0C8FD41EC44
:102D40001E0BB0EE4E0AF0EE6E0A08F0B9FDB0EEC2
:102D500040CAF0EE60CA18EE900A06F0B8FD41ECE9
:102D60001F0B53EC1C2B06F0A1FCCDE904019DEDDB
:102D7000060B1BE0CC010020D00100206F12833A2B
:102D8000EC0100201C02002000E0444500006145E9
:102D90000000E14300C0A84400A00C45E001002071
:102DA0000000E144000096440000164553EC102B4F
:102DB0009DED040B51EC100B06F0D1FBCDE90801A1
:102DC0009DED080B51EC100B06F094FD0AEE100A75
:102DD000F0EE6A0AB0EE4B0A07F000F85FED100A59
:102DE00020EE200AF848D0ED000A80EE201AF748BD
:102DF00080ED001AF6480168F44890ED000ABDEE37
:102E0000C00A10EE100AFFF7EFFB00EE100AB8EE52
:102E1000C00AEE4880ED000AEE4890ED000AB8EED8
:102E2000C00AED4880ED000AEA48006806F01FFD80
:102E3000CDE906011BEE100A06F049FD41EC1E0B20
:102E40009FEDE61BB0EE4E0AF0EE6E0A07F010FFA3
:102E5000B0EE40FAF0EE60FA1AEE900A06F037FD96
:102E600041EC1E0B9FEDDD1BB0EE4E0AF0EE6E0A3C
:102E700007F0FEFE8DED000B53EC1F2B9DED000BBC
:102E800051EC100B06F06BFBCDE902019DED020B3E
:102E900008F07AFDB0EE40CAF0EE60CA9FEDD10BAB
:102EA00053EC102B51EC1C0B06F072FCCDE9040125
:102EB0009DED060B53EC102B9DED040B51EC100B0C
:102EC00006F0F4FBCDE908019DED080B51EC100B69
:102ED00006F010FDC5490860F0EE6B0AB0EE4D0A31
:102EE00006F07CFF5FED520A20EE200AB648D0EDD6
:102EF000000A80EE201ABE4880ED001ABD48016825
:102F0000BB4890ED000ABDEEC00A10EE100AFFF7B4
:102F10006BFB00EE100AB8EEC00AB54880ED000A5F
:102F2000AC4890ED000AB8EEC00AB34880ED000A44
:102F3000A848006806F09BFCCDE906011DEE100ACA
:102F400006F0C5FC41EC1E0B9FEDA41BB0EE4E0A33
:102F5000F0EE6E0A07F08CFE8DED020B1BEE900A70
:102F600006F0B5FC41EC1E0B9FED9C1BB0EE4E0A2B
:102F7000F0EE6E0A07F07CFE8DED000B9DED020B6E
:102F800053EC102B9DED000B51EC100B06F0E7FA03
:102F900041EC1C0BB0EE4C0AF0EE6C0A08F0F4FCAD
:102FA000B0EE40FAF0EE60FA9FED8E0B53EC102B72
:102FB00051EC1F0B06F0ECFBCDE904019DED060B77
:102FC00053EC102B9DED040B51EC100B06F06EFB37
:102FD000CDE908019DED080B51EC100B06F08AFCC1
:102FE00086490860F0EE690AB0EE4A0A06F0F6FE7D
:102FF0005FED950A20EE200A7348D0ED000A80EEBE
:10300000201A7F4880ED001A7E4801687C4890EDC8
:10301000000ABDEEC00A10EE100AFFF7E5FA00EE56
:10302000100AB8EEC00A764880ED000A694890EDB3
:10303000000AB8EEC00A744880ED000A65480068CE
:1030400006F015FC41EC1F0B1AEE100A06F03FFCCF
:1030500041EC1E0B9FED611BB0EE4E0AF0EE6E0AC6
:1030600007F006FE8DED000B19EE900A06F02FFC1E
:1030700041EC1E0B9FED591BB0EE4E0AF0EE6E0AAE
:1030800007F0F6FDB0EE40CAF0EE60CA9DED000B11
:1030900053EC102B51EC1C0B06F061FACDE9020148
:1030A0009DED020B08F070FC8DED040B9FED4D0BB8
:1030B00053EC102B9DED040B51EC100B06F068FB4C
:1030C00053EC1F2BCDE906019DED060B51EC100BC7
:1030D00006F0ECFACDE908019DED080B51EC100B60
:1030E00006F008FC494908601AEE100A06F0EFFBEA
:1030F00041EC1F0B9FED391BB0EE4F0AF0EE6F0A4B
:1031000007F0B6FD8DED080B19EE900A06F0DFFB17
:1031100041EC1F0B9FED311BB0EE4F0AF0EE6F0A32
:1031200007F0A6FD8DED060B9DED080B53EC102B63
:103130009DED060B51EC100B06F011FA41EC1C0B47
:10314000B0EE4C0AF0EE6C0A08F01EFCB0EE40EA5D
:10315000F0EE60EA51EC1E0B06F09AFB2C49086079
:10316000264890ED000ABDEEC00A2A4880ED000A0C
:10317000294890ED000AB8EEC00AFFF755FC274930
:1031800008600AB0BDEC108B10BDF0EE400AB0EE46
:10319000600ABAEE0E1AF4EEC10AF1EE10FA04D289
:1031A000BAEE0E1AB0EE410A0DE0184890ED001A82
:1031B000F2EE0E1AB4EEE11AF1EE10FA03DDB2EE01
:1031C0000E1AB0EE410A7047E001002048020020CC
:1031D00084030020780200203C0200200000000050
:1031E00000000040000000000000344030020020D9
:1031F0004C020020880300204002002034020020FE
:10320000500200208C0300204402002038020020DD
:103210005402002058020020000200205C0200201E
:10322000F848D0ED000AF5EEC00AF1EE10FA06DD1E
:10323000D0ED000A70EEC00AC0ED000A06E0F148C9
:10324000D0ED000A70EE800AC0ED000AED48D0ED26
:10325000000ABAEE0E1AF4EEC10AF1EE10FA04D228
:10326000FAEE0E0AC0ED000A0DE0E648D0ED000AC5
:10327000B2EE0E1AF4EEC10AF1EE10FA03DDF2EE30
:103280000E0AC0ED000A7047DE48D0ED000AF5EEE8
:10329000C00AF1EE10FA06DDD0ED000A70EE800AE9
:1032A000C0ED000A06E0D748D0ED000A70EEC00A73
:1032B000C0ED000AD348D0ED000ABAEE0E1AF4EEC3
:1032C000C10AF1EE10FA04D2FAEE0E0AC0ED000ABD
:1032D0000DE0CC48D0ED000AB2EE0E1AF4EEC10AB1
:1032E000F1EE10FA03DDF2EE0E0AC0ED000A7047AF
:1032F000C548D0ED000AF5EEC00AF1EE10FA06DD81
:10330000D0ED000A70EEC00AC0ED000A06E0BE482B
:10331000D0ED000A70EE800AC0ED000ABA48D0ED88
:10332000000ABAEE0E1AF4EEC10AF1EE10FA04D257
:10333000FAEE0E0AC0ED000A0DE0B348D0ED000A27
:10334000B2EE0E1AF4EEC10AF1EE10FA03DDF2EE5F
:103350000E0AC0ED000A7047AB48D0ED000AF5EE4A
:10336000C00AF1EE10FA06DDD0ED000A70EE800A18
:10337000C0ED000A06E0A448D0ED000A70EEC00AD5
:10338000C0ED000AA048D0ED000ABAEE0E1AF4EE25
:10339000C10AF1EE10FA04D2FAEE0E0AC0ED000AEC
:1033A0000DE09948D0ED000AB2EE0E1AF4EEC10A13
:1033B000F1EE10FA03DDF2EE0E0AC0ED000A7047DE
:1033C0009248D0ED000AF5EEC00AF1EE10FA06DDE3
:1033D000D0ED000A70EEC00AC0ED000A06E08B488E
:1033E000D0ED000A70EE800AC0ED000A8748D0EDEB
:1033F000000ABAEE0E1AF4EEC10AF1EE10FA04D287
:10340000FAEE0E0AC0ED000A0DE08048D0ED000A89
:10341000B2EE0E1AF4EEC10AF1EE10FA03DDF2EE8E
:103420000E0AC0ED000A70477848D0ED000AF5EEAC
:10343000C00AF1EE10FA06DDD0ED000A70EE800A47
:10344000C0ED000A06E07148D0ED000A70EEC00A37
:10345000C0ED000A6D48D0ED000ABAEE0E1AF4EE87
:10346000C10AF1EE10FA04D2FAEE0E0AC0ED000A1B
:103470000DE06648D0ED000AB2EE0E1AF4EEC10A75
:10348000F1EE10FA03DDF2EE0E0AC0ED000A70470D
:1034900010B52DED068BB0EE408A18EE100A06F03E
:1034A00016FA41EC1A0B9FED5A0B53EC102B06F059
:1034B000FDF841EC190B06F01DFA08EE900A56488B
:1034C000006847F2305188420FD1B2EE040A28EE6C
:1034D000000A524880ED000A90ED001ADFED500A14
:1034E0009FED4F0AFFF705FB24E04E4800684E4968
:1034F0000968401A48490968081A00EE100AB8EE2F
:10350000C00A4A4880ED000A494890ED000AF2EEF0
:10351000080A20EE200A414880ED000A90ED001ACA
:10352000444890ED000AF8EEC00A404890ED000AC9
:10353000FFF7DFFAB5EEC08AF1EE10FA3AD036485E
:10354000006847F23051884234D0334890ED000A89
:10355000B8EEC00AFFF768FA012806D002280DD09D
:10356000032814D0042824D11AE0B0EE680AFFF72B
:10357000BFFEB0EE680AFFF787FE1AE0B0EE680AF9
:10358000FFF752FFB0EE680AFFF7B2FE11E0B0EEAF
:10359000680AFFF7E1FEB0EE680AFFF741FE08E0B7
:1035A000B0EE680AFFF70CFFB0EE680AFFF76CFE9A
:1035B00000BF00BF134890ED001A1348D0ED000A79
:1035C000124890ED000AFFF7F2F91B48D0ED000A0F
:1035D000F8EEE00A80EE801ABDEEC10A174880EDD1
:1035E000000A1748006815490968884203DD134836
:1035F000006813490860012012490860BDEC068B81
:1036000010BD0000380200203402002030020020EB
:103610007B14AE47E17AB43F000200209C020020F8
:1036200000000000240200200C0200208C01002079
:1036300014020020F001002090010020F40100207D
:10364000EC010020E401002010B504460020FE49F2
:103650000860FE480460FCB90020FD4908601FEDC9
:10366000100AFC4880ED000A47F23050FA49086021
:10367000FA4908601FED160AF94880ED000A00209B
:10368000F8490860F8490860F8490860F849086096
:103690001FED1D0AFFF7FCFE10BD10B5F04890EDC0
:1036A000000AB5EEC00AF1EE10FA05D1ED48006847
:1036B00010B9ED48006890B11FED270AE84880ED89
:1036C000000A0020E7490860E7490860E948006807
:1036D000E9490860E24890ED000AFFF7D9FE10BD05
:1036E000E648C0ED000AE64880ED000A704770B574
:1036F0002DED028B05460C46B0EE408AD648006898
:10370000A8420BD1D0480068A04207D1D14890ED23
:10371000000AB4EE480AF1EE10FA18D0CA48046064
:10372000CB48006810B90520C9490860D148006835
:10373000D1490860C74880ED008AC748056000206D
:10374000D0490860C64890ED000AFFF7A1FEBDEC25
:10375000028B70BD70B52DED028B0446B0EE408A31
:103760000D46C1480068A0420BD1BD4890ED000A4B
:10377000B4EE480AF1EE10FA03D1BA480068A84244
:1037800037D0B548006847F23051884222D1322004
:10379000AD4908600A20AE49086047F230508442C3
:1037A00018DA0120B1490860B5EEC08AF1EE10FACE
:1037B00003DDB0480068A04208DCB5EEC08AF1EE37
:1037C00010FA07D2AB480068A04203DAB1EE480A0B
:1037D000B0EE408AA4480460A2480560A04880ED8D
:1037E000008A0020A74908609D4890ED000AFFF775
:1037F0004FFEBDEC028B70BD10B52DED028BB0EE0F
:10380000408A04462146B0EE480A47F23050FFF79E
:10381000A1FFBDEC028B10BD70B504460D461FED37
:10382000800A29462046FFF762FF70BD10B52DEDD6
:10383000088BF0EE408A0446B0EE608AB0EE419A02
:10384000864890ED000AB8EEC00AB4EE680AF1EEC0
:1038500010FA0DD17C480068A04209D1824890ED51
:10386000000AB8EEC00AB4EE480AF1EE10FA5ED0D3
:10387000BDEEE80A794880ED000A7E4991ED000A24
:10388000B8EEC00A38EEC00ABDEEC00A10EE100A4B
:103890001FED9D0A2146FFF72AFF7648D0ED000A6A
:1038A000F8EEE00A78EE600AB0EE600AFFF711F871
:1038B000DFED750AB4EEE00AF1EE10FA14DD6D48A2
:1038C00090ED000AB8EEC00AB4EEC08AF1EE10FA2C
:1038D00002DDB0EE490A01E0B1EE490A10EE101A1D
:1038E000084605F0F4FF13E0624890ED000AB8EED8
:1038F000C00A38EE400A10EE101A084605F0E7FF3D
:1039000041EC1B0B9FED610B53EC102B05F0CEFE31
:1039100041EC1A0B05F0EEFF09EE900A0021B0EE23
:10392000690AFDEEC80A10EE900AFFF713FFBDEC1E
:10393000088B10BD10B54D48006801283DDD4A498F
:1039400009684C4A1268881AFEF7D0FF05280CDA7D
:10395000464801680068401C444A1060B1F5FA7F8F
:103960002BDD0020FFF770FE10BD40480068FA28EC
:1039700008DD05203449086035490860FB203B49D3
:10398000086004E005203049086031490860394882
:10399000006835490968884205DDBFEE000A3048F5
:1039A00080ED000A04E0B7EE000A2D4880ED000A21
:1039B0002B4890ED000AFFF76BFD00BFD4E710B570
:1039C0002DED028B234890ED000AB5EEC00AF1EE12
:1039D00010FA08D11E48006828B12348006847F251
:1039E0003051884202DBBDEC028B10BD22490968D0
:1039F000204A1268881AFEF714FFB0EE408AFFF7DB
:103A000047FD00BFEFE700B518480068022815DA47
:103A10001FEDFD0A0F4880ED000A9FED1E0A1048B9
:103A200080ED000A00200F49086047F230500A4933
:103A300008600A49086000200B49086011480068C6
:103A4000401C1049086027E0F0010020F801002028
:103A5000EC010020180200200002002004020020D7
:103A600014020020E8010020080200201C020020AF
:103A7000B4020020240200200C020020CC0100200F
:103A8000D0010020FC01002000004842FCA9F1D236
:103A90004D62403F00000000FD490968884204DA99
:103AA000FC480068FEF778FE0EE0F9480068FA4925
:103AB0000860FA48006820B1F6480068FEF76CFE1E
:103AC00002E00020FEF768FE00BDF34A1268521CB7
:103AD000F14B1A60824207DDF14A12680A44F04B4A
:103AE0001A600022EC4B1A60704770B5FEF77BFE3F
:103AF000EC490860FFF71EFFEB480068002821DD55
:103B0000E7480068E8490968884229D0E448006825
:103B1000E549096888420EDAE1480068E349096826
:103B200088421DDADE480068FEF726FF04460121C0
:103B3000FFF7CBFF14E04FF0FF31DD480068FFF7DF
:103B4000C4FF0DE0D6480068002806DD4FF0FF31C5
:103B5000D8480068FFF7B9FF02E0FFF754FF70BDD7
:103B6000D5480068CF490968884205D0FFF727FF8C
:103B7000CC480068D0490860D0480068E8B3C8481D
:103B8000D0ED000AF8EEE00ACD4890ED001A60EEA4
:103B9000810AB0EE600AFEF72BFE0446C048D0ED65
:103BA000000AF8EEE00AC74890ED001A60EE810ABC
:103BB000B0EE600AFEF71CFE0546B948D0ED000ADB
:103BC000F8EEE00AC04890ED001A60EE810AB0EE0F
:103BD000600AFEF70DFE064622462946FEF77AFDEC
:103BE000BA4890ED000ABDEEC00A10EE102AB8489F
:103BF00090ED000ABDEEC00A00E00AE010EE101AD7
:103C0000B44890ED000ABDEEC00A10EE100AFEF7AF
:103C1000BCFD00BFA3E72DE9F0412DED0E8B04465E
:103C20000D461FED640AF0EE408A1FED660AB0EE05
:103C3000408A284605F01BFE41EC1A0B9FEDA60BAF
:103C400053EC102B05F032FD41EC190B05F020FE72
:103C50000646A348006805F03AFE41EC1C0B9FEDB8
:103C6000A10B53EC102B05F021FD41EC1A0BA01B0E
:103C700005F0FDFD41EC1C0B9FED9C0B53EC102B54
:103C800005F014FD41EC1B0B53EC1A2B05F067FCFF
:103C900041EC190B05F02EFE91490860084690EDA5
:103CA000000A20EE000A10EE101A084605F00FFE7A
:103CB00041EC1A0BB0EE4A0AF0EE6A0A07F064FE15
:103CC000B0EE409AF0EE609A51EC190B05F012FE3E
:103CD0000746384605F0FBFD41EC1C0B9FED850BBC
:103CE00006F02EFDB0EE40EAF0EE60EA9FED830BA9
:103CF00053EC102B51EC1E0B05F04AFD41EC1D0B53
:103D000053EC1C2B05F0D2FC41EC1B0BB0EE4B0A24
:103D1000F0EE6B0A06F0F0F9B0EE40AAF0EE60AA01
:103D20009FED780B53EC102B51EC1A0B05F0BEFCF9
:103D300041EC190B05F0DEFD08EE100A9FED730A49
:103D4000B4EEC08AF1EE10FA04DD9FED700AB0EE19
:103D5000408A0AE0B3EE040AB4EEC08AF1EE10FA2B
:103D600003D2B3EE040AB0EE408ABDEEC80A68483A
:103D700080ED000A006867490860BDEC0E8BBDE865
:103D8000F08110B50221644801F068FDD0B96348A4
:103D90000068634908606348017861480068FFF77C
:103DA0003AFF5C480078604981F82F0081F82B00C9
:103DB00081F82700002081F8260081F82A000120E0
:103DC00081F82E0010BD10B50221534801F046FDC8
:103DD000D8B952480068401F5149086051480178DD
:103DE0004F480068FFF717FF4A4800784E4981F8AE
:103DF0002F0081F82B0081F82700002081F8260091
:103E000081F82A00012081F82E0010BD10B5022192
:103E1000414801F023FDD8B9404800680A384049BC
:103E20000860404801783E480068FFF7F4FE3948D2
:103E300000783D4981F82F0081F82B0081F8270098
:103E4000002081F8260081F82A00012081F82E0048
:103E500010BD10B50221304801F000FDB8B92F485F
:103E600000680F382E4908602E4801782C480068F9
:103E7000FFF7D1FE274800782B4981F82F0081F801
:103E80002B0081F82700002081F826004EE052E048
:103E9000D8010020D4010020FC010020B402002041
:103EA000EC01002024020020F0010020F401002099
:103EB0002C020020F801002028020020E40100204C
:103EC000380200203402002030020020500200207E
:103ED0004C020020480200209A9999999999C93F6B
:103EE00060030020CDCCCCCCCCCCEC3F9A999999F6
:103EF0009999B93F000000A0D750FE3F0000000094
:103F000000C06940000000000000334000007A4318
:103F1000240300201C030020001002409C0000200D
:103F20005C030020860100200400002081F82A00A4
:103F3000012081F82E0010BD10B5FD48C079002881
:103F400050D0FB48007800F0800000284AD10122C0
:103F50005102F84801F0A0FC0120F7490860F74839
:103F600000685A2802DD5A20F5490860F4480078B4
:103F7000F44981F82F0081F82B0081F827000020F8
:103F800081F8260081F82A00012081F82E0043F6EE
:103F9000982004F063FE01221102E64801F07CFC47
:103FA00042F2107004F05AFE0020E64981F82F001A
:103FB00081F82B0081F82700DF49086000224FF4C8
:103FC0000071DC4801F068FC41F2883004F046FEE4
:103FD00000224FF48071D74801F05EFC0020D949DF
:103FE00081F8330010BD10B5D148007800F0800092
:103FF00040B301221102CF4801F04EFC42F2107092
:1040000004F02CFE0020CF4981F82F0081F82B000E
:1040100081F82700C849086000224FF40071C548A4
:1040200001F03AFC41F2883004F018FE00224FF40F
:104030008071C04801F030FC0020C24981F8330093
:10404000C149086010BD10B5B948407800F00200C1
:1040500028BBB748407800F0200000B30020BB49DF
:1040600008600120BA4908600020BA490860BA48CF
:104070000068BA4908600020B24981F82F0081F831
:104080002B0081F82700B64908603220AD4981F83D
:10409000330001225102A74801F0FEFB12E0B148B3
:1040A0000168AD480068C01C81420BDCAB48006869
:1040B000A9490968884205D1A448006810B90120BF
:1040C0009D4908609A48407800F0020078B9984805
:1040D000407800F0040050B1A34800689F49086090
:1040E00001209A49086000209349086015E099482A
:1040F000006890B9994800689B49096888420CD1CA
:10410000994800680A3897490968884205DA00200A
:104110008F49086001208F49086010BD10B58448A0
:104120008079A8B1322004F099FD8148807978B176
:104130008B480068401C8A490860084600680228CD
:1041400001DD0020086000BF794880790028FBD19C
:1041500083480068012821D10221844801F07EFBB8
:10416000E0B900224FF40071724801F095FB41F272
:10417000883004F073FD1A20724981F82700DC2092
:1041800081F82B00182081F82F00002081F82600EC
:1041900081F82A00012081F82E005FE07048006855
:1041A00002285BD10122C101624801F075FB41F296
:1041B000883004F053FD0020624981F82F0081F817
:1041C0002B0081F8270000224FF48071594801F03C
:1041D00063FB42F2107004F041FD3220594981F82E
:1041E00033000A2081F82F0081F82B0081F8270086
:1041F000012081F8260081F82A00002081F82E0095
:104200005B49086013E006E0FCF776FB00B108E0CC
:10421000012004F023FD0221544801F01FFB012876
:10422000F2D000BF52480068401C51490860504815
:1042300000686428E7DB40F6B83004F00FFD012287
:1042400051023C4801F028FB00203E4981F82F0034
:1042500081F82B0081F827004149086010BD00213A
:1042600000EE900AF8EEE00A70EE600AFDEEE00A59
:1042700010EE901A3F4A11607047704770B52DEDEF
:104280000C8B044625469FED3C0AB0EE408AB3EE07
:10429000030AF0EE408AB3EE0B0AC0EE280AB0EE35
:1042A00060AAB0EE4A0A06F02DFCDFED340A80EE7B
:1042B000201AF0EE419A3248006805F008FB41EC04
:1042C0001D0B1FEDF80B53EC102B05F0EFF941EC33
:1042D0001B0B284605F0CBFA41EC1D0B1FEDFD0B27
:1042E00053EC102B05F0E2F941EC1C0B53EC1B2BAB
:1042F00005F035F941EC1A0B05F0FCFA204908608D
:10430000084690ED000AB0EE409A69EE890AB0EED8
:10431000600A06F09DF820EE280AB0EE408A9FED74
:10432000190AB4EEC08AF1EE10FA32DD2CE000007A
:104330007006002000080240380300202C030020F3
:1043400030030020040000204C0300204403002020
:104350003C030020400300203C01002038010020E5
:1043600050030020B0000020400100200010024057
:10437000E8020020640300200000000000007A44EE
:104380006803002000007A431FED020AB0EE408A65
:1043900008E0B5EEC08AF1EE10FA03D21FED0A0A6A
:1043A000B0EE408ABDEEC80AFC4880ED000A006805
:1043B000FB490860BDEC0C8B70BD10B52DED028B78
:1043C000F848C07801EE100AB8EE411ADFEDF61A8F
:1043D00031EE611AF0EE410AF248807801EE100ADF
:1043E000B8EE411ADFEDF01A31EE611AB0EE410A73
:1043F00005F0F4FCF0EE408AEC48D0ED000A9FEDA9
:10440000EC1A81EE200A20EE280AB0EE408AB5EEC2
:10441000C08AF1EE10FA05D29FEDE60A38EE000AE6
:10442000B0EE408ADF48C0787E2807D1DD4880782A
:104430007F2803D19FEDE00AB0EE408A9FEDDC0AB1
:10444000B4EEC08AF1EE10FA06D8B2EE040A28EEF5
:10445000000AB0EE408A09E09FEDD60A38EE400A25
:10446000F2EE040A20EE200AB0EE408A9FEDD30A55
:1044700038EE400AD24880ED000ABDEC028B10BD38
:1044800010B5C848407800F08000002838D00A20D5
:10449000CC4981F82F0081F82B0081F827000120FA
:1044A00081F8260081F82A00002081F82E000024DF
:1044B0000FE006E0FCF720FA00B108E0012004F06C
:1044C000CDFB0221C04801F0C9F90128F2D000BF9C
:1044D000641C642CEDDB40F6B83004F0BFFB3220E6
:1044E000B84981F83300002081F82F0081F82B00B3
:1044F00081F8270001225102B44801F0CDF900BF34
:1045000010BDA848007800F0020090B10020AD492D
:1045100081F82F0081F82B0081F82700AC49086052
:10452000A84981F83300AB490860AB490860AB4942
:1045300008607047AA4801680068401CA84A1060DB
:10454000642907D2A7484089A74909680844A649B1
:1045500008600BE0A44800686421B0FBF1F0A349B7
:10456000086000209E4908609F490860A0480168D3
:104570000068401C9E4A1060642907D2994800894F
:104580009C49096808449B4908600BE09948006809
:104590006421B0FBF1F0984908600020944908605C
:1045A00094490860954801680068401C934A10606F
:1045B000642907D28B488089914909680844904949
:1045C00008600BE08E4800686421B0FBF1F08D4973
:1045D0000860002089490860894908608A480168A4
:1045E0000068401C884A1060782907D27D48C0893D
:1045F000864909680844854908600BE083480068DB
:104600007821B0FBF1F08249086000207E49086003
:104610007E4908607F4801680068401C7D4A106040
:104620000A2907D26F48C0887B49096808447A493B
:1046300008600BE0784800680A21B0FBF1F0774988
:104640000860002073490860734908607448016875
:104650000068401C724A1060322907D261484088C5
:104660007049096808446F4908600BE06D480068AC
:104670003221B0FBF1F06C49086000206849086005
:1046800068490860694801680068401C674A106012
:10469000322907D2534800886549096808446449AB
:1046A00008600BE0624800683221B0FBF1F061491C
:1046B000086000205D4908605D49086070475E48F9
:1046C00000685E490968884203DA5C4800685A4914
:1046D0000860594800685A490968884203DD58480B
:1046E00000685549086053490968534A1268881A96
:1046F000002801DB014600E04142032928DD4D4846
:1047000000684D490968884204DD00202D4981F880
:10471000220003E001202B4981F822004549096865
:10472000454A1268881A002801DB014600E0414230
:104730004900444A1160104600689A2802DD9A2018
:10474000114608603F4800781E4981F8230003E0C5
:1047500005201C4981F823003B48006818B9002057
:10476000184981F82300704710B50E48C079A0B1F0
:104770000C48407800F0040078B12F4800683049B8
:104780000968884262DA2C480068401C2A4908609F
:104790004FF4967004F062FA6FE057E030030020A7
:1047A0002C030020700600200000FF420C030020B4
:1047B000000034430000B44300409C460000E14345
:1047C000CC0000200400002000100240000802403D
:1047D0005803002054030020500300204C03002005
:1047E000900300202406002094030020980000205D
:1047F000980300209C0300209C000020A0030020C0
:10480000A4030020A4000020A8030020AC03002083
:10481000A0000020B0030020B4030020B40000205A
:10482000B8030020BC030020AC000020C00300201F
:10483000C4030020B0000020380100203C0100200B
:1048400040010020700300203C030020FA48C0799A
:1048500098B1F948407800F0200070B1F74800683E
:10486000F7490968884208DDF4480068401EF349AA
:1048700008604FF4C87004F0F1F910BD73B52DED68
:10488000028B14259FEDEF0AB0EE408AEA480079CA
:10489000322805DBE8480079C82801DC012000E067
:1048A00000200446E448007800F00800A8B9E24877
:1048B000007800F0100080B9DF48007800F0200098
:1048C00058B9DD48007800F0400030B92CB119200B
:1048D000FEF7BAFEBDEC028B7CBDD748407800F0F5
:1048E000020030B19DF80C509FEDD70AB0EE408A1F
:1048F00005E09DF808509FEDD50AB0EE408ACE48FD
:10490000007800F0080098B1CB48007800F0100063
:1049100070B9C948007800F0200048B9C64800784E
:1049200000F0400020B929460020FEF775FFB1E0F5
:10493000C148007800F00800A0B9BF48007800F036
:10494000100078B1BC48007800F0200050B9BA4897
:10495000007800F0400028B929464FF4E160FEF7E6
:104960005BFF97E0B448007800F00800A0B9B248B7
:10497000007800F0100078B9AF48007800F020000F
:1049800050B1AD48007800F0400028B929464FF4F6
:104990006170FEF741FF7DE0A748007800F0080055
:1049A00098B9A548007800F0100070B9A2480078C6
:1049B00000F0200048B9A048007800F0400020B185
:1049C0002946A348FEF728FF64E09B48007800F0E2
:1049D0000800A0B19848007800F0100078B9964817
:1049E000007800F0200050B19348007800F04000BB
:1049F00028B929464FF4E170FEF70EFF4AE08E48D1
:104A0000007800F0080098B18B48007800F01000A2
:104A100070B98948007800F0200048B986480078CD
:104A200000F0400020B129468A48FEF7F5FE31E04B
:104A30008148007800F00800A0B97F48007800F0B5
:104A4000100078B17C48007800F0200050B17A481E
:104A5000007800F0400028B9294640F24650FEF7A1
:104A6000DBFE17E07448007800F0080090B9724847
:104A7000007800F0100068B16F48007800F0200066
:104A800040B96D48007800F0400018B129467248DE
:104A9000FEF7C2FE6848007800F00800A8B9664832
:104AA000007800F0100080B96348007800F0200022
:104AB00058B96148007800F0400030B92CB1FDF7DA
:104AC00084FE10B11920FEF7BFFD14B1FEF7E5FD1D
:104AD00027E05948007932280EDAFDF776FE28B132
:104AE0000020B1EE480AFEF787FE1AE00020B1EE82
:104AF000480AFEF781FE14E04F480079C8280EDD11
:104B0000FDF763FE28B10020B0EE480AFEF774FE00
:104B100007E00020B0EE480AFEF76EFE01E0FEF767
:104B2000BCFD00BFD6E610B501204C4988700421B9
:104B30004B4800F093FE012804D102204749C87079
:104B4000012010BD64204549C8700020F9E710B568
:104B50000421434800F082FE01280BD1414800782F
:104B600040B964203D49C87000203F4908603F4972
:104B7000086010BDFBF7C9FE041E01DB204600E003
:104B800060423B490968884208DD364800780128C0
:104B900004D102203149C8700120EAE71E202F49C4
:104BA000C87001202F4908700020E2E710B50020EE
:104BB0002A4988744FF40041294800F04FFE01282B
:104BC00004D102202549C874012010BD6420234966
:104BD000C8740020F9E710B54FF40041204800F0F8
:104BE0003DFE01280BD12348007840B964201B49C1
:104BF000C8740020204908602049086010BDFBF7F8
:104C0000F7FE041E01DB204600E060421C490968F3
:104C1000884208DD17480078012804D102200F4996
:104C2000C8740120EAE71E200C49C874012011490C
:104C300008700020E2E70000700600203801002024
:104C40003C010020000000009A9959403333333F63
:104C50007CFCFFFF3EFEFFFFBAFAFFFF04000020CE
:104C6000001002406C030020240400407400002067
:104C7000780300206D030020240C00407800002001
:104C80007C03002010B50020F84988724FF4804161
:104C9000F74800F0E3FD012804D10220F349C8726F
:104CA000012010BD6420F149C8720020F9E710B559
:104CB0004FF48041EE4800F0D1FD01280CD1ED48C1
:104CC000007848B96420E949C87200204FF080415B
:104CD0004862E949086010BDFBF7D3FE041E01DB02
:104CE000204600E06042E5490968884208DDE14865
:104CF0000078012804D10220DC49C8720120EAE7CB
:104D00001E20DA49C8720120DA4908700020E2E763
:104D100010B52DED048BFBF7F8FDD9490968441A4D
:104D2000002C01DB204600E06042002839DDFBF763
:104D3000ECFDD3490968884203DD0020CB49887027
:104D400002E00120C9498870FBF7DFFDCC49096802
:104D5000441A002C01DB214600E06142084604F0C1
:104D600086FD41EC190B9FEDC70B53EC102B04F0A3
:104D70009DFC41EC180B04F08BFDC449086008460B
:104D80000068FA2801DDFA200860C04800680A2897
:104D900002DA0A20BD490860BC480078B349C870EF
:104DA00002E00220B149C870BDEC048B10BD10B503
:104DB0002DED048BFBF71CFEB5490968441A002C45
:104DC00001DB204600E06042002839DDFBF710FEE1
:104DD000AF490968884203DD0120A449887402E0D4
:104DE0000020A2498874FBF703FEA9490968441A08
:104DF000002C01DB214600E06142084604F037FD4B
:104E000041EC190B9FED9F0B53EC102B04F04EFC63
:104E100041EC180B04F03CFD9C4908600846006812
:104E2000FA2801DDFA200860984800680A2802DAAA
:104E30000A2096490860954800788C49C87402E0B9
:104E400002208A49C874BDEC048B10BD10B52DED4D
:104E5000048BFBF716FE8F490968441A002C01DB0E
:104E6000204600E06042002839DDFBF70AFE894950
:104E70000968884203DD01207C49887202E0002035
:104E80007A498872FBF7FDFD82490968441A002CB3
:104E900001DB214600E06142084604F0E8FC41ECF9
:104EA000190B9FED780B53EC102B04F0FFFB41EC3A
:104EB000180B04F0EDFC7549086008460068FA28F4
:104EC00001DDFA200860714800680A2802DA0A2029
:104ED0006E4908606D4800786449C87202E002209B
:104EE0006249C872BDEC048B10BD70B52DED108BFE
:104EF000F0EE408A04461FEDAD0AB0EE40FA1FED19
:104F0000AF0AB0EE408A6448006804F0E0FC41EC6F
:104F10001C0B9FED620B53EC102B04F0C7FB41EC14
:104F20001A0B00EE104AB8EEC00A38EEC00A10EEB6
:104F3000101A084604F0CBFC41EC1C0B9FED590BFA
:104F400053EC102B04F0B2FB41EC1B0B53EC1A2B6F
:104F500004F005FB41EC190B04F0CCFC4E49086051
:104F6000084690ED000A20EE000A10EE101A0846DE
:104F700004F0ADFC41EC1A0BB0EE4A0AF0EE6A0AFE
:104F800006F002FDB0EE409AF0EE609A51EC190B7B
:104F900004F0B0FC0546284604F099FC41EC1C0BDB
:104FA0009FED420B05F0CCFBB0EE40EAF0EE60EA7C
:104FB0009FED400B53EC102B51EC1E0B04F0E8FB63
:104FC00041EC1D0B53EC1C2B04F070FB41EC1B0B54
:104FD000B0EE4B0AF0EE6B0A05F08EF8B0EE40AA88
:104FE000F0EE60AA9FED350B53EC102B51EC1A0B31
:104FF00004F05CFB41EC190B04F07CFC08EE100A99
:105000009FED300AB4EEC08AF1EE10FA04DD9FED98
:105010002D0AB0EE408A0AE0B3EE040AB4EEC08A6C
:10502000F1EE10FA03D2B3EE040AB0EE408ABDEE00
:10503000C80A254880ED000A006824490860BDECD4
:10504000108B70BD09E01120FDF7ACFA012120485A
:1050500002F0E2FA0F2003F001FEF4E743E01D48FE
:10506000006810B9FFF72BFB3AE035E004000020A0
:10507000001002406F030020700000208003002019
:10508000600200209A9999999999E93F700300204C
:10509000640200206802002060030020CDCCCCCC4C
:1050A000CCCCEC3F9A9999999999B93F000000C0EE
:1050B0006B28FF3F0000000000C0694000000000B6
:1050C0000000334000007A43240300201C0300202A
:1050D00000480040380300200520974981F823004C
:1050E000032003F0BBFDBAE715E09448007800F018
:1050F000010020B143211E20FFF7C0FB02E0192070
:10510000FEF7A2FAFFF704FEFFF751FEFFF79EFE3F
:10511000032003F0A3FDE8E708E0FFF70BFAFDF733
:1051200055FAFEF7E2FC042003F098FDF5E71FB501
:10513000FBF75BFDFBF798FDFBF7E5FFFCF7BAF823
:10514000FCF7ACF9FCF731F9FCF720FAFBF7F7FDB7
:105150004FF4E130FCF7EDFA4FF4E130FCF772FB6D
:105160004FF4E130FCF7FBFB4FF4E130FCF7A0FC1F
:105170004FF46120FCF745FD4FF4E130FCF7DEFD14
:10518000FDF72DFB00BFFFF7CEFC08B9012400E0BE
:105190000024FFF70BFD08B9012000E000200443C4
:1051A000FFF770FD08B9012000E000200443002C47
:1051B000E9D100BFFFF7CBFC08B9012400E00024CF
:1051C000FFF709FD08B9012000E000200443FFF7C4
:1051D0006EFD08B9012000E000200443002CE9D155
:1051E000002057490860FCF7ECFE00200090019079
:1051F000029003464FF4807252A10390564803F088
:10520000EEFA002000900190029003464FF4807265
:1052100052A10390564803F0E2FA0020009001905A
:10522000029003464FF4807252A10390564803F057
:10523000D6FA0020554908605EE054E0FFF761F9B6
:1052400053480068502837DC3C48407800F0400064
:1052500008B1FFF712F83948407800F0020030B189
:105260003648407800F0200008B1FEF78AFD334848
:10527000407800F0020030B13048407800F0100073
:1052800008B1FEF7A0FD2D48407800F0020030B1D3
:105290002A48407800F0040008B1FEF7B7FD27481F
:1052A000407800F0020090B12448407800F00800F7
:1052B00068B1FEF7CEFD0AE03548006840F266317D
:1052C000884204DB1D48807908B1FEF727FFFEF70E
:1052D0008AFEFEF731FE2F480088FEF7CFFFFEF76B
:1052E000B2FEFFF7CDF81548007800F00100002865
:1052F000A4D10A20FEF7A8F99FE71FB5002000906F
:105300000190029003464FF4807223A10390254838
:1053100003F065FA002000900190029003464FF4DC
:10532000807221A10390234803F059FA03F070FE24
:10533000002004B010BD0000040000207006002012
:10534000D00000207461736B526F626F74416E61A4
:105350006C79746963730000195100087461736B90
:10536000446965754B6869656E436F4361750000FC
:10537000E95000087461736B446965754B68696531
:105380006E436F43617531005D5000083C0300209F
:10539000B0000020880100207461736B4D61696E5C
:1053A000000000002F5100087461736B4779726F21
:1053B00000000000455000080CB50020019000904E
:1053C0007248006840F480307049086000BF6F4840
:1053D000006800F4003000900198401C0190009893
:1053E00018B90198B0F5A06FF1D16848006800F4D1
:1053F000003010B10120009001E0002000900098E2
:10540000012846D161484030006840F080505F4933
:10541000403108605E48006840F480405C490860A4
:105420005A48083000685949083108600846006841
:1054300040F4004008600846006840F4A05008604E
:105440005448091F0860081F006840F08070091F59
:10545000086000BF4D48006800F000700028F9D0D7
:1054600040F205604C49086048480830006820F068
:1054700003004649083108600846006840F0020011
:10548000086000BF41480830006800F00C000828A0
:10549000F8D10CBD10B53D48006840F001003B4913
:1054A00008600020394908310860384800683B49E5
:1054B0000840364908603A48091D0860081F00681E
:1054C00020F48020091F0860002030490C3108605A
:1054D000FFF772FF4FF000603249086010BD70B5F1
:1054E00000200022022300240221284D08352D68C7
:1054F00005F00C0020B1042806D0082834D107E0BC
:10550000294D2A4E356033E0294D284E35602FE075
:105510001E4D2D1D2D68C5F380541C4D2D1D2D686D
:1055200005F03F0154B1224DB5FBF1F5174E361D84
:105530003668C6F3881605FB06F209E01A4DB5FB7E
:10554000F1F5124E361D3668C6F3881605FB06F2D5
:105550000E4D2D1D2D68C5F301456D1C6B00B2FB72
:10556000F3F5124E356003E00F4D104E356000BF6D
:1055700000BF064D08352D68C5F303150D4E705D4F
:105580000A4D2D68C540094E356070BD0038024097
:105590000070004008544007003C0240FFFFF6FE48
:1055A0001030002408ED00E00024F400C8030020BF
:1055B00000127A00CC0300200648804706480047C6
:1055C000FEE7FEE7FEE7FEE7FEE7FEE7FEE7FEE7B3
:1055D000FEE7FEE7955400088901000832490143BF
:1055E000324A1160704770B5002100230F22C47841
:1055F0001CB32E4C246804F4E064C4F5E064C4F3E6
:105600000721C1F10404E3B20A4144789C40E1B2AD
:105610008478144021430C07210E254C05786155F0
:10562000047804F01F050124AC4005786D11AD002D
:1056300005F1E025C5F8004109E0047804F01F05F4
:105640000124AC401B4D0678761145F8264070BD0C
:10565000194A0A400243154B1B1F1A60704739B1A3
:10566000124A121D12680243104B1B1D1A6006E0FD
:105670000E4A121D126882430C4B1B1D1A607047A4
:10568000042808D14FF0E021096941F004014FF0EE
:10569000E022116107E04FF0E021096921F00401E7
:1056A0004FF0E022116170470000FA050CED00E0B8
:1056B00000E400E080E100E080FFFF1F10B5044639
:1056C0008C48844208D10121084600F000FB0021EB
:1056D000012000F0FCFA5EE08748844208D10121F5
:1056E000022000F0F4FA0021022000F0F0FA52E06B
:1056F0008248844208D10121042000F0E8FA002108
:10570000042000F0E4FA46E07D48844208D10121FB
:10571000082000F0DCFA0021082000F0D8FA3AE076
:105720007848844208D10121102000F0D0FA0021ED
:10573000102000F0CCFA2EE07348844208D10121F9
:10574000202000F0C4FA0021202000F0C0FA22E05E
:105750006E48844208D10121402000F0B8FA0021AF
:10576000402000F0B4FA16E06948844208D10121D3
:10577000802000F0ACFA0021802000F0A8FA0AE0B6
:105780006448844207D10121801500F0A0FA00216D
:10579000A01500F09CFA10BDF0B50A4600210023C8
:1057A000002400BF3DE0012505FA01F3156805EA74
:1057B00003049C4234D105684F000326BE40B54324
:1057C000056015794E00B5400668354305601579CA
:1057D000012D02D01579022D16D185684F000326C0
:1057E000BE40B543856055794E00B5408668354367
:1057F0008560456801268E40B543456045689679C9
:105800008E40B6B235434560C5684F000326BE40A2
:10581000B543C560D5794E00B540C6683543C5600F
:10582000491C1029BFD3F0BD4FF6FF710160002164
:10583000017141718171C171704708B54FF48032B7
:105840000092009A0A430092009AC261C161009AD4
:10585000C261C2690092C269009208BD024600207E
:1058600013690B400BB1012000E000207047014696
:10587000086980B270470246002053690B400BB1A3
:10588000012000E0002070470146486980B270475F
:1058900001837047418370470AB1018300E041836F
:1058A00070474161704742694A4042617047F0B5B4
:1058B000002300244D07ED0E02FA05F3CE1000F18F
:1058C000200555F826504E07F70E0F26BE40B5436B
:1058D000CF1000F1200646F82750CE1000F1200529
:1058E00055F8265045EA0304CE1000F1200545F88E
:1058F0002640F0BD000002400004024000080240C3
:10590000000C024000100240001402400018024047
:10591000001C024000200240FA48006840F00100EC
:10592000F84908600020F74908310860F548006828
:10593000F5490840F3490860F448091D0860081F4C
:10594000006820F48020091F08600020ED490C3118
:10595000086070470021EB4A921C117011460870D4
:10596000704710B501460022002300204A11012A89
:1059700002D1E44C236808E0022A03D1E14C7034E0
:10598000236802E0DF4C7434236801F01F02012415
:1059900094401C400CB1012000E0002010BD38B53F
:1059A000002000900024002500BF3120FFF7D9FF20
:1059B00005460098401C00900098B0F5A06F01D0FB
:1059C000002DF2D03120FFF7CCFF08B1012400E018
:1059D0000024204638BD01460020CA4A106820F045
:1059E000F80040EAC10010607047C949086070477C
:1059F0000021C44A703211701170012802D00428AD
:105A00000AD104E00121BF4A7032117005E005217E
:105A1000BC4A7032117000E000BF00BF7047BD4942
:105A20000860704770B5049C41EA82150126C6EBF8
:105A3000530645EA0645054345EA0465B14E361D61
:105A4000356070BDB24908667047820142EA017252
:105A5000AC4B84331A607047AD4988667047AC49D7
:105A6000C864704702460020A64B0833186820F02F
:105A7000EC6042EA01031843A24B083318607047F8
:105A8000024600209F4B0833186820F0784042EA15
:105A9000010318439B4B08331860704701460020F0
:105AA000984A0832106820F00300084310607047DD
:105AB00094480830006800F00C0070470146002050
:105AC000904A0832106820F0F000084310607047D8
:105AD000014600208B4A0832106820F4E050084349
