:020000040800F2
:10000000B83200207D500008490200084B02000869
:100010004F020008530200085702000800000000C9
:10002000000000000000000000000000A101000826
:100030005B02000800000000E5010008978000084E
:1000400097500008975000089750000897500008F4
:1000500097500008975000089750000897500008E4
:1000600061040008A5040008975000080503000873
:10007000E7020008430300089750000879020008CF
:100080009750000885020008975000089750000814
:1000900097500008975000089750000897500008A4
:1000A000975000087F0300089750000897500008F9
:1000B000AB030008D90300080504000897500008A6
:1000C0009750000897500008975000085D040008FA
:1000D00097500008610200089750000897500008E8
:1000E0009750000897500008975000089750000854
:1000F0009750000897500008975000081F03000809
:100100009750000897500008310400085F04000869
:100110009750000897500008510300085D0300083D
:10012000975000089F020008B90200089750000885
:100130009750000897500008975000089750000803
:1001400097500008975000089750000897500008F3
:10015000D9020008975000089750000897500008EF
:1001600097500008975000089750000897500008D3
:1001700097500008975000089750000897500008C3
:100180009750000897500008DFF810D009F07CFA6B
:1001900000480047B54D0008AFF30080B83200209A
:1001A000234B19680868B0E8F04F80F309884FF0D6
:1001B000000080F3118870470000000003480068C9
:1001C000006880F3088862B600DF00BF08ED00E039
:1001D000DFF80C00016841F470010160704700BF56
:1001E00088ED00E0EFF30980114B1A681EF0100F44
:1001F00008BF20ED108A20E9F04F106008B54FF0DD
:10020000140080F3118808F00EFB4FF0000080F31B
:100210001188BDE8084019680868B0E8F04F1EF082
:10022000100F08BFB0EC108A80F30988704700BF38
:10023000E8020020EFF311804FF0140181F31188E0
:10024000704780F311887047704700BFFEE700BF1A
:10025000FEE700BFFEE700BFFEE77047704770474C
:1002600010B540F22551904807F029F818B1202127
:100270008D4807F01BF810BD10B58C498C4805F06F
:1002800053FF10BD10B58B498948303005F022FF6F
:1002900020B188498648303005F046FF10BD10B5C2
:1002A0008549864805F016FF28B18349834805F043
:1002B0003BFF01F01DFD10BD10B581497F4818308E
:1002C00005F032FF7F4840787E49097840EA0120F6
:1002D00000B27D49088010BD10B57C497748603078
:1002E00005F022FF10BD10B573497148483805F07C
:1002F000F1FE30B170496E48483805F015FF00F046
:100300009FFA10BD10B572496948603805F0E2FEE9
:1003100020B16F496648603805F006FF10BD10B582
:100320006C496348483005F0D5FE48B1002160486B
:10033000483005F025FE67495D48483005F0F4FE79
:1003400010BD10B559495A48303805F0EDFE10BDC2
:1003500010B50121604806F00FFD10BD10B5012158
:100360005E4806F009FD7A204F49888001215C48EB
:1003700006F0B4FE01215B4806F0B0FE10BD10B5DA
:100380000121594806F0F8FC5748008800F0100099
:1003900028B156480068401E5449086004E053489C
:1003A0000068401C5149086010BD10B50121880744
:1003B00006F0E2FC4FF08040008800F0100028B109
:1003C0004B480068401E4A49086004E048480068FD
:1003D000401C4749086010BD10B50121454806F092
:1003E000CBFC4448008800F0100028B14248006867
:1003F000401E4149086004E03F480068401C3E49F7
:10040000086010BD10B501213C4806F0B5FC3B4822
:10041000008800F0100028B139480068401E3849B3
:10042000086004E036480068401C3549086010BD8B
:1004300010B50121334806F09FFC3248008800F0D7
:10044000100028B130480068401E2F49086004E0C1
:100450002D480068401C2C49086010BD704770474B
:1004600010B5042005F0F8FED8B12021274804F08B
:100470007CFF0421264804F053FF012804D1002109
:10048000164805F0F9FF09E00421214804F048FF6F
:1004900020B9124805F0F4FF1E49086004201E49E7
:1004A000086010BD7047000000100140208000204F
:1004B0007060024000802020008800102864024004
:1004C0000080201004050020640000200088002027
:1004D0002080001000800028001000400014004020
:1004E000004800400014014000000140440000208A
:1004F00048000020000400404C000020000800409C
:1005000060000020000C004050000020000002406D
:10051000000C024040000020143C014070B504462D
:10052000204608F069FD05462146F74808F06BFDB6
:10053000A0B195222146F44808F052FD0021F3486D
:1005400005F01EFDF048F1490C310860EF48B8385D
:10055000C0F8BC500121ED4805F012FD70BD70B52A
:100560000446002510E0605D68B1615DE84806F072
:10057000E0FD00BF8021E64806F08BFE0028F9D0A0
:10058000681CC5B200E070BDEDE770B504460025FB
:100590000FE05CB12146DE4806F0CBFD00BF8021B4
:1005A000DB4806F076FE0028F9D000E070BD681C3C
:1005B000C5B2032DEDDB00BFF8E713B50C460020F4
:1005C000FFF7E3FFD3A0FFF7CAFF2346D2A296218D
:1005D000D24809F0B3F8D148FFF7C1FFD0A0FFF728
:1005E000BEFFCDA29621CD48009B09F0A7F8CB48CD
:1005F000FFF7B5FFCCA0FFF7B2FFFF20FFF7C5FF65
:10060000FF20FFF7C2FFFF20FFF7BFFF1CBD70B543
:1006100005460C46BFA0FFF7A2FF2246BEA1BF4879
:1006200009F0A6F8BD48FFF79AFFBDA0FFF797FFB6
:100630002846FFF794FFBCA0FFF791FFFF20FFF7CC
:10064000A4FF70BD77B585B00546FF26B4A103C9E8
:10065000CDE90301B4A000680290AEA0006801904B
:1006600000240AE00020B1490855B1490855AB49BA
:100670000855A5490855601CC4B21E2CF2DB0A209F
:10068000A6490870FF2048708870C870A2A1A848C9
:10069000079A09F06DF8A64901A808F095FC01A990
:1006A0009E4808F091FC03A99C4808F08DFC29465F
:1006B0009A4808F089FC98A19D48069A09F058F8D4
:1006C0009B49964808F080FC02A9944808F07CFCFD
:1006D000FF209649087048708870904808F074FCB4
:1006E0008E48FFF71BFF08B070BDF7B584B0054614
:1006F0000E46FF278AA103C9CDE902018AA000683E
:10070000019084A000680090002408E00020874940
:1007100008558749085581490855601CC4B20A2C00
:10072000F4DB0A207D490870FF2048708870C8708B
:1007300079A17F48069A09F01BF87D49684608F0C0
:1007400043FC6946754808F03FFC02A9734808F06D
:100750003BFC2946714808F037FC31466F4808F0E9
:1007600033FC01A96D4808F02FFCFF206F49087089
:10077000487088700020C8700871684808F024FC30
:100780006648FFF7CBFE07B0F0BD01B58EB069A299
:10079000322101A80E9B08F0D1FF01A8FFF7BEFE91
:1007A0000FB000BD73B584B00546FF265CA103C938
:1007B000CDE902015CA00068019056A0006800909D
:1007C00000240AE000205949085559490855534961
:1007D00008554D490855601CC4B21E2CF2DB0A2096
:1007E0004E490870FF2048708870C8704AA1504870
:1007F000059A08F0BDFF4E49684608F0E5FB6946DA
:10080000464808F0E1FB02A9444808F0DDFB294610
:10081000424808F0D9FB4649404808F0D5FB01A9F9
:100820003E4808F0D1FBFF204049087048708870AE
:100830003A4808F0C9FB3948FFF770FE06B070BDB2
:100840001CB53F4800783E49497808443C498978BE
:1008500008443B49C978084439490979084438496A
:10086000497908443649897908443549C9790844A1
:100870003349097A0844C0B201903148007A00F047
:100880000F0000909DF800000D2803D000212D4896
:1008900006F024FC1CBD2A48007A00F00F000D2849
:1008A00006D12748007800F0010008B10D207047FC
:1008B0000020FCE71CB5244805F0E2FD2349096847
:1008C00040EA01400A2190FBF1F00090002417E07B
:1008D0001D4805F0D5FD1D49096840EA01400A217F
:1008E00090FBF1F00190DDE90021881A002801DB7E
:1008F000014600E04142052900DA641C019800909D
:10090000022CE5DB01981CBD5E040020B8600240AB
:1009100000500040740000002564000028030020FF
:100920002E7478743D220000220000000E04002086
:10093000E60300206A302E76616C3D2564000000DD
:100940004005002000480040000001404400002015
:100950001CB54FF0804005F093FDF849096840EA66
:1009600001400A2190FBF1F00090002418E04FF0C4
:10097000804005F085FDF149096840EA01400A21FF
:1009800090FBF1F00190DDE90021881A002801DBDD
:10099000014600E04142322900DA641C01980090CF
:1009A000022CE4DB01984100002901DB08461CBD54
:1009B0004842FCE71CB5E24805F062FDE1490968E0
:1009C00040EA0140642190FBF1F00090002417E020
:1009D000DB4805F055FDDB49096840EA0140642128
:1009E00090FBF1F00190DDE90021881A002801DB7D
:1009F000014600E04142322900DA641C019800906F
:100A0000022CE5DB01981CBD70471CB5CE4805F0F3
:100A100037FDCE49096840EA0140642190FBF1F0BE
:100A20000090002417E0C84805F02AFDC74909686E
:100A300040EA0140642190FBF1F00190DDE90021E2
:100A4000881A002801DB014600E04142322900DA21
:100A5000641C01980090022CE5DB01981CBD01B5D7
:100A600081B000200090019800EBC0004000009091
:100A700002E00098401E009000980028F9D10CBDBB
:100A800001B581B00020009044F2506101984843C4
:100A9000009002E00098401E009000980028F9D1D4
:100AA0000CBD1CB501211F2004F01EFE4FF6FF7087
:100AB000009001208DF8040000208DF80600012030
:100AC0008DF8070003208DF805006946A04804F062
:100AD000C5FB4FF6FF70009001208DF80400002048
:100AE0008DF8060001208DF8070003208DF8050021
:100AF0006946984804F0B2FB4FF6FF700090012061
:100B00008DF8040000208DF8060001208DF8070004
:100B100003208DF8050069468F4804F09FFB1CBD3B
:100B20001CB501217E2004F0DFFDC02000900020D4
:100B30008DF8040001208DF8070002208DF80500D3
:100B40006946864804F08AFB0620009000208DF854
:100B5000040001208DF8070002208DF80500694689
:100B60007B4804F07BFB0420009000208DF80400FB
:100B700001208DF8070002208DF8050069467548B0
:100B800004F06CFB1CBD1FB54FF4E06004F088FA64
:100B900036208DF8000000208DF801008DF802004D
:100BA00001208DF80300684604F07FFA012110202F
:100BB00004F0CDFD3220ADF8040040F2E7300290A1
:100BC0000020ADF80C00ADF8060001A9644805F05E
:100BD0000AFC0121624806F0CFF801221146604864
:100BE00006F0A2F800215E4805F046FC01215C48B1
:100BF00005F082FC1FBD1FB54FF4E06004F050FA11
:100C000037208DF8000000208DF801008DF80200DB
:100C100001208DF80300684604F047FA01212020E6
:100C200004F095FD3220ADF8040040F2E730029068
:100C30000020ADF80C00ADF8060001A9494805F008
:100C4000D2FB0121474806F097F80122114645489A
:100C500006F06AF80021434805F00EFC01214148E6
:100C600005F04AFC1FBD00B58BB00121022004F045
:100C70007FFD01210C2004F037FD032206213548B9
:100C800004F077FB03220721324804F072FB0322B1
:100C90000821304804F06DFB032209212D4804F09F
:100CA00068FB4FF47070069002208DF81C00032042
:100CB0008DF81D0000208DF81E0001208DF81F000A
:100CC00006A9244804F0CAFAA420ADF8200040F692
:100CD000B83009904FF48070ADF828000020ADF8CE
:100CE000220008A9204805F07EFB6020ADF8040032
:100CF0000120ADF8060000200390ADF8100001219E
:100D0000194805F0F9FB0021174805F0B5FB01A9CA
:100D1000154805F0FDFB01A9134805F032FC01A9B7
:100D2000114805F07BFC01A90F4805F0DDFC01210D
:100D30000D4805F0D2FF0BB000BD000048000020B8
:100D40000008004060000020000400404C0000202B
:100D50000004024000080240000C02400000024073
:100D600000100040001400400004014000B58BB0AA
:100D70000121082004F0EBFC0121084604F0B4FC3A
:100D800002220021FE4804F0F4FA02220121FC486C
:100D900004F0EFFA02221146F94804F0EAFA0222BE
:100DA0000321F74804F0E5FA0F20069002208DF8A1
:100DB0001C0003208DF81D0000208DF81E0001206E
:100DC0008DF81F0006A9EE4804F048FABA20ADF8E5
:100DD000200042F2107009900020ADF82800ADF814
:100DE000220008A9E74805F0FEFA6020ADF80400EB
:100DF0000120ADF8060000200390ADF8100001219D
:100E0000E04805F079FB0021DE4805F035FB01A93B
:100E1000DC4805F07DFB01A9DA4805F0B2FB01A929
:100E2000D84805F0FBFB01A9D64805F05DFC01217F
:100E3000D44805F052FF0BB000BD00B58BB00121C6
:100E4000042004F084FC01210D2004F04DFC02225A
:100E50000C21CD4804F08DFA02220D21CA4804F07D
:100E600088FA02220E21C84804F083FA02220F21D8
:100E7000C54804F07EFA4FF47040069002208DF8C9
:100E80001C0003208DF81D0000208DF81E0001209D
:100E90008DF81F0006A9BC4804F0E0F9A420ADF8C5
:100EA000200040F6B83009904FF48070ADF828006B
:100EB0000020ADF8220008A9B44805F094FA60209B
:100EC000ADF804000120ADF8060000200390ADF855
:100ED00010000121AD4805F00FFB0021AB4805F0E3
:100EE000CBFA01A9A94805F013FB01A9A74805F011
:100EF00048FB01A9A54805F091FB01A9A34805F00D
:100F0000F3FB0BB000BD00B589B00121080404F06B
:100F10002FFC0121084604F0E7FB03221146984804
:100F200004F027FA03220221954804F022FA0C204B
:100F3000019002208DF8080003208DF809000020A0
:100F40008DF80A0001208DF80B0001A98C4804F0EF
:100F500085F90020ADF818004FF6FF7007900020CB
:100F6000ADF82000ADF81A0006A9894805F03BFA53
:100F70000420ADF80C000020ADF80E00C820ADF83C
:100F800014000120ADF8100003A9814805F002FE0D
:100F900000231A4603217F4805F099FF01217D486F
:100FA00005F0EAFE012211467A4805F0BDFE012156
:100FB000774805F0A1FA0021764805F05DFA09B0FE
:100FC00000BD00B589B00121084604F0C0FB012135
:100FD000022004F0BCFB0121032004F085FB012268
:100FE0000F21674804F0C5F9012203216A4804F083
:100FF000C0F902220421684804F0BBF9022205214D
:10100000654804F0B6F93820019002208DF80800F8
:1010100003208DF8090000208DF80A0001208DF8CA
:101020000B0001A95C4804F019F94FF4004001904D
:1010300002208DF8080003208DF8090000208DF8AB
:101040000A0001208DF80B0001A94D4804F006F9B3
:101050000020ADF818004FF6FF7007900020ADF8A3
:101060002000ADF81A0006A94FF0804005F0BBF94A
:1010700006A94A4805F0B7F90420ADF80C00022093
:10108000ADF80E001420ADF814000120ADF81000EA
:1010900003A9800705F07EFD03A9404805F07AFD0D
:1010A00002231A460321580705F011FF02231A46AE
:1010B00003213A4805F00BFF0121880705F05CFE8B
:1010C0000121364805F058FE01221146900705F02F
:1010D0002BFE01221146314805F026FE012188072A
:1010E00005F00AFA01212D4805F006FA00214FF01B
:1010F000804005F0C1F90021284805F0BDF94FF402
:10110000C06003F0CDFF1D208DF8000003208DF896
:10111000010000208DF8020001208DF803006846D0
:1011200003F0C3FF1C208DF8000004208DF801009F
:1011300000208DF8020001208DF80300684603F0BE
:10114000B4FF09B000BD00B589B00121084604F024
:101150000FFB0121102004F0C7FA4FF4206001902A
:1011600002208DF8080003208DF8090000208DF87A
:101170000A0001208DF80B0001A9094812E00000C7
:1011800000000240000C0040000C0240000800403B
:101190000000014000400140000402400004004003
:1011A0000010024004F05AF801220921FE4804F020
:1011B000E0F801220B21FC4804F0DBF80020ADF838
:1011C00018004FF6FF7007900020ADF82000ADF832
:1011D0001A0006A9F54805F006F90420ADF80C0040
:1011E0000020ADF80E000A20ADF814000120ADF883
:1011F000100003A9ED4805F0CDFC00231A46032199
:10120000EA4805F064FE0121E84805F0B5FD012239
:101210001146E64805F088FD0121E44805F0ACFDE3
:1012200001221146E14805F07FFD0121DF4805F06C
:1012300063F90021DD4805F01FF94FF4C06003F0A9
:101240002FFF19208DF8000001208DF801000020EB
:101250008DF8020001208DF80300684603F025FF99
:1012600009B000BD00B589B00121042004F06FFA77
:101270000121082004F038FA4FF440500190022078
:101280008DF8080003208DF8090000208DF80A0071
:1012900001208DF80B0001A9C54803F0DFFF0020F5
:1012A000ADF818004FF6FF7007900020ADF8200051
:1012B000ADF81A0006A9BF4805F095F802220C21E6
:1012C000BB4804F056F802220D21B94804F051F849
:1012D0000420ADF80C000220ADF80E00C820ADF8D7
:1012E00014000120ADF8100003A9B24805F052FC2B
:1012F00002231A460321AF4805F0E9FD0121AD485C
:1013000005F03AFD01221146AA4805F00DFD012124
:10131000A84805F0F1F842F21071A64805F0ACF8C3
:101320000020A449143108800120A24908804FF40C
:10133000C06003F0B5FE1E208DF8000004208DF87B
:10134000010000208DF8020001208DF8030068469E
:1013500003F0ABFE09B000BD00B589B00121082043
:1013600004F0F5F90121084604F0BEF903200190CC
:1013700002208DF8080003208DF8090000208DF868
:101380000A0001208DF80B0001A98B4803F066FFCD
:101390000020ADF818004FF6FF7007900020ADF860
:1013A0002000ADF81A0006A9844805F01CF80222B6
:1013B0000021814803F0DDFF022201217E4803F075
:1013C000D8FF0420ADF80C000220ADF80E00C820B4
:1013D000ADF814000120ADF8100003A9774805F01E
:1013E000D9FB02231A460321744805F070FD012140
:1013F000724805F0C1FC01221146704805F094FCCA
:1014000001216E4805F078F842F210716B4805F042
:1014100033F80020694914310880012067490880A9
:101420004FF4C06003F03CFE32208DF80000042031
:101430008DF8010000208DF8020001208DF80300D6
:10144000684603F032FE09B000BD00B59BB0012133
:101450005B4804F049F90121080204F089F90020F1
:1014600002905848039058480490002005900820A6
:101470000690002007904FF480600890400009908B
:1014800080000A9040110B9040020C9000200D90BB
:1014900001200E9000200F90109002A94B4804F0FC
:1014A00035FD0121494804F06BFD3C2000900320EC
:1014B0008DF8040000208DF8070069463E4803F0CF
:1014C000CDFE3C20009003208DF8040000208DF814
:1014D000070069463E4803F0C1FE002011904FF41A
:1014E00040301290002013904FF47060149011A8B7
:1014F00004F072FA4FF08070159001208DF85800BA
:101500008DF85900002017901890199008208DF838
:10151000680015A92B484C3804F02FFA0423012247
:10152000022128484C3804F0AEFA04230222032199
:1015300024484C3804F0A7FA042303221946214812
:101540004C3804F0A0FA04231A4605211D484C38F3
:1015500004F099FA042305220C211A484C3804F0AF
:1015600092FA042306220D2116484C3804F08BFA17
:10157000042307220E2113484C3804F084FA042374
:1015800008220F210F484C3804F07DFA01210D4844
:101590004C3804F023FB01210A484C3804F013FBBB
:1015A000012108484C3815E00010024000000140BD
:1015B000000C02400008004000000240000C004007
:1015C000050040004C200140F4040020106402405B
:1015D0000008024004F017FAFE4804F0B0FA1BB00D
:1015E00000BD08B54FF4E06003F05AFD25208DF8EA
:1015F000000000208DF801008DF8020001208DF818
:101600000300684603F051FD08BD10B596B00446CE
:101610000121102004F0ACF80121084604F064F820
:101620000121880504F060F84FF4C06000900220AA
:101630008DF8040000208DF806008DF807000220C8
:101640008DF805006946E44803F008FE07220921E9
:10165000E14803F08EFE07220A21DF4803F089FEED
:1016600002940020ADF80C00ADF80E00ADF81000AB
:10167000ADF814000C20ADF8120002A9D74805F00F
:10168000A5FC0121D54805F029FD4FF4A06003F029
:1016900007FD3A208DF8180000208DF819008DF80C
:1016A0001A0001208DF81B0006A803F0FEFCCC48B0
:1016B00004F08AFB4FF00060079000200A90C948B0
:1016C00009900A200B90C548001D089000200C903E
:1016D0004FF480600D9000200E900F904FF48070BA
:1016E00010904002119004201290032013900020CB
:1016F0001490159007A9BA4804F008FC0122402173
:10170000B64805F098FD01221021B54804F0C5FC4B
:101710000121B34804F034FC16B010BD10B596B0EA
:1017200004460121480503F0DFFF0121480404F0CD
:101730000EF80121082003F0D7FF6020009002205E
:101740008DF8040000208DF806008DF807000220B7
:101750008DF805006946A44803F080FD07220521A5
:10176000A14803F006FE072206219F4803F001FE70
:1017700002940020ADF80C00ADF80E00ADF810009A
:10178000ADF814000C20ADF8120002A9974805F03E
:101790001DFC0121954805F0A1FC4FF4A06003F069
:1017A0007FFC11208DF8180000208DF819008DF8AD
:1017B0001A0001208DF81B0006A803F076FC8C4867
:1017C00004F002FB4FF00060079040200A90894827
:1017D00009903C200B908548001D089000200C903B
:1017E0004FF480600D9000200E900F904FF48070A9
:1017F00010904002119004201290032013900020BA
:101800001490159007A97A4804F080FB01228021EA
:10181000764805F010FD01228021744805F00BFD8B
:1018200001221021724804F038FC0121704804F0B4
:10183000A7FB16B010BD10B596B004460121880470
:1018400003F085FF0121082003F04EFF0121480528
:1018500003F04AFF4FF44070009002208DF804001E
:1018600000208DF806008DF8070002208DF8050095
:1018700069465D4803F0F2FC072208215A4803F04C
:1018800078FD07220921584803F073FD02940020D7
:10189000ADF80C00ADF80E00ADF81000ADF8140076
:1018A0000C20ADF8120002A9534805F08FFB01216E
:1018B000514805F013FC4FF4A06003F0F1FB0C203D
:1018C0008DF8180000208DF819008DF81A000120FD
:1018D0008DF81B0006A803F0E8FB4548783804F0B3
:1018E00073FA4FF00060079000200A904348099077
:1018F0000A200B904048001D089000200C904FF4E7
:1019000080600D9000200E900F904FF4807010902A
:101910004002119004201290032013900020149094
:10192000159007A93248783804F0F0FA01224021D6
:10193000314805F080FC012240212F4805F07BFC56
:10194000012210212A48783804F0A7FB01212848F9
:10195000783804F015FB16B010BD10B596B00446EB
:101960000121C80403F0F3FE0121084603F0BCFE88
:101970000121480503F0B8FE0320009002208DF8F5
:10198000040000208DF806008DF8070002208DF875
:1019900005006946104803F061FC082200210E484A
:1019A00003F0E7FC082201210B4803F0E2FC02945B
:1019B0000020ADF80C00ADF80E00ADF81000ADF849
:1019C00014000C20ADF8120002A90D4805F0FEFA33
:1019D000012117E0002001400000024000100140FA
:1019E0004064024004050020000C02400044004016
:1019F000A060024004000020004800404005002094
:101A0000004C0040FB4805F069FB4FF4A06003F078
:101A100047FB0D208DF8180000208DF819008DF877
:101A20001A0001208DF81B0006A803F03EFBF248C7
:101A300004F0CAF94FF00060079000200A90EF48C8
:101A4000099008200B90EB48001D089000200C9096
:101A50004FF480600D9000200E900F904FF4807036
:101A60001090400211900420129003201390002047
:101A70001490159007A9E04804F048FA012240218B
:101A8000DC4805F0D8FB01224021DA4805F0D3FB01
:101A900001221021D84804F000FB0121D64804F0AF
:101AA0006FFA16B010BD10B596B004460121480576
:101AB00003F01AFE0121080503F049FE01210C2064
:101AC00003F012FE0420009002208DF80400002094
:101AD0008DF806008DF8070002208DF80500694694
:101AE000C74803F0BBFB4FF48050009002208DF8F4
:101AF000040000208DF806008DF8070002208DF804
:101B000005006946BF4803F0A9FB08220221BC4832
:101B100003F02FFC08220C21BA4803F02AFC4FF4F2
:101B2000A06003F0BDFA2F208DF8180005208DF875
:101B300019008DF81A0001208DF81B0006A803F08B
:101B4000B4FA02940020ADF80C00ADF80E00ADF828
:101B50001000ADF814000C20ADF8120002A9AA483C
:101B600005F034FA0121A84805F0B8FAA248783007
:101B700004F02AF94FF00060079040200A90A34833
:101B8000099096200B90A048001D089000200C9012
:101B90004FF480600D9000200E900F9010904FF445
:101BA0000030119000201290032013900020149018
:101BB000159007A99048783004F0A8F901228021F7
:101BC000914805F038FB012210218B48783004F051
:101BD00064FA01218848783004F0D2F916B010BDBB
:101BE00010B596B004460121202003F0C1FD01216B
:101BF000042003F079FD0121880503F075FDC02064
:101C0000009002208DF8040000208DF806008DF869
:101C1000070002208DF8050069467A4803F01EFB94
:101C200008220621774803F0A4FB08220721754803
:101C300003F09FFB02940020ADF80C00ADF80E00FD
:101C4000ADF81000ADF814000C20ADF8120002A998
:101C50006F4805F0BBF901216D4805F03FFA4FF4DC
:101C6000A06003F01DFA39208DF8180003208DF8CC
:101C7000190001208DF81A008DF81B0006A803F04A
:101C800014FA644804F0A0F84FF020600790002098
:101C90000A906148099010200B905D48001D089043
:101CA00000200C904FF480600D9000200E900F905B
:101CB0004FF4807010904002119004201290032085
:101CC000139000201490159007A9524804F01EF9B3
:101CD000012240214E4805F0AEFA012210214D4864
:101CE00004F0DBF901214B4804F04AF916B010BDAD
:101CF0000EB500200290019000904748007802281D
:101D00002ED14548407801904348C07842498978AF
:101D100040EA01200090404909783F4A5278114436
:101D20003D4A927811443C4AD2788818C11700EB9A
:101D300011610912A0EB0121C9B202913648007964
:101D40009DF8081088420BD133484079032807D109
:101D50009DF8040031490870BDF800003049088042
:101D60000EBD00B585B00121082003F0BDFC0121A6
:101D7000880303F0FDFC00208DF8100001208DF891
:101D800013000C20039003A91D4803F067FA0221F9
:101D9000032005F0E9FA0420009000208DF80400EB
:101DA00010208DF8050001208DF80600684604F02B
:101DB000EDF908208DF8080000208DF809008DF855
:101DC0000A0001208DF80B0002A803F06EF905B09F
:101DD00000BD70B504460D46012C25D12946114899
:101DE00005F0A7F900BF40210E4805F052FA00287F
:101DF000F9D042E0004C0040406002401305002052
:101E0000000C024000080240005000405E04002028
:101E100000140140286402404F05002024010020E6
:101E20002601002000100140032C0BD12946FE485A
:101E300005F07FF900BF4021FB4805F02AFA002891
:101E4000F9D01AE0042C0BD12946F84805F071F9B5
:101E500000BF4021F54805F01CFA0028F9D00CE03D
:101E6000052C0AD12946F24805F063F900BF40214C
:101E7000EF4805F00EFA0028F9D070BD0020ED49BA
:101E80004862ED490860ED490860ED490860704717
:101E90000020E8494862E84908604FF08041486204
:101EA000E8490860E8490860E8490860E3490860D3
:101EB000E349086070470020E0490860E049086095
:101EC00070470020E0490860E0490860704710B59D
:101ED0000020DF490870002407E061210120FFF79E
:101EE00078FF3220FEF7CCFD641C022CF5D30120D4
:101EF000D74908707A20D749087010BD10B5002066
:101F0000D5490870002407E061210320FFF761FF35
:101F10003220FEF7B5FD641C022CF5D30120CE491A
:101F200008707A20CD49087010BD2DE9F14FAEB090
:101F3000CBA02D9000202C908DF888008DF86000AB
:101F40002E98132832D2DFE800F00A323940474E8B
:101F500057636A71787F8B9299A0ACFDFC000221D7
:101F6000C84803F0DDF988B100224FF40041C648AB
:101F700003F0F4F94FF40041C34803F0DEF90446DE
:101F800000222146C1A0FEF75DFB0FE00122D10334
:101F9000BD4803F0E3F94FF40041BB4803F0CDF92D
:101FA000044600222146C1A0FEF74CFB66E2012256
:101FB000C6480168C6A0FEF745FB5FE20222C6489C
:101FC0000168C6A0FEF73EFB58E20322C64801683E
:101FD000C6A0FEF737FB51E20422C7480178C7A02C
:101FE000FEF730FB4AE2FEF7E5FC044605222146F7
:101FF000C4A0FEF727FB41E20622C54890ED000A87
:10200000BDEEC00A10EE101AC2A0FEF71BFB35E2AF
:102010000722C3480168C3A0FEF714FB2EE20A2280
:10202000C3480168C3A0FEF70DFB27E20922C5489B
:102030000168C5A0FEF706FB20E2C748017A082226
:10204000C6A0FEF7FFFA19E20B22C64890ED000A7F
:10205000BDEEC00A10EE101AC3A0FEF7F3FA0DE2AF
:102060000C22C4480168C4A0FEF7ECFA06E20D2277
:10207000C5480178C5A0FEF7E5FAFFE10E22C64883
:102080000188C6A0FEF7DEFAF8E10F22C64890EDFF
:10209000000ABDEEC00A10EE101AC4A0FEF7D2FA74
:1020A000ECE10121C54803F03BF94FF400511790D2
:1020B000754803F035F904460221C04803F030F9B1
:1020C00005464FF48041704803F02AF90646042182
:1020D000BA4803F025F94FF400411690B74803F0D1
:1020E0001FF907460821B54803F01AF980464FF456
:1020F0008041B24803F014F981461021AF4803F043
:102100000FF94FF400511590AC4803F009F98246DD
:102110000821AB4803F004F94FF480511490A7480C
:1021200003F0FEF810211390A54803F0F9F84FF4DE
:1021300080611290A14803F0F3F8834680219F4804
:1021400001E08FE12AE003F0EBF84FF48071119089
:102150009A4803F0E5F810901798CDE90B65CDE9A2
:102160000D401698CDE90798CDE90970DDE9131205
:102170001598CDE9042A03910690DDE91110CDE907
:10218000001B02908FA2282122A8109B07F0D6FAEC
:10219000122222A96FA0FEF7A8FA6FE18021394828
:1021A00003F0CBF804460121364803F0C6F8054693
:1021B0004021344803F0C1F806464FF400418048FE
:1021C00003F0BBF807464FF48051874803F0B5F899
:1021D00080464FF480612B4803F0AFF881464FF4FE
:1021E0000061814803F0A9F84FF400611790254879
:1021F00003F0A3F882464FF48061714803F09DF824
:1022000083464FF480511F4803F097F84FF4006164
:1022100016906B4803F091F84FF40051159019484F
:1022200003F08BF8E2E0000000480040004C004062
:1022300000500040000001404400002024080040FD
:102240006000002048000020240400404C000020D2
:1022500069000020680000206B0000206A00002058
:10226000313131313131313131313131313131315E
:10227000313131313131303131313131313131314F
:10228000000000000004024000080240524F424F8C
:102290005420322044414E47204348415920534165
:1022A0004E2058414E483A2020200000524F424FC5
:1022B0005420322044414E47204348415920534145
:1022C0004E20444F3A20202000000000C001002092
:1022D000494D553A0000000080000020474F432040
:1022E00042414E3A00000000E800002056492054C8
:1022F00052492042414E3A002301002043414D3AC9
:1023000000000000454E20584F41593A000000009F
:102310008C0000204A6F79537469636B3A000000A7
:10232000900000204C75635F42616E3A000000002F
:1023300094000020476F635F42616E5F6175746F48
:102340003A0000007800002047545F4C415A455243
:102350005F545241493A0000400500204241544533
:1023600052593A002C020020726573756C74203A41
:10237000000000003002002066696E616C5F7265CB
:1023800073756C743A000000240100206F66667358
:102390006574203A0000000026010020646973740F
:1023A000616E63653A000000440200206368656363
:1023B0006B5F73706565643A0000000000100240B6
:1023C000000C024025642564256425642564256489
:1023D00025642564256425642564256425642564B5
:1023E0002564256400000000000002404FF4804195
:1023F0001490F84802F0A1FF4FF480411390F64882
:1024000002F09BFF4FF480711290F44802F095FFA8
:102410004FF400411190F04802F08FFFCDE90B76A8
:10242000CDE90D5410901798CDE907A0CDE9099892
:10243000DDE914121698CDE9050BCDE90312DDE9AB
:1024400011121398CDE900120290AFF288022821F0
:1024500022A8109B07F072F9112222A9E0A0FEF732
:1024600044F90BE01022E04890ED000ABDEEC00AEE
:1024700010EE101ADDA0FEF7E5F800BF00BF2FB088
:10248000BDE8F08F10B50121DC4803F079FD10BDE7
:1024900001B5DB4800680099884203DD0020D84977
:1024A000086004E0D6480068401CD5490860D4485C
:1024B0000068FFF73AFD08BD10B52DED028BD1483D
:1024C000C07801EE100AB8EE411ADFEDCF1A31EEF6
:1024D000611AF0EE410ACB48807801EE100AB8EE9E
:1024E000411ADFEDC91A31EE611AB0EE410A07F068
:1024F0007FF9F0EE408AC548D0ED000A9FEDC41A7E
:1025000081EE200A20EE280AB0EE408AB5EEC08A9D
:10251000F1EE10FA05D29FEDBF0A38EE000AB0EED8
:10252000408AB848C0787E2807D1B64880787F288E
:1025300003D19FEDB90AB0EE408A9FEDB50AB4EE23
:10254000C08AF1EE10FA06D8B2EE040A28EE000AAC
:10255000B0EE408A09E09FEDAF0A38EE400AF2EE95
:10256000040A20EE200AB0EE408AAC4880ED008AD2
:10257000BDEC028B10BDF0B5DDE9054520B9A84ED4
:102580003678A84FFE700BE0002804DDA54FF870E8
:102590000126BE7004E04642A24FFE700026BE70C7
:1025A00021B99F4E36789F4FFE720BE0002904DD63
:1025B0009C4FF9710126BE7104E04E42994FFE71A5
:1025C0000026BE7122B9964E3678964FFE720BE009
:1025D000002A04DD934FFA720126BE7204E05642CF
:1025E000904FFE720026BE7223B98D4E36788D4F05
:1025F000FE730BE0002B04DD8A4FFB730126BE73D4
:1026000004E05E42874FFE730026BE7324B9844EF9
:102610003678844FFE740BE0002C04DD814FFC748F
:102620000026BE7404E066427E4FFE740126BE742E
:1026300025B97B4E36787B4FFE750BE0002D04DD0F
:10264000784FFD750126BE7504E06E42754FFE752C
:102650000026BE75F0BD734AD070D071D072D073B1
:10266000D074D075704701206F49086070476D487D
:10267000C078032815DA6B48C079032811DA694855
:10268000C07A03280DDA6748C07B032809DA654859
:10269000C07C032805DA6348C07D032801DA0120E5
:1026A00070470020FCE76148006847F230518842DB
:1026B00001D0012070470020FCE710B5FFF707FCB0
:1026C00010BD5B48B0F9000040427047B5EEC00A4B
:1026D000F1EE10FA09D25748D0ED000A70EE600A08
:1026E000FDEEE00A10EE900A70475248D0ED000A65
:1026F00070EE200AFDEEE00A10EE900AF4E710B545
:102700002DED0A8B044624B99FED4B0ABDEC0A8BD4
:1027100010BD002C25DA4948006806F00AFE41EC9D
:10272000190B204606F005FE41EC1C0B9FED440BF7
:1027300053EC102B06F01CFD41EC1B0B9FED400BE6
:1027400053EC102B06F00EFD41EC1A0B53EC192B39
:1027500006F080FD41EC180B06F00FFE00EE100AAB
:10276000D4E73648006806F0E4FD41EC190B20463A
:1027700006F0DFFD41EC1C0B9FED310B53EC102BF1
:1027800006F0F6FC41EC1B0B9FED2D0B53EC102BD0
:1027900006F047FC41EC1A0B53EC192B06F05AFDDE
:1027A00041EC180B06F0E9FD00EE100AAEE7F0EE82
:1027B000400AF5EEC00AF1EE10FA02DBB0EE600A54
:1027C0007047B1EE600AFBE7014600293CDB084692
:1027D00070470000000C024000040240000002406C
:1027E0004F55543A00000000340200204C75635FDE
:1027F00062616E5F6C696461723A0000A0600240C1
:102800005C000020400500200000FF428001002005
:10281000000034430000B44300409C468C0000207C
:10282000740100200400002070010020A00100209D
:102830006400002030010020000000008C01002016
:102840009A9999999999B93F484270470146FE482B
:10285000D0ED000AF1EE600AFC48D0ED001A80EEDF
:10286000A11A00EE901AF8EEE01AF748D0ED000A2F
:1028700041EE210AB0EE600AFDEEC00A10EE900AA9
:102880007047F0EE401A9FEDF22AB0EE420AF5EEE4
:10289000C01AF1EE10FA03D2B1EE612AF0EE421A3C
:1028A000F5EEC00AF1EE10FA03D2B1EE602AF0EEB6
:1028B000420AB5EEC01AF1EE10FA03D2B1EE412A87
:1028C000B0EE421AF4EEC01AF1EE10FA01DDB0EEED
:1028D000610AF4EEC00AF1EE10FA01DDB0EE600A12
:1028E000B4EEC01AF1EE10FA01DDB0EE410A704705
:1028F000D84800687047D8480068704710B52DED7B
:10290000088BB0EE408AD548006847F230518842C3
:1029100014D11FED370AD24880ED000AD14880ED6E
:10292000000AD14880ED000AD04880ED000AD04866
:1029300080ED000ACF4880ED000AE8E0CE4800684C
:10294000CE490968401AC5490968081A00EE100AFC
:10295000B8EEC00ACA48D0ED000ACA4890ED001A85
:1029600000EEC10AD0ED000AC0EE208AC64890ED04
:10297000000A20EE280A10EE101A084606F0EAFCBB
:1029800041EC1B0BB0EE4B0AF0EE6B0A07F034FA89
:10299000B0EE40AAF0EE60AA51EC1A0B81F00041B3
:1029A00041EC190B06F0E9FCB2490860B74890ED1C
:1029B000000A38EE800AB448D0ED000A20EE200A62
:1029C00010EE101A084606F0C5FC41EC1A0BB0EEEA
:1029D0004A0AF0EE6A0A07F00FFAB0EE409AF0EEFB
:1029E000609A51EC190B06F0C8FCA1490860A84890
:1029F00090ED000A38EE800AA348D0ED000A20EEE0
:102A0000200A10EE101A084606F0A4FC41EC1A0B3E
:102A1000B0EE4A0AF0EE6A0A07F0EEF9B0EE409A1C
:102A2000F0EE609A51EC190B06F0A7FC8F49086094
:102A3000984890ED000A38EE800A9348D0ED000ADD
:102A400020EE200A10EE101A084606F083FC41EC36
:102A50001B0BB0EE4B0AF0EE6B0A07F0CDF9B0EEAF
:102A600040AAF0EE60AA51EC1A0B81F0004141EC53
:102A7000190B06F082FC7C490860844890ED000A3E
:102A800038EE800A8048D0ED000A20EE200A10EED1
:102A9000101A084606F05EFC41EC1B0BB0EE4B0A28
:102AA000F0EE6B0A07F0A8F9B0EE40AAF0EE60AACB
:102AB00051EC1A0B81F0004141EC190B06F05DFC62
:102AC00068490860724890ED000A38EE800A6E4846
:102AD000D0ED000A20EE200A10EE101A084606F08B
:102AE00039FC41EC1B0BB0EE4B0AF0EE6B0A07F021
:102AF00083F9B0EE40AAF0EE60AA51EC1A0B81F017
:102B0000004141EC190B06F038FC55490860B5EE60
:102B1000C08AF1EE10FA7CD05F48006807282FD2F7
:102B2000DFE800F0042F5378C8ECFE00514890ED28
:102B3000000A30EE480A80ED000A4D4890ED000A88
:102B400030EE480A80ED000A484890ED000A30EE69
:102B5000480A80ED000A444890ED000A30EE480A29
:102B600080ED000A3F4890ED000A30EE480A80ED03
:102B7000000A3B4890ED000A30EE480A80ED000A5A
:102B800006E13B4890ED000A30EE480A80ED000A6D
:102B9000364890ED000A30EE480A80ED000A3248CF
:102BA00090ED000A30EE480A80ED000A2D4890EDC5
:102BB000000A30EE480A80ED000A294890ED000A2C
:102BC00030EE480A80ED000AE2E02A4890ED000A63
:102BD00030EE480A80ED000A244890ED000A30EEFD
:102BE000480A80ED000A204890ED000A30EE480ABD
:102BF00080ED000A1B4890ED000A30EE480A80ED97
:102C0000000A174890ED000A30EE480A80ED000AED
:102C1000BEE0BEE0174890ED000A30EE480A80EDB5
:102C2000000A134890ED000A30EE480A80ED000AD1
:102C30000D4890ED000A30EE480A80ED000A094880
:102C400090ED000A2AE00000680100206C010020DD
:102C50006F12833A8C010020B8010020A0010020EF
:102C6000E0010020DC010020D8010020D401002078
:102C7000D0010020CC010020C0010020AC010020C8
:102C8000B0010020480100207C01002058010020F4
:102C9000540100205C0100208801002030EE480A29
:102CA00080ED000AF64890ED000A30EE480A80ED0B
:102CB000000A6DE0F34890ED000A30EE480A80ED1E
:102CC000000AF14890ED000A30EE480A80ED000A53
:102CD000EE4890ED000A30EE480A80ED000AEC481C
:102CE00090ED000A30EE480A80ED000AE44890EDCD
:102CF000000A30EE480A80ED000A49E0E14890ED14
:102D0000000A30EE480A80ED000ADF4890ED000A24
:102D100030EE480A80ED000ADC4890ED000A00E041
:102D200012E030EE480A80ED000ADA4890ED000A21
:102D300030EE480A80ED000AD14890ED000A30EEEE
:102D4000480A80ED000A23E0CE4890ED000A30EEFC
:102D5000480A80ED000ACC4890ED000A30EE480A9F
:102D600080ED000AC94890ED000A30EE480A80ED77
:102D7000000AC84890ED000A30EE480A80ED000ACB
:102D8000C34890ED000A30EE480A80ED000A00BF0B
:102D900000BFBF4890ED001ABC48D0ED000AB9480A
:102DA00090ED000AFFF76DFDBB48D0ED000AF8EE8C
:102DB000E00A80EE801ABDEEC10AB84880ED000A34
:102DC000B7480068B5490968884203DDB348006820
:102DD000B34908600120B3490860BDEC088B10BD01
:102DE00010B504460020B0490860B0480460FCB942
:102DF0000020AB4908609FEDAE0AAE4880ED000AA6
:102E000047F23050AC490860AC4908609FEDA80A11
:102E1000AB4880ED000A0020AA490860AA49086072
:102E2000AA490860AA4908609FEDA10AFFF766FD5C
:102E300010BD10B5A24890ED000AB5EEC00AF1EE43
:102E400010FA05D19F48006810B99F48006890B1FA
:102E50009FED970A9A4880ED000A00209949086082
:102E6000994908609B4800689B490860944890ED28
:102E7000000AFFF743FD10BD9848C0ED000A9848CE
:102E800080ED000A704770B52DED028B05460C46AB
:102E9000B0EE408A88480068A8420BD1824800689A
:102EA000A04207D1834890ED000AB4EE480AF1EE43
:102EB00010FA18D07C4804607948006810B90520E1
:102EC000774908608348006883490860794880ED45
:102ED000008A79480560002082490860784890EDB2
:102EE000000AFFF70BFDBDEC028B70BD70B52DED38
:102EF000028B0446B0EE408A0D4673480068A0423B
:102F00000BD16F4890ED000AB4EE480AF1EE10FACA
:102F100003D16C480068A84237D06748006847F280
:102F20003051884222D11E205F49086003205C494D
:102F3000086047F23050844218DA01206349086083
:102F4000B5EEC08AF1EE10FA03DD62480068A042D7
:102F500008DCB5EEC08AF1EE10FA07D25D480068D1
:102F6000A04203DAB1EE480AB0EE408A5648046047
:102F700054480560524880ED008A00205949086095
:102F80004F4890ED000AFFF7B9FCBDEC028B70BD15
:102F900010B52DED028BB0EE408A04462146B0EE0E
:102FA000480A47F23050FFF7A1FFBDEC028B10BD7D
:102FB00070B504460D469FED3E0A29462046FFF7B0
:102FC00062FF70BD70B52DED088BF0EE408A0446AF
:102FD000B0EE608AB0EE419A384890ED000AB8EE43
:102FE000C00AB4EE680AF1EE10FA0DD12E4800685E
:102FF000A04209D1344890ED000AB8EEC00AB4EE00
:10300000480AF1EE10FA6FD0BDEEE80A2B4880EDC9
:10301000000A304991ED000AB8EEC00A38EEC00A45
:10302000BDEEC00A10EE100A9FED210A2146FFF7FF
:103030002AFF284890ED000AB8EEC00A38EE400A90
:10304000BDEEC00A10EE105A002D01DB284600E04C
:103050006842642849DD1F4890ED000AB8EEC00AB6
:10306000B4EEC08AF1EE10FA02DDB0EE490A01E0DA
:10307000B1EE490A10EE101A084606F06BF948E066
:10308000E0010020CC010020D0010020D40100206C
:10309000DC010020D801002028010020940100203C
:1030A0008C01002084010020900100209801002064
:1030B00000000000B4010020A0010020A4010020B5
:1030C000B001002088010020A8010020B8010020E4
:1030D00070010020C0010020AC0100206801002028
:1030E0006C0100209C01002022E0FB4890ED000ACA
:1030F000B8EEC00A38EE400A10EE101A084606F084
:1031000029F941EC1B0B9FEDF50B53EC102B06F04E
:103110002FF841EC1A0B06F030F909EE900A002165
:10312000B0EE690AFDEEC80A10EE900AFFF7DEFE67
:10313000BDEC088B70BD10B5EA48006801283FDD82
:10314000E9490968E44A1268881AFFF73DFB052837
:103150000CDAE44801680068401CE24A1060B1F5EE
:103160007A7F2DDD0020FFF73BFE10BDDD480068B3
:10317000B0F5FA7F09DD0520DC490860DC4908600C
:1031800040F2F510D749086004E00520D7490860EF
:10319000D7490860D0480068D3490968884205DDEE
:1031A000BFEE000AD34880ED000A04E0B7EE000A43
:1031B000D04880ED000ACF4890ED000AFFF79EFB53
:1031C00000BFD2E710B52DED028BCB4890ED000A81
:1031D000B5EEC00AF1EE10FA08D1C548006828B172
:1031E000C148006847F23051884202DBBDEC028BD7
:1031F00010BDC04890ED000AB5EEC00AF1EE10FA1D
:103200007ED0BE48006847F23051884279D1B94833
:1032100090ED000AB5EEC00AF1EE10FA08DDB248F2
:103220000068B7490968401AAB490968884210DB51
:10323000B04890ED000AB5EEC00AF1EE10FA7CD26B
:10324000A9480068AE4909680844A349096888424A
:1032500073DDA448006803285CDAA34909689E4A24
:103260001268881AFFF7B0FA0A2816DA9E48006832
:10327000A449086000209E4908609C4908601FED31
:10328000740A9C4880ED000A02209649086099481B
:1032900090ED000AFFF732FBA8E7934800688E49DB
:1032A0000968884237DD924890ED000AB8EEC00AFE
:1032B0009048D0ED000A60EE200A914890ED000A97
:1032C000B8EEC00AC0EE801AB0EE611AB0EE410A44
:1032D000FFF76DFA844909687F4A1268881AFFF778
:1032E00073FA00EE900AB8EEE01A8748D0ED000AB3
:1032F00040EE010A7E4890ED000AB8EEC00A01E0F7
:10330000A8E045E080EE801AB0EE418AB0EE480AAF
:10331000FFF7F4FA9DE0764890ED000AB8EEC00A97
:103320007448D0ED000A60EE200A754890ED000A5E
:10333000B8EEC00AC0EE801A00E023E0B0EE611AD9
:10334000B0EE410AFFF733FA67490968624A12682A
:10335000881AFFF739FA00EE900AB8EEE01A6A48C8
:10336000D0ED000A50EE410A614890ED000AB8EE37
:10337000C00A80EE801AB0EE418AB0EE480AFFF72C
:10338000BDFA66E05B4890ED000AFFF7B7FA60E02F
:10339000584890ED000AB5EEC00AF1EE10FA1FDDB4
:1033A000514890ED000AB8EEC00A5148D0ED000A2D
:1033B000F8EEE00A4F4890ED001A00EEC10A5348BB
:1033C000D0ED000AF8EEE00A70EE600A424890ED97
:1033D000000AB8EEC00AF4EEC00AF1EE10FA27D3E4
:1033E000444890ED000AB5EEC00AF1EE10FA2BD277
:1033F0003D4890ED000AB8EEC00A3D48D0ED000A05
:10340000F8EEE00A3B4890ED001A00EEC10A3F4892
:10341000D0ED000AF8EEE00A70EE200A2E4890ED9A
:10342000000AB8EEC00AF4EEC00AF1EE10FA0BDDA5
:103430002D490968284A1268881AFFF760F9B0EE2A
:10344000408AFFF75BFA04E02A4890ED000AFFF794
:1034500055FACBE62E4909681F4A1268881AFFF709
:103460004EF9B0EE408AFFF749FA00BFBEE600B55C
:103470001C480068022815DA1FEDF30A1E4880ED8B
:10348000000A1FEDF50A1B4880ED000A00202149C3
:10349000086047F23050194908601F490860002051
:1034A000114908601D480068401C1C4908601C49FF
:1034B0000968884204DA1B480068FFF7CCF839E055
:1034C00017480068154908601748006870B3154828
:1034D0000068FFF7C0F82DE0C00100207B14AE4764
:1034E000E17A743FB8010020A8010020900100207B
:1034F0008C010020B0010020B4010020A0010020B8
:1035000064010020BC010020440100206001002073
:10351000AC01002088010020A40100209C010020B3
:10352000780100207401002070010020FFE70020D6
:10353000FFF791F800BDF94A1268521CF74B1A6068
:10354000824207DDF64A12680A44F54B1A600022EF
:10355000F24B1A6070472DE9FC47FFF7B2F8F149CA
:103560000860FFF7E8FDF0480068002821DDEC481E
:103570000068ED49096888422AD0E9480068EA49AC
:10358000096888420EDAE6480068E8490968884216
:103590001EDAE3480068FFF759F904460121FFF7F6
:1035A000CAFF15E04FF0FF31E1480068FFF7C3FFA5
:1035B0000EE0DB480068002806DD4FF0FF31DD48F3
:1035C0000068FFF7B8FF03E0FFF751FFBDE8FC8795
:1035D000D9480068D3490968884205D0FFF7F2FD51
:1035E000D0480068D4490860D4480068E8B3CC48A3
:1035F000D0ED000AF8EEE00AD14890ED001A60EE36
:10360000810AB0EE600AFFF761F80446C448D0EDC5
:10361000000AF8EEE00ACB4890ED001A60EE810A4D
:10362000B0EE600AFFF752F80546BD48D0ED000A3B
:10363000F8EEE00AC44890ED001A60EE810AB0EEA0
:10364000600AFFF743F80646B548D0ED000AF8EEE9
:10365000E00ABE4890ED001A60EE810AB0EE600A02
:10366000FFF734F80746AE4800E023E0D0ED000A4B
:10367000F8EEE00AB64890ED001A60EE810AB0EE6E
:10368000600AFFF723F88046A548D0ED000AF8EE5F
:10369000E00AB04890ED001A60EE810AB0EE600AD0
:1036A000FFF714F8814633463A464146CDE90054C7
:1036B000FEF761FF00BF89E770B52DED028B0F2586
:1036C00005269FEDA50AB0EE408AA44800791E2881
:1036D00005DBA2480079B42801DC012000E00020CD
:1036E0000446FEF7E9FE32259FED9D0AB0EE408AC2
:1036F0009A48407800F0010020B1C8259FED990A52
:10370000B0EE408A9548007800F0080098B19348E0
:10371000007800F0100070B99048007800F02000A8
:1037200048B98E48007800F0400020B929468E48FC
:10373000FFF73EFCC5E08948007800F00800A0B91A
:103740008648007800F0100078B18448007800F0D6
:10375000200050B98148007800F0400028B929467F
:1037600040F2DC50FFF724FCABE07C48007800F02E
:103770000800A0B97948007800F0100078B97748BF
:10378000007800F0200050B17448007800F040004C
:1037900028B929464FF41670FFF70AFC91E06F48EC
:1037A000007800F0080098B96C48007800F010002C
:1037B00070B96A48007800F0200048B9674800787E
:1037C00000F0400020B129466848FFF7F1FB78E09F
:1037D0006248007800F00800A0B16048007800F06E
:1037E000100078B95D48007800F0200050B15B48C7
:1037F000007800F0400028B929464FF49670FFF792
:10380000D7FB5EE05548007800F0080098B15348B7
:10381000007800F0100070B95048007800F02000E7
:1038200048B94E48007800F0400020B12946504881
:10383000FFF7BEFB45E04948007800F00800A0B95A
:103840004648007800F0100078B14448007800F055
:10385000200050B14148007800F0400028B92946C6
:103860004FF46170FFF7A4FB2BE03C48007800F0B8
:10387000080098B93948007800F0100070B1374856
:10388000007800F0200048B93448007800F040008B
:1038900020B129463748FFF78BFB12E0364890ED00
:1038A000000ADFED360AB4EEE00AF1EE10FA08D2B3
:1038B000294690ED000ABDEEC00A10EE100AFFF78F
:1038C00077FB2648007800F0080010BB23480078FA
:1038D00000F01000E8B92148007800F02000C0B9DD
:1038E0001E48007800F0400098B9234890ED000A87
:1038F000DFED220AB4EEE00AF1EE10FA09DD44B180
:10390000FEF7D1FE28B11548C07910B90020FFF7A5
:1039100067FA14B1FFF78DFA5AE031E09C010020FC
:103920008C010020C00100209001002094010020A3
:10393000C801002098010020C4010020840100205B
:10394000E0010020DC010020D8010020D40100208B
:10395000D0010020CC010020000000004005002024
:103960009A99993E9A99193FD4FEFFFF50FBFFFFA9
:103970007CFCFFFF24FAFFFF8C00002000606A46F9
:10398000FC48007914280EDAFEF78DFE28B10020DD
:10399000B1EE480AFFF7FCFA1AE00020B1EE480A3F
:1039A000FFF7F6FA14E0F3480079B4280EDDFEF7CD
:1039B0007AFE28B10020B0EE480AFFF7E9FA07E0E6
:1039C0000020B0EE480AFFF7E3FA01E0FFF731FA12
:1039D000BDEC028B70BDE84801680068401CE64AF7
:1039E0001060322907D2E5484089E5490968084452
:1039F000E34908600BE0E24800683221B0FBF1F0D7
:103A0000E04908600020DC490860DD490860DE48C4
:103A100001680068401CDC4A1060322907D2D74890
:103A20000089DA4909680844D84908600BE0D7489A
:103A300000683221B0FBF1F0D54908600020D2497E
:103A40000860D2490860D34801680068401CD14A28
:103A50001060322907D2C9488089CF4909680844D3
:103A6000CD4908600BE0CC4800683221B0FBF1F092
:103A7000CA4908600020C7490860C7490860C848AB
:103A800001680068401CC64A1060322907D2BB4852
:103A9000C089C44909680844C24908600BE0C148AC
:103AA00000683221B0FBF1F0BF4908600020BC493A
:103AB0000860BC490860BD4801680068401CBB4AFA
:103AC0001060322907D2AD480088B9490968084416
:103AD000B74908600BE0B64800683221B0FBF1F04E
:103AE000B44908600020B1490860B1490860B24893
:103AF00001680068401CB04A1060322907D29F4814
:103B00004088AE4909680844AC4908600BE0AB48FE
:103B100000683221B0FBF1F0A94908600020A649F5
:103B20000860A6490860A74801680068401CA54ACB
:103B30001060322907D291488088A3490968084457
:103B4000A14908600BE0A04800683221B0FBF1F009
:103B50009E49086000209B4908609B4908607047A7
:103B600001B58448407800F0200040B19DF8000085
:103B7000974981F82F00002081F82E0011E07D4840
:103B8000407800F0040040B19DF80000904981F8B1
:103B90002F00012081F82E0003E002208C4981F8DB
:103BA0002F0008BD7348407800F0020010B3894828
:103BB0000068F8B98848006890B99620844981F86F
:103BC000230081F8270081F82B00002081F82200D3
:103BD00081F8260081F82A0001207F49086009E069
:103BE00000207B4981F8230081F8270081F82B0011
:103BF000794908605F48407800F002007549086024
:103C0000704710B55B48407800F00200C0B95948D1
:103C1000407800F0040098B1012280216F4801F043
:103C20009DFB4FF480416E4801F07AFB20B90122E0
:103C300040216A4801F092FB01206A4908700FE0B8
:103C40006848007860B100224021644801F086FB9A
:103C500000228021614801F081FB00206149087049
:103C600010BD10B54FF4E6705F4908600122802155
:103C70005A4801F073FB00240BE002E0012004F03D
:103C80004FFD4FF48041564801F04AFB0128F5D022
:103C9000641C642CF1DB40F2DC5004F041FD012295
:103CA00091024E4801F05AFB4FF4FA7004F038FDCF
:103CB00001224021494801F051FB00240AE002E0C2
:103CC000012004F02DFD0121454801F029FB0128C8
:103CD000F6D0641C642CF2DB00240AE002E0012030
:103CE00004F01EFD01213E4801F01AFB0028F6D029
:103CF000641C642CF2DB4FF47A7004F011FD002296
:103D00004FF48061354801F029FB40F2DC5004F0AB
:103D100007FD00240AE002E0012004F001FD01217A
:103D20002F4801F0FDFA0128F6D0641C642CF2DB68
:103D30004FF4FA7004F0F4FC00224021274801F00F
:103D40000DFB4FF4FA6004F0EBFC002280212348C5
:103D500001F004FB00240AE002E0012004F0E0FC92
:103D600002211F4801F0DCFA0128F6D0641C642C03
:103D7000F2DB10BD400500205C020020F4040020AE
:103D80006002002070000020640200206802002011
:103D9000740000206C020020700200207C000020D3
:103DA0007402002078020020780000207C020020AD
:103DB0008002002080000020840200208802002071
:103DC000840000208C020020900200208800002047
:103DD00004000020400200202002002000040240D5
:103DE0000010024094020020E800002010B54FF4BB
:103DF000E670F949086002E00A2004F091FCF748F7
:103E00000068B0F5EB7FF7DC01224021F44801F0B7
:103E1000A5FA41F2883004F083FC0A20F14981F8C8
:103E20002B0081F8270081F82300012081F822006F
:103E300081F8260081F82A0041F2883004F070FCF5
:103E400040F23A20E449086000224021E44801F0B1
:103E500085FA00240DE004E0012004F061FCFFF786
:103E60002BFC4FF48061E04801F05AFA0128F3D0AE
:103E7000641C642CEFDB40F6B83004F051FC0020E9
:103E8000D84981F8230081F8270081F82B0010BD64
:103E900010B5D648407800F0080050B1D3484078BB
:103EA00000F0020028B901228021CD4801F056FA25
:103EB00011E0CE48007800F0020060B100228021BD
:103EC000C74801F04BFA0020C64981F82B0081F861
:103ED000270081F8230010BD10B5C448407800F0D9
:103EE000400078B34FF48061BF4801F019FA48BB35
:103EF0001E20BC4981F82B0081F8270081F823009F
:103F0000002081F8220081F8260081F82A0042F280
:103F1000107004F005FC0122D102B14801F01EFA34
:103F200042F2107004F0FCFB0020AE4981F82B0037
:103F300081F8270081F8230000224FF40061A8488F
:103F400001F00CFA10BD10B5A848407800F08000D0
:103F500058B31420A34981F82B0081F8270081F879
:103F60002300012081F8220081F8260081F82A0030
:103F700000240BE002E0012004F0D2FB4FF480614A
:103F8000994801F0CDF90128F5D0641C642CF1DBCF
:103F900040F6B83004F0C4FB0020924981F82300B9
:103FA00081F8270081F82B0000BF10BD10B50A2052
:103FB000FEF716FF7D208B4981F82B0081F8270042
:103FC00081F82300002081F8220081F8260081F882
:103FD0002A0043F6982004F0A3FB0122D102804876
:103FE00001F0BCF941F6583004F09AFB00207D49FD
:103FF00081F82B0081F8270081F8230000224FF47C
:104000000061774801F0AAF910BD10B50446784860
:1040100004604A2C09D19FED770A774880ED000AA9
:10402000764800687649086080E24B2C09D19FED04
:10403000750A714880ED000A704800687049086090
:1040400074E24C2C09D19FED700A6B4880ED000A98
:104050006A4800686A49086068E24D2C09D19FED02
:104060006B0A654880ED000A64480068644908608E
:104070005CE24E2C09D19FED660A5F4880ED000A94
:104080005E4800685E49086050E24F2C09D19FED00
:10409000610A594880ED000A58480068584908608C
:1040A00044E2502C09D19FED5C0A534880ED000A90
:1040B000524800685249086038E2512C0AD19FEDFD
:1040C000570A4D4880ED000A4C480068801D4C4955
:1040D00008602BE2522C0AD19FED510A464880ED30
:1040E000000A46480068401D454908601EE2532CFE
:1040F0000AD19FED4C0A404880ED000A3F48006815
:10410000401D3F49086011E2542C0AD19FED460A38
:10411000394880ED000A39480068401D3849086078
:1041200004E2552C0AD19FED410A334880ED000A84
:1041300032480068401F32490860F7E1562C0AD126
:104140009FED3B0A2C4880ED000A2C480068401F78
:104150002B490860EAE1572C0AD19FED360A264820
:1041600080ED000A25480068401F25490860DDE110
:10417000582C0AD19FED300A1F4880ED000A1F48D5
:104180000068401F1E490860D0E1592C0AD19FEDFC
:104190002B0A194880ED000A18480068001F1849CA
:1041A0000860C3E15A2C0AD19FED250A124880ED20
:1041B000000A12480068001F11490860B6E15B2C34
:1041C00042D19FED200A0C4880ED000A0B480068A0
:1041D000001F0B490860A9E1E800002080000020D2
:1041E00000040240040000200010024040050020AE
:1041F0003002002033335F412C0200209400002065
:104200003C020020CDCC6041666662410000644102
:104210009A99654133336741CDCC684166666A41FE
:1042200000006C419A996D4133336F41CDCC7041A0
:1042300066667241000074419A9975413333774143
:10424000CDCC784166667A415C2C0AD19FEDFE0A9E
:10425000FE4880ED000AFE480068001FFD49086026
:1042600064E15D2C0AD19FEDFC0AF84880ED000A5C
:10427000F7480068001FF749086057E15E2C0AD133
:104280009FEDF60AF14880ED000AF1480068C01E73
:10429000F04908604AE15F2C0AD19FEDF10AEB4832
:1042A00080ED000AEA480068C01EEA4908603DE166
:1042B000602C0AD19FEDEB0AE44880ED000AE44847
:1042C0000068C01EE349086030E1612C0AD19FED0F
:1042D000E60ADE4880ED000ADD480068C01EDD49C0
:1042E000086023E1622C0AD19FEDE00AD74880EDF7
:1042F000000AD7480068801ED649086016E1632C82
:104300000AD19FEDDB0AD14880ED000AD048006851
:10431000801ED049086009E1642C0AD19FEDD50ABE
:10432000CA4880ED000ACA480068801EC949086072
:10433000FCE0652C0AD19FEDD00AC44880ED000A4C
:10434000C3480068801EC3490860EFE0662C0AD1AC
:104350009FEDCA0ABD4880ED000ABD480068801E76
:10436000BC490860E2E0672C0AD19FEDC50AB74856
:1043700080ED000AB6480068401EB6490860D5E0E6
:10438000682C0AD19FEDBF0AB04880ED000AB04802
:104390000068401EAF490860C8E0692C0AD19FED53
:1043A000BA0AAA4880ED000AA9480068401EA94937
:1043B0000860BBE06A2C0AD19FEDB40AA34880EDE7
:1043C000000AA3480068401EA2490860AEE06B2CBA
:1043D0000AD19FEDAF0A9D4880ED000A9C48006815
:1043E000401E9C490860A1E06C2C0AD19FEDA90AEF
:1043F000964880ED000A96480068401E954908607E
:1044000094E06D2C09D19FEDA40A904880ED000A3C
:104410008F4800688F49086088E06E2C09D19FEDB5
:104420009F0A8A4880ED000A894800688949086027
:104430007CE06F2C09D19FED9A0A844880ED000A38
:10444000834800688349086070E0702C09D19FEDB3
:10445000950A7E4880ED000A7D4800687D49086025
:1044600064E0712C09D19FED900A784880ED000A34
:10447000774800687749086058E0722C09D19FEDB1
:104480008B0A724880ED000A714800687149086023
:104490004CE0732C0AD19FED860A6C4880ED000A2F
:1044A0006B480068401C6B4908603FE0742C0AD1DF
:1044B0009FED800A654880ED000A65480068401C51
:1044C0006449086032E0752C0AD19FED7B0A5F4891
:1044D00080ED000A5E480068401C5E49086025E0E7
:1044E000762C0AD19FED750A584880ED000A58488D
:1044F0000068401C5749086018E0772C0AD19FEDEE
:10450000700A524880ED000A51480068801C5149E9
:1045100008600BE0782C09D19FED6A0A4B4880EDCA
:10452000000A4B480068801C4A49086000EE104AA7
:10453000B8EEC00A4548D0ED000A20EE200AF2EE9F
:10454000040A80EE201ABDEEC10A5F4880ED000A21
:104550004FF480615D4800F0E3FE38B95C480078B4
:1045600020B93B4800685B4908600FE04FF4806168
:10457000564800F0D5FE48B95548007830B956483D
:10458000807918B1334800685249086010BD10B5F1
:1045900051488079002846D04FF480614B4800F0A4
:1045A000BFFE00283FD14C48007800F08000002872
:1045B00039D00120464908700A20FEF711FC424814
:1045C0000078464981F82B0081F8270081F8230004
:1045D000002081F8220081F8260081F82A0002E0FC
:1045E000642004F09DF83C48007800F0800000282A
:1045F000F6D10122D1023A4800F0B0FE43F69820ED
:1046000004F08EF80020354981F82B0081F827004E
:1046100081F8230000224FF40061314800F09EFE33
:1046200000202B4908702C48C079002878D04FF41E
:104630008061264800F074FE002871D12648007879
:1046400000F0800000284DE000007C412C0200209A
:10465000940000203C0200209A997D4133337F4131
:10466000666680413333814100008241CDCC824176
:104670009A998341666684413333854100008641BF
:10468000CDCC86419A99874166668841333389410A
:1046900000008A41CDCC8A419A998B4166668C4153
:1046A00033338D4100008E41CDCC8E419A998F419C
:1046B000666690413333914100009241CDCC9241E6
:1046C0009A9993416666944130020020001002409E
:1046D0005B020020E80000204005002004000020CC
:1046E0000004024040D00120FA4908700A20FEF779
:1046F00077FBF94890ED000ABCEEC00A10EE100AF4
:10470000C0B2F64981F82B0081F8270081F8230018
:10471000002081F8220081F8260081F82A0003E0B9
:1047200022E0642003F0FCFFED48007800F08000F8
:104730000028F6D10122D102EA4800F00FFE43F62C
:10474000982003F0EDFF0020E44981F82B0081F868
:10475000270081F8230000224FF40061E14800F0B7
:10476000FDFD0020DB49087010BD70B52DED0C8BF0
:104770000446A4F16400002801DB014600E0414248
:104780000D46284604F0D5FD41EC1D0B9FEDD60BE0
:1047900053EC102B04F0ECFC41EC1C0BB0EE4C0A7B
:1047A000F0EE6C0A05F07CF9B0EE40BAF0EE60BABB
:1047B0009FEDCF0B53EC102B51EC1B0B04F0D5FCF1
:1047C00041EC1A0B9FEDCC0B53EC102B04F0D0FCFA
:1047D00041EC190B9FEDCA0B53EC102B04F021FC9C
:1047E00041EC180B04F0C9FD00EE100ABDEC0C8B77
:1047F00070BD10B52DED028B04462046FFF7B5FFC6
:10480000B0EE408AC04880ED008ABDEC028B10BD3E
:1048100010B52DED028B04462046FFF7A6FFB0EE43
:10482000408AAF48C079322818DD612C05DA0020B3
:10483000B1EE480AFEF7ACFB0AE0672C05DD00206C
:10484000B0EE480AFEF7A4FB02E00020FEF7C8FA2B
:1048500024B900209FEDAD0AFEF79AFB612C05DA22
:10486000002201219F4800F079FD0CE0672C05DD56
:10487000002201219B4800F071FD04E00122114655
:10488000984800F06BFDBDEC028B10BD9448407859
:1048900000F00100F0B19E480078662805DD072091
:1048A0008E49C8760120887614E0994800786228FD
:1048B00005DA07208949C876002088760AE09448FE
:1048C0000078622806DB92480078662802DC022025
:1048D0008249C876704710B52DED088BB0EE408A3E
:1048E0009FED8A0AF0EE408A9FED880AB0EE409A6A
:1048F0009FED880A08EE080A10EE101A084604F028
:1049000029FD41EC1B0BB0EE4B0AF0EE6B0A05F0F3
:10491000D7FAB0EE40AAF0EE60AA51EC1A0B04F000
:104920002CFD09EE900ADFED7C0A89EEA00ADFED8E
:104930007B0A20EE200AB0EE409A9FED790AB4EE91
:10494000C09AF1EE10FA04DD9FED750AB0EE409AC0
:104950000AE09FED740AB4EEC09AF1EE10FA03D2A9
:104960009FED700AB0EE409A9FED6B0A39EEC00AD7
:104970009FED691AC0EE010A9FED6B1A9FED6B0A5D
:1049800000EE810AF0EE408A9FED690AF4EEC08ADB
:10499000F1EE10FA04DD9FED660AF0EE408A0AE0BF
:1049A0009FED640AF4EEC08AF1EE10FA03D29FED97
:1049B000610AF0EE408ABDEEC90A5F4880ED000A48
:1049C000BDEEE80A5D4880ED000ABDEC088B10BD25
:1049D000DFED4E1AF0EE610ADFED4C1AB0EE611A0F
:1049E000DFED571A80EE212ADFED561A62EE211A0A
:1049F000B0EE611ADFED4A1AB4EEE11AF1EE10FAE8
:104A000004DDDFED471AB0EE611A0AE0DFED451A6A
:104A1000B4EEE11AF1EE10FA03D2DFED421AB0EE75
:104A2000611ADFED471A70EE611ADFED452A81EE5B
:104A3000A22ADFED3D2ADFED3D1A42EE221AF0EE0A
:104A4000610ADFED3B1AF4EEE10AF1EE10FA04DD43
:104A5000DFED371AF0EE610A0AE0DFED361AF4EE08
:104A6000E10AF1EE10FA03D2DFED321AF0EE610A3C
:104A7000194880ED001A3448C0ED000A70473348E9
:104A8000006833490968884203DA314800682F49D1
:104A900008602E4800682F490968884203DD2D48C8
:104AA00000682A4908602C490968284A1268881A4F
:104AB000002801DB014600E04142012976DD26485D
:104AC000006822490968884248DD0120034981F8CD
:104AD0002E0047E05B02002034020020040000208A
:104AE0004005002000040240D122DBF97E6AACBF01
:104AF000000000000000F03F000000000000E03F68
:104B0000CDCCCCCCCCCCF03F440200200000000047
:104B1000230100200000C84500C02E440000E642EA
:104B200000007A43000048420000C8420040174499
:104B3000008022440080094490000020940000205E
:104B400000C08F450000EC4238020020E800002041
:104B5000EC000020F0000020800000200020A4498C
:104B600081F82E00A3490968A34A1268881A002810
:104B700001DB014600E0414201EB810149009F4A0F
:104B8000116010460068FA2802DDFA20114608601C
:104B90009A480068322802DA32209849086097481B
:104BA0000078934981F82F0004E0FFE70020904946
:104BB00081F82F00704710B59148407800F002004E
:104BC000A0B18F48407800F0040078B18A480068AE
:104BD0008C490968884209DA87480068401C864980
:104BE00008604FF4967003F09BFD18E0844840780D
:104BF00000F0020098B18248407800F0200070B1C7
:104C00007D48006880490968884208DD7A48006864
:104C1000401E794908604FF4C87003F081FD10BD53
:104C200005E01120FDF734FC0F2003F079FDF8E7D3
:104C300011E07348007800F0010010B1FEF73CFD70
:104C400002E00020FEF7CCF8FEF7C5FEFFF717FFE5
:104C5000032003F065FDECE704E0FEF77CFC032095
:104C600003F05EFDF9E71FB5FBF71BFFFBF758FFED
:104C7000FCF7A7F9FCF767FAFCF7F4FAFCF7E5FB99
:104C8000FBF7B9FF4FF4E130FCF7BFFC4FF4E13024
:104C9000FCF744FD4FF4E130FCF7CDFD4FF461200B
:104CA000FCF701FF4FF4E130FCF79AFFFDF705FD3B
:104CB000FDF7EEF8002055490870012054490870AE
:104CC000002000900190029003464FF4807251A1A1
:104CD0000390554803F0E5FA0020009001900290FF
:104CE00003464FF4807251A10390554803F0D9FA5E
:104CF0000420544908700120534908704FF416707D
:104D00003D4908600A20FEF76BF852E049E0FFF7E2
:104D100052FFFFF7BBFDFEF774FF4C480078FFF72A
:104D200077FDFFF7B5F84A4890ED000AB8EEC00AE3
:104D3000FFF7D1FD4748008800EE100AB8EE400AA0
:104D4000FFF746FE44480068FFF75FF9FFF7FBF8FE
:104D50002B48407800F0020030B92948407800F034
:104D6000200008B1FEF77DFF2548407800F00200E2
:104D700030B92348407800F0100008B1FFF736F84A
:104D80001F48407800F0020030B91D48407800F01C
:104D9000400008B1FFF7A0F8FFF7F9FB012003F08E
:104DA000BFFC1748007800F001000028AFD1FEF7E3
:104DB00017F8ABE71FB50020009001900290034662
:104DC0004FF4807225A10390274803F06AFA00206F
:104DD00000900190029003464FF4807223A103904B
:104DE000254803F05EFA03F075FE002004B010BD04
:104DF0000400002080000020E80000200C020020B9
:104E000040050020F0000020EC0000209C00002065
:104E10005A0200207461736B526F626F74416E614D
:104E20006C79746963730000594C00087461736B8A
:104E3000446965754B6869656E436F436175000031
:104E4000314C0008ED010020E70100202401002082
:104E50007800002026010020900000207461736B10
:104E60004D61696E00000000674C00087461736B4F
:104E70004779726F00000000214C00080CB500203B
:104E8000019000907248006840F4803070490860DA
:104E900000BF6F48006800F4003000900198401C8B
:104EA0000190009818B90198B0F5A06FF1D1684849
:104EB000006800F4003010B10120009001E00020F3
:104EC00000900098012846D161484030006840F0C9
:104ED00080505F49403108605E48006840F480407F
:104EE0005C4908605A480830006859490831086030
:104EF0000846006840F4004008600846006840F436
:104F0000A05008605448091F0860081F006840F05E
:104F10008070091F086000BF4D48006800F00070F5
:104F20000028F9D040F205604C4908604848083034
:104F3000006820F003004649083108600846006810
:104F400040F00200086000BF41480830006800F0EF
:104F50000C000828F8D10CBD10B53D48006840F0A1
:104F600001003B4908600020394908310860384891
:104F700000683B490840364908603A48091D086006
:104F8000081F006820F48020091F086000203049B5
:104F90000C310860FFF772FF4FF000603249086083
:104FA00010BD70B500200022022300240221284DEC
:104FB00008352D6805F00C0020B1042806D008281B
:104FC00034D107E0294D2A4E356033E0294D284E73
:104FD00035602FE01E4D2D1D2D68C5F380541C4DEE
:104FE0002D1D2D6805F03F0154B1224DB5FBF1F5A3
:104FF000174E361D3668C6F3881605FB06F209E023
:105000001A4DB5FBF1F5124E361D3668C6F38816FB
:1050100005FB06F20E4D2D1D2D68C5F301456D1CD7
:105020006B00B2FBF3F5124E356003E00F4D104EEE
:10503000356000BF00BF064D08352D68C5F3031568
:105040000D4E705D0A4D2D68C540094E356070BD2E
:10505000003802400070004008544007003C024005
:10506000FFFFF6FE1030002408ED00E00024F400FD
:105070009802002000127A009C0200200648804717
:1050800006480047FEE7FEE7FEE7FEE7FEE7FEE72D
:10509000FEE7FEE7FEE7FEE7594F0008890100083A
:1050A00032490143324A1160704770B50021002334
:1050B0000F22C4781CB32E4C246804F4E064C4F5B9
:1050C000E064C4F30721C1F10404E3B20A41447867
:1050D0009C40E1B28478144021430C07210E254CFA
:1050E00005786155047804F01F050124AC4005786B
:1050F0006D11AD0005F1E025C5F8004109E0047827
:1051000004F01F050124AC401B4D0678761145F8CC
:10511000264070BD194A0A400243154B1B1F1A60F6
:10512000704739B1124A121D12680243104B1B1D01
:105130001A6006E00E4A121D126882430C4B1B1DBA
:105140001A607047042808D14FF0E021096941F046
:1051500004014FF0E022116107E04FF0E0210969FE
:1051600021F004014FF0E022116170470000FA05C0
:105170000CED00E000E400E080E100E080FFFF1FB4
:1051800010B504468C48844208D10121084600F03D
:1051900000FB0021012000F0FCFA5EE08748844219
:1051A00008D10121022000F0F4FA0021022000F0D1
:1051B000F0FA52E08248844208D10121042000F034
:1051C000E8FA0021042000F0E4FA46E07D48844239
:1051D00008D10121082000F0DCFA0021082000F0AD
:1051E000D8FA3AE07848844208D10121102000F032
:1051F000D0FA0021102000F0CCFA2EE0734884424F
:1052000008D10121202000F0C4FA0021202000F064
:10521000C0FA22E06E48844208D10121402000F00B
:10522000B8FA0021402000F0B4FA16E06948844240
:1052300008D10121802000F0ACFA0021802000F08C
:10524000A8FA0AE06448844207D10121801500F0E1
:10525000A0FA0021A01500F09CFA10BDF0B50A4696
:1052600000210023002400BF3DE0012505FA01F3E1
:10527000156805EA03049C4234D105684F000326F3
:10528000BE40B543056015794E00B540066835430C
:1052900005601579012D02D01579022D16D185688A
:1052A0004F000326BE40B543856055794E00B5409A
:1052B000866835438560456801268E40B543456064
:1052C000456896798E40B6B235434560C5684F0053
:1052D0000326BE40B543C560D5794E00B540C668CB
:1052E0003543C560491C1029BFD3F0BD4FF6FF718F
:1052F00001600021017141718171C171704708B570
:105300004FF480320092009A0A430092009AC261E0
:10531000C161009AC261C2690092C269009208BD6F
:105320000246002013690B400BB1012000E0002071
:1053300070470146086980B27047024600205369F1
:105340000B400BB1012000E0002070470146486986
:1053500080B2704701837047418370470AB101836F
:1053600000E0418370474161704742694A404261B1
:105370007047F0B5002300244D07ED0E02FA05F347
:10538000CE1000F1200555F826504E07F70E0F26D7
:10539000BE40B543CF1000F1200646F82750CE108E
:1053A00000F1200555F8265045EA0304CE1000F11F
:1053B000200545F82640F0BD0000024000040240F0
:1053C00000080240000C024000100240001402409D
:1053D00000180240001C024000200240FA48006809
:1053E00040F00100F84908600020F74908310860E2
:1053F000F5480068F5490840F3490860F448091D7C
:105400000860081F006820F48020091F0860002041
:10541000ED490C31086070470021EB4A921C117075
:1054200011460870704710B5014600220023002085
:105430004A11012A02D1E44C236808E0022A03D170
:10544000E14C7034236802E0DF4C7434236801F0CF
:105450001F02012494401C400CB1012000E00020F8
:1054600010BD38B5002000900024002500BF312079
:10547000FFF7D9FF05460098401C00900098B0F552
:10548000A06F01D0002DF2D03120FFF7CCFF08B182
:10549000012400E00024204638BD01460020CA4A0D
:1054A000106820F0F80040EAC10010607047C94958
:1054B000086070470021C44A7032117011700128D1
:1054C00002D004280AD104E00121BF4A70321170D1
:1054D00005E00521BC4A7032117000E000BF00BF3A
:1054E0007047BD490860704770B5049C41EA821559
:1054F0000126C6EB530645EA0645054345EA046521
:10550000B14E361D356070BDB249086670478201E4
:1055100042EA0172AC4B84331A607047AD49886629
:105520007047AC49C864704702460020A64B083358
:10553000186820F0EC6042EA01031843A24B0833DC
:1055400018607047024600209F4B0833186820F00F
:10555000784042EA010318439B4B083318607047B8
:1055600001460020984A0832106820F003000843E2
:105570001060704794480830006800F00C007047D5
:1055800001460020904A0832106820F0F0000843DD
:1055900010607047014600208B4A0832106820F4E2
:1055A000E05008431060704701460020864A0832E8
:1055B000106820F4604040EAC10010607047F0B508
:1055C0000021002200240225002602237E4F0837F6
:1055D0003F6807F00C0121B1042905D0082937D113
:1055E00005E07E4F076036E07D4F076033E0764F81
:1055F0003F1D3F68C7F38056734F3F1D3F6807F05C
:105600003F036EB1764FB7FBF3F7DFF8BCC10CF187
:10561000040CDCF800C0CCF3881C07FB0CF40CE095
:105620006E4FB7FBF3F7DFF8A0C10CF1040CDCF808
:1056300000C0CCF3881C07FB0CF4634F3F1D3F6890
:10564000C7F301477F1C7D00B4FBF5F7076002E05C
:10565000624F076000BF00BF5B4F08373F6807F02D
:10566000F00109095F4F7A5C0768D7404760564FE1
:1056700008373F6807F4E051890A5A4F7A5C476857
:10568000D7408760504F08373F6807F46041490BA7
:10569000544F7A5C4768D740C760F0BD002100F4E2
:1056A0004072B2F5407F0AD1474A0832116821F4AE
:1056B000F8114D4A02401143434A08321160424AF0
:1056C00070321268C0F30B031A433F4B70331A60F9
:1056D000704741494439086070473F494039086084
:1056E000704742490860704739B1374A3032126812
:1056F0000243354B30331A6006E0334A30321268C9
:105700008243314B30331A60704739B12E4A3432FC
:10571000126802432C4B34331A6006E02A4A3432B2
:1057200012688243284B34331A60704739B1264AD5
:10573000383212680243244B38331A6006E0224A9A
:10574000383212688243204B38331A60704739B1BF
:105750001D4A4032126802431B4B40331A6006E078
:10576000194A403212688243174B40331A6070471F
:1057700039B1154A443212680243134B44331A605C
:1057800006E0114A4432126882430F4B44331A60D8
:10579000704739B10C4A1032126802430A4B103379
:1057A0001A6006E0084A103212688243064B103332
:1057B0001A607047E1B1044A143212680243024B86
:1057C00014331A6019E0000000380240FFFFF6FEB3
:1057D0001030002400004742800E47420024F400AD
:1057E00000127A00AC020020FFFCFF0F5C01474270
:1057F0005B4A126882435A4B1A60704739B1584A63
:10580000121D12680243564B1B1D1A6006E0544AD3
:10581000121D12688243524B1B1D1A60704739B12A
:105820004F4A0C32126802434D4B0C331A6006E0AB
:105830004B4A0C3212688243494B0C331A60704752
:1058400039B1474A103212680243454B10331A608F
:1058500006E0434A103212688243414B10331A600B
:10586000704739B13E4A3C32126802433C4B3C33EC
:105870001A6006E03A4A3C3212688243384B3C33A5
:105880001A60704739B1364A403212680243344BCD
:1058900040331A6006E0324A403212688243304B8D
:1058A00040331A60704739B12D4A443212680243BE
:1058B0002B4B44331A6006E0294A44321268824373
:1058C000274B44331A60704739B1254A4C3212686D
:1058D0000243234B4C331A6006E0214A4C321268D3
:1058E00082431F4B4C331A60704739B11C4A503207
:1058F000126802431A4B50331A6006E0184A5032BD
:1059000012688243164B50331A60704739B1144AFB
:10591000D21F12780243124BDB1F1A7006E0104AA6
:10592000D21F127882430E4BDB1F1A7070470C484F
:105930006030006840F0807009496031086070474D
:1059400001460020064A083A12680A400AB10120BE
:1059500000E0002070470249891F0870704700006E
:105960001438024010B501210802FFF769FF002139
:105970004FF48070FFF764FF10BD30B50246002081
:1059800000235068F84C20400D790C6844EA052447
:10599000204350609068F54C2040D1E903542C43DB
:1059A0008D682C434D7944EA450420439060D06AC9
:1059B00020F470000C7D641EE4B2234340EA0350DF
:1059C000D06230BD00210160017141718160C16010
:1059D00001610121017570470021E54A1168E54A1E
:1059E0001140D0E900231A4383681A43C3681A435D
:1059F0001143E14AC2F8041370470021016041607D
:105A00008160C160704721B1826842F0010282600A
:105A100003E0826822F00102826070470A4600219A
:105A20004168D64B19401143416070474162826220
:105A300070470A460021416821F01F01114341606F
:105A4000704738B1CA49096841F40001CA4AC2F82E
:105A5000041306E0C649096821F40001C64AC2F8E9
:105A60000413704738B1C249096841F48001C24A41
:105A7000C2F8041306E0BE49096821F48001BE4A59
:105A8000C2F804137047F0B504460D46002000210B
:105A9000092D11DDE068A5F10A0606EB4607072689
:105AA00006FA07F18843A5F10A0606EB460603FA53
:105AB00006F10843E0600CE0206905EB4507072686
:105AC00006FA07F1884305EB450603FA06F1084399
:105AD0002061072A0FDA606B561E06EB86071F2629
