:020000040800F2
:10000000B0320020954E0008450200084702000863
:100010004B0200084F0200085302000800000000D5
:100020000000000000000000000000009D0100082A
:100030005702000800000000E1010008AF7E000840
:10004000AF4E0008AF4E0008AF4E0008AF4E00089C
:10005000AF4E0008AF4E0008AF4E0008AF4E00088C
:100060005D040008A1040008AF4E00080103000869
:10007000E30200083F030008AF4E000875020008C5
:10008000AF4E000881020008AF4E0008AF4E0008D6
:10009000AF4E0008AF4E0008AF4E0008AF4E00084C
:1000A000AF4E00087B030008AF4E0008AF4E0008BB
:1000B000A7030008D503000801040008AF4E00089C
:1000C000AF4E0008AF4E0008AF4E000859040008BC
:1000D000AF4E00085D020008AF4E0008AF4E0008AA
:1000E000AF4E0008AF4E0008AF4E0008AF4E0008FC
:1000F000AF4E0008AF4E0008AF4E00081B030008CB
:10010000AF4E0008AF4E00082D0400085B04000845
:10011000AF4E0008AF4E00084D0300085903000819
:10012000AF4E00089B020008B5020008AF4E000861
:10013000AF4E0008AF4E0008AF4E0008AF4E0008AB
:10014000AF4E0008AF4E0008AF4E0008AF4E00089B
:10015000D5020008AF4E0008AF4E0008AF4E0008B1
:10016000AF4E0008AF4E0008AF4E0008AF4E00087B
:10017000AF4E0008AF4E0008AF4E0008AF4E00086B
:10018000AF4E0008AF4E0008DFF80CD009F088F938
:1001900000480047274C0008B0320020234B196864
:1001A0000868B0E8F04F80F309884FF0000080F352
:1001B000118870470000000003480068006880F361
:1001C000088862B600DF00BF08ED00E0DFF80C0031
:1001D000016841F470010160704700BF88ED00E0E4
:1001E000EFF30980114B1A681EF0100F08BF20EDC5
:1001F000108A20E9F04F106008B54FF0140080F32A
:10020000118808F01CFA4FF0000080F31188BDE857
:10021000084019680868B0E8F04F1EF0100F08BFDA
:10022000B0EC108A80F30988704700BFE00200201C
:10023000EFF311804FF0140181F31188704780F3C0
:1002400011887047704700BFFEE700BFFEE700BFA0
:10025000FEE700BFFEE770477047704710B540F2F9
:100260002551904806F037FF18B120218D4806F03F
:1002700029FF10BD10B58C498C4805F061FE10BDFA
:1002800010B58B498948303005F030FE20B18849DF
:100290008648303005F054FE10BD10B585498648BB
:1002A00005F024FE28B18349834805F049FE01F09A
:1002B0001DFD10BD10B581497F48183005F040FE86
:1002C0007F4840787E49097840EA012000B27D49A4
:1002D000088010BD10B57C497748603005F030FECD
:1002E00010BD10B573497148483805F0FFFD30B1B5
:1002F00070496E48483805F023FE00F09FFA10BDA3
:1003000010B572496948603805F0F0FD20B16F49B9
:100310006648603805F014FE10BD10B56C4963489E
:10032000483005F0E3FD48B100216048483005F051
:1003300033FD67495D48483005F002FE10BD10B539
:1003400059495A48303805F0FBFD10BD10B5012160
:10035000604806F01DFC10BD10B501215E4806F096
:1003600017FC7A204F49888001215C4806F0C2FDC5
:1003700001215B4806F0BEFD10BD10B501215948B2
:1003800006F006FC5748008800F0100028B15648D7
:100390000068401E5449086004E053480068401C4F
:1003A0005149086010BD10B50121880706F0F0FB27
:1003B0004FF08040008800F0100028B14B480068E2
:1003C000401E4A49086004E048480068401C47490C
:1003D000086010BD10B50121454806F0D9FB44481E
:1003E000008800F0100028B142480068401E4149D2
:1003F000086004E03F480068401C3E49086010BDAA
:1004000010B501213C4806F0C3FB3B48008800F0D2
:10041000100028B139480068401E3849086004E0DF
:1004200036480068401C3549086010BD10B50121F0
:10043000334806F0ADFB3248008800F0100028B1C8
:1004400030480068401E2F49086004E02D480068CD
:10045000401C2C49086010BD7047704710B504203F
:1004600005F006FED8B12021274804F08AFE0421B9
:10047000264804F061FE012804D10021164805F049
:1004800007FF09E00421214804F056FE20B9124874
:1004900005F002FF1E49086004201E49086010BDD7
:1004A0007047000000100140208000207060024072
:1004B0000080202000880010286402400080201066
:1004C000FC04002064000020008800202080001030
:1004D0000080002800100040001400400048004048
:1004E00000140140000001404400002048000020AA
:1004F000000400404C000020000800406000002084
:10050000000C00405000002000000240000C02409F
:1005100040000020143C014070B50446204608F01D
:1005200077FC05462146F74808F079FCA0B19522F2
:100530002146F44808F060FC0021F34805F02CFC4B
:10054000F048F1490C310860EF48B838C0F8BC50A9
:100550000121ED4805F020FC70BD70B50446002572
:1005600010E0605D68B1615DE84806F0EEFC00BF38
:100570008021E64806F099FD0028F9D0681CC5B234
:1005800000E070BDEDE770B5044600250FE05CB1FA
:100590002146DE4806F0D9FC00BF8021DB4806F08A
:1005A00084FD0028F9D000E070BD681CC5B2032DA1
:1005B000EDDB00BFF8E713B50C460020FFF7E3FFC3
:1005C000D3A0FFF7CAFF2346D2A29621D24808F053
:1005D000C1FFD148FFF7C1FFD0A0FFF7BEFFCDA2FA
:1005E0009621CD48009B08F0B5FFCB48FFF7B5FF3B
:1005F000CCA0FFF7B2FFFF20FFF7C5FFFF20FFF7FA
:10060000C2FFFF20FFF7BFFF1CBD70B505460C46BB
:10061000BFA0FFF7A2FF2246BEA1BF4808F0B2FF6D
:10062000BD48FFF79AFFBDA0FFF797FF2846FFF7E9
:1006300094FFBCA0FFF791FFFF20FFF7A4FF70BD60
:1006400077B585B00546FF26B4A103C9CDE90301FE
:10065000B4A000680290AEA00068019000240AE0F7
:100660000020B1490855B1490855AB490855A5497D
:100670000855601CC4B21E2CF2DB0A20A649087083
:10068000FF2048708870C870A2A1A848079A08F097
:1006900079FFA64901A808F0A3FB01A99E4808F02C
:1006A0009FFB03A99C4808F09BFB29469A4808F049
:1006B00097FB98A19D48069A08F064FF9B499648CD
:1006C00008F08EFB02A9944808F08AFBFF209649A7
:1006D000087048708870904808F082FB8E48FFF7D9
:1006E0001BFF08B070BDF7B584B005460E46FF2766
:1006F0008AA103C9CDE902018AA00068019084A003
:1007000000680090002408E00020874908558749C8
:10071000085581490855601CC4B20A2CF4DB0A2034
:100720007D490870FF2048708870C87079A17F48A3
:10073000069A08F027FF7D49684608F051FB694694
:10074000754808F04DFB02A9734808F049FB29469B
:10075000714808F045FB31466F4808F041FB01A99C
:100760006D4808F03DFBFF206F49087048708870A5
:100770000020C8700871684808F032FB6648FFF72F
:10078000CBFE07B0F0BD01B58EB069A2322101A841
:100790000E9B08F0DFFE01A8FFF7BEFE0FB000BD04
:1007A00073B584B00546FF265CA103C9CDE90201FB
:1007B0005CA00068019056A00068009000240AE048
:1007C00000205949085559490855534908554D497C
:1007D0000855601CC4B21E2CF2DB0A204E4908707A
:1007E000FF2048708870C8704AA15048059A08F0E8
:1007F000C9FE4E49684608F0F3FA6946464808F0D3
:10080000EFFA02A9444808F0EBFA2946424808F0FA
:10081000E7FA4649404808F0E3FA01A93E4808F0E3
:10082000DFFAFF2040490870487088703A4808F0A5
:10083000D7FA3948FFF770FE06B070BD1CB53F48C7
:1008400000783E49497808443C49897808443B4946
:10085000C97808443949097908443849497908442C
:100860003649897908443549C97908443349097AB0
:100870000844C0B201903148007A00F00F000090A7
:100880009DF800000D2803D000212D4806F032FB12
:100890001CBD2A48007A00F00F000D2806D1274819
:1008A000007800F0010008B10D2070470020FCE73F
:1008B0001CB5244805F0F0FC2349096840EA0140D2
:1008C0000A2190FBF1F00090002417E01D4805F08C
:1008D000E3FC1D49096840EA01400A2190FBF1F060
:1008E0000190DDE90021881A002801DB014600E0C3
:1008F0004142052900DA641C01980090022CE5DBD6
:1009000001981CBD56040020B86002400050004011
:100910007400000025640000200300202E74787409
:100920003D2200002200000006040020DE0300201B
:100930006A302E76616C3D25640000003805002089
:100940000048004000000140440000201CB54FF06A
:10095000804005F0A1FCF849096840EA01400A21FD
:1009600090FBF1F00090002418E04FF0804005F07B
:1009700093FCF149096840EA01400A2190FBF1F03B
:100980000190DDE90021881A002801DB014600E022
:100990004142322900DA641C01980090022CE4DB09
:1009A00001984100002901DB08461CBD4842FCE7D4
:1009B0001CB5E24805F070FCE149096840EA0140D5
:1009C000642190FBF1F00090002417E0DB4805F073
:1009D00063FCDB49096840EA0140642190FBF1F0C7
:1009E0000190DDE90021881A002801DB014600E0C2
:1009F0004142322900DA641C01980090022CE5DBA8
:100A000001981CBD70471CB5CE4805F045FCCE4989
:100A1000096840EA0140642190FBF1F00090002455
:100A200017E0C84805F038FCC749096840EA0140AA
:100A3000642190FBF1F00190DDE90021881A002883
:100A400001DB014600E04142322900DA641C0198D2
:100A50000090022CE5DB01981CBD01B581B000209F
:100A60000090019800EBC0004000009002E0009868
:100A7000401E009000980028F9D10CBD01B581B04E
:100A80000020009044F2506101984843009002E039
:100A90000098401E009000980028F9D10CBD1CB5AC
:100AA00001211F2004F02CFD4FF6FF700090012063
:100AB0008DF8040000208DF8060001208DF8070055
:100AC00003208DF805006946A04804F0D3FA4FF6DC
:100AD000FF70009001208DF8040000208DF80600C2
:100AE00001208DF8070003208DF80500694698481D
:100AF00004F0C0FA4FF6FF70009001208DF804005A
:100B000000208DF8060001208DF8070003208DF8E5
:100B1000050069468F4804F0ADFA1CBD1CB50121E3
:100B20007E2004F0EDFCC020009000208DF8040031
:100B300001208DF8070002208DF8050069468648DF
:100B400004F098FA0620009000208DF8040001209F
:100B50008DF8070002208DF8050069467B4804F0F7
:100B600089FA0420009000208DF8040001208DF8FF
:100B7000070002208DF805006946754804F07AFAEE
:100B80001CBD1FB54FF4E06004F096F936208DF8D7
:100B9000000000208DF801008DF8020001208DF882
:100BA0000300684604F08DF90121102004F0DBFCFD
:100BB0003220ADF8040040F2E73002900020ADF89A
:100BC0000C00ADF8060001A9644805F018FB0121EE
:100BD000624805F0DDFF01221146604805F0B0FFD4
:100BE00000215E4805F054FB01215C4805F090FBB4
:100BF0001FBD1FB54FF4E06004F05EF937208DF89B
:100C0000000000208DF801008DF8020001208DF811
:100C10000300684604F055F90121202004F0A3FCEC
:100C20003220ADF8040040F2E73002900020ADF829
:100C30000C00ADF8060001A9494805F0E0FA0121D1
:100C4000474805F0A5FF01221146454805F078FF09
:100C50000021434805F01CFB0121414805F058FBE9
:100C60001FBD00B58BB00121022004F08DFC0121D5
:100C70000C2004F045FC03220621354804F085FAD7
:100C800003220721324804F080FA03220821304869
:100C900004F07BFA032209212D4804F076FA4FF480
:100CA0007070069002208DF81C0003208DF81D0046
:100CB00000208DF81E0001208DF81F0006A9244891
:100CC00004F0D8F9A420ADF8200040F6B83009901F
:100CD0004FF48070ADF828000020ADF8220008A97C
:100CE000204805F08CFA6020ADF804000120ADF832
:100CF000060000200390ADF810000121194805F00E
:100D000007FB0021174805F0C3FA01A9154805F0B3
:100D10000BFB01A9134805F040FB01A9114805F0A0
:100D200089FB01A90F4805F0EBFB01210D4805F0F7
:100D3000E0FE0BB000BD00004800002000080040AD
:100D400060000020000400404C000020000402402D
:100D500000080240000C0240000002400010004069
:100D6000001400400004014000B58BB001210820B0
:100D700004F0F9FB0121084604F0C2FB0222002125
:100D8000FE4804F002FA02220121FC4804F0FDF9B9
:100D900002221146F94804F0F8F902220321F7482B
:100DA00004F0F3F90F20069002208DF81C000320B8
:100DB0008DF81D0000208DF81E0001208DF81F0009
:100DC00006A9EE4804F056F9BA20ADF8200042F228
:100DD000107009900020ADF82800ADF8220008A995
:100DE000E74805F00CFA6020ADF804000120ADF8EA
:100DF000060000200390ADF810000121E04805F046
:100E000087FA0021DE4805F043FA01A9DC4805F025
:100E10008BFA01A9DA4805F0C0FA01A9D84805F013
:100E200009FB01A9D64805F06BFB0121D44805F068
:100E300060FE0BB000BD00B58BB00121042004F0B2
:100E400092FB01210D2004F05BFB02220C21CD4816
:100E500004F09BF902220D21CA4804F096F90222FF
:100E60000E21C84804F091F902220F21C54804F070
:100E70008CF94FF47040069002208DF81C0003207E
:100E80008DF81D0000208DF81E0001208DF81F0038
:100E900006A9BC4804F0EEF8A420ADF8200040F606
:100EA000B83009904FF48070ADF828000020ADF8FC
:100EB000220008A9B44805F0A2F96020ADF80400AA
:100EC0000120ADF8060000200390ADF810000121CC
:100ED000AD4805F01DFA0021AB4805F0D9F901A98C
:100EE000A94805F021FA01A9A74805F056FA01A979
:100EF000A54805F09FFA01A9A34805F001FB0BB036
:100F000000BD00B589B00121080404F03DFB0121BA
:100F1000084604F0F5FA03221146984804F035F922
:100F200003220221954804F030F90C2001900220A0
:100F30008DF8080003208DF8090000208DF80A00C4
:100F400001208DF80B0001A98C4804F093F80020D3
:100F5000ADF818004FF6FF7007900020ADF82000A4
:100F6000ADF81A0006A9894805F049F90420ADF842
:100F70000C000020ADF80E00C820ADF814000120D0
:100F8000ADF8100003A9814805F010FD00231A46B2
:100F900003217F4805F0A7FE01217D4805F0F8FDFB
:100FA000012211467A4805F0CBFD0121774805F072
:100FB000AFF90021764805F06BF909B000BD00B526
:100FC00089B00121084604F0CEFA0121022004F084
:100FD000CAFA0121032004F093FA01220F21674885
:100FE00004F0D3F8012203216A4804F0CEF802226B
:100FF0000421684804F0C9F802220521654804F07C
:10100000C4F83820019002208DF8080003208DF8E4
:10101000090000208DF80A0001208DF80B0001A9BD
:101020005C4804F027F84FF40040019002208DF84E
:10103000080003208DF8090000208DF80A00012027
:101040008DF80B0001A94D4804F014F80020ADF80C
:1010500018004FF6FF7007900020ADF82000ADF8A3
:101060001A0006A94FF0804005F0C9F806A94A48C1
:1010700005F0C5F80420ADF80C000220ADF80E0014
:101080001420ADF814000120ADF8100003A980076A
:1010900005F08CFC03A9404805F088FC02231A46A1
:1010A0000321580705F01FFE02231A4603213A4880
:1010B00005F019FE0121880705F06AFD0121364877
:1010C00005F066FD01221146900705F039FD012269
:1010D0001146314805F034FD0121880705F018F963
:1010E00001212D4805F014F900214FF0804005F052
:1010F000CFF80021284805F0CBF84FF4C06003F08A
:10110000DBFE1D208DF8000003208DF8010000207B
:101110008DF8020001208DF80300684603F0D1FE2F
:101120001C208DF8000004208DF8010000208DF8AF
:10113000020001208DF80300684603F0C2FE09B0EA
:1011400000BD00B589B00121084604F01DFA012157
:10115000102004F0D5F94FF42060019002208DF8A2
:10116000080003208DF8090000208DF80A000120F6
:101170008DF80B0001A9094812E0000000000240B0
:10118000000C0040000C024000080040000001403C
:1011900000400140000402400004004000100240F2
:1011A00003F068FF01220921FE4803F0EEFF01224F
:1011B0000B21FC4803F0E9FF0020ADF818004FF6C2
:1011C000FF7007900020ADF82000ADF81A0006A9C6
:1011D000F54805F014F80420ADF80C000020ADF837
:1011E0000E000A20ADF814000120ADF8100003A98C
:1011F000ED4805F0DBFB00231A460321EA4805F021
:1012000072FD0121E84805F0C3FC01221146E648C1
:1012100005F096FC0121E44805F0BAFC01221146D4
:10122000E14805F08DFC0121DF4805F071F800214F
:10123000DD4805F02DF84FF4C06003F03DFE1920A5
:101240008DF8000001208DF8010000208DF80200CB
:1012500001208DF80300684603F033FE09B000BD9D
:1012600000B589B00121042004F07DF90121082096
:1012700004F046F94FF44050019002208DF8080028
:1012800003208DF8090000208DF80A0001208DF858
:101290000B0001A9C54803F0EDFE0020ADF81800D1
:1012A0004FF6FF7007900020ADF82000ADF81A004F
:1012B00006A9BF4804F0A3FF02220C21BB4803F09B
:1012C00064FF02220D21B94803F05FFF0420ADF84E
:1012D0000C000220ADF80E00C820ADF8140001206B
:1012E000ADF8100003A9B24805F060FB02231A46CE
:1012F0000321AF4805F0F7FC0121AD4805F048FC9B
:1013000001221146AA4805F01BFC0121A84804F05F
:10131000FFFF42F21071A64804F0BAFF0020A44972
:10132000143108800120A24908804FF4C06003F006
:10133000C3FD1E208DF8000004208DF80100002060
:101340008DF8020001208DF80300684603F0B9FD16
:1013500009B000BD00B589B00121082004F003F9EF
:101360000121084604F0CCF80320019002208DF8FA
:10137000080003208DF8090000208DF80A000120E4
:101380008DF80B0001A98B4803F074FE0020ADF826
:1013900018004FF6FF7007900020ADF82000ADF860
:1013A0001A0006A9844804F02AFF0222002181487D
:1013B00003F0EBFE022201217E4803F0E6FE04204A
:1013C000ADF80C000220ADF80E00C820ADF81400F6
:1013D0000120ADF8100003A9774805F0E7FA0223D1
:1013E0001A460321744805F07EFC0121724805F07D
:1013F000CFFB01221146704805F0A2FB01216E4887
:1014000004F086FF42F210716B4804F041FF0020A7
:101410006949143108800120674908804FF4C06091
:1014200003F04AFD32208DF8000004208DF8010001
:1014300000208DF8020001208DF80300684603F0BB
:1014400040FD09B000BD00B59BB001215B4804F030
:1014500057F80121080204F097F80020029058483C
:101460000390584804900020059008200690002022
:1014700007904FF4806008904000099080000A9027
:1014800040110B9040020C9000200D9001200E9016
:1014900000200F90109002A94B4804F043FC01215A
:1014A000494804F079FC3C20009003208DF80400AA
:1014B00000208DF8070069463E4803F0DBFD3C2024
:1014C000009003208DF8040000208DF80700694685
:1014D0003E4803F0CFFD002011904FF440301290B1
:1014E000002013904FF47060149011A804F080F95C
:1014F0004FF08070159001208DF858008DF859003C
:10150000002017901890199008208DF8680015A9F0
:101510002B484C3804F03DF90423012202212848CD
:101520004C3804F0BCF904230222032124484C382F
:1015300004F0B5F904230322194621484C3804F07D
:10154000AEF904231A4605211D484C3804F0A7F9CA
:10155000042305220C211A484C3804F0A0F9042376
:1015600006220D2116484C3804F099F9042307226D
:101570000E2113484C3804F092F9042308220F215D
:101580000F484C3804F08BF901210D484C3804F019
:1015900031FA01210A484C3804F021FA01210848A7
:1015A0004C3815E00010024000000140000C0240E1
:1015B0000008004000000240000C00400500400010
:1015C0004C200140EC04002010640240000802405E
:1015D00004F025F9FE4804F0BEF91BB000BD08B5C3
:1015E0004FF4E06003F068FC25208DF80000002037
:1015F0008DF801008DF8020001208DF80300684687
:1016000003F05FFC08BD10B596B004460121102020
:1016100003F0BAFF0121084603F072FF012188059B
:1016200003F06EFF4FF4C060009002208DF80400BC
:1016300000208DF806008DF8070002208DF80500C7
:101640006946E44803F016FD07220921E14803F04A
:101650009CFD07220A21DF4803F097FD0294002039
:10166000ADF80C00ADF80E00ADF81000ADF81400A8
:101670000C20ADF8120002A9D74805F0B3FB0121F8
:10168000D54805F037FC4FF4A06003F015FC3A2074
:101690008DF8180000208DF819008DF81A0001202F
:1016A0008DF81B0006A803F00CFCCC4804F098FA57
:1016B0004FF00060079000200A90C94809900A2066
:1016C0000B90C548001D089000200C904FF48060DE
:1016D0000D9000200E900F904FF4807010904002FB
:1016E0001190042012900320139000201490159064
:1016F00007A9BA4804F016FB01224021B64805F0BC
:10170000A6FC01221021B54804F0D3FB0121B34807
:1017100004F042FB16B010BD10B596B0044601218E
:10172000480503F0EDFE0121480403F01CFF0121F0
:10173000082003F0E5FE6020009002208DF80400F0
:1017400000208DF806008DF8070002208DF80500B6
:101750006946A44803F08EFC07220521A14803F046
:1017600014FD072206219F4803F00FFD029400207C
:10177000ADF80C00ADF80E00ADF81000ADF8140097
:101780000C20ADF8120002A9974805F02BFB0121AF
:10179000954805F0AFFB4FF4A06003F08DFB1120DE
:1017A0008DF8180000208DF819008DF81A0001201E
:1017B0008DF81B0006A803F084FB8C4804F010FA97
:1017C0004FF00060079040200A90894809903C2023
:1017D0000B908548001D089000200C904FF480600D
:1017E0000D9000200E900F904FF4807010904002EA
:1017F0001190042012900320139000201490159053
:1018000007A97A4804F08EFA01228021764805F073
:101810001EFC01228021744805F019FC01221021D0
:10182000724804F046FB0121704804F0B5FA16B086
:1018300010BD10B596B004460121880403F093FE54
:101840000121082003F05CFE0121480503F058FE49
:101850004FF44070009002208DF8040000208DF8B5
:1018600006008DF8070002208DF8050069465D48E6
:1018700003F000FC072208215A4803F086FC0722E7
:101880000921584803F081FC02940020ADF80C00B7
:10189000ADF80E00ADF81000ADF814000C20ADF856
:1018A000120002A9534805F09DFA0121514805F0A4
:1018B00021FB4FF4A06003F0FFFA0C208DF8180014
:1018C00000208DF819008DF81A0001208DF81B00FA
:1018D00006A803F0F6FA4548783804F081F94FF08D
:1018E0000060079000200A90434809900A200B905E
:1018F0004048001D089000200C904FF480600D902F
:1019000000200E900F904FF48070109040021190C4
:10191000042012900320139000201490159007A922
:101920003248783804F0FEF901224021314805F0B0
:101930008EFB012240212F4805F089FB0122102156
:101940002A48783804F0B5FA01212848783804F09C
:1019500023FA16B010BD10B596B004460121C80494
:1019600003F001FE0121084603F0CAFD01214805EC
:1019700003F0C6FD0320009002208DF80400002033
:101980008DF806008DF8070002208DF805006946E5
:10199000104803F06FFB082200210E4803F0F5FB0E
:1019A000082201210B4803F0F0FB02940020ADF85F
:1019B0000C00ADF80E00ADF81000ADF814000C20CE
:1019C000ADF8120002A90D4805F00CFA012117E04C
:1019D000002001400000024000100140406402402D
:1019E000FC040020000C024000440040A0600240C3
:1019F000040000200048004038050020004C004052
:101A0000FB4805F077FA4FF4A06003F055FA0D207B
:101A10008DF8180000208DF819008DF81A000120AB
:101A20008DF81B0006A803F04CFAF24804F0D8F831
:101A30004FF00060079000200A90EF4809900820BE
:101A40000B90EB48001D089000200C904FF4806034
:101A50000D9000200E900F904FF480701090400277
:101A600011900420129003201390002014901590E0
:101A700007A9E04804F056F901224021DC4805F0AE
:101A8000E6FA01224021DA4805F0E1FA01221021AC
:101A9000D84804F00EFA0121D64804F07DF916B0BA
:101AA00010BD10B596B004460121480503F028FD8D
:101AB0000121080503F057FD01210C2003F020FD52
:101AC0000420009002208DF8040000208DF806000C
:101AD0008DF8070002208DF805006946C74803F01D
:101AE000C9FA4FF48050009002208DF804000020C5
:101AF0008DF806008DF8070002208DF80500694674
:101B0000BF4803F0B7FA08220221BC4803F03DFBAE
:101B100008220C21BA4803F038FB4FF4A06003F010
:101B2000CBF92F208DF8180005208DF819008DF8BD
:101B30001A0001208DF81B0006A803F0C2F90294D8
:101B40000020ADF80C00ADF80E00ADF81000ADF8B7
:101B500014000C20ADF8120002A9AA4805F042F9C1
:101B60000121A84805F0C6F9A248783004F038F8F9
:101B70004FF00060079040200A90A34809909620FB
:101B80000B90A048001D089000200C904FF480603E
:101B90000D9000200E900F9010904FF40030119097
:101BA000002012900320139000201490159007A994
:101BB0009048783004F0B6F801228021914805F071
:101BC00046FA012210218B48783004F072F9012185
:101BD0008848783004F0E0F816B010BD10B596B023
:101BE00004460121202003F0CFFC0121042003F052
:101BF00087FC0121880503F083FCC02000900220AF
:101C00008DF8040000208DF806008DF807000220F2
:101C10008DF8050069467A4803F02CFA082206215F
:101C2000774803F0B2FA08220721754803F0ADFAAD
:101C300002940020ADF80C00ADF80E00ADF81000D5
:101C4000ADF814000C20ADF8120002A96F4805F0A1
:101C5000C9F801216D4805F04DF94FF4A06003F07B
:101C60002BF939208DF8180003208DF81900012078
:101C70008DF81A008DF81B0006A803F022F96448BD
:101C800003F0AEFF4FF02060079000200A906148FB
:101C9000099010200B905D48001D089000200C90CA
:101CA0004FF480600D9000200E900F904FF48070E4
:101CB00010904002119004201290032013900020F5
:101CC0001490159007A9524804F02CF801224021E5
:101CD0004E4805F0BCF9012210214D4804F0E9F806
:101CE00001214B4804F058F816B010BD0EB5002085
:101CF0000290019000904748007802282ED1454874
:101D0000407801904348C0784249897840EA0120F0
:101D10000090404909783F4A527811443D4A9278F0
:101D200011443C4AD2788818C11700EB116109129E
:101D3000A0EB0121C9B20291364800799DF8081044
:101D400088420BD133484079032807D19DF804001D
:101D500031490870BDF80000304908800EBD00B55B
:101D600085B00121082003F0CBFB0121880303F09B
:101D70000BFC00208DF8100001208DF813000C20C2
:101D8000039003A91D4803F075F90221032005F013
:101D9000F7F90420009000208DF8040010208DF841
:101DA000050001208DF80600684604F0FBF80820C5
:101DB0008DF8080000208DF809008DF80A00012038
:101DC0008DF80B0002A803F07CF805B000BD70B5DB
:101DD00004460D46012C25D12946114805F0B5F8D9
:101DE00000BF40210E4805F060F90028F9D042E01C
:101DF000004C0040406002400B050020000C0240F7
:101E00000008024000500040560400200014014029
:101E100028640240470500202401002026010020FC
:101E200000100140032C0BD12946FE4805F08DF827
:101E300000BF4021FB4805F038F90028F9D01AE02E
:101E4000042C0BD12946F84805F07FF800BF40214B
:101E5000F54805F02AF90028F9D00CE0052C0AD144
:101E60002946F24805F071F800BF4021EF4805F01F
:101E70001CF90028F9D070BD0020ED494862ED49F9
:101E80000860ED490860ED49086070470020E849A6
:101E90004862E84908604FF080414862E8490860BC
:101EA000E8490860E8490860E3490860E3490860D8
:101EB00070470020E0490860E04908607047002052
:101EC000E0490860E0490860704710B50020DF492C
:101ED0000870002407E061210120FFF778FF32201D
:101EE000FEF7CCFD641C022CF5D30120D749087005
:101EF0007A20D749087010BD10B50020D549087068
:101F0000002407E061210320FFF761FF3220FEF784
:101F1000B5FD641C022CF5D30120CE4908707A204F
:101F2000CD49087010BD2DE9F14FAEB0CBA02D907A
:101F300000202C908DF888008DF860002E981228D3
:101F400031D2DFE800F00931383F464D5662697002
:101F5000777E8A91989FABFD0221C94803F0ECF887
:101F600088B100224FF40041C64803F003F94FF452
:101F70000041C44803F0EDF8044600222146C2A007
:101F8000FEF75EFB0FE00122D103BE4803F0F2F83A
:101F90004FF40041BB4803F0DCF804460022214620
:101FA000C1A0FEF74DFB54E20122C7480168C7A05B
:101FB000FEF746FB4DE20222C6480168C6A0FEF7C6
:101FC0003FFB46E20322C7480168C7A0FEF738FB83
:101FD0003FE20422C7480178C7A0FEF731FB38E290
:101FE000FEF7E6FC044605222146C5A0FEF728FBC5
:101FF0002FE20622C54890ED000ABDEEC00A10EEA1
:10200000101AC3A0FEF71CFB23E20722C348016895
:10201000C3A0FEF715FB1CE20A22C4480168C4A055
:10202000FEF70EFB15E20922C5480168C5A0FEF7C0
:1020300007FB0EE2C748017A0822C7A0FEF700FBA3
:1020400007E20B22C64890ED000ABDEEC00A10EE72
:10205000101AC4A0FEF7F4FAFBE10C22C448016890
:10206000C4A0FEF7EDFAF4E10D22C6480178C6A03F
:10207000FEF7E6FAEDE10E22C6480188C6A0FEF79B
:10208000DFFAE6E10F22C74890ED000ABDEEC00A74
:1020900010EE101AC4A0FEF7D3FADAE10121C44809
:1020A00003F04AF84FF400511790764803F044F8D3
:1020B00004460221BE4803F03FF805464FF4804134
:1020C000704803F039F806460421B94803F034F8A3
:1020D0004FF400411690B64803F02EF80746082149
:1020E000B34803F029F880464FF48041B04803F02C
:1020F00023F881461021AE4803F01EF84FF400513A
:102100001590AB4803F018F882460821A94803F05F
:1021100013F84FF480511490A54803F00DF81021E6
:102120001390A44803F008F84FF480611290A0487F
:1021300003F002F8834680219D4802F0FDFF00E095
:1021400028E04FF480711190994802F0F5FF10904B
:102150001798CDE90B65CDE90D401698CDE90798A4
:10216000CDE90970DDE913121598CDE9042A039130
:102170000690DDE91110CDE9001B02908EA2282106
:1021800022A8109B07F0E6F9102222A970A0FEF702
:10219000AAFA5EE180213A4802F0DBFF0446012101
:1021A000374802F0D6FF05464021354802F0D1FFFE
:1021B00006464FF400417F4802F0CBFF07464FF43C
:1021C0008051864802F0C5FF80464FF480612C485C
:1021D00002F0BFFF81464FF40061804802F0B9FF72
:1021E0004FF400611790264802F0B3FF82464FF487
:1021F0008061704802F0ADFF83464FF48051204863
:1022000002F0A7FF4FF4006116906A4802F0A1FFA8
:102210004FF4005115901A4802F09BFF4FF4804193
:102220001490DDE000480040004C004000500040A9
:10223000000001404400002024080040600000200D
:1022400048000020240400404C00002069000020C9
:10225000680000206B0000206A000020313131311D
:10226000313131313131313131313131313131315E
:102270003131303131313131313131310000000013
:102280000004024000080240524F424F54203220C6
:1022900044414E4720434841592053414E20584124
:1022A0004E483A2020200000524F424F5420322006
:1022B00044414E4720434841592053414E20444F0A
:1022C0003A20202000000000C0010020494D553A6E
:1022D0000000000080000020474F432042414E3A5A
:1022E00000000000E80000205649205452492042D6
:1022F000414E3A002301002043414D3A00000000C6
:10230000454E20584F41593A000000008C000020F3
:102310004A6F79537469636B3A00000090000020A3
:102320004C75635F42616E3A00000000940000202B
:10233000476F635F42616E5F6175746F3A000000C2
:102340007800002047545F4C415A45525F54524137
:10235000493A0000380500204241544552593A009C
:102360002C020020726573756C74203A0000000026
:102370003002002066696E616C5F726573756C7403
:102380003A000000240100206F6666736574203AED
:10239000000000002601002064697374616E6365AB
:1023A0003A0000003C020020747261636B3A000046
:1023B00000100240000C0240256425642564256459
:1023C00025642564256425642564256425642564C5
:1023D0002564256425642564000000000000024097
:1023E000FB4802F0B6FE4FF480411390F94802F02A
:1023F000B0FE4FF480711290F74802F0AAFE4FF43D
:1024000000411190F34802F0A4FECDE90B76CDE92E
:102410000D5410901798CDE907A0CDE90998DDE992
:1024200014121698CDE9050BCDE90312DDE911125E
:102430001398CDE900120290AFF28402282122A85D
:10244000109B07F087F8112222A9E4A0FEF74BF9B0
:1024500000BF00BF2FB0BDE8F08F10B50121E148EB
:1024600003F09AFC10BD01B5DF480068009988426E
:1024700003DD0020DC49086004E0DB480068401C04
:10248000D9490860D8480068FFF74DFD08BD10B570
:102490002DED028BD548C07801EE100AB8EE411A36
:1024A000DFEDD31A31EE611AF0EE410ACF488078A1
:1024B00001EE100AB8EE411ADFEDCD1A31EE611AC5
:1024C000B0EE410A07F09EF8F0EE408AC948D0ED20
:1024D000000A9FEDC91A81EE200A20EE280AB0EE0C
:1024E000408AB5EEC08AF1EE10FA05D29FEDC30A1C
:1024F00038EE000AB0EE408ABC48C0787E2807D18A
:10250000BA4880787F2803D19FEDBD0AB0EE408A9B
:102510009FEDB90AB4EEC08AF1EE10FA06D8B2EE19
:10252000040A28EE000AB0EE408A09E09FEDB30AE3
:1025300038EE400AF2EE040A20EE200AB0EE408A9D
:10254000B04880ED008ABDEC028B10BD10B52DEDBA
:10255000088BB0EE408A9FEDAC0AF0EE408A9FED0A
:10256000AA0AB0EE409A9FEDA90A08EE080A10EEFA
:10257000101A084606F0FAFD41EC1B0BB0EE4B0AB0
:10258000F0EE6B0A07F078FBB0EE40AAF0EE60AA1E
:1025900051EC1A0B06F0FDFD09EE900ADFED9C0AE6
:1025A00089EEA00ADFED9B0A20EE200AB0EE409AE9
:1025B0009FED990AB4EEC09AF1EE10FA04DD9FED9A
:1025C000960AB0EE409A0AE09FED940AB4EEC09AE3
:1025D000F1EE10FA03D29FED910AB0EE409A9FED12
:1025E0008C0A39EEC00A9FED8A1AC0EE010A9FEDEF
:1025F0008C1A9FED8C0A00EE810AF0EE408A9FED66
:102600008A0AF4EEC08AF1EE10FA04DD9FED860A24
:10261000F0EE408A0AE09FED850AF4EEC08AF1EE02
:1026200010FA03D29FED810AF0EE408ABDEEC90A8E
:102630007F4880ED000ABDEEE80A7E4880ED000A82
:10264000BDEC088B10BDF0B5DDE9054520B97A4E2B
:1026500036787A4FFE700BE0002804DD774FF87073
:102660000126BE7004E04642744FFE700026BE7024
:1026700021B9714E3678714FFE720BE0002904DDEE
:102680006E4FF9710126BE7104E04E426B4FFE7130
:102690000026BE7122B9684E3678684FFE720BE094
:1026A000002A04DD654FFA720126BE7204E056422C
:1026B000624FFE720026BE7223B95F4E36785F4FBE
:1026C000FE730BE0002B04DD5C4FFB730126BE7331
:1026D00004E05E42594FFE730026BE7324B9564E85
:1026E0003678564FFE740BE0002C04DD534FFC741B
:1026F0000026BE7404E06642504FFE740126BE748C
:1027000025B94D4E36784D4FFE750BE0002D04DD9A
:102710004A4FFD750126BE7504E06E42474FFE75B7
:102720000026BE75F0BD454AD070D071D072D0730E
:10273000D074D075704701204149086070473F4808
:10274000C078032815DA3D48C079032811DA3B48E0
:10275000C07A03280DDA3948C07B032809DA3748E4
:10276000C07C032805DA3548C07D032801DA012042
:1027700070470020FCE73348006847F23051884238
:1027800001D0012070470020FCE710B5FFF79DFB4A
:1027900010BD2D48B0F9000040427047B5EEC00AA8
:1027A000F1EE10FA09D22948D0ED000A70EE600A65
:1027B000FDEEE00A10EE900A70472448D0ED000AC2
:1027C00070EE200AFDEEE00A10EE900AF4E7000039
:1027D000000C024000040240000002404F55543AF1
:1027E00000000000A06002405C00002038050020CE
:1027F0000000FF4280010020000034430000B44389
:1028000000409C468C000020000000000000C845ED
:1028100000C02E440000E64200007A430000484217
:102820000000C84200401744008022440080094450
:10283000900000209400002074010020040000207B
:1028400070010020A0010020640000203001002061
:1028500010B52DED0A8B044624B91FED150ABDEC09
:102860000A8B10BD002C25DAFD48006806F06DFCCF
:1028700041EC190B204606F068FC41EC1C0B9FED67
:10288000F90B53EC102B06F07FFB41EC1B0B9FED7B
:10289000F50B53EC102B06F071FB41EC1A0B53ECCB
:1028A000192B06F0E3FB41EC180B06F072FC00EE6E
:1028B000100AD4E7EA48006806F047FC41EC190B1F
:1028C000204606F042FC41EC1C0B9FEDE60B53EC5E
:1028D000102B06F059FB41EC1B0B9FEDE20B53EC68
:1028E000102B06F0AAFA41EC1A0B53EC192B06F048
:1028F000BDFB41EC180B06F04CFC00EE100AAEE7F5
:10290000F0EE400AF5EEC00AF1EE10FA02DBB0EE8E
:10291000600A7047B1EE600AFBE70146002901DB5F
:10292000084670474842FCE70146D048D0ED000A0F
:10293000F1EE600ACE48D0ED001A80EEA11A00EE4A
:10294000901AF8EEE01AC948D0ED000A41EE210ACB
:10295000B0EE600AFDEEC00A10EE900A7047F0EE8D
:10296000401A9FEDC42AB0EE420AF5EEC01AF1EE0D
:1029700010FA03D2B1EE612AF0EE421AF5EEC00A67
:10298000F1EE10FA03D2B1EE602AF0EE420AB5EE93
:10299000C01AF1EE10FA03D2B1EE412AB0EE421A9B
:1029A000F4EEC01AF1EE10FA01DDB0EE610AF4EEB9
:1029B000C00AF1EE10FA01DDB0EE600AB4EEC01A02
:1029C000F1EE10FA01DDB0EE410A7047A44800684C
:1029D0007047A9480068704710B52DED088BB0EE20
:1029E000408AA648006847F23051884214D11FED52
:1029F0007A0AA34880ED000AA24880ED000AA248A6
:102A000080ED000AA14880ED000AA14880ED000A8F
:102A1000A04880ED000AE8E09F4800689F490968E7
:102A2000401A96490968081A00EE100AB8EEC00A62
:102A30009B48D0ED000A9B4890ED001A00EEC10AB9
:102A4000D0ED000AC0EE208A974890ED000A20EEF3
:102A5000280A10EE101A084606F088FB41EC1B0B02
:102A6000B0EE4B0AF0EE6B0A07F0A2F8B0EE40AA07
:102A7000F0EE60AA51EC1A0B81F0004141EC190B09
:102A800006F087FB83490860884890ED000A38EE1D
:102A9000800A8548D0ED000A20EE200A10EE101AB8
:102AA000084606F063FB41EC1A0BB0EE4A0AF0EE62
:102AB0006A0A07F07DF8B0EE409AF0EE609A51ECA9
:102AC000190B06F066FB72490860794890ED000A20
:102AD00038EE800A7448D0ED000A20EE200A10EE8D
:102AE000101A084606F042FB41EC1A0BB0EE4A0AF7
:102AF000F0EE6A0A07F05CF8B0EE409AF0EE609AE9
:102B000051EC190B06F045FB60490860694890EDEF
:102B1000000A38EE800A6448D0ED000A20EE200A50
:102B200010EE101A084606F021FB41EC1B0BB0EE2C
:102B30004B0AF0EE6B0A07F03BF8B0EE40AAF0EE5D
:102B400060AA51EC1A0B81F0004141EC190B06F020
:102B500020FB4D490860554890ED000A38EE800A88
:102B60005148D0ED000A20EE200A10EE101A084657
:102B700006F0FCFA41EC1B0BB0EE4B0AF0EE6B0AD0
:102B800007F016F8B0EE40AAF0EE60AA51EC1A0B6E
:102B900081F0004141EC190B06F0FBFA394908605D
:102BA000434890ED000A38EE800A3F48D0ED000A15
:102BB00020EE200A10EE101A084606F0D7FA41EC73
:102BC0001B0BB0EE4B0AF0EE6B0A06F0F1FFB0EE15
:102BD00040AAF0EE60AA51EC1A0B81F0004141ECE2
:102BE000190B06F0D6FA26490860B5EEC08AF1EE58
:102BF00010FA34D03048006807282FD2DFE800F000
:102C0000045E82A6CAF0EE00224890ED000A30EE83
:102C1000480A80ED000A1E4890ED000A30EE480A8E
:102C200080ED000A194890ED000A30EE480A80ED68
:102C3000000A154890ED000A30EE480A80ED000ABF
:102C4000104890ED000A30EE480A80ED000A0C486A
:102C500090ED000A30EE480A80ED000A08E108E134
:102C60008C0100209A9999999999B93F680100209F
:102C70006C0100206F12833AB8010020A0010020EF
:102C8000E0010020DC010020D8010020D401002058
:102C9000D0010020CC010020C0010020AC010020A8
:102CA000B0010020480100207C01002058010020D4
:102CB000540100205C01002088010020F94890EDBB
:102CC000000A30EE480A80ED000AF74890ED000A4D
:102CD00030EE480A80ED000AF44890ED000A30EE2C
:102CE000480A80ED000AF24890ED000A30EE480AEA
:102CF00080ED000AEF4890ED000A30EE480A80EDC2
:102D0000000AB5E0EC4890ED000A30EE480A80ED8C
:102D1000000AE54890ED000A30EE480A80ED000A0E
:102D2000E24890ED000A30EE480A80ED000AE048E3
:102D300090ED000A30EE480A80ED000ADD4890ED83
:102D4000000A30EE480A80ED000A91E0DA4890ED82
:102D5000000A30EE480A80ED000AD24890ED000AE1
:102D600030EE480A80ED000AD04890ED000A30EEBF
:102D7000480A80ED000ACE4890ED000A30EE480A7D
:102D800080ED000ACB4890ED000A30EE480A80ED55
:102D9000000A6DE0C84890ED000A30EE480A80ED68
:102DA000000AC04890ED000A30EE480A80ED000AA3
:102DB000BD4890ED000A30EE480A80ED000ABC489C
:102DC00090ED000A30EE480A80ED000AB94890ED17
:102DD000000A30EE480A80ED000A49E024E0FFE7EF
:102DE000B54890ED000A30EE480A80ED000AAD4883
:102DF00090ED000A30EE480A80ED000AAA4890EDF6
:102E0000000A30EE480A80ED000AA84890ED000A5A
:102E100030EE480A80ED000AA64890ED000A30EE38
:102E2000480A80ED000A23E0A34890ED000A30EE46
:102E3000480A80ED000A9B4890ED000A30EE480AEF
:102E400080ED000A984890ED000A30EE480A80EDC7
:102E5000000A964890ED000A30EE480A80ED000A1C
:102E6000934890ED000A30EE480A80ED000A00BF5A
:102E700000BF8F4890ED001A8B48D0ED000A8E48B5
:102E800090ED000AFFF76BFD8C48D0ED000AF8EEDC
:102E9000E00A80EE801ABDEEC10A894880ED000A82
:102EA0008848006886490968884203DD84480068CC
:102EB00084490860012084490860BDEC088B10BD7E
:102EC00010B5044600208149086081480460FCB9BF
:102ED00000207C4908609FED7F0A7F4880ED000A52
:102EE00047F230507D4908607D4908609FED790ABE
:102EF0007C4880ED000A00207B4908607B4908601F
:102F00007B4908607B4908609FED720AFFF764FD0A
:102F100010BD10B5734890ED000AB5EEC00AF1EE91
:102F200010FA05D17048006810B97048006890B177
:102F30009FED680A6B4880ED000A00206A4908602E
:102F40006A4908606C4800686C490860654890ED03
:102F5000000AFFF741FD10BD6948C0ED000A69484D
:102F600080ED000A704770B52DED028B05460C46CA
:102F7000B0EE408A59480068A8420BD15348006817
:102F8000A04207D1544890ED000AB4EE480AF1EE91
:102F900010FA18D04D4804604A48006810B905205E
:102FA0004849086054480068544908604A4880ED20
:102FB000008A4A480560002053490860494890ED5E
:102FC000000AFFF709FDBDEC028B70BD70B52DED59
:102FD000028B0446B0EE408A0D4644480068A04289
:102FE0000BD1404890ED000AB4EE480AF1EE10FA19
:102FF00003D13D480068A84237D03848006847F2FE
:103000003051884222D132203049086005202D49B4
:10301000086047F23050844218DA012034490860D1
:10302000B5EEC08AF1EE10FA03DD33480068A04225
:1030300008DCB5EEC08AF1EE10FA07D22E4800681F
:10304000A04203DAB1EE480AB0EE408A2748046095
:1030500025480560234880ED008A00202A49086041
:10306000204890ED000AFFF7B7FCBDEC028B70BD65
:1030700010B52DED028BB0EE408A04462146B0EE2D
:10308000480A47F23050FFF7A1FFBDEC028B10BD9C
:1030900070B504460D469FED0F0A29462046FFF7FE
:1030A00062FF70BDD0010020D4010020D8010020B3
:1030B000DC010020E0010020CC01002028010020DC
:1030C000940100208C010020840100209001002048
:1030D0009801002000000000B4010020A0010020A1
:1030E000A4010020B001002088010020A8010020D8
:1030F000B801002070010020C0010020AC010020B8
:10310000680100206C0100209C01002070B52DEDAD
:10311000088BF0EE408A0446B0EE608AB0EE419A29
:10312000FE4890ED000AB8EEC00AB4EE680AF1EE6F
:1031300010FA0DD1FA480068A04209D1F94890ED83
:10314000000AB8EEC00AB4EE480AF1EE10FA5ED0FA
:10315000BDEEE80AF14880ED000AF34991ED000A5E
:10316000B8EEC00A38EEC00ABDEEC00A10EE100A72
:103170001FED280A2146FFF7F6FEEB4890ED000A06
:10318000B8EEC00A38EE400ABDEEC00A10EE105A82
:10319000002D01DB284600E06842642814DDE24887
:1031A00090ED000AB8EEC00AB4EEC08AF1EE10FA53
:1031B00002DDB0EE490A01E0B1EE490A10EE101A44
:1031C000084605F0D3FF13E0D74890ED000AB8EEAB
:1031D000C00A38EE400A10EE101A084605F0C6FF85
:1031E00041EC1B0B9FEDD10B53EC102B05F0CCFEEB
:1031F00041EC1A0B05F0CDFF09EE900A0021B0EE6C
:10320000690AFDEEC80A10EE900AFFF7DFFEBDEC7A
:10321000088B70BD10B5C748006801283FDDC14963
:103220000968C14A1268881AFFF777FB05280CDA8B
:10323000C04801680068401CBE4A1060B1F57A7F42
:103240002DDD0020FFF73CFE10BDBA480068B0F548
:10325000FA7F09DD0520B2490860B749086040F2ED
:10326000F510B449086004E00520AD490860B24992
:103270000860AD480068AB490968884205DDBFEECB
:10328000000AAE4880ED000A04E0B7EE000AAB4841
:1032900080ED000AA94890ED000AFFF79DFB00BFF2
:1032A000D2E710B52DED028BA54890ED000AB5EEE2
:1032B000C00AF1EE10FA08D19F48006828B1994879
:1032C000006847F23051884202DBBDEC028B10BD32
:1032D0009A4890ED000AB5EEC00AF1EE10FA7CD0E3
:1032E0009848006847F23051884277D1934890ED72
:1032F000000AB5EEC00AF1EE10FA08DD8948006850
:1033000091490968401A88490968884210DB8B484E
:1033100090ED000AB5EEC00AF1EE10FA7ED28148B7
:1033200000688949096808447F490968884275DD51
:103330008048006803285CDA7A4909687A4A12688A
:10334000881AFFF7EAFA0A2816DA764800687F49F1
:103350000860002078490860714908601FEDA30AE1
:10336000764880ED000A022072490860734890EDAB
:10337000000AFFF731FBA8E76A4800686A49096854
:10338000884237DD6C4890ED000AB8EEC00A6B4801
:10339000D0ED000A60EE200A6B4890ED000AB8EE0E
:1033A000C00AC0EE801AB0EE611AB0EE410AFFF713
:1033B000A7FA5C4909685C4A1268881AFFF7ADFAF7
:1033C00000EE900AB8EEE01A6148D0ED000A40EE37
:1033D000010A594890ED000A01E0CAE047E0B8EE62
:1033E000C00A80EE801AB0EE418AB0EE480AFFF7BC
:1033F000F3FABDE0504890ED000AB8EEC00A4F481D
:10340000D0ED000A60EE200A4F4890ED000AB8EEB9
:10341000C00AC0EE801AB0EE611A00E021E0B0EE02
:10342000410AFFF76DFA3F4909683F4A1268881A56
:10343000FFF773FA00EE900AB8EEE01A4448D0EDB8
:10344000000A50EE410A3C4890ED000AB8EEC00A6E
:1034500080EE801AB0EE418AB0EE480AFFF7BCFA5F
:1034600086E0364890ED000AFFF7B6FA80E0334870
:1034700090ED000AB5EEC00AF1EE10FA1FDD294802
:1034800090ED000AB8EEC00A2B48D0ED000AF8EE25
:10349000E00A2A4890ED001A00EEC10A2D48D0ED4E
:1034A000000AF8EEE00A70EE600A1F4890ED000A8C
:1034B000B8EEC00AF4EEC00AF1EE10FA27D31F48A6
:1034C00090ED000AB5EEC00AF1EE10FA4BD21548A5
:1034D00090ED000AB8EEC00A1748D0ED000AF8EEE9
:1034E000E00A164890ED001A00EEC10A1948D0ED26
:1034F000000AF8EEE00A70EE200A0B4890ED000A90
:10350000B8EEC00AF4EEC00AF1EE10FA2BDD054960
:103510000968054A1268881A1EE00000A40100200C
:1035200090010020A8010020C00100207B14AE47BC
:10353000E17A743FB80100208C010020B001002026
:10354000B4010020A001002064010020BC01002083
:103550004401002060010020FFF77AF9B0EE408AB4
:10356000FFF73AFA04E0FE4890ED000AFFF734FA5C
:10357000ABE6FC490968FC4A1268881AFFF768F94B
:10358000B0EE408AFFF728FA00BF9EE600B5F74884
:103590000068022815DA9FEDF60AF64880ED000A69
:1035A0009FEDF30AEE4880ED000A0020F249086022
:1035B00047F23050F1490860F14908600020F149B4
:1035C0000860F1480068401CEF490860EF4909684D
:1035D000884204DAEE480068FFF7A5F80EE0EB48F1
:1035E0000068E9490860EB48006820B1E8480068D5
:1035F000FFF799F802E00020FFF795F800BDE24AD6
:103600001268521CE04B1A60824207DDE24A1268DF
:103610000A44E14B1A600022DB4B1A6070472DE927
:10362000FC47FFF7B6F8D0490860FFF7F3FDDB4829
:103630000068002821DDD8480068D8490968884218
:103640002AD0D5480068D549096888420EDAD248A0
:103650000068D349096888421EDACF480068FFF73E
:1036600063F904460121FFF7CAFF15E04FF0FF316F
:10367000CC480068FFF7C3FF0EE0C7480068002889
:1036800006DD4FF0FF31C8480068FFF7B8FF03E0E0
:10369000FFF77CFFBDE8FC87C4480068B2490968B1
:1036A000884205D0FFF7FDFDAF480068BF490860BC
:1036B000BF480068E8B3B848D0ED000AF8EEE00A69
:1036C000BC4890ED001A60EE810AB0EE600AFFF788
:1036D00065F80446B048D0ED000AF8EEE00AB648B6
:1036E00090ED001A60EE810AB0EE600AFFF756F81E
:1036F0000546A948D0ED000AF8EEE00AAF4890ED83
:10370000001A60EE810AB0EE600AFFF747F806463D
:10371000A148D0ED000AF8EEE00AA94890ED001AA1
:1037200060EE810AB0EE600AFFF738F807469A4863
:1037300000E023E0D0ED000AF8EEE00AA14890EDA9
:10374000001A60EE810AB0EE600AFFF727F88046A3
:103750009148D0ED000AF8EEE00A9B4890ED001A7F
:1037600060EE810AB0EE600AFFF718F88146334632
:103770003A464146CDE90054FEF765FF00BF89E7B0
:1037800070B52DED028B0F2505269FED790AB0EE61
:10379000408A8E4800791E2805DB8C480079B428C1
:1037A00001DC012000E000200446FEF770FE322517
:1037B0009FED870AB0EE408A8448407800F001000F
:1037C00020B1C825B6EE000AB0EE408A7F480078E6
:1037D00000F0080098B17D48007800F0100070B942
:1037E0007A48007800F0200048B97848007800F066
:1037F000400020B929467748FFF74AFC08E17348A2
:10380000007800F00800A0B97048007800F01000BF
:1038100078B16E48007800F0200050B96B4800780D
:1038200000F0400028B9294640F2DC50FFF730FC98
:10383000EEE06648007800F00800A0B96348007820
:1038400000F0100078B96148007800F0200050B115
:103850005E48007800F0400028B929464FF4167001
:10386000FFF716FCD4E05948007800F0080098B93A
:103870005648007800F0100070B95448007800F005
:10388000200048B95148007800F0400020B1294696
:103890005148FFF7FDFBBBE04C48007800F0080002
:1038A000A0B14A48007800F0100078B94748007885
:1038B00000F0200050B14548007800F0400028B9E1
:1038C00029464FF49670FFF7E3FBA1E03F480078EC
:1038D00000F0080098B13D48007800F0100070B981
:1038E0003A48007800F0200048B93848007800F0E5
:1038F000400020B129463948FFF7CAFB88E0334829
:10390000007800F00800A0B93048007800F01000FE
:1039100078B12E48007800F0200050B12B48007894
:1039200000F0400028B929464FF46170FFF7B0FB62
:103930006EE02648007800F0080078B92348007847
:1039400000F0100050B12148007800F0200028B9A4
:103950001E48007800F0400000B141E045E0000062
:10396000B0010020AC010020C0010020B8010020FF
:1039700000000000B401002088010020A001002008
:10398000A4010020A80100209C0100207801002053
:1039900074010020700100208C01002090010020A3
:1039A00094010020C801002098010020C4010020DB
:1039B00084010020E0010020DC010020D80100206B
:1039C000D4010020D0010020CC01002038050020C7
:1039D000CDCCCC3DD4FEFFFF50FBFFFF7CFCFFFFB6
:1039E0002946F848FFF754FB12E0F74890ED000A2B
:1039F000DFEDF60AB4EEE00AF1EE10FA08D229463D
:103A000090ED000ABDEEC00A10EE100AFFF740FB71
:103A1000EF48007800F0080010BBED48007800F097
:103A20001000E8B9EA48007800F02000C0B9E84882
:103A3000007800F0400098B9E34890ED000ADFED0F
:103A4000E30AB4EEE00AF1EE10FA09DD44B1FEF744
:103A500092FE28B1DE48C07910B90020FFF730FA95
:103A600014B1FFF756FA27E0D948007914280EDA86
:103A7000FEF781FE28B10020B1EE480AFFF7F8FA00
:103A80001AE00020B1EE480AFFF7F2FA14E0D0483D
:103A90000079B4280EDDFEF76EFE28B10020B0EEEE
:103AA000480AFFF7E5FA07E00020B0EE480AFFF702
:103AB000DFFA01E0FFF72DFABDEC028B70BDC548BF
:103AC00001680068401CC34A1060322907D2C2480E
:103AD0004089C24909680844C04908600BE0BF48F2
:103AE00000683221B0FBF1F0BD4908600020B949FF
:103AF0000860BA490860BB4801680068401CB94AC0
:103B00001060322907D2B4480089B74909680844CF
:103B1000B54908600BE0B44800683221B0FBF1F011
:103B2000B24908600020AF490860AF490860B0485A
:103B300001680068401CAE4A1060322907D2A648CE
:103B40008089AC4909680844AA4908600BE0A94883
:103B500000683221B0FBF1F0A74908600020A449B9
:103B60000860A4490860A54801680068401CA34A91
:103B70001060322907D29848C089A14909680844D1
:103B80009F4908600BE09E4800683221B0FBF1F0CD
:103B90009C490860002099490860994908609A4842
:103BA00001680068401C984A1060322907D28A4890
:103BB0000088964909680844944908600BE09348D6
:103BC00000683221B0FBF1F09149086000208E4975
:103BD00008608E4908608F4801680068401C8D4A63
:103BE0001060322907D27C4840888B490968084414
:103BF000894908600BE0884800683221B0FBF1F089
:103C00008649086000208349086083490860844829
:103C100001680068401C824A1060322907D26E4851
:103C200080888049096808447E4908600BE07D4827
:103C300000683221B0FBF1F07B4908600020784930
:103C4000086078490860704701B56148407800F025
:103C5000200040B19DF80000744981F82F00002039
:103C600081F82E0011E05A48407800F0040040B17D
:103C70009DF800006D4981F82F00012081F82E0089
:103C800003E00220694981F82F0008BD50484078C0
:103C900000F0020010B366480068F8B96548006893
:103CA00090B99620614981F8230081F8270081F8B6
:103CB0002B00002081F8220081F8260081F82A00DC
:103CC00001205C49086009E00020584981F8230080
:103CD00081F8270081F82B00564908603C4840785D
:103CE00000F0020052490860704710B5384840782B
:103CF00000F00200C0B93648407800F0040098B1E6
:103D0000012280214C4801F035FA4FF480414B48A4
:103D100001F012FA20B901224021474801F02AFAA5
:103D20000120474908700FE04548007860B1002243
:103D30004021414801F01EFA002280213E4801F056
:103D400019FA00203E49087010BD10B54FF4E67016
:103D50003C49086001228021374801F00BFA002419
:103D60000BE002E0012004F0E7FB4FF48041334810
:103D700001F0E2F90128F5D0641C642CF1DB40F27B
:103D8000DC5004F0D9FB012291022B4801F0F2F93A
:103D90004FF4FA7004F0D0FB01224021264801F0D4
:103DA000E9F900240AE002E0012004F0C5FB01214A
:103DB000224801F0C1F90128F6D0641C642CF2DB22
:103DC00000244CE024FAFFFF8C00002000606A46CB
:103DD0003805002054020020EC0400205802002086
:103DE000700000205C0200206002002074000020AF
:103DF00064020020680200207C0000206C02002089
:103E00007002002078000020740200207802002058
:103E1000800000207C02002080020020840000201E
:103E20008402002088020020880000200400002076
:103E3000380200202002002000040240001002404E
:103E40008C020020E800002002E0012004F074FB56
:103E50000121F74801F070F90028F6D0641C642CA9
:103E6000F2DB4FF47A7004F067FB00224FF48061BC
:103E7000F04801F07FF940F2DC5004F05DFB0024D3
:103E80000AE002E0012004F057FB0121E84801F0BC
:103E900053F90128F6D0641C642CF2DB4FF4FA705D
:103EA00004F04AFB00224021E24801F063F94FF49C
:103EB000FA6004F041FB00228021DE4801F05AF94B
:103EC00000240AE002E0012004F036FB0221D84879
:103ED00001F032F90128F6D0641C642CF2DB10BD2D
:103EE00010B54FF4E670D449086002E00A2004F0EF
:103EF00023FBD2480068B0F5EB7FF7DC01224021BC
:103F0000CC4801F037F941F2883004F015FB0A2063
:103F1000CB4981F82B0081F8270081F8230001208C
:103F200081F8220081F8260081F82A0041F28830C9
:103F300004F002FB40F23A20BF4908600022402111
:103F4000BC4801F017F900240DE004E0012004F062
:103F5000F3FAFFF715FC4FF48061B54801F0ECF877
:103F60000128F3D0641C642CEFDB40F6B83004F079
:103F7000E3FA0020B24981F8230081F8270081F894
:103F80002B0010BD10B5AF48407800F0080050B1CC
:103F9000AC48407800F0020028B901228021A548F1
:103FA00001F0E8F811E0A748007800F0020060B1E5
:103FB000002280219F4801F0DDF80020A04981F80F
:103FC0002B0081F8270081F8230010BD10B59D4813
:103FD000407800F0400078B34FF48061944801F0DD
:103FE000ABF848BB1E20964981F82B0081F82700CA
:103FF00081F82300002081F8220081F8260081F852
:104000002A0042F2107004F097FA0122D102894886
:1040100001F0B0F842F2107004F08EFA00208849E6
:1040200081F82B0081F8270081F8230000224FF44B
:104030000061804801F09EF810BD10B581484078BD
:1040400000F0800058B314207D4981F82B0081F8DE
:10405000270081F82300012081F8220081F8260042
:1040600081F82A0000240BE002E0012004F064FA49
:104070004FF480616E4801F05FF80128F5D0641CB0
:10408000642CF1DB40F6B83004F056FA00206C499D
:1040900081F8230081F8270081F82B0000BF10BDB4
:1040A00010B50A20FEF70CFF9620654981F82B0019
:1040B00081F8270081F82300002081F8220081F890
:1040C000260081F82A0043F6982004F035FA0122F0
:1040D000D102584801F04EF841F6583004F02CFA5D
:1040E0000020574981F82B0081F8270081F8230030
:1040F00000224FF400614F4801F03CF810BD10B5AC
:104100000446514804604A2C09D19FED500A50489A
:1041100080ED000A4F4800684F49086074E24B2C5C
:1041200009D19FED4E0A4A4880ED000A49480068CF
:104130004949086068E24C2C09D19FED490A44487E
:1041400080ED000A43480068434908605CE24D2C5A
:1041500009D19FED440A3E4880ED000A3D480068C1
:104160003D49086050E24E2C09D19FED3F0A384886
:1041700080ED000A374800683749086044E24F2C58
:1041800009D19FED3A0A324880ED000A31480068B3
:104190003149086038E2502C09D19FED350A2C488E
:1041A00080ED000A2B4800682B4908602CE2512C56
:1041B0000AD19FED300A264880ED000A25480068A4
:1041C000801D254908601FE2522C0AD19FED2A0A62
:1041D0001F4880ED000A1F480068401D1E49086006
:1041E00012E2532C0AD19FED250A194880ED000AEE
:1041F00018480068401D1849086005E2542C0AD18F
:104200009FED1F0A124880ED000A12480068401D09
:1042100011490860F8E1552C36D19FED1A0A0C4877
:1042200080ED000A0B480068401F0B490860EBE175
:104230000010024000040240E8000020800000203E
:104240000400002038050020300200209A996541C2
:104250002C020020940000203402002033336741F8
:10426000CDCC684166666A4100006C419A996D4107
:1042700033336F41CDCC70416666724100007441AA
:104280009A99754133337741562C0AD19FEDF70A3D
:10429000F74880ED000AF7480068401FF6490860BB
:1042A000B2E1572C0AD19FEDF50AF14880ED000AE2
:1042B000F0480068401FF0490860A5E1582C0AD179
:1042C0009FEDEF0AEA4880ED000AEA480068401FC7
:1042D000E949086098E1592C0AD19FEDEA0AE448BF
:1042E00080ED000AE3480068001FE34908608BE1A5
:1042F0005A2C0AD19FEDE40ADD4880ED000ADD4822
:104300000068001FDC4908607EE15B2C0AD19FED4C
:10431000DF0AD74880ED000AD6480068001FD6495A
:10432000086071E15C2C0AD19FEDD90AD04880ED7C
:10433000000AD0480068001FCF49086064E15D2C86
:104340000AD19FEDD40ACA4880ED000AC948006826
:10435000001FC949086057E15E2C0AD19FEDCE0AC3
:10436000C34880ED000AC3480068C01EC249086007
:104370004AE15F2C0AD19FEDC90ABD4880ED000AD1
:10438000BC480068C01EBC4908603DE1602C0AD1F1
:104390009FEDC30AB64880ED000AB6480068C01E0B
:1043A000B549086030E1612C0AD19FEDBE0AB048E2
:1043B00080ED000AAF480068C01EAF49086023E1E5
:1043C000622C0AD19FEDB80AA94880ED000AA948DD
:1043D0000068801EA849086016E1632C0AD19FED91
:1043E000B30AA34880ED000AA2480068801EA249D3
:1043F000086009E1642C0AD19FEDAD0A9C4880ED6C
:10440000000A9C480068801E9B490860FCE0652CFF
:104410000AD19FEDA80A964880ED000A95480068E9
:10442000801E95490860EFE0662C0AD19FEDA20A34
:104430008F4880ED000A8F480068801E8E49086012
:10444000E2E0672C0AD19FED9D0A894880ED000AC1
:1044500088480068401E88490860D5E0682C0AD169
:104460009FED970A824880ED000A82480068401E4E
:1044700081490860C8E0692C0AD19FED920A7C4806
:1044800080ED000A7B480068401E7B490860BBE065
:104490006A2C0AD19FED8C0A754880ED000A754898
:1044A0000068401E74490860AEE06B2C0AD19FED95
:1044B000870A6F4880ED000A6E480068401E6E490A
:1044C0000860A1E06C2C0AD19FED810A684880ED5C
:1044D000000A68480068401E6749086094E06D2C37
:1044E00009D19FED7C0A624880ED000A61480068AE
:1044F0006149086088E06E2C09D19FED770A5C481D
:1045000080ED000A5B4800685B4908607CE06F2C26
:1045100009D19FED720A564880ED000A554800689F
:104520005549086070E0702C09D19FED6D0A504824
:1045300080ED000A4F4800684F49086064E0712C24
:1045400009D19FED680A4A4880ED000A4948006891
:104550004949086058E0722C09D19FED630A44482C
:1045600080ED000A43480068434908604CE0732C22
:104570000AD19FED5E0A3E4880ED000A3D48006882
:10458000401C3D4908603FE0742C0AD19FED580A59
:10459000374880ED000A37480068401C36490860FB
:1045A00032E0752C0AD19FED530A314880ED000AA4
:1045B00030480068401C3049086025E0762C0AD15C
:1045C0009FED4D0A2A4880ED000A2A480068401CE9
:1045D0002949086018E0772C0AD19FED480A244841
:1045E00080ED000A23480068801C234908600BE026
:1045F000782C09D19FED420A1D4880ED000A1D4824
:104600000068801C1C49086000EE104AB8EEC00A21
:104610001748D0ED000A20EE200AF2EE040A80EEE0
:10462000201ABDEEC10A374880ED000A4FF48061C0
:10463000354800F081FD38B93448007820B90D487C
:104640000068334908600FE04FF480612E4800F0A5
:1046500073FD48B92D48007830B92E48807918B1DB
:10466000054800682A49086010BD0000CDCC78419B
:104670002C020020940000203402002066667A415B
:1046800000007C419A997D4133337F4166668041C9
:104690003333814100008241CDCC82419A998341DC
:1046A000666684413333854100008641CDCC864126
:1046B0009A998741666688413333894100008A416F
:1046C000CDCC8A419A998B4166668C4133338D41BA
:1046D00000008E41CDCC8E419A998F416666904103
:1046E0003333914100009241CDCC92419A9993414C
:1046F000666694413333954100009641CDCC964196
:104700009A99974130020020001002405302002085
:10471000E80000203805002010B5F748807900280F
:1047200046D04FF48061F54800F006FD00283FD1E7
:10473000F148007800F08000002839D00120F049CD
:1047400008700A20FEF7BCFBEE480078EE4981F8BD
:104750002B0081F8270081F82300002081F8220037
:1047600081F8260081F82A0002E0642003F0E4FECC
:10477000E148007800F080000028F6D10122D10243
:10478000E24800F0F7FC43F6982003F0D5FE002045
:10479000DD4981F82B0081F8270081F823000022F1
:1047A0004FF40061D94800F0E5FC0020D4490870BE
:1047B00010BD70B52DED0C8B0446A4F164000028EB
:1047C00001DB014600E041420D46232D04DA9FED56
:1047D000D00ABDEC0C8B70BD284604F0B6FC41EC51
:1047E0001D0B9FEDCC0B53EC102B04F0CDFB41ECDB
:1047F0001C0BB0EE4C0AF0EE6C0A05F02DF8B0EE92
:1048000040BAF0EE60BA9FEDC50B53EC102B51ECA3
:104810001B0B04F0B6FB41EC1A0B9FEDC20B53ECE3
:10482000102B04F0B1FB41EC190B9FEDC00B53ECC6
:10483000102B04F002FB41EC180B04F0AAFC00EE74
:10484000100AC6E710B52DED028B04462046FFF78F
:10485000B0FFB0EE408AB74880ED008ABDEC028B15
:1048600010BD10B52DED028B04462046FFF7A1FFC9
:10487000B0EE408AA048C07990B1622C05DA0020E1
:10488000B1EE480AFEF7F4FB0AE0662C05DD0020D5
:10489000B0EE480AFEF7ECFB02E00020FEF710FB4A
:1048A000BDEC028B10BD9448407800F00100F0B1DF
:1048B000A1480078662805DD07209349C8760120C5
:1048C000887614E09C480078622805DA07208E4933
:1048D000C876002088760AE097480078622806DBD0
:1048E00095480078662802DC02208749C876704720
:1048F0009248006892490968884203DA9048006843
:104900008E4908608D4800688E490968884203DD39
:104910008C480068894908608B490968874A126891
:10492000881A002801DB014600E04142012931DDFF
:104930008548006881490968884204DD0120724980
:1049400081F82E0003E000206F4981F82E007E4997
:1049500009687A4A1268881A002801DB014600E0DB
:10496000414201EB81014900784A1160104600681C
:10497000FA2802DDFA2011460860744800683228DF
:1049800002DA322071490860704800785E4981F887
:104990002F0003E000205C4981F82F00704710B51C
:1049A0005548407800F00200A0B15348407800F02C
:1049B000040078B16148006862490968884209DAF0
:1049C0005E480068401C5D4908604FF4967003F033
:1049D000B3FD18E04848407800F0020098B146481E
:1049E000407800F0200070B15448006854490968CC
:1049F000884208DD51480068401E504908604FF465
:104A0000C87003F099FD10BD05E01120FDF72BFDE6
:104A10000F2003F091FDF8E711E03748007800F02F
:104A2000010010B1FEF7ACFE02E00020FEF748FAEC
:104A3000FFF745F8FFF75CFF032003F07DFDECE78F
:104A400004E0FEF7ECFD032003F076FDF9E71FB567
:104A5000FCF725F8FCF762F8FCF7B1FAFCF771FBFC
:104A6000FCF7FEFBFCF7EFFCFCF7C3F84FF4E1307A
:104A7000FCF7C9FD4FF4E130FCF74EFE4FF4E13096
:104A8000FCF7D7FE4FF46120FDF70BF84FF4E1304F
:104A9000FDF7A4F8FDF779FEFDF7F8F900202C49A1
:104AA000087001202B4908700020009001900290AE
:104AB00003464FF4807228A103902C4803F0FDFABE
:104AC000002000900190029003464FF4807228A1CC
:104AD00003902C4803F0F1FA04202B4908700120C0
:104AE0002A4908704FF41670144908600A20FEF72E
:104AF000E7F997E08EE00000380500200010024042
:104B00005302002030020020040000200004024074
:104B1000CDCC4C3D295C8FC2F528ACBF0000000015
:104B20000000F03F666666666666E63F9A99999968
:104B30009999C93F3C02002023010020E800002091
:104B4000EC000020F0000020800000200C0200207B
:104B50009C000020520200207461736B526F626FE0
:104B600074416E616C79746963730000414A000896
:104B70007461736B446965754B6869656E436F4317
:104B800061750000194A0008ED010020E7010020CE
:104B9000FFF705FFFFF787FEFFF7A7F8314800781A
:104BA000FFF75FFEFFF7EEF92F4890ED000AB8EE31
:104BB000C00AFDF7CBFC2D480068FFF7A0FAFFF70D
:104BC0003CFA2B48407800F0020030B92848407881
:104BD00000F0200008B1FFF7B8F82548407800F051
:104BE000020030B92248407800F0100008B1FFF709
:104BF00077F91F48407800F0020030B91C4840782F
:104C000000F0400008B1FFF7E1F9FFF785FD012052
:104C100003F092FC1648007800F001000028B7D19C
:104C2000FEF74EF966E71FB5002000900190029054
:104C300003464FF480720FA10390114803F03DFA30
:104C4000002000900190029003464FF480720DA165
:104C500003900F4803F031FA03F048FE002004B03F
:104C600010BD0000240100207800002090000020EA
:104C7000380500207461736B4D61696E000000009F
:104C80004F4A00087461736B4779726F000000002F
:104C9000094A00080CB50020019000907248006895
:104CA00040F480307049086000BF6F48006800F42D
:104CB000003000900198401C0190009818B90198AC
:104CC000B0F5A06FF1D16848006800F4003010B171
:104CD0000120009001E0002000900098012846D1BA
:104CE00061484030006840F080505F4940310860C2
:104CF0005E48006840F480405C4908605A480830CB
:104D000000685949083108600846006840F40040CE
:104D100008600846006840F4A05008605448091F25
:104D20000860081F006840F08070091F086000BF1D
:104D30004D48006800F000700028F9D040F205608E
:104D40004C49086048480830006820F00300464994
:104D5000083108600846006840F00200086000BFA3
:104D600041480830006800F00C000828F8D10CBD5C
:104D700010B53D48006840F001003B490860002044
:104D8000394908310860384800683B4908403649CD
:104D900008603A48091D0860081F006820F4802058
:104DA000091F0860002030490C310860FFF772FFCE
:104DB0004FF000603249086010BD70B5002000223D
:104DC000022300240221284D08352D6805F00C002F
:104DD00020B1042806D0082834D107E0294D2A4EF6
:104DE000356033E0294D284E35602FE01E4D2D1DD6
:104DF0002D68C5F380541C4D2D1D2D6805F03F0115
:104E000054B1224DB5FBF1F5174E361D3668C6F389
:104E1000881605FB06F209E01A4DB5FBF1F5124EB6
:104E2000361D3668C6F3881605FB06F20E4D2D1D9D
:104E30002D68C5F301456D1C6B00B2FBF3F5124EF6
:104E4000356003E00F4D104E356000BF00BF064DCA
:104E500008352D68C5F303150D4E705D0A4D2D689C
:104E6000C540094E356070BD0038024000700040FA
:104E700008544007003C0240FFFFF6FE10300024BB
:104E800008ED00E00024F4009002002000127A00F7
:104E9000940200200648804706480047FEE7FEE7E8
:104EA000FEE7FEE7FEE7FEE7FEE7FEE7FEE7FEE7DA
:104EB000714D00088901000832490143324A1160EE
:104EC000704770B5002100230F22C4781CB32E4C0C
:104ED000246804F4E064C4F5E064C4F30721C1F17C
:104EE0000404E3B20A4144789C40E1B2847814405F
:104EF00021430C07210E254C05786155047804F0F8
:104F00001F050124AC4005786D11AD0005F1E025C9
:104F1000C5F8004109E0047804F01F050124AC4005
:104F20001B4D0678761145F8264070BD194A0A4097
:104F30000243154B1B1F1A60704739B1124A121DEC
:104F400012680243104B1B1D1A6006E00E4A121D28
:104F5000126882430C4B1B1D1A607047042808D14D
:104F60004FF0E021096941F004014FF0E0221161A6
:104F700007E04FF0E021096921F004014FF0E02241
:104F8000116170470000FA050CED00E000E400E05C
:104F900080E100E080FFFF1F10B504468C4884428A
:104FA00008D10121084600F000FB0021012000F09B
:104FB000FCFA5EE08748844208D10121022000F01B
:104FC000F4FA0021022000F0F0FA52E08248844214
:104FD00008D10121042000F0E8FA0021042000F0AB
:104FE000E4FA46E07D48844208D10121082000F01F
:104FF000DCFA0021082000F0D8FA3AE07848844230
:1050000008D10121102000F0D0FA0021102000F07A
:10501000CCFA2EE07348844208D10121202000F010
:10502000C4FA0021202000F0C0FA22E06E48844239
:1050300008D10121402000F0B8FA0021402000F002
:10504000B4FA16E06948844208D10121802000F0BA
:10505000ACFA0021802000F0A8FA0AE064488442FB
:1050600007D10121801500F0A0FA0021A01500F061
:105070009CFA10BDF0B50A4600210023002400BFB1
:105080003DE0012505FA01F3156805EA03049C4299
:1050900034D105684F000326BE40B543056015793D
:1050A0004E00B5400668354305601579012D02D0E4
:1050B0001579022D16D185684F000326BE40B543F1
:1050C000856055794E00B5408668354385604568F2
:1050D00001268E40B5434560456896798E40B6B24C
:1050E00035434560C5684F000326BE40B543C560E3
:1050F000D5794E00B540C6683543C560491C1029B6
:10510000BFD3F0BD4FF6FF71016000210171417105
:105110008171C171704708B54FF480320092009AD6
:105120000A430092009AC261C161009AC261C269D9
:105130000092C269009208BD0246002013690B402C
:105140000BB1012000E0002070470146086980B2E1
:1051500070470246002053690B400BB1012000E06C
:10516000002070470146486980B27047018370474C
:10517000418370470AB1018300E041837047416178
:10518000704742694A4042617047F0B500230024ED
:105190004D07ED0E02FA05F3CE1000F1200555F88B
:1051A00026504E07F70E0F26BE40B543CF1000F134
:1051B000200646F82750CE1000F1200555F826505D
:1051C00045EA0304CE1000F1200545F82640F0BD65
:1051D000000002400004024000080240000C0240AF
:1051E000001002400014024000180240001C02405F
:1051F00000200240FA48006840F00100F8490860C9
:105200000020F74908310860F5480068F549084072
:10521000F3490860F448091D0860081F006820F47D
:105220008020091F08600020ED490C31086070479C
:105230000021EB4A921C117011460870704710B59E
:1052400001460022002300204A11012A02D1E44C29
:10525000236808E0022A03D1E14C7034236802E09D
:10526000DF4C7434236801F01F02012494401C4079
:105270000CB1012000E0002010BD38B500200090E6
:105280000024002500BF3120FFF7D9FF0546009814
:10529000401C00900098B0F5A06F01D0002DF2D016
:1052A0003120FFF7CCFF08B1012400E000242046A4
:1052B00038BD01460020CA4A106820F0F80040EAD4
:1052C000C10010607047C949086070470021C44A96
:1052D000703211701170012802D004280AD104E044
:1052E0000121BF4A7032117005E00521BC4A7032BD
:1052F000117000E000BF00BF7047BD4908607047F3
:1053000070B5049C41EA82150126C6EB530645EAB6
:105310000645054345EA0465B14E361D356070BD4E
:10532000B24908667047820142EA0172AC4B84338D
:105330001A607047AD4988667047AC49C8647047C9
:1053400002460020A64B0833186820F0EC6042EAC1
:1053500001031843A24B083318607047024600202F
:105360009F4B0833186820F0784042EA0103184345
:105370009B4B08331860704701460020984A08325A
:10538000106820F00300084310607047944808300C
:10539000006800F00C00704701460020904A083277
:1053A000106820F0F00008431060704701460020AC
:1053B0008B4A0832106820F4E050084310607047B0
:1053C00001460020864A0832106820F4604040EA16
:1053D000C10010607047F0B50021002200240225B2
:1053E000002602237E4F08373F6807F00C0121B1E9
:1053F000042905D0082937D105E07E4F076036E043
:105400007D4F076033E0764F3F1D3F68C7F38056FE
:10541000734F3F1D3F6807F03F036EB1764FB7FBF8
:10542000F3F7DFF8BCC10CF1040CDCF800C0CCF3DE
:10543000881C07FB0CF40CE06E4FB7FBF3F7DFF8AA
:10544000A0C10CF1040CDCF800C0CCF3881C07FBF5
:105450000CF4634F3F1D3F68C7F301477F1C7D007D
:10546000B4FBF5F7076002E0624F076000BF00BFC2
:105470005B4F08373F6807F0F00109095F4F7A5C1E
:105480000768D7404760564F08373F6807F4E05138
:10549000890A5A4F7A5C4768D7408760504F08376F
:1054A0003F6807F46041490B544F7A5C4768D74026
:1054B000C760F0BD002100F44072B2F5407F0AD110
:1054C000474A0832116821F4F8114D4A024011434D
:1054D000434A08321160424A70321268C0F30B032B
:1054E0001A433F4B70331A60704741494439086092
:1054F00070473F494039086070474249086070472B
:1055000039B1374A303212680243354B30331A60B2
:1055100006E0334A303212688243314B30331A602E
:10552000704739B12E4A3432126802432C4B34335F
:105530001A6006E02A4A343212688243284B343318
:105540001A60704739B1264A383212680243244B38
:1055500038331A6006E0224A383212688243204B00
:1055600038331A60704739B11D4A4032126802431D
:105570001B4B40331A6006E0194A403212688243DE
:10558000174B40331A60704739B1154A44321268DC
:105590000243134B44331A6006E0114A4432126846
:1055A00082430F4B44331A60704739B10C4A1032B2
:1055B000126802430A4B10331A6006E0084A1032A0
:1055C00012688243064B10331A607047E1B1044AF7
:1055D000143212680243024B14331A6019E00000BF
:1055E00000380240FFFFF6FE103000240000474262
:1055F000800E47420024F40000127A00A40200202A
:10560000FFFCFF0F5C0147425B4A126882435A4B22
:105610001A60704739B1584A121D12680243564B3E
:105620001B1D1A6006E0544A121D12688243524B39
:105630001B1D1A60704739B14F4A0C321268024381
:105640004D4B0C331A6006E04B4A0C321268824311
:10565000494B0C331A60704739B1474A103212680F
:105660000243454B10331A6006E0434A1032126879
:105670008243414B10331A60704739B13E4A3C3285
:10568000126802433C4B3C331A6006E03A4A3C3213
:1056900012688243384B3C331A60704739B1364A3E
:1056A000403212680243344B40331A6006E0324AFB
:1056B000403212688243304B40331A60704739B130
:1056C0002D4A4432126802432B4B44331A6006E0E1
:1056D000294A443212688243274B44331A60704788
:1056E00039B1254A4C3212680243234B4C331A60BD
:1056F00006E0214A4C32126882431F4B4C331A6039
:10570000704739B11C4A5032126802431A4B503369
:105710001A6006E0184A503212688243164B503322
:105720001A60704739B1144AD21F12780243124BE3
:10573000DB1F1A7006E0104AD21F127882430E4B0C
:10574000DB1F1A7070470C486030006840F08070B2
:10575000094960310860704701460020064A083A4E
:1057600012680A400AB1012000E000207047024997
:10577000891F0870704700001438024010B50121DD
:105780000802FFF769FF00214FF48070FFF764FF04
:1057900010BD30B50246002000235068F84C204070
:1057A0000D790C6844EA0524204350609068F54C5C
:1057B0002040D1E903542C438D682C434D7944EAB1
:1057C000450420439060D06A20F470000C7D641E74
:1057D000E4B2234340EA0350D06230BD00210160AF
:1057E000017141718160C1600161012101757047E2
:1057F0000021E54A1168E54A1140D0E900231A4327
:1058000083681A43C3681A431143E14AC2F8041378
:1058100070470021016041608160C160704721B123
:10582000826842F00102826003E0826822F0010295
:10583000826070470A4600214168D64B19401143E7
:10584000416070474162826270470A4600214168A8
:1058500021F01F0111434160704738B1CA490968FE
:1058600041F40001CA4AC2F8041306E0C6490968B7
:1058700021F40001C64AC2F80413704738B1C24986
:10588000096841F48001C24AC2F8041306E0BE4927
:10589000096821F48001BE4AC2F804137047F0B5CC
:1058A00004460D4600200021092D11DDE068A5F118
:1058B0000A0606EB4607072606FA07F18843A5F114
:1058C0000A0606EB460603FA06F10843E0600CE020
:1058D000206905EB4507072606FA07F1884305EB23
:1058E000450603FA06F108432061072A0FDA606BC8
:1058F000561E06EB86071F2606FA07F18843561E3A
:1059000006EB860605FA06F10843606322E00D2ADD
:105910000FDA206BD61F06EB86071F2606FA07F163
:105920008843D61F06EB860605FA06F10843206376
:1059300010E0E06AA2F10D0606EB86071F2606FAC4
:1059400007F18843A2F10D0606EB860605FA06F17B
:105950000843E062F0BD816841F08041816070479A
:10596000014600208A6802F480020AB1012000E0AA
:105970000020704721B1826842F48062826003E0B7
:10598000826822F480628260704721B1826842F0AE
:105990000202826003E0826822F0020282607047A5
:1059A00010B50A4600210023416821F46041531ECE
:1059B00041EA4331416010BD21B1426842F40062C6
:1059C000426003E0426822F4006242607047014690
:1059D000C86C80B270476C48001D0068704721B1E8
:1059E000826842F48072826003E0826822F48072EE
:1059F0008260704721B1826842F40072826003E0E5
:105A0000826822F400728260704738B15E4909688A
:105A100041F400515E4AC2F8041306E05A4909688D
:105A200021F400515A4AC2F804137047F0B50446F5
:105A30001546002000220026092911DDE068A1F1A9
:105A40000A0707EB470C072707FA0CF29043A1F16E
:105A50000A0707EB470703FA07F21043E0600CE080
:105A6000206901EB410C072707FA0CF2904301EB88
:105A7000410703FA07F210432061A06BC0F30156FF
:105A8000EF1C06F1010CA7EB0C0707EB870C1F2797
:105A900007FA0CF29043EF1C06F1010CA7EB0C0780
:105AA00007EB870701FA07F21043A063F0BD10B5BA
:105AB0000A4600210023816B21F44011531E41EA64
:105AC0000351816310BD08B5002300930090009B33
:105AD0000B440093009B1A6008BD0A4600218168B0
