:020000040800F2
:10000000D033002049540008450200084702000888
:100010004B0200084F0200085302000800000000D5
:100020000000000000000000000000009D0100082A
:100030005702000800000000E10100086384000886
:1000400063540008635400086354000863540008B4
:1000500063540008635400086354000863540008A4
:10006000A5040008E9040008635400081903000807
:10007000FB020008570300086354000875020008DB
:1000800063540008810200086354000863540008A8
:100090006354000863540008635400086354000864
:1000A00063540008C1030008ED030008635400080E
:1000B000EF0300081D040008490400086354000809
:1000C000635400086354000863540008A104000846
:1000D000635400085D02000863540008635400087C
:1000E0006354000863540008635400086354000814
:1000F0006354000863540008635400083303000885
:10010000635400086354000875040008A304000841
:100110006354000863540008930300089F03000819
:10012000635400089B020008CD02000863540008D5
:1001300063540008635400086354000863540008C3
:1001400063540008635400086354000863540008B3
:10015000ED0200086354000863540008635400086B
:100160006354000863540008635400086354000893
:100170006354000863540008635400086354000883
:100180006354000863540008DFF80CD009F0CCFC7D
:100190000048004785510008D0330020234B1968E0
:1001A0000868B0E8F04F80F309884FF0000080F352
:1001B000118870470000000003480068006880F361
:1001C000088862B600DF00BF08ED00E0DFF80C0031
:1001D000016841F470010160704700BF88ED00E0E4
:1001E000EFF30980114B1A681EF0100F08BF20EDC5
:1001F000108A20E9F04F106008B54FF0140080F32A
:10020000118808F0F6FC4FF0000080F31188BDE87B
:10021000084019680868B0E8F04F1EF0100F08BFDA
:10022000B0EC108A80F30988704700BF0C040020EE
:10023000EFF311804FF0140181F31188704780F3C0
:1002400011887047704700BFFEE700BFFEE700BFA0
:10025000FEE700BFFEE770477047704710B540F2F9
:100260002551A24807F011FA18B120219F4807F044
:1002700003FA10BD10B59E499E4806F03BF910BD2B
:1002800010B59D499B48303006F00AF920B19A49D3
:100290009848303006F02EF910BD10B597499848AF
:1002A00006F0FEF888B19549954806F023F901F06B
:1002B000CEFD0021924806F049F80421904806F04E
:1002C00066F801218E4806F041F810BD10B58D4941
:1002D0008B48183006F00EF98B4840788A49097827
:1002E00040EA012000B28949088010BD10B5884954
:1002F0008348603006F0FEF810BD10B57F497D4898
:10030000483806F0CDF830B17C497A48483806F0D4
:10031000F1F800F0B7FA10BD10B57E4975486038A5
:1003200006F0BEF820B17B497248603806F0E2F86A
:1003300010BD10B578496F48483006F0B1F848B1A3
:1003400000216C48483006F001F87349694848308C
:1003500006F0D0F810BD10B56A496648303806F08E
:100360009FF8A8B167496348303806F0C3F801F038
:1003700028FC00215F48303805F0E8FF04215D4883
:10038000303806F004F801215A48303805F0DEFF15
:1003900010BD10B50121614806F0D4FE10BD10B5A6
:1003A00001215F4806F0CEFE7A2050498880012165
:1003B0005C4807F079F801215B4807F075F810BD3B
:1003C00010B50121594806F0BDFE5848008800F0DC
:1003D000100028B156480068401E5549086004E0E6
:1003E00053480068401C5249086010BD704710B562
:1003F0000121880706F0A6FE4FF08040008800F03B
:10040000100028B14B480068401E4A49086004E0CB
:1004100048480068401C4749086010BD10B50121DC
:10042000454806F08FFE4448008800F0100028B1CF
:1004300042480068401E4149086004E03F480068A7
:10044000401C3E49086010BD10B501213C4806F033
:1004500079FE3B48008800F0100028B13948006858
:10046000401E3849086004E036480068401C3549A1
:10047000086010BD10B50121334806F063FE324814
:10048000008800F0100028B130480068401E2F4955
:10049000086004E02D480068401C2C49086010BD2D
:1004A0007047704710B5042006F0BCF8D8B1202181
:1004B000274805F040F90421264805F017F90128DE
:1004C00004D10021164806F0BDF909E004212148B5
:1004D00005F00CF920B9124806F0B8F91E49086079
:1004E00004201E49086010BD704700000010014044
:1004F00020800020706002400080202000880010D2
:100500002864024000802010280600208C00002073
:10051000008800202080001000800028001000408B
:100520000014004000480040001401400000014059
:100530006C000020700000200004004074000020C7
:100540000008004088000020000C004078000020D7
:1005500000000240000C024068000020143C0140F2
:1005600070B50446204608F02DFF05462146FE489A
:1005700008F02FFFA0B195222146FB4808F016FF96
:100580000021FA4805F0E2FEF748F8490C3108600E
:10059000F648B838C0F8BC500121F44805F0D6FE42
:1005A00070BD70B50446002510E0605D68B1615D06
:1005B000EF4806F0A4FF00BF8021ED4807F04FF898
:1005C0000028F9D0681CC5B200E070BDEDE770B539
:1005D000044600250FE05CB12146E54806F08FFF98
:1005E00000BF8021E24807F03AF80028F9D000E087
:1005F00070BD681CC5B2032DEDDB00BFF8E713B575
:100600000C460020FFF7E3FFDAA0FFF7CAFF2346FE
:10061000D9A29621D94809F0D1FAD848FFF7C1FFED
:10062000D7A0FFF7BEFFD4A29621D448009B09F0C3
:10063000C5FAD248FFF7B5FFD3A0FFF7B2FFFF20FE
:10064000FFF7C5FFFF20FFF7C2FFFF20FFF7BFFF47
:100650001CBD70B505460C46C6A0FFF7A2FF22469A
:10066000C5A1C64809F0C2FAC448FFF79AFFC4A062
:10067000FFF797FF2846FFF794FFC3A0FFF791FF0E
:10068000FF20FFF7A4FF70BD77B585B00546FF26B4
:10069000BBA103C9CDE90301BBA000680290B5A0CE
:1006A0000068019000240AE00020B8490855B849C4
:1006B0000855B2490855AC490855601CC4B21E2CF7
:1006C000F2DB0A20AD490870FF2048708870C870BE
:1006D000A9A1AF48079A09F089FAAD4901A808F025
:1006E00059FE01A9A54808F055FE03A9A34808F042
:1006F00051FE2946A14808F04DFE9FA1A448069A44
:1007000009F074FAA2499D4808F044FE02A99B48EA
:1007100008F040FEFF209D49087048708870974897
:1007200008F038FE9548FFF71BFF08B070BDF7B51D
:1007300084B005460E46FF2791A103C9CDE9020109
:1007400091A0006801908BA000680090002408E050
:1007500000208E4908558E49085588490855601C67
:10076000C4B20A2CF4DB0A2084490870FF204870C8
:100770008870C87080A18648069A09F037FA8449C3
:10078000684608F007FE69467C4808F003FE02A9A7
:100790007A4808F0FFFD2946784808F0FBFD31460D
:1007A000764808F0F7FD01A9744808F0F3FDFF2032
:1007B00076490870487088700020C87008716F48CA
:1007C00008F0E8FD6D48FFF7CBFE07B0F0BD01B5BE
:1007D0008EB070A2322101A80E9B09F0EFF901A89A
:1007E000FFF7BEFE0FB000BD73B584B00546FF260F
:1007F00063A103C9CDE9020163A0006801905DA077
:100800000068009000240AE0002060490855604913
:1008100008555A49085554490855601CC4B21E2C45
:10082000F2DB0A2055490870FF2048708870C870B4
:1008300051A15748059A09F0D9F95549684608F079
:10084000A9FD69464D4808F0A5FD02A94B4808F0EE
:10085000A1FD2946494808F09DFD4D49474808F04B
:1008600099FD01A9454808F095FDFF20474908700A
:1008700048708870414808F08DFD4048FFF770FED1
:1008800006B070BD1CB54648007845494978084413
:100890004349897808444249C9780844404909795C
:1008A00008443F49497908443D49897908443C490D
:1008B000C97908443A49097A0844C0B201903848D5
:1008C000007A00F00F0000909DF800000D2803D082
:1008D0000021344806F0E8FD1CBD3148007A00F0E4
:1008E0000F000D2806D12E48007800F0010008B155
:1008F0000D2070470020FCE72948007800F0020036
:1009000008B1012070470020FCE730B52DED048BC5
:1009100083B0254805F09AFF2449096840EA01455B
:10092000284608F0ECFE41EC190B9FED210B53EC2F
:10093000102B08F075FE41EC180B08F0F1FE019049
:1009400000244DE0184805F081FF1849096840EA85
:100950000145284608F0D3FE41EC190B9FED140B1E
:1009600053EC102B28E0000082050020B860024004
:100970000050004074000000256400004C0400207A
:100980002E7478743D220000220000003205002001
:100990000A0500206A302E76616C3D256400000057
:1009A000640600200048004000040040740000205D
:1009B0006666666666A64E4008F032FE41EC180B8D
:1009C00008F0AEFE0290DDE90121881A002801DB63
:1009D000014600E04142052900DA641C02980190BA
:1009E000022CAFDB0298404203B0BDEC048B30BD5B
:1009F00030B52DED048B83B0FE4805F027FFFE498E
:100A0000096840EA0145284608F079FE41EC190BD7
:100A10001FED190B53EC102B08F002FE41EC180BE4
:100A200008F07EFE0190002423E0F24805F00EFF5E
:100A3000F149096840EA0145284608F060FE41ECAA
:100A4000190B1FED250B53EC102B08F0E9FD41ECC1
:100A5000180B08F065FE0290DDE90121881A0028D4
:100A600001DB014600E04142052900DA641C0298DE
:100A70000190022CD9DB0298404203B0BDEC048BFC
:100A800030BD30B52DED048B83B04FF0804005F0C4
:100A9000DDFEDA49096840EA0145284608F02FFEE4
:100AA00041EC190B1FED3E0B53EC102B08F0B8FD79
:100AB00041EC180B08F034FE0190002424E04FF0C4
:100AC000804005F0C3FECD49096840EA014528464B
:100AD00008F015FE41EC190B1FED4B0B53EC102BDE
:100AE00008F09EFD41EC180B08F01AFE0290DDE9BB
:100AF0000121881A002801DB014600E04142052956
:100B000000DA641C02980190022CD8DB029803B032
:100B1000BDEC048B30BD30B52DED048B83B0B848EF
:100B200005F094FEB749096840EA0145284608F0F7
:100B3000E6FD41EC190B1FED620B53EC102B08F096
:100B40006FFD41EC180B08F0EBFD0190002423E051
:100B5000AB4805F07BFEAB49096840EA01452846F1
:100B600008F0CDFD41EC190B1FED6F0B53EC102B72
:100B700008F056FD41EC180B08F0D2FD0290DDE9BB
:100B80000121881A002801DB014600E04142322998
:100B900000DA641C02980190022CD9DB029803B0A1
:100BA000BDEC048B30BD01B581B0002000900198F0
:100BB00000EBC0004000009002E00098401E009052
:100BC00000980028F9D10CBD01B581B0002000903B
:100BD00044F2506101984843009002E00098401EA2
:100BE000009000980028F9D10CBD1CB501211F20F0
:100BF00004F060FF4FF6FF70009001208DF80400B4
:100C000000208DF8060001208DF8070003208DF8E4
:100C1000050069467C4804F007FD4FF6FF70009020
:100C200001208DF8040000208DF8060001208DF8C9
:100C3000070003208DF805006946744804F0F4FCB1
:100C40004FF6FF70009001208DF8040000208DF811
:100C5000060001208DF8070003208DF80500694685
:100C60006B4804F0E1FC1CBD1CB501217E2004F0A2
:100C700021FFC020009000208DF8040001208DF895
:100C8000070002208DF805006946624804F0CCFC9C
:100C90000620009000208DF8040001208DF8070048
:100CA00002208DF805006946574804F0BDFC042079
:100CB000009000208DF8040001208DF8070002202C
:100CC0008DF805006946514804F0AEFC1CBD1FB507
:100CD0004FF4E06004F0CAFB36208DF800000020DD
:100CE0008DF801008DF8020001208DF803006846A0
:100CF00004F0C1FB0121102004F00FFF3220ADF8F9
:100D0000040040F2E73002900020ADF80C00ADF88E
:100D1000060001A9404805F04CFD01213E4806F0BF
:100D200011FA012211463C4806F0E4F900213A4844
:100D300005F088FD0121384805F0C4FD1FBD1FB531
:100D40004FF4E06004F092FB37208DF800000020A3
:100D50008DF801008DF8020001208DF8030068462F
:100D600004F089FB0121202004F0D7FE3220ADF8E9
:100D7000040040F2E73002900020ADF80C00ADF81E
:100D8000060001A9254805F014FD0121234806F0BD
:100D9000D9F901221146214806F0ACF900211F487B
:100DA00005F050FD01211D4805F08CFD1FBD00B56B
:100DB0008BB00121022004F0C1FE01210C2004F0BF
:100DC00079FE03220621114804F0B9FC0322072111
:100DD0000E4804F0B4FC032208210C4804F0AFFCD8
:100DE00003220921094804F0AAFC4FF47070069010
:100DF000022015E0000C0040780000207000002068
:100E0000000001406C000020000402400008024085
:100E1000000C02400000024000100040001400409E
:100E20008DF81C0003208DF81D0000208DF81E0099
:100E300001208DF81F0006A9FE4804F0F5FBA42050
:100E4000ADF8200040F6B83009904FF48070ADF84E
:100E500028000020ADF8220008A9F74805F0A9FCF9
:100E60006020ADF804000120ADF8060000200390DA
:100E7000ADF810000121F04805F024FD0021EE48F6
:100E800005F0E0FC01A9EC4805F028FD01A9EA48BD
:100E900005F05DFD01A9E84805F0A6FD01A9E648B9
:100EA00005F008FE0121E44806F0FDF80BB000BD96
:100EB00000B58BB00121082004F02FFE0121084667
:100EC00004F0F8FD02220021DC4804F038FC022284
:100ED0000121DA4804F033FC02221146D74804F01D
:100EE0002EFC02220321D54804F029FC0F20069095
:100EF00002208DF81C0003208DF81D0000208DF8C5
:100F00001E0001208DF81F0006A9CC4804F08CFBC0
:100F1000BA20ADF8200042F2107009900020ADF820
:100F20002800ADF8220008A9C54805F042FC602061
:100F3000ADF804000120ADF8060000200390ADF8E4
:100F400010000121BE4805F0BDFC0021BC4805F0A1
:100F500079FC01A9BA4805F0C1FC01A9B84805F01F
:100F6000F6FC01A9B64805F03FFD01A9B44805F01B
:100F7000A1FD0121B24806F096F80BB000BD00B506
:100F80008BB00121042004F0C8FD01210D2004F0E4
:100F900091FD02220C21AB4804F0D1FB02220D216D
:100FA000A84804F0CCFB02220E21A64804F0C7FB9F
:100FB00002220F21A34804F0C2FB4FF470400690B8
:100FC00002208DF81C0003208DF81D0000208DF8F4
:100FD0001E0001208DF81F0006A99A4804F024FB8A
:100FE000A420ADF8200040F6B83009904FF480708E
:100FF000ADF828000020ADF8220008A9924805F0BD
:10100000D8FB6020ADF804000120ADF806000020F8
:101010000390ADF8100001218B4805F053FC00212E
:10102000894805F00FFC01A9874805F057FC01A984
:10103000854805F08CFC01A9834805F0D5FC01A981
:10104000814805F037FD0BB000BD00B589B0012126
:10105000080404F073FD0121084604F02BFD03226F
:101060001146764804F06BFB03220221734804F01A
:1010700066FB0C20019002208DF8080003208DF8FB
:10108000090000208DF80A0001208DF80B0001A94D
:101090006A4804F0C9FA0020ADF818004FF6FF7056
:1010A00007900020ADF82000ADF81A0006A96748A7
:1010B00005F07FFB0420ADF80C000020ADF80E0019
:1010C000C820ADF814000120ADF8100003A95F4856
:1010D00005F046FF00231A4603215D4806F0DDF8BF
:1010E00001215B4806F02EF801221146584806F00F
:1010F00001F80121554805F0E5FB0021544805F0B1
:10110000A1FB09B000BD00B589B00121084604F07B
:1011100004FD0121022004F000FD0121032004F060
:10112000C9FC01220F21454804F009FB01220321DB
:10113000484804F004FB02220421464804F0FFFA68
:1011400002220521434804F0FAFA382001900220D7
:101150008DF8080003208DF8090000208DF80A00A2
:1011600001208DF80B0001A93A4804F05DFA4FF414
:101170000040019002208DF8080003208DF809003E
:1011800000208DF80A0001208DF80B0001A92B48E2
:1011900004F04AFA0020ADF818004FF6FF700790EF
:1011A0000020ADF82000ADF81A0006A94FF08040ED
:1011B00005F0FFFA06A9284805F0FBFA0420ADF86F
:1011C0000C000220ADF80E001420ADF81400012030
:1011D000ADF8100003A9800705F0C2FE03A91E4860
:1011E00005F0BEFE02231A460321580706F055F803
:1011F00002231A460321184806F04FF801218807F8
:1012000005F0A0FF0121144805F09CFF01221146C2
:10121000900705F06FFF012211460F4805F06AFFA5
:101220000121880705F04EFB01210B4805F04AFB20
:10123000002113E0000802400004014000000240C9
:10124000000C0040000C024000080040000001407B
:101250000040014000040240000400404FF0804084
:1012600005F0F0FA0021FE4805F0ECFA4FF4C060FA
:1012700004F0FCF81D208DF8000003208DF801001B
:1012800000208DF8020001208DF80300684604F06C
:10129000F2F81C208DF8000004208DF801000020D9
:1012A0008DF8020001208DF80300684604F0E3F891
:1012B00009B000BD00B589B00121084604F03EFC2C
:1012C0000121102004F0F6FB4FF420600190022071
:1012D0008DF8080003208DF8090000208DF80A0021
:1012E00001208DF80B0001A9DE4804F09DF90122D0
:1012F0000921DC4804F023FA01220B21D94804F02B
:101300001EFA0020ADF818004FF6FF70079000207D
:10131000ADF82000ADF81A0006A9D34805F049FA47
:101320000420ADF80C000020ADF80E000A20ADF846
:1013300014000120ADF8100003A9CB4805F010FE01
:1013400000231A460321C84805F0A7FF0121C6481B
:1013500005F0F8FE01221146C34805F0CBFE01213D
:10136000C14805F0EFFE01221146BF4805F0C2FE5C
:101370000121BD4805F0A6FA0021BB4805F062FA3C
:101380004FF4C06004F072F819208DF800000120BD
:101390008DF8010000208DF8020001208DF8030077
:1013A000684604F068F809B000BD00B589B00121B5
:1013B000042004F0B2FB0121082004F07BFB4FF471
:1013C0004050019002208DF8080003208DF809009C
:1013D00000208DF80A0001208DF80B0001A9A34818
:1013E00004F022F90020ADF818004FF6FF700790C6
:1013F0000020ADF82000ADF81A0006A99C4805F0C1
:10140000D8F902220C21994804F099F902220D2101
:10141000964804F094F90420ADF80C000220ADF8D1
:101420000E00C820ADF814000120ADF8100003A98B
:101430008F4805F095FD02231A4603218C4805F0DC
:101440002CFF01218A4805F07DFE012211468848C3
:1014500005F050FE0121864805F034FA0021844849
:1014600005F0F0F9002082491431088001208049FC
:1014700008804FF4C06003F0F9FF1E208DF80000D3
:1014800004208DF8010000208DF8020001208DF865
:101490000300684603F0EFFF09B000BD00B589B056
:1014A0000121082004F039FB0121084604F002FB69
:1014B0000320019002208DF8080003208DF8090018
:1014C00000208DF80A0001208DF80B0001A9694861
:1014D00004F0AAF80020ADF818004FF6FF7007904E
:1014E0000020ADF82000ADF81A0006A9624805F00A
:1014F00060F9022200215F4804F021F90222012153
:101500005C4804F01CF90420ADF80C000220ADF892
:101510000E00C820ADF814000120ADF8100003A99A
:10152000554805F01DFD02231A460321524805F0D7
:10153000B4FE0121504805F005FE012211464E4837
:1015400005F0D8FD01214C4805F0BCF900214A48BE
:1015500005F078F9002048491431088001204649F7
:1015600008804FF4C06003F081FF32208DF8000046
:1015700004208DF8010000208DF8020001208DF874
:101580000300684603F077FF09B000BD00B59BB0CB
:1015900001213A4804F08EFA0121080204F0CEFA43
:1015A00000200290364803903648049000200590B1
:1015B00008200690002007904FF4806008904000BB
:1015C000099080000A9040110B9040020C9000207E
:1015D0000D9001200E9000200F90109002A92A4833
:1015E00004F07AFE0121284804F0B0FE3C2000906F
:1015F00003208DF8040000208DF8070069461D487F
:1016000004F012F83C20009003208DF80400002024
:101610008DF8070069461D4804F006F80020119077
:1016200012901390149011A804F0BCFB4FF080703E
:10163000159001208DF858008DF859000020179062
:101640001890199008208DF8680015A90C484C389E
:1016500004F079FB00230122022109484C3817E0ED
:10166000000400400010024000000140000C024055
:101670000008004000000240000C0040050040004F
:101680004C2001401806002010640240000802406F
:1016900004F0DFFB002302220321FA4804F0D9FB07
:1016A000002303220421F74804F0D3FB0023042283
:1016B0000521F44804F0CDFB002305220C21F1485C
:1016C00004F0C7FB002306220D21EE4804F0C1FB05
:1016D000002307220E21EB4804F0BBFB0023082265
:1016E0000F21E84804F0B5FB0121E64804F05CFC5A
:1016F0000121E44804F04DFC0121E24804F069FBBB
:10170000E04804F002FC1BB000BD08B54FF4E060F7
:1017100003F0ACFE25208DF8000000208DF80100BC
:101720008DF8020001208DF80300684603F0A3FE47
:1017300008BD10B596B004460121102004F0FEF952
:101740000121084604F0B6F90121880504F0B2F938
:101750004FF4C060009002208DF8040000208DF846
:1017600006008DF8070002208DF805006946C6487E
:1017700003F05AFF07220921C34803F0E0FF0722C4
:101780000A21C14803F0DBFF02940020ADF80C00F1
:10179000ADF80E00ADF81000ADF814000C20ADF857
:1017A000120002A9B94805F0F7FD0121B74805F07C
:1017B0007BFE4FF4A06003F059FE3A208DF818002C
:1017C00000208DF819008DF81A0001208DF81B00FB
:1017D00006A803F050FEAE4804F0DCFC4FF00060B9
:1017E000079000200A90AB4809900A200B90A74868
:1017F000001D089000200C904FF480600D90002098
:101800000E900F904FF480701090400211900420C1
:1018100012900320139000201490159007A99C4863
:1018200004F05AFD01224021984805F0EAFE012209
:101830001021974804F017FE0121954804F086FD19
:1018400016B010BD10B596B004460121480504F04D
:1018500031F90121480404F060F90121082004F065
:1018600029F96020009002208DF8040000208DF8F6
:1018700006008DF8070002208DF8050069468648AD
:1018800003F0D2FE07220521834803F058FF072208
:101890000621814803F053FF02940020ADF80C00AC
:1018A000ADF80E00ADF81000ADF814000C20ADF846
:1018B000120002A9794805F06FFD0121774805F073
:1018C000F3FD4FF4A06003F0D1FD11208DF8180056
:1018D00000208DF819008DF81A0001208DF81B00EA
:1018E00006A803F0C8FD6E4804F054FC4FF00060F9
:1018F000079040200A906B48099050200B90674851
:10190000001D089000200C904FF480600D90002086
:101910000E900F904FF480701090400211900420B0
:1019200012900320139000201490159007A95C4892
:1019300004F0D2FC01228021584805F062FE012209
:101940008021564805F05DFE01221021544804F024
:101950008AFD0121524804F0F9FC16B010BD10B503
:1019600096B004460121880404F0D7F8012108202C
:1019700004F0A0F80121480504F09CF84FF44070F1
:10198000009002208DF8040000208DF806008DF8EC
:10199000070002208DF8050069463F4803F044FE29
:1019A000072208213C4803F0CAFE072209213A48D1
:1019B00003F0C5FE02940020ADF80C00ADF80E0057
:1019C000ADF81000ADF814000C20ADF8120002A91B
:1019D000354805F0E1FC0121334805F065FD4FF481
:1019E000A06003F043FD0C208DF8180000208DF856
:1019F00019008DF81A0001208DF81B0006A803F0CD
:101A00003AFD2748783804F0C5FB4FF00060079096
:101A100000200A902548099010200B902248001DB4
:101A2000089000200C904FF480600D9000200E90E4
:101A30000F904FF48070109040021190042012908B
:101A40000320139000201490159007A914487838AB
:101A500004F042FC01224021134805F0D2FD01228E
:101A60004021114805F0CDFD012210210C487838A5
:101A700004F0F9FC01210A48783804F067FC16B03C
:101A800010BD000000200140000002400010014095
:101A90004064024028060020000C02400044004040
:101AA000A0600240040000200048004064060020BE
:101AB00010B596B004460121C80404F02EF80121A7
:101AC000042003F0F7FF0121480503F0F3FF4FF472
:101AD0004060009002208DF8040000208DF8060080
:101AE0008DF8070002208DF805006946FE4803F0D6
:101AF0009BFD08220A21FC4803F021FE08220B214D
:101B0000F94803F01CFE02940020ADF80C00ADF87B
:101B10000E00ADF81000ADF814000C20ADF8120066
:101B200002A9F24805F038FC0121F04805F0BCFCA0
:101B30004FF4A06003F09AFC0D208DF818000220ED
:101B40008DF8190000208DF81A0001208DF81B0077
:101B500006A803F090FCE64804F01CFB4FF0006080
:101B6000079000200A90E348099004200B90DF487A
:101B7000001D089000200C904FF480600D90002014
:101B80000E900F9010904FF40030119000201290A2
:101B90000320139000201490159007A9D44804F056
:101BA0009BFB01224021D14805F02BFD0122102191
:101BB000CF4804F058FC0121CD4804F0C7FB16B013
:101BC00010BD0CB5002001900090CA480078022892
:101BD00012D1C84840780190C648C078C549897874
:101BE00040EA012000909DF80400C3490870BDF848
:101BF0000000C249088004E00420BF490870BF49C2
:101C000008800CBD10B596B004460121480503F0CC
:101C100051FF0121080503F080FF01210C2003F092
:101C200049FF0420009002208DF8040000208DF868
:101C300006008DF8070002208DF805006946B048BF
:101C400003F0F2FC4FF48050009002208DF8040065
:101C500000208DF806008DF8070002208DF80500A1
:101C60006946A14803F0E0FC08220221A44803F0E1
:101C700066FD08220C219C4803F061FD4FF4A06032
:101C800003F0F4FB2F208DF8180005208DF81900C3
:101C90008DF81A0001208DF81B0006A803F0EBFB5D
:101CA00002940020ADF80C00ADF80E00ADF8100065
:101CB000ADF814000C20ADF8120002A9914805F00F
:101CC0006BFB01218F4805F0EFFB8948783004F069
:101CD00061FA4FF00060079040200A908A4809900E
:101CE00096200B908748001D089000200C904FF420
:101CF00080600D9000200E900F9010904FF40030F7
:101D00001190002012900320139000201490159041
:101D100007A97748783004F0DFFA0122802179485A
:101D200005F06FFC012210217148783004F09BFB14
:101D300001216F48783004F009FB16B010BD10B5D2
:101D400096B004460121202003F0F8FE0121042072
:101D500003F0B0FE0121880503F0ACFEC020009026
:101D600002208DF8040000208DF806008DF8070091
:101D700003208DF8050069465B4803F055FC0822F6
:101D80000621594803F0DBFC08220721564803F0DE
:101D9000D6FC02940020ADF80C00ADF80E00ADF8B2
:101DA0001000ADF814000C20ADF8120002A957483D
:101DB00005F0F2FA0121554805F076FB4FF4A060DA
:101DC00003F054FB39208DF8180002208DF819001B
:101DD00000208DF81A0001208DF81B0006A803F0E2
:101DE0004AFB4B4804F0D6F94FF0206007900020E2
:101DF0000A904848099004200B904448001D089020
:101E000000200C904FF480600D9000200E900F90F9
:101E100010904FF400301190002012900320139086
:101E200000201490159007A9394804F055FA0122B2
:101E30004021364805F0E5FB01221021344804F02A
:101E400012FB0121324804F081FA16B010BD0CB526
:101E50000020019000902F480078022812D12D48D0
:101E6000407801902B48C0782A49897840EA0120BF
:101E700000909DF8040028490870BDF8000027492B
:101E8000088004E0042024490870244908800CBD1F
:101E900000B585B00121082003F00CFE0121880364
:101EA00003F04CFE00208DF8100001208DF8130087
:101EB0000C20039003A9124803F0B6FB0221032073
:101EC00005F038FC0420009000208DF8040010205C
:101ED0008DF8050001208DF80600684604F03CFBF3
:101EE00008208DF808001BE000080240004C00406C
:101EF000406002407301002077010020780100203B
:101F0000000C0240005000408205002000140140F7
:101F1000286402407A0100207E0100208001002018
:101F200000208DF809008DF80A0001208DF80B00C3
:101F300002A803F0A0FA05B000BD70B504460D4636
:101F4000012C0BD12946FE4805F0D9FA00BF4021EB
:101F5000FB4805F084FB0028F9D028E0032C0BD1C6
:101F60002946F84805F0CBFA00BF4021F54805F0B6
:101F700076FB0028F9D01AE0042C0BD12946F24850
:101F800005F0BDFA00BF4021EF4805F068FB0028CE
:101F9000F9D00CE0052C0AD12946EC4805F0AFFA3F
:101FA00000BF4021E94805F05AFB0028F9D070BD78
:101FB0000020E7494862E7490860E7490860E749C7
:101FC000086070470020E2494862E24908604FF02B
:101FD00080414862E2490860E2490860E2490860DD
:101FE000DD490860DD490860E0490860E0490860B3
:101FF000704700204FF080414862D949086070471F
:102000000020D8490860D8490860704710B5002002
:10201000D8490870002407E061210120FFF78DFFF7
:102020003220FEF7D1FD641C022CF5D30120D149EA
:1020300008707A20D049087010BD10B50020CF4933
:102040000870002407E061210320FFF776FF3220AB
:10205000FEF7BAFD641C022CF5D30120C7490870B5
:102060007A20C749087010BD2DE9F14FAEB0C5A068
:102070002D9000202C908DF888008DF860002E980F
:10208000122831D2DFE800F009313A41484F565F5B
:1020900068717A81888F969DA4FE0221C24803F060
:1020A00025FB88B100224FF40041C04803F03CFBFF
:1020B0004FF40041BD4803F026FB044600222146B0
:1020C000BBA0FEF7E1FA0FE00122D103B74803F00D
:1020D0002BFB4FF40041B54803F015FB04460022EA
:1020E0002146BBA0FEF7D0FA51E20122C048B0F968
:1020F00000004142BFA0FEF7C7FA48E20222BF48F3
:102100000168BFA0FEF7C0FA41E20322BF480168A0
:10211000BFA0FEF7B9FA3AE20422C1480168C1A0A3
:10212000FEF7B2FA33E20522C1480168C1A0FEF70A
:10213000ABFA2CE2FEF7E9FB044606222146C1A0D9
:10214000FEF7A2FA23E2FEF753FC044607222146DB
:10215000BFA0FEF799FA1AE2FEF793FC04460822A4
:102160002146BEA0FEF790FA11E2FEF7D4FC044629
:1021700009222146BCA0FEF787FA08E20A22BD48E0
:102180000168BDA0FEF780FA01E20B22BE4801788B
:10219000BEA0FEF779FAFAE10C22BF480188BFA081
:1021A000FEF772FAF3E10D22BE480178BEA0FEF7F9
:1021B0006BFAECE10E22BF480188BFA0FEF764FA7B
:1021C000E5E10F22BE480168BEA0FEF75DFADEE140
:1021D0000121C04803F08AFA4FF400511790734868
:1021E00003F084FA04460221BA4803F07FFA054658
:1021F0004FF480416D4803F079FA06460421B54852
:1022000003F074FA4FF400411690B24803F06EFAEE
:1022100007460821AF4803F069FA80464FF4804131
:10222000AC4803F063FA81461021AA4803F05EFA35
:102230004FF400511590A74803F058FA8246082140
:10224000A54803F053FA4FF480511490A14803F0CD
:102250004DFA10211390A04803F048FA4FF4806122
:1022600012909C4803F042FA83468021994803F07B
:102270003DFA4FF480711190964803F037FA1090B0
:10228000179800E020E0CDE90B65CDE90D401698E8
:10229000CDE90798CDE90970DDE913121598CDE96C
:1022A000042A03910690DDE91101CDE901B1009006
:1022B0008AA2282122A8109B07F080FC102222A9C4
:1022C0008FA0FEF734FA62E18021374803F01BFA51
:1022D00004460121344803F016FA054640213248ED
:1022E00003F011FA06464FF400417B4803F00BFA65
:1022F00007464FF48051834803F005FA80464FF4B7
:102300008061294803F0FFF981464FF400617D4860
:1023100003F0F9F94FF400611790234803F0F3F943
:1023200082464FF480616C4803F0EDF983464FF428
:1023300080511D4803F0E7F94FF400611690E3E087
:102340000010014000480040004C00400050004098
:10235000000001406C00002024080040880000209C
:10236000700000202404004074000020240C004071
:1023700078000020910000209000002093000020B1
:10238000920000203131313131313131313131314F
:10239000313131313131313131313031313131312E
:1023A00031313131000000000004024000080240D9
:1023B000524F424F5420322044414E47204348411F
:1023C000592053414E2058414E483A2020200000C9
:1023D000524F424F5420322044414E4720434841FF
:1023E000592053414E20444F3A2020200000000045
:1023F0008C000020494D553A00000000B00000203C
:1024000042545F4E414E475F48413A002803002046
:10241000204C55435F63687579656E203A00000073
:10242000140300204C75632042616E3A20000000C6
:102430009C0000204769615F7472695F6C617A6516
:1024400072200000454E434F4445525F3048200003
:10245000454E434F4445525F34482000454E434F5C
:102460004445525F38482000454E434F4445525F33
:1024700052522000AC00002042545F4E414E475F54
:102480004E4F4E473A000000770100206F6666739A
:1024900065745F32203A000078010020646973326D
:1024A0003A0000007E0100204F6666736574203A92
:1024B000000000008001002044697374633A00004A
:1024C00024030020466F7263655F747261636B3A28
:1024D0000000000000100240000C0240256425644A
:1024E00025642564256425642564256425642564A4
:1024F00025642564256425642564256400000000A6
:10250000493A000000000240F84803F0FCF84FF49C
:1025100000511590F64803F0F6F84FF480411490FE
:10252000F24803F0F0F84FF480411390F04803F0C4
:10253000EAF84FF480711290EE4803F0E4F84FF49B
:1025400000411190EA4803F0DEF8CDE90B76CDE9C1
:102550000D5410901798CDE907A0CDE9099814A85B
:1025600007C803ABA3E80708DDE911121398CDE90A
:1025700000120290AFF29C02282122A8109B07F0C3
:102580001DFB112222A9DCA0FEF7D1F800BF00BF7D
:102590002FB0BDE8F08F10B50121D94803F0D6FE69
:1025A00010BD01B5D74800680099884203DD0020BE
:1025B000D449086004E0D3480068401CD149086051
:1025C000D0480068FFF750FD08BD10B5FEF79DF933
:1025D000CD490860FEF70CFACC490860FEF751FAC5
:1025E000CB49086010BD2DE9F0412DED088B064662
:1025F0000F46304607F083F841EC190B9FEDC51BE1
:10260000B0EE490AF0EE690A07F05EFFB0EE408ACC
:10261000F0EE608A51EC180B07F082F80446002CAB
:1026200002DBA4F5E16401E004F5E164384607F05B
:1026300066F841EC1B0B9FEDB71BB0EE4B0AF0EEBA
:102640006B0A07F041FFB0EE409AF0EE609A304618
:1026500007F055F841EC1B0B9FEDAE1BB0EE4B0A9B
:10266000F0EE6B0A07F030FFB0EE40AAF0EE60AA81
:1026700053EC192B51EC1A0B06F05AFF41EC180BD6
:1026800007F04EF805462846211E01DB0A4600E009
:102690004A42002801DB034600E043429A4205DA41
:1026A00025464FF0FF309D49086003E03546012084
:1026B0009A4908602846BDEC088BBDE8F0810146C8
:1026C000FA2901DDFA2102E0032900DC0221C8B267
:1026D000704710B504460B4624B9914800789149DB
:1026E000C87116E0904890ED000AB5EEC00AF1EE10
:1026F00010FA07DD2046FFF7E2FF8A49C871012082
:10270000887106E06042FFF7DAFF8649C871002051
:10271000887123B9824800788249C87516E08348D9
:1027200090ED000AB5EEC00AF1EE10FA07DD18468A
:10273000FFF7C5FF7B49C8750020887506E0584241
:10274000FFF7BDFF7749C8750120887522B9744825
:1027500000787449C87316E0754890ED000AB5EE2C
:10276000C00AF1EE10FA07DD1046FFF7A8FF6D4929
:10277000C8730120887306E05042FFF7A0FF694943
:10278000C8730020887310BD6A4B18606A4B1960CB
:102790006A4B1A607047634AD071D075D073704726
:1027A0006048C079032809DA5E48C07D032805DA4D
:1027B0005C48C07B032801DA012070470020FCE759
:1027C00001205F49086070475E48006847F2305159
:1027D000884201D0012070470020FCE710B5FFF7C8
:1027E00015FC10BD5848B0F9000040427047B5EEE6
:1027F000C00AF1EE10FA09D25448D0ED000A70EE8A
:10280000600AFDEEE00A10EE900A70474F48D0EDE6
:10281000000A70EE200AFDEEE00A10EE900AF4E7DE
:1028200010B52DED0A8B044624B99FED490ABDEC85
:102830000A8B10BD002C25DA4648006806F05FFFC1
:1028400041EC190B204606F05AFF41EC1C0B9FEDA2
:10285000420B53EC102B06F071FE41EC1B0B9FED6D
:10286000400B53EC102B06F063FE41EC1A0B53ECBB
:10287000192B06F0D5FE41EC180B06F083FF00EE95
:10288000100AD4E73348006806F039FF41EC190B11
:10289000204606F034FF41EC1C0B9FED2F0B53EC50
:1028A000102B06F04BFE41EC1B0B9FED2D0B53EC58
:1028B000102B06F09CFD41EC1A0B53EC192B06F083
:1028C000AFFE41EC180B06F05DFF00EE100AAEE71C
:1028D000F0EE400AF5EEC00AF1EE10FA02DBB0EEBF
:1028E000600A7047B1EE600AFBE70000000C02408E
:1028F00000040240000002404F55543A000000001E
:10290000A0600240840000207403002078030020AF
:102910007C030020000000000020AC40700200207A
:10292000CC010020040000203402002038020020E6
:102930003C020020580200205C02002060020020BF
:10294000AC020020F80100208C0000208C01002047
:1029500000000000E401002000000000000004402E
:10296000000000000000E03F0146002901DB0846AE
:1029700070474842FCE70146FE48D0ED000AF1EE00
:10298000600AFD48D0ED001A80EEA11A00EE901A00
:10299000F8EEE01AF748D0ED000A41EE210AB0EE59
:1029A000600AFDEEC00A10EE900A7047F0EE401A81
:1029B0009FEDF22AB0EE420AF5EEC01AF1EE10FADF
:1029C00003D2B1EE612AF0EE421AF5EEC00AF1EE42
:1029D00010FA03D2B1EE602AF0EE420AB5EEC01A48
:1029E000F1EE10FA03D2B1EE412AB0EE421AF4EE43
:1029F000C01AF1EE10FA01DDB0EE610AF4EEC00A81
:102A0000F1EE10FA01DDB0EE600AB4EEC01AF1EE9C
:102A100010FA01DDB0EE410A7047D94800687047EE
:102A2000D8480068704710B52DED0A8BF0EE408A4B
:102A300018EE900A06F093FE41EC1C0B1FED4B1BA9
:102A4000B0EE4C0AF0EE6C0A07F03EFDB0EE40BA74
:102A5000F0EE60BA1FED510B53EC102B51EC1B0B39
:102A600006F0C5FC41EC1A0B1FED561BB0EE4A0AEE
:102A7000F0EE6A0A07F028FDB0EE409AF0EE609A98
:102A800051EC190B06F07EFE08EE100A9FEDBE0A0F
:102A9000B4EEC08AF1EE10FA06DD9FEDBC0AB4EE8A
:102AA000C08AF1EE10FA0BD3B5EEC08AF1EE10FA3F
:102AB0000ADB9FEDB70AB4EEC08AF1EE10FA03D834
:102AC0000120BDEC0A8B10BD9FEDB20AB4EEC08AA6
:102AD000F1EE10FA01D80220F3E79FEDAF0AB4EE51
:102AE000C08AF1EE10FA01D80320EAE70420E8E7F3
:102AF00010B52DED108B8AB0B0EE408AF0EE608AF2
:102B0000B0EE419AA54890ED000A28EE000ADFEDEC
:102B1000A40A80EE201A11EE104A204606F01FFE8D
:102B2000CDE908019DED080B07F0CAF9B0EE40FAB7
:102B3000F0EE60FA18EE900A06F011FE41EC1E0B62
:102B400053EC1F2B06F0FAFC41EC1C0B06F01AFEAE
:102B50000AEE900A19EE100A06F001FECDE9060110
:102B60008E4890ED000A28EE000ADFED8D0A80EE17
:102B7000201A11EE104A204606F0F1FD41EC1E0B22
:102B8000B0EE4E0AF0EE6E0A08F0E2FD8DED040B99
:102B900018EE900A06F0E3FD41EC1C0B9DED040BD2
:102BA00053EC102B06F0CAFC41EC1F0B9DED060BFD
:102BB00053EC102B06F01BFCCDE908019DED080B32
:102BC00051EC100B06F0DEFD0BEE100A9FED750ABE
:102BD00038EE400A7148D0ED000A20EE200ADFED01
:102BE000700A80EE201A11EE104A204606F0B7FD5A
:102BF000CDE908019DED080B07F062F9B0EE40FA4F
:102C0000F0EE60FA18EE900A06F0A9FD41EC1E0BFA
:102C100053EC1F2B06F092FC41EC1C0B06F0B2FDAE
:102C20000BEE900A19EE100A06F099FD41EC1F0B0D
:102C30009FED5C0A38EE400A5848D0ED000A20EEBD
:102C4000200ADFED570A80EE201A11EE104A2046C6
:102C500006F085FD41EC1E0BB0EE4E0AF0EE6E0A5A
:102C600008F076FD8DED040B18EE900A06F077FD66
:102C700041EC1C0B9DED040B53EC102B06F05EFC9D
:102C800053EC1F2BCDE906019DED060B51EC100B0B
:102C900006F0ADFBCDE908019DED080B51EC100BE2
:102CA00006F070FD0DEE100A9FED3F0A38EE400A67
:102CB0003A48D0ED000A20EE200ADFED390A80EE16
:102CC000201A11EE104A204606F049FD41EC1E0B79
:102CD000B0EE4E0AF0EE6E0A07F0F2F8B0EE40FAEF
:102CE000F0EE60FA18EE900A06F039FD41EC1C0B8C
:102CF00053EC1F2B06F022FCCDE908019DED080BDB
:102D000051EC100B06F03EFD09EE900A19EE100A88
:102D100006F025FD9FED240A38EE400ACDE90601B4
:102D20001E48D0ED000A20EE200ADFED1D0A80EEDD
:102D3000201A11EE104A204606F011FD41EC1E0B40
:102D4000B0EE4E0AF0EE6E0A08F002FDB0EE40CA98
:102D5000F0EE60CA18EE900A06F001FD41EC1F0B80
:102D600053EC1C2B06F0EAFBCDE904019DED060BAC
:102D70001CE00000C4010020C80100206F12833A4B
:102D8000E40100201402002000E0444500006145F9
:102D90000000E14300C0A84400A00C45D801002079
:102DA0000000E144000096440000164553EC102B4F
:102DB0009DED040B51EC100B06F019FBCDE9080159
:102DC0009DED080B51EC100B06F0DCFC0AEE100A2E
:102DD000F0EE6A0AB0EE4B0A06F048FF5FED100A0B
:102DE00020EE200AF848D0ED000A80EE201AF748BD
:102DF00080ED001AF6480168F44890ED000ABDEE37
:102E0000C00A10EE100AFFF7EEFB00EE100AB8EE53
:102E1000C00AEE4880ED000AEE4890ED000AB8EED8
:102E2000C00AED4880ED000AEA48006806F067FC39
:102E3000CDE906011BEE100A06F091FC41EC1E0BD9
:102E40009FEDE61BB0EE4E0AF0EE6E0A07F058FE5C
:102E5000B0EE40FAF0EE60FA1AEE900A06F07FFC4F
:102E600041EC1E0B9FEDDD1BB0EE4E0AF0EE6E0A3C
:102E700007F046FE8DED000B53EC1F2B9DED000B74
:102E800051EC100B06F0B3FACDE902019DED020BF7
:102E900008F0C2FCB0EE40CAF0EE60CA9FEDD10B64
:102EA00053EC102B51EC1C0B06F0BAFBCDE90401DE
:102EB0009DED060B53EC102B9DED040B51EC100B0C
:102EC00006F03CFBCDE908019DED080B51EC100B21
:102ED00006F058FCC5490860F0EE6B0AB0EE4D0AEA
:102EE00006F0C4FE5FED520A20EE200AB648D0ED8F
:102EF000000A80EE201ABE4880ED001ABD48016825
:102F0000BB4890ED000ABDEEC00A10EE100AFFF7B4
:102F10006AFB00EE100AB8EEC00AB54880ED000A60
:102F2000AC4890ED000AB8EEC00AB34880ED000A44
:102F3000A848006806F0E3FBCDE906011DEE100A83
:102F400006F00DFC41EC1E0B9FEDA41BB0EE4E0AEB
:102F5000F0EE6E0A07F0D4FD8DED020B1BEE900A29
:102F600006F0FDFB41EC1E0B9FED9C1BB0EE4E0AE4
:102F7000F0EE6E0A07F0C4FD8DED000B9DED020B27
:102F800053EC102B9DED000B51EC100B06F02FFABB
:102F900041EC1C0BB0EE4C0AF0EE6C0A08F03CFC65
:102FA000B0EE40FAF0EE60FA9FED8E0B53EC102B72
:102FB00051EC1F0B06F034FBCDE904019DED060B2F
:102FC00053EC102B9DED040B51EC100B06F0B6FAF0
:102FD000CDE908019DED080B51EC100B06F0D2FB7A
:102FE00086490860F0EE690AB0EE4A0A06F03EFE35
:102FF0005FED950A20EE200A7348D0ED000A80EEBE
:10300000201A7F4880ED001A7E4801687C4890EDC8
:10301000000ABDEEC00A10EE100AFFF7E4FA00EE57
:10302000100AB8EEC00A764880ED000A694890EDB3
:10303000000AB8EEC00A744880ED000A65480068CE
:1030400006F05DFB41EC1F0B1AEE100A06F087FB41
:1030500041EC1E0B9FED611BB0EE4E0AF0EE6E0AC6
:1030600007F04EFD8DED000B19EE900A06F077FB90
:1030700041EC1E0B9FED591BB0EE4E0AF0EE6E0AAE
:1030800007F03EFDB0EE40CAF0EE60CA9DED000BC9
:1030900053EC102B51EC1C0B06F0A9F9CDE9020101
:1030A0009DED020B08F0B8FB8DED040B9FED4D0B71
:1030B00053EC102B9DED040B51EC100B06F0B0FA05
:1030C00053EC1F2BCDE906019DED060B51EC100BC7
:1030D00006F034FACDE908019DED080B51EC100B18
:1030E00006F050FB494908601AEE100A06F037FB5B
:1030F00041EC1F0B9FED391BB0EE4F0AF0EE6F0A4B
:1031000007F0FEFC8DED080B19EE900A06F027FB88
:1031100041EC1F0B9FED311BB0EE4F0AF0EE6F0A32
:1031200007F0EEFC8DED060B9DED080B53EC102B1C
:103130009DED060B51EC100B06F059F941EC1C0B00
:10314000B0EE4C0AF0EE6C0A08F066FBB0EE40EA16
:10315000F0EE60EA51EC1E0B06F0E2FA2C49086032
:10316000264890ED000ABDEEC00A2A4880ED000A0C
:10317000294890ED000AB8EEC00AFFF754FC274931
:1031800008600AB0BDEC108B10BDF0EE400AB0EE46
:10319000600ABAEE0E1AF4EEC10AF1EE10FA04D289
:1031A000BAEE0E1AB0EE410A0DE0184890ED001A82
:1031B000F2EE0E1AB4EEE11AF1EE10FA03DDB2EE01
:1031C0000E1AB0EE410A7047D801002040020020DC
:1031D0007403002070020020340200200000000070
:1031E00000000040000000000000344028020020E1
:1031F0004402002078030020380200202C02002026
:10320000480200207C0300203C0200203002002005
:103210004C02002050020020F8010020540200203F
:10322000F848D0ED000AF5EEC00AF1EE10FA06DD1E
:10323000D0ED000A70EEC00AC0ED000A06E0F148C9
:10324000D0ED000A70EE800AC0ED000AED48D0ED26
:10325000000ABAEE0E1AF4EEC10AF1EE10FA04D228
:10326000FAEE0E0AC0ED000A0DE0E648D0ED000AC5
:10327000B2EE0E1AF4EEC10AF1EE10FA03DDF2EE30
:103280000E0AC0ED000A7047DE48D0ED000AF5EEE8
:10329000C00AF1EE10FA06DDD0ED000A70EE800AE9
:1032A000C0ED000A06E0D748D0ED000A70EEC00A73
:1032B000C0ED000AD348D0ED000ABAEE0E1AF4EEC3
:1032C000C10AF1EE10FA04D2FAEE0E0AC0ED000ABD
:1032D0000DE0CC48D0ED000AB2EE0E1AF4EEC10AB1
:1032E000F1EE10FA03DDF2EE0E0AC0ED000A7047AF
:1032F000C548D0ED000AF5EEC00AF1EE10FA06DD81
:10330000D0ED000A70EEC00AC0ED000A06E0BE482B
:10331000D0ED000A70EE800AC0ED000ABA48D0ED88
:10332000000ABAEE0E1AF4EEC10AF1EE10FA04D257
:10333000FAEE0E0AC0ED000A0DE0B348D0ED000A27
:10334000B2EE0E1AF4EEC10AF1EE10FA03DDF2EE5F
:103350000E0AC0ED000A7047AB48D0ED000AF5EE4A
:10336000C00AF1EE10FA06DDD0ED000A70EE800A18
:10337000C0ED000A06E0A448D0ED000A70EEC00AD5
:10338000C0ED000AA048D0ED000ABAEE0E1AF4EE25
:10339000C10AF1EE10FA04D2FAEE0E0AC0ED000AEC
:1033A0000DE09948D0ED000AB2EE0E1AF4EEC10A13
:1033B000F1EE10FA03DDF2EE0E0AC0ED000A7047DE
:1033C0009248D0ED000AF5EEC00AF1EE10FA06DDE3
:1033D000D0ED000A70EEC00AC0ED000A06E08B488E
:1033E000D0ED000A70EE800AC0ED000A8748D0EDEB
:1033F000000ABAEE0E1AF4EEC10AF1EE10FA04D287
:10340000FAEE0E0AC0ED000A0DE08048D0ED000A89
:10341000B2EE0E1AF4EEC10AF1EE10FA03DDF2EE8E
:103420000E0AC0ED000A70477848D0ED000AF5EEAC
:10343000C00AF1EE10FA06DDD0ED000A70EE800A47
:10344000C0ED000A06E07148D0ED000A70EEC00A37
:10345000C0ED000A6D48D0ED000ABAEE0E1AF4EE87
:10346000C10AF1EE10FA04D2FAEE0E0AC0ED000A1B
:103470000DE06648D0ED000AB2EE0E1AF4EEC10A75
:10348000F1EE10FA03DDF2EE0E0AC0ED000A70470D
:1034900010B52DED068BB0EE408A18EE100A06F03E
:1034A0005EF941EC1A0B9FED5A0B53EC102B06F012
:1034B00045F841EC190B06F065F908EE900A5648FC
:1034C000006847F2305188420FD1B2EE040A28EE6C
:1034D000000A524880ED000A90ED001ADFED500A14
:1034E0009FED4F0AFFF704FB24E04E4800684E4969
:1034F0000968401A48490968081A00EE100AB8EE2F
:10350000C00A4A4880ED000A494890ED000AF2EEF0
:10351000080A20EE200A414880ED000A90ED001ACA
:10352000444890ED000AF8EEC00A404890ED000AC9
:10353000FFF7DEFAB5EEC08AF1EE10FA3AD036485F
:10354000006847F23051884234D0334890ED000A89
:10355000B8EEC00AFFF767FA012806D002280DD09E
:10356000032814D0042824D11AE0B0EE680AFFF72B
:10357000BFFEB0EE680AFFF787FE1AE0B0EE680AF9
:10358000FFF752FFB0EE680AFFF7B2FE11E0B0EEAF
:10359000680AFFF7E1FEB0EE680AFFF741FE08E0B7
:1035A000B0EE680AFFF70CFFB0EE680AFFF76CFE9A
:1035B00000BF00BF134890ED001A1348D0ED000A79
:1035C000124890ED000AFFF7F1F91B48D0ED000A10
:1035D000F8EEE00A80EE801ABDEEC10A174880EDD1
:1035E000000A1748006815490968884203DD134836
:1035F000006813490860012012490860BDEC068B81
:1036000010BD0000300200202C0200202802002003
:103610007B14AE47E17AB43FF80100209402002009
:10362000000000001C020020040200208401002091
:103630000C020020E801002088010020EC0100209D
:10364000E4010020DC01002010B504460020FE4902
:103650000860FE480460FCB90020FD4908601FEDC9
:10366000100AFC4880ED000A47F23050FA49086021
:10367000FA4908601FED160AF94880ED000A00209B
:10368000F8490860F8490860F8490860F849086096
:103690001FED1D0AFFF7FCFE10BD10B5F04890EDC0
:1036A000000AB5EEC00AF1EE10FA05D1ED48006847
:1036B00010B9ED48006890B11FED270AE84880ED89
:1036C000000A0020E7490860E7490860E948006807
:1036D000E9490860E24890ED000AFFF7D9FE10BD05
:1036E000E648C0ED000AE64880ED000A704770B574
:1036F0002DED028B05460C46B0EE408AD648006898
:10370000A8420BD1D0480068A04207D1D14890ED23
:10371000000AB4EE480AF1EE10FA18D0CA48046064
:10372000CB48006810B90520C9490860D148006835
:10373000D1490860C74880ED008AC748056000206D
:10374000D0490860C64890ED000AFFF7A1FEBDEC25
:10375000028B70BD70B52DED028B0446B0EE408A31
:103760000D46C1480068A0420BD1BD4890ED000A4B
:10377000B4EE480AF1EE10FA03D1BA480068A84244
:1037800037D0B548006847F23051884222D1322004
:10379000AD4908600A20AE49086047F230508442C3
:1037A00018DA0120B1490860B5EEC08AF1EE10FACE
:1037B00003DDB0480068A04208DCB5EEC08AF1EE37
:1037C00010FA07D2AB480068A04203DAB1EE480A0B
:1037D000B0EE408AA4480460A2480560A04880ED8D
:1037E000008A0020A74908609D4890ED000AFFF775
:1037F0004FFEBDEC028B70BD10B52DED028BB0EE0F
:10380000408A04462146B0EE480A47F23050FFF79E
:10381000A1FFBDEC028B10BD70B504460D461FED37
:10382000800A29462046FFF762FF70BD10B52DEDD6
:10383000088BF0EE408A0446B0EE608AB0EE419A02
:10384000864890ED000AB8EEC00AB4EE680AF1EEC0
:1038500010FA0DD17C480068A04209D1824890ED51
:10386000000AB8EEC00AB4EE480AF1EE10FA5ED0D3
:10387000BDEEE80A794880ED000A7E4991ED000A24
:10388000B8EEC00A38EEC00ABDEEC00A10EE100A4B
:103890001FED9D0A2146FFF72AFF7648D0ED000A6A
:1038A000F8EEE00A78EE600AB0EE600AFFF710F872
:1038B000DFED750AB4EEE00AF1EE10FA14DD6D48A2
:1038C00090ED000AB8EEC00AB4EEC08AF1EE10FA2C
:1038D00002DDB0EE490A01E0B1EE490A10EE101A1D
:1038E000084605F03CFF13E0624890ED000AB8EE90
:1038F000C00A38EE400A10EE101A084605F02FFFF5
:1039000041EC1B0B9FED610B53EC102B05F016FEE9
:1039100041EC1A0B05F036FF09EE900A0021B0EEDB
:10392000690AFDEEC80A10EE900AFFF713FFBDEC1E
:10393000088B10BD10B54D48006801283DDD4A498F
:1039400009684C4A1268881AFFF70EF805280CDA45
:10395000464801680068401C444A1060B1F5FA7F8F
:103960002BDD0020FFF770FE10BD40480068FA28EC
:1039700008DD05203449086035490860FB203B49D3
:10398000086004E005203049086031490860394882
:10399000006835490968884205DDBFEE000A3048F5
:1039A00080ED000A04E0B7EE000A2D4880ED000A21
:1039B0002B4890ED000AFFF76BFD00BFD4E710B570
:1039C0002DED028B234890ED000AB5EEC00AF1EE12
:1039D00010FA08D11E48006828B12348006847F251
:1039E0003051884202DBBDEC028B10BD22490968D0
:1039F000204A1268881AFEF713FFB0EE408AFFF7DC
:103A000047FD00BFEFE700B518480068022815DA47
:103A10001FEDFD0A0F4880ED000A9FED1E0A1048B9
:103A200080ED000A00200F49086047F230500A4933
:103A300008600A49086000200B49086011480068C6
:103A4000401C1049086027E0E8010020F001002038
:103A5000E401002010020020F8010020FC010020F9
:103A60000C020020E00100200002002014020020CF
:103A7000AC0200201C02002004020020C40100202F
:103A8000C8010020F401002000004842FCA9F1D246
:103A90004D62403F00000000F9490968884204DA9D
:103AA000F8480068FEF777FE0EE0F5480068F64932
:103AB0000860F648006820B1F2480068FEF76BFE27
:103AC00002E00020FEF767FE00BDEF4A1268521CBC
:103AD000ED4B1A60824207DDED4A12680A44EC4B56
:103AE0001A600022E84B1A60704770B5FEF77AFE44
:103AF000E8490860FFF71EFFE7480068002821DD5D
:103B0000E3480068E4490968884229D0E048006831
:103B1000E149096888420EDADD480068DF49096832
:103B200088421DDADA480068FEF725FF04460121C5
:103B3000FFF7CBFF14E04FF0FF31D9480068FFF7E3
:103B4000C4FF0DE0D2480068002806DD4FF0FF31C9
:103B5000D4480068FFF7B9FF02E0FFF754FF70BDDB
:103B6000D1480068CB490968884205D0FFF727FF94
:103B7000C8480068CC490860CC480068E8B3C4482D
:103B8000D0ED000AF8EEE00AC94890ED001A60EEA8
:103B9000810AB0EE600AFEF72AFE0446BC48D0ED6A
:103BA000000AF8EEE00AC34890ED001A60EE810AC0
:103BB000B0EE600AFEF71BFE0546B548D0ED000AE0
:103BC000F8EEE00ABC4890ED001A60EE810AB0EE13
:103BD000600AFEF70CFE064622462946FEF779FDEE
:103BE000B64890ED000ABDEEC00A10EE102AB448A7
:103BF00090ED000ABDEEC00A00E00AE010EE101AD7
:103C0000B04890ED000ABDEEC00A10EE100AFEF7B3
:103C1000BBFD00BFA3E710B5AB48007800F0800003
:103C2000C8B1022004F062FFA748007800F08000CD
:103C300088B1A6480068401CA4490860084600688E
:103C4000022801DD0020086000BF9F48007800F0D6
:103C500080000028F9D19D480068012824D1012264
:103C600041029B4801F060FD40F6B83004F03EFF91
:103C7000012098490860984800685A2802DD5920B8
:103C80009649086095480078954981F82F0081F899
:103C90002B0081F82700002081F8260081F82A00F7
:103CA000012081F82E002CE088480068022828D1E5
:103CB0000122C101864801F037FD42F2107004F084
:103CC00015FF0020864981F82F0081F82B0081F82C
:103CD00027008049086000224FF400717C4801F001
:103CE00023FD41F2883004F001FF00224FF480717F
:103CF000774801F019FD0020794981F833007349B4
:103D0000086010BD10B57048C079002850D06E48CA
:103D1000007800F0800000284AD1012251026C484E
:103D200001F002FD01206B4908606B4800685A28C9
:103D300002DD5A206B4908606A480078684981F8BA
:103D40002F0081F82B0081F82700002081F8260041
:103D500081F82A00012081F82E0043F6982004F013
:103D6000C5FE012211025A4801F0DEFC42F2107039
:103D700004F0BCFE00205A4981F82F0081F82B0086
:103D800081F827005349086000224FF40071504821
:103D900001F0CAFC41F2883004F0A8FE00224FF482
:103DA00080714B4801F0C0FC00204D4981F8330080
:103DB00010BD10B54448C07928BB4348407800F096
:103DC000200000B3002048490860012047490860EE
:103DD00000204749086047480068474908600020BC
:103DE0003F4981F82F0081F82B0081F827004349D3
:103DF000086032203A4981F83300012251023448E8
:103E000001F092FC12E03E4801683A480068C01C8C
:103E100081420BDC3848006836490968884205D180
:103E20003148006810B901202A4908602648C07945
:103E300078B92548407800F0040050B13148006856
:103E40002D490860012028490860002021490860A8
:103E500015E02748006890B9274800682949096893
:103E600088420CD1274800680A38254909688842E9
:103E700005DA00201D49086001201D49086010BDB9
:103E8000D0010020CC010020F4010020AC02002071
:103E9000E40100201C020020E8010020EC010020C9
:103EA00024020020F001002020020020DC0100207C
:103EB000300200202C0200202802002048020020AE
:103EC0004402002040020020640600204403002039
:103ED00000080240300300202403002014030020C7
:103EE00004000020280300203C03002034030020AD
:103EF000380300203C010020380100204803002046
:103F0000B00000204001002010B5FE488079A8B123
:103F1000322004F0EBFDFB48807978B1FA48006864
:103F2000401CF949086008460068022801DD0020AD
:103F3000086000BFF34880790028FBD1F248006890
:103F4000012821D10221F14801F0D0FBE0B9002283
:103F50004FF40071EE4801F0E7FB41F2883004F0C5
:103F6000C5FD1720EB4981F82700DC2081F82B00E4
:103F7000172081F82F00002081F8260081F82A0000
:103F8000012081F82E005FE0DF48006802285BD145
:103F90000122C101DE4801F0C7FB41F2883004F084
:103FA000A5FD0020DB4981F82F0081F82B0081F866
:103FB000270000224FF48071D54801F0B5FB42F292
:103FC000107004F093FD3220D24981F833000A20AA
:103FD00081F82F0081F82B0081F82700012081F85B
:103FE000260081F82A00002081F82E00CA490860C6
:103FF00013E006E0FCF780FC00B108E0012004F0CB
:1040000075FD0221C14801F071FB0128F2D000BF0B
:10401000C1480068401CC0490860BF480068642867
:10402000E7DB40F6B83004F061FD01225102B848E8
:1040300001F07AFB0020B74981F82F0081F82B00AE
:1040400081F82700B049086010BD002100EE900AF9
:10405000F8EEE00A70EE600AFDEEE00A10EE901A4B
:10406000AE4A11607047704710B52DED068B0446BF
:104070009FEDAB0AB0EE408AB3EE030AF0EE408A41
:10408000B3EE0B0AC0EE280AB0EE60AAB0EE4A0A00
:1040900006F080FCDFEDA30A80EE201AF0EE419AD4
:1040A00000EE104AB8EEC00ADFED9F0A20EE200AAB
:1040B0009E48D0ED000A9FED9E1A01EE200A80ED89
:1040C000000A90ED000AB0EE409A69EE890AB0EE5F
:1040D000600A06F005F920EE280AB0EE408A9FED4E
:1040E000950AB4EEC08AF1EE10FA04DD9FED910A54
:1040F000B0EE408A0AE0B3EE040AB4EEC08AF1EEF4
:1041000010FA03D2B3EE040AB0EE408ABDEEC80A3C
:10411000894880ED000A006888490860BDEC068B7C
:1041200010BD10B52DED028B7648C07801EE100A57
:10413000B8EE411ADFED821A31EE611AF0EE410A53
:104140007048807801EE100AB8EE411ADFED7C1A53
:1041500031EE611AB0EE410A05F088FDF0EE408ABA
:104160007848D0ED000A9FED781A81EE200A20EE03
:10417000280AB0EE408AB5EEC08AF1EE10FA05D2F8
:104180009FED720A38EE000AB0EE408A5D48C078B2
:104190007E2807D15B4880787F2803D19FED6C0A89
:1041A000B0EE408A9FED680AB4EEC08AF1EE10FAD4
:1041B00006D8B2EE040A28EE000AB0EE408A09E002
:1041C0009FED620A38EE400AF2EE040A20EE200A61
:1041D000B0EE408A9FED5F0A38EE400A5E4880EDFF
:1041E000000ABDEC028B10BD10B54648407800F0C7
:1041F0008000002838D00A20464981F82F0081F835
:104200002B0081F82700012081F8260081F82A0080
:10421000002081F82E0000240FE006E0FCF76CFB84
:1042200000B108E0012004F061FC0221374801F0F0
:104230005DFA0128F2D000BF641C642CEDDB40F66F
:10424000B83004F053FC3220324981F833000020AA
:1042500081F82F0081F82B0081F8270001225102FC
:104260002B4801F061FA00BF10BD10B52548007859
:1042700000F00200C8B10020264981F82F0081F823
:104280002B0081F8270035490860224981F8330066
:1042900000224FF400711E4801F046FA0020304918
:1042A0000860194908602F49086010BD2E48016850
:1042B0000068401C2C4A1060642907D22B484089B2
:1042C0002B49096808442A4908600BE0284800681F
:1042D0006421B0FBF1F02749086000202249086002
:1042E00023490860244801680068401C224A106085
:1042F000642945D21D4800892049096808441F499E
:10430000086049E0640600204803002000100240D5
:104310000008024004000020E002002054030020B6
:104320000000000000007A44CDCCCC3D58030020B2
:104330006666663F00007A432803002024030020BD
:104340000000FF4204030020000034430000B44397
:1043500000409C460000E143CC00002050030020B8
:104360004C03002044030020840300201806002092
:1043700088030020980000208C0300209003002078
:10438000FC4800686421B0FBF1F0FB4908600020A4
:10439000FA490860F7490860F94801680068401C5C
:1043A000F74A1060642907D2F6488089F6490968FF
:1043B0000844F54908600BE0F34800686421B0FB4D
:1043C000F1F0F24908600020ED490860EE4908600C
:1043D000EF4801680068401CED4A1060782907D258
:1043E000E848C089EB4909680844EA4908600BE0DD
:1043F000E84800687821B0FBF1F0E7490860002048
:10440000E3490860E3490860E44801680068401C2B
:10441000E24A10600A2907D2DA48C088E0490968F0
:104420000844DF4908600BE0DD4800680A21B0FB62
:10443000F1F0DC4908600020D8490860D8490860DC
:10444000D94801680068401CD74A1060322907D259
:10445000CC484088D54909680844D44908600BE035
:10446000D24800683221B0FBF1F0D1490860002049
:10447000CD490860CD490860CE4801680068401CFD
:10448000CC4A1060322907D2BE480088CA49096860
:104490000844C94908600BE0C74800683221B0FBF6
:1044A000F1F0C64908600020C2490860C2490860AE
:1044B0007047C3480068C3490968884203DAC148A5
:1044C0000068BF490860BE480068BF490968884263
:1044D00003DDBD480068BA490860B8490968B84AB0
:1044E0001268881A002801DB014600E041420329D6
:1044F00028DDB2480068B2490968884204DD00201E
:10450000B24981F8220003E00120B04981F822007D
:10451000AA490968AA4A1268881A002801DB0146DC
:1045200000E041424900AA4A116010460068FE2896
:1045300002DDFE2011460860A5480078A34981F8F5
:10454000230003E00520A14981F82300A148006869
:1045500018B900209D4981F82300704710B59E4886
:10456000C079A0B19C48407800F0040078B194482C
:10457000006895490968884209DA91480068401C3A
:104580008F4908604FF4967004F0B0FA16E0924834
:10459000C07998B19048407800F0200070B1884808
:1045A000006888490968884208DD85480068401E1F
:1045B000834908604FF4C87004F098FA10BD73B5D1
:1045C0002DED028B14251FEDAA0AB0EE408A824819
:1045D0000079322805DB80480079C82801DC0120F9
:1045E00000E0002004467C48007800F00800A8B9EC
:1045F0007948007800F0100080B97748007800F022
:10460000200058B97448007800F0400030B92CB14F
:104610001920FFF719F8BDEC028B7CBD6E4840787D
:1046200000F0020030B19DF80C509FED6C0AB0EE26
:10463000408A05E09DF808509FED690AB0EE408A77
:104640006548007800F0080098B16348007800F0F1
:10465000100070B96048007800F0200048B95E484A
:10466000007800F0400020B929460020FFF7D4F878
:10467000EEE05948007800F00800A0B956480078EC
:1046800000F0100078B15448007800F0200050B9D4
:104690005148007800F0400028B929464FF4E16005
:1046A000FFF7BAF8D4E04C48007800F00800A0B951
:1046B0004948007800F0100078B94748007800F0C9
:1046C000200050B14448007800F0400028B9294645
:1046D0004FF46170FFF7A0F8BAE03F48007800F0AF
:1046E000080098B93C48007800F0100070B93A48CA
:1046F000007800F0200048B93748007800F040000A
:1047000020B129463748FFF787F8A1E03248007802
:1047100000F00800A0B13048007800F0100078B92F
:104720002D48007800F0200050B12B48007800F0B0
:10473000400028B929464FF4E170FFF76DF887E093
:104740002548007800F0080098B12348007800F070
:10475000100070B92048007800F0200048B91E48C9
:10476000007800F0400020B129461F48FFF754F8B8
:104770006EE03BE0900300209C0000208C030020B2
:10478000940300201806002098030020A4000020B5
:104790009C030020A0030020A0000020A403002010
:1047A000A8030020B4000020AC030020B0030020C8
:1047B000AC000020B4030020B8030020B0000020AB
:1047C000380100203C0100204001002004000020AE
:1047D0006003002034030020640600209A995940A9
:1047E0003333333F7CFCFFFF3EFEFFFFF948007888
:1047F00000F00800A0B9F748007800F0100078B188
:10480000F448007800F0200050B1F248007800F041
:10481000400028B9294640F24650FEF7FDFF17E058
:10482000EC48007800F0080090B9EA48007800F001
:10483000100068B1E748007800F0200040B9E54872
:10484000007800F0400018B12946E348FEF7E4FF85
:10485000E048007800F00800A8B9DE48007800F0D1
:10486000100080B9DB48007800F0200058B9D94822
:10487000007800F0400030B92CB1FDF7A5FF10B171
:104880001920FEF7E1FE14B1FEF707FF27E0D1483B
:10489000007932280EDAFDF797FF28B10020B1EE3B
:1048A000480AFEF7A9FF1AE00020B1EE480AFEF719
:1048B000A3FF14E0C7480079C8280EDDFDF784FF88
:1048C00028B10020B0EE480AFEF796FF07E000206E
:1048D000B0EE480AFEF790FF01E0FEF7DEFE00BFF3
:1048E00099E610B50120BD4988700421BC4800F04C
:1048F000FDFE012804D10220B849C870012010BD76
:104900006420B649C8700020F9E710B50421B44806
:1049100000F0ECFE01280BD1B248007840B96420C9
:10492000AE49C8700020B0490860B049086010BDA9
:10493000FBF7EBFF041E01DB204600E06042AC49C0
:104940000968884208DDA7480078012804D10220C0
:10495000A249C8700120EAE71E20A049C8700120C2
:10496000A04908700020E2E710B500209B49887438
:104970004FF400419A4800F0B9FE012804D102200A
:104980009649C874012010BD64209449C874002061
:10499000F9E710B54FF40041914800F0A7FE012857
:1049A0000BD19448007840B964208C49C874002029
:1049B000914908609149086010BDFCF719F8041E80
:1049C00001DB204600E060428D490968884208DD2D
:1049D00088480078012804D102208049C874012049
:1049E000EAE71E207D49C874012082490870002032
:1049F000E2E710B50020794988724FF48041784889
:104A000000F074FE012804D102207449C87201200C
:104A100010BD64207149C8720020F9E710B54FF449
:104A200080416F4800F062FE01280CD17548007883
:104A300048B964206949C87200204FF0804148623B
:104A40007149086010BDFCF71CF8041E01DB20460C
:104A500000E060426D490968884208DD69480078D5
:104A6000012804D102205D49C8720120EAE71E2016
:104A70005A49C8720120634908700020E2E710B566
:104A80002DED048BFBF741FF61490968441A002CA6
:104A900001DB204600E06042002839DDFBF735FFEE
:104AA0005B490968884203DD00204C49887002E0B8
:104AB00001204A498870FBF728FF55490968441AC4
:104AC000002C01DB214600E06142084604F017FE9D
:104AD00041EC190B9FED4F0B53EC102B04F02EFD06
:104AE00041EC180B04F01CFE4C49086008460068B5
:104AF000FA2801DDFA200860484800680A2802DA2E
:104B00000A2046490860454800783449C87002E0E8
:104B100002203249C870BDEC048B10BD10B52DEDDC
:104B2000048BFBF765FF3E490968441A002C01DB42
:104B3000204600E06042002839DDFBF759FF384984
:104B40000968884203DD01202449887402E00020BE
:104B500022498874FBF74CFF31490968441A002C3C
:104B600001DB214600E06142084604F0C8FD41EC4B
:104B7000190B9FED280B53EC102B04F0DFFC41ECDC
:104B8000180B04F0CDFD2549086008460068FA2896
:104B900001DDFA200860214800680A2802DA0A20AC
:104BA0001E4908601D4800780C49C87402E00220C4
:104BB0000A49C874BDEC048B10BD10B52DED048BF3
:104BC000FBF75FFF17490968441A002C2CDB2046CD
:104BD0002BE0000064060020BAFAFFFF040000206A
:104BE000001002405C0300202404004074000020F8
:104BF000680300205D030020240C004078000020A2
:104C00006C0300205F030020700000207003002070
:104C1000580200209A9999999999E93F60030020D8
:104C20005C020020600200206042002839DDFBF7B2
:104C300028FFFE490968884203DD0120FC4988728B
:104C400002E00020FA498872FBF71BFFF749096868
:104C5000441A002C01DB214600E06142084604F0C2
:104C60004EFD41EC190B1FED150B53EC102B04F00E
:104C700065FC41EC180B04F053FDEE490860084652
:104C80000068FA2801DDFA200860EA4800680A286E
:104C900002DA0A20E7490860E6480078E449C87269
:104CA00002E00220E249C872BDEC048B10BD70B571
:104CB0002DED108BF0EE408A04469FEDDF0AB0EE3A
:104CC00040FA9FEDDD0AB0EE408ADC48006804F04F
:104CD00046FD41EC1C0B9FEDDA0B53EC102B04F05E
:104CE0002DFC41EC1A0B00EE104AB8EEC00A38EE6B
:104CF000C00A10EE101A084604F031FD41EC1C0BFE
:104D00009FEDD10B53EC102B04F018FC41EC1B0B66
:104D100053EC1A2B04F06BFB41EC190B04F032FD41
:104D2000C6490860084690ED000A20EE000A10EE21
:104D3000101A084604F013FD41EC1A0BB0EE4A0AB3
:104D4000F0EE6A0A06F068FDB0EE409AF0EE609A66
:104D500051EC190B04F016FD0546284604F0FFFC43
:104D600041EC1C0B9FEDBA0B05F032FCB0EE40EAB3
:104D7000F0EE60EA9FEDB80B53EC102B51EC1E0BDC
:104D800004F04EFC41EC1D0B53EC1C2B04F0D6FB45
:104D900041EC1B0BB0EE4B0AF0EE6B0A05F0F4F899
:104DA000B0EE40AAF0EE60AA9FEDAD0B53EC102BD5
:104DB00051EC1A0B04F0C2FB41EC190B04F0E2FCBD
:104DC00008EE100A9FEDA80AB4EEC08AF1EE10FAC0
:104DD00004DD9FEDA50AB0EE408A0AE0B3EE040AB6
:104DE000B4EEC08AF1EE10FA03D2B3EE040AB0EECC
:104DF000408ABDEEC80A9D4880ED000A00689C49C3
:104E00000860BDEC108B70BD70B52DED108BF0EE11
:104E1000408A04469FED880AB0EE40FA9FED860A6C
:104E2000B0EE408A8548006804F099FC41EC1C0B08
:104E30009FED830B53EC102B04F080FB41EC1A0B1D
:104E400000EE104AB8EEC00A38EEC00A10EE101A92
:104E5000084604F084FC41EC1C0B9FED7B0B53ECEB
:104E6000102B04F06BFB41EC1B0B53EC1A2B04F0E2
:104E7000BEFA41EC190B04F085FC70490860084645
:104E800090ED000A20EE000A10EE101A084604F019
:104E900066FC41EC1A0BB0EE4A0AF0EE6A0A06F024
:104EA000BBFCB0EE409AF0EE609A51EC190B04F0A6
:104EB00069FC0546284604F052FC41EC1C0B9FEDB2
:104EC0006D0B05F085FBB0EE40EAF0EE60EA9FED79
:104ED000620B53EC102B51EC1E0B04F0A1FB41ECC8
:104EE0001D0B53EC1C2B04F029FB41EC1B0BB0EE0B
:104EF0004B0AF0EE6B0A05F047F8B0EE40AAF0EE70
:104F000060AA9FED570B53EC102B51EC1A0B04F0D9
:104F100015FB41EC190B04F035FC08EE100A9FED6F
:104F2000520AB4EEC08AF1EE10FA04DD9FED4E0A8B
:104F3000B0EE408A0AE0B3EE040AB4EEC08AF1EEA5
:104F400010FA03D2B3EE040AB0EE408ABDEEC80AEE
:104F5000464880ED000A006845490860BDEC108BAA
:104F600070BD09E01120FDF71CFB0121434802F050
:104F70009BFA0F2003F0BAFDF4E70CE0404800680C
:104F800010B9FFF796FA03E00520294981F82300BC
:104F9000032003F0ABFDF1E715E03A48007800F09C
:104FA000010020B143211E20FFF709FB02E0192078
:104FB000FEF74AFBFFF763FDFFF7B0FDFFF7FDFDCE
:104FC000032003F093FDE8E708E0FFF76FF9FDF732
:104FD000FCFAFEF78AFD042003F088FDF5E71FB513
:104FE000FBF703FEFBF740FEFCF78DF8FCF762F9D8
:104FF000FCF754FAFCF7D9F9FCF7C8FAFBF79FFE67
:105000004FF4E130FCF795FB4FF4E130FCF71AFC6C
:105010004FF4E130FCF7A3FC4FF4E130FCF748FD1E
:105020004FF46120FCF7EEFD2EE00000600200204E
:105030000400002060030020000000008003002026
:10504000CDCCCCCCCCCCEC3F9A9999999999B93FDD
:1050500000000020AFA1FC3F0000000000C069403C
:10506000000000000000334000007A431C030020D1
:1050700014030020000000604379FD3F0048004019
:1050800030030020640600204FF4E130FCF757FEA7
:10509000FDF7A4FB00204A490860FCF793FF0020BD
:1050A00000900190029003464FF4807245A1039056
:1050B000494803F0DCFA002000900190029003467A
:1050C0004FF4807245A10390494803F0D0FA0020C4
:1050D00000900190029003464FF4807245A1039026
:1050E000494803F0C4FA00204849086049E03FE01D
:1050F000FFF7BBF80221464800F0F8FA012809D171
:1051000044480078444991ED000AB8EEC00AFFF720
:105110007BFE08E03F4800783F4991ED000AB8EE79
:10512000C00AFFF7C4FD3D480068502809DC3C4830
:10513000407800F0400008B1FEF795FFFEF76BFDE8
:105140000AE03648006840F26631884204DB3448A1
:10515000807908B1FEF7D8FEFEF7D4FD314800880B
:10516000FEF782FFFEF757FDFEF723FEFFF73CF840
:105170002B48007800F001000028B9D10A20FEF782
:1051800063FAB4E71FB50020009001900290034637
:105190004FF4807224A10390264803F068FA00209F
:1051A00000900190029003464FF4807222A1039078
:1051B000244803F05CFA03F073FE002004B010BD35
:1051C000D00000207461736B526F626F74416E6126
:1051D0006C79746963730000C94F00087461736B64
:1051E000446965754B6869656E436F43617500007E
:1051F000994F00087461736B446965754B68696504
:105200006E436F43617531007B4F0008340300200B
:10521000000402407E0100209C000020B00000201D
:1052200064060020800100207461736B4D61696E1B
:1052300000000000DF4F00087461736B4779726FE4
:1052400000000000634F00080CB5002001900090A2
:105250007248006840F480307049086000BF6F48B1
:10526000006800F4003000900198401C0190009804
:1052700018B90198B0F5A06FF1D16848006800F442
:10528000003010B10120009001E000200090009853
:10529000012846D161484030006840F080505F49A5
:1052A000403108605E48006840F480405C49086016
:1052B0005A480830006859490831086008460068B3
:1052C00040F4004008600846006840F4A0500860C0
:1052D0005448091F0860081F006840F08070091FCB
:1052E000086000BF4D48006800F000700028F9D049
:1052F00040F205604C49086048480830006820F0DA
:1053000003004649083108600846006840F0020082
:10531000086000BF41480830006800F00C00082811
:10532000F8D10CBD10B53D48006840F001003B4984
:1053300008600020394908310860384800683B4956
:105340000840364908603A48091D0860081F00688F
:1053500020F48020091F0860002030490C310860CB
:10536000FFF772FF4FF000603249086010BD70B562
:1053700000200022022300240221284D08352D6838
:1053800005F00C0020B1042806D0082834D107E02D
:10539000294D2A4E356033E0294D284E35602FE0E7
:1053A0001E4D2D1D2D68C5F380541C4D2D1D2D68DF
:1053B00005F03F0154B1224DB5FBF1F5174E361DF6
:1053C0003668C6F3881605FB06F209E01A4DB5FBF0
:1053D000F1F5124E361D3668C6F3881605FB06F247
:1053E0000E4D2D1D2D68C5F301456D1C6B00B2FBE4
:1053F000F3F5124E356003E00F4D104E356000BFDF
:1054000000BF064D08352D68C5F303150D4E705DC0
:105410000A4D2D68C540094E356070BD0038024008
:105420000070004008544007003C0240FFFFF6FEB9
:105430001030002408ED00E00024F400BC0300203C
:1054400000127A00C0030020064880470648004743
:10545000FEE7FEE7FEE7FEE7FEE7FEE7FEE7FEE724
:10546000FEE7FEE7255300088901000832490143A1
:10547000324A1160704770B5002100230F22C478B2
:105480001CB32E4C246804F4E064C4F5E064C4F357
:105490000721C1F10404E3B20A4144789C40E1B21F
:1054A0008478144021430C07210E254C0578615562
:1054B000047804F01F050124AC4005786D11AD009F
:1054C00005F1E025C5F8004109E0047804F01F0566
:1054D0000124AC401B4D0678761145F8264070BD7E
:1054E000194A0A400243154B1B1F1A60704739B115
:1054F000124A121D12680243104B1B1D1A6006E06F
:105500000E4A121D126882430C4B1B1D1A60704715
:10551000042808D14FF0E021096941F004014FF05F
:10552000E022116107E04FF0E021096921F0040158
:105530004FF0E022116170470000FA050CED00E029
:1055400000E400E080E100E080FFFF1F10B50446AA
:105550008C48844208D10121084600F000FB00215C
:10556000012000F0FCFA5EE08748844208D1012166
:10557000022000F0F4FA0021022000F0F0FA52E0DC
:105580008248844208D10121042000F0E8FA002179
:10559000042000F0E4FA46E07D48844208D101216D
:1055A000082000F0DCFA0021082000F0D8FA3AE0E8
:1055B0007848844208D10121102000F0D0FA00215F
:1055C000102000F0CCFA2EE07348844208D101216B
:1055D000202000F0C4FA0021202000F0C0FA22E0D0
:1055E0006E48844208D10121402000F0B8FA002121
:1055F000402000F0B4FA16E06948844208D1012145
:10560000802000F0ACFA0021802000F0A8FA0AE027
:105610006448844207D10121801500F0A0FA0021DE
:10562000A01500F09CFA10BDF0B50A460021002339
:10563000002400BF3DE0012505FA01F3156805EAE5
:1056400003049C4234D105684F000326BE40B54395
:10565000056015794E00B54006683543056015793B
:10566000012D02D01579022D16D185684F00032631
:10567000BE40B543856055794E00B54086683543D8
:105680008560456801268E40B5434560456896793A
:105690008E40B6B235434560C5684F000326BE4014
:1056A000B543C560D5794E00B540C6683543C56081
:1056B000491C1029BFD3F0BD4FF6FF7101600021D6
:1056C000017141718171C171704708B54FF4803229
:1056D0000092009A0A430092009AC261C161009A46
:1056E000C261C2690092C269009208BD02460020F0
:1056F00013690B400BB1012000E000207047014608
:10570000086980B270470246002053690B400BB114
:10571000012000E0002070470146486980B27047D0
:1057200001837047418370470AB1018300E04183E0
:1057300070474161704742694A4042617047F0B525
:10574000002300244D07ED0E02FA05F3CE1000F100
:10575000200555F826504E07F70E0F26BE40B543DC
:10576000CF1000F1200646F82750CE1000F120059A
:1057700055F8265045EA0304CE1000F1200545F8FF
:105780002640F0BD00000240000402400008024034
:10579000000C0240001002400014024000180240B9
:1057A000001C024000200240FA48006840F001005E
:1057B000F84908600020F74908310860F54800689A
:1057C000F5490840F3490860F448091D0860081FBE
:1057D000006820F48020091F08600020ED490C318A
:1057E000086070470021EB4A921C11701146087046
:1057F000704710B501460022002300204A11012AFB
:1058000002D1E44C236808E0022A03D1E14C703451
:10581000236802E0DF4C7434236801F01F02012486
:1058200094401C400CB1012000E0002010BD38B5B0
:10583000002000900024002500BF3120FFF7D9FF91
:1058400005460098401C00900098B0F5A06F01D06C
:10585000002DF2D03120FFF7CCFF08B1012400E089
:105860000024204638BD01460020CA4A106820F0B6
:10587000F80040EAC10010607047C94908607047ED
:105880000021C44A703211701170012802D004281E
:105890000AD104E00121BF4A7032117005E00521F0
:1058A000BC4A7032117000E000BF00BF7047BD49B4
:1058B0000860704770B5049C41EA82150126C6EB6A
:1058C000530645EA0645054345EA0465B14E361DD3
:1058D000356070BDB24908667047820142EA0172C4
:1058E000AC4B84331A607047AD4988667047AC4949
:1058F000C864704702460020A64B0833186820F0A1
:10590000EC6042EA01031843A24B08331860704769
:10591000024600209F4B0833186820F0784042EA86
:10592000010318439B4B0833186070470146002061
:10593000984A0832106820F003000843106070474E
:1059400094480830006800F00C00704701460020C1
:10595000904A0832106820F0F00008431060704749
:10596000014600208B4A0832106820F4E0500843BA
:105970001060704701460020864A0832106820F403
:10598000604040EAC10010607047F0B5002100227D
:1059900000240225002602237E4F08373F6807F0C7
:1059A0000C0121B1042905D0082937D105E07E4F2B
:1059B000076036E07D4F076033E0764F3F1D3F685C
:1059C000C7F38056734F3F1D3F6807F03F036EB12A
:1059D000764FB7FBF3F7DFF8BCC10CF1040CDCF831
:1059E00000C0CCF3881C07FB0CF40CE06E4FB7FB37
:1059F000F3F7DFF8A0C10CF1040CDCF800C0CCF325
:105A0000881C07FB0CF4634F3F1D3F68C7F3014739
:105A10007F1C7D00B4FBF5F7076002E0624F076072
:105A200000BF00BF5B4F08373F6807F0F00109096E
:105A30005F4F7A5C0768D7404760564F08373F682A
:105A400007F4E051890A5A4F7A5C4768D74087606B
:105A5000504F08373F6807F46041490B544F7A5C58
:105A60004768D740C760F0BD002100F44072B2F52E
:105A7000407F0AD1474A0832116821F4F8114D4A93
:105A800002401143434A08321160424A70321268A0
:105A9000C0F30B031A433F4B70331A607047414900
:105AA0004439086070473F494039086070474249AF
:105AB0000860704739B1374A303212680243354BBB
:105AC00030331A6006E0334A303212688243314B79
:105AD00030331A60704739B12E4A343212680243AB
