:020000040800F2
:10000000C0320020055C0008490200084B020008CD
:100010004F020008530200085702000800000000C9
:10002000000000000000000000000000A101000826
:100030005B02000800000000E50100081F8C0008BA
:100040001F5C00081F5C00081F5C00081F5C0008A4
:100050001F5C00081F5C00081F5C00081F5C000894
:1000600061040008A50400081F5C000805030008DF
:10007000E7020008430300081F5C0008790200083B
:100080001F5C0008850200081F5C00081F5C000858
:100090001F5C00081F5C00081F5C00081F5C000854
:1000A0001F5C00087F0300081F5C00081F5C00083D
:1000B000AB030008D9030008050400081F5C000812
:1000C0001F5C00081F5C00081F5C00085D0400083E
:1000D0001F5C0008610200081F5C00081F5C00082C
:1000E0001F5C00081F5C00081F5C00081F5C000804
:1000F0001F5C00081F5C00081F5C00081F0300084D
:100100001F5C00081F5C0008310400085F04000841
:100110001F5C00081F5C0008510300085D03000815
:100120001F5C00089F020008B90200081F5C00085D
:100130001F5C00081F5C00081F5C00081F5C0008B3
:100140001F5C00081F5C00081F5C00081F5C0008A3
:10015000D90200081F5C00081F5C00081F5C000833
:100160001F5C00081F5C00081F5C00081F5C000883
:100170001F5C00081F5C00081F5C00081F5C000873
:100180001F5C00081F5C0008DFF810D00AF058F868
:1001900000480047A5590008AFF30080C032002096
:1001A000234B19680868B0E8F04F80F309884FF0D6
:1001B000000080F3118870470000000003480068C9
:1001C000006880F3088862B600DF00BF08ED00E039
:1001D000DFF80C00016841F470010160704700BF56
:1001E00088ED00E0EFF30980114B1A681EF0100F44
:1001F00008BF20ED108A20E9F04F106008B54FF0DD
:10020000140080F3118809F0D2F84FF0000080F359
:100210001188BDE8084019680868B0E8F04F1EF082
:10022000100F08BFB0EC108A80F30988704700BF38
:10023000F4020020EFF311804FF0140181F31188D4
:10024000704780F311887047704700BFFEE700BF1A
:10025000FEE700BFFEE700BFFEE77047704770474C
:1002600010B540F22551904807F0EDFD18B120215E
:100270008D4807F0DFFD10BD10B58C498C4806F0A5
:1002800017FD10BD10B58B498948303006F0E6FCEB
:1002900020B188498648303006F00AFD10BD10B5FF
:1002A0008549864806F0DAFC28B18349834806F080
:1002B000FFFC01F027FD10BD10B581497F481830C3
:1002C00006F0F6FC7F4840787E49097840EA012034
:1002D00000B27D49088010BD10B57C497748603078
:1002E00006F0E6FC10BD10B573497148483806F0B9
:1002F000B5FC30B170496E48483806F0D9FC00F0C2
:100300009FFA10BD10B572496948603806F0A6FC26
:1003100020B16F496648603806F0CAFC10BD10B5C0
:100320006C496348483006F099FC48B100216048A8
:10033000483006F0E9FB67495D48483006F0B8FCF4
:1003400010BD10B559495A48303806F0B1FC10BDFF
:1003500010B50121604807F0D3FA10BD10B5012196
:100360005E4807F0CDFA7A204F49888001215C4829
:1003700007F078FC01215B4807F074FC10BD10B554
:100380000121594807F0BCFA5748008800F01000D6
:1003900028B156480068401E5449086004E053489C
:1003A0000068401C5149086010BD10B50121880744
:1003B00007F0A6FA4FF08040008800F0100028B146
:1003C0004B480068401E4A49086004E048480068FD
:1003D000401C4749086010BD10B50121454807F091
:1003E0008FFA4448008800F0100028B142480068A5
:1003F000401E4149086004E03F480068401C3E49F7
:10040000086010BD10B501213C4807F079FA3B485F
:10041000008800F0100028B139480068401E3849B3
:10042000086004E036480068401C3549086010BD8B
:1004300010B50121334807F063FA3248008800F014
:10044000100028B130480068401E2F49086004E0C1
:100450002D480068401C2C49086010BD704770474B
:1004600010B5042006F0BCFCD8B12021274805F0C7
:1004700040FD0421264805F017FD012804D1002184
:10048000164806F0BDFD09E00421214805F00CFDE9
:1004900020B9124806F0B8FD1E49086004201E4924
:1004A000086010BD7047000000100140208000204F
:1004B0007060024000802020008800102864024004
:1004C000008020101005002064000020008800201B
:1004D0002080001000800028001000400014004020
:1004E000004800400014014000000140440000208A
:1004F00048000020000400404C000020000800409C
:1005000060000020000C004050000020000002406D
:10051000000C024040000020143C014070B504462D
:10052000204609F02DFB05462146F74809F02FFB30
:10053000A0B195222146F44809F016FB0021F348AA
:1005400006F0E2FAF048F1490C310860EF48B8389B
:10055000C0F8BC500121ED4806F0D6FA70BD70B568
:100560000446002510E0605D68B1615DE84807F071
:10057000A4FB00BF8021E64807F04FFC0028F9D01B
:10058000681CC5B200E070BDEDE770B504460025FB
:100590000FE05CB12146DE4807F08FFB00BF8021F1
:1005A000DB4807F03AFC0028F9D000E070BD681C79
:1005B000C5B2032DEDDB00BFF8E713B50C460020F4
:1005C000FFF7E3FFD3A0FFF7CAFF2346D2A296218D
:1005D000D24809F08FFED148FFF7C1FFD0A0FFF746
:1005E000BEFFCDA29621CD48009B09F083FECB48EB
:1005F000FFF7B5FFCCA0FFF7B2FFFF20FFF7C5FF65
:10060000FF20FFF7C2FFFF20FFF7BFFF1CBD70B543
:1006100005460C46BFA0FFF7A2FF2246BEA1BF4879
:1006200009F082FEBD48FFF79AFFBDA0FFF797FFD4
:100630002846FFF794FFBCA0FFF791FFFF20FFF7CC
:10064000A4FF70BD77B585B00546FF26B4A103C9E8
:10065000CDE90301B4A000680290AEA0006801904B
:1006600000240AE00020B1490855B1490855AB49BA
:100670000855A5490855601CC4B21E2CF2DB0A209F
:10068000A6490870FF2048708870C870A2A1A848C9
:10069000079A09F049FEA64901A809F059FA01A9EB
:1006A0009E4809F055FA03A99C4809F051FA2946D9
:1006B0009A4809F04DFA98A19D48069A09F034FE2F
:1006C0009B49964809F044FA02A9944809F040FA77
:1006D000FF209649087048708870904809F038FAF1
:1006E0008E48FFF71BFF08B070BDF7B584B0054614
:1006F0000E46FF278AA103C9CDE902018AA000683E
:10070000019084A000680090002408E00020874940
:1007100008558749085581490855601CC4B20A2C00
:10072000F4DB0A207D490870FF2048708870C8708B
:1007300079A17F48069A09F0F7FD7D49684609F0DE
:1007400007FA6946754809F003FA02A9734809F0E7
:10075000FFF92946714809F0FBF931466F4809F065
:10076000F7F901A96D4809F0F3F9FF206F49087006
:10077000487088700020C8700871684809F0E8F96E
:100780006648FFF7CBFE07B0F0BD01B58EB069A299
:10079000322101A80E9B09F0ADFD01A8FFF7BEFEB6
:1007A0000FB000BD73B584B00546FF265CA103C938
:1007B000CDE902015CA00068019056A0006800909D
:1007C00000240AE000205949085559490855534961
:1007D00008554D490855601CC4B21E2CF2DB0A2096
:1007E0004E490870FF2048708870C8704AA1504870
:1007F000059A09F099FD4E49684609F0A9F969463C
:10080000464809F0A5F902A9444809F0A1F929468A
:10081000424809F09DF94649404809F099F901A973
:100820003E4809F095F9FF204049087048708870EB
:100830003A4809F08DF93948FFF770FE06B070BDEF
:100840001CB53F4800783E49497808443C498978BE
:1008500008443B49C978084439490979084438496A
:10086000497908443649897908443549C9790844A1
:100870003349097A0844C0B201903148007A00F047
:100880000F0000909DF800000D2803D000212D4896
:1008900007F0E8F91CBD2A48007A00F00F000D2887
:1008A00006D12748007800F0010008B10D207047FC
:1008B0000020FCE72248007800F0020008B1012087
:1008C00070470020FCE71CB51F4806F09DFB1F4940
:1008D000096840EA01400A2190FBF1F000900024F1
:1008E0003CE0194806F090FB1849096840EA0140CD
:1008F0000A2190FBF1F00190DDE90021881A00281F
:1009000026DB014625E000006A040020B8600240B2
:1009100000500040740000002564000034030020F3
:100920002E7478743D220000220000001A0400207A
:10093000F20300206A302E76616C3D2564000000D1
:100940004C05002000480040000001404400002009
:100950004142052900DA641C01980090022CC0DB9A
:1009600001981CBD1CB54FF0804006F04DFBF849C6
:10097000096840EA01400A2190FBF1F00090002450
:1009800018E04FF0804006F03FFBF149096840EA6B
:1009900001400A2190FBF1F00190DDE90021881A65
:1009A000002801DB014600E04142322900DA641CE4
:1009B00001980090022CE4DB01984100002901DB42
:1009C00008461CBD4842FCE71CB5E24806F01CFB8B
:1009D000E149096840EA0140642190FBF1F0009090
:1009E000002417E0DB4806F00FFBDB49096840EA0A
:1009F0000140642190FBF1F00190DDE90021881AAB
:100A0000002801DB014600E04142322900DA641C83
:100A100001980090022CE5DB01981CBD70471CB5C5
:100A2000CE4806F0F1FACE49096840EA0140642157
:100A300090FBF1F00090002417E0C84806F0E4FABB
:100A4000C749096840EA0140642190FBF1F0019038
:100A5000DDE90021881A002801DB014600E041425F
:100A6000322900DA641C01980090022CE5DB019821
:100A70001CBD01B581B000200090019800EBC000C2
:100A80004000009002E00098401E0090009800286E
:100A9000F9D10CBD01B581B00020009044F2506145
:100AA00001984843009002E00098401E0090009892
:100AB0000028F9D10CBD1CB501211F2005F0D8FB81
:100AC0004FF6FF70009001208DF8040000208DF893
:100AD000060001208DF8070003208DF80500694607
:100AE000A04805F07FF94FF6FF70009001208DF8C7
:100AF000040000208DF8060001208DF80700032077
:100B00008DF805006946984805F06CF94FF6FF70BE
:100B1000009001208DF8040000208DF806000120CF
:100B20008DF8070003208DF8050069468F4805F011
:100B300059F91CBD1CB501217E2005F099FBC02090
:100B4000009000208DF8040001208DF8070002209D
:100B50008DF805006946864805F044F906200090A6
:100B600000208DF8040001208DF8070002208DF888
:100B7000050069467B4805F035F904200090002007
:100B80008DF8040001208DF8070002208DF8050083
:100B90006946754805F026F91CBD1FB54FF4E060A5
:100BA00005F042F836208DF8000000208DF8010095
:100BB0008DF8020001208DF80300684605F039F831
:100BC0000121102005F087FB3220ADF8040040F22F
:100BD000E73002900020ADF80C00ADF8060001A946
:100BE000644806F0C4F90121624806F089FE01223A
:100BF0001146604806F05CFE00215E4806F000FAEF
:100C000001215C4806F03CFA1FBD1FB54FF4E060BF
:100C100005F00AF837208DF8000000208DF801005B
:100C20008DF8020001208DF80300684605F001F8F8
:100C30000121202005F04FFB3220ADF8040040F2E6
:100C4000E73002900020ADF80C00ADF8060001A9D5
:100C5000494806F08CF90121474806F051FE01226F
:100C60001146454806F024FE0021434806F0C8F925
:100C70000121414806F004FA1FBD00B58BB00121E7
:100C8000022005F039FB01210C2005F0F1FA0322C6
:100C90000621354805F031F903220721324805F0D5
:100CA0002CF903220821304805F027F903220921F5
:100CB0002D4805F022F94FF47070069002208DF84F
:100CC0001C0003208DF81D0000208DF81E0001205F
:100CD0008DF81F0006A9244805F084F8A420ADF87B
:100CE000200040F6B83009904FF48070ADF828002D
:100CF0000020ADF8220008A9204806F038F960204D
:100D0000ADF804000120ADF8060000200390ADF816
:100D100010000121194806F0B3F90021174806F028
:100D20006FF901A9154806F0B7F901A9134806F0B3
:100D3000ECF901A9114806F035FA01A90F4806F0AF
:100D400097FA01210D4806F08CFD0BB000BD0000A4
:100D5000480000200008004060000020000400401F
:100D60004C0000200004024000080240000C024039
:100D70000000024000100040001400400004014048
:100D800000B58BB00121082005F0A5FA0121084625
:100D900005F06EFA02220021FE4805F0AEF80222AC
:100DA0000121FC4805F0A9F802221146F94805F096
:100DB000A4F802220321F74805F09FF80F200690BF
:100DC00002208DF81C0003208DF81D0000208DF8F6
:100DD0001E0001208DF81F0006A9EE4805F002F85C
:100DE000BA20ADF8200042F2107009900020ADF852
:100DF0002800ADF8220008A9E74806F0B8F86020FE
:100E0000ADF804000120ADF8060000200390ADF815
:100E100010000121E04806F033F90021DE4806F019
:100E2000EFF801A9DC4806F037F901A9DA4806F025
:100E30006CF901A9D84806F0B5F901A9D64806F021
:100E400017FA0121D44806F00CFD0BB000BD00B527
:100E50008BB00121042005F03EFA01210D2005F0A0
:100E600007FA02220C21CD4805F047F802220D2195
:100E7000CA4805F042F802220E21C84805F03DF8A4
:100E800002220F21C54805F038F84FF47040069053
:100E900002208DF81C0003208DF81D0000208DF825
:100EA0001E0001208DF81F0006A9BC4804F09AFF1F
:100EB000A420ADF8200040F6B83009904FF48070BF
:100EC000ADF828000020ADF8220008A9B44806F0CB
:100ED0004EF86020ADF804000120ADF806000020B7
:100EE0000390ADF810000121AD4806F0C9F80021CB
:100EF000AB4806F085F801A9A94806F0CDF801A98C
:100F0000A74806F002F901A9A54806F04BF901A986
:100F1000A34806F0ADF90BB000BD00B589B00121C2
:100F2000080405F0E9F90121084605F0A1F90322BA
:100F30001146984804F0E1FF03220221954804F08D
:100F4000DCFF0C20019002208DF8080003208DF8B2
:100F5000090000208DF80A0001208DF80B0001A97E
:100F60008C4804F03FFF0020ADF818004FF6FF70EA
:100F700007900020ADF82000ADF81A0006A98948B6
:100F800005F0F5FF0420ADF80C000020ADF80E00D0
:100F9000C820ADF814000120ADF8100003A9814865
:100FA00006F0BCFB00231A4603217F4806F053FDE0
:100FB00001217D4806F0A4FC012211467A4806F082
:100FC00077FC0121774806F05BF80021764806F0AF
:100FD00017F809B000BD00B589B00121084605F039
:100FE0007AF90121022005F076F90121032005F0AC
:100FF0003FF901220F21674804F07FFF01220321FE
:101000006A4804F07AFF02220421684804F075FF60
:1010100002220521654804F070FF3820019002206B
:101020008DF8080003208DF8090000208DF80A00D3
:1010300001208DF80B0001A95C4804F0D3FE4FF4A9
:101040000040019002208DF8080003208DF809006F
:1010500000208DF80A0001208DF80B0001A94D48F1
:1010600004F0C0FE0020ADF818004FF6FF700790A6
:101070000020ADF82000ADF81A0006A94FF080401E
:1010800005F075FF06A94A4805F071FF0420ADF888
:101090000C000220ADF80E001420ADF81400012061
:1010A000ADF8100003A9800706F038FB03A94048FB
:1010B00006F034FB02231A460321580706F0CBFC46
:1010C00002231A4603213A4806F0C5FC012188078D
:1010D00006F016FC0121364806F012FC01221146EA
:1010E000900706F0E5FB01221146314806F0E0FBCF
:1010F0000121880705F0C4FF01212D4805F0C0FF3C
:1011000000214FF0804005F07BFF0021284805F0CA
:1011100077FF4FF4C06004F087FD1D208DF80000BC
:1011200003208DF8010000208DF8020001208DF8C9
:101130000300684604F07DFD1C208DF800000420AB
:101140008DF8010000208DF8020001208DF80300C9
:10115000684604F06EFD09B000BD00B589B00121FC
:10116000084605F0C9F80121102005F081F84FF478
:101170002060019002208DF8080003208DF80900FE
:1011800000208DF80A0001208DF80B0001A9094804
:1011900012E0000000000240000C0040000C024081
:1011A00000080040000001400040014000040240EF
:1011B000000400400010024004F014FE0122092146
:1011C000FE4804F09AFE01220B21FC4804F095FE33
:1011D0000020ADF818004FF6FF7007900020ADF822
:1011E0002000ADF81A0006A9F54805F0C0FE04205D
:1011F000ADF80C000020ADF80E000A20ADF8140088
:101200000120ADF8100003A9ED4806F087FA00238D
:101210001A460321EA4806F01EFC0121E84806F0C0
:101220006FFB01221146E64806F042FB0121E4482B
:1012300006F066FB01221146E14806F039FB012168
:10124000DF4805F01DFF0021DD4805F0D9FE4FF411
:10125000C06004F0E9FC19208DF8000001208DF831
:10126000010000208DF8020001208DF8030068467F
:1012700004F0DFFC09B000BD00B589B001210420F5
:1012800005F029F80121082004F0F2FF4FF4405046
:10129000019002208DF8080003208DF8090000203D
:1012A0008DF80A0001208DF80B0001A9C54804F053
:1012B00099FD0020ADF818004FF6FF700790002050
:1012C000ADF82000ADF81A0006A9BF4805F04FFEA2
:1012D00002220C21BB4804F010FE02220D21B94865
:1012E00004F00BFE0420ADF80C000220ADF80E0057
:1012F000C820ADF814000120ADF8100003A9B248D1
:1013000006F00CFA02231A460321AF4806F0A3FBAD
:101310000121AD4806F0F4FA01221146AA4806F070
:10132000C7FA0121A84805F0ABFE42F21071A648A9
:1013300005F066FE0020A449143108800120A2496E
:1013400008804FF4C06004F06FFC1E208DF8000090
:1013500004208DF8010000208DF8020001208DF896
:101360000300684604F065FC09B000BD00B589B013
:101370000121082004F0AFFF0121084604F078FFA6
:101380000320019002208DF8080003208DF8090049
:1013900000208DF80A0001208DF80B0001A98B4870
:1013A00004F020FD0020ADF818004FF6FF70079004
:1013B0000020ADF82000ADF81A0006A9844805F019
:1013C000D6FD02220021814804F097FD022201216E
:1013D0007E4804F092FD0420ADF80C000220ADF828
:1013E0000E00C820ADF814000120ADF8100003A9CC
:1013F000774806F093F902231A460321744806F051
:101400002AFB0121724806F07BFA0122114670483E
:1014100006F04EFA01216E4805F032FE42F21071DC
:101420006B4805F0EDFD002069491431088001206A
:10143000674908804FF4C06004F0F6FB32208DF855
:10144000000004208DF8010000208DF8020001202A
:101450008DF80300684604F0ECFB09B000BD00B550
:101460009BB001215B4804F003FF0121080204F056
:1014700043FF0020029058480390584804900020F1
:10148000059008200690002007904FF48060089097
:101490004000099080000A9040110B9040020C908F
:1014A00000200D9001200E9000200F90109002A9B6
:1014B0004B4805F0EFFA0121494805F025FB3C2097
:1014C000009003208DF8040000208DF80700694685
:1014D0003E4804F087FC3C20009003208DF8040077
:1014E00000208DF8070069463E4804F07BFC002090
:1014F00011904FF440301290002013904FF4706020
:10150000149011A805F02CF84FF080701590012070
:101510008DF858008DF859000020179018901990F8
:1015200008208DF8680015A92B484C3804F0E9FF15
:1015300004230122022128484C3805F068F80423CE
:101540000222032124484C3805F061F804230322C9
:10155000194621484C3805F05AF804231A4605214B
:101560001D484C3805F053F8042305220C211A4875
:101570004C3805F04CF8042306220D2116484C384F
:1015800005F045F8042307220E2113484C3805F0D6
:101590003EF8042308220F210F484C3805F037F895
:1015A00001210D484C3805F0DDF801210A484C387E
:1015B00005F0CDF8012108484C3815E00010024034
:1015C00000000140000C0240000800400000024002
:1015D000000C0040050040004C20014000050020A8
:1015E000106402400008024004F0D1FFFE4805F0FC
:1015F0006AF81BB000BD08B54FF4E06004F014FBBE
:1016000025208DF8000000208DF801008DF80200E3
:1016100001208DF80300684604F00BFB08BD10B5EF
:1016200096B004460121102004F066FE0121084610
:1016300004F01EFE0121880504F01AFE4FF4C0607C
:10164000009002208DF8040000208DF806008DF82F
:10165000070002208DF805006946E44804F0C2FB4B
:1016600007220921E14804F048FC07220A21DF484B
:1016700004F043FC02940020ADF80C00ADF80E001D
:10168000ADF81000ADF814000C20ADF8120002A95E
:10169000D74806F05FFA0121D54806F0E3FA4FF487
:1016A000A06004F0C1FA3A208DF8180000208DF8EF
:1016B00019008DF81A0001208DF81B0006A804F00F
:1016C000B8FACC4805F044F94FF0006007900020CC
:1016D0000A90C94809900A200B90C548001D08903F
:1016E00000200C904FF480600D9000200E900F9021
:1016F0004FF480701090400211900420129003204B
:10170000139000201490159007A9BA4805F0C2F96B
:1017100001224021B64806F052FB01221021B548B3
:1017200005F07FFA0121B34805F0EEF916B010BDBF
:1017300010B596B004460121480504F099FD012139
:10174000480404F0C8FD0121082004F091FD602048
:10175000009002208DF8040000208DF806008DF81E
:10176000070002208DF805006946A44804F03AFB02
:1017700007220521A14804F0C0FB072206219F484B
:1017800004F0BBFB02940020ADF80C00ADF80E0095
:10179000ADF81000ADF814000C20ADF8120002A94D
:1017A000974806F0D7F90121954806F05BFA4FF407
:1017B000A06004F039FA11208DF8180000208DF88F
:1017C00019008DF81A0001208DF81B0006A804F0FE
:1017D00030FA8C4805F0BCF84FF0006007904020CC
:1017E0000A90894809903C200B908548001D08907C
:1017F00000200C904FF480600D9000200E900F9010
:101800004FF4807010904002119004201290032039
:10181000139000201490159007A97A4805F03AF922
:1018200001228021764806F0CAFA012280217448FC
:1018300006F0C5FA01221021724805F0F2F90121E3
:10184000704805F061F916B010BD10B596B00446A9
:101850000121880404F03FFD0121082004F008FD67
:101860000121480504F004FD4FF44070009002206F
:101870008DF8040000208DF806008DF80700022086
:101880008DF8050069465D4804F0ACFA072208218E
:101890005A4804F032FB07220921584804F02DFB76
:1018A00002940020ADF80C00ADF80E00ADF8100069
:1018B000ADF814000C20ADF8120002A9534806F050
:1018C00049F90121514806F0CDF94FF4A06004F028
:1018D000ABF90C208DF8180000208DF819008DF858
:1018E0001A0001208DF81B0006A804F0A2F9454853
:1018F000783805F02DF84FF00060079000200A902E
:10190000434809900A200B904048001D0890002091
:101910000C904FF480600D9000200E900F904FF4CB
:1019200080701090400211900420129003201390B8
:1019300000201490159007A93248783805F0AAF8CD
:1019400001224021314806F03AFA012240212F4875
:1019500006F035FA012210212A48783805F061F99D
:1019600001212848783805F0CFF816B010BD10B521
:1019700096B004460121C80404F0ADFC01210846DC
:1019800004F076FC0121480504F072FC032000906D
:1019900002208DF8040000208DF806008DF8070065
:1019A00002208DF805006946104804F01BFA082251
:1019B00000210E4804F0A1FA082201210B4804F08E
:1019C0009CFA02940020ADF80C00ADF80E00ADF8C2
:1019D0001000ADF814000C20ADF8120002A90D485B
:1019E00006F0B8F8012117E0002001400000024095
:1019F000001001404064024010050020000C02402D
:101A000000440040A0600240040000200048004064
:101A10004C050020004C0040FB4806F023F94FF431
:101A2000A06004F001F90D208DF8180000208DF859
:101A300019008DF81A0001208DF81B0006A804F08B
:101A4000F8F8F24804F084FF4FF00060079000209F
:101A50000A90EF48099008200B90EB48001D089071
:101A600000200C904FF480600D9000200E900F909D
:101A70004FF48070109040021190042012900320C7
:101A8000139000201490159007A9E04805F002F883
:101A900001224021DC4806F092F901224021DA4877
:101AA00006F08DF901221021D84805F0BAF801217D
:101AB000D64805F029F816B010BD10B596B004460A
:101AC0000121480504F0D4FB0121080504F003FCC2
:101AD00001210C2004F0CCFB0420009002208DF8A2
:101AE000040000208DF806008DF8070002208DF814
:101AF00005006946C74804F075F94FF4805000901E
:101B000002208DF8040000208DF806008DF80700F3
:101B100002208DF805006946BF4804F063F90822E9
:101B20000221BC4804F0E9F908220C21BA4804F06B
:101B3000E4F94FF4A06004F077F82F208DF8180036
:101B400005208DF819008DF81A0001208DF81B0072
:101B500006A804F06EF802940020ADF80C00ADF871
:101B60000E00ADF81000ADF814000C20ADF8120016
:101B700002A9AA4805F0EEFF0121A84806F072F874
:101B8000A248783004F0E4FE4FF000600790402057
:101B90000A90A348099096200B90A048001D089039
:101BA00000200C904FF480600D9000200E900F905C
:101BB00010904FF4003011900020129003201390E9
:101BC00000201490159007A99048783004F062FF27
:101BD00001228021914806F0F2F8012210218B4861
:101BE000783005F01EF801218848783004F08CFF29
:101BF00016B010BD10B596B004460121202004F0A7
:101C00007BFB0121042004F033FB0121880504F053
:101C10002FFBC020009002208DF8040000208DF8DA
:101C200006008DF8070003208DF8050069467A4804
:101C300004F0D8F808220621774804F05EF908225B
:101C40000721754804F059F902940020ADF80C0002
:101C5000ADF80E00ADF81000ADF814000C20ADF892
:101C6000120002A96F4805F075FF01216D4805F0CB
:101C7000F9FF4FF4A06003F0D7FF39208DF818006A
:101C800003208DF8190001208DF81A008DF81B0033
:101C900006A803F0CEFF644804F05AFE4FF020601F
:101CA000079000200A906148099010200B905D4831
:101CB000001D089000200C904FF480600D900020D3
:101CC0000E900F904FF480701090400211900420FD
:101CD00012900320139000201490159007A95248E9
:101CE00004F0D8FE012240214E4806F068F8012297
:101CF00010214D4804F095FF01214B4804F004FFEA
:101D000016B010BD0EB5002002900190009047481B
:101D1000007802282ED14548407801904348C07889
:101D20004249897840EA01200090404909783F4AB9
:101D3000527811443D4A927811443C4AD27888182E
:101D4000C11700EB11610912A0EB0121C9B2029188
:101D5000364800799DF8081088420BD13348407905
:101D6000032807D19DF8040031490870BDF8000030
:101D7000304908800EBD00B585B00121082004F06F
:101D800077FA0121880304F0B7FA00208DF81000DB
:101D900001208DF813000C20039003A91D4804F0C6
:101DA00021F80221032006F0A3F80420009000206F
:101DB0008DF8040010208DF8050001208DF8060034
:101DC000684604F0A7FF08208DF8080000208DF871
:101DD00009008DF80A0001208DF80B0002A803F01D
:101DE00028FF05B000BD70B504460D46012C25D175
:101DF0002946114805F061FF00BF40210E4806F05A
:101E00000CF80028F9D042E0004C0040406002404D
:101E10001F050020000C0240000802400050004056
:101E20006A04002000140140286402405B05002081
:101E3000280100202A01002000100140032C0BD1B2
:101E40002946FE4805F039FF00BF4021FB4805F058
:101E5000E4FF0028F9D01AE0042C0BD12946F848F9
:101E600005F02BFF00BF4021F54805F0D6FF002804
:101E7000F9D00CE0052C0AD12946F24805F01DFFE7
:101E800000BF4021EF4805F0C8FF0028F9D070BD21
:101E90000020ED494862ED490860ED490860ED49D0
:101EA000086070470020E8494862E84908604FF040
:101EB00080414862E8490860E8490860E8490860EC
:101EC000E3490860E349086070470020E049086082
:101ED000E049086070470020E0490860E049086078
:101EE000704710B50020DF490870002407E0612129
:101EF0000120FFF778FF3220FEF7CCFD641C022C96
:101F0000F5D30120D74908707A20D749087010BD51
:101F100010B50020D5490870002407E06121032096
:101F2000FFF761FF3220FEF7B5FD641C022CF5D3EC
:101F30000120CE4908707A20CD49087010BD2DE9E6
:101F4000F14FAEB0CBA02D9000202C908DF88800E2
:101F50008DF860002E98132832D2DFE800F00A32A4
:101F60003940474E555C636A7172737A868D94FE70
:101F7000FD000221C84803F097FF88B100224FF40A
:101F80000041C64803F0AEFF4FF40041C34803F0E0
:101F900098FF044600222146C1A0FEF753FB0FE044
:101FA0000122D103BD4803F09DFF4FF40041BB481F
:101FB00003F087FF044600222146C1A0FEF742FB42
:101FC00045E20122C6480168C6A0FEF73BFB3EE29F
:101FD0000222C6480168C6A0FEF734FB37E203229E
:101FE000C6480168C6A0FEF72DFB30E20422C748B0
:101FF0000168C7A0FEF726FB29E20522C748017841
:10200000C7A0FEF71FFB22E20622C7480188C7A02F
:10201000FEF718FB1BE20722C7480168C7A0FEF7BE
:1020200011FB14E20A22C9480168C9A0FEF70AFBA5
:102030000DE20922CA480168CAA0FEF703FB06E2C6
:1020400005E204E20C22CB480168CBA0FEF7FAFAC5
:10205000FDE10D22CC4890ED000ABDEEC00A10EE65
:10206000101ACAA0FEF7EEFAF1E10E22CA48016882
:10207000CAA0FEF7E7FAEAE10F22CD480168CDA039
:10208000FEF7E0FAE3E10121CF4803F00DFF4FF442
:1020900000511790814803F007FF04460221CA4807
:1020A00003F002FF05464FF480417C4803F0FCFE3C
:1020B00006460421C44803F0F7FE4FF40041169091
:1020C000C14803F0F1FE07460821BF4803F0ECFECB
:1020D00080464FF48041BC4803F0E6FE8146102163
:1020E000B94803F0E1FE4FF400511590B64803F0F3
:1020F000DBFE82460821B54803F0D6FE4FF480513E
:102100001490B14803F0D0FE10211390AF4803F0B3
:10211000CBFE4FF480611290AB4803F0C5FE8346BE
:102120008021A94803F0C0FE4FF480711190A648A9
:1021300003F0BAFE10901798CDE90B65CDE90D407C
:102140001698CDE90798CDE90970DDE913121598C5
:10215000CDE9042A039101E072E111E00690DDE986
:102160001101CDE901B1009099A2282122A8109B6C
:1021700008F0C0F8122222A97DA0FEF7B6FA66E1A7
:102180008021454803F09DFE04460121424803F0AA
:1021900098FE05464021404803F093FE06464FF462
:1021A00000418A4803F08DFE07464FF48051914864
:1021B00003F087FE80464FF48061374803F081FECC
:1021C00081464FF400618B4803F07BFE4FF40061C1
:1021D0001790314803F075FE82464FF480617B48CA
:1021E00003F06FFE83464FF480512B4803F069FEE5
:1021F0004FF400611690754803F063FE4FF40051F0
:102200001590254803F05DFE4FF4804114906F480F
:1022100003F057FE4FF4804113901F4803F051FE26
:102220004FF480711290734803F04BFE4FF400415D
:102230001190194803F045FEDEE000000048004020
:10224000004C0040005000400000014044000020CD
:1022500024080040600000204800002024040040C2
:102260004C00002069000020680000206B00002066
:102270006A00002031313131313131313131313188
:10228000313131313131313131313031313131313F
:1022900031313131000000000004024000080240EA
:1022A000524F424F5420322044414E472043484130
:1022B000592053414E2058414E483A2020200000DA
:1022C000524F424F5420322044414E472043484110
:1022D000592053414E20444F3A2020200000000056
:1022E000C4010020494D553A000000008000002044
:1022F000474F432042414E3A00000000EC000020CE
:102300005649205452492042414E3A005002002082
:10231000676F635F6C696461723A00002801002096
:102320006F66667365743A002A01002064697374ED
:10233000616E63653A000000400200204C75635FE7
:1023400042616E5F6C696461723A00009400002023
:10235000476F635F42616E5F6175746F3A000000A2
:102360007800002047545F4C415A45525F54524117
:10237000493A0000900000204C75635F42616E5F37
:102380006C617A65723A00008C0000204A6F7953C4
:102390007469636B3A0000003802002066696E6160
:1023A0006C5F726573756C745F6C617A65723A000C
:1023B0003C02002066696E616C5F726573756C74B7
:1023C0005F6C696461723A0000100240000C0240C8
:1023D00025642564256425642564256425642564B5
:1023E00025642564256425642564256425642564A5
:1023F0000000000000000240CDE90B76CDE90D544D
:1024000010901798CDE907A0CDE90998DDE91521CD
:102410001498CDE9051BCDE90302DDE911121398EB
:10242000CDE900120290AFF25802282122A8109B99
:1024300007F060FF112222A9FEA0FEF756F906E080
:10244000FE48017A1022FEA0FEF7FCF800BF00BF94
:102450002FB0BDE8F08F10B50121FB4804F054FB0C
:1024600010BD01B5F94800680099884203DD0020DD
:10247000F649086004E0F5480068401CF34908602C
:10248000F2480068FFF75BFD08BD10B52DED028B2B
:10249000EA48C07801EE100AB8EE411ADFEDEC1AF6
:1024A00031EE611AF0EE410AE448807801EE100A3C
:1024B000B8EE411ADFEDE61A31EE611AB0EE410ACC
:1024C00007F072FFF0EE408AE248D0ED000A9FED7F
:1024D000E21A81EE200A20EE280AB0EE408AB5EE1C
:1024E000C08AF1EE10FA05D29FEDDC0A38EE000A40
:1024F000B0EE408AD148C0787E2807D1CF48807896
:102500007F2803D19FEDD60AB0EE408A9FEDD20A14
:10251000B4EEC08AF1EE10FA06D8B2EE040A28EE44
:10252000000AB0EE408A09E09FEDCC0A38EE400A7E
:10253000F2EE040A20EE200AB0EE408AC94880ED8F
:10254000008ABDEC028B10BDF0B5DDE9054520B970
:10255000C54E3678C54FFE700BE0002804DDC34F32
:10256000F8700126BE7004E04642C04FFE7000269F
:10257000BE7021B9BC4E3678BC4FFE720BE000290C
:1025800004DDBA4FF9710126BE7104E04E42B74F27
:10259000FE710026BE7122B9B34E3678B34FFE727B
:1025A0000BE0002A04DDB14FFA720126BE7204E08E
:1025B0005642AE4FFE720026BE7223B9AA4E36783E
:1025C000AA4FFE730BE0002B04DDA84FFB7301261E
:1025D000BE7304E05E42A54FFE730026BE7324B9AD
:1025E000A14E3678A14FFE740BE0002C04DD9F4F06
:1025F000FC740026BE7404E066429C4FFE74012603
:10260000BE7425B9984E3678984FFE750BE0002DB4
:1026100004DD964FFD750126BE7504E06E42934FB2
:10262000FE750026BE75F0BD904AD070D071D07294
:10263000D073D074D075704701208D490860704701
:102640008A48C078032815DA8848C079032811DA47
:102650008648C07A03280DDA8448C07B032809DA4B
:102660008248C07C032805DA8048C07D032801DA4F
:10267000012070470020FCE77E48006847F2305197
:10268000884201D0012070470020FCE710B5FFF719
:1026900028FC10BD7848B0F9000040427047B5EE04
:1026A000C00AF1EE10FA09D27448D0ED000A70EEBB
:1026B000600AFDEEE00A10EE900A70476F48D0ED18
:1026C000000A70EE200AFDEEE00A10EE900AF4E730
:1026D00010B52DED0A8B044624B99FED690ABDECB7
:1026E0000A8B10BD002C25DA6648006807F0E5FB70
:1026F00041EC190B204607F0E0FB41EC1C0B9FED71
:10270000620B53EC102B07F0F7FA41EC1B0B9FED1B
:10271000600B53EC102B07F0E9FA41EC1A0B53EC69
:10272000192B07F05BFB41EC180B07F0EAFB00EEFE
:10273000100AD4E75348006807F0BFFB41EC190BBF
:10274000204607F0BAFB41EC1C0B9FED4F0B53ECFE
:10275000102B07F0D1FA41EC1B0B9FED4D0B53EC06
:10276000102B07F022FA41EC1A0B53EC192B07F04F
:1027700035FB41EC180B07F0C4FB00EE100AAEE786
:10278000F0EE400AF5EEC00AF1EE10FA02DBB0EE10
:10279000600A7047B1EE600AFBE70146002901DBE1
:1027A000084670474842FCE701463B48D0ED000A26
:1027B000F1EE600A3948D0ED001A80EEA11A00EE61
:1027C000901AF8EEE01A3448D0ED000A41EE210AE2
:1027D000B0EE600AFDEEC00A10EE900A7047F0EE0F
:1027E000401A9FED2F2AB0EE420AF5EEC01AF1EE24
:1027F00010FA03D2B1EE612AF0EE421AF5EEC00AE9
:10280000F1EE10FA03D2B1EE602AF0EE420AB5EE14
:10281000C01AF1EE10FA03D2B1EE412AB0EE421A1C
:10282000F4EEC01AF1EE10FA01DDB0EE610AF4EE3A
:10283000C00A37E04F55543A000000004C05002014
:102840004241544552593A00A06002405C000020C9
:102850000000FF4284010020000034430000B44324
:1028600000409C468C0000207801002004000020DD
:1028700074010020A4010020640000203401002025
:1028800000000000900100209A9999999999A93F18
:102890009A9999999999B93F6C010020700100208B
:1028A0006F12833AF1EE10FA01DDB0EE600AB4EE79
:1028B000C01AF1EE10FA01DDB0EE410A7047FD4892
:1028C00000687047FC480068704710B52DED088B14
:1028D000B0EE408AF948006847F23051884214D17E
:1028E0001FED190AF64880ED000AF64880ED000A4F
:1028F000F54880ED000AF54880ED000AF44880EDC7
:10290000000AF44880ED000AE8E0F3480068F34963
:102910000968401AE9490968081A00EE100AB8EE79
:10292000C00AEF48D0ED000AEE4890ED001A00EE24
:10293000C10AD0ED000AC0EE208AEB4890ED000AF3
:1029400020EE280A10EE101A084607F0C7FA41ECEC
:102950001B0BB0EE4B0AF0EE6B0A08F051FEB0EE26
:1029600040AAF0EE60AA51EC1A0B81F0004141EC54
:10297000190B07F0C6FAD7490860DC4890ED000A49
:1029800038EE800AD848D0ED000A20EE200A10EE7A
:10299000101A084607F0A2FA41EC1A0BB0EE4A0AE8
:1029A000F0EE6A0A08F02CFEB0EE409AF0EE609A63
:1029B00051EC190B07F0A5FAC5490860CC4890ED19
:1029C000000A38EE800AC848D0ED000A20EE200A3E
:1029D00010EE101A084607F081FA41EC1A0BB0EE1F
:1029E0004A0AF0EE6A0A08F00BFEB0EE409AF0EEEA
:1029F000609A51EC190B07F084FAB4490860BD489D
:102A000090ED000A38EE800AB748D0ED000A20EEBB
:102A1000200A10EE101A084607F060FA41EC1B0B72
:102A2000B0EE4B0AF0EE6B0A08F0EAFDB0EE40AAF9
:102A3000F0EE60AA51EC1A0B81F0004141EC190B49
:102A400007F05FFAA0490860A84890ED000A38EE48
:102A5000800AA548D0ED000A20EE200A10EE101AD8
:102A6000084607F03BFA41EC1B0BB0EE4B0AF0EEC8
:102A70006B0A08F0C5FDB0EE40AAF0EE60AA51EC7A
:102A80001A0B81F0004141EC190B07F03AFA8D491D
:102A90000860974890ED000A38EE800A9248D0ED21
:102AA000000A20EE200A10EE101A084607F016FA67
:102AB00041EC1B0BB0EE4B0AF0EE6B0A08F0A0FDE8
:102AC000B0EE40AAF0EE60AA51EC1A0B81F0004182
:102AD00041EC190B07F015FA79490860B5EEC08A88
:102AE000F1EE10FA7CD08448006807282FD2DFE886
:102AF00000F0042F53789CC0E000764890ED000A67
:102B000030EE480A80ED000A714890ED000A30EE80
:102B1000480A80ED000A6D4890ED000A30EE480A40
:102B200080ED000A684890ED000A30EE480A80ED1A
:102B3000000A644890ED000A30EE480A80ED000A71
:102B40005F4890ED000A30EE480A80ED000AFEE092
:102B50005F4890ED000A30EE480A80ED000A5B48BD
:102B600090ED000A30EE480A80ED000A564890EDDC
:102B7000000A30EE480A80ED000A524890ED000A43
:102B800030EE480A80ED000A4D4890ED000A30EE24
:102B9000480A80ED000ADAE04E4890ED000A30EE77
:102BA000480A80ED000A494890ED000A30EE480AD4
:102BB00080ED000A444890ED000A30EE480A80EDAE
:102BC000000A404890ED000A30EE480A80ED000A05
:102BD0003B4890ED000A30EE480A80ED000AB6E06E
:102BE000B6E03C4890ED000A30EE480A80ED000A5D
:102BF000374890ED000A30EE480A80ED000A32486E
:102C000090ED000A30EE480A80ED000A2D4890ED64
:102C1000000A30EE480A80ED000A294890ED000ACB
:102C200030EE480A80ED000A91E02A4890ED000A53
:102C300030EE480A80ED000A254890ED000A30EE9B
:102C4000480A80ED000A214890ED000A30EE480A5B
:102C500080ED000A1B4890ED000A30EE480A80ED36
:102C6000000A174890ED000A30EE480A80ED000A8D
:102C70006DE0184890ED000A30EE480A80ED000A39
:102C8000134890ED000A30EE480A80ED000A0F4824
:102C900090ED000A30EE480A80ED000A0A4890EDF7
:102CA000000A30EE480A80ED000A054890ED000A5F
:102CB00024E028E090010020BC010020A4010020B5
:102CC000E4010020E0010020DC010020D801002008
:102CD000D4010020D0010020C4010020B001002058
:102CE000B40100204C010020800100205C01002084
:102CF00058010020600100208C01002030EE480ABD
:102D000080ED000A23E0FE4890ED000A30EE480A0C
:102D100080ED000AFB4890ED000A30EE480A80ED95
:102D2000000AF94890ED000A30EE480A80ED000AEA
:102D3000F64890ED000A30EE480A80ED000AF448AB
:102D400090ED000A30EE480A80ED000A00BF00BF97
:102D5000EF4890ED001AEC48D0ED000AE84890EDFD
:102D6000000AFFF73CFDEB48D0ED000AF8EEE00A60
:102D700080EE801ABDEEC10AE74880ED000AE74800
:102D80000068E5490968884203DDE3480068E349D3
:102D900008600120E2490860BDEC088B10BD10B549
:102DA00004460020DF490860DF480460FCB90020C9
:102DB000DA4908609FEDDD0ADD4880ED000A47F240
:102DC0003050DC490860DC4908609FEDD80ADB48D8
:102DD00080ED000A0020DA490860DA490860DA4923
:102DE0000860DA4908609FEDD10AFFF76EFD10BD5B
:102DF00010B5D24890ED000AB5EEC00AF1EE10FA17
:102E000005D1CF48006810B9CE48006890B19FED59
:102E1000C70ACA4880ED000A0020C9490860C949AC
:102E20000860CB480068CB490860C44890ED000AB0
:102E3000FFF74BFD10BDC848C0ED000AC74880ED44
:102E4000000A704770B52DED028B05460C46B0EEBA
:102E5000408AB8480068A8420BD1B2480068A04236
:102E600007D1B34890ED000AB4EE480AF1EE10FA2B
:102E700018D0AC480460A948006810B90520A749DB
:102E80000860B3480068B3490860A94880ED008A2B
:102E9000A84805600020B2490860A84890ED000AE3
:102EA000FFF713FDBDEC028B70BD70B52DED028BED
:102EB0000446B0EE408A0D46A2480068A0420BD1FD
:102EC0009E4890ED000AB4EE480AF1EE10FA03D1E4
:102ED0009B480068A84237D09648006847F23051B6
:102EE000884222D119208F4908600A208B49086046
:102EF00047F23050844218DA012093490860B5EE59
:102F0000C08AF1EE10FA03DD91480068A04208DCA7
:102F1000B5EEC08AF1EE10FA07D28D480068A042E3
:102F200003DAB1EE480AB0EE408A8648046084486D
:102F30000560824880ED008A0020894908607F484A
:102F400090ED000AFFF7C1FCBDEC028B70BD10B51F
:102F50002DED028BB0EE408A04462146B0EE480AC1
:102F600047F23050FFF7A1FFBDEC028B10BD70B5EA
:102F700004460D469FED6D0A29462046FFF762FF85
:102F800070BD70B52DED088BF0EE408A0446B0EEB2
:102F9000608AB0EE419A684890ED000AB8EEC00A27
:102FA000B4EE680AF1EE10FA0DD15E480068A04256
:102FB00009D1644890ED000AB8EEC00AB4EE480AA0
:102FC000F1EE10FA5ED0BDEEE80A5B4880ED000A33
:102FD0005F4991ED000AB8EEC00A38EEC00ABDEEB6
:102FE000C00A10EE100A9FED510A2146FFF72AFF92
:102FF000574890ED000AB8EEC00A38EE400ABDEE20
:10300000C00A10EE105A002D01DB284600E068428D
:10301000642814DD4E4890ED000AB8EEC00AB4EE04
:10302000C08AF1EE10FA02DDB0EE490A01E0B1EE1D
:10303000490A10EE101A084606F050FF13E0444803
:1030400090ED000AB8EEC00A38EE400A10EE101AF1
:10305000084606F043FF41EC1B0B9FED420B53EC7F
:10306000102B06F049FE41EC1A0B06F04AFF09EE60
:10307000900A0021B0EE690AFDEEC80A10EE900A2F
:10308000FFF713FFBDEC088B70BD10B52E4800682C
:10309000012876DD2B4909682D4A1268881AFFF746
:1030A0007CFB05280CDA284801680068401C264A89
:1030B0001060B1F57A7F64DD0020FFF770FE10BD6F
:1030C00021480068B0F5FA7F09DD05201549086040
:1030D0001249086040F2F5101B49086004E0052021
:1030E000104908600D4908601948006815490968C9
:1030F00088423CDDBFEE000A104880ED000A3BE04C
:10310000D0010020D4010020D8010020DC010020E3
:10311000E00100202C0100209801002090010020F7
:1031200088010020940100209C0100200000000084
:10313000B8010020A4010020A8010020B401002053
:103140008C010020AC010020BC0100207401002093
:10315000C4010020B00100206C010020700100209B
:10316000A00100207B14AE47E17A743F09E0B7EE7E
:10317000000AFE4880ED000AFC4890ED000AFFF7C7
:10318000A4FB00BF9BE710B52DED028BF84890ED36
:10319000000AB5EEC00AF1EE10FA08D1F548006851
:1031A00028B1F548006847F23051884202DBBDEC97
:1031B000028B10BDED4890ED000AB5EEC00AF1EEAD
:1031C00010FA7CD0ED48006847F23051884277D140
:1031D000E64890ED000AB5EEC00AF1EE10FA08DDFF
:1031E000E5480068E6490968401AE64909688842E6
:1031F00010DBDE4890ED000AB5EEC00AF1EE10FAE1
:103200007ED2DD480068DE4909680844DD49096866
:10321000884275DDDC48006803285CDAD649096815
:10322000D84A1268881AFFF7B8FA0A2816DAD2487C
:103230000068D64908600020CE490860D44908607B
:103240001FED460AC94880ED000A0220CE490860F9
:10325000C64890ED000AFFF738FBA8E7C6480068AB
:10326000C8490968884237DDC24890ED000AB8EEC7
:10327000C00ABE48D0ED000A60EE200AC04890EDBA
:10328000000AB8EEC00AC0EE801AB0EE611AB0EEC5
:10329000410AFFF775FAB8490968BA4A1268881AEC
:1032A000FFF77BFA00EE900AB8EEE01AB948D0EDCD
:1032B000000A40EE010AAF4890ED000A01E0AAE0E2
:1032C00047E0B8EEC00A80EE801AB0EE418AB0EE58
:1032D000480AFFF7FAFA9DE0A64890ED000AB8EE1A
:1032E000C00AA248D0ED000A60EE200AA44890ED82
:1032F000000AB8EEC00AC0EE801AB0EE611A00E013
:1033000021E0B0EE410AFFF73BFA9B4909689D4A6C
:103310001268881AFFF741FA00EE900AB8EEE01A38
:103320009C48D0ED000A50EE410A924890ED000A08
:10333000B8EEC00A80EE801AB0EE418AB0EE480ABC
:10334000FFF7C3FA66E0894890ED000AFFF7BDFA7F
:1033500060E0864890ED000AB5EEC00AF1EE10FA82
:103360001FDD854890ED000AB8EEC00A8148D0ED17
:10337000000AF8EEE00A7D4890ED001A00EEC10A5E
:103380008548D0ED000AF8EEE00A70EE600A7D484C
:1033900090ED000AB8EEC00AF4EEC00AF1EE10FAA1
:1033A00027D3724890ED000AB5EEC00AF1EE10FA8C
:1033B0002BD2714890ED000AB8EEC00A6D48D0EDEE
:1033C000000AF8EEE00A694890ED001A00EEC10A22
:1033D0007148D0ED000AF8EEE00A70EE200A694864
:1033E00090ED000AB8EEC00AF4EEC00AF1EE10FA51
:1033F0000BDD61490968634A1268881AFFF768F9AA
:10340000B0EE408AFFF761FA04E0584890ED000AF8
:10341000FFF75BFACBE6614909685A4A1268881AD5
:10342000FFF756F9B0EE408AFFF74FFA00BFBEE64D
:1034300000B555480068022815DA1FEDC40A4C484B
:1034400080ED000A1FEDC70A484880ED000A002001
:103450005349086047F230504849086051490860B4
:1034600000204549086050480068401C4E490860EB
:103470004E490968884204DA4D480068FFF7D4F8DD
:103480000EE04A480068484908604A48006820B190
:1034900047480068FFF7C8F802E00020FFF7C4F8CB
:1034A00000BD414A1268521C3F4B1A60824207DD40
:1034B000304A12680A442F4B1A6000223A4B1A60B5
:1034C00070472DE9FC47FFF7E5F82E490860FFF744
:1034D000DCFD2F480068002821DD264800682C49C3
:1034E000096888422AD02348006829490968884227
:1034F0000EDA204800683049096888421EDA1D4803
:103500000068FFF751F904460121FFF7CAFF15E0F3
:103510004FF0FF3129480068FFF7C3FF0EE0154860
:103520000068002806DD4FF0FF3125480068FFF7EE
:10353000B8FF03E0FFF77CFFBDE8FC872148006887
:1035400010490968884205D0FFF71DFE0D48006844
:103550001C4908601C480068D0B30648D0ED000A3A
:10356000F8EEE00A194890ED001A32E0B4010020AC
:10357000B801002090010020AC010020A40100202F
:1035800068010020C4010020BC010020C00100200F
:10359000940100204801002064010020B0010020B7
:1035A0008C010020A8010020A00100207C01002047
:1035B000780100207401002098010020CC01002037
:1035C0009C010020C801002088010020E4010020A7
:1035D00058E060EE810AB0EE600AFFF760F804463A
:1035E000FE48D0ED000AF8EEE00AFD4890ED001A22
:1035F00060EE810AB0EE600AFFF751F80546F74821
:10360000D0ED000AF8EEE00AF64890ED001A60EE00
:10361000810AB0EE600AFFF742F80646EF48D0EDA7
:10362000000AF8EEE00AF04890ED001A60EE810A18
:10363000B0EE600AFFF733F80746E848D0ED000A1D
:10364000F8EEE00AE94890ED001A60EE810AB0EE6B
:10365000600AFFF724F88046E048D0ED000AF8EE53
:10366000E00AE34890ED001A60EE810AB0EE600ACD
:10367000FFF715F8814633463A464146CDE90054F6
:10368000FEF762FF00BF57E770B52DED028B0F25E7
:1036900005269FEDD80AB0EE408AD74800791E284B
:1036A00005DBD5480079B42801DC012000E00020CA
:1036B0000446FEF7EAFED048007800F0080010BB90
:1036C000CD48007800F01000E8B9CB48007800F051
:1036D0002000C0B9C848007800F0400098B994B103
:1036E000C64890ED000ADFEDC60AB4EEE00AF1EE3E
:1036F00010FA08DDC048C07928B90020FFF74FFB59
:10370000BDEC028B70BDBC48407800F0010028B1D0
:10371000FA259FEDBC0AB0EE408A04E03C259FEDFF
:10372000BA0AB0EE408AB448007800F0080098B1B8
:10373000B148007800F0100070B9AF48007800F090
:10374000200048B9AC48007800F0400020B9294674
:10375000AE48FFF70CFCC5E0A748007800F0080071
:10376000A0B9A548007800F0100078B1A248007810
:1037700000F0200050B9A048007800F0400028B9BF
:10378000294640F2DC50FFF7F2FBABE09A480078A4
:1037900000F00800A0B99848007800F0100078B94F
:1037A0009548007800F0200050B19348007800F070
:1037B000400028B929464FF41670FFF7D8FB91E076
:1037C0008D48007800F0080098B98B48007800F028
:1037D000100070B98848007800F0200048B9864889
:1037E000007800F0400020B129468948FFF7BFFB70
:1037F00078E08148007800F00800A0B17E480078A9
:1038000000F0100078B97C48007800F0200050B13A
:103810007948007800F0400028B929464FF49670A6
:10382000FFF7A5FB5EE07448007800F0080098B14F
:103830007148007800F0100070B96F48007800F00F
:10384000200048B96C48007800F0400020B12946BB
:103850007048FFF78CFB45E06748007800F00800EF
:10386000A0B96548007800F0100078B1624800788F
:1038700000F0200050B16048007800F0400028B906
:1038800029464FF46170FFF772FB2BE05A4800782D
:1038900000F0080098B95848007800F0100070B1A6
:1038A0005548007800F0200048B95348007800F0EF
:1038B000400020B129465848FFF759FB12E04F4815
:1038C00090ED000ADFED4E0AB4EEE00AF1EE10FAD8
:1038D00008D2294690ED000ABDEEC00A10EE100A8B
:1038E000FFF745FB4448007800F0080010BB424851
:1038F000007800F01000E8B93F48007800F02000A0
:10390000C0B93D48007800F0400098B994B13B48F8
:1039100090ED000ADFED3A0AB4EEE00AF1EE10FA9B
:1039200008DDFEF7A9FE28B13348C07910B90020A0
:10393000FFF735FA2CB13048C07910B9FFF758FAC3
:1039400027E02D48007914280EDAFEF795FE28B1FD
:103950000020B1EE480AFFF7FAFA1AE00020B1EEB3
:10396000480AFFF7F4FA14E023480079B4280EDD82
:10397000FEF782FE28B10020B0EE480AFFF7E7FA12
:1039800007E00020B0EE480AFFF7E1FA01E0FFF798
:103990002FFA00BFB4E6214801680068401C1F4AA6
:1039A0001060322907D21E4840891E490968084420
:1039B0001C4908600BE01B4800683221B0FBF1F0A5
:1039C0001949086000201549086016490860174821
:1039D00001680068401C154A106029E09001002031
:1039E000E0010020DC010020D8010020D4010020EB
:1039F000D0010020000000004C0500208C000020B9
:103A000000606A463333333FCDCC4C3ED4FEFFFFDB
:103A100050FBFFFF7CFCFFFF24FAFFFF6802002041
:103A2000000500206C0200207000002070020020C1
:103A3000322907D2F8480089F84909680844F7494B
:103A400008600BE0F54800683221B0FBF1F0F44962
:103A500008600020F3490860F0490860F2480168F6
:103A60000068401CF04A1060322907D2EA48808979
:103A7000EE4909680844ED4908600BE0EB4800682E
:103A80003221B0FBF1F0EA4908600020E649086005
:103A9000E6490860E74801680068401CE54A106094
:103AA000322907D2DC48C089E34909680844E24961
:103AB00008600BE0E04800683221B0FBF1F0DF491C
:103AC00008600020DB490860DB490860DC480168C9
:103AD0000068401CDA4A1060322907D2CE480088BC
:103AE000D84909680844D74908600BE0D548006800
:103AF0003221B0FBF1F0D44908600020D0490860C1
:103B0000D0490860D14801680068401CCF4A106065
:103B1000322907D2C0484088CD4909680844CC49B9
:103B200008600BE0CA4800683221B0FBF1F0C949D7
:103B300008600020C5490860C5490860C64801689A
:103B40000068401CC44A1060322907D2B2488088FD
:103B5000C24909680844C14908600BE0BF480068D1
:103B60003221B0FBF1F0BE4908600020BA4908607C
:103B7000BA490860704710B5BA48407800F00200B2
:103B8000C0B9B848407800F0040098B10122802103
:103B9000B54802F0A7F94FF48041B44802F084F927
:103BA00020B901224021B04802F09CF90120B0491F
:103BB00008700FE0AE48007860B100224021AA48AA
:103BC00002F090F900228021A74802F08BF9002032
:103BD000A749087010BD10B540F2DB10A549086078
:103BE00001228021A04802F07DF9002410E006E0C7
:103BF000FCF760FE00B109E0012005F055FB4FF431
:103C000080419A4802F050F90128F1D000BF641CAD
:103C1000642CECDB40F2DC5005F046FB0122910203
:103C2000914802F05FF94FF4FA7005F03DFB012274
:103C300040218D4802F056F900240FE006E0FCF721
:103C400039FE00B108E0012005F02EFB0121874874
:103C500002F02AF90128F2D000BF641C642CEDDBCD
:103C600000240FE006E0FCF725FE00B108E001208B
:103C700005F01AFB01217D4802F016F90028F2D068
:103C800000BF641C642CEDDB4FF47A7005F00CFB74
:103C900000224FF48061744802F024F940F2DC50B5
:103CA00005F002FB00240FE006E0FCF703FE00B184
:103CB00008E0012005F0F8FA01216C4802F0F4F860
:103CC0000128F2D000BF641C642CEDDB4FF4FA70C5
:103CD00005F0EAFA00224021634802F003F94FF4AC
:103CE000FA6005F0E1FA002280215F4802F0FAF85C
:103CF00000240FE006E0FCF7DDFD00B108E0012044
:103D000005F0D2FA0221594802F0CEF80128F2D08B
:103D100000BF641C642CEDDB10BD10B540F2DB105D
:103D20005449086006E0FCF7C5FD00B107E001203A
:103D300005F0BAFA44480068B0F5F07FF3DC00BF44
:103D400001224021484802F0CDF841F2883005F0C8
:103D5000ABFA0A20484981F82B0081F8270081F846
:103D60002300012081F8220081F8260081F82A0032
:103D700041F2883005F098FA40F23A203D49086057
:103D800000224021384802F0ADF8002410E006E09F
:103D9000FCF790FD00B109E0012005F085FA4FF431
:103DA0008061324802F080F80128F1D000BF641C25
:103DB000642CECDB40F6B83005F076FA00202E4992
:103DC00081F8230081F8270081F82B0010BD10B581
:103DD0002448407800F0080050B12248407800F0B4
:103DE000020028B9012280211F4802F07BF811E06F
:103DF0001C48007800F0020060B1002280211A48BF
:103E000002F070F800201C4981F82B0081F827008F
:103E100081F8230010BD000000050020740200207E
:103E20007400002070020020780200207C02002034
:103E30007C00002080020020840200207800002006
:103E4000880200208C0200208000002090020020C8
:103E50009402002084000020980200209C02002090
:103E6000880000204C0500200004024000100240A1
:103E7000A0020020EC0000200400002010B5F8484B
:103E8000407800F0400098B34FF48061F54802F0AC
:103E90000BF868BB4FF41670F34908601E20F34915
:103EA00081F82B0081F8270081F82300002081F899
:103EB000220081F8260081F82A0042F2107005F0F5
:103EC000F3F90122D102EA4802F00CF842F2107034
:103ED00005F0EAF90020E54981F82B0081F8270078
:103EE00081F8230000224FF40061E14801F0FAFF5D
:103EF00010BD10B5DA48407800F08000002830D0BE
:103F00001420DA4981F82B0081F8270081F823007A
:103F1000012081F8220081F8260081F82A0000247F
:103F200010E006E0FCF7C6FC00B109E0012005F056
:103F3000BBF94FF48061CB4801F0B6FF0128F1D006
:103F400000BF641C642CECDB40F6B83005F0ACF923
:103F50000020C64981F8230081F8270081F82B0052
:103F600000BF10BD10B50A20FEF719FF7D20BF4924
:103F700081F82B0081F8270081F82300002081F8C8
:103F8000220081F8260081F82A0043F6982005F0E7
:103F90008BF90122D102B64801F0A4FF41F6583056
:103FA00005F082F90020B14981F82B0081F8270043
:103FB00081F8230000224FF40061AD4801F092FF28
:103FC00010BD70B52DED068B04460D46A948056061
:103FD000A9480460492C0AD19FEDA80AA84880EDA1
:103FE000000AA84800681438A7490860A4E24A2CCF
:103FF0000AD19FEDA60AA24880ED000AA1480068F8
:104000001438A149086097E24B2C0AD19FEDA00A11
:104010009B4880ED000A9B48006814389A49086064
:104020008AE24C2C0AD19FED9B0A954880ED000A4C
:10403000944800681438944908607DE24D2C0AD1F8
:104040009FED950A8E4880ED000A8E48006814386E
:104050008D49086070E24E2C0AD19FED900A884885
:1040600080ED000A8748006814388749086063E2D9
:104070004F2C0AD19FED8A0A814880ED000A8148C1
:10408000006814388049086056E2502C0AD19FED30
:10409000850A7B4880ED000A7A48006814387A491E
:1040A000086049E2512C0AD19FED7F0A744880EDE7
:1040B000000A744800681438734908603CE2522CC6
:1040C0000AD19FED7A0A6E4880ED000A6D480068BB
:1040D00014386D4908602FE2532C0AD19FED740A01
:1040E000674880ED000A6748006814386649086030
:1040F00022E2542C0AD19FED6F0A614880ED000A3C
:104100006048006814386049086015E2552C0AD1EF
:104110009FED690A5A4880ED000A5A480068143831
:104120005949086008E2562C0AD19FED640A5448A8
:1041300080ED000A53480068143853490860FBE1D9
:10414000572C0AD19FED5E0A4D4880ED000A4D487C
:10415000006814384C490860EEE1582C0AD1B2EEE0
:104160000F0A474880ED000A46480068143846495F
:104170000860E1E1592C0AD19FED520A404880EDD8
:10418000000A4048006814383F490860D4E15A2CBE
:104190000AD19FED4D0A3A4880ED000A394800687F
:1041A000143839490860C7E15B2C0AD19FED470AF2
:1041B000334880ED000A33480068143832490860FB
:1041C000BAE15C2C0AD19FED420A2D4880ED000A2D
:1041D0002C48006814382C490860ADE15D2C0AD1E8
:1041E0009FED3C0A264880ED000A264800681438F6
:1041F00025490860A0E15E2C0AD19FED370A2048CE
:1042000080ED000A1F48006814381F49086093E1D8
:104210005F2C0AD19FED310A194880ED000A194838
:10422000006811381849086086E1602C0AD19FEDBA
:104230002C0A134880ED000A124800681138124910
:10424000086079E1612C4DD1B3EE010A0C4880ED94
:10425000000A0C48006811380B4908606CE1000046
:104260004C05002000100240EC000020040000205B
:10427000000402403C0200203802002066666A41C9
:1042800030020020940000204C02002033336B41A8
:1042900000006C419A996D4166666E4133336F41FF
:1042A000CDCC70419A997141666672413333734146
:1042B00000007441CDCC74419A997541666676418F
:1042C00033337741CDCC78419A99794166667A410A
:1042D00000007C419A997D4133337F41666680417D
:1042E00033338141622C0AD1B3EE010AFB4880EDE1
:1042F000000AFB4800681138FA4908601CE1632C89
:104300000AD19FEDF90AF54880ED000AF4480068EB
:104310001138F44908600FE1642C0AD19FEDF20ACC
:10432000EE4880ED000AEE4800681138ED4908605B
:1043300002E1652C0AD19FEDED0AE84880ED000A04
:10434000E74800681138E7490860F5E0662C0AD1B3
:104350009FEDE60AE14880ED000AE1480068113867
:10436000E0490860E8E0672C0AD19FEDE10ADB48EC
:1043700080ED000ADA4800681138DA490860DBE0AD
:10438000682C0AD19FEDDA0AD44880ED000AD4489F
:1043900000681138D3490860CEE0692C0AD19FED3E
:1043A000D50ACE4880ED000ACD4800681138CD49C5
:1043B0000860C1E06A2C0AD19FEDCE0AC74880EDA3
:1043C000000AC74800681138C6490860B4E06B2C81
:1043D0000AD1B3EE020AC14880ED000AC048006865
:1043E0001338C0490860A7E06C2C0AD1B3EE020A6A
:1043F000BA4880ED000ABA4800681338B949086025
:104400009AE06D2C0AD19FEDBC0AB44880ED000AF9
:10441000B34800681338B34908608DE06E2C0AD1A8
:104420009FEDB30AAD4880ED000AAD48006813382F
:10443000AC49086080E06F2C0AD19FEDB00AA74814
:1044400080ED000AA64800681338A649086073E0AA
:10445000702C0AD19FEDAA0AA04880ED000AA0485E
:10446000006813389F49086066E0712C0AD19FEDFF
:10447000A50A9A4880ED000A9948006813389949BE
:10448000086059E0722C0AD19FED9A0A934880ED9A
:10449000000A934800681338924908604CE0732C76
:1044A0000AD19FED990A8D4880ED000A8C4800687A
:1044B00013388C4908603FE0742C0AD19FED930AB1
:1044C000864880ED000A86480068133885490860F0
:1044D00032E0752C0AD19FED8E0A804880ED000AEB
:1044E0007F48006813387F49086025E0762C0AD1A0
:1044F000B3EE020A794880ED000A79480068133863
:104500007849086018E0772C0AD1B3EE020A7348A4
:1045100080ED000A724800681338724908600BE0A9
:10452000782C09D19FED7B0A6C4880ED000A6C481D
:10453000006813386B490860962D21DB992D1FDC2C
:10454000A5F1960005F0B9FC41EC1A0B9FED720B3A
:1045500053EC102B05F0D0FB41EC190B9FED700BC9
:1045600053EC102B05F0C5FB41EC180B05F0C9FC12
:104570006D4908606D480068401F6D490860F3E3AD
:104580009A2D21DB9C2D1FDCA5F1960005F095FCF2
:1045900041EC1A0B9FED670B53EC102B05F0ACFBB5
:1045A00041EC190B9FED5E0B53EC102B05F0A1FBBA
:1045B00041EC180B05F0A5FC5B4908605B480068FE
:1045C000401F5B490860CFE39D2D21DBA02D1FDC40
:1045D000A5F1960005F071FC41EC1A0B9FED570B0D
:1045E00053EC102B05F088FB41EC190B9FED550B9C
:1045F00053EC102B05F07DFB41EC180B05F081FC12
:104600004949086049480068401F49490860ABE3D0
:10461000A12D21DBA22D1FDCA5F1960005F04DFC9C
:1046200041EC1A0B9FED490B53EC102B05F064FB8A
:1046300041EC190B9FED430B53EC102B05F059FB8C
:1046400041EC180B05F05DFC3749086037480068FD
:10465000401F3749086087E3A32D21DBA52D1FDC10
:10466000A5F1960005F029FC41EC1A0B9FED390BE2
:1046700053EC102B05F040FB41EC190B9FED310B77
:1046800053EC102B05F035FB41EC180B05F039FC11
:104690002549086025480068401F2549086063E3F4
:1046A000AA2D0CDBAE2D0ADC9FED2C0A1E4880EDF6
:1046B000000A1E480068401F2949086054E3B12DD4
:1046C00052DBB22D50DC9FED270A174880ED000A1F
:1046D00016480068401F2249086045E33002002068
:1046E000940000204C0200209A99894133338B4179
:1046F000CDCC8C4166668E4166668C4133338D41EC
:104700009A998D4100008E41CDCC8E4133338F413B
:104710009A998F41CDCC9041295C8FC2F528CC3F2E
:10472000CDCCCCCCCCCC23403402002044020020A1
:104730005002002079E9263108ACBC3F83C0CAA1F1
:1047400045B6B33F6666666666662440A4703D0A59
:10475000D7A3B03F08AC1C5A643BAF3F6666164116
:10476000EC000020AE471341B42D07DBB52D05DC6E
:104770009FEDFA0AFA4880ED000AF5E2B62D07DB54
:10478000B82D05DC9FEDF70AF54880ED000AEBE255
:10479000BB2D07DBBC2D05DC9FEDF30AF04880ED57
:1047A000000AE1E2BD2D07DBC02D05DC9FEDEF0A1D
:1047B000EB4880ED000AD7E2C12D07DBC32D05DCF5
:1047C0009FEDEB0AE64880ED000ACDE2C42D07DB41
:1047D000C72D05DC9FEDE70AE14880ED000AC3E242
:1047E000A5F163006E286FD2DFE800F037424D5824
:1047F000636F7A85909BA6F2FDEFEEEDECEBEAE9B4
:10480000E8E7E6E5E4E3E2E1E0DFDEDDDCDBDAD9A0
:10481000D8D7D6D5D4D3D2D1D0CFCECDCCCBCA6EEB
:104820006E6E6E6E6E6E6E6E6E6E6E6E6E6E6EC94D
:10483000C8C7C6C5C4C3C2C1C0BF6E6EBE6E6E6EF1
:104840006E6EBDBCBBBAB9B86E6E6E6E6E6E6E6EBD
:104850006E6E6EB7B6B5B4B3B2B19FEDC70AC048BD
:1048600080ED000AC54800682838C549086001E2A3
:104870009FEDC40ABA4880ED000AC0480068283895
:10488000BF490860F6E19FEDC00AB54880ED000A17
:10489000BA4800682838BA490860EBE19FEDBB0AC6
:1048A000AF4880ED000AB54800682838B449086070
:1048B000F9E3B2EE070AAA4880ED000AAF480068A3
:1048C0002838AF490860EEE3E7E39FEDB10AA4485A
:1048D00080ED000AA94800682838A9490860E2E389
:1048E0009FEDAC0A9E4880ED000AA4480068283875
:1048F000A3490860D7E39FEDA80A994880ED000A14
:104900009E48006828389E490860CCE39FEDA30AC2
:10491000934880ED000A9948006828389849086053
:10492000C1E39FED9F0A8E4880ED000A934800681E
:10493000283893490860B6E39FED9A0A884880EDCD
:10494000000A8E48006828388D490860ABE399E377
:1049500034E328E31CE310E304E3F8E2ECE2E0E2F2
:10496000D4E2C8E2BCE2B0E2A4E298E28CE280E2E7
:1049700074E268E25CE250E244E238E22CE220E2D7
:1049800014E208E2FCE1F0E1E3E1D7E1CBE1BFE1D1
:10499000B3E1A7E19BE18FE183E177E16BE15FE1C7
:1049A00053E147E13BE12FE123E117E1CBE0BFE039
:1049B000B3E0A7E09BE08FE083E077E06BE05FE0AF
:1049C00053E047E03BE02FE023E017E00BE0FFE798
:1049D0009FED750A624880ED000A68480068283833
:1049E000674908605FE39FED710A5D4880ED000A4A
:1049F0006248006828386249086054E39FED6C0AF9
:104A0000574880ED000A5D48006828385C49086016
:104A100049E39FED680A524880ED000A5748006854
:104A20002838574908603EE39FED630A4C4880ED03
:104A3000000A5248006828385149086033E39FED66
:104A40005B0A474880ED000A4C48006828384C490A
:104A5000086028E39FED560A414880ED000A474868
:104A600000682838464908601DE39FED520A3C481B
:104A700080ED000A4148006828384149086012E387
:104A80009FED4D0A364880ED000A3C480068283802
:104A90003B49086007E39FED490A314880ED000A71
:104AA00036480068283836490860FCE29FED440A21
:104AB0002B4880ED000A31480068283830490860EA
:104AC000F1E29FED400A264880ED000A2B4800687D
:104AD00028382B490860E6E29FED3B0A204880ED2C
:104AE000000A26480068283825490860DBE29FED67
:104AF000370A1B4880ED000A204800682838204902
:104B00000860D0E29FED320A154880ED000A1B488C
:104B1000006828381A490860C5E29FED2E0A10483F
:104B200080ED000A15480068283815490860BAE287
:104B30009FED280A0A4880ED000A104800682838CE
:104B40000F490860AFE29FED240A054880ED000A96
:104B50000A48006828380A490860A4E2E17A14414A
:104B600034020020F62814411F85134148E1124108
:104B700052B812419A990941CDCC344144020020E7
:104B8000500200209A9935416666364133333741E9
:104B9000CDCC38419A99394166663A4133333B412D
:104BA00000003C4133332F4152B82E41713D2E411C
:104BB0008FC22D41AE472D41CDCC2C41EC512C4123
:104BC0000AD72B41295C2B4148E12A4166662A41DC
:104BD00085EB2941A4702941E17A2841B2EE050A0A
:104BE000FC4880ED000AFC4800682838FB49086052
:104BF00059E29FEDFB0AF74880ED000AF64800688D
:104C00002838F64908604EE29FEDF60AF14880ED3B
:104C1000000AF14800682838F049086043E29FED37
:104C2000F20AEC4880ED000AEB4800682838EB49AE
:104C3000086038E29FEDED0AE64880ED000AE6489C
:104C400000682838E54908602DE29FEDE90AE1484F
:104C500080ED000AE04800682838E049086022E258
:104C60009FEDE40ADB4880ED000ADB480068283845
:104C7000DA49086017E29FEDE00AD64880ED000AA5
:104C8000D54800682838D54908600CE29FEDDB0A5A
:104C9000D04880ED000AD04800682838CF49086025
:104CA00001E29FEDD70ACB4880ED000ACA480068B0
:104CB0002838CA490860F6E19FEDD20AC54880ED60
:104CC000000AC54800682838C4490860EBE19FED38
:104CD000CE0AC04880ED000ABF4800682838BF49A6
:104CE0000860E0E19FEDC90ABA4880ED000ABA48C1
:104CF00000682838B9490860D5E1B2EE060AB5481F
:104D000080ED000AB44800681738B4490860CAE169
:104D10009FEDBF0AAF4880ED000AAF480068173822
:104D2000AE490860BFE19FEDBB0AAA4880ED000ACA
:104D3000A94800681738A9490860B4E1B2EE040A2E
:104D4000A44880ED000AA4480068C01FA349086079
:104D5000A9E19FEDB10A9F4880ED000A9E480068D6
:104D6000C01F9E4908609EE19EE19FEDAC0A9948F4
:104D700080ED000A98480068C01F9849086092E1D9
:104D80009FEDA70A934880ED000A93480068C01F72
:104D90009249086087E19FEDA30A8E4880ED000AE2
:104DA0008D480068C01F8D4908607CE19FED9E0A18
:104DB000884880ED000A88480068C01F874908605D
:104DC00071E19FED9A0A834880ED000A82480068ED
:104DD000401F8249086066E19FED940A7D4880ED9E
:104DE000000A7D480068401F7C4908605BE19FED38
:104DF000900A784880ED000A77480068401F77499C
:104E0000086050E19FED8B0A724880ED000A7248FD
:104E10000068401F7149086045E19FED800A6D48B8
:104E200080ED000A6C480068401F6C4908603AE158
:104E30009FED810A674880ED000A67480068401FBF
:104E4000664908602FE19FED7D0A624880ED000A07
:104E500061480068401F6149086024E19FED780ABD
:104E60005C4880ED000A5C480068401F5B490860B0
:104E700019E19FED740A574880ED000A5648006812
:104E8000401F564908600EE19FED6F0A514880EDC2
:104E9000000A51480068401F5049086003E19FED37
:104EA0006B0A4C4880ED000A4B480068801F4B4954
:104EB0000860F8E09FED660A464880ED000A464823
:104EC0000068401F45490860EDE09FED620A4148D7
:104ED00080ED000A40480068143840490860E2E06C
:104EE0009FED5D0A3B4880ED000A3B48006814389E
:104EF0003A490860D7E09FED590A364880ED000A2C
:104F000035480068143835490860CCE09FED540AF4
:104F1000304880ED000A3048006814382F49086096
:104F2000C1E09FED500A2B4880ED000A2A48006836
:104F300014382A490860B6E09FED4B0A254880EDF9
:104F4000000A25480068143824490860ABE09FED4A
:104F5000470A204880ED000A1F480068401F1F498B
:104F60000860A0E09FED420A1A4880ED000A1A4846
:104F70000068401F1949086095E09FED3E0A1548FA
:104F800080ED000A14480068401F144908608AE058
:104F90009FED390A0F4880ED000A0F480068401F56
:104FA0000E4908607FE09FED350A0A4880ED000A4F
:104FB00009480068401F0949086074E09FED300A05
:104FC000044880ED000A04480068401F0349086057
:104FD00069E000003402002044020020500200205A
:104FE0001F8527413D0A27415C8F26417B142641BE
:104FF0008FC22541A4702541B81E2541CDCC244146
:10500000E17A2441F62824410AD723411F85234110
:10501000CDCC30419A99314133331F4166661641F8
:1050200085EB1541A4701541CDCC1441CDCC104178
:10503000295C1341AE4713410AD715411F8515411D
:10504000AE471541C3F5144100001441355E1341CC
:1050500014AE13418FC21541295C1741C3F51841A5
:105060005C8F1A41F6281C418FC21D41AE47114189
:10507000C3F51041D7A31041EC51104166660E41B3
:1050800033330B419FEDFB0AFB4880ED000AFB48E0
:105090000068401FFA49086005E09FEDFA0AF648EB
:1050A00080ED000A00BF00BF00EE104AB8EEC00A53
:1050B000F548D0ED000A20EE200AF2EE040A80EE58
:1050C000201ABDEEC10AF14880ED000A00EE105A28
:1050D000B8EEC00AE848D0ED000A20EE200AF2EE51
:1050E000040A80EE201ABDEEC10AE94880ED000AEC
:1050F0004FF48061E74800F0D7FE28BBE64800780F
:1051000010BBE648807970B1E5480068E549086061
:10511000E3480068B0F50F7F1EDA01228021E248E3
:1051200000F0E0FE18E0DD48C07968B1D4480068BE
:10513000DC490860D2480068B0F50F7F05DA01222B
:105140008021D94800F0CEFE06E0CD48006818B9AD
:105150004FF41670CA490860BDEC068B70BD10B5DF
:10516000CE488079002846D04FF48061C94800F0CD
:105170009BFE00283FD1C948007800F0800000283D
:1051800039D00120C44908700A20FDF708FEBF4845
:105190000078C64981F82B0081F8270081F82300A8
:1051A000002081F8220081F8260081F82A0002E020
:1051B000642004F079F8B948007800F080000028F5
:1051C000F6D10122D102B84800F08CFE43F69820B7
:1051D00004F06AF80020B54981F82B0081F8270017
:1051E00081F8230000224FF40061AF4800F07AFEFE
:1051F0000020A94908704FF48061A64800F054FED1
:1052000000283ED1A548007800F08000C8B30120F6
:10521000A14908700A20FDF7C2FD9D480078A34906
:1052200081F82B0081F8270081F82300002081F805
:10523000220081F8260081F82A0002E0642004F0B0
:1052400033F89648007800F080000028F6D101225B
:10525000D102954800F046FE43F6982004F024F869
:105260000020924981F82B0081F8270081F8230063
:1052700000224FF400618C4800F034FE0020864983
:10528000087010BD10B52DED0E8B0446A4F164001E
:10529000002801DB014600E0414200EE101AB8EEA2
:1052A000C08AB5EEC08AF1EE10FA35D018EE100AB9
:1052B00004F014FE41EC1E0B9FED7D0B53EC102B04
:1052C00004F01AFD41EC1D0BB0EE4D0AF0EE6D0A34
:1052D00005F0C2F9B0EE40CAF0EE60CA9FED760B61
:1052E00053EC102B51EC1C0B04F003FD41EC1B0B99
:1052F0009FED730B53EC102B04F0FEFC41EC1A0BEA
:105300009FED710B53EC102B04F04FFC41EC190B8B
:1053100004F0F7FD08EE900AB0EE680ABDEC0E8BC3
:1053200010BD10B52DED028B04462046FFF7AAFFF5
:10533000B0EE408A5948C079D8B1A4F16400002881
:1053400001DB014600E04142022903DC0020FDF7B9
:105350004FFD0EE0622C05DA0020B1EE480AFDF7A1
:10536000F6FD06E0662C04DD0020B0EE480AFDF7ED
:10537000EEFDBDEC028B10BD10B50446602C05DAC5
:1053800000220121484800F0ADFD0CE0682C05DD4D
:1053900000220121444800F0A5FD04E0012211464D
:1053A000414800F09FFD10BD10B52DED088BB0EE0B
:1053B000408A9FED340AF0EE408A9FED320AB0EE4B
:1053C000409A9FED430A08EE080A10EE101A0846AC
:1053D00004F084FD41EC1B0BB0EE4B0AF0EE6B0ABF
:1053E00006F072F9B0EE40AAF0EE60AA51EC1A0B8A
:1053F00004F087FD09EE900ADFED360A89EEA00A77
:10540000DFED350A20EE200AB0EE409A9FED330A18
:10541000B4EEC09AF1EE10FA04DD9FED300AB0EE62
:10542000409A0AE09FED2E0AB4EEC09AF1EE10FA0F
:1054300003D29FED2B0AB0EE409A9FED260A39EE7B
:10544000C00A9FED241AC0EE010A9FED261A9FEDB7
:10545000260A00EE810AF0EE408A9FED240AF4EE5F
:10546000C08AF1EE10FA43DD9FED200AF0EE408A8B
:1054700049E0000066660641340200204402002034
:1054800050020020000000003002002038020020FE
:105490003C02002000100240670200204C05002062
:1054A0004C020020EC000020000402400400002018
:1054B0007B14AE47E17AA4BF000000000000F03F7B
:1054C000B81E85EB51B8AE3FEC51B81E85EBC13F1D
:1054D0000000C84500C02E440000E64200007A43A8
:1054E000000048420000C842008018440080224466
:1054F0009FEDFE0AF4EEC08AF1EE10FA03D29FEDA2
:10550000FB0AF0EE408ABDEEC90AF94880ED000AB8
:10551000BDEEE80AF74880ED000ABDEC088B10BD2F
:1055200010B52DED0A8BB0EE408A1FED2A0AF0EE81
:10553000408A1FED2C0AB0EE409A9FEDEF0AC8EEAC
:10554000000A10EE904A204604F0C8FC41EC1C0B07
:105550009FEDEA1BB0EE4C0AF0EE6C0A05F028FA5B
:10556000B0EE40BAF0EE60BA9FEDE60B53EC102BB4
:1055700051EC1B0B04F0C0FB41EC1A0B04F0C1FC16
:1055800009EE100A1FED2B0AB4EEC09AF1EE10FAE4
:1055900004DD1FED2E0AB0EE409A0AE01FED300A3E
:1055A000B4EEC09AF1EE10FA03D21FED330AB0EE5A
:1055B000409A9FEDD10A78EE400A9FEDCF1A80EE17
:1055C000810A5FED390A20EE200A10EE104A2046CB
:1055D00004F084FC41EC1C0B9FEDCC0B53EC102B26
:1055E00004F08AFB41EC1B0B9FEDCA0B53EC102B14
:1055F00004F0DBFA41EC1A0B04F083FC08EE900A8D
:105600009FEDC60AF4EEC08AF1EE10FA04DD9FEDBC
:10561000C30AF0EE408A0AE09FEDB40AF4EEC08AB5
:10562000F1EE10FA03D29FEDB10AF0EE408ABDEE22
:10563000C90ABB4880ED000ABDEEE80AB94880ED12
:10564000000ABDEC0A8B10BDB7480068B74909686D
:10565000884203DAB5480068B3490860B248006878
:10566000B3490968884203DDB1480068AE49086063
:10567000B0490968AC4A1268881A002801DB014663
:1056800000E04142012930DDAA480068A6490968C6
:10569000884204DD0120A84981F82E0003E00020A3
:1056A000A54981F82E00A34909689F4A1268881A03
:1056B000002801DB014600E0414201EB81019F4AE5
:1056C000116010460068FA2802DDFA2011460860D1
:1056D0009A480068322802DA3220984908609748D0
:1056E0000078954981F82F0003E00020924981F865
:1056F0002F00704710B59248407800F00200A0B12A
:105700008F48407800F0040078B1874800688849E5
:105710000968884209DA84480068401C82490860A8
:105720004FF4967003F0C0FD18E08548407800F013
:10573000020098B18248407800F0200070B17A48A9
:1057400000687A490968884208DD77480068401E89
:10575000754908604FF4C87003F0A6FD10BD05E060
:105760001120FCF77EFE0F2003F09EFDF8E719E004
:105770007348C07920B173480078FFF7D2FD0AE082
:105780006F48007800F0010010B1FDF77DFF02E0E6
:105790000020FDF704FBFEF7FEF8FFF755FF03209E
:1057A00003F082FDE4E704E0FDF78BFE032003F045
:1057B0007BFDF9E71FB5FBF77EF9FBF7BBF9FBF7BC
:1057C0000AFCFBF7CAFCFBF757FDFBF748FEFBF7AB
:1057D0001CFA4FF4E130FBF722FF4FF4E130FBF706
:1057E000A7FF4FF4E130FCF730F84FF46120FCF7ED
:1057F00064F94FF4E130FCF7FDF9FCF747FFFCF7E3
:1058000051FB0020504908700120504908700020C9
:1058100000900190029003464FF480724CA10390D7
:10582000504803F002FB00200090019002900346D4
:105830004FF480724CA10390504803F0F6FA042014
:105840004F49087001204F4908704FF416703649CF
:105850000860A6E049E0FFF74DFFFEF78CF9FEF780
:10586000B6FA494890ED000AB8EEC00AFFF79CFD71
:105870004648008800EE100AB8EE400AFFF750FED6
:10588000274801681A480068FEF79BFB2D480078FE
:10589000FFF772FDFEF72DFB2948407800F002006B
:1058A00030B92748407800F0200008B1FEF793F99E
:1058B0002348407800F0020030B92148407800F0D9
:1058C000100008B1FEF729FA1D48407800F00200E8
:1058D00030B91B48407800F0400008B1FEF7CEFA1E
:1058E000FFF73DFC012003F0DFFC51E0008009449C
:1058F000900000209400002000A07F459A9999997B
:105900009999F13F0000000000805A406666666683
:105910006666E63F0000000000C0824000001644BA
:105920004002002044020020EC000020F000002093
:10593000F40000208000002004000020100200205D
:105940004C05002028010020A00000206602002055
:105950007461736B526F626F74416E616C797469BC
:1059600063730000A75700087461736B4469657521
:105970004B6869656E436F43617500006F5700089F
:10598000F1010020EB010020780000202A01002016
:105990001348007800F0010000287FF45CAFFDF7A9
:1059A000FEF957E71FB500200090019002900346D2
:1059B0004FF480720BA103900D4803F036FA0020DB
:1059C00000900190029003464FF4807209A1039069
:1059D0000B4803F02AFA03F041FE002004B010BD8A
:1059E0004C0500207461736B4D61696E000000000E
:1059F000B55700087461736B4779726F000000003F
:105A00005F5700080CB500200190009072480068B4
:105A100040F480307049086000BF6F48006800F4AF
:105A2000003000900198401C0190009818B901982E
:105A3000B0F5A06FF1D16848006800F4003010B1F3
:105A40000120009001E0002000900098012846D13C
:105A500061484030006840F080505F494031086044
:105A60005E48006840F480405C4908605A4808304D
:105A700000685949083108600846006840F4004051
:105A800008600846006840F4A05008605448091FA8
:105A90000860081F006840F08070091F086000BFA0
:105AA0004D48006800F000700028F9D040F2056011
:105AB0004C49086048480830006820F00300464917
:105AC000083108600846006840F00200086000BF26
:105AD00041480830006800F00C000828F8D10CBDDF
