:020000040800F2
:10000000103400202564000845020008470200085B
:100010004B0200084F0200085302000800000000D5
:100020000000000000000000000000009D0100082A
:100030005702000800000000E10100083F9400089A
:100040003F6400083F6400083F6400083F64000804
:100050003F6400083F6400083F6400083F640008F4
:10006000A5040008E90400083F640008190300081B
:10007000FB020008570300083F64000875020008EF
:100080003F640008810200083F6400083F640008E4
:100090003F6400083F6400083F6400083F640008B4
:1000A0003F640008C1030008ED0300083F64000836
:1000B000EF0300081D040008490400083F6400081D
:1000C0003F6400083F6400083F640008A104000882
:1000D0003F6400085D0200083F6400083F640008B8
:1000E0003F6400083F6400083F6400083F64000864
:1000F0003F6400083F6400083F64000833030008C1
:100100003F6400083F64000875040008A304000869
:100110003F6400083F640008930300089F03000841
:100120003F6400089B020008CD0200083F640008FD
:100130003F6400083F6400083F6400083F64000813
:100140003F6400083F6400083F6400083F64000803
:10015000ED0200083F6400083F6400083F640008A7
:100160003F6400083F6400083F6400083F640008E3
:100170003F6400083F6400083F6400083F640008D3
:100180003F6400083F640008DFF80CD00AF0BCFCB4
:10019000004800474161000810340020234B1968D3
:1001A0000868B0E8F04F80F309884FF0000080F352
:1001B000118870470000000003480068006880F361
:1001C000088862B600DF00BF08ED00E0DFF80C0031
:1001D000016841F470010160704700BF88ED00E0E4
:1001E000EFF30980114B1A681EF0100F08BF20EDC5
:1001F000108A20E9F04F106008B54FF0140080F32A
:10020000118809F0E4FC4FF0000080F31188BDE88C
:10021000084019680868B0E8F04F1EF0100F08BFDA
:10022000B0EC108A80F30988704700BF4C040020AE
:10023000EFF311804FF0140181F31188704780F3C0
:1002400011887047704700BFFEE700BFFEE700BFA0
:10025000FEE700BFFEE770477047704710B540F2F9
:100260002551A24808F0FFF918B120219F4808F055
:10027000F1F910BD10B59E499E4807F029F910BD4F
:1002800010B59D499B48303007F0F8F820B19A49E5
:100290009848303007F01CF910BD10B597499848C0
:1002A00007F0ECF888B19549954807F011F901F08D
:1002B000BFFD0021924807F037F80421904807F06D
:1002C00054F801218E4807F02FF810BD10B58D4964
:1002D0008B48183007F0FCF88B4840788A49097839
:1002E00040EA012000B28949088010BD10B5884954
:1002F0008348603007F0ECF810BD10B57F497D48A9
:10030000483807F0BBF830B17C497A48483807F0E4
:10031000DFF800F0B7FA10BD10B57E4975486038B7
:1003200007F0ACF820B17B497248603807F0D0F88C
:1003300010BD10B578496F48483007F09FF848B1B4
:1003400000216C48483006F0EFFF73496948483097
:1003500007F0BEF810BD10B56A496648303807F09E
:100360008DF8A8B167496348303807F0B1F801F05B
:1003700020FC00215F48303806F0D6FF04215D489C
:10038000303806F0F2FF01215A48303806F0CCFF31
:1003900010BD10B50121614807F0C2FE10BD10B5B7
:1003A00001215F4807F0BCFE7A2050498880012176
:1003B0005C4808F067F801215B4808F063F810BD5D
:1003C00010B50121594807F0ABFE5848008800F0ED
:1003D000100028B156480068401E5549086004E0E6
:1003E00053480068401C5249086010BD704710B562
:1003F0000121880707F094FE4FF08040008800F04C
:10040000100028B14B480068401E4A49086004E0CB
:1004100048480068401C4749086010BD10B50121DC
:10042000454807F07DFE4448008800F0100028B1E0
:1004300042480068401E4149086004E03F480068A7
:10044000401C3E49086010BD10B501213C4807F032
:1004500067FE3B48008800F0100028B1394800686A
:10046000401E3849086004E036480068401C3549A1
:10047000086010BD10B50121334807F051FE324825
:10048000008800F0100028B130480068401E2F4955
:10049000086004E02D480068401C2C49086010BD2D
:1004A0007047704710B5042007F0AAF8D8B1202192
:1004B000274806F02EF90421264806F005F9012800
:1004C00004D10021164807F0ABF909E004212148C6
:1004D00006F0FAF820B9124807F0A6F91E4908609C
:1004E00004201E49086010BD704700000010014044
:1004F00020800020706002400080202000880010D2
:100500002864024000802010680600208C00002033
:10051000008800202080001000800028001000408B
:100520000014004000480040001401400000014059
:100530006C000020700000200004004074000020C7
:100540000008004088000020000C004078000020D7
:1005500000000240000C024068000020143C0140F2
:1005600070B50446204609F01BFF05462146FE48AB
:1005700009F01DFFA0B195222146FB4809F004FFB8
:100580000021FA4806F0D0FEF748F8490C3108601F
:10059000F648B838C0F8BC500121F44806F0C4FE53
:1005A00070BD70B50446002510E0605D68B1615D06
:1005B000EF4807F092FF00BF8021ED4808F03DF8BA
:1005C0000028F9D0681CC5B200E070BDEDE770B539
:1005D000044600250FE05CB12146E54807F07DFFA9
:1005E00000BF8021E24808F028F80028F9D000E098
:1005F00070BD681CC5B2032DEDDB00BFF8E713B575
:100600000C460020FFF7E3FFDAA0FFF7CAFF2346FE
:10061000D9A29621D9480AF0C1FAD848FFF7C1FFFC
:10062000D7A0FFF7BEFFD4A29621D448009B0AF0C2
:10063000B5FAD248FFF7B5FFD3A0FFF7B2FFFF200E
:10064000FFF7C5FFFF20FFF7C2FFFF20FFF7BFFF47
:100650001CBD70B505460C46C6A0FFF7A2FF22469A
:10066000C5A1C6480AF0B2FAC448FFF79AFFC4A071
:10067000FFF797FF2846FFF794FFC3A0FFF791FF0E
:10068000FF20FFF7A4FF70BD77B585B00546FF26B4
:10069000BBA103C9CDE90301BBA000680290B5A0CE
:1006A0000068019000240AE00020B8490855B849C4
:1006B0000855B2490855AC490855601CC4B21E2CF7
:1006C000F2DB0A20AD490870FF2048708870C870BE
:1006D000A9A1AF48079A0AF079FAAD4901A809F033
:1006E00047FE01A9A54809F043FE03A9A34809F064
:1006F0003FFE2946A14809F03BFE9FA1A448069A67
:100700000AF064FAA2499D4809F032FE02A99B480A
:1007100009F02EFEFF209D490870487088709748A8
:1007200009F026FE9548FFF71BFF08B070BDF7B52E
:1007300084B005460E46FF2791A103C9CDE9020109
:1007400091A0006801908BA000680090002408E050
:1007500000208E4908558E49085588490855601C67
:10076000C4B20A2CF4DB0A2084490870FF204870C8
:100770008870C87080A18648069A0AF027FA8449D2
:10078000684609F0F5FD69467C4809F0F1FD02A9CB
:100790007A4809F0EDFD2946784809F0E9FD31462F
:1007A000764809F0E5FD01A9744809F0E1FDFF2054
:1007B00076490870487088700020C87008716F48CA
:1007C00009F0D6FD6D48FFF7CBFE07B0F0BD01B5CF
:1007D0008EB070A2322101A80E9B0AF0DFF901A8A9
:1007E000FFF7BEFE0FB000BD73B584B00546FF260F
:1007F00063A103C9CDE9020163A0006801905DA077
:100800000068009000240AE0002060490855604913
:1008100008555A49085554490855601CC4B21E2C45
:10082000F2DB0A2055490870FF2048708870C870B4
:1008300051A15748059A0AF0C9F95549684609F087
:1008400097FD69464D4809F093FD02A94B4809F010
:100850008FFD2946494809F08BFD4D49474809F06D
:1008600087FD01A9454809F083FDFF20474908702D
:1008700048708870414809F07BFD4048FFF770FEE2
:1008800006B070BD1CB54648007845494978084413
:100890004349897808444249C9780844404909795C
:1008A00008443F49497908443D49897908443C490D
:1008B000C97908443A49097A0844C0B201903848D5
:1008C000007A00F00F0000909DF800000D2803D082
:1008D0000021344807F0D6FD1CBD3148007A00F0F5
:1008E0000F000D2806D12E48007800F0010008B155
:1008F0000D2070470020FCE72948007800F0020036
:1009000008B1012070470020FCE730B52DED048BC5
:1009100083B0254806F088FF2449096840EA01456C
:10092000284609F0DAFE41EC190B9FED210B53EC40
:10093000102B09F063FE41EC180B09F0DFFE01906B
:1009400000244DE0184806F06FFF1849096840EA96
:100950000145284609F0C1FE41EC190B9FED140B2F
:1009600053EC102B28E00000C2050020B8600240C4
:100970000050004074000000256400008C0400203A
:100980002E7478743D2200002200000072050020C1
:100990004A0500206A302E76616C3D256400000017
:1009A000A40600200048004000040040740000201D
:1009B0006666666666A64E4009F020FE41EC180B9E
:1009C00009F09CFE0290DDE90121881A002801DB74
:1009D000014600E04142052900DA641C02980190BA
:1009E000022CAFDB0298404203B0BDEC048B30BD5B
:1009F00030B52DED048B83B0FE4806F015FFFE499F
:100A0000096840EA0145284609F067FE41EC190BE8
:100A10001FED190B53EC102B09F0F0FD41EC180BF6
:100A200009F06CFE0190002423E0F24806F0FCFE81
:100A3000F149096840EA0145284609F04EFE41ECBB
:100A4000190B1FED250B53EC102B09F0D7FD41ECD2
:100A5000180B09F053FE0290DDE90121881A0028E5
:100A600001DB014600E04142052900DA641C0298DE
:100A70000190022CD9DB029803B0BDEC048B30BD91
:100A800030B52DED048B83B04FF0804006F0CCFEE6
:100A9000DA49096840EA0145284609F01EFE41ECA2
:100AA000190B1FED3D0B53EC102B09F0A7FD41EC8A
:100AB000180B09F023FE0190002424E04FF0804041
:100AC00006F0B2FECD49096840EA0145284609F022
:100AD00004FE41EC190B1FED4A0B53EC102B09F0EF
:100AE0008DFD41EC180B09F009FE0290DDE90121B2
:100AF000881A002801DB014600E04142052900DA9E
:100B0000641C02980190022CD8DB0298404203B08A
:100B1000BDEC048B30BD1CB5B94806F085FEB94963
:100B2000096840EA0140322190FBF1F00090002476
:100B300017E0B34806F078FEB249096840EA014080
:100B4000322190FBF1F00190DDE90021881A0028A4
:100B500001DB014600E04142322900DA641C0198C1
:100B60000090022CE5DB0199002901DB08461CBD41
:100B70004842FCE701B581B000200090019800EBED
:100B8000C0004000009002E00098401E00900098D5
:100B90000028F9D10CBD01B581B00020009044F2CD
:100BA000506101984843009002E00098401E009078
:100BB00000980028F9D10CBD1CB501211F2005F0BB
:100BC00067FF4FF6FF70009001208DF804000020B1
:100BD0008DF8060001208DF8070003208DF8050030
:100BE0006946894805F00EFD4FF6FF700090012020
:100BF0008DF8040000208DF8060001208DF8070014
:100C000003208DF805006946804805F0FBFC4FF68F
:100C1000FF70009001208DF8040000208DF8060080
:100C200001208DF8070003208DF8050069467848FB
:100C300005F0E8FC1CBD1CB501217E2005F028FF55
:100C4000C020009000208DF8040001208DF80700DE
:100C500002208DF8050069466E4805F0D3FC062099
:100C6000009000208DF8040001208DF8070002207C
:100C70008DF805006946644805F0C4FC0420009026
:100C800000208DF8040001208DF8070002208DF867
:100C9000050069465D4805F0B5FC1CBD1FB54FF465
:100CA000E06005F0D1FB36208DF8000000208DF8C3
:100CB00001008DF8020001208DF80300684605F060
:100CC000C8FB0121102005F016FF3220ADF804000A
:100CD00040F2E73002900020ADF80C00ADF80600BD
:100CE00001A94D4806F053FD01214B4807F018FAC1
:100CF00001221146484807F0EBF90021464806F06A
:100D00008FFD0121444806F0CBFD1FBD1FB54FF4F8
:100D1000E06005F099FB37208DF8000000208DF889
:100D200001008DF8020001208DF80300684605F0EF
:100D300090FB0121202005F0DEFE3220ADF80400FA
:100D400040F2E73002900020ADF80C00ADF806004C
:100D500001A9324806F01BFD0121304807F0E0F9F7
:100D6000012211462D4807F0B3F900212B4806F067
:100D700057FD0121294806F093FD1FBD00B58BB03A
:100D80000121022005F0C8FE01210C2005F080FEA3
:100D9000032206211D4805F0C0FC032207211B4841
:100DA00005F0BBFC03220821184805F0B6FC03221D
:100DB0000921164805F0B1FC4FF47070069002202E
:100DC0008DF81C0003208DF81D0000208DF81E00FA
:100DD00001208DF81F0006A90C4805F013FCA42083
:100DE000ADF8200040F6B83009904FF48070ADF8AF
:100DF000280015E0000C0040780000207000002062
:100E00000008004088000020000402400008024062
:100E1000000C02400000024000100040001400409E
:100E20000020ADF8220008A9FE4806F0B0FC6020C2
:100E3000ADF804000120ADF8060000200390ADF8E5
:100E400010000121F74806F02BFD0021F54806F0BF
:100E5000E7FC01A9F34806F02FFD01A9F14806F0CF
:100E600064FD01A9EF4806F0ADFD01A9ED4806F0CB
:100E70000FFE0121EB4807F004F90BB000BD00B5EF
:100E80008BB00121082005F036FE0121084605F04F
:100E9000FFFD02220021E44805F03FFC022201216F
:100EA000E14805F03AFC02221146DF4805F035FC26
:100EB00002220321DC4805F030FC0F2006900220BE
:100EC0008DF81C0003208DF81D0000208DF81E00F9
:100ED00001208DF81F0006A9D34805F093FBBA2026
:100EE000ADF8200042F2107009900020ADF8280003
:100EF000ADF8220008A9CD4806F049FC6020ADF805
:100F000004000120ADF8060000200390ADF81000A9
:100F10000121C64806F0C4FC0021C44806F080FC4C
:100F200001A9C24806F0C8FC01A9C04806F0FDFCB2
:100F300001A9BE4806F046FD01A9BC4806F0A8FD7F
:100F40000121BA4807F09DF80BB000BD00B58BB089
:100F50000121042005F0CFFD01210D2005F098FDB1
:100F600002220C21B24805F0D8FB02220D21B04824
:100F700005F0D3FB02220E21AD4805F0CEFB022284
:100F80000F21AB4805F0C9FB4FF4704006900220DA
:100F90008DF81C0003208DF81D0000208DF81E0028
:100FA00001208DF81F0006A9A14805F02BFBA42005
:100FB000ADF8200040F6B83009904FF48070ADF8DD
:100FC00028000020ADF8220008A99A4806F0DFFBAF
:100FD0006020ADF804000120ADF806000020039069
:100FE000ADF810000121934806F05AFC0021914809
:100FF00006F016FC01A98F4806F05EFC01A98D4899
:1010000006F093FC01A98B4806F0DCFC01A9894895
:1010100006F03EFD0BB000BD00B589B0012108040B
:1010200005F07AFD0121084605F032FD0322114644
:101030007D4805F072FB032202217B4805F06DFB21
:101040000C20019002208DF8080003208DF8090083
:1010500000208DF80A0001208DF80B0001A97248CC
:1010600005F0D0FA0020ADF818004FF6FF70079099
:101070000020ADF82000ADF81A0006A96E4806F071
:1010800086FB0420ADF80C000020ADF80E00C8204F
:10109000ADF814000120ADF8100003A9664806F071
:1010A0004DFF00231A460321644807F0E4F80121AC
:1010B000624807F035F801221146604807F008F849
:1010C00001215D4806F0ECFB00215C4806F0A8FB1E
:1010D00009B000BD00B589B00121084605F00BFD3F
:1010E0000121022005F007FD0121032005F0D0FCBD
:1010F00001220F214C4805F010FB0122032150482A
:1011000005F00BFB022204214D4805F006FB0222EC
:1011100005214B4805F001FB3820019002208DF895
:10112000080003208DF8090000208DF80A00012036
:101130008DF80B0001A9424805F064FA4FF4004015
:10114000019002208DF8080003208DF8090000208E
:101150008DF80A0001208DF80B0001A9324805F036
:1011600051FA0020ADF818004FF6FF7007900020EC
:10117000ADF82000ADF81A0006A94FF0804006F047
:1011800006FB06A92F4806F002FB0420ADF80C0070
:101190000220ADF80E001420ADF814000120ADF8C7
:1011A000100003A9800706F0C9FE03A9254806F030
:1011B000C5FE02231A460321580707F05CF80223F4
:1011C0001A4603211F4807F056F80121880706F048
:1011D000A7FF01211B4806F0A3FF0122114690073B
:1011E00006F076FF01221146164806F071FF012134
:1011F000880706F055FB0121124806F051FB00213B
:101200004FF0804006F00CFB00210E4806F008FB72
:101210004FF4C06005F018F91D208DF80000032080
:1012200012E000000004014000000240000C0040F9
:10123000000C024000080040000001400040014056
:1012400000040240000400408DF8010000208DF8E9
:10125000020001208DF80300684605F0FAF81C2012
:101260008DF8000004208DF8010000208DF80200A8
:1012700001208DF80300684605F0EBF809B000BDC9
:1012800000B589B00121084605F046FC0121102077
:1012900005F0FEFB4FF42060019002208DF808005D
:1012A00003208DF8090000208DF80A0001208DF838
:1012B0000B0001A9FE4805F0A5F901220921FC480F
:1012C00005F02BFA01220B21F94805F026FA00203F
:1012D000ADF818004FF6FF7007900020ADF8200021
:1012E000ADF81A0006A9F34806F051FA0420ADF84B
:1012F0000C000020ADF80E000A20ADF8140001200B
:10130000ADF8100003A9EB4806F018FE00231A46BA
:101310000321E84806F0AFFF0121E64806F000FF90
:1013200001221146E34806F0D3FE0121E14806F010
:10133000F7FE01221146DF4806F0CAFE0121DD4812
:1013400006F0AEFA0021DB4806F06AFA4FF4C060FE
:1013500005F07AF819208DF8000001208DF80100C1
:1013600000208DF8020001208DF80300684605F08A
:1013700070F809B000BD00B589B00121042005F066
:10138000BAFB0121082005F083FB4FF44050019087
:1013900002208DF8080003208DF8090000208DF848
:1013A0000A0001208DF80B0001A9C34805F02AF9B5
:1013B0000020ADF818004FF6FF7007900020ADF840
:1013C0002000ADF81A0006A9BC4806F0E0F9022298
:1013D0000C21B94805F0A1F902220D21B64805F00B
:1013E0009CF90420ADF80C000220ADF80E00C820D6
:1013F000ADF814000120ADF8100003A9AF4806F0C5
:101400009DFD02231A460321AC4806F034FF01215A
:10141000AA4806F085FE01221146A84806F058FEAB
:101420000121A64806F03CFA0021A44806F0F8F98C
:101430000020A249143108800120A04908804FF4FF
:10144000C06005F001F81E208DF8000004208DF822
:10145000010000208DF8020001208DF8030068468D
:1014600004F0F7FF09B000BD00B589B001210820E4
:1014700005F041FB0121084605F00AFB032001901D
:1014800002208DF8080003208DF8090000208DF857
:101490000A0001208DF80B0001A9894805F0B2F877
:1014A0000020ADF818004FF6FF7007900020ADF84F
:1014B0002000ADF81A0006A9824806F068F9022259
:1014C00000217F4805F029F9022201217C4805F01E
:1014D00024F90420ADF80C000220ADF80E00C8205D
:1014E000ADF814000120ADF8100003A9754806F00E
:1014F00025FD02231A460321724806F0BCFE012195
:10150000704806F00DFE012211466E4806F0E0FD1F
:1015100001216C4806F0C4F900216A4806F080F900
:1015200000206849143108800120664908804FF482
:10153000C06004F089FF32208DF8000004208DF88F
:10154000010000208DF8020001208DF8030068469C
:1015500004F07FFF09B000BD00B59BB001215A48DF
:1015600005F096FA0121080205F0D6FA0020029053
:101570005648039056480490002005900820069095
:10158000002007904FF48060089040000990800090
:101590000A9040110B9040020C9000200D90012009
:1015A0000E9000200F90109002A94A4805F082FE8C
:1015B0000121484805F0B8FE3C20009003208DF83A
:1015C000040000208DF8070069463D4805F01AF830
:1015D0003C20009003208DF8040000208DF80700C7
:1015E00069463D4805F00EF80020119012901390C6
:1015F000149011A805F0C4FB4FF0807015900120E5
:101600008DF858008DF85900002017901890199007
:1016100008208DF8680015A92C484C3805F081FB8E
:1016200000230122022129484C3805F000FC002348
:101630000222032125484C3805F0F9FB0023032240
:10164000042122484C3805F0F2FB00230422052136
:101650001E484C3805F0EBFB002305220C211B48EB
:101660004C3805F0E4FB002306220D2117484C38C6
:1016700005F0DDFB002307220E2114484C3805F04D
:10168000D6FB002308220F2110484C3805F0CFFB71
:1016900001210E484C3805F075FC01210B484C38EF
:1016A00005F065FC012109484C3805F080FB15E088
:1016B0000010024000000140000C02400008004001
:1016C00000000240000C0040050040004C2001409A
:1016D000580600201064024000080240FE484C38C2
:1016E00005F001FC1BB000BD08B54FF4E06004F04C
:1016F000ABFE25208DF8000000208DF801008DF84C
:10170000020001208DF80300684604F0A2FE08BD27
:1017100010B596B004460121102005F0FDF9012115
:10172000084605F0B5F90121880505F0B1F94FF437
:10173000C060009002208DF8040000208DF80600A3
:101740008DF8070002208DF805006946E34804F093
:1017500059FF07220921E14804F0DFFF07220A218F
:10176000DE4804F0DAFF02940020ADF80C00ADF87A
:101770000E00ADF81000ADF814000C20ADF812000A
:1017800002A9D74806F0F6FD0121D54806F07AFEF9
:101790004FF4A06004F058FE3A208DF818000020A5
:1017A0008DF819008DF81A0001208DF81B0006A88D
:1017B00004F04FFECB4805F0DBFC4FF000600790D3
:1017C00000200A90C84809900A200B90C448001DC8
:1017D000089000200C904FF480600D9000200E9037
:1017E0000F904FF4807010904002119004201290DE
:1017F0000320139000201490159007A9B94805F014
:1018000059FD01224021B64806F0E9FE01221021CF
:10181000B44805F016FE0121B24805F085FD16B06A
:1018200010BD10B596B004460121480505F030F909
:101830000121480405F05FF90121082005F028F98D
:101840006020009002208DF8040000208DF8060032
:101850008DF8070002208DF805006946A34804F0C2
:10186000D1FE07220521A14804F057FF07220621D7
:101870009E4804F052FF02940020ADF80C00ADF831
:101880000E00ADF81000ADF814000C20ADF81200F9
:1018900002A9974806F06EFD0121954806F0F2FD79
:1018A0004FF4A06004F0D0FD11208DF81800002046
:1018B0008DF819008DF81A0001208DF81B0006A87C
:1018C00004F0C7FD8B4805F053FC4FF00060079013
:1018D00040200A908848099050200B908448001DB1
:1018E000089000200C904FF480600D9000200E9026
:1018F0000F904FF4807010904002119004201290CD
:101900000320139000201490159007A9794805F042
:10191000D1FC01228021764806F061FE012280215F
:10192000734806F05CFE01221021724805F089FD23
:101930000121704805F0F8FC16B010BD10B596B046
:1019400004460121880405F0D6F80121082005F09D
:101950009FF80121480505F09BF84FF44070009076
:1019600002208DF8040000208DF806008DF8070095
:1019700002208DF8050069465C4804F043FE07220A
:1019800008215A4804F0C9FE07220921574804F0EB
:10199000C4FE02940020ADF80C00ADF80E00ADF8C6
:1019A0001000ADF814000C20ADF8120002A9534845
:1019B00006F0E0FC0121514806F064FD4FF4A06000
:1019C00004F042FD0C208DF8180000208DF819005D
:1019D0008DF81A0001208DF81B0006A804F039FDCF
:1019E0004448783805F0C4FB4FF0006007900020B1
:1019F0000A90434809900A200B904048001D089027
:101A000000200C904FF480600D9000200E900F90FD
:101A10004FF4807010904002119004201290032027
:101A2000139000201490159007A93248783805F0DB
:101A300041FC01224021314806F0D1FD0122402124
:101A40002E4806F0CCFD012210212A48783805F0F6
:101A5000F8FC01212748783805F066FC16B010BD67
:101A600010B596B004460121C80405F044F80121E0
:101A7000042005F00DF80121480505F009F84FF4A0
:101A80004060009002208DF8040000208DF80600D0
:101A90008DF8070003208DF805006946194804F009
:101AA000B1FD08220A21174804F037FE08220B2155
:101AB000144804F032FE02940020ADF80C00ADF89A
:101AC0000E00ADF81000ADF814000C20ADF81200B7
:101AD00002A90D481AE000004C200140000002401D
:101AE000001001404064024068060020000C0240E3
:101AF00000440040A0600240040000200048004074
:101B0000A406002000080240004C004006F032FC11
:101B10000121FC4806F0B6FC4FF4A06004F094FCF0
:101B20000D208DF8180003208DF8190001208DF884
:101B30001A008DF81B0006A804F08BFCF24805F093
:101B400017FB4FF00060079000200A90EF480990C3
:101B500004200B90EB48001D089000200C904FF4DF
:101B600080600D9000200E900F9010904FF4003088
:101B700011900020129003201390002014901590D3
:101B800007A9E14805F096FB01224021DD4806F057
:101B900026FD01228021DB4806F021FD01221021D3
:101BA000D94805F04EFC0121D74805F0BDFB16B021
:101BB00010BD08B500200090D448007811280FD13E
:101BC000D248C07812280BD1D0484078CF498978C4
:101BD00040EA01200090BDF80000CD49088002E0F5
:101BE0000420CB49088008BD10B596B004460121F9
:101BF000480504F04DFF0121080504F07CFF012198
:101C00000C2004F045FF0420009002208DF8040011
:101C100000208DF806008DF8070002208DF80500E1
:101C20006946BC4804F0EEFC4FF48050009002205E
:101C30008DF8040000208DF806008DF807000220C2
:101C40008DF805006946B44804F0DCFC0822022146
:101C5000B04804F062FD08220C21AF4804F05DFD9D
:101C60004FF4A06004F0F0FB2F208DF81800052041
:101C70008DF819008DF81A0001208DF81B0006A8B8
:101C800004F0E7FB02940020ADF80C00ADF80E0064
:101C9000ADF81000ADF814000C20ADF8120002A948
:101CA0009E4806F067FB01219C4806F0EBFB964836
:101CB000783005F05DFA4FF00060079040200A9000
:101CC0009748099096200B909448001D089000209A
:101CD0000C904FF480600D9000200E900F901090AB
:101CE0004FF4003011900020129003201390002038
:101CF0001490159007A98448783005F0DBFA01228A
:101D00008021864806F06BFC012210217E48783045
:101D100005F097FB01217C48783005F005FB16B0F3
:101D200010BD10B596B004460121202004F0F4FE49
:101D30000121042004F0ACFE0121880504F0A8FE76
:101D4000C020009002208DF8040000208DF80600CD
:101D50008DF8070003208DF8050069466E4804F0F1
:101D600051FC082206216C4804F0D7FC0822072108
:101D7000694804F0D2FC02940020ADF80C00ADF8E4
:101D80000E00ADF81000ADF814000C20ADF81200F4
:101D900002A9644806F0EEFA0121624806F072FBDF
:101DA0004FF4A06004F050FB39208DF81800032098
:101DB0008DF8190001208DF81A008DF81B0006A877
:101DC00004F047FB584805F0D3F94FF02060079026
:101DD00000200A905548099004200B905148001D9E
:101DE000089000200C904FF480600D9000200E9021
:101DF0000F9010904FF400301190002012900320AB
:101E0000139000201490159007A9474805F052FA46
:101E100001224021434806F0E2FB01221021424802
:101E200005F00FFB0121404805F07EFA16B010BD09
:101E30000CB50020019000903C480078022812D197
:101E40003A48407801903948C0783849897840EA62
:101E5000012000909DF8040035490870BDF800008D
:101E60003449088004E00420314908703149088071
:101E70000CBD00B585B00121082004F009FE012148
:101E8000880304F049FE00208DF8100001208DF831
:101E900013000C20039003A91E4804F0B3FB022199
:101EA000032006F035FC0420009000208DF804008B
:101EB00010208DF8050001208DF80600684605F019
:101EC00039FB08208DF8080000208DF809008DF8F6
:101ED0000A0001208DF80B0002A804F0BAFA05B040
:101EE00000BD70B504460D46012C27D12946124885
:101EF00006F0F3FA00BF40210F4806F09EFB0028D1
:101F0000F9D044E0004C0040406002407F010020D6
:101F100084010020000C02400008024000500040F4
:101F2000C205002000140140286402408601002000
:101F30008A0100208C01002000100140032C0BD1ED
:101F40002946FE4806F0C9FA00BF4021FB4806F0CA
:101F500074FB0028F9D01AE0042C0BD12946F8486C
:101F600006F0BBFA00BF4021F54806F066FB0028EA
:101F7000F9D00CE0052C0AD12946F24806F0ADFA5A
:101F800000BF4021EF4806F058FB0028F9D070BD93
:101F90000020ED490860ED49086070470020EC49D9
:101FA0004862EC4908604FF080414862EA490860A5
:101FB000EA490860EA490860E3490860E3490860C3
:101FC000E8490860E8490860704700204FF0804108
:101FD0004862E149086070470020E0490860E04934
:101FE0000860704710B50020E0490870002407E041
:101FF00061210120FFF775FF3220FEF7CCFD641C44
:10200000022CF5D30120D94908707A20D8490870EC
:1020100010BD10B50020D7490870002407E06121E9
:102020000320FFF75EFF3220FEF7B5FD641C022C93
:10203000F5D30120CF4908707A20CF49087010BD30
:1020400010B502210420FFF74CFF6420FEF7A3FD2A
:10205000CA480088CA49086010BD2DE9F14FAEB0EA
:10206000C8A02D9000202C908DF888008DF860007D
:102070002E98122831D2DFE800F009313A41484F5A
:10208000565F68717A868D949BA2A9FD0221C6488D
:1020900004F01AFB88B100224FF40041C34804F059
:1020A00031FB4FF40041C14804F01BFB0446002201
:1020B0002146BFA0FEF7E8FA0FE00122D103BB489A
:1020C00004F020FB4FF40041B84804F00AFB04463A
:1020D00000222146BEA0FEF7D7FA52E20122C448F0
:1020E000B0F900004142C3A0FEF7CEFA49E2022255
:1020F000C2480168C2A0FEF7C7FA42E20322C34801
:102100000168C3A0FEF7C0FA3BE20422C44801689C
:10211000C4A0FEF7B9FA34E20522C5480168C5A09B
:10212000FEF7B2FA2DE2FEF7F0FB04460622214646
:10213000C3A0FEF7A9FA24E2FEF75AFC04460722E0
:102140002146C2A0FEF7A0FA1BE2FEF799FC044666
:1021500008222146C0A0FEF797FA12E2FEF7DBFC48
:10216000044609222146BFA0FEF78EFA09E20A22A0
:10217000BF4890ED000ABDEEC00A10EE101ABDA0D7
:10218000FEF782FAFDE10B22BB480168BBA0FEF717
:102190007BFAF6E10C22BD480168BDA0FEF774FA97
:1021A000EFE10D2276480168BCA0FEF76DFAE8E188
:1021B0000E22BD480168BDA0FEF766FAE1E10F22DC
:1021C000BD480168BDA0FEF75FFADAE10121BE4813
:1021D00004F07AFA4FF400511790744804F074FA3E
:1021E00004460221B84804F06FFA05464FF48041D6
:1021F0006E4804F069FA06460421B34804F064FA14
:102200004FF400411690B04804F05EFA07460821EA
:10221000AD4804F059FA80464FF48041AA4804F0D2
:1022200053FA81461021A84804F04EFA4FF40051A9
:102230001590A54804F048FA82460821A34804F006
:1022400043FA4FF4805114909F4804F03DFA102156
:1022500013909E4804F038FA4FF4806112909A4827
:1022600004F032FA83468021974804F02DFA4FF4A7
:10227000807100E026E01190934804F025FA109058
:102280001798CDE90B65CDE90D401698CDE9079873
:10229000CDE90970DDE914211398CDE9042A0691EE
:1022A0000390DDE91110CDE9001B029088A22821DE
:1022B00022A8109B08F072FC102222A98DA0FEF724
:1022C00036FA5EE18021384804F00BFA0446012119
:1022D000354804F006FA05464021334804F001FA77
:1022E00006464FF40041794804F0FBF907464FF4E5
:1022F0008051814804F0F5F980464FF480612A4806
:1023000004F0EFF981464FF400617B4804F0E9F9ED
:102310004FF400611790244804F0E3F982464FF42B
:1023200080616A4804F0DDF983464FF480511E480D
:1023300004F0D7F94FF400611690DFE00048004048
:10234000004C00400050004024080040880000205D
:10235000000001406C0000207000002024040040B8
:1023600074000020240C0040780000209100002020
:1023700090000020930000209200002084010020A3
:102380009001002031313131313131313131313150
:10239000313131313131313131313031313131312E
:1023A00031313131000000000004024000080240D9
:1023B000524F424F5420322044414E47204348411F
:1023C000592053414E2058414E483A2020200000C9
:1023D000524F424F5420322044414E4720434841FF
:1023E000592053414E20444F3A2020200000000045
:1023F0008C000020494D553A00000000B00000203C
:1024000042545F4E414E475F48413A00340300203A
:10241000204C55435F63687579656E203A00000073
:10242000240300204C75632042616E3A20000000B6
:102430009C0000204C415A45525F42414E20000012
:10244000454E434F4445525F30482000454E434F70
:102450004445525F34482000454E434F4445525F47
:1024600038482000454E434F4445525F52522000A9
:102470004C01002044433A00400300204348555992
:10248000454E5F4C415A4552203A00002C03002033
:10249000666F7263655F4C3A000000006469737494
:1024A000616E6365203A0000A40000204C415A454B
:1024B000525F504841493A00A00000204C415A4523
:1024C000525F545241493A0000100240000C024051
:1024D00025642564256425642564256425642564B4
:1024E00025642564256425642564256425642564A4
:1024F00000000000493A000000000240F84804F0E3
:10250000F0F84FF400511590F64804F0EAF84FF453
:1025100080411490F24804F0E4F84FF480411390A5
:10252000F04804F0DEF84FF480711290EE4804F0A9
:10253000D8F84FF400411190EA4804F0D2F8CDE900
:102540000B76CDE90D5410901798CDE907A0CDE991
:10255000099814A807C803ABA3E80708DDE911121E
:102560001398CDE900120290AFF29C02282122A814
:10257000109B08F013FB112222A9DCA0FEF7D7F86C
:1025800000BF00BF2FB0BDE8F08F10B50121D948C2
:1025900004F0CAFE10BD01B5D74800680099884212
:1025A00003DD0020D449086004E0D3480068401CE3
:1025B000D1490860D0480068FFF74FFD08BD10B54D
:1025C000FEF7A3F9CD490860FEF712FACC4908607E
:1025D000FEF756FACB49086010BD2DE9F0412DED0C
:1025E000088B06460F46304608F077F841EC190B89
:1025F0009FEDC51BB0EE490AF0EE690A08F0F6FE41
:10260000B0EE408AF0EE608A51EC180B08F076F8D4
:102610000446002C02DBA4F5E16401E004F5E1646A
:10262000384608F05AF841EC1B0B9FEDB71BB0EE93
:102630004B0AF0EE6B0A08F0D9FEB0EE409AF0EECD
:10264000609A304608F049F841EC1B0B9FEDAE1B39
:10265000B0EE4B0AF0EE6B0A08F0C8FEB0EE40AAEE
:10266000F0EE60AA53EC192B51EC1A0B07F04EFF59
:1026700041EC180B08F042F805462846211E01DB04
:102680000A4600E04A42002801DB034600E04342DC
:102690009A4205DA25464FF0FF309D49086003E075
:1026A000354601209A4908602846BDEC088BBDE8F4
:1026B000F0810146FA2901DDFA2102E0032900DC5C
:1026C0000221C8B2704710B504460B4624B99148A0
:1026D00000789149C87116E0904890ED000AB5EE77
:1026E000C00AF1EE10FA07DD2046FFF7E2FF8A4943
:1026F000C8710120887106E06042FFF7DAFF864961
:10270000C8710020887123B9824800788249C87551
:1027100016E0834890ED000AB5EEC00AF1EE10FA1B
:1027200007DD1846FFF7C5FF7B49C875002088758F
:1027300006E05842FFF7BDFF7749C875012088754C
:1027400022B9744800787449C87316E0754890ED52
:10275000000AB5EEC00AF1EE10FA07DD1046FFF7E9
:10276000A8FF6D49C8730020887306E05042FFF748
:10277000A0FF6949C8730120887310BD6A4B1860B7
:102780006A4B19606A4B1A607047634AD071D07502
:10279000D07370476048C079032809DA5E48C07D6D
:1027A000032805DA5C48C07B032801DA0120704762
:1027B0000020FCE701205F49086070475E48006820
:1027C00047F23051884201D0012070470020FCE7D9
:1027D00010B5FFF707FC10BD5848B0F900004042A3
:1027E0007047B5EEC00AF1EE10FA09D25448D0EDA8
:1027F000000A70EE600AFDEEE00A10EE900A7047E3
:102800004F48D0ED000A70EE200AFDEEE00A10EE0F
:10281000900AF4E710B52DED0A8B044624B99FED1C
:10282000490ABDEC0A8B10BD002C25DA4648006829
:1028300007F053FF41EC190B204607F04EFF41EC27
:102840001C0B9FED420B53EC102B07F065FE41EC87
:102850001B0B9FED400B53EC102B07F057FE41EC88
:102860001A0B53EC192B07F0C9FE41EC180B07F0BB
:1028700077FF00EE100AD4E73348006807F02DFF19
:1028800041EC190B204607F028FF41EC1C0B9FED93
:102890002F0B53EC102B07F03FFE41EC1B0B9FED71
:1028A0002D0B53EC102B07F090FD41EC1A0B53EC61
:1028B000192B07F0A3FE41EC180B07F051FF00EEB7
:1028C000100AAEE7F0EE400AF5EEC00AF1EE10FA9B
:1028D00002DBB0EE600A7047B1EE600AFBE7000071
:1028E000000C024000040240000002404F55543AE0
:1028F00000000000A060024084000020AC03002023
:10290000B0030020B4030020000000000020AC4011
:1029100080020020DC01002004000020440200208E
:10292000480200204C020020680200206C020020B7
:1029300070020020BC020020080200208C00002051
:102940009C01002000000000F401002000000000B5
:1029500000000440000000000000E03F01460029A4
:1029600001DB084670474842FCE70146FE48D0EDCF
:10297000000AF1EE600AFD48D0ED001A80EEA11ABF
:1029800000EE901AF8EEE01AF748D0ED000A41EE9A
:10299000210AB0EE600AFDEEC00A10EE900A704700
:1029A000F0EE401A9FEDF22AB0EE420AF5EEC01AA0
:1029B000F1EE10FA03D2B1EE612AF0EE421AF5EE12
:1029C000C00AF1EE10FA03D2B1EE602AF0EE420A2C
:1029D000B5EEC01AF1EE10FA03D2B1EE412AB0EE14
:1029E000421AF4EEC01AF1EE10FA01DDB0EE610AFF
:1029F000F4EEC00AF1EE10FA01DDB0EE600AB4EEBA
:102A0000C01AF1EE10FA01DDB0EE410A7047D94864
:102A100000687047D8480068704710B52DED0A8BE4
:102A2000F0EE408A18EE900A07F087FE41EC1C0B8E
:102A30001FED4B1BB0EE4C0AF0EE6C0A08F0D6FC12
:102A4000B0EE40BAF0EE60BA1FED510B53EC102B14
:102A500051EC1B0B07F0B9FC41EC1A0B1FED561B98
:102A6000B0EE4A0AF0EE6A0A08F0C0FCB0EE409AF6
:102A7000F0EE609A51EC190B07F072FE08EE100AA6
:102A80009FEDBE0AB4EEC08AF1EE10FA06DD9FEDAE
:102A9000BC0AB4EEC08AF1EE10FA0BD3B5EEC08AD0
:102AA000F1EE10FA0ADB9FEDB70AB4EEC08AF1EE40
:102AB00010FA03D80120BDEC0A8B10BD9FEDB20ABD
:102AC000B4EEC08AF1EE10FA01D80220F3E79FEDD0
:102AD000AF0AB4EEC08AF1EE10FA01D80320EAE79B
:102AE0000420E8E710B52DED108B8AB0B0EE408AD7
:102AF000F0EE608AB0EE419AA54890ED000A28EE0B
:102B0000000ADFEDA40A80EE201A11EE104A2046DA
:102B100007F013FECDE908019DED080B08F04CFA13
:102B2000B0EE40FAF0EE60FA18EE900A07F005FEFB
:102B300041EC1E0B53EC1F2B07F0EEFC41EC1C0B81
:102B400007F00EFE0AEE900A19EE100A07F0F5FDE6
:102B5000CDE906018E4890ED000A28EE000ADFED6F
:102B60008D0A80EE201A11EE104A204607F0E5FD8E
:102B700041EC1E0BB0EE4E0AF0EE6E0A09F0F8FFC3
:102B80008DED040B18EE900A07F0D7FD41EC1C0BFD
:102B90009DED040B53EC102B07F0BEFC41EC1F0B1A
:102BA0009DED060B53EC102B07F00FFCCDE908014F
:102BB0009DED080B51EC100B07F0D2FD0BEE100A47
:102BC0009FED750A38EE400A7148D0ED000A20EEFC
:102BD000200ADFED700A80EE201A11EE104A20461E
:102BE00007F0ABFDCDE908019DED080B08F0E4F915
:102BF000B0EE40FAF0EE60FA18EE900A07F09DFD94
:102C000041EC1E0B53EC1F2B07F086FC41EC1C0B18
:102C100007F0A6FD0BEE900A19EE100A07F08DFDE5
:102C200041EC1F0B9FED5C0A38EE400A5848D0ED8E
:102C3000000A20EE200ADFED570A80EE201A11EE7E
:102C4000104A204607F079FD41EC1E0BB0EE4E0A0B
:102C5000F0EE6E0A09F08CFF8DED040B18EE900A71
:102C600007F06BFD41EC1C0B9DED040B53EC102B9E
:102C700007F052FC53EC1F2BCDE906019DED060B2E
:102C800051EC100B07F0A1FBCDE908019DED080BFD
:102C900051EC100B07F064FD0DEE100A9FED3F0A9A
:102CA00038EE400A3A48D0ED000A20EE200ADFED67
:102CB000390A80EE201A11EE104A204607F03DFD39
:102CC00041EC1E0BB0EE4E0AF0EE6E0A08F074F9FD
:102CD000B0EE40FAF0EE60FA18EE900A07F02DFD23
:102CE00041EC1C0B53EC1F2B07F016FCCDE908013F
:102CF0009DED080B51EC100B07F032FD09EE900A28
:102D000019EE100A07F019FD9FED240A38EE400A6B
:102D1000CDE906011E48D0ED000A20EE200ADFEDC5
:102D20001D0A80EE201A11EE104A204607F005FD1C
:102D300041EC1E0BB0EE4E0AF0EE6E0A09F018FFE1
:102D4000B0EE40CAF0EE60CA18EE900A07F0F5FC4B
:102D500041EC1F0B53EC1C2B07F0DEFBCDE904010B
:102D60009DED060B1CE00000D4010020D8010020DE
:102D70006F12833AF40100202402002000E0444551
:102D8000000061450000E14300C0A84400A00C45DC
:102D9000E80100200000E1440000964400001645D0
:102DA00053EC102B9DED040B51EC100B07F00DFBB9
:102DB000CDE908019DED080B51EC100B07F0D0FC9C
:102DC0000AEE100AF0EE6A0AB0EE4B0A07F0CAFFEC
:102DD0005FED100A20EE200AF848D0ED000A80EEE0
:102DE000201AF74880ED001AF6480168F44890ED83
:102DF000000ABDEEC00A10EE100AFFF7EEFB00EE6F
:102E0000100AB8EEC00AEE4880ED000AEE4890EDD8
:102E1000000AB8EEC00AED4880ED000AEA480068F2
:102E200007F05BFCCDE906011BEE100A07F085FCFC
:102E300041EC1E0B9FEDE61BB0EE4E0AF0EE6E0A63
:102E400008F03AFDB0EE40FAF0EE60FA1AEE900AA1
:102E500007F073FC41EC1E0B9FEDDD1BB0EE4E0A3C
:102E6000F0EE6E0A08F028FD8DED000B53EC1F2BE1
:102E70009DED000B51EC100B07F0A7FACDE9020114
:102E80009DED020B09F0D8FEB0EE40CAF0EE60CA2C
:102E90009FEDD10B53EC102B51EC1C0B07F0AEFB4C
:102EA000CDE904019DED060B53EC102B9DED040BB9
:102EB00051EC100B07F030FBCDE908019DED080B3C
:102EC00051EC100B07F04CFCC5490860F0EE6B0AA2
:102ED000B0EE4D0A07F046FF5FED520A20EE200AE1
:102EE000B648D0ED000A80EE201ABE4880ED001AE8
:102EF000BD480168BB4890ED000ABDEEC00A10EE67
:102F0000100AFFF76AFB00EE100AB8EEC00AB548D7
:102F100080ED000AAC4890ED000AB8EEC00AB34854
:102F200080ED000AA848006807F0D7FBCDE906014C
:102F30001DEE100A07F001FC41EC1E0B9FEDA41BD7
:102F4000B0EE4E0AF0EE6E0A08F0B6FC8DED020B04
:102F50001BEE900A07F0F1FB41EC1E0B9FED9C1B52
:102F6000B0EE4E0AF0EE6E0A08F0A6FC8DED000BF6
:102F70009DED020B53EC102B9DED000B51EC100B53
:102F800007F023FA41EC1C0BB0EE4C0AF0EE6C0A91
:102F900009F052FEB0EE40FAF0EE60FA9FED8E0BB3
:102FA00053EC102B51EC1F0B07F028FBCDE904016B
:102FB0009DED060B53EC102B9DED040B51EC100B0B
:102FC00007F0AAFACDE908019DED080B51EC100BB2
:102FD00007F0C6FB86490860F0EE690AB0EE4A0ABF
:102FE00007F0C0FE5FED950A20EE200A7348D0ED91
:102FF000000A80EE201A7F4880ED001A7E480168A2
:103000007C4890ED000ABDEEC00A10EE100AFFF7F2
:10301000E4FA00EE100AB8EEC00A764880ED000A25
:10302000694890ED000AB8EEC00A744880ED000AC5
:103030006548006807F051FB41EC1F0B1AEE100ABF
:1030400007F07BFB41EC1E0B9FED611BB0EE4E0ABF
:10305000F0EE6E0A08F030FC8DED000B19EE900AD0
:1030600007F06BFB41EC1E0B9FED591BB0EE4E0AB7
:10307000F0EE6E0A08F020FCB0EE40CAF0EE60CA36
:103080009DED000B53EC102B51EC1C0B07F09DF940
:10309000CDE902019DED020B09F0CEFD8DED040B93
:1030A0009FED4D0B53EC102B9DED040B51EC100BD1
:1030B00007F0A4FA53EC1F2BCDE906019DED060B9A
:1030C00051EC100B07F028FACDE908019DED080B33
:1030D00051EC100B07F044FB494908601AEE100A46
:1030E00007F02BFB41EC1F0B9FED391BB0EE4F0A95
:1030F000F0EE6F0A08F0E0FB8DED080B19EE900A78
:1031000007F01BFB41EC1F0B9FED311BB0EE4F0A8C
:10311000F0EE6F0A08F0D0FB8DED060B9DED080B6D
:1031200053EC102B9DED060B51EC100B07F04DF9F5
:1031300041EC1C0BB0EE4C0AF0EE6C0A09F07CFD81
:10314000B0EE40EAF0EE60EA51EC1E0B07F0D6FA62
:103150002C490860264890ED000ABDEEC00A2A48B6
:1031600080ED000A294890ED000AB8EEC00AFFF78A
:1031700054FC274908600AB0BDEC108B10BDF0EE7E
:10318000400AB0EE600ABAEE0E1AF4EEC10AF1EE91
:1031900010FA04D2BAEE0E1AB0EE410A0DE0184849
:1031A00090ED001AF2EE0E1AB4EEE11AF1EE10FAFA
:1031B00003DDB2EE0E1AB0EE410A7047E8010020BE
:1031C00050020020AC0300208002002044020020B6
:1031D000000000000000004000000000000034403B
:1031E0003802002054020020B003002048020020D2
:1031F0003C02002058020020B40300204C020020B2
:10320000400200205C020020600200200802002032
:1032100064020020F848D0ED000AF5EEC00AF1EE95
:1032200010FA06DDD0ED000A70EEC00AC0ED000A0B
:1032300006E0F148D0ED000A70EE800AC0ED000A09
:10324000ED48D0ED000ABAEE0E1AF4EEC10AF1EE26
:1032500010FA04D2FAEE0E0AC0ED000A0DE0E648BC
:10326000D0ED000AB2EE0E1AF4EEC10AF1EE10FA39
:1032700003DDF2EE0E0AC0ED000A7047DE48D0ED25
:10328000000AF5EEC00AF1EE10FA06DDD0ED000AF4
:1032900070EE800AC0ED000A06E0D748D0ED000AC3
:1032A00070EEC00AC0ED000AD348D0ED000ABAEEB5
:1032B0000E1AF4EEC10AF1EE10FA04D2FAEE0E0A7A
:1032C000C0ED000A0DE0CC48D0ED000AB2EE0E1AB7
:1032D000F4EEC10AF1EE10FA03DDF2EE0E0AC0EDD3
:1032E000000A7047C548D0ED000AF5EEC00AF1EEBD
:1032F00010FA06DDD0ED000A70EEC00AC0ED000A3B
:1033000006E0BE48D0ED000A70EE800AC0ED000A6B
:10331000BA48D0ED000ABAEE0E1AF4EEC10AF1EE88
:1033200010FA04D2FAEE0E0AC0ED000A0DE0B3481E
:10333000D0ED000AB2EE0E1AF4EEC10AF1EE10FA68
:1033400003DDF2EE0E0AC0ED000A7047AB48D0ED87
:10335000000AF5EEC00AF1EE10FA06DDD0ED000A23
:1033600070EE800AC0ED000A06E0A448D0ED000A25
:1033700070EEC00AC0ED000AA048D0ED000ABAEE17
:103380000E1AF4EEC10AF1EE10FA04D2FAEE0E0AA9
:10339000C0ED000A0DE09948D0ED000AB2EE0E1A19
:1033A000F4EEC10AF1EE10FA03DDF2EE0E0AC0ED02
:1033B000000A70479248D0ED000AF5EEC00AF1EE1F
:1033C00010FA06DDD0ED000A70EEC00AC0ED000A6A
:1033D00006E08B48D0ED000A70EE800AC0ED000ACE
:1033E0008748D0ED000ABAEE0E1AF4EEC10AF1EEEB
:1033F00010FA04D2FAEE0E0AC0ED000A0DE0804881
:10340000D0ED000AB2EE0E1AF4EEC10AF1EE10FA97
:1034100003DDF2EE0E0AC0ED000A70477848D0EDE9
:10342000000AF5EEC00AF1EE10FA06DDD0ED000A52
:1034300070EE800AC0ED000A06E07148D0ED000A87
:1034400070EEC00AC0ED000A6D48D0ED000ABAEE79
:103450000E1AF4EEC10AF1EE10FA04D2FAEE0E0AD8
:10346000C0ED000A0DE06648D0ED000AB2EE0E1A7B
:10347000F4EEC10AF1EE10FA03DDF2EE0E0AC0ED31
:10348000000A704710B52DED068BB0EE408A18EE9D
:10349000100A07F052F941EC1A0B9FED5A0B53EC4E
:1034A000102B07F039F841EC190B07F059F908EE29
:1034B000900A5648006847F2305188420FD1B2EE68
:1034C000040A28EE000A524880ED000A90ED001A26
:1034D000DFED500A9FED4F0AFFF704FB24E04E4852
:1034E00000684E490968401A48490968081A00EE00
:1034F000100AB8EEC00A4A4880ED000A494890ED2B
:10350000000AF2EE080A20EE200A414880ED000A87
:1035100090ED001A444890ED000AF8EEC00A4048C9
:1035200090ED000AFFF7DEFAB5EEC08AF1EE10FA70
:103530003AD03648006847F23051884234D0334898
:1035400090ED000AB8EEC00AFFF767FA012806D02E
:1035500002280DD0032814D0042824D11AE0B0EE9C
:10356000680AFFF7BFFEB0EE680AFFF787FE1AE0B1
:10357000B0EE680AFFF752FFB0EE680AFFF7B2FE3E
:1035800011E0B0EE680AFFF7E1FEB0EE680AFFF75F
:1035900041FE08E0B0EE680AFFF70CFFB0EE680AE3
:1035A000FFF76CFE00BF00BF134890ED001A1348F0
:1035B000D0ED000A124890ED000AFFF7F1F91B4820
:1035C000D0ED000AF8EEE00A80EE801ABDEEC10AE6
:1035D000174880ED000A17480068154909688842B5
:1035E00003DD134800681349086001201249086090
:1035F000BDEC068B10BD0000400200203C02002004
:10360000380200207B14AE47E17AB43F0802002064
:10361000A4020020000000002C0200201402002060
:10362000940100201C020020F801002098010020D5
:10363000FC010020F4010020EC01002010B504463C
:103640000020FE490860FE480460FCB90020FD49E6
:1036500008601FED100AFC4880ED000A47F2305068
:10366000FA490860FA4908601FED160AF94880ED2A
:10367000000A0020F8490860F8490860F849086025
:10368000F84908601FED1D0AFFF7FCFE10BD10B5DC
:10369000F04890ED000AB5EEC00AF1EE10FA05D13F
:1036A000ED48006810B9ED48006890B11FED270A99
:1036B000E84880ED000A0020E7490860E749086013
:1036C000E9480068E9490860E24890ED000AFFF720
:1036D000D9FE10BDE648C0ED000AE64880ED000ABC
:1036E000704770B52DED028B05460C46B0EE408A52
:1036F000D6480068A8420BD1D0480068A04207D144
:10370000D14890ED000AB4EE480AF1EE10FA18D054
:10371000CA480460CB48006810B90520C949086050
:10372000D1480068D1490860C74880ED008AC74881
:1037300005600020D0490860C64890ED000AFFF7F8
:10374000A1FEBDEC028B70BD70B52DED028B044661
:10375000B0EE408A0D46C1480068A0420BD1BD487A
:1037600090ED000AB4EE480AF1EE10FA03D1BA481F
:103770000068A84237D0B548006847F23051884207
:1037800022D13220AD4908600A20AE49086047F2D4
:103790003050844218DA0120B1490860B5EEC08A81
:1037A000F1EE10FA03DDB0480068A04208DCB5EE87
:1037B000C08AF1EE10FA07D2AB480068A04203DAE3
:1037C000B1EE480AB0EE408AA4480460A248056001
:1037D000A04880ED008A0020A74908609D4890ED30
:1037E000000AFFF74FFEBDEC028B70BD10B52DED4A
:1037F000028BB0EE408A04462146B0EE480A47F2FA
:103800003050FFF7A1FFBDEC028B10BD70B5044630
:103810000D461FED800A29462046FFF762FF70BD66
:1038200010B52DED088BF0EE408A0446B0EE608AAC
:10383000B0EE419A864890ED000AB8EEC00AB4EEA8
:10384000680AF1EE10FA0DD17C480068A04209D157
:10385000824890ED000AB8EEC00AB4EE480AF1EED4
:1038600010FA5ED0BDEEE80A794880ED000A7E4984
:1038700091ED000AB8EEC00A38EEC00ABDEEC00AEB
:1038800010EE100A1FED9D0A2146FFF72AFF764829
:10389000D0ED000AF8EEE00A78EE600AB0EE600AB9
:1038A000FFF710F8DFED750AB4EEE00AF1EE10FA5A
:1038B00014DD6D4890ED000AB8EEC00AB4EEC08A7F
:1038C000F1EE10FA02DDB0EE490A01E0B1EE490A6C
:1038D00010EE101A084606F030FF13E0624890ED33
:1038E000000AB8EEC00A38EE400A10EE101A084678
:1038F00006F023FF41EC1B0B9FED610B53EC102BEB
:1039000006F00AFE41EC1A0B06F02AFF09EE900AB7
:103910000021B0EE690AFDEEC80A10EE900AFFF72A
:1039200013FFBDEC088B10BD10B54D480068012891
:103930003DDD4A4909684C4A1268881AFFF70EF8BB
:1039400005280CDA464801680068401C444A1060AB
:10395000B1F5FA7F2BDD0020FFF770FE10BD404867
:103960000068FA2808DD05203449086035490860F8
:10397000FB203B49086004E00520304908603149DC
:1039800008603948006835490968884205DDBFEE9E
:10399000000A304880ED000A04E0B7EE000A2D4826
:1039A00080ED000A2B4890ED000AFFF76BFD00BF89
:1039B000D4E710B52DED028B234890ED000AB5EE4B
:1039C000C00AF1EE10FA08D11E48006828B1234859
:1039D000006847F23051884202DBBDEC028B10BD1B
:1039E00022490968204A1268881AFEF713FFB0EED0
:1039F000408AFFF747FD00BFEFE700B518480068B1
:103A0000022815DA1FEDFD0A0F4880ED000A9FED30
:103A10001E0A104880ED000A00200F49086047F296
:103A200030500A4908600A49086000200B490860C4
:103A300011480068401C1049086027E0F801002088
:103A400000020020F40100202002002008020020D3
:103A50000C0200201C020020F001002010020020B7
:103A600024020020BC0200202C02002014020020AE
:103A7000D4010020D80100200402002000004842A8
:103A8000FCA9F1D24D62403F00000000FE490968E8
:103A9000884204DAFD480068FEF777FE0EE0FA4837
:103AA0000068FB490860FB48006820B1F7480068DF
:103AB000FEF76BFE02E00020FEF767FE00BDF44A51
:103AC0001268521CF24B1A60824207DDF24A1268F9
:103AD0000A44F14B1A600022ED4B1A60704770B532
:103AE000FEF77AFEED490860FFF71EFFEC4800681C
:103AF000002821DDE8480068E9490968884229D0A2
:103B0000E5480068E649096888420EDAE24800683C
:103B1000E449096888421DDADF480068FEF725FF9E
:103B200004460121FFF7CBFF14E04FF0FF31DE48E0
:103B30000068FFF7C4FF0DE0D7480068002806DDE5
:103B40004FF0FF31D9480068FFF7B9FF02E0FFF7F7
:103B500054FF70BDD6480068D0490968884205D036
:103B6000FFF727FFCD480068D1490860D1480068B9
:103B7000E8B3C948D0ED000AF8EEE00ACE4890ED6F
:103B8000001A60EE810AB0EE600AFEF72AFE0446D3
:103B9000C148D0ED000AF8EEE00AC84890ED001ADE
:103BA00060EE810AB0EE600AFEF71BFE0546BA48D9
:103BB000D0ED000AF8EEE00AC14890ED001A60EE80
:103BC000810AB0EE600AFEF70CFE06462246294640
:103BD000FEF779FDBB4890ED000ABDEEC00A10EE7D
:103BE000102AB94890ED000ABDEEC00A00E00AE0D4
:103BF00010EE101AB54890ED000ABDEEC00A10EEA6
:103C0000100AFEF7BBFD00BFA3E710B52DED0E8B2C
:103C1000F0EE408A1FED640AB0EE408AAC480068BE
:103C200006F08BFD41EC1C0B9FEDAA0B53EC102B07
:103C300006F072FC41EC1A0B18EE900A06F07DFDBE
:103C400041EC1C0B9FEDA50B53EC102B06F064FC14
:103C500041EC1B0B53EC1A2B06F0B7FB41EC190B94
:103C600006F07EFD9A490860084690ED000A20EEB5
:103C7000000A10EE101A084606F05FFD41EC1A0B20
:103C8000B0EE4A0AF0EE6A0A08F0D6FFB0EE409AAB
:103C9000F0EE609A51EC190B06F062FD04462046E6
:103CA00006F04BFD41EC1C0B9FED8E0B07F020FC4A
:103CB000B0EE40EAF0EE60EA9FED8C0B53EC102B77
:103CC00051EC1E0B06F09AFC41EC1D0B53EC1C2B27
:103CD00006F022FC41EC1B0BB0EE4B0AF0EE6B0A37
:103CE00007F0CEF9B0EE40AAF0EE60AA9FED810B8E
:103CF00053EC102B51EC1A0B06F00EFC41EC190B97
:103D000006F02EFD08EE100A9FED7C0AB4EEC08A84
:103D1000F1EE10FA04DD9FED790AB0EE408A0AE078
:103D2000B3EE040AB4EEC08AF1EE10FA03D2B3EE99
:103D3000040AB0EE408ABDEEC80A714880ED000A60
:103D4000BDEC0E8B10BD10B52DED028BB0EE408A90
:103D50006C488079C0B1322005F0B6FE69488079A0
:103D600090B169480068401C6749086008460068CF
:103D7000022801DD0020086002E0012005F0A4FE19
:103D8000604880790028F8D15F48006801280CD18C
:103D90005E4890ED000AB8EEC00A5D4880ED000A6A
:103DA00059480068401C5849086057480068022874
:103DB0000AD1564890ED000AB8EEC00A554880ED89
:103DC000000A002050490860BDEC028B10BD10B500
:103DD0002DED088BF0EE408AB0EE608AB0EE000A5E
:103DE00028EE800A20EE280AF0EE000A68EE200A8B
:103DF00000EE880ADFED480A30EE600AF5EE000AB0
:103E000020EE200AB0EE409A9FED430AF0EE409A71
:103E1000F0EE000A68EEA00A60EEA80AB0EE001A02
:103E200028EE011A41EE080A9FED3B1A70EEC10A16
:103E3000B0EE600A08F03DFFB0EE40AA68EEA80AB6
:103E400048EE480AB0EE600AF0EE000A08F05CFBAB
:103E5000F0EE000A68EEA00A60EEA80AB0EE001AC2
:103E600028EE011A41EE080A9FED2B1A70EEC10AE6
:103E70009FED291A20EE811AC0EE010AB7EE000A62
:103E800030EE600A4AE00000E0010020DC01002082
:103E900004020020BC020020F40100202C020020BB
:103EA000F8010020FC010020340200200002002064
:103EB00030020020EC010020400200203C020020E3
:103EC0003802002058020020540200205002002036
:103ED0007C030020CDCCCCCCCCCCEC3F9A999999EA
:103EE0009999B93F000000A09999FD3F000000009A
:103EF00000C06940000000000000344000007A4328
:103F000040030020A4060020700300209C00002035
:103F1000680300206C03002000209944F0EE40AAC2
:103F2000B0EE6A0A08F0C5FEDFEDF60A6AEE200A76
:103F300020EE200AB0EE40BA79EE290A70EECB0AE4
:103F4000B0EE600A08F0B5FEF0EE40BAB0EE6B0AD3
:103F5000BDEC088B10BD10B52DED088BB0EE409A6E
:103F6000F0EE609AB0EE418A29EE090A08EE080ADE
:103F700009EEE90AB0EE40BAB0EE000A29EE000AF6
:103F800020EE080AB0EE40AAB5EEC0AAF1EE10FA93
:103F900004D19FEDDD0ABDEC088B10BDCBEE0A8A83
:103FA000B7EE000AF4EEC08AF1EE10FA03DDB7EEC8
:103FB000000AF0EE408ABFEE000AF4EEC08AF1EE8D
:103FC00010FA03D2BFEE000AF0EE408AB0EE680AA3
:103FD00006F03CFECD48D0ED000A9FEDCD1AC1EEB3
:103FE000201A20EE210AF2EE040AC0EE20AAB0EE5A
:103FF0006A0AD0E710B50221C64802F065FBA0B9F5
:10400000C5480068C5490860C5480078C54981F8B9
:104010002F0081F82B0081F82700012081F826006D
:10402000002081F82A0081F82E0010BD10B5022171
:10403000B84802F049FBA8B9B7480068401FB74923
:104040000860B7480078B74981F82F0081F82B0045
:1040500081F82700012081F82600002081F82A003D
:1040600081F82E0010BD10B50221AA4802F02CFBE9
:10407000A8B9A94800680A38A8490860A848007883
:10408000A84981F82F0081F82B0081F82700012032
:1040900081F82600002081F82A0081F82E0010BD4A
:1040A00010B502219B4802F00FFBA8B99A4800689E
:1040B0000F389A4908609A4800789A4981F82F0089
:1040C00081F82B0081F82700012081F826000020CC
:1040D00081F82A0081F82E0010BD10B59248407872
:1040E00000F0010098BB9048007800F0800070B3A9
:1040F0008C4890F84F0040F001008A4981F84F0049
:1041000042F2107005F0E0FC0020864981F82F0093
:1041100081F82B0081F8270084490860814890F8D5
:104120004F0000F0FD007F4981F84F0041F28830D8
:1041300005F0CAFC7B4890F84F0000F0FE0079497A
:1041400081F84F00002081F833007949086010BDE4
:104150007548407800F0020070B97348407800F06C
:10416000400048B97048407800F0010020B96E481E
:10417000407800F0200038BB6B48407800F0010028
:1041800020B16948407800F02000E8B966484078DE
:1041900000F0010020B16448407800F0100098B9A8
:1041A0006148407800F0010020B15F48407800F09D
:1041B000040048B95C48407800F00100F8B15A4862
:1041C000407800F00800D0B100205A490860012072
:1041D0005949086000205949086059480068594900
:1041E000086000204F4981F82F0081F82B0081F8EA
:1041F00027005549086032204A4981F833004A486F
:10420000407800F0020098BB4748407800F040003A
:1042100070BB4548407800F0010048B34248407800
:1042200000F0200020BB4048407800F01000F8B9B2
:104230003D48407800F00400D0B93B48407800F099
:104240000800A8B900203B49086001203A490860ED
:1042500000203A4908603A4800683C303949086013
:1042600000203949086032202E4981F8330013E0DC
:10427000FFE73648016832480068C01C81420BDC09
:10428000304800682E490968884205D129480068ED
:1042900010B90120254908602348407800F0020049
:1042A000C8B92148407800F04000A0B91E484078C5
:1042B00000F0010078B91C48407800F0040050B1CB
:1042C000234800681F49086001201A49086000203F
:1042D0001649086015E01948006890B91948006847
:1042E0001B49096888420CD1194800680A381749E7
:1042F0000968884205DA00200F49086001200F494B
:104300000860704700000C42000000001403002009
:1043100000003443001002409C0000207403002081
:104320002403002004000020A406002044030020F1
:104330005803002050030020480300204C030020B5
:104340003C010020380100205C030020B000002068
:104350004001002010B5FE488079C0B1322005F040
:10436000B3FBFB48807990B1FA480068401CF949DA
:10437000086008460068022801DD0020086002E0AD
:10438000012005F0A1FBF24880790028F8D1F1481E
:10439000006801281BD10221EF4802F095F9B0B95D
:1043A00040F6B83005F090FB0F20EC4981F827006B
:1043B000E62081F82B000F2081F82F00012081F8E2
:1043C0002600002081F82A0081F82E0066E0E148EE
:1043D0000068022862D1E14890F84F0040F00100E7
:1043E000DE4981F84F004FF4FA5005F06DFB0020D4
:1043F000DA4981F82F0081F82B0081F82700084660
:1044000090F84F0000F0FE0081F84F0042F210706B
:1044100005F05AFB3220D14981F833000A2081F897
:104420002F0081F82B0081F82700002081F826005A
:10443000012081F82A0081F82E000020C849086078
:1044400013E006E0FCF758FA00B108E0012005F09F
:104450003BFB0221C04802F037F90128F2D000BF2F
:10446000BF480068401CBE490860BD480068642819
:10447000E7DB40F6B83005F027FBB84890F84F006E
:1044800040F00200B54981F84F00002081F82F006C
:1044900081F82B0081F82700AE49086010BD00218B
:1044A00000EE900AF8EEE00A70EE600AFDEEE00A17
:1044B00010EE901AAB4A1160704710B50221A64861
:1044C00002F002F9A0B9A8480068A8490860A84805
:1044D0000078A24981F82F0081F82B0081F827008D
:1044E000012081F82600002081F82A0081F82E00A2
:1044F00010BD10B50221984802F0E6F8A0B99A481C
:1045000000689A4908609A480078944981F82F0019
:1045100081F82B0081F82700012081F82600002077
:1045200081F82A0081F82E0010BD10B502218A48BA
:1045300002F0CAF8A0B98C4800688C4908608C4821
:104540000078864981F82F0081F82B0081F8270038
:10455000012081F82600002081F82A0081F82E0031
:1045600010BD10B502217C4802F0AEF8A0B97E481B
:1045700000687E4908607E480078784981F82F00FD
:1045800081F82B0081F82700012081F82600002007
:1045900081F82A0081F82E0010BD2DE9F0412DEDA3
:1045A0000E8B05462C461FEDA80A10EE106A304609
:1045B00006F0C3F841EC1C0B9FED6E0B53EC102B77
:1045C00005F0AAFF41EC1A0B204606F086F841ECF4
:1045D0001C0B9FED680B53EC102B05F09DFF41EC7D
:1045E0001B0B53EC1A2B05F0F0FE41EC190B06F0F7
:1045F000B7F80646304606F0A0F841EC1A0BB0EECC
:104600004A0AF0EE6A0A06F0E7FEB0EE409AF0EED3
:10461000609A51EC190B06F0A3F80746384606F0ED
:104620008CF841EC1C0B9FED550B06F061FFB0EED2
:1046300040EAF0EE60EA9FED530B53EC102B51EC87
:104640001E0B05F0DBFF41EC1D0B53EC1C2B05F0A2
:1046500063FF41EC1B0BB0EE4B0AF0EE6B0A06F069
:104660000FFDB0EE40AAF0EE60AA9FED480B53ECB0
:10467000102B51EC1A0B05F04FFF41EC190B06F013
:104680006FF808EE100AB4F5FA6F16DD40F6FC007C
:10469000844212DA18EE100A06F04FF841EC1A0BB9
:1046A0009FED3C0B53EC102B05F036FF41EC190B42
:1046B00006F056F808EE100ACFE040F6FC008442FF
:1046C00016DD40F68C20844212DA18EE100A06F04D
:1046D00034F841EC1A0B9FED310B53EC102B05F025
:1046E0001BFF41EC190B06F03BF808EE100AB4E092
:1046F00040F68C20844216DD40F6B830844212DA4F
:1047000018EE100A06F019F841EC1A0B9FED250B74
:1047100053EC102B05F000FF41EC190B06F020F8CC
:1047200008EE100A99E040F6B830844249DD40F6C0
:104730001650844245DA18EE100A05F0FEFF41ECEF
:104740001A0B9FED1A0B53EC102B05F0E5FE31E030
:10475000A40600205C03002000100240040000209A
:10476000F0020020800300209C000020780300203D
:1047700040030020000000000000E03F00000000B7
:10478000000008400000000000408F4000000000D2
:1047900000003940666666666666EE3FCDCCCCCCDE
:1047A000CCCCEC3F333333333333EB3F3D0AD7A329
:1047B000703DEA3F41EC190B05F0D2FF08EE100AFC
:1047C0004BE040F61650844215DDB4F5616F12DA05
:1047D00018EE100A05F0B1FF41EC1A0B9FEDFE0B2D
:1047E00053EC102B05F098FE41EC190B05F0B8FFC7
:1047F00008EE100A31E0B4F5616F15DDB4F57A6F9B
:1048000012DA18EE100A05F098FF41EC1A0B9FED32
:10481000F40B53EC102B05F07FFE41EC190B05F067
:104820009FFF08EE100A18E0B4F57A6F15DD42F22A
:104830001070844211DA18EE100A05F07EFF41EC88
:104840001A0B9FEDE90B53EC102B05F065FE41ECC4
:10485000190B05F085FF08EE100A9FEDE50AB4EE8E
:10486000C08AF1EE10FA04DD9FEDE10AB0EE408A55
:104870000AE0B3EE040AB4EEC08AF1EE10FA03D2F5
:10488000B3EE040AB0EE408ABDEEC80AD94880ED06
:10489000000A0068D8490860BDEC0E8BBDE8F081C5
:1048A00010B52DED028BD548C07801EE100AB8EE98
:1048B000411ADFEDD31A31EE611AF0EE410ACF480A
:1048C000807801EE100AB8EE411ADFEDCD1A31EE14
:1048D000611AB0EE410A06F045FAF0EE408AC94886
:1048E000D0ED000A9FEDC81A81EE200A20EE280ABA
:1048F000B0EE408AB5EEC08AF1EE10FA05D29FED17
:10490000C30A38EE000AB0EE408ABC48C0787E2860
:1049100007D1BA4880787F2803D19FEDBD0AB0EE59
:10492000408A9FEDB90AB4EEC08AF1EE10FA06D8BB
:10493000B2EE040A28EE000AB0EE408A09E09FEDCC
:10494000B30A38EE400AF2EE040A20EE200AB0EE76
:10495000408A9FEDB00A38EE400AAF4880ED000A69
:10496000BDEC028B10BD10B5A448C07900284CD016
:10497000A248007800F08000002846D1142005F0FD
:10498000A3F89E48C07900283FD09C48007800F0EA
:104990008000002839D1A1480078401C9F49087048
:1049A00008460078022801DD0120087000BF934806
:1049B000C0790028FBD199480078012809D1FDF77A
:1049C0003FFB142005F080F895480068FFF7E5FDEF
:1049D0001BE092480078022817D14FF47A7005F056
:1049E00073F801208F490860824800788E4981F869
:1049F0002F0081F82B0081F82700012081F8260084
:104A0000002081F82A0081F82E0010BD10B52DED90
:104A1000028BB0EE408A0221844801F055FEA0B915
:104A20008348006883490860834800787E4981F89C
:104A30002F0081F82B0081F82700012081F8260043
:104A4000002081F82A0081F82E00BDEC028B10BDF9
:104A500070B5044625466948407800F001000028FA
:104A60004BD06648007800F08000002845D1142023
:104A700005F02AF86148407800F0010000283CD099
:104A80005E48007800F08000002836D100BF5B4807
:104A9000407800F001000028F9D104F16400674972
:104AA0000860322005F010F8FDF792FE322005F084
:104AB0000BF804E00020B0EE080AFEF797FE5F480E
:104AC00000688542F6DB00205D49086011E006E0E1
:104AD000FBF712FF00B106E0012004F0F5FF574894
:104AE00000688542F4DC00BF55480068401C54490A
:104AF0000860534800686428E9DB70BD10B53F4882
:104B0000407800F08000002833D00A20464981F820
:104B10002F0081F82B0081F82700002081F8260063
:104B2000012081F82A0081F82E0000240FE006E021
:104B3000FBF7E2FE00B108E0012004F0C5FF02210E
:104B40003A4801F0C1FD0128F2D000BF641C642C7A
:104B5000EDDB40F6B83004F0B7FF3220324981F87F
:104B60003300002081F82F0081F82B0081F8270006
:104B700000BF10BD10B52148407800F0800000282B
:104B800071D00A20284981F82F0081F82B0081F884
:104B90002700002081F82600012081F82A0081F8F2
:104BA0002E0000240FE006E0FBF7A6FE00B108E0AF
:104BB000012004F089FF02211C4801F085FD012835
:104BC000F2D000BF641C642CEDDB40F6B83004F07A
:104BD0007BFF3220144935E048E17A14AE47E93FC3
:104BE00052B81E85EB51E83F5C8FC2F5285CE73F69
:104BF00000007A433803002034030020A40600207C
:104C00000000FF4214030020000034430000B443BE
:104C100000409C460000E143CC000020BC03002083
:104C200090010020440300200400002000100240F6
:104C30009C00002078030020400300208403002013
:104C4000F002002081F83300002081F82F0081F865
:104C50002B0081F82700084690F84F0040F0020032
:104C600081F84F0000BF10BDF748007800F0020047
:104C700090B10020F54981F82F0081F82B0081F8D0
:104C80002700F3490860F14981F83300F1490860D1
:104C9000F1490860F14908607047F14800687047C1
:104CA00038B51E200090FFF7F8FF04460821ED48B4
:104CB00001F00AFDA0B94FF40051EA4801F004FDEB
:104CC00070B91021E74801F0FFFC48B91920FEF740
:104CD000B5FC0020E4490860E4490860009038BD54
:104CE0004FF40051DF4801F0EFFC28B10020DE490D
:104CF0000860DE490860F2E70821DA4801F0E4FCC8
:104D0000E8B91021D74801F0DFFCC0B1D6480068EF
:104D100008B9D5480460D4480068251A0A2000EB79
:104D20005500D349086008460068322801DD32206A
:104D300008609DF80010CF48FEF768FD28E01021BC
:104D4000C84801F0C1FCF0B90821C64801F0BCFC1C
:104D5000C8B1C648006808B9C4480460C3480068C0
:104D6000251A0A2000EB5500C14908600846006872
:104D7000142801DD142008609DF800104FF46170C4
:104D8000FEF744FD04E00020B7490860B749086019
:104D900000BFA4E72DE9F04140F6B83440F6AC5529
:104DA000002601270821AF4801F08EFC01280BD115
:104DB0004103AC4801F088FC20B11021A94801F062
:104DC00083FC08B94FF0FF377FE1FBF795FD00B199
:104DD0007EE10821A34801F077FC012842D141037C
:104DE000A04801F071FC01283CD110219D4801F040
:104DF0006BFC012836D1FDF7CBF89FED9F1ADFED54
:104E00009E0A3C209FED9C0AFEF70AFD00209B496C
:104E1000086018E00DE04FF40051924801F054FC96
:104E200000B90AE0FBF768FD00B106E0012004F0DC
:104E30004BFEFBF770FEA842EDDB00BF8F48006819
:104E4000401C8E4908608D4800686428E2DBFBF74F
:104E500062FE06440020FEF7F1FB02274FF47A7051
:104E600004F032FE022F01D0AE4200DD30E1012F0E
:104E700077D10020FEF7E2FBFDF78AF89FED7E1A5E
:104E8000DFED7D0A3C209FED7E0AFEF7C9FC002085
:104E90007A49086024E019E00821724801F014FC06
:104EA00001280CD141036F4801F00EFC012806D106
:104EB00010216C4801F008FC012800D10AE0FBF742
:104EC0001BFD00B106E0012004F0FEFDFBF723FE10
:104ED000A042E1DB00BF69480068401C67490860E8
:104EE000664800686428D6DBFBF715FEA04239DA75
:104EF00008215C4801F0E8FB012833D141035948FF
:104F000001F0E2FB01282DD11021564801F0DCFB15
:104F1000012827D1FDF73CF89FED571ADFED560A1F
:104F20003C201FEDC40AFEF77BFC002053490860BB
:104F300012E006E0FBF7E0FC00B107E0012004F01E
:104F4000C3FDFBF7E8FDB0F5FA6FF3DB00BF4B489C
:104F50000068401C49490860484800686428E8DB4C
:104F600002270BE04FF0FF371420FEF767FB4FF4EA
:104F70007A6004F0A9FD0020FEF760FB781C002891
:104F800061D1FDF705F89FED3C1ADFED3B0A3C20AF
:104F90009FED3C0AFEF744FC00203849086024E0FD
:104FA00019E008212F4801F08FFB01280CD14103A3
:104FB0002C4801F089FB012806D11021294801F075
:104FC00083FB012800D10AE0FBF796FC00B106E064
:104FD000012004F079FDFBF79EFDA042E1DB00BF5C
:104FE00026480068401C2549086024480068642859
:104FF000D6DBFBF790FDA0425CDA0821194801F0EE
:1050000063FB012856D14103164801F05DFB0128DE
:1050100050D11021134801F057FB01284AD1FCF769
:10502000B7FF9FED151ADFED140A3C209FED160A1D
:10503000FEF7F6FB00201149086035E029E0FBF798
:105040005BFC18B32AE040E0A40600200400002026
:1050500064030020600300205C030020580300204C
:1050600088030020001002408C03002090030020E1
:10507000C00300207CFCFFFF00000000F0020020C5
:1050800000006144000061C40000E1C3012004F09D
:105090001BFDFBF740FDB0F5FA6FD0DB00BFFC480D
:1050A0000068401CFA490860F94800686428C5DBBC
:1050B00002270AE001271420FEF7C0FA4FF47A60B5
:1050C00004F002FD0020FEF7B9FAAE42FFF67DAE15
:1050D00000BF0020FEF7B2FA4FF47A7004F0F4FC3F
:1050E000BDE8F08110B50A20EA4981F82F0081F867
:1050F0002B0081F82700002081F82600012081F88C
:105100002A0081F82E0000240FE006E0FBF7F4FBF4
:1051100000B108E0012004F0D7FC0221DE4801F0D4
:10512000D3FA0128F2D000BF641C642CEDDB40F6FA
:10513000B83004F0C9FC3220D64981F83300002091
:1051400081F82F0081F82B0081F82700FCF720FF61
:105150001FED371A5FED380A46201FED390AFEF7BA
:105160005FFB00240FE006E0FBF7C6FB00B108E0A0
:10517000012004F0A9FCFBF7CEFC41F6583188422F
:10518000F2DB00BF641C642CEDDBFCF701FF1FEDBC
:10519000461A5FED470A3C209FEDC00AFEF740FB30
:1051A00000240EE006E0FBF7A7FB00B107E00120BA
:1051B00004F08AFCFBF7AFFCB0F57A6FF3DB00BFBD
:1051C000641C642CEEDB0020FEF738FA4FF47A7092
:1051D00004F07AFC10BDB24801680068401CB04A77
:1051E0001060642907D2AF484089AF490968084474
:1051F000AD4908600BE0AC4800686421B0FBF1F0F9
:10520000AA4908600020A6490860A7490860A84884
:1052100001680068401CA64A1060642907D2A148B2
:105220000089A44909680844A24908600BE0A14824
:1052300000686421B0FBF1F09F49086000209C49A0
:1052400008609C4908609D4801680068401C9B4AB2
:105250001060642907D293488089994909680844F5
:10526000974908600BE0964800686421B0FBF1F0B4
:10527000944908600020914908609149086092486B
:1052800001680068401C904A1060782907D2854860
:10529000C0898E49096808448C4908600BE08B4836
:1052A00000687821B0FBF1F0894908600020864948
:1052B000086086490860874801680068401C854A84
:1052C00010600A2907D27748C088834909680844D2
:1052D000814908600BE0804800680A21B0FBF1F0CA
:1052E0007E49086000207B4908607B4908607C4853
:1052F00001680068401C7A4A1060322907D2694868
:105300004088784909680844764908600BE0754888
:1053100000683221B0FBF1F0734908600020704949
:10532000086070490860714801680068401C6F4A55
:105330001060322907D25B4800886D49096808442B
:105340006B4908600BE06A4800683221B0FBF1F05D
:105350006849086000206549086065490860704731
:105360006548006865490968884203DA634800684F
:10537000614908606048006861490968884203DD46
:105380005F4800685C4908605A4909685A4A1268CF
:10539000881A002801DB014600E04142032928DD8C
:1053A0005448006854490968884204DD002039499E
:1053B00081F8220003E00120364981F822004D499E
:1053C00009684D4A1268881A002801DB014600E08E
:1053D000414249004B4A116010460068FA2802DD3C
:1053E000FA2011460860474800782A4981F82300CE
:1053F00003E00520274981F823004348006818B9D5
:105400000020244981F82300704710B53F48C07937
:10541000A0B13E48407800F0040078B136480068FA
:1054200037490968884209DA33480068401C324924
:1054300008604FF4967004F047FB16E03348C079DB
:1054400098B13248407800F0200070B12A480068D6
:105450002A490968884208DD27480068401E264915
:1054600008604FF4C87004F02FFB10BD73B52DED2C
:10547000028B14259FED260AB0EE408A234800795E
:10548000322847DB21480079C82843DC012042E06C
:10549000F002002004000020001002400000E14360
:1054A000C403002058060020C803002098000020F4
:1054B000CC030020D00300209C000020D403002057
:1054C000D8030020A4000020DC030020E00300201B
:1054D000A0000020E4030020E8030020B400002026
:1054E000EC030020F0030020AC000020F4030020B7
:1054F000F8030020B0000020380100203C0100200B
:10550000400100209803002048030020A40600204A
:105510000000000000200446FC48007800F008006D
:10552000D0B9FA48007800F01000A8B9F748007820
:1055300000F0200080B9F548007800F0400058B92C
:1055400054B1F248407800F0010028B90020FEF77D
:1055500075F8BDEC028B7CBDEC48407800F0020091
:1055600030B19DF80C509FEDEA0AB0EE408A05E09C
:105570009DF808509FEDE70AB0EE408AE3480078B6
:1055800000F00800A0B1E148007800F0100078B900
:10559000DE48007800F0200050B9DC48007800F0C8
:1055A000400028B929464FF4E160FEF72FF9B0E03A
:1055B000D648007800F0080098B9D448007800F088
:1055C000100070B1D148007800F0200048B9CF48F1
:1055D000007800F0400020B929460020FEF716F9B7
:1055E00097E0CA48007800F0080098B9C7480078EA
:1055F00000F0100070B9C548007800F0200048B1F4
:10560000C248007800F0400020B92946C248FEF7A1
:10561000FDF87EE0BD48007800F00800A0B9BB4866
:10562000007800F0100078B9B848007800F0200049
:1056300050B9B648007800F0400028B129464FF430
:105640006170FEF7E3F864E0B048007800F008000D
:1056500098B1AE48007800F0100070B9AB480078FF
:1056600000F0200048B1A948007800F0400020B9BF
:105670002946AA48FEF7CAF84BE0A448007800F093
:105680000800A0B1A148007800F0100078B99F4848
:10569000007800F0200050B99C48007800F04000ED
:1056A00028B1294640F24650FEF7B0F831E097485D
:1056B000007800F0080098B99448007800F01000D5
:1056C00070B19248007800F0200048B18F4800780F
:1056D00000F0400020B929469148FEF797F818E0FD
:1056E0008A48007800F0080098B98848007800F0EF
:1056F000100070B18548007800F0200048B9834858
:10570000007800F0400020B129464FF4E170FEF728
:105710007DF87E48007800F00800D0B97B4800781A
:1057200000F01000A8B97948007800F0200080B996
:105730007648007800F0400058B954B1FDF73EF8C3
:1057400038B17248407800F0010010B90020FDF730
:1057500075FF14B1FDF79BFF27E06C4800793228F4
:105760000EDAFDF72BF828B10020B1EE480AFEF75B
:105770003DF81AE00020B1EE480AFEF737F814E0D1
:1057800062480079C8280EDDFDF718F828B100201E
:10579000B0EE480AFEF72AF807E00020B0EE480A0B
:1057A000FEF724F801E0FDF772FF00BFD1E610B567
:1057B00001205C49887004215B4800F085FF0128C6
:1057C00004D102205749C870012010BD96205549C8
:1057D000C8700020F9E710B50421534800F074FFA9
:1057E00001280BD15148007840B996204D49C87026
:1057F00000204F4908604F49086010BDFBF785F84D
:10580000041E01DB204600E060424B4909688842E3
:1058100008DD46480078012804D102204149C870BB
:105820000120EAE71E203F49C87001203F49087067
:105830000020E2E710B500203A49887401213A4877
:1058400000F042FF012804D102203649C87401202B
:1058500010BD64203349C8740020F9E710B5012158
:10586000314800F031FF01280BD13448007840B9AD
:1058700064202C49C874002031490860314908600F
:1058800010BDFBF7B5F8041E01DB204600E06042C6
:105890002D490968884208DD28480078012804D18C
:1058A00002202049C8740120EAE71E201D49C8745F
:1058B0000120224908700020E2E710B501201949B3
:1058C00088728103184800F0FFFE012804D10220ED
:1058D0001449C872012010BD64201249C87200200A
:1058E000F9E710B54FF480410F4800F0EDFE0128B4
:1058F00031D11648007868BB64200A49C87200207C
:105900004FF0804148621249086010BDA406002093
:10591000CDCC6C403333333F7CFCFFFFBAFAFFFF42
:105920003EFEFFFF04000020001002409403002010
:105930002404004074000020A003002095030020F0
:10594000240C004078000020A403002097030020CE
:1059500070000020FFE7FBF793F8041E01DB2046F0
:1059600000E06042FE490968884208DDFD48007891
:10597000012804D10220FC49C872012010BD1E205C
:10598000F949C8720120F74908700020F6E710B500
:105990002DED048BFAF7B9FFF4490968441A002C7D
:1059A00001DB204600E06042002839DDFAF7ADFF58
:1059B000EE490968884203DD0020EB49887002E067
:1059C0000120E9498870FAF7A0FFE8490968441AFC
:1059D000002C01DB214600E06142084604F07DFE18
:1059E00041EC190B9FEDE20B53EC102B04F094FDEE
:1059F00041EC180B04F082FEDF490860084600689D
:105A0000FA2801DDFA200860DB4800680A2802DA7B
:105A10000A20D9490860D8480078D349C87002E004
:105A20000220D149C870BDEC048B10BD10B52DED1E
:105A3000048BFAF7DDFFD1490968441A002C01DB19
:105A4000204600E06042002839DDFAF7D1FFCB495B
:105A50000968884203DD0120C349887402E0002000
:105A6000C1498874FAF7C4FFC4490968441A002C74
:105A700001DB214600E06142084604F02EFE41ECC5
:105A8000190B9FEDBB0B53EC102B04F045FD41ECC3
:105A9000180B04F033FEB849086008460068FA287D
:105AA00001DDFA200860B44800680A2802DA0A20FA
:105AB000B1490860B0480078AB49C87402E00220E0
:105AC000A949C874BDEC048B10BD10B52DED048B35
:105AD000FAF7D6FFAA490968441A002C01DB2046D0
