:020000040800F2
:10000000F0330020ED4E00084502000847020008CA
:100010004B0200084F0200085302000800000000D5
:100020000000000000000000000000009D0100082A
:100030005702000800000000E1010008077F0008E7
:10004000074F0008074F0008074F0008074F000838
:10005000074F0008074F0008074F0008074F000828
:100060005F040008A3040008074F0008010300080C
:10007000E30200083F030008074F0008750200086C
:10008000074F000881020008074F0008074F0008CB
:10009000074F0008074F0008074F0008074F0008E8
:1000A000074F00087B030008A7030008074F00085C
:1000B000A9030008D703000803040008074F00083D
:1000C000074F0008074F0008074F00085B040008AF
:1000D000074F00085D020008074F0008074F00089F
:1000E000074F0008074F0008074F0008074F000898
:1000F000074F0008074F0008074F00081B030008C0
:10010000074F0008074F00082F0400085D0400088F
:10011000074F0008074F00084D0300085903000867
:10012000074F00089B020008B5020008074F0008AF
:10013000074F0008074F0008074F0008074F000847
:10014000074F0008074F0008074F0008074F000837
:10015000D5020008074F0008074F0008074F0008A6
:10016000074F0008074F0008074F0008074F000817
:10017000074F0008074F0008074F0008074F000807
:10018000074F0008074F0008DFF80CD009F020FAED
:1001900000480047154C0008F0330020234B196835
:1001A0000868B0E8F04F80F309884FF0000080F352
:1001B000118870470000000003480068006880F361
:1001C000088862B600DF00BF08ED00E0DFF80C0031
:1001D000016841F470010160704700BF88ED00E0E4
:1001E000EFF30980114B1A681EF0100F08BF20EDC5
:1001F000108A20E9F04F106008B54FF0140080F32A
:10020000118808F048FA4FF0000080F31188BDE82B
:10021000084019680868B0E8F04F1EF0100F08BFDA
:10022000B0EC108A80F30988704700BFD403002027
:10023000EFF311804FF0140181F31188704780F3C0
:1002400011887047704700BFFEE700BFFEE700BFA0
:10025000FEE700BFFEE770477047704710B540F2F9
:100260002551904806F063FF18B120218D4806F013
:1002700055FF10BD10B58C498C4805F08DFE10BDA2
:1002800010B58B498948303005F05CFE20B18849B3
:100290008648303005F080FE10BD10B5854986488F
:1002A00005F050FE28B18349834805F075FE01F042
:1002B00019FD10BD10B581497F48183005F06CFE5E
:1002C0007F4840787E49097840EA012000B27D49A4
:1002D000088010BD10B57C497748603005F05CFEA1
:1002E00010BD10B573497148483805F02BFE30B188
:1002F00070496E48483805F04FFE00F09FFA10BD77
:1003000010B572496948603805F01CFE20B16F498C
:100310006648603805F040FE10BD10B56C49634872
:10032000483005F00FFE48B100216048483005F024
:100330005FFD67495D48483005F02EFE10BD10B5E1
:1003400059495A48303805F027FE10BD10B5012133
:10035000604806F049FC10BD10B501215E4806F06A
:1003600043FC7A204F49888001215C4806F0EEFD6D
:1003700001215B4806F0EAFD10BD10B50121594886
:1003800006F032FC5748008800F0100028B15648AB
:100390000068401E5449086004E053480068401C4F
:1003A0005149086010BD704710B50121880706F05B
:1003B0001BFC4FF08040008800F0100028B14B4833
:1003C0000068401E4949086004E048480068401C35
:1003D0004649086010BD10B50121454806F004FCEF
:1003E0004348008800F0100028B142480068401ED1
:1003F0004049086004E03F480068401C3D490860EF
:1004000010BD10B501213C4806F0EEFB3A480088CB
:1004100000F0100028B139480068401E37490860D4
:1004200004E036480068401C3449086010BD10B52F
:100430000121334806F0D8FB3148008800F0100055
:1004400028B130480068401E2E49086004E02D485D
:100450000068401C2B49086010BD7047704710B5FC
:10046000042005F031FED8B12021274804F0B5FE64
:100470000421264804F08CFE012804D100211648EE
:1004800005F032FF09E00421204804F081FE20B984
:10049000114805F02DFF1E49086004201D49086021
:1004A00010BD7047001001402080002070600240A5
:1004B0000080202000880010286402400080201066
:1004C000F00500208400002000880020208000101B
:1004D0000080002800100040001400400048004048
:1004E000001401400000014064000020680000206A
:1004F000000400406C000020000800408000002044
:10050000000C00407000002000000240000C02407F
:1005100060000020143C014070B50446204608F0FD
:10052000A3FC05462146F74808F0A5FCA0B195229A
:100530002146F44808F08CFC0021F34805F058FCF3
:10054000F048F1490C310860EF48B838C0F8BC50A9
:100550000121ED4805F04CFC70BD70B50446002546
:1005600010E0605D68B1615DE84806F01AFD00BF0B
:100570008021E64806F0C5FD0028F9D0681CC5B208
:1005800000E070BDEDE770B5044600250FE05CB1FA
:100590002146DE4806F005FD00BF8021DB4806F05D
:1005A000B0FD0028F9D000E070BD681CC5B2032D75
:1005B000EDDB00BFF8E713B50C460020FFF7E3FFC3
:1005C000D3A0FFF7CAFF2346D2A29621D24809F052
:1005D0003DF8D148FFF7C1FFD0A0FFF7BEFFCDA285
:1005E0009621CD48009B09F031F8CB48FFF7B5FFC5
:1005F000CCA0FFF7B2FFFF20FFF7C5FFFF20FFF7FA
:10060000C2FFFF20FFF7BFFF1CBD70B505460C46BB
:10061000BFA0FFF7A2FF2246BEA1BF4809F02EF8F7
:10062000BD48FFF79AFFBDA0FFF797FF2846FFF7E9
:1006300094FFBCA0FFF791FFFF20FFF7A4FF70BD60
:1006400077B585B00546FF26B4A103C9CDE90301FE
:10065000B4A000680290AEA00068019000240AE0F7
:100660000020B1490855B1490855AB490855A5497D
:100670000855601CC4B21E2CF2DB0A20A649087083
:10068000FF2048708870C870A2A1A848079A08F097
:10069000F5FFA64901A808F0CFFB01A99E4808F084
:1006A000CBFB03A99C4808F0C7FB29469A4808F0F1
:1006B000C3FB98A19D48069A08F0E0FF9B49964825
:1006C00008F0BAFB02A9944808F0B6FBFF2096494F
:1006D000087048708870904808F0AEFB8E48FFF7AD
:1006E0001BFF08B070BDF7B584B005460E46FF2766
:1006F0008AA103C9CDE902018AA00068019084A003
:1007000000680090002408E00020874908558749C8
:10071000085581490855601CC4B20A2CF4DB0A2034
:100720007D490870FF2048708870C87079A17F48A3
:10073000069A08F0A3FF7D49684608F07DFB6946EC
:10074000754808F079FB02A9734808F075FB294643
:10075000714808F071FB31466F4808F06DFB01A944
:100760006D4808F069FBFF206F4908704870887079
:100770000020C8700871684808F05EFB6648FFF703
:10078000CBFE07B0F0BD01B58EB069A2322101A841
:100790000E9B08F05BFF01A8FFF7BEFE0FB000BD87
:1007A00073B584B00546FF265CA103C9CDE90201FB
:1007B0005CA00068019056A00068009000240AE048
:1007C00000205949085559490855534908554D497C
:1007D0000855601CC4B21E2CF2DB0A204E4908707A
:1007E000FF2048708870C8704AA15048059A08F0E8
:1007F00045FF4E49684608F01FFB6946464808F029
:100800001BFB02A9444808F017FB2946424808F0A0
:1008100013FB4649404808F00FFB01A93E4808F089
:100820000BFBFF2040490870487088703A4808F078
:1008300003FB3948FFF770FE06B070BD1CB53F489A
:1008400000783E49497808443C49897808443B4946
:10085000C97808443949097908443849497908442C
:100860003649897908443549C97908443349097AB0
:100870000844C0B201903148007A00F00F000090A7
:100880009DF800000D2803D000212D4806F05EFBE6
:100890001CBD2A48007A00F00F000D2806D1274819
:1008A000007800F0010008B10D2070470020FCE73F
:1008B0002248007800F0020008B1012070470020B3
:1008C000FCE71CB51F4805F013FD1F49096840EA05
:1008D0000140092190FBF1F0009000243CE0194810
:1008E00005F006FD1849096840EA0140092190FB1E
:1008F000F1F00190DDE90021881A002826DB01468D
:1009000025E000004A050020B86002400050004089
:100910007400000025640000140400202E74787414
:100920003D22000022000000FA040020D204002032
:100930006A302E76616C3D25640000002C06002094
:1009400000480040000C0040700000204142052992
:1009500000DA641C01980090022CC0DB01981CBDD9
:100960001CB54FF0804005F0C3FCFE49096840EA21
:100970000140092190FBF1F00090002418E04FF0B5
:10098000804005F0B5FCF749096840EA01400921BB
:1009900090FBF1F00190DDE90021881A002801DBCD
:1009A000014600E04142052900DA641C01980090EC
:1009B000022CE4DB01981CBD1CB5EB4805F098FC4B
:1009C000EA49096840EA0140092190FBF1F00090F2
:1009D000002417E0E44805F08BFCE449096840EA8C
:1009E0000140092190FBF1F00190DDE90021881A16
:1009F000002801DB014600E04142052900DA641CC1
:100A000001980090022CE5DB01981CBD1CB5D8486C
:100A100005F06EFCD749096840EA0140092190FBC6
:100A2000F1F00090002417E0D14805F061FCD149B5
:100A3000096840EA0140092190FBF1F00190DDE9ED
:100A40000021881A002801DB014600E04142052907
:100A500000DA641C01980090022CE5DB01981CBDB3
:100A600001B581B000200090019800EBC00040006B
:100A7000009002E00098401E009000980028F9D1F4
:100A80000CBD01B581B00020009044F25061019886
:100A90004843009002E00098401E00900098002813
:100AA000F9D10CBD1CB501211F2004F055FD4FF6F6
:100AB000FF70009001208DF8040000208DF80600E2
:100AC00001208DF8070003208DF805006946AA482B
:100AD00004F0FCFA4FF6FF70009001208DF804003E
:100AE00000208DF8060001208DF8070003208DF806
:100AF00005006946A14804F0E9FA4FF6FF7000903E
:100B000001208DF8040000208DF8060001208DF8EA
:100B1000070003208DF805006946994804F0D6FACD
:100B20001CBD1CB501217E2004F016FDC0200090E4
:100B300000208DF8040001208DF8070002208DF8B8
:100B4000050069468F4804F0C1FA06200090002095
:100B50008DF8040001208DF8070002208DF80500B3
:100B60006946854804F0B2FA0420009000208DF810
:100B7000040001208DF8070002208DF80500694669
:100B80007E4804F0A3FA1CBD1FB54FF4E06004F0EA
:100B9000BFF936208DF8000000208DF801008DF897
:100BA000020001208DF80300684604F0B6F9012127
:100BB000102004F004FD3220ADF8040040F2E730CC
:100BC00002900020ADF80C00ADF8060001A96E48B7
:100BD00005F041FB01216C4806F006F801221146A0
:100BE000694805F0D9FF0021674805F07DFB012128
:100BF000654805F0B9FB1FBD1FB54FF4E06004F078
:100C000087F937208DF8000000208DF801008DF85D
:100C1000020001208DF80300684604F07EF90121EE
:100C2000202004F0CCFC3220ADF8040040F2E73084
:100C300002900020ADF80C00ADF8060001A9534861
:100C400005F009FB0121514805F0CEFF01221146B4
:100C50004E4805F0A1FF00214C4805F045FB01215D
:100C60004A4805F081FB1FBD00B58BB00121022071
:100C700004F0B6FC01210C2004F06EFC03220621D6
:100C80003E4804F0AEFA032207213C4804F0A9FADA
:100C900003220821394804F0A4FA03220921374825
:100CA00004F09FFA4FF47070069002208DF81C003B
:100CB00003208DF81D0000208DF81E0001208DF806
:100CC0001F0006A92D4804F001FAA420ADF8200069
:100CD00040F6B83009904FF48070ADF8280000203D
:100CE000ADF8220008A92A4805F0B5FA6020ADF851
:100CF00004000120ADF8060000200390ADF81000BC
:100D00000121234805F030FB0021214805F0ECFAD1
:100D100001A91F4805F034FB01A91D4805F069FB36
:100D200001A91B4805F0B2FB01A9194805F014FC04
:100D30000121174805F009FF0BB000BD00B58BB0CD
:100D40000121082004F03BFC0121084604F004FCCA
:100D5000022200210B4804F044FA02220121094832
:100D600018E000006800002000080040800000201B
:100D7000000400406C000020000402400008024013
:100D8000000C02400000024000100040001400402F
:100D90000004014004F025FA02221146FE4804F046
:100DA00020FA02220321FC4804F01BFA0F200690CF
:100DB00002208DF81C0003208DF81D0000208DF806
:100DC0001E0001208DF81F0006A9F34804F07EF9EB
:100DD000BA20ADF8200042F2107009900020ADF862
:100DE0002800ADF8220008A9EC4805F034FA60208C
:100DF000ADF804000120ADF8060000200390ADF826
:100E000010000121E54805F0AFFA0021E34805F0A4
:100E10006BFA01A9E14805F0B3FA01A9DF4805F032
:100E2000E8FA01A9DD4805F031FB01A9DB4805F02E
:100E300093FB0121D94805F088FE0BB000BD00B539
:100E40008BB00121042004F0BAFB01210D2004F035
:100E500083FB02220C21D24804F0C3F902220D21A7
:100E6000CF4804F0BEF902220E21CD4804F0B9F9B2
:100E700002220F21CA4804F0B4F94FF470400690E2
:100E800002208DF81C0003208DF81D0000208DF835
:100E90001E0001208DF81F0006A9C14804F016F9B4
:100EA000A420ADF8200040F6B83009904FF48070CF
:100EB000ADF828000020ADF8220008A9B94805F0D7
:100EC000CAF96020ADF804000120ADF8060000204A
:100ED0000390ADF810000121B24805F045FA002159
:100EE000B04805F001FA01A9AE4805F049FA01A998
:100EF000AC4805F07EFA01A9AA4805F0C7FA01A995
:100F0000A84805F029FB0BB000BD00B589B0012150
:100F1000080404F065FB0121084604F01DFB0322D0
:100F200011469D4804F05DF9032202219A4804F01D
:100F300058F90C20019002208DF8080003208DF84C
:100F4000090000208DF80A0001208DF80B0001A98E
:100F5000914804F0BBF80020ADF818004FF6FF7080
:100F600007900020ADF82000ADF81A0006A98E48C1
:100F700005F071F90420ADF80C000020ADF80E006A
:100F8000C820ADF814000120ADF8100003A9864870
:100F900005F038FD00231A460321844805F0CFFEF2
:100FA0000121824805F020FE012211467F4805F00C
:100FB000F3FD01217C4805F0D7F900217B4805F0BD
:100FC00093F909B000BD00B589B00121084604F0CD
:100FD000F6FA0121022004F0F2FA0121032004F0C4
:100FE000BBFA01220F216C4804F0FBF80122032117
:100FF0006F4804F0F6F8022204216D4804F0F1F87D
:10100000022205216A4804F0ECF838200190022001
:101010008DF8080003208DF8090000208DF80A00E3
:1010200001208DF80B0001A9614804F04FF84FF43E
:101030000040019002208DF8080003208DF809007F
:1010400000208DF80A0001208DF80B0001A95248FC
:1010500004F03CF80020ADF818004FF6FF70079040
:101060000020ADF82000ADF81A0006A94FF080402E
:1010700005F0F1F806A94F4805F0EDF80420ADF8A9
:101080000C000220ADF80E001420ADF81400012071
:10109000ADF8100003A9800705F0B4FC03A945488A
:1010A00005F0B0FC02231A460321580705F047FE5D
:1010B00002231A4603213F4805F041FE012188071B
:1010C00005F092FD01213B4805F08EFD01221146FD
:1010D000900705F061FD01221146364805F05CFDE0
:1010E0000121880705F040F90121324805F03CF95B
:1010F00000214FF0804005F0F7F800212D4805F061
:10110000F3F84FF4C06003F003FF1D208DF80000DA
:1011100003208DF8010000208DF8020001208DF8D9
:101120000300684603F0F9FE1C208DF8000004203F
:101130008DF8010000208DF8020001208DF80300D9
:10114000684603F0EAFE09B000BD00B589B0012190
:10115000084604F045FA0121102004F0FDF94FF48F
:101160002060019002208DF8080003208DF809000E
:1011700000208DF80A0001208DF80B0001A90E480F
:1011800003F0A4FF012209210B4804F02AF80122F0
:101190000B21094812E0000000000240000C004052
:1011A000000C0240000800400000014000400140E7
:1011B00000040240000400400010024004F011F856
:1011C0000020ADF818004FF6FF7007900020ADF832
:1011D0002000ADF81A0006A9FE4805F03CF80420EE
:1011E000ADF80C000020ADF80E000A20ADF8140098
:1011F0000120ADF8100003A9F64805F003FC002318
:101200001A460321F34805F09AFD0121F14805F043
:10121000EBFC01221146EF4805F0BEFC0121ED4830
:1012200005F0E2FC01221146EA4805F0B5FC012177
:10123000E84805F099F80021E64805F055F84FF424
:10124000C06003F065FE19208DF8000001208DF8C4
:10125000010000208DF8020001208DF8030068468F
:1012600003F05BFE09B000BD00B589B00121042088
:1012700004F0A5F90121082004F06EF94FF4405064
:10128000019002208DF8080003208DF8090000204D
:101290008DF80A0001208DF80B0001A9CE4803F05B
:1012A00015FF0020ADF818004FF6FF7007900020E2
:1012B000ADF82000ADF81A0006A9C84804F0CBFF2D
:1012C00002220C21C44803F08CFF02220D21C248E7
:1012D00003F087FF0420ADF80C000220ADF80E00EB
:1012E000C820ADF814000120ADF8100003A9BB48D8
:1012F00005F088FB02231A460321B84805F01FFDBC
:101300000121B64805F070FC01221146B34805F0F2
:1013100043FC0121B14805F027F80021AF4804F053
:10132000E3FF0020AD49143108800120AB4908805B
:101330004FF4C06003F0ECFD1E208DF80000042087
:101340008DF8010000208DF8020001208DF80300C7
:10135000684603F0E2FD09B000BD00B589B0012187
:10136000082004F02CF90121084604F0F5F80320C8
:10137000019002208DF8080003208DF8090000205C
:101380008DF80A0001208DF80B0001A9944803F0A4
:101390009DFE0020ADF818004FF6FF70079000206A
:1013A000ADF82000ADF81A0006A98E4804F053FFEE
:1013B000022200218A4803F014FF022201218848FA
:1013C00003F00FFF0420ADF80C000220ADF80E0072
:1013D000C820ADF814000120ADF8100003A9814821
:1013E00005F010FB02231A4603217E4805F0A7FCF6
:1013F00001217C4805F0F8FB01221146794805F0EF
:10140000CBFB0121774804F0AFFF0021754804F0C1
:101410006BFF002073491431088001207149088056
:101420004FF4C06003F074FD32208DF800000420FA
:101430008DF8010000208DF8020001208DF80300D6
:10144000684603F06AFD09B000BD00B59BB00121FC
:10145000654804F081F80121080204F0C1F8002079
:101460000290624803906248049000200590082092
:101470000690002007904FF480600890400009908B
:1014800080000A9040110B9040020C9000200D90BB
:1014900001200E9000200F90109002A9554804F0F2
:1014A0006DFC0121534804F0A3FC3C200090032074
:1014B0008DF8040000208DF807006946484803F0C5
:1014C00005FE3C20009003208DF8040000208DF8DC
:1014D00007006946484803F0F9FD0020119012907A
:1014E0001390149011A804F0AFF94FF0807015908C
:1014F00001208DF858008DF85900002017901890A1
:10150000199008208DF8680015A938484C3804F067
:101510006CF900230122022134484C3804F0EBF925
:1015200000230222032131484C3804F0E4F900235F
:10153000032204212D484C3804F0DDF90023042255
:1015400005212A484C3804F0D6F9002305220C2145
:1015500026484C3804F0CFF9002306220D212348F9
:101560004C3804F0C8F9002307220E211F484C38DC
:1015700004F0C1F9002308220F211C484C3804F064
:10158000BAF9012119484C3804F060FA01211748D2
:101590004C3804F050FA012114484C3804F06BF92F
:1015A00012484C3804F003FA1BB000BD08B54FF4E4
:1015B000E06003F0ADFC25208DF8000000208DF8E0
:1015C00001008DF8020001208DF80300684603F049
:1015D000A4FC08BD00000140000C024000080040CF
:1015E00000000240000C0040050040004C2001407B
:1015F000E0050020106402400008024010B596B0DB
:1016000004460121102003F0EBFF0121084603F0FE
:10161000A3FF0121880503F09FFF4FF4C0600090F5
:1016200002208DF8040000208DF806008DF80700D8
:1016300002208DF805006946FE4803F047FD0722A9
:101640000921FC4803F0CDFD07220A21F94803F0E7
:10165000C8FD02940020ADF80C00ADF80E00ADF806
:101660001000ADF814000C20ADF8120002A9F248E9
:1016700005F0E4FB0121F04805F068FC4FF4A060A0
:1016800003F046FC3A208DF8180000208DF8190070
:101690008DF81A0001208DF81B0006A803F03DFC10
:1016A000E64804F0C9FA4FF00060079000200A9065
:1016B000E34809900A200B90DF48001D08900020A5
:1016C0000C904FF480600D9000200E900F904FF41E
:1016D000807010904002119004201290032013900B
:1016E00000201490159007A9D44804F047FB01226C
:1016F0004021D14805F0D7FC01221021CF4804F049
:1017000004FC0121CD4804F073FB16B010BD10B5E8
:1017100096B004460121480503F01EFF012148044C
:1017200003F04DFF0121082003F016FF6020009018
:1017300002208DF8040000208DF806008DF80700C7
:1017400002208DF805006946BE4803F0BFFC072261
:101750000521BC4803F045FD07220621B94803F0E6
:1017600040FD02940020ADF80C00ADF80E00ADF87D
:101770001000ADF814000C20ADF8120002A9B24818
:1017800005F05CFB0121B04805F0E0FB4FF4A060E0
:1017900003F0BEFB11208DF8180000208DF8190011
:1017A0008DF81A0001208DF81B0006A803F0B5FB88
:1017B000A64804F041FA4FF00060079040200A90DC
:1017C000A348099046200B909F48001D08900020D8
:1017D0000C904FF480600D9000200E900F904FF40D
:1017E00080701090400211900420129003201390FA
:1017F00000201490159007A9944804F0BFFA012224
:101800008021914805F04FFC012280218E4805F08F
:101810004AFC012210218D4804F077FB01218B48FE
:1018200004F0E6FA16B010BD10B596B004460121DA
:10183000880403F0C4FE0121082003F08DFE01217D
:10184000480503F089FE4FF44070009002208DF8A7
:10185000040000208DF806008DF8070002208DF8A6
:1018600005006946774803F031FC072208217548D6
:1018700003F0B7FC07220921724803F0B2FC02947E
:101880000020ADF80C00ADF80E00ADF81000ADF87A
:1018900014000C20ADF8120002A96E4805F0CEFA33
:1018A00001216C4805F052FB4FF4A06003F030FBBF
:1018B0000C208DF8180000208DF819008DF81A0002
:1018C00001208DF81B0006A803F027FB5F4878383D
:1018D00004F0B2F94FF00060079000200A905E48D3
:1018E00009900A200B905B48001D089000200C9086
:1018F0004FF480600D9000200E900F904FF4807098
:1019000010904002119004201290032013900020A8
:101910001490159007A94D48783804F02FFA012249
:1019200040214C4805F0BFFB01224021494805F009
:10193000BAFB012210214548783804F0E6FA01216B
:101940004248783804F054FA16B010BD10B596B07D
:1019500004460121C80403F032FE0121084603F0C9
:10196000FBFD0121480503F0F7FD03200090022054
:101970008DF8040000208DF806008DF80700022085
:101980008DF8050069462B4803F0A0FB08220021D2
:10199000284803F026FC08220121264803F021FCF8
:1019A00002940020ADF80C00ADF80E00ADF8100068
:1019B000ADF814000C20ADF8120002A9274805F07C
:1019C0003DFA0121254805F0C1FA4FF4A06003F06B
:1019D0009FFA0D208DF8180000208DF819008DF861
:1019E0001A0001208DF81B0006A803F096FA17488C
:1019F000603804F021F94FF00060079000200A9051
:101A00001748099008200B901448001D08900020EA
:101A10000C904FF480600D9000200E900F904FF4CA
:101A200080701090400211900420129003201390B7
:101A3000002017E000000240001001404064024016
:101A4000F0050020000C024000440040A06002406D
:101A500004000020004800402C060020004C0040FC
:101A6000FF0500201490159007A9FB4804F086F9A3
:101A700001224021F94805F016FB01224021F748D8
:101A800005F011FB01221021F34804F03EFA012178
:101A9000F14804F0ADF916B010BD10B596B004468B
:101AA0000121480503F058FD0121080503F087FDD9
:101AB00001210C2003F050FD0420009002208DF83D
:101AC000040000208DF806008DF8070002208DF834
:101AD00005006946E24803F0F9FA4FF4805000909F
:101AE00002208DF8040000208DF806008DF8070014
:101AF00002208DF805006946DA4803F0E7FA08226B
:101B00000221D74803F06DFB08220C21D54803F0D1
:101B100068FB4FF4A06003F0FBF92F208DF818004C
:101B200005208DF819008DF81A0001208DF81B0092
:101B300006A803F0F2F902940020ADF80C00ADF80D
:101B40000E00ADF81000ADF814000C20ADF8120036
:101B500002A9C54805F072F90121C34805F0F6F95C
:101B6000BD48783004F068F84FF0006007904020DE
:101B70000A90BE48099096200B90BB48001D089023
:101B800000200C904FF480600D9000200E900F907C
:101B900010904FF400301190002012900320139009
:101BA00000201490159007A9AB48783004F0E6F8AF
:101BB00001228021AC4805F076FA01221021A648C6
:101BC000783004F0A2F90121A348783004F010F92C
:101BD00016B010BD10B596B004460121202003F0C8
:101BE000FFFC0121042003F0B7FC0121880503F06C
:101BF000B3FCC020009002208DF8040000208DF876
:101C000006008DF8070003208DF805006946954809
:101C100003F05CFA08220621924803F0E2FA082257
:101C20000721904803F0DDFA02940020ADF80C0083
:101C3000ADF80E00ADF81000ADF814000C20ADF8B2
:101C4000120002A98A4805F0F9F80121884805F038
:101C50007DF94FF4A06003F05BF939208DF818008E
:101C600003208DF8190001208DF81A008DF81B0053
:101C700006A803F052F97F4803F0DEFF4FF0206022
:101C8000079000200A907C48099010200B9078481B
:101C9000001D089000200C904FF480600D900020F3
:101CA0000E900F904FF4807010904002119004201D
:101CB00012900320139000201490159007A96D48EE
:101CC00004F05CF801224021694805F0ECF901229A
:101CD0001021684804F019F90121664804F088F8D9
:101CE00016B010BD0FB50020039002900190009037
:101CF00061480078022849D15F48407802905E48E8
:101D0000C0785D49897840EA012001905A484079BD
:101D10005949097940EA012000B20090BDF800005D
:101D200000F4004018B1BDF8000000B20090524924
:101D30000978514A527811444F4A927811444E4AD8
:101D4000D27811444C4A127911444B4A527988187E
:101D5000C11700EB11610912A0EB0121C9B2039177
:101D6000454880799DF80C1088420FD14248C079CF
:101D700003280BD19DF8080040490870BDF8040005
:101D80003F490880BDF900003E4908800FBD00B5FD
:101D900085B00121082003F0DFFB0121880303F057
:101DA0001FFC00208DF8100001208DF813000C207E
:101DB000039003A92A4803F089F90221032005F0C2
:101DC0000BFA0420009000208DF8040010208DF8FC
:101DD000050001208DF80600684604F00FF9082080
:101DE0008DF8080000208DF809008DF80A00012008
:101DF0008DF80B0002A803F090F805B000BD70B597
:101E000004460D46012C0BD129461F4805F0C9F8A0
:101E100000BF40211C4805F074F90028F9D044E0C7
:101E2000032C0BD12946194805F0BBF800BF40210F
:101E3000164805F066F90028F9D036E0042C27D1C1
:101E40002946064805F0ADF800BF4021034805F0DB
:101E500058F90028F9D028E040600240004C0040CA
:101E6000000C024000080240005000404A050020DB
:101E700000140140286402403B0600205701002066
:101E80005A01002058010020001001400048004085
:101E9000052C0AD12946FE4805F083F800BF4021F1
:101EA000FB4805F02EF90028F9D070BD0020F94953
:101EB0004862F9490860F9490860F94908607047C3
:101EC0000020F4494862F44908604FF080414862BC
:101ED000F4490860F4490860F4490860EF49086073
:101EE000EF490860F2490860F24908607047002035
:101EF0004FF080414862EB49086070470020EA4992
:101F00000860EA490860704710B50020EA49087087
:101F1000002407E061210120FFF771FF3220FEF766
:101F2000B0FD641C022CF5D30120E34908707A202F
:101F3000E249087010BD10B50020E1490870002486
:101F400007E061210320FFF75AFF3220FEF799FDD9
:101F5000641C022CF5D30120D94908707A20D94994
:101F6000087010BD2DE9F14FAEB0D7A02D90002024
:101F70002C908DF888008DF860002E98122831D2B0
:101F8000DFE800F009313A41484F565F68717A81C5
:101F9000888F969DA5FE0221D44803F0F9F888B1F8
:101FA00000224FF40041D24803F010F94FF40041F1
:101FB000CF4803F0FAF8044600222146CDA0FEF7F0
:101FC0003FFB0FE00122D103C94803F0FFF84FF4B3
:101FD0000041C74803F0E9F8044600222146CDA09D
:101FE000FEF72EFB4EE20122D248B0F9000041423A
:101FF000D1A0FEF725FB45E20222D1480168D1A01D
:10200000FEF71EFB3EE20322D1480168D1A0FEF795
:1020100017FB37E20422D2480168D2A0FEF710FB7A
:1020200030E20522D3480168D3A0FEF709FB29E27C
:10203000FEF747FC044606222146D2A0FEF700FB2D
:1020400020E2FEF78DFC044607222146D0A0FEF7D1
:10205000F7FA17E2FEF7B0FC044608222146CFA0AB
:10206000FEF7EEFA0EE2FEF7D1FC04460922214605
:10207000CDA0FEF7E5FA05E2CE4801790A22CEA00E
:10208000FEF7DEFAFEE10B22CD480178CDA0FEF787
:10209000D7FAF7E10C22CE480188CEA0FEF7D0FA9D
:1020A000F0E10D22CE480168CEA0FEF7C9FAE9E1C1
:1020B0000E22D0480168D0A0FEF7C2FAE2E10F225A
:1020C000D148B0F90010D1A0FEF7BAFADAE1012147
:1020D000D14803F05DF84FF400511790844803F0A5
:1020E00057F804460221CC4803F052F805464FF455
:1020F00080417F4803F04CF806460421C64803F0AF
:1021000047F84FF400411690C34803F041F80746E2
:102110000821C14803F03CF880464FF48041BE4896
:1021200003F036F881461021BB4803F031F84FF434
:1021300000511590B84803F02BF882460821B748A3
:1021400003F026F84FF480511490B34803F020F8C0
:1021500010211390B14803F01BF84FF480611290E6
:10216000AD4803F015F883468021AB4803F010F822
:102170004FF480711190A84803F00AF8109000E025
:1021800021E01798CDE90B65CDE90D401698CDE912
:102190000798CDE90970DDE914211398CDE9042AE7
:1021A00006910390DDE91110CDE9001B02909CA27D
:1021B000282122A8109B07F049FA102222A9A1A0E9
:1021C000FEF791FA5EE18021484802F0EEFF0446F6
:1021D0000121464802F0E9FF05464021434802F04C
:1021E000E4FF06464FF400418C4802F0DEFF07464C
:1021F0004FF48051944802F0D8FF80464FF480613C
:102200003A4802F0D2FF81464FF400618E4802F056
:10221000CCFF4FF400611790344802F0C6FF8246AD
:102220004FF480617D4802F0C0FF83464FF4805137
:102230002E4802F0BAFF4FF400611690774802F082
:10224000B4FF4FF400511590284802F0AEFF4FF450
:1022500080411490714802F0A8FF4FF48041139020
:10226000224802F0A2FF4FF480711290764802F0EB
:102270009CFF4FF4004111901C4802F096FFCDE9FD
:102280000B76CDE90D5410901798CDE907A0DDE04D
:10229000005000400000014064000020240800407D
:1022A0008000002068000020240400406C00002012
:1022B000240C0040700000208900002088000020CD
:1022C0008B0000208A000020313131313131313131
:1022D00031313131313131313131313131313031EF
:1022E0003131313131313131000000000004024020
:1022F00000080240524F424F5420322044414E4782
:1023000020434841592053414E2058414E483A20DD
:1023100020200000524F424F5420322044414E476B
:1023200020434841592053414E20444F3A20202019
:102330000000000084000020494D553A00000000D4
:10234000A0000020474F432042414E3A00000000C9
:10235000F802002066696E616C5F43414D3A0000EF
:10236000F00200204C75632042616E5F43414D3A9C
:10237000200000009800002047545F4C617A6520DF
:1023800000000000454E434F4445525F464C20003C
:10239000454E434F4445525F46522000454E434F01
:1023A0004445525F524C2000454E434F4445525FD6
:1023B000525220002C06002042544E3A00000000E9
:1023C000570100206F6666736574203A00000000B4
:1023D0005A01002064697374616E63653A000000FD
:1023E000FC02002046696E616C5F4C617A65723A4E
:1023F00000000000F40200204C75632042616E2052
:102400004C617A65720000005801002064697265B1
:102410006374696F6E3A000000100240000C0240C5
:102420002564256425642564256425642564256464
:102430002564256425642564256425642564256454
:1024400000000000493A000000000240CDE9099870
:10245000DDE914121698CDE9050BCDE90312DDE98B
:1024600011121398CDE900120290AFF24C0228210C
:1024700022A8109B07F0EAF8112222A9FEA0FEF77D
:1024800032F900BF00BF2FB0BDE8F08F10B50121B9
:10249000FB4803F0ADFC10BD01B5FA480068009997
:1024A000884203DD0020F749086004E0F548006831
:1024B000401CF4490860F3480068FFF753FD08BD6D
:1024C00010B5FEF779FAF0490860FEF79FFAEF4978
:1024D0000860FEF7F6F9EE490860FEF741FAED49AB
:1024E000086010BD2DE9F0412DED088B06460F4622
:1024F000304606F056FE41EC190B9FEDE71BB0EE9F
:10250000490AF0EE690A07F0C9FAB0EE408AF0EE27
:10251000608A51EC180B06F055FE0446002C02DBD5
:10252000A4F5E16401E004F5E164384606F039FE03
:1025300041EC1B0B9FEDD81BB0EE4B0AF0EE6B0A83
:1025400007F0ACFAB0EE409AF0EE609A304606F032
:1025500028FE41EC1B0B9FEDD01BB0EE4B0AF0EEBA
:102560006B0A07F09BFAB0EE40AAF0EE60AA53ECBB
:10257000192B51EC1A0B06F02DFD41EC180B06F04F
:1025800021FE05462846211E01DB0A4600E04A429C
:10259000002801DB034600E043429A4205DA254663
:1025A0004FF0FF30BE49086003E035460120BC49CA
:1025B00008602846BDEC088BBDE8F0810146FA2989
:1025C00001DDFA2102E0032900DA0221C8B27047D6
:1025D00030B505460C4625B9B2480078B249C877EF
:1025E00016E0B24890ED000AB5EEC00AF1EE10FA1E
:1025F00007DD2846FFF7E2FFAB49C8770020887760
:1026000006E06842FFF7DAFFA749C877012088771C
:1026100024B9A4480078A449C87516E0A44890EDF0
:10262000000AB5EEC00AF1EE10FA07DD2046FFF70A
:10263000C5FF9D49C8750020887506E06042FFF718
:10264000BDFF9949C8750120887522B99548007861
:102650009549C87116E0974890ED000AB5EEC00A9A
:10266000F1EE10FA07DD1046FFF7A8FF8E49C8719A
:102670000120887106E05042FFF7A0FF8A49C87127
:102680000020887123B9874800788749C87316E00D
:10269000894890ED000AB5EEC00AF1EE10FA07DDA8
:1026A0001846FFF78BFF8049C8730120887306E046
:1026B0005842FFF783FF7C49C8730020887330BD00
:1026C00010B57E4C20607E4C21607E4C22607E4C9A
:1026D000236010BD744AD077D075D071D073704725
:1026E0007148C07F03280DDA6F48C07D032809DADE
:1026F0006D48C079032805DA6B48C07B032801DAEE
:10270000012070470020FCE70120704908607047F5
:102710006F48006847F23051884201D0012070476D
:102720000020FCE710B5FFF7EFFB10BD6948B0F9DA
:10273000000040427047B5EEC00AF1EE10FA09D22F
:102740006548D0ED000A70EE600AFDEEE00A10EE7A
:10275000900A70476048D0ED000A70EE200AFDEE46
:10276000E00A10EE900AF4E710B52DED0A8B04464E
:1027700024B99FED5A0ABDEC0A8B10BD002C25DA56
:102780005748006806F00DFD41EC190B204606F095
:1027900008FD41EC1C0B9FED530B53EC102B06F086
:1027A0001FFC41EC1B0B9FED510B53EC102B06F063
:1027B00011FC41EC1A0B53EC192B06F083FC41EC95
:1027C000180B06F031FD00EE100AD4E7444800680B
:1027D00006F0E7FC41EC190B204606F0E2FC41EC68
:1027E0001C0B9FED400B53EC102B06F0F9FB41EC5A
:1027F0001B0B9FED3E0B53EC102B06F04AFB41ECFC
:102800001A0B53EC192B06F05DFC41EC180B06F08B
:102810000BFD00EE100AAEE7F0EE400AF5EEC00A3E
:10282000F1EE10FA02DBB0EE600A7047B1EE600A1A
:10283000FBE70146002901DB084670474842FCE7F8
:1028400001462C48D0ED000AF1EE600A2A48D0ED8E
:10285000001A80EEA11A00EE901AF8EEE01A254850
:10286000D0ED000A41EE210AB0EE600AFDEEC00A8A
:1028700010EE900A704700004F55543A00000000D7
:10288000A06002407C0000203403002038030020B8
:102890003C03002040030020000000000020AC406A
:1028A0004C020020A0010020040000200C020020A7
:1028B0001002002014020020180200203402002020
:1028C000380200202C020020300200208802002064
:1028D000CC010020840000206001002000000000E6
:1028E000B8010020EC51B81E85EBB13F9A99999937
:1028F0009999B93F980100209C010020B0EE402A30
:10290000DFEDFE2AB0EE620AB5EEC02AF1EE10FA53
:1029100003D2F1EE422AB0EE622AF5EEC00AF1EEE1
:1029200010FA03D2F1EE602AF0EE620AB5EEC01A98
:10293000F1EE10FA03D2F1EE412AB0EE621AF5EE92
:10294000C01AF1EE10FA03D2F1EE612AF0EE621A2B
:10295000B4EEC02AF1EE10FA01DDB0EE420AF4EE58
:10296000C00AF1EE10FA01DDB0EE600AB4EEC01A52
:10297000F1EE10FA01DDB0EE410AF4EEC01AF1EE0C
:1029800010FA01DDB0EE610A7047DD48006870475B
:10299000DC480068704710B52DED048BF0EE408ADE
:1029A000B0EE608AD848D0ED000AD84890ED000A11
:1029B00007F01EFFB0EE409A08F051FBBDEEC00AD2
:1029C00010EE104AD24880ED008AD24880ED008A8D
:1029D000B0EE680A08F03EFAF0EE000A20EE200A97
:1029E000CD4880ED000AB0EE680A06F0AFFFF0EEC9
:1029F000000A20EE200AC94880ED000A90ED000A86
:102A0000F2EE040A20EE200AC54880ED000AB0EE7E
:102A1000680A08F01FFAB0EE409AFFF78CFE00EE4D
:102A2000100AB8EEC00ABF4880ED000ABA4890ED1F
:102A3000000AB748D0ED000A30EE600ABA4880EDCF
:102A4000000AB54890ED000AB148D0ED000A30EE1A
:102A5000200AB64880ED000AB04890ED000AAD4863
:102A6000D0ED000A30EE600AB14880ED000AAB48B4
:102A700090ED000AA748D0ED000A30EE200AAD48DC
:102A800080ED000AAA48D0ED000AA84890ED000A9F
:102A900006F034FEDFEDA80A20EE200AA748D0EDAC
:102AA000000A80EE201AA64880ED001AA5480168A9
:102AB000A34890ED000ABDEEC00A10EE100AFFF721
:102AC00011FD00EE100AB8EEC00A9D4880ED000A24
:102AD0009D4890ED000AB8EEC00A9C4880ED000ABF
:102AE0009248D0ED000A60EEA00A914890ED001ADD
:102AF000D0ED001A41EE210AB0EE600A08F0AFFAFC
:102B00009148D0ED000AF8EEE00A20EE200A904845
:102B100080ED000A8748D0ED000A844890ED000A55
:102B200006F0ECFDDFED840A20EE200A8348D0EDAC
:102B3000000A80EE201A874880ED001A8648016856
:102B4000844890ED000ABDEEC00A10EE100AFFF7AF
:102B5000C9FC00EE100AB8EEC00A7E4880ED000AFB
:102B6000794890ED000AB8EEC00A7C4880ED000A72
:102B70006E48D0ED000A60EEA00A6E4890ED001A93
:102B8000D0ED001A41EE210AB0EE600A08F067FAB3
:102B90006D48D0ED000AF8EEE00A20EE200A7048F9
:102BA00080ED000A6348D0ED000A5F4890ED000A0E
:102BB00006F0A4FDDFED600A20EE200A5F48D0EDAC
:102BC000000A80EE201A674880ED001A6648016806
:102BD000644890ED000ABDEEC00A10EE100AFFF73F
:102BE00081FC00EE100AB8EEC00A5E4880ED000AD3
:102BF000554890ED000AB8EEC00A5C4880ED000A26
:102C00004948D0ED000A60EEA00A4A4890ED001A4B
:102C1000D0ED001A41EE210AB0EE600A08F01FFA6A
:102C20004948D0ED000AF8EEE00A20EE200A5048AC
:102C300080ED000A3E48D0ED000A3B4890ED000AC6
:102C400006F05CFDDFED3C0A20EE200A3B48D0EDAB
:102C5000000A80EE201A474880ED001A46480168B5
:102C6000444890ED000ABDEEC00A10EE100AFFF7CE
:102C700039FC00EE100AB8EEC00A3E4880ED000AAA
:102C8000314890ED000AB8EEC00A3C4880ED000AD9
:102C90002548D0ED000A60EEA00A254890ED001A04
:102CA000D0ED001A41EE210AB0EE600A08F0D7F923
:102CB0002548D0ED000AF8EEE00A20EE200A304860
:102CC00080ED000ABDEC048B10BD10B52DED028B1C
:102CD000B0EE408A2B48006847F23051884268D1F4
:102CE0009FED290A28EE000A284880ED000AD0ED61
:102CF000000A9FED270AFFF74EFE4BE06F12833A62
:102D0000B8010020E80100207402002078020020B1
:102D1000680200206C0200205002002054020020B3
:102D20007C02002080020020580200205C0200206B
:102D300060020020640200200000E144AC01002099
:102D400020020020400300204C020020100200203E
:102D5000000200201C0200203C0300200C02002086
:102D6000FC01002024020020340300201402002073
:102D7000040200202802002038030020180200204E
:102D800008020020CC0100200000E1437002002076
:102D9000000000001FED020AFE4880ED000AFE4818
:102DA00080ED000AFD4880ED000AFD4880ED000A34
:102DB00021E0FC480068FC490968401AFB490968A1
:102DC000081A00EE100AB8EEC00AF948D0ED000A61
:102DD00020EE200AF748D0ED000AC0EE208AF6481F
:102DE00090ED000AF54880ED000AD0ED000AB0EE43
:102DF000680AFFF7D0FDB5EEC08AF1EE10FA75D083
:102E0000EF480068052870D2DFE800F00371879D65
:102E1000B300EC4890ED000AFAEE040AB4EEE00AC2
:102E2000F1EE10FA08D390ED000AF2EE040AB4EEC7
:102E3000E00AF1EE10FA1CDDD94890ED000A30EE00
:102E4000080A80ED000AD54890ED000A30EE480AE5
:102E500080ED000AD04890ED000A30EE080A80EDBF
:102E6000000ACC4890ED000A30EE480A80ED000AD6
:102E70003BE0D54890ED000AD448D0ED000A60EE62
:102E8000200AC74890ED000A00EE880A80ED000A8B
:102E9000CD4890ED000ACE48D0ED000A60EE200A41
:102EA000BE4890ED000A00EE880A80ED000AC64890
:102EB00090ED000AC748D0ED000A60EE200AB6483F
:102EC00090ED000A00EEC80A80ED000ABE4890EDC1
:102ED000000AC148D0ED000A60EE200AAD4890ED2E
:102EE000000A00EEC80A80ED000A58E058E0AB483E
:102EF00090ED000A30EE480A80ED000AA64890EDF9
:102F0000000A30EE080A80ED000AA24890ED000A9F
:102F100030EE480A80ED000A41E0A14890ED000A39
:102F200030EE080A80ED000A9B4890ED000A30EE72
:102F3000080A80ED000A974890ED000A30EE480A32
:102F400080ED000A2BE0964890ED000A30EE080A6A
:102F500080ED000A914890ED000A30EE480A80EDBD
:102F6000000A8C4890ED000A30EE480A80ED000A15
:102F700015E08B4890ED000A30EE080A80ED000A5B
:102F8000864890ED000A30EE480A80ED000A82483B
:102F900090ED000A30EE080A80ED000A00BF00BF85
:102FA0007C48D0ED001A7C4890ED001A7B48D0EDAB
:102FB000000A7B4890ED000AFFF7A0FC8748D0ED9F
:102FC000000AF8EEE00A80EE801ABDEEC10A8448DD
:102FD00080ED000A8348006881490968884203DD62
:102FE0007F4800687F49086001207F490860BDEC88
:102FF000028B10BD10B5044600207C4908607C4857
:103000000460FCB90020774908601FED9F0A7948E9
:1030100080ED000A47F23050644908607649086044
:103020001FEDA50A644880ED000A0020644908608D
:103030007249086072490860724908601FEDAC0A65
:10304000FFF743FE10BD10B55B4890ED000AB5EEEA
:10305000C00AF1EE10FA05D15948006810B9674866
:10306000006890B11FEDB60A534880ED000A0020B9
:1030700053490860614908604A4800684A49086045
:103080004D4890ED000AFFF720FE10BD5E48C0EDF0
:10309000000A5E4880ED000A704770B52DED028B86
:1030A00005460C46B0EE408A40480068A8420BD165
:1030B0004E480068A04207D14E4890ED000AB4EE99
:1030C000480AF1EE10FA18D04848046045480068F4
:1030D00010B9052043490860324800683249086049
:1030E000444880ED008A3148056000204849086066
:1030F000314890ED000AFFF7E8FDBDEC028B70BD92
:1031000070B52DED028B0446B0EE408A0D463B486B
:103110000068A0420BD1284890ED000AB4EE480A9E
:10312000F1EE10FA03D126480068A84279D01F4872
:10313000006847F23051884222D132202B49086082
:1031400007202849086047F23050844218DA0120ED
:103150002B490860B5EEC08AF1EE10FA03DD114884
:103160000068A04208DCB5EEC08AF1EE10FA07D282
:103170000C480068A04203DAB1EE480AB0EE408A7B
:103180001E4804600E4805600B4880ED008A002050
:103190001F4940E008020020040200200002002035
:1031A000FC010020F0010020D8010020CC0100200B
:1031B000A801002078010020E0010020700200201A
:1031C000B40100207C020020500200200C020020EC
:1031D0001002002014020020180200205C010020D0
:1031E000C0010020B8010020B0010020BC01002077
:1031F000C4010020E4010020D0010020D4010020FF
:10320000E801002088020020980100209C01002095
:10321000C801002005E00860FE4890ED000AFFF7B5
:1032200054FDBDEC028B70BD10B52DED028BB0EEE0
:10323000408A04462146B0EE480A47F23050FFF774
:103240005FFFBDEC028B10BD70B504460D469FEDCF
:10325000F20A29462046FFF720FF70BD10B52DED7C
:10326000088BF0EE408A0446B0EE608AB0EE419AD8
:10327000EA4890ED000AB8EEC00AB4EE680AF1EE32
:1032800010FA0DD1E6480068A04209D1E54890ED5A
:10329000000AB8EEC00AB4EE480AF1EE10FA5ED0A9
:1032A000BDEEE80ADD4880ED000ADF4991ED000A35
:1032B000B8EEC00A38EEC00ABDEEC00A10EE100A21
:1032C0009FEDD50A2146FFF7E8FED748D0ED000A6A
:1032D000F8EEE00A78EE600AB0EE600AFFF79CFABA
:1032E000DFEDD20AB4EEE00AF1EE10FA14DDCE48BA
:1032F00090ED000AB8EEC00AB4EEC08AF1EE10FA02
:1033000002DDB0EE490A01E0B1EE490A10EE101AF2
:10331000084605F076FF13E0C34890ED000AB8EECA
:10332000C00A38EE400A10EE101A084605F069FF90
:1033300041EC1B0B9FEDBE0B53EC102B05F050FE28
:1033400041EC1A0B05F070FF09EE900A0021B0EE77
:10335000690AFDEEC80A10EE900AFFF7D1FEBDEC37
:10336000088B10BD10B5B448006801283DDDAD499B
:103370000968AD4A1268881AFFF75BFA0A280CDA66
:10338000AD4801680068401CAB4A1060B1F5FA7F97
:103390002BDD0020FFF72EFE10BDA7480068FA289D
:1033A00008DD05209E490860A4490860FB20A24969
:1033B000086004E005209A490860A04908609A481E
:1033C000006898490968884205DDBFEE000A914807
:1033D00080ED000A04E0B7EE000A8E4880ED000A96
:1033E0008C4890ED000AFFF770FC00BFD4E710B5E1
:1033F0002DED028B924890ED000AB5EEC00AF1EE79
:1034000010FA08D18D48006828B18648006847F254
:103410003051884202DBBDEC028B10BD7D4890ED3F
:10342000000AB5EEC00AF1EE10FA7DD085480068BA
:1034300047F23051884278D1764890ED000AB5EED7
:10344000C00AF1EE10FA08DD764800687E49096886
:10345000401A75490968884210DB6E4890ED000AF1
:10346000B5EEC00AF1EE10FA7DD26E4800687649DA
:10347000096808446C490968884274DD6E48006830
:1034800005285BDA67490968674A1268881AFFF7F6
:10349000D0F9322816DA634800686C4908600020C9
:1034A000664908605E4908609FED5B0A594880EDF7
:1034B000000A022060490860564890ED000AFFF7B4
:1034C00004FCA8E75748006857490968884236DD78
:1034D0005A4890ED000AB8EEC00A4E48D0ED000AF6
:1034E00060EE200A584890ED000AB8EEC00AC0EE1F
:1034F000801AB0EE611AB0EE410AFFF78DF9494922
:103500000968494A1268881AFFF793F900EE900A91
:10351000B8EEE01AF1EE040A40EE010A474890EDD9
:10352000000AB8EEC00A01E0C9E044E080EE801A6B
:10353000B0EE418AB0EE480AFFF7C7FBBEE03F4855
:1035400090ED000AB8EEC00A3248D0ED000A60EEF5
:10355000200A3D4890ED000AB8EEC00AC0EE801A7D
:10356000B0EE611A00E020E0B0EE410AFFF754F936
:103570002C4909682C4A1268881AFFF75AF900EE9C
:10358000900AB8EEE01AF1EE040A50EE410A2B4818
:1035900090ED000AB8EEC00A80EE801AB0EE418AC3
:1035A000B0EE480AFFF791FB88E01A4890ED000A58
:1035B000FFF78BFB82E0174890ED000AB5EEC00ADA
:1035C000F1EE10FA1FDD174890ED000AB8EEC00AC0
:1035D0001A48D0ED000AF8EEE00A0E4890ED001A05
:1035E00000EEC10A1A48D0ED000AF8EEE00A70EECB
:1035F000600A0D4890ED000AB8EEC00AF4EEC00A69
:10360000F1EE10FA49D3034890ED000AB5EEC00A76
:1036100020E00000E001002000000000D0010020B8
:10362000BC010020D4010020F0010020000048422D
:10363000FCA9F1D24D62403FE8010020B801002012
:10364000E4010020CC01002094010020EC010020C6
:1036500090010020F1EE10FA2BD2F74890ED000A0D
:10366000B8EEC00AF548D0ED000AF8EEE00AF448DA
:1036700090ED001A00EEC10AF248D0ED000AF8EE13
:10368000E00A70EE200AF04890ED000AB8EEC00A99
:10369000F4EEC00AF1EE10FA0BDDE7490968EA4AD8
:1036A0001268881AFFF760F8B0EE408AFFF70DFB4A
:1036B00004E0E34890ED000AFFF707FBABE6E349BF
:1036C0000968E14A1268881AFFF74EF8B0EE408A9E
:1036D000FFF7FBFA00BF9EE600B5DD480068022850
:1036E00015DA1FED330ADB4880ED000A1FED360ABC
:1036F000D34880ED000A0020D749086047F23050D7
:10370000D6490860D64908600020CB490860D548F2
:103710000068401CD3490860D3490968884204DA2C
:10372000D2480068FEF7D6FF0EE0CF480068CD49CA
:103730000860CF48006820B1CC480068FEF7CAFF97
:1037400002E00020FEF7C6FF00BDC64A1268521C08
:10375000C44B1A60824207DDB84A12680A44B74B6C
:103760001A600022BF4B1A6070472DE9F041FEF746
:10377000DDFFB5490860FFF7F5FDBE480068002889
:1037800021DDAE480068BB49096888422AD0AB48B1
:103790000068B849096888420EDAA8480068B64946
:1037A000096888421EDAA5480068FFF749F8044610
:1037B0000121FFF7CAFF15E04FF0FF31AF48006865
:1037C000FFF7C3FF0EE09D480068002806DD4FF0BC
:1037D000FF31AB480068FFF7B8FF03E0FFF77CFF5D
:1037E000BDE8F081A748006897490968884205D07C
:1037F000FFF7FDFD94480068A2490860A2480068F0
:10380000F0B38E48D0ED000AF8EEE00A9F4890ED44
:10381000001A60EE810AB0EE600AFEF78CFF0446E3
:103820008648D0ED000AF8EEE00A994890ED001ABB
:1038300060EE810AB0EE600AFEF77DFF05467F4824
:10384000D0ED000AF8EEE00A924890ED001A60EE22
:10385000810AB0EE600AFEF76EFF06467748D0EDAB
:10386000000AF8EEE00A8C4890ED001A60EE810A3A
:10387000B0EE600AFEF75FFF074623462A4600E0E7
:1038800020E03146FEF7A4FE844890ED000ABDEE2C
:10389000C00A10EE103A824890ED000ABDEEC00A50
:1038A00010EE102A7F4890ED000ABDEEC00A10EE1F
:1038B000101A7D4890ED000ABDEEC00A10EE100A05
:1038C000FEF7FEFE00BF8BE710B57848807988B31D
:1038D0007648007800F0800060B37548007875493C
:1038E00081F82B0081F8270081F82F00012081F852
:1038F0002E00002081F8260081F82A0043F6982047
:1039000004F046FEFA206B4981F8330044F620604B
:1039100004F03EFE0020674981F82B0081F8270063
:1039200081F82F0081F8330000224FF400516248E3
:1039300001F04CFC5D48807988BB5C48007800F061
:10394000800060B35D4800785A4981F82B0081F807
:10395000270081F82F00012081F82E00002081F837
:10396000260081F82A0043F6982004F011FEFA2080
:10397000504981F8330044F6206004F009FE00202D
:103980004C4981F82B0081F8270081F82F0081F83D
:10399000330000224FF40051474801F017FC434820
:1039A000407800F08000D8B12820424981F82B00EF
:1039B00081F8270081F82F00002081F82E000120D7
:1039C00081F8260081F82A0044F6206004F0E0FD2A
:1039D0000020384981F82F0081F8270081F82B005A
:1039E00010BD3248407800F0400020B1FA20314943
:1039F00081F8330003E000202E4981F8330070473E
:103A00002F49304A126841F822002E490968491CA2
:103A1000142291FBF2F302FB13112A4A1160704742
:103A2000284800681330142290FBF2F302FB1301C4
:103A3000234850F821007047D4010020B80100202D
:103A4000E001002090010020F0010020D8010020BA
:103A5000E8010020E4010020B4010020CC01002096
:103A6000D0010020C8010020A4010020A0010020F6
:103A700088020020BC010020C0010020F8010020C5
:103A8000C4010020F4010020B00100200802002041
:103A90000402002000020020FC0100202802002077
:103AA00024020020200200201C0200202C060020FE
:103AB000F80200200400002000040240FC02002064
:103AC000480600200803002010B52DED0C8B04469D
:103AD000A4F16400002801DB014600E0414200EE51
:103AE000101AB8EEC08ADFEDFE8AB7EE000AB4EE17
:103AF000C08AF1EE10FA04D89FEDFA0ABDEC0C8BE7
:103B000010BDB0EE080AB4EEC08AF1EE10FA04D28D
:103B10009FEDF50AF0EE408A51E0B3EE0E0AB4EEE6
:103B2000C08AF1EE10FA2ED218EE100A05F069FBE9
:103B300041EC1D0B9FEDED0B53EC102B05F050FAF3
:103B400041EC1C0BB0EE4C0AF0EE6C0A07F0A4FA44
:103B5000B0EE40BAF0EE60BA9FEDE60B53EC102BDE
:103B600051EC1B0B05F03CFA41EC1A0B9FEDE30BFB
:103B700053EC102B05F08DF941EC190B05F054FBBB
:103B800008EE900A1BE09FEDDF0AB4EEC08AF1EE6A
:103B900010FA04D29FEDDC0AF0EE408A0FE09FEDB0
:103BA000DB0AB4EEC08AF1EE10FA04D29FEDD80A17
:103BB000F0EE408A03E0B7EE080AF0EE408AB0EE7D
:103BC000680A9BE770B52DED028B0546B6EE000A3C
:103BD000F0EE408A2846FFF713FFCE48C079E8B1DF
:103BE000FFF71EFF0446622C04DB662C02DC00207B
:103BF000FFF729FA2046FFF767FFB0EE408A632CF3
:103C000005DA0020B1EE480AFFF70EFB06E0652C4E
:103C100004DD0020B0EE480AFFF706FBBDEC028B86
:103C200070BD70B505460C46B4F57A6F16DA022001
:103C3000051E03D01421B848FFF706FB0320051E1C
:103C400004D014214FF4E170FFF7FEFA40F22B206C
:103C5000051E03D01421B148FFF7F6FA70BD10B568
:103C60002DED0A8BF0EE408A9FED9E0AB0EE40CA21
:103C70009FED9C0AB0EE408A9FEDA90AC8EE800A2B
:103C800010EE904A204605F0BCFA41EC1B0B9FED6C
:103C9000A51BB0EE4B0AF0EE6B0A05F081FFB0EE0B
:103CA00040AAF0EE60AA9FEDA10B53EC102B51EC53
:103CB0001A0B05F095F941EC190B05F0B5FA08EE71
:103CC000100A9FED9C0AB4EEC08AF1EE10FA04DDF2
:103CD0009FED980AB0EE408A0AE09FED8C0AB4EEA0
:103CE000C08AF1EE10FA03D29FED880AB0EE408A46
:103CF0009FED8B0A78EEC00A9FED891A80EE810A4B
:103D0000DFED820A20EE200A10EE104A204605F070
:103D100078FA41EC1B0B9FED880B53EC102B05F050
:103D20005FF941EC1A0B9FED860B53EC102B05F05D
:103D3000B0F841EC190B05F077FA08EE100A9FED88
:103D4000820AB4EEC08AF1EE10FA04DD9FED7E0A1D
:103D5000B0EE408A0AE09FED7D0AB4EEC08AF1EE33
:103D600010FA03D29FED790AB0EE408ABDEEC80A80
:103D7000774880ED000ABDEEC80A764880ED000A5B
:103D8000BDEC0A8B10BD10B52DED088BF0EE408A0E
:103D90009FED540AF0EE409A9FED520AB0EE408A31
:103DA00028EEA80A10EE101A084605F02AFA41EC8F
:103DB0001B0BB0EE4B0AF0EE6B0A07F013F9B0EEF6
:103DC00040AAF0EE60AA51EC1A0B05F02DFA09EEAC
:103DD000100A9FED610AC9EE000A9FED600A20EE0D
:103DE000800AB0EE408A9FED530AB4EEC08AF1EE2D
:103DF00010FA04DD9FED4F0AB0EE408A0AE09FED15
:103E0000430AB4EEC08AF1EE10FA03D29FED3F0AE6
:103E1000B0EE408ABDEEC80A514880ED000A006845
:103E2000504908604E480068002808DB4C4800688C
:103E3000632804DCB2EE080A4B4880ED000A4848CB
:103E40000068642808DB46480068702804DC9FEDA1
:103E5000470A454880ED000A41480068712808DBA0
:103E60003F4800687C2804DCB2EE060A3E4880ED3C
:103E7000000A3B4800687D2808DB3948006886282E
:103E800004DCB2EE050A384880ED000A34480068C8
:103E9000872808DB32480068942804DC9FED340A48
:103EA000314880ED000A2E480068952808DB2C4830
:103EB00000689A2804DC9FED2F0A2B4880ED000A49
:103EC000274800689B2808DB25480068AA2804DCEE
:103ED0009FED290A244880ED000A214800684DE042
:103EE0003333333F00000000AA65FB3E9A9999994D
:103EF0009999A93FE07A14AE47E1CA3F5C8FC2F5B9
:103F0000285CDF3F00002042355E0A3F0000484247
:103F1000F31F123F2C060020BAFAFFFF3EFEFFFF00
:103F200000A07F459A9999999999F13F0000000066
:103F300000805A4000007A43666666666666E63F21
:103F40000000000000C082400000164400800944C8
:103F50000C0300201003002000401C4500000C430F
:103F6000F0020020F80200200003002066663641BF
:103F7000CDCC2441CDCC1C4100001C41AB2808DB3A
:103F8000FE480068B42804DC9FEDFD0AFD4880ED82
:103F9000000AFA480068B52808DBF8480068C72816
:103FA00004DC9FEDF90AF74880ED000AF348006849
:103FB000C82808DBF1480068FA2804DC9FEDF20A03
:103FC000F04880ED000AED4890ED000AB8EEC00A16
:103FD000EC48D0ED000A20EE200AF2EE040A80EE52
:103FE000201ABDEEC10AE94880ED000ABDEC088B3D
:103FF00010BD10B52DED088BF0EE408A1FED470A7D
:10400000F0EE409A1FED490AB0EE408A28EEA80A69
:1040100010EE101A084605F0F4F841EC1B0BB0EE58
:104020004B0AF0EE6B0A06F0DDFFB0EE40AAF0EEB0
:1040300060AA51EC1A0B05F0F7F809EE100ADFED53
:10404000D40A89EE200ADFEDD30A20EE200AB0EE72
:10405000408A1FED480AB4EEC08AF1EE10FA04DD82
:104060001FED4C0AB0EE408A0AE01FED580AB4EE8C
:10407000C08AF1EE10FA03D21FED5C0AB0EE408A5E
:10408000BDEEC80AC44880ED000A0068C349086054
:10409000C14800683C2809DBBF480068B0F5AF7F25
:1040A00004DC9FEDBF0ABF4880ED000ABA4890EDDE
:1040B000000AB8EEC00ABB48D0ED000A20EE200A84
:1040C000F2EE040A80EE201ABDEEC10AB34880ED7C
:1040D000000ABDEC088B10BDB34801680068401CA5
:1040E000B14A1060642907D2B0484089B0490968D4
:1040F0000844AF4908600BE0AD4800686421B0FB9C
:10410000F1F0AC4908600020A7490860A8490860A0
:10411000A94801680068401CA74A1060642907D2BA
:10412000A2480089A54909680844A44908600BE031
:10413000A24800686421B0FBF1F0A14908600020AA
:104140009D4908609D4908609E4801680068401CC0
:104150009C4A1060642907D2944880899A4909686A
:104160000844994908600BE0974800686421B0FB57
:10417000F1F0964908600020924908609249086071
:10418000934801680068401C914A1060782907D262
:104190008648C0898F49096808448E4908600BE049
:1041A0008C4800687821B0FBF1F08B490860002052
:1041B0008749086087490860884801680068401C92
:1041C000864A10600A2907D278488088844909689D
:1041D0000844834908600BE0814800680A21B0FB6D
:1041E000F1F08049086000207C4908607C49086043
:1041F0007D4801680068401C7B4A1060322907D264
:104200006A48C088794909680844784908600BE021
:10421000764800683221B0FBF1F075490860002053
:104220007149086071490860724801680068401C63
:10423000704A1060322907D25C4800886E490968CC
:1042400008446D4908600BE06B4800683221B0FB00
:10425000F1F06A4908600020664908606649086014
:10426000704773B52DED028B142505261FEDE30A6B
:10427000B0EE408A62480079322805DB6048007958
:10428000C82801DC012000E0002004465C480078DA
:1042900000F00800D0B95A48007800F01000A8B922
:1042A0005748007800F0200080B95548007800F0A9
:1042B000400058B954B15248407800F0400028B945
:1042C0000020FEF797FEBDEC028B7CBD4C48407889
:1042D00000F0020030B19DF80C50B7EE000AB0EECD
:1042E000408A05E09DF808509FED460AB0EE408AEE
:1042F0004348007800F0080098B14148007800F089
:10430000100070B93E48007800F0200048B93C48E1
:10431000007800F0400020B929463B48FEF794FFA2
:10432000FBE03748007800F00800A0B93448007876
:1043300000F0100078B13248007800F0200050B949
:104340002F48007800F0400028B9294640F2465036
:10435000FEF77AFFE1E02A48007800F0080058B93B
:104360002748007800F0100030B92548007800F0A8
:10437000200008B1224849E052E00000F00200208D
:1043800066661A410003002066661641F8020020A6
:10439000000052430000DC42F4020020FC02002036
:1043A00066661E41040300204C030020E005002047
:1043B00050030020900000205403002058030020E8
:1043C000940000205C030020600300209C0000207B
:1043D0006403002068030020980000206C03002084
:1043E00070030020A0000020740300207803002048
:1043F000AC0000207C03002080030020A8000020E7
:104400002C060020CDCC4C3E3EFEFFFF007800F095
:10441000400028B929464FF4E170FEF715FF7CE013
:10442000FC48007800F0080098B9FA48007800F0DD
:10443000100070B9F748007800F0200048B9F5483E
:10444000007800F0400020B12946F348FEF7FCFE5A
:1044500063E0F048007800F0080098B1ED4800787B
:1044600000F0100070B9EB48007800F0200048B16F
:10447000E848007800F0400020B929460020FEF707
:10448000E3FE4AE0E348007800F0080098B1E14814
:10449000007800F0100070B9DE48007800F02000CD
:1044A00048B9DC48007800F0400020B12946DB48DC
:1044B000FEF7CAFE31E0D748007800F00800A0B946
:1044C000D448007800F0100078B1D248007800F0AD
:1044D000200050B1CF48007800F0400028B92946AC
:1044E0004FF46170FEF7B0FE17E0CA48007800F0A4
:1044F000080090B9C748007800F0100068B1C548BE
:10450000007800F0200040B9C248007800F0400078
:1045100018B12946C248FEF797FEBE48007800F061
:104520000800D0B9BB48007800F01000A8B9B9481D
:10453000007800F0200080B9B648007800F0400014
:1045400058B954B1FEF7E4F838B1B248407800F0F9
:10455000400010B90020FEF74DFD14B1FEF773FDC9
:1045600027E0AC48007932280EDAFEF7D1F828B1FE
:104570000020B1EE480AFEF757FE1AE00020B1EE27
:10458000480AFEF751FE14E0A2480079C8280EDD63
:10459000FEF7BEF828B10020B0EE480AFEF744FE50
:1045A00007E00020B0EE480AFEF73EFE01E0FEF70D
:1045B0004AFD00BF87E610B500209A4988704FF485
:1045C0000041994800F0E4FD012804D102209549FA
:1045D000C870012010BD64209249C8700020F9E71E
:1045E00010B500208F4988704FF400418E4800F0CC
:1045F000CFFD01280BD18D48007840B9642089494E
:10460000C87000208A4908608A49086010BDFCF71C
:10461000D3F9041E01DB204600E0604286490968A8
:10462000884208DD81480078012804D102207D49B4
:10463000C8700120EAE732207A49C87001207B491E
:1046400008700020E2E710B5002076498872042146
:10465000754800F09DFD012804D102207149C872FF
:10466000012010BD64206F49C8720020F9E710B521
:1046700004216D4800F08CFD01280BD16F480078B3
:1046800040B964206749C87200206D4908606D49CF
:10469000086010BDFCF7BAF9041E01DB204600E0FB
:1046A000604269490968884208DD64480078012849
:1046B00004D102205B49C8720120EAE7322059493F
:1046C000C87201205D4908700020E2E710B50020A3
:1046D000544988764FF48041534800F059FD012831
:1046E00004D102204F49C876012010BD64204D49F5
:1046F000C8760020F9E710B500204A4988764FF4C3
:104700008041494800F044FD01280BD14F48007812
:1047100040B964204349C87600204D4908604D499E
:10472000086010BDFCF7CDF8041E01DB204600E058
:10473000604249490968884208DD444800780128F8
:1047400004D102203749C8760120EAE732203549F2
:10475000C87601203D4908700020E2E710B500202E
:10476000304988740121304800F012FD012804D13D
:1047700002202C49C874012010BD64202949C87446
:104780000020F9E710B50121274800F001FD0128BC
:104790000CD13248007848B964202249C8740020FE
:1047A0004FF0804148622E49086010BDFCF7D8F8F0
:1047B000041E01DB204600E060422A490968884265
:1047C00008DD26480078012804D102201549C87464
:1047D0000120EAE732201349C87401201F490870FC
:1047E0000020E2E710B5FCF7E7F81F490968441A12
:1047F000002C01DB204600E06042142857DDFCF766
:10480000DBF819490968884230DD012005498870C4
:104810002FE000002C060020BAFAFFFF7CFCFFFF0F
:10482000F8F8FFFF040000200010024018030020E9
:1048300024080040800000202403002019030020E9
:10484000240400406C000020280300201B030020EB
:10485000240C0040700000202C0300201A030020CC
:1048600068000020300300202C0200200020F849BE
:104870008870FCF7A1F8F7490968441A002C01DB9D
:10488000204600E06042F449086008460068FA28C3
:1048900001DDFA200860F04800680A2802DA0A20E0
:1048A000ED490860EC480078E949C87002E0022050
:1048B000E749C87010BD10B5FCF7A8F8E7490968CA
:1048C000441A002C01DB204600E0604214282ADD57
:1048D000FCF79CF8E1490968884203DD0120DC49C6
:1048E000887202E00020DA498872FCF78FF8DB4911
:1048F0000968441A002C01DB204600E06042D649DA
:10490000086008460068FA2801DDFA200860D248ED
:1049100000680A2802DA0A20CF490860CE480078E9
:10492000CB49C87202E00220C949C87210BD10B557
:10493000FBF7C7FFCA490968441A002C01DB20466F
:1049400000E0604214282ADDFBF7BBFFC449096878
:10495000884203DD0120BE49887602E00020BC4980
:104960008876FBF7AEFFBE490968441A002C01DBCC
:10497000204600E06042B849086008460068FA280E
:1049800001DDFA200860B44800680A2802DA0A202B
:10499000B1490860B0480078AD49C87602E002200D
:1049A000AB49C87610BD10B5FBF7DAFFAD49096811
:1049B000441A002C01DB204600E0604214282ADD66
:1049C000FBF7CEFFA7490968884203DD0120A04913
:1049D000887402E000209E498874FBF7C1FFA1495A
:1049E0000968441A002C01DB204600E060429A4925
:1049F000086008460068FA2801DDFA200860964839
:104A000000680A2802DA0A20934908609248007870
:104A10008F49C87402E002208D49C87410BD09E0B6
:104A20001120FDF739FD01218F4802F08FFA0F2088
:104A300003F0AEFDF4E704E0FFF74EFB032003F0C4
:104A4000A7FDF9E727E08948007800F00100A0B150
:104A500087480078FFF7B6F88448407800F02000D7
:104A600030B18448018882480078FFF7DAF807E01F
:104A700050210C20FFF7F5FB02E00A20FEF7BAFAFE
:104A8000FFF7B0FEFFF717FFFFF751FFFFF78BFFB0
:104A9000032003F07DFDD6E706E0FDF711FDFEF7EC
:104AA00064FE032003F074FDF7E71FB5FBF7FAFF80
:104AB000FCF737F8FCF787FAFCF747FBFCF74DFCEF
:104AC000FCF7D2FBFCF7C1FCFCF796F84FF4E130A1
:104AD000FCF794FD4FF4E130FCF719FE4FF4E130A0
:104AE000FCF7A2FE4FF46120FCF7D7FF4FF4E13052
:104AF000FDF770F8FDF716FE00BFFFF75CFD08B983
:104B0000012400E00024FFF79EFD08B9012000E029
:104B100000200443FFF722FE08B9012000E0002036
:104B20000443FFF7D3FD08B9012000E0002004434F
:104B3000002CE2D100BFFFF753FD08B9012400E0CB
:104B40000024FFF794FD08B9012000E00020044391
:104B5000FFF718FE08B9012000E000200443FFF72A
:104B6000CAFD08B9012000E000200443002CE2D176
:104B7000002041490860FDF7A3F900200090019052
:104B8000029003464FF480723CA10390404803F02A
:104B9000C0FA002000900190029003464FF480720A
:104BA0003CA10390404803F0B4FA0020009001902B
:104BB000029003464FF480723CA10390404803F0FA
:104BC000A8FA00203F490860214981F8380081F89F
:104BD000370081F83D0081F83C001AE010E03A48C7
:104BE00090ED000AB8EEC00AFFF703FA21480088EA
:104BF00000EE100AB8EE400AFFF7C5F8FEF764FEB3
:104C00001A48007800F001000028E8D11420FEF7CF
:104C1000F1F9E3E71FB500200090019002900346F0
:104C20004FF4807229A103902B4803F072FA002000
:104C300000900190029003464FF4807227A10390E8
:104C4000294803F066FA03F07DFE002004B010BD91
:104C5000040000202C0200201C0300203002002051
:104C60003402002038020020004800402C060020BA
:104C7000570100205A010020B40000207461736BBA
:104C8000526F626F74416E616C7974696373000076
:104C9000994A00087461736B446965754B6869656E
:104CA0006E436F4361750000454A00087461736B81
:104CB000446965754B6869656E436F436175310082
:104CC000374A0008E8020020980000207461736BE6
:104CD0004D61696E00000000AB4A00087461736B9F
:104CE0004779726F000000001F4A00080CB50020D1
:104CF000019000907248006840F48030704908606C
:104D000000BF6F48006800F4003000900198401C1C
:104D10000190009818B90198B0F5A06FF1D16848DA
:104D2000006800F4003010B10120009001E0002084
:104D300000900098012846D161484030006840F05A
:104D400080505F49403108605E48006840F4804010
:104D50005C4908605A4808300068594908310860C1
:104D60000846006840F4004008600846006840F4C7
:104D7000A05008605448091F0860081F006840F0F0
:104D80008070091F086000BF4D48006800F0007087
:104D90000028F9D040F205604C49086048480830C6
:104DA000006820F0030046490831086008460068A2
:104DB00040F00200086000BF41480830006800F081
:104DC0000C000828F8D10CBD10B53D48006840F033
:104DD00001003B4908600020394908310860384823
:104DE00000683B490840364908603A48091D086098
:104DF000081F006820F48020091F08600020304947
:104E00000C310860FFF772FF4FF000603249086014
:104E100010BD70B500200022022300240221284D7D
:104E200008352D6805F00C0020B1042806D00828AC
:104E300034D107E0294D2A4E356033E0294D284E04
:104E400035602FE01E4D2D1D2D68C5F380541C4D7F
:104E50002D1D2D6805F03F0154B1224DB5FBF1F534
:104E6000174E361D3668C6F3881605FB06F209E0B4
:104E70001A4DB5FBF1F5124E361D3668C6F388168D
:104E800005FB06F20E4D2D1D2D68C5F301456D1C69
:104E90006B00B2FBF3F5124E356003E00F4D104E80
:104EA000356000BF00BF064D08352D68C5F30315FA
:104EB0000D4E705D0A4D2D68C540094E356070BDC0
:104EC000003802400070004008544007003C024097
:104ED000FFFFF6FE1030002408ED00E00024F4008F
:104EE0008403002000127A008803002006488047CF
:104EF00006480047FEE7FEE7FEE7FEE7FEE7FEE7BF
:104F0000FEE7FEE7FEE7FEE7C94D0008890100085D
:104F100032490143324A1160704770B500210023C5
:104F20000F22C4781CB32E4C246804F4E064C4F54A
:104F3000E064C4F30721C1F10404E3B20A414478F8
:104F40009C40E1B28478144021430C07210E254C8B
:104F500005786155047804F01F050124AC400578FC
:104F60006D11AD0005F1E025C5F8004109E00478B8
:104F700004F01F050124AC401B4D0678761145F85E
:104F8000264070BD194A0A400243154B1B1F1A6088
:104F9000704739B1124A121D12680243104B1B1D93
:104FA0001A6006E00E4A121D126882430C4B1B1D4C
:104FB0001A607047042808D14FF0E021096941F0D8
:104FC00004014FF0E022116107E04FF0E021096990
:104FD00021F004014FF0E022116170470000FA0552
:104FE0000CED00E000E400E080E100E080FFFF1F46
:104FF00010B504468C48844208D10121084600F0CF
:1050000000FB0021012000F0FCFA5EE087488442AA
:1050100008D10121022000F0F4FA0021022000F062
:10502000F0FA52E08248844208D10121042000F0C5
:10503000E8FA0021042000F0E4FA46E07D488442CA
:1050400008D10121082000F0DCFA0021082000F03E
:10505000D8FA3AE07848844208D10121102000F0C3
:10506000D0FA0021102000F0CCFA2EE073488442E0
:1050700008D10121202000F0C4FA0021202000F0F6
:10508000C0FA22E06E48844208D10121402000F09D
:10509000B8FA0021402000F0B4FA16E069488442D2
:1050A00008D10121802000F0ACFA0021802000F01E
:1050B000A8FA0AE06448844207D10121801500F073
:1050C000A0FA0021A01500F09CFA10BDF0B50A4628
:1050D00000210023002400BF3DE0012505FA01F373
:1050E000156805EA03049C4234D105684F00032685
:1050F000BE40B543056015794E00B540066835439E
:1051000005601579012D02D01579022D16D185681B
:105110004F000326BE40B543856055794E00B5402B
:10512000866835438560456801268E40B5434560F5
:10513000456896798E40B6B235434560C5684F00E4
:105140000326BE40B543C560D5794E00B540C6685C
:105150003543C560491C1029BFD3F0BD4FF6FF7120
:1051600001600021017141718171C171704708B501
:105170004FF480320092009A0A430092009AC26172
:10518000C161009AC261C2690092C269009208BD01
:105190000246002013690B400BB1012000E0002003
:1051A00070470146086980B2704702460020536983
:1051B0000B400BB1012000E0002070470146486918
:1051C00080B2704701837047418370470AB1018301
:1051D00000E0418370474161704742694A40426143
:1051E0007047F0B5002300244D07ED0E02FA05F3D9
:1051F000CE1000F1200555F826504E07F70E0F2669
:10520000BE40B543CF1000F1200646F82750CE101F
:1052100000F1200555F8265045EA0304CE1000F1B0
:10522000200545F82640F0BD000002400004024081
:1052300000080240000C024000100240001402402E
:1052400000180240001C024000200240FA4800689A
:1052500040F00100F84908600020F7490831086073
:10526000F5480068F5490840F3490860F448091D0D
:105270000860081F006820F48020091F08600020D3
:10528000ED490C31086070470021EB4A921C117007
:1052900011460870704710B5014600220023002017
:1052A0004A11012A02D1E44C236808E0022A03D102
:1052B000E14C7034236802E0DF4C7434236801F061
:1052C0001F02012494401C400CB1012000E000208A
:1052D00010BD38B5002000900024002500BF31200B
:1052E000FFF7D9FF05460098401C00900098B0F5E4
:1052F000A06F01D0002DF2D03120FFF7CCFF08B114
:10530000012400E00024204638BD01460020CA4A9E
:10531000106820F0F80040EAC10010607047C949E9
:10532000086070470021C44A703211701170012862
:1053300002D004280AD104E00121BF4A7032117062
:1053400005E00521BC4A7032117000E000BF00BFCB
:105350007047BD490860704770B5049C41EA8215EA
:105360000126C6EB530645EA0645054345EA0465B2
:10537000B14E361D356070BDB24908667047820176
:1053800042EA0172AC4B84331A607047AD498866BB
:105390007047AC49C864704702460020A64B0833EA
:1053A000186820F0EC6042EA01031843A24B08336E
:1053B00018607047024600209F4B0833186820F0A1
:1053C000784042EA010318439B4B0833186070474A
:1053D00001460020984A0832106820F00300084374
:1053E0001060704794480830006800F00C00704767
:1053F00001460020904A0832106820F0F00008436F
:1054000010607047014600208B4A0832106820F473
:10541000E05008431060704701460020864A083279
:10542000106820F4604040EAC10010607047F0B599
:105430000021002200240225002602237E4F083787
:105440003F6807F00C0121B1042905D0082937D1A4
:1054500005E07E4F076036E07D4F076033E0764F12
:105460003F1D3F68C7F38056734F3F1D3F6807F0ED
:105470003F036EB1764FB7FBF3F7DFF8BCC10CF119
:10548000040CDCF800C0CCF3881C07FB0CF40CE027
:105490006E4FB7FBF3F7DFF8A0C10CF1040CDCF89A
:1054A00000C0CCF3881C07FB0CF4634F3F1D3F6822
:1054B000C7F301477F1C7D00B4FBF5F7076002E0EE
:1054C000624F076000BF00BF5B4F08373F6807F0BF
:1054D000F00109095F4F7A5C0768D7404760564F73
:1054E00008373F6807F4E051890A5A4F7A5C4768E9
:1054F000D7408760504F08373F6807F46041490B39
:10550000544F7A5C4768D740C760F0BD002100F473
:105510004072B2F5407F0AD1474A0832116821F43F
:10552000F8114D4A02401143434A08321160424A81
:1055300070321268C0F30B031A433F4B70331A608A
:10554000704741494439086070473F494039086015
:10555000704742490860704739B1374A30321268A3
:105560000243354B30331A6006E0334A303212685A
:105570008243314B30331A60704739B12E4A34328E
:10558000126802432C4B34331A6006E02A4A343244
:1055900012688243284B34331A60704739B1264A67
:1055A000383212680243244B38331A6006E0224A2C
:1055B000383212688243204B38331A60704739B151
:1055C0001D4A4032126802431B4B40331A6006E00A
:1055D000194A403212688243174B40331A607047B1
:1055E00039B1154A443212680243134B44331A60EE
:1055F00006E0114A4432126882430F4B44331A606A
:10560000704739B10C4A1032126802430A4B10330A
:105610001A6006E0084A103212688243064B1033C3
:105620001A607047E1B1044A143212680243024B17
:1056300014331A6019E0000000380240FFFFF6FE44
:105640001030002400004742800E47420024F4003E
:1056500000127A0098030020FFFCFF0F5C01474214
:105660005B4A126882435A4B1A60704739B1584AF4
:10567000121D12680243564B1B1D1A6006E0544A65
:10568000121D12688243524B1B1D1A60704739B1BC
:105690004F4A0C32126802434D4B0C331A6006E03D
:1056A0004B4A0C3212688243494B0C331A607047E4
:1056B00039B1474A103212680243454B10331A6021
:1056C00006E0434A103212688243414B10331A609D
:1056D000704739B13E4A3C32126802433C4B3C337E
:1056E0001A6006E03A4A3C3212688243384B3C3337
:1056F0001A60704739B1364A403212680243344B5F
:1057000040331A6006E0324A403212688243304B1E
:1057100040331A60704739B12D4A4432126802434F
:105720002B4B44331A6006E0294A44321268824304
:10573000274B44331A60704739B1254A4C321268FE
:105740000243234B4C331A6006E0214A4C32126864
:1057500082431F4B4C331A60704739B11C4A503298
:10576000126802431A4B50331A6006E0184A50324E
:1057700012688243164B50331A60704739B1144A8D
:10578000D21F12780243124BDB1F1A7006E0104A38
:10579000D21F127882430E4BDB1F1A7070470C48E1
:1057A0006030006840F080700949603108607047DF
:1057B00001460020064A083A12680A400AB1012050
:1057C00000E0002070470249891F08707047000000
:1057D0001438024010B501210802FFF769FF0021CB
:1057E0004FF48070FFF764FF10BD30B50246002013
:1057F00000235068F84C20400D790C6844EA0524D9
:10580000204350609068F54C2040D1E903542C436C
:105810008D682C434D7944EA450420439060D06A5A
:1058200020F470000C7D641EE4B2234340EA035070
:10583000D06230BD00210160017141718160C160A1
:1058400001610121017570470021E54A1168E54AAF
:105850001140D0E900231A4383681A43C3681A43EE
:105860001143E14AC2F8041370470021016041600E
:105870008160C160704721B1826842F0010282609C
:1058800003E0826822F00102826070470A4600212C
:105890004168D64B194011434160704741628262B2
:1058A00070470A460021416821F01F011143416001
:1058B000704738B1CA49096841F40001CA4AC2F8C0
:1058C000041306E0C649096821F40001C64AC2F87B
:1058D0000413704738B1C249096841F48001C24AD3
:1058E000C2F8041306E0BE49096821F48001BE4AEB
:1058F000C2F804137047F0B504460D46002000219D
:10590000092D11DDE068A5F10A0606EB460707261A
:1059100006FA07F18843A5F10A0606EB460603FAE4
:1059200006F10843E0600CE0206905EB4507072617
:1059300006FA07F1884305EB450603FA06F108432A
:105940002061072A0FDA606B561E06EB86071F26BA
:1059500006FA07F18843561E06EB860605FA06F19D
:105960000843606322E00D2A0FDA206BD61F06EB96
:1059700086071F2606FA07F18843D61F06EB860620
:1059800005FA06F10843206310E0E06AA2F10D0673
:1059900006EB86071F2606FA07F18843A2F10D06DB
:1059A00006EB860605FA06F10843E062F0BD816861
:1059B00041F0804181607047014600208A6802F40E
:1059C00080020AB1012000E00020704721B1826806
:1059D00042F48062826003E0826822F48062826026
:1059E000704721B1826842F00202826003E082685F
:1059F00022F002028260704710B50A46002100239F
:105A0000416821F46041531E41EA4331416010BDB9
:105A100021B1426842F40062426003E0426822F42D
:105A20000062426070470146C86C80B270476C48A3
:105A3000001D0068704721B1826842F48072826064
:105A400003E0826822F480728260704721B182682C
:105A500042F40072826003E0826822F40072826085
:105A6000704738B15E49096841F400515E4AC2F896
:105A7000041306E05A49096821F400515A4AC2F851
:105A800004137047F0B50446154600200022002696
:105A9000092911DDE068A1F10A0707EB470C072788
:105AA00007FA0CF29043A1F10A0707EB470703FA44
:105AB00007F21043E0600CE0206901EB410C07277E
:105AC00007FA0CF2904301EB410703FA07F2104387
:105AD0002061A06BC0F30156EF1C06F1010CA7EB8F
