:020000040800F2
:10000000C0320020B556000845020008470200082B
:100010004B0200084F0200085302000800000000D5
:100020000000000000000000000000009D0100082A
:100030005702000800000000E1010008CF86000818
:10004000CF560008CF560008CF560008CF560008FC
:10005000CF560008CF560008CF560008CF560008EC
:100060005D040008A1040008CF5600080103000841
:10007000E30200083F030008CF560008750200089D
:10008000CF56000881020008CF560008CF5600085E
:10009000CF560008CF560008CF560008CF560008AC
:1000A000CF5600087B030008CF560008CF56000843
:1000B000A7030008D503000801040008CF56000874
:1000C000CF560008CF560008CF5600085904000844
:1000D000CF5600085D020008CF560008CF56000832
:1000E000CF560008CF560008CF560008CF5600085C
:1000F000CF560008CF560008CF5600081B03000853
:10010000CF560008CF5600082D0400085B040008F5
:10011000CF560008CF5600084D03000859030008C9
:10012000CF5600089B020008B5020008CF56000811
:10013000CF560008CF560008CF560008CF5600080B
:10014000CF560008CF560008CF560008CF560008FB
:10015000D5020008CF560008CF560008CF56000839
:10016000CF560008CF560008CF560008CF560008DB
:10017000CF560008CF560008CF560008CF560008CB
:10018000CF560008CF560008DFF80CD009F0B0FDBC
:1001900000480047CF530008C0320020234B1968A5
:1001A0000868B0E8F04F80F309884FF0000080F352
:1001B000118870470000000003480068006880F361
:1001C000088862B600DF00BF08ED00E0DFF80C0031
:1001D000016841F470010160704700BF88ED00E0E4
:1001E000EFF30980114B1A681EF0100F08BF20EDC5
:1001F000108A20E9F04F106008B54FF0140080F32A
:10020000118808F02CFE4FF0000080F31188BDE843
:10021000084019680868B0E8F04F1EF0100F08BFDA
:10022000B0EC108A80F30988704700BFF00200200C
:10023000EFF311804FF0140181F31188704780F3C0
:1002400011887047704700BFFEE700BFFEE700BFA0
:10025000FEE700BFFEE770477047704710B540F2F9
:100260002551904807F047FB18B120218D4807F031
:1002700039FB10BD10B58C498C4806F071FA10BDE1
:1002800010B58B498948303006F040FA20B18849D2
:100290008648303006F064FA10BD10B585498648AE
:1002A00006F034FA28B18349834806F059FA01F080
:1002B00027FD10BD10B581497F48183006F050FA6F
:1002C0007F4840787E49097840EA012000B27D49A4
:1002D000088010BD10B57C497748603006F040FAC0
:1002E00010BD10B573497148483806F00FFA30B1A7
:1002F00070496E48483806F033FA00F09FFA10BD96
:1003000010B572496948603806F000FA20B16F49AB
:100310006648603806F024FA10BD10B56C49634891
:10032000483006F0F3F948B100216048483006F043
:1003300043F967495D48483006F012FA10BD10B520
:1003400059495A48303806F00BFA10BD10B5012152
:10035000604807F02DF810BD10B501215E4807F088
:1003600027F87A204F49888001215C4807F0D2F9AC
:1003700001215B4807F0CEF910BD10B501215948A5
:1003800007F016F85748008800F0100028B15648CA
:100390000068401E5449086004E053480068401C4F
:1003A0005149086010BD10B50121880707F000F819
:1003B0004FF08040008800F0100028B14B480068E2
:1003C000401E4A49086004E048480068401C47490C
:1003D000086010BD10B50121454806F0E9FF44480A
:1003E000008800F0100028B142480068401E4149D2
:1003F000086004E03F480068401C3E49086010BDAA
:1004000010B501213C4806F0D3FF3B48008800F0BE
:10041000100028B139480068401E3849086004E0DF
:1004200036480068401C3549086010BD10B50121F0
:10043000334806F0BDFF3248008800F0100028B1B4
:1004400030480068401E2F49086004E02D480068CD
:10045000401C2C49086010BD7047704710B504203F
:1004600006F016FAD8B12021274805F09AFA04219F
:10047000264805F071FA012804D10021164806F03B
:1004800017FB09E00421214805F066FA20B912485B
:1004900006F012FB1E49086004201E49086010BDCA
:1004A0007047000000100140208000207060024072
:1004B0000080202000880010286402400080201066
:1004C0000C0500206400002000880020208000101F
:1004D0000080002800100040001400400048004048
:1004E00000140140000001404400002048000020AA
:1004F000000400404C000020000800406000002084
:10050000000C00405000002000000240000C02409F
:1005100040000020143C014070B50446204609F01C
:1005200087F805462146F74809F089F8A0B19522D9
:100530002146F44809F070F80021F34806F03CF831
:10054000F048F1490C310860EF48B838C0F8BC50A9
:100550000121ED4806F030F870BD70B50446002565
:1005600010E0605D68B1615DE84807F0FEF800BF2B
:100570008021E64807F0A9F90028F9D0681CC5B227
:1005800000E070BDEDE770B5044600250FE05CB1FA
:100590002146DE4807F0E9F800BF8021DB4807F07C
:1005A00094F90028F9D000E070BD681CC5B2032D95
:1005B000EDDB00BFF8E713B50C460020FFF7E3FFC3
:1005C000D3A0FFF7CAFF2346D2A29621D24809F052
:1005D000E9FBD148FFF7C1FFD0A0FFF7BEFFCDA2D6
:1005E0009621CD48009B09F0DDFBCB48FFF7B5FF16
:1005F000CCA0FFF7B2FFFF20FFF7C5FFFF20FFF7FA
:10060000C2FFFF20FFF7BFFF1CBD70B505460C46BB
:10061000BFA0FFF7A2FF2246BEA1BF4809F0DAFB48
:10062000BD48FFF79AFFBDA0FFF797FF2846FFF7E9
:1006300094FFBCA0FFF791FFFF20FFF7A4FF70BD60
:1006400077B585B00546FF26B4A103C9CDE90301FE
:10065000B4A000680290AEA00068019000240AE0F7
:100660000020B1490855B1490855AB490855A5497D
:100670000855601CC4B21E2CF2DB0A20A649087083
:10068000FF2048708870C870A2A1A848079A09F096
:10069000A1FBA64901A808F0B3FF01A99E4808F0F4
:1006A000AFFF03A99C4808F0ABFF29469A4808F021
:1006B000A7FF98A19D48069A09F08CFB9B49964894
:1006C00008F09EFF02A9944808F09AFFFF2096497F
:1006D000087048708870904808F092FF8E48FFF7C5
:1006E0001BFF08B070BDF7B584B005460E46FF2766
:1006F0008AA103C9CDE902018AA00068019084A003
:1007000000680090002408E00020874908558749C8
:10071000085581490855601CC4B20A2CF4DB0A2034
:100720007D490870FF2048708870C87079A17F48A3
:10073000069A09F04FFB7D49684608F061FF69465B
:10074000754808F05DFF02A9734808F059FF294673
:10075000714808F055FF31466F4808F051FF01A974
:100760006D4808F04DFFFF206F4908704870887091
:100770000020C8700871684808F042FF6648FFF71B
:10078000CBFE07B0F0BD01B58EB069A2322101A841
:100790000E9B09F007FB01A8FFF7BEFE0FB000BDDE
:1007A00073B584B00546FF265CA103C9CDE90201FB
:1007B0005CA00068019056A00068009000240AE048
:1007C00000205949085559490855534908554D497C
:1007D0000855601CC4B21E2CF2DB0A204E4908707A
:1007E000FF2048708870C8704AA15048059A09F0E7
:1007F000F1FA4E49684608F003FF6946464808F09A
:10080000FFFE02A9444808F0FBFE2946424808F0D2
:10081000F7FE4649404808F0F3FE01A93E4808F0BB
:10082000EFFEFF2040490870487088703A4808F091
:10083000E7FE3948FFF770FE06B070BD1CB53F48B3
:1008400000783E49497808443C49897808443B4946
:10085000C97808443949097908443849497908442C
:100860003649897908443549C97908443349097AB0
:100870000844C0B201903148007A00F00F000090A7
:100880009DF800000D2803D000212D4806F042FFFE
:100890001CBD2A48007A00F00F000D2806D1274819
:1008A000007800F0010008B10D2070470020FCE73F
:1008B0002248007800F0100008B1012070470020A5
:1008C000FCE71CB51F4806F0F7F81F49096840EA25
:1008D00001400A2190FBF1F0009000243CE019480F
:1008E00006F0EAF81849096840EA01400A2190FB3D
:1008F000F1F00190DDE90021881A002826DB01468D
:1009000025E0000066040020B8600240005000406E
:100910007400000025640000300300202E747874F9
:100920003D2200002200000016040020EE030020FB
:100930006A302E76616C3D25640000004805002079
:1009400000480040000001404400002041420529C9
:1009500000DA641C01980090022CC0DB01981CBDD9
:100960001CB54FF0804006F0A7F8F849096840EA46
:1009700001400A2190FBF1F00090002418E04FF0B4
:10098000804006F099F8F149096840EA01400A21DF
:1009900090FBF1F00190DDE90021881A002801DBCD
:1009A000014600E04142322900DA641C01980090BF
:1009B000022CE4DB01984100002901DB08461CBD44
:1009C0004842FCE71CB5E24806F076F8E1490968C0
:1009D00040EA0140642190FBF1F00090002417E010
:1009E000DB4806F069F8DB49096840EA0140642108
:1009F00090FBF1F00190DDE90021881A002801DB6D
:100A0000014600E04142322900DA641C019800905E
:100A1000022CE5DB01981CBD70471CB5CE4806F0E2
:100A20004BF8CE49096840EA0140642190FBF1F09F
:100A30000090002417E0C84806F03EF8C74909684E
:100A400040EA0140642190FBF1F00190DDE90021D2
:100A5000881A002801DB014600E04142322900DA11
:100A6000641C01980090022CE5DB01981CBD01B5C7
:100A700081B000200090019800EBC0004000009081
:100A800002E00098401E009000980028F9D10CBDAB
:100A900001B581B00020009044F2506101984843B4
:100AA000009002E00098401E009000980028F9D1C4
:100AB0000CBD1CB501211F2005F032F94FF6FF7067
:100AC000009001208DF8040000208DF80600012020
:100AD0008DF8070003208DF805006946A04804F052
:100AE000D9FE4FF6FF70009001208DF80400002021
:100AF0008DF8060001208DF8070003208DF8050011
:100B00006946984804F0C6FE4FF6FF700090012039
:100B10008DF8040000208DF8060001208DF80700F4
:100B200003208DF8050069468F4804F0B3FE1CBD14
:100B30001CB501217E2005F0F3F8C02000900020B4
:100B40008DF8040001208DF8070002208DF80500C3
:100B50006946864804F09EFE0620009000208DF82D
:100B6000040001208DF8070002208DF80500694679
:100B70007B4804F08FFE0420009000208DF80400D4
:100B800001208DF8070002208DF8050069467548A0
:100B900004F080FE1CBD1FB54FF4E06004F09CFD26
:100BA00036208DF8000000208DF801008DF802003D
:100BB00001208DF80300684604F093FD0121102008
:100BC00005F0E1F83220ADF8040040F2E730029081
:100BD0000020ADF80C00ADF8060001A9644805F04E
:100BE0001EFF0121624806F0E3FB01221146604826
:100BF00006F0B6FB00215E4805F05AFF01215C4873
:100C000005F096FF1FBD1FB54FF4E06004F064FDD2
:100C100037208DF8000000208DF801008DF80200CB
:100C200001208DF80300684604F05BFD01212020BF
:100C300005F0A9F83220ADF8040040F2E730029048
:100C40000020ADF80C00ADF8060001A9494805F0F8
:100C5000E6FE0121474806F0ABFB0122114645485C
:100C600006F07EFB0021434805F022FF01214148A8
:100C700005F05EFF1FBD00B58BB00121022005F01D
:100C800093F801210C2005F04BF80322062135488A
:100C900004F08BFE03220721324804F086FE032273
:100CA0000821304804F081FE032209212D4804F078
:100CB0007CFE4FF47070069002208DF81C0003201B
:100CC0008DF81D0000208DF81E0001208DF81F00FA
:100CD00006A9244804F0DEFDA420ADF8200040F66B
:100CE000B83009904FF48070ADF828000020ADF8BE
:100CF000220008A9204805F092FE6020ADF804000B
:100D00000120ADF8060000200390ADF8100001218D
:100D1000194805F00DFF0021174805F0C9FE01A98B
:100D2000154805F011FF01A9134805F046FF01A978
:100D3000114805F08FFF01A90F4805F0F1FF0121CF
:100D40000D4806F0E6FA0BB000BD00004800002098
:100D50000008004060000020000400404C0000201B
:100D60000004024000080240000C02400000024063
:100D700000100040001400400004014000B58BB09A
:100D80000121082004F0FFFF0121084604F0C8FFFC
:100D900002220021FE4804F008FE02220121FC4844
:100DA00004F003FE02221146F94804F0FEFD02227F
:100DB0000321F74804F0F9FD0F20069002208DF87A
:100DC0001C0003208DF81D0000208DF81E0001205E
:100DD0008DF81F0006A9EE4804F05CFDBA20ADF8BE
:100DE000200042F2107009900020ADF82800ADF804
:100DF000220008A9E74805F012FE6020ADF80400C3
:100E00000120ADF8060000200390ADF8100001218C
:100E1000E04805F08DFE0021DE4805F049FE01A9FD
:100E2000DC4805F091FE01A9DA4805F0C6FE01A9EB
:100E3000D84805F00FFF01A9D64805F071FF012140
:100E4000D44806F066FA0BB000BD00B58BB00121A6
:100E5000042004F098FF01210D2004F061FF02221C
:100E60000C21CD4804F0A1FD02220D21CA4804F056
:100E70009CFD02220E21C84804F097FD02220F219A
:100E8000C54804F092FD4FF47040069002208DF8A2
:100E90001C0003208DF81D0000208DF81E0001208D
:100EA0008DF81F0006A9BC4804F0F4FCA420ADF89E
:100EB000200040F6B83009904FF48070ADF828005B
:100EC0000020ADF8220008A9B44805F0A8FD602074
:100ED000ADF804000120ADF8060000200390ADF845
:100EE00010000121AD4805F023FE0021AB4805F0BC
:100EF000DFFD01A9A94805F027FE01A9A74805F0D3
:100F00005CFE01A9A54805F0A5FE01A9A34805F0CE
:100F100007FF0BB000BD00B589B00121080404F043
:100F200043FF0121084604F0FBFE032211469848C6
:100F300004F03BFD03220221954804F036FD0C200D
:100F4000019002208DF8080003208DF80900002090
:100F50008DF80A0001208DF80B0001A98C4804F0DF
:100F600099FC0020ADF818004FF6FF7007900020A4
:100F7000ADF82000ADF81A0006A9894805F04FFD2C
:100F80000420ADF80C000020ADF80E00C820ADF82C
:100F900014000120ADF8100003A9814806F016F9ED
:100FA00000231A4603217F4806F0ADFA01217D484F
:100FB00006F0FEF9012211467A4806F0D1F9012126
:100FC000774805F0B5FD0021764805F071FD09B0C0
:100FD00000BD00B589B00121084604F0D4FE01210E
:100FE000022004F0D0FE0121032004F099FE01222A
:100FF0000F21674804F0D9FC012203216A4804F05C
:10100000D4FC02220421684804F0CFFC022205210E
:10101000654804F0CAFC3820019002208DF80800D1
:1010200003208DF8090000208DF80A0001208DF8BA
:101030000B0001A95C4804F02DFC4FF40040019026
:1010400002208DF8080003208DF8090000208DF89B
:101050000A0001208DF80B0001A94D4804F01AFC8C
:101060000020ADF818004FF6FF7007900020ADF893
:101070002000ADF81A0006A94FF0804005F0CFFC23
:1010800006A94A4805F0CBFC0420ADF80C0002206C
:10109000ADF80E001420ADF814000120ADF81000DA
:1010A00003A9800706F092F803A9404806F08EF8DD
:1010B00002231A460321580706F025FA02231A468E
:1010C00003213A4806F01FFA0121880706F070F95B
:1010D0000121364806F06CF901221146900706F00E
:1010E0003FF901221146314806F03AF901218807FB
:1010F00005F01EFD01212D4805F01AFD00214FF0DD
:10110000804005F0D5FC0021284805F0D1FC4FF4C3
:10111000C06004F0E1FA1D208DF8000003208DF876
:10112000010000208DF8020001208DF803006846C0
:1011300004F0D7FA1C208DF8000004208DF801007F
:1011400000208DF8020001208DF80300684604F0AD
:10115000C8FA09B000BD00B589B00121084604F005
:1011600023FE0121102004F0DBFD4FF420600190EC
:1011700002208DF8080003208DF8090000208DF86A
:101180000A0001208DF80B0001A9094812E00000B7
:1011900000000240000C0040000C0240000800402B
:1011A00000000140004001400004024000040040F3
:1011B0000010024004F06EFB01220921FE4804F0F9
:1011C000F4FB01220B21FC4804F0EFFB0020ADF8FA
:1011D00018004FF6FF7007900020ADF82000ADF822
:1011E0001A0006A9F54805F01AFC0420ADF80C0019
:1011F0000020ADF80E000A20ADF814000120ADF873
:10120000100003A9ED4805F0E1FF00231A46032171
:10121000EA4806F078F90121E84806F0C9F8012209
:101220001146E64806F09CF80121E44806F0C0F8B3
:1012300001221146E14806F093F80121DF4805F04C
:1012400077FC0021DD4805F033FC4FF4C06004F06A
:1012500043FA19208DF8000001208DF801000020CC
:101260008DF8020001208DF80300684604F039FA79
:1012700009B000BD00B589B00121042004F083FD50
:101280000121082004F04CFD4FF440500190022051
:101290008DF8080003208DF8090000208DF80A0061
:1012A00001208DF80B0001A9C54804F0F3FA0020D5
:1012B000ADF818004FF6FF7007900020ADF8200041
:1012C000ADF81A0006A9BF4805F0A9FB02220C21BF
:1012D000BB4804F06AFB02220D21B94804F065FB0B
:1012E0000420ADF80C000220ADF80E00C820ADF8C7
:1012F00014000120ADF8100003A9B24805F066FF04
:1013000002231A460321AF4806F0FDF80121AD483B
:1013100006F04EF801221146AA4806F021F80121F4
:10132000A84805F005FC42F21071A64805F0C0FB84
:101330000020A449143108800120A24908804FF4FC
:10134000C06004F0C9F91E208DF8000004208DF85B
:10135000010000208DF8020001208DF8030068468E
:1013600004F0BFF909B000BD00B589B00121082023
:1013700004F009FD0121084604F0D2FC032001908D
:1013800002208DF8080003208DF8090000208DF858
:101390000A0001208DF80B0001A98B4804F07AFAAD
:1013A0000020ADF818004FF6FF7007900020ADF850
:1013B0002000ADF81A0006A9844805F030FB02228F
:1013C0000021814804F0F1FA022201217E4804F054
:1013D000ECFA0420ADF80C000220ADF80E00C82095
:1013E000ADF814000120ADF8100003A9774805F00E
:1013F000EDFE02231A460321744806F084F8012109
:10140000724805F0D5FF01221146704805F0A8FF8B
:1014100001216E4805F08CFB42F210716B4805F01B
:1014200047FB002069491431088001206749088082
:101430004FF4C06004F050F932208DF80000042011
:101440008DF8010000208DF8020001208DF80300C6
:10145000684604F046F909B000BD00B59BB0012113
:101460005B4804F05DFC0121080204F09DFC0020B3
:101470000290584803905848049000200590082096
:101480000690002007904FF480600890400009907B
:1014900080000A9040110B9040020C9000200D90AB
:1014A00001200E9000200F90109002A94B4805F0EB
:1014B00049F80121494805F07FF83C2000900320BD
:1014C0008DF8040000208DF8070069463E4804F0BE
:1014D000E1F93C20009003208DF8040000208DF8F5
:1014E000070069463E4804F0D5F9002011904FF4FA
:1014F00040301290002013904FF47060149011A8A7
:1015000004F086FD4FF08070159001208DF8580092
:101510008DF85900002017901890199008208DF828
:10152000680015A92B484C3804F043FD0423012220
:10153000022128484C3804F0C2FD04230222032172
:1015400024484C3804F0BBFD0423032219462148EB
:101550004C3804F0B4FD04231A4605211D484C38CC
:1015600004F0ADFD042305220C211A484C3804F088
:10157000A6FD042306220D2116484C3804F09FFDD9
:10158000042307220E2113484C3804F098FD04234D
:1015900008220F210F484C3804F091FD01210D481D
:1015A0004C3804F037FE01210A484C3804F027FE7D
:1015B000012108484C3815E00010024000000140AD
:1015C000000C02400008004000000240000C0040F7
:1015D000050040004C200140FC0400201064024043
:1015E0000008024004F02BFDFE4804F0C4FD1BB0CF
:1015F00000BD08B54FF4E06004F06EF825208DF8CA
:10160000000000208DF801008DF8020001208DF807
:101610000300684604F065F808BD10B596B00446AE
:101620000121102004F0C0FB0121084604F078FBE2
:101630000121880504F074FB4FF4C0600090022083
:101640008DF8040000208DF806008DF807000220B8
:101650008DF805006946E44804F01CF907220921C9
:10166000E14804F0A2F907220A21DF4804F09DF9BD
:1016700002940020ADF80C00ADF80E00ADF810009B
:10168000ADF814000C20ADF8120002A9D74805F0FF
:10169000B9FF0121D54806F03DF84FF4A06004F0F1
:1016A0001BF83A208DF8180000208DF819008DF8ED
:1016B0001A0001208DF81B0006A804F012F8CC488F
:1016C00004F09EFE4FF00060079000200A90C94889
:1016D00009900A200B90C548001D089000200C902E
:1016E0004FF480600D9000200E900F904FF48070AA
:1016F00010904002119004201290032013900020BB
:101700001490159007A9BA4804F01CFF012240214B
:10171000B64806F0ACF801221021B54804F0D9FF14
:101720000121B34804F048FF16B010BD10B596B0C3
:1017300004460121480504F0F3FA0121480404F0AD
:1017400022FB0121082004F0EBFA60200090022027
:101750008DF8040000208DF806008DF807000220A7
:101760008DF805006946A44804F094F80722052185
:10177000A14804F01AF9072206219F4804F015F940
:1017800002940020ADF80C00ADF80E00ADF810008A
:10179000ADF814000C20ADF8120002A9974805F02E
:1017A00031FF0121954805F0B5FF4FF4A06003F02B
:1017B00093FF11208DF8180000208DF819008DF886
:1017C0001A0001208DF81B0006A803F08AFF8C4840
:1017D00004F016FE4FF00060079040200A90894800
:1017E00009903C200B908548001D089000200C902B
:1017F0004FF480600D9000200E900F904FF4807099
:1018000010904002119004201290032013900020A9
:101810001490159007A97A4804F094FE01228021C3
:10182000764806F024F801228021744806F01FF85B
:1018300001221021724804F04CFF0121704804F08D
:10184000BBFE16B010BD10B596B004460121880449
:1018500004F099FA0121082004F062FA01214805F8
:1018600004F05EFA4FF44070009002208DF80400FE
:1018700000208DF806008DF8070002208DF8050085
:1018800069465D4804F006F8072208215A4804F02A
:101890008CF807220921584804F087F802940020A8
:1018A000ADF80C00ADF80E00ADF81000ADF8140066
:1018B0000C20ADF8120002A9534805F0A3FE012147
:1018C000514805F027FF4FF4A06003F005FF0C20FE
:1018D0008DF8180000208DF819008DF81A000120ED
:1018E0008DF81B0006A803F0FCFE4548783804F08C
:1018F00087FD4FF00060079000200A904348099050
:101900000A200B904048001D089000200C904FF4D6
:1019100080600D9000200E900F904FF4807010901A
:101920004002119004201290032013900020149084
:10193000159007A93248783804F004FE01224021AE
:10194000314805F094FF012240212F4805F08FFF18
:10195000012210212A48783804F0BBFE01212848D2
:10196000783804F029FE16B010BD10B596B00446C4
:101970000121C80404F007FA0121084604F0D0F957
:101980000121480504F0CCF90320009002208DF8D5
:10199000040000208DF806008DF8070002208DF865
:1019A00005006946104803F075FF082200210E4823
:1019B00003F0FBFF082201210B4803F0F6FF02941D
:1019C0000020ADF80C00ADF80E00ADF81000ADF839
:1019D00014000C20ADF8120002A90D4805F012FE0B
:1019E000012117E0002001400000024000100140EA
:1019F000406402400C050020000C024000440040FE
:101A0000A06002400400002000480040480500207B
:101A1000004C0040FB4805F07DFE4FF4A06003F051
:101A20005BFE0D208DF8180000208DF819008DF850
:101A30001A0001208DF81B0006A803F052FEF248A0
:101A400004F0DEFC4FF00060079000200A90EF48A1
:101A5000099008200B90EB48001D089000200C9086
:101A60004FF480600D9000200E900F904FF4807026
:101A70001090400211900420129003201390002037
:101A80001490159007A9E04804F05CFD0122402164
:101A9000DC4805F0ECFE01224021DA4805F0E7FEC3
:101AA00001221021D84804F014FE0121D64804F088
:101AB00083FD16B010BD10B596B00446012148054F
:101AC00004F02EF90121080504F05DF901210C2034
:101AD00004F026F90420009002208DF80400002074
:101AE0008DF806008DF8070002208DF80500694684
:101AF000C74803F0CFFE4FF48050009002208DF8CD
:101B0000040000208DF806008DF8070002208DF8F3
:101B100005006946BF4803F0BDFE08220221BC480B
:101B200003F043FF08220C21BA4803F03EFF4FF4B4
:101B3000A06003F0D1FD2F208DF8180005208DF84E
:101B400019008DF81A0001208DF81B0006A803F07B
:101B5000C8FD02940020ADF80C00ADF80E00ADF801
:101B60001000ADF814000C20ADF8120002A9AA482C
:101B700005F048FD0121A84805F0CCFDA2487830C9
:101B800004F03EFC4FF00060079040200A90A3480C
:101B9000099096200B90A048001D089000200C9002
:101BA0004FF480600D9000200E900F9010904FF435
:101BB0000030119000201290032013900020149008
:101BC000159007A99048783004F0BCFC01228021D0
:101BD000914805F04CFE012210218B48783004F02A
:101BE00078FD01218848783004F0E6FC16B010BD7D
:101BF00010B596B004460121202004F0D5F801214B
:101C0000042004F08DF80121880504F089F8C02033
:101C1000009002208DF8040000208DF806008DF859
:101C2000070002208DF8050069467A4803F032FE6D
:101C300008220621774803F0B8FE082207217548DC
:101C400003F0B3FE02940020ADF80C00ADF80E00D6
:101C5000ADF81000ADF814000C20ADF8120002A988
:101C60006F4805F0CFFC01216D4805F053FD4FF49E
:101C7000A06003F031FD39208DF8180003208DF8A5
:101C8000190001208DF81A008DF81B0006A803F03A
:101C900028FD644804F0B4FB4FF02060079000205A
:101CA0000A906148099010200B905D48001D089033
:101CB00000200C904FF480600D9000200E900F904B
:101CC0004FF4807010904002119004201290032075
:101CD000139000201490159007A9524804F032FC8C
:101CE000012240214E4805F0C2FD012210214D483D
:101CF00004F0EFFC01214B4804F05EFC16B010BD6F
:101D00000EB500200290019000904748007802280C
:101D10002ED14548407801904348C078424989789F
:101D200040EA01200090404909783F4A5278114426
:101D30003D4A927811443C4AD2788818C11700EB8A
:101D400011610912A0EB0121C9B202913648007954
:101D50009DF8081088420BD133484079032807D1F9
:101D60009DF8040031490870BDF800003049088032
:101D70000EBD00B585B00121082003F0D1FF01217F
:101D8000880304F011F800208DF8100001208DF870
:101D900013000C20039003A91D4803F07BFD0221D2
:101DA000032005F0FDFD0420009000208DF80400C4
:101DB00010208DF8050001208DF80600684604F01B
:101DC00001FD08208DF8080000208DF809008DF82D
:101DD0000A0001208DF80B0002A803F082FC05B078
:101DE00000BD70B504460D46012C25D12946114889
:101DF00005F0BBFC00BF40210E4805F066FD002841
:101E0000F9D042E0004C0040406002401B05002039
:101E1000000C024000080240005000406604002010
:101E200000140140286402405705002028010020CA
:101E30002A01002000100140032C0BD12946FE4846
:101E400005F093FC00BF4021FB4805F03EFD002853
:101E5000F9D01AE0042C0BD12946F84805F085FC8E
:101E600000BF4021F54805F030FD0028F9D00CE016
:101E7000052C0AD12946F24805F077FC00BF402125
:101E8000EF4805F022FD0028F9D070BD0020ED4993
:101E90004862ED490860ED490860ED490860704707
:101EA0000020E8494862E84908604FF080414862F4
:101EB000E8490860E8490860E8490860E3490860C3
:101EC000E349086070470020E0490860E049086085
:101ED00070470020E0490860E0490860704710B58D
:101EE0000020DF490870002407E061210120FFF78E
:101EF00078FF3220FEF7CCFD641C022CF5D30120C4
:101F0000D74908707A20D749087010BD10B5002055
:101F1000D5490870002407E061210320FFF761FF25
:101F20003220FEF7B5FD641C022CF5D30120CE490A
:101F300008707A20CD49087010BD2DE9F14FAEB080
:101F4000CBA02D9000202C908DF888008DF860009B
:101F50002E98132832D2DFE800F00A323940474E7B
:101F6000555C636A7172737A868D94FEFD0002215E
:101F7000C84803F0F1FC88B100224FF40041C64884
:101F800003F008FD4FF40041C34803F0F2FC04469F
:101F900000222146C1A0FEF753FB0FE00122D1032E
:101FA000BD4803F0F7FC4FF40041BB4803F0E1FCEF
:101FB000044600222146C1A0FEF742FB45E2012271
:101FC000C6480168C6A0FEF73BFB3EE20222C648B7
:101FD0000168C6A0FEF734FB37E20322C648016859
:101FE000C6A0FEF72DFB30E20422C7480168C7A057
:101FF000FEF726FB29E20522C7480178C7A0FEF7B5
:102000001FFB22E20622C7480188C7A0FEF718FB83
:102010001BE20722C7480168C7A0FEF711FB14E2C4
:102020000A22C9480168C9A0FEF70AFB0DE209228D
:10203000CA480168CAA0FEF703FB06E205E204E213
:102040000C22CB480168CBA0FEF7FAFAFDE10D2285
:10205000CC4890ED000ABDEEC00A10EE101ACAA0DE
:10206000FEF7EEFAF1E10E22CA480168CAA0FEF7B7
:10207000E7FAEAE10F22CD480168CDA0FEF7E0FAC9
:10208000E3E10121CF4803F067FC4FF400511790C2
:10209000814803F061FC04460221CA4803F05CFC5D
:1020A00005464FF480417C4803F056FC0646042167
:1020B000C44803F051FC4FF400411690C14803F0AE
:1020C0004BFC07460821BF4803F046FC80464FF40E
:1020D0008041BC4803F040FC81461021B94803F020
:1020E0003BFC4FF400511590B64803F035FC824696
:1020F0000821B54803F030FC4FF480511490B148EA
:1021000003F02AFC10211390AF4803F025FC4FF494
:1021100080611290AB4803F01FFC83468021A948E0
:1021200003F01AFC4FF480711190A64803F014FCE0
:1021300010901798CDE90B65CDE90D401698CDE9C3
:102140000798CDE90970DDE913121598CDE9042A45
:10215000039101E072E111E00690DDE91101CDE9A2
:1021600001B1009099A2282122A8109B07F01AFE25
:10217000122222A97DA0FEF7B6FA66E18021454829
:1021800003F0F7FB04460121424803F0F2FB054649
:102190004021404803F0EDFB06464FF400418A48D9
:1021A00003F0E7FB07464FF48051914803F0E1FB51
:1021B00080464FF48061374803F0DBFB81464FF4E3
:1021C00000618B4803F0D5FB4FF400611790314854
:1021D00003F0CFFB82464FF480617B4803F0C9FBDC
:1021E00083464FF480512B4803F0C3FB4FF400614A
:1021F0001690754803F0BDFB4FF40051159025482B
:1022000003F0B7FB4FF4804114906F4803F0B1FB2B
:102210004FF4804113901F4803F0ABFB4FF48071E3
:102220001290734803F0A5FB4FF400411190194838
:1022300003F09FFBDEE0000000480040004C00403F
:1022400000500040000001404400002024080040ED
:102250006000002048000020240400404C000020C2
:1022600069000020680000206B0000206A00002048
:10227000313131313131313131313131313131314E
:10228000313131313131303131313131313131313F
:10229000000000000004024000080240524F424F7C
:1022A0005420322044414E47204348415920534155
:1022B0004E2058414E483A2020200000524F424FB5
:1022C0005420322044414E47204348415920534135
:1022D0004E20444F3A20202000000000C40100207E
:1022E000494D553A0000000080000020474F432030
:1022F00042414E3A00000000EC00002056492054B4
:1023000052492042414E3A0044020020676F635F09
:102310006C696461723A0000280100206F66667380
:1023200065743A002A01002064697374616E636504
:102330003A000000400200204C75635F42616E5F0E
:102340006C696461723A000094000020476F635F1B
:1023500042616E5F6175746F3A0000007800002082
:1023600047545F4C415A45525F545241493A00002C
:10237000900000204C75635F42616E5F6C617A650E
:10238000723A00008C0000204A6F79537469636BC5
:102390003A0000003802002066696E616C5F726569
:1023A00073756C745F6C617A65723A003C02002050
:1023B00066696E616C5F726573756C745F6C69647D
:1023C00061723A0000100240000C0240256425644E
:1023D00025642564256425642564256425642564B5
:1023E00025642564256425642564256400000000B7
:1023F00000000240CDE90B76CDE90D5410901798FE
:10240000CDE907A0CDE90998DDE915211498CDE9BA
:10241000051BCDE90302DDE911121398CDE9001285
:102420000290AFF25802282122A8109B07F0BAFCB4
:10243000112222A9FEA0FEF756F906E0FE48017A15
:102440001022FEA0FEF7FCF800BF00BF2FB0BDE8D1
:10245000F08F10B50121FB4804F0AEF810BD01B5B6
:10246000F94800680099884203DD0020F6490860B9
:1024700004E0F5480068401CF3490860F248006831
:10248000FFF75BFD08BD10B52DED028BEA48C07863
:1024900001EE100AB8EE411ADFEDEC1A31EE611AC6
:1024A000F0EE410AE448807801EE100AB8EE411AD5
:1024B000DFEDE61A31EE611AB0EE410A07F0CAFC10
:1024C000F0EE408AE248D0ED000A9FEDE21A81EE7C
:1024D000200A20EE280AB0EE408AB5EEC08AF1EE5E
:1024E00010FA05D29FEDDC0A38EE000AB0EE408A01
:1024F000D148C0787E2807D1CF4880787F2803D183
:102500009FEDD60AB0EE408A9FEDD20AB4EEC08AA3
:10251000F1EE10FA06D8B2EE040A28EE000AB0EE88
:10252000408A09E09FEDCC0A38EE400AF2EE040A38
:1025300020EE200AB0EE408AC94880ED008ABDEC4A
:10254000028B10BDF0B5DDE9054520B9C54E3678E2
:10255000C54FFE700BE0002804DDC34FF870012664
:10256000BE7004E04642C04FFE700026BE7021B926
:10257000BC4E3678BC4FFE720BE0002904DDBA4F2A
:10258000F9710126BE7104E04E42B74FFE7100267C
:10259000BE7122B9B34E3678B34FFE720BE0002AFB
:1025A00004DDB14FFA720126BE7204E05642AE4F0E
:1025B000FE720026BE7223B9AA4E3678AA4FFE7369
:1025C0000BE0002B04DDA84FFB730126BE7304E073
:1025D0005E42A54FFE730026BE7324B9A14E367825
:1025E000A14FFE740BE0002C04DD9F4FFC7400260D
:1025F000BE7404E066429C4FFE740126BE7425B989
:10260000984E3678984FFE750BE0002D04DD964FFE
:10261000FD750126BE7504E06E42934FFE750026DF
:10262000BE75F0BD904AD070D071D072D073D074A6
:10263000D075704701208D49086070478A48C0787E
:10264000032815DA8848C079032811DA8648C07A49
:1026500003280DDA8448C07B032809DA8248C07C4D
:10266000032805DA8048C07D032801DA012070477D
:102670000020FCE77E48006847F23051884201D0D4
:10268000012070470020FCE710B5FFF728FC10BDC3
:102690007848B0F9000040427047B5EEC00AF1EE4C
:1026A00010FA09D27448D0ED000A70EE600AFDEE0F
:1026B000E00A10EE900A70476F48D0ED000A70EE05
:1026C000200AFDEEE00A10EE900AF4E710B52DEDB9
:1026D0000A8B044624B99FED690ABDEC0A8B10BD34
:1026E000002C25DA6648006807F03FF941EC190B29
:1026F000204607F03AF941EC1C0B9FED620B53ECBE
:10270000102B07F051F841EC1B0B9FED600B53ECC5
:10271000102B07F043F841EC1A0B53EC192B07F080
:10272000B5F841EC180B07F044F900EE100AD4E7B5
:102730005348006807F019F941EC190B204607F0DF
:1027400014F941EC1C0B9FED4F0B53EC102B07F0D1
:102750002BF841EC1B0B9FED4D0B53EC102B06F0AF
:102760007CFF41EC1A0B53EC192B07F08FF841EC6E
:10277000180B07F01EF900EE100AAEE7F0EE400A63
:10278000F5EEC00AF1EE10FA02DBB0EE600A704717
:10279000B1EE600AFBE70146002901DB08467047FD
:1027A0004842FCE701463B48D0ED000AF1EE600AE2
:1027B0003948D0ED001A80EEA11A00EE901AF8EE1A
:1027C000E01A3448D0ED000A41EE210AB0EE600A6A
:1027D000FDEEC00A10EE900A7047F0EE401A9FED31
:1027E0002F2AB0EE420AF5EEC01AF1EE10FA03D22B
:1027F000B1EE612AF0EE421AF5EEC00AF1EE10FADF
:1028000003D2B1EE602AF0EE420AB5EEC01AF1EE44
:1028100010FA03D2B1EE412AB0EE421AF4EEC01A19
:10282000F1EE10FA01DDB0EE610AF4EEC00A37E015
:102830004F55543A000000004805002042415445DD
:1028400052593A00A06002405C0000200000FF42A4
:1028500084010020000034430000B44300409C4643
:102860008C0000207801002004000020740100206A
:10287000A4010020640000203401002000000000BA
:10288000900100209A9999999999A93F9A999999B3
:102890009999B93F6C010020700100206F12833AB2
:1028A000F1EE10FA01DDB0EE600AB4EEC01AF1EEFE
:1028B00010FA01DDB0EE410A7047FD48006870472C
:1028C000FC480068704710B52DED088BB0EE408ACB
:1028D000F948006847F23051884214D11FED190AB7
:1028E000F64880ED000AF64880ED000AF54880EDD4
:1028F000000AF54880ED000AF44880ED000AF4482B
:1029000080ED000AE8E0F3480068F3490968401ADE
:10291000E9490968081A00EE100AB8EEC00AEF4843
:10292000D0ED000AEE4890ED001A00EEC10AD0ED9D
:10293000000AC0EE208AEB4890ED000A20EE280A3B
:1029400010EE101A084607F021F841EC1B0BB0EE10
:102950004B0AF0EE6B0A08F07BFBB0EE40AAF0EEFB
:1029600060AA51EC1A0B81F0004141EC190B07F001
:1029700020F8D7490860DC4890ED000A38EE800A5C
:10298000D848D0ED000A20EE200A10EE101A0846B2
:1029900006F0FCFF41EC1A0BB0EE4A0AF0EE6A0AB0
:1029A00008F056FBB0EE409AF0EE609A51EC190B2D
:1029B00006F0FFFFC5490860CC4890ED000A38EEEC
:1029C000800AC848D0ED000A20EE200A10EE101A46
:1029D000084606F0DBFF41EC1A0BB0EE4A0AF0EEB7
:1029E0006A0A08F035FBB0EE409AF0EE609A51ECBE
:1029F000190B06F0DEFFB4490860BD4890ED000AEF
:102A000038EE800AB748D0ED000A20EE200A10EE1A
:102A1000101A084606F0BAFF41EC1B0BB0EE4B0A49
:102A2000F0EE6B0A08F014FBB0EE40AAF0EE60AADC
:102A300051EC1A0B81F0004141EC190B06F0B9FF83
:102A4000A0490860A84890ED000A38EE800AA54821
:102A5000D0ED000A20EE200A10EE101A084606F00B
:102A600095FF41EC1B0BB0EE4B0AF0EE6B0A08F041
:102A7000EFFAB0EE40AAF0EE60AA51EC1A0B81F02A
:102A8000004141EC190B06F094FF8D49086097480E
:102A900090ED000A38EE800A9248D0ED000A20EE50
:102AA000200A10EE101A084606F070FF41EC1B0BCE
:102AB000B0EE4B0AF0EE6B0A08F0CAFAB0EE40AA8C
:102AC000F0EE60AA51EC1A0B81F0004141EC190BB9
:102AD00006F06FFF79490860B5EEC08AF1EE10FA92
:102AE0007CD08448006807282FD2DFE800F0042F4C
:102AF00053789CC0E000764890ED000A30EE480A1A
:102B000080ED000A714890ED000A30EE480A80ED31
:102B1000000A6D4890ED000A30EE480A80ED000A88
:102B2000684890ED000A30EE480A80ED000A6448DB
:102B300090ED000A30EE480A80ED000A5F4890ED03
:102B4000000A30EE480A80ED000AFEE05F4890ED92
:102B5000000A30EE480A80ED000A5B4890ED000A5A
:102B600030EE480A80ED000A564890ED000A30EE3B
:102B7000480A80ED000A524890ED000A30EE480AFB
:102B800080ED000A4D4890ED000A30EE480A80EDD5
:102B9000000ADAE04E4890ED000A30EE480A80ED77
:102BA000000A494890ED000A30EE480A80ED000A1C
:102BB000444890ED000A30EE480A80ED000A404893
:102BC00090ED000A30EE480A80ED000A3B4890ED97
:102BD000000A30EE480A80ED000AB6E0B6E03C4854
:102BE00090ED000A30EE480A80ED000A374890ED7B
:102BF000000A30EE480A80ED000A324890ED000AE3
:102C000030EE480A80ED000A2D4890ED000A30EEC3
:102C1000480A80ED000A294890ED000A30EE480A83
:102C200080ED000A91E02A4890ED000A30EE480A53
:102C300080ED000A254890ED000A30EE480A80ED4C
:102C4000000A214890ED000A30EE480A80ED000AA3
:102C50001B4890ED000A30EE480A80ED000A174844
:102C600090ED000A30EE480A80ED000A6DE0184849
:102C700090ED000A30EE480A80ED000A134890ED0E
:102C8000000A30EE480A80ED000A0F4890ED000A75
:102C900030EE480A80ED000A0A4890ED000A30EE56
:102CA000480A80ED000A054890ED000A24E028E07B
:102CB00090010020BC010020A4010020E4010020BC
:102CC000E0010020DC010020D8010020D401002018
:102CD000D0010020C4010020B0010020B401002078
:102CE0004C010020800100205C01002058010020E0
:102CF000600100208C01002030EE480A80ED000ABF
:102D000023E0FE4890ED000A30EE480A80ED000A0C
:102D1000FB4890ED000A30EE480A80ED000AF948C1
:102D200090ED000A30EE480A80ED000AF64890ED7A
:102D3000000A30EE480A80ED000AF44890ED000ADF
:102D400030EE480A80ED000A00BF00BFEF4890ED6A
:102D5000001AEC48D0ED000AE84890ED000AFFF7B1
:102D60003CFDEB48D0ED000AF8EEE00A80EE801A58
:102D7000BDEEC10AE74880ED000AE7480068E54972
:102D80000968884203DDE3480068E34908600120E0
:102D9000E2490860BDEC088B10BD10B50446002068
:102DA000DF490860DF480460FCB90020DA490860A8
:102DB0009FEDDD0ADD4880ED000A47F23050DC4926
:102DC0000860DC4908609FEDD80ADB4880ED000A06
:102DD0000020DA490860DA490860DA490860DA490F
:102DE00008609FEDD10AFFF76EFD10BD10B5D24807
:102DF00090ED000AB5EEC00AF1EE10FA05D1CF4809
:102E0000006810B9CE48006890B19FEDC70ACA4863
:102E100080ED000A0020C9490860C9490860CB4814
:102E20000068CB490860C44890ED000AFFF74BFDED
:102E300010BDC848C0ED000AC74880ED000A7047C1
:102E400070B52DED028B05460C46B0EE408AB848B1
:102E50000068A8420BD1B2480068A04207D1B3482D
:102E600090ED000AB4EE480AF1EE10FA18D0AC4822
:102E70000460A948006810B90520A7490860B34854
:102E80000068B3490860A94880ED008AA848056039
:102E90000020B2490860A84890ED000AFFF713FD32
:102EA000BDEC028B70BD70B52DED028B0446B0EE0B
:102EB000408A0D46A2480068A0420BD19E4890ED82
:102EC000000AB4EE480AF1EE10FA03D19B480068FC
:102ED000A84237D09648006847F23051884222D144
:102EE00019208F49086003208B49086047F2305051
:102EF000844218DA012093490860B5EEC08AF1EEE9
:102F000010FA03DD91480068A04208DCB5EEC08AE3
:102F1000F1EE10FA07D28D480068A04203DAB1EE54
:102F2000480AB0EE408A86480460844805608248BA
:102F300080ED008A0020894908607F4890ED000AF2
:102F4000FFF7C1FCBDEC028B70BD10B52DED028BFF
:102F5000B0EE408A04462146B0EE480A47F23050AF
:102F6000FFF7A1FFBDEC028B10BD70B504460D4606
:102F70009FED6D0A29462046FFF762FF70BD70B5D0
:102F80002DED088BF0EE408A0446B0EE608AB0EE7C
:102F9000419A684890ED000AB8EEC00AB4EE680A9B
:102FA000F1EE10FA0DD15E480068A04209D16448E4
:102FB00090ED000AB8EEC00AB4EE480AF1EE10FA3D
:102FC0005ED0BDEEE80A5B4880ED000A5F4991EDF6
:102FD000000AB8EEC00A38EEC00ABDEEC00A10EE14
:102FE000100A9FED510A2146FFF72AFF574890ED3E
:102FF000000AB8EEC00A38EE400ABDEEC00A10EE74
:10300000105A002D01DB284600E06842642814DDD8
:103010004E4890ED000AB8EEC00AB4EEC08AF1EE58
:1030200010FA02DDB0EE490A01E0B1EE490A10EEF5
:10303000101A084606F0AAFC13E0444890ED000A76
:10304000B8EEC00A38EE400A10EE101A084606F034
:103050009DFC41EC1B0B9FED420B53EC102B06F03B
:10306000A3FB41EC1A0B06F0A4FC09EE900A002128
:10307000B0EE690AFDEEC80A10EE900AFFF713FFE2
:10308000BDEC088B70BD10B52E480068012876DDB8
:103090002B4909682D4A1268881AFFF77CFB05281E
:1030A0000CDA284801680068401C264A1060B1F517
:1030B0007A7F64DD0020FFF770FE10BD21480068B4
:1030C000B0F5FA7F09DD052015490860124908604E
:1030D00040F2F5101B49086004E005201049086023
:1030E0000D490860194800681549096888423CDDA7
:1030F000BFEE000A104880ED000A3BE0D00100203E
:10310000D4010020D8010020DC010020E0010020D3
:103110002C0100209801002090010020880100204F
:10312000940100209C01002000000000B801002054
:10313000A4010020A8010020B40100208C0100207F
:10314000AC010020BC01002074010020C40100205B
:10315000B00100206C01002070010020A0010020BF
:103160007B14AE47E17A743F09E0B7EE000AFE48EF
:1031700080ED000AFC4890ED000AFFF7A4FB00BFB9
:103180009BE710B52DED028BF84890ED000AB5EEE7
:10319000C00AF1EE10FA08D1F548006828B1F548E8
:1031A000006847F23051884202DBBDEC028B10BD53
:1031B000ED4890ED000AB5EEC00AF1EE10FA7CD0B1
:1031C000ED48006847F23051884277D1E64890EDEB
:1031D000000AB5EEC00AF1EE10FA08DDE548006815
:1031E000E6490968401AE6490968884210DBDE486A
:1031F00090ED000AB5EEC00AF1EE10FA7ED2DD487D
:103200000068DE4909680844DD490968884275DDBF
:10321000DC48006803285CDAD6490968D84A126895
:10322000881AFFF7B8FA0A2816DAD2480068D64991
:1032300008600020CE490860D44908601FED460AA6
:10324000C94880ED000A0220CE490860C64890EDCA
:10325000000AFFF738FBA8E7C6480068C8490968B4
:10326000884237DDC24890ED000AB8EEC00ABE4879
:10327000D0ED000A60EE200AC04890ED000AB8EEDA
:10328000C00AC0EE801AB0EE611AB0EE410AFFF734
:1032900075FAB8490968BA4A1268881AFFF77BFAC2
:1032A00000EE900AB8EEE01AB948D0ED000A40EE00
:1032B000010AAF4890ED000A01E0AAE047E0B8EE4D
:1032C000C00A80EE801AB0EE418AB0EE480AFFF7DD
:1032D000FAFA9DE0A64890ED000AB8EEC00AA248AE
:1032E000D0ED000A60EE200AA44890ED000AB8EE86
:1032F000C00AC0EE801AB0EE611A00E021E0B0EE24
:10330000410AFFF73BFA9B4909689D4A1268881AEF
:10331000FFF741FA00EE900AB8EEE01A9C48D0EDB3
:10332000000A50EE410A924890ED000AB8EEC00A39
:1033300080EE801AB0EE418AB0EE480AFFF7C3FA79
:1033400066E0894890ED000AFFF7BDFA60E0864824
:1033500090ED000AB5EEC00AF1EE10FA1FDD8548C7
:1033600090ED000AB8EEC00A8148D0ED000AF8EEF0
:10337000E00A7D4890ED001A00EEC10A8548D0EDC4
:10338000000AF8EEE00A70EE600A7D4890ED000A4F
:10339000B8EEC00AF4EEC00AF1EE10FA27D3724874
:1033A00090ED000AB5EEC00AF1EE10FA2BD271488A
:1033B00090ED000AB8EEC00A6D48D0ED000AF8EEB4
:1033C000E00A694890ED001A00EEC10A7148D0ED9C
:1033D000000AF8EEE00A70EE200A694890ED000A53
:1033E000B8EEC00AF4EEC00AF1EE10FA0BDD614946
:1033F0000968634A1268881AFFF768F9B0EE408AD4
:10340000FFF761FA04E0584890ED000AFFF75BFA15
:10341000CBE6614909685A4A1268881AFFF756F9DB
:10342000B0EE408AFFF74FFA00BFBEE600B5554840
:103430000068022815DA1FEDC40A4C4880ED000A26
:103440001FEDC70A484880ED000A00205349086074
:1034500047F230504849086051490860002045490A
:10346000086050480068401C4E4908604E49096891
:10347000884204DA4D480068FFF7D4F80EE04A4865
:103480000068484908604A48006820B14748006819
:10349000FFF7C8F802E00020FFF7C4F800BD414A7A
:1034A0001268521C3F4B1A60824207DD304A126894
:1034B0000A442F4B1A6000223A4B1A6070472DE9DC
:1034C000FC47FFF7E5F82E490860FFF7DCFD2F48C1
:1034D0000068002821DD264800682C4909688842D8
:1034E0002AD0234800682949096888420EDA204812
:1034F00000683049096888421EDA1D480068FFF7F5
:1035000051F904460121FFF7CAFF15E04FF0FF31E2
:1035100029480068FFF7C3FF0EE01548006800283F
:1035200006DD4FF0FF3125480068FFF7B8FF03E0E4
:10353000FFF77CFFBDE8FC87214800681049096857
:10354000884205D0FFF71DFE0D4800681C49086041
:103550001C480068D0B30648D0ED000AF8EEE00A37
:10356000194890ED001A32E0B4010020B8010020A3
:1035700090010020AC010020A4010020680100207F
:10358000C4010020BC010020C001002094010020E3
:103590004801002064010020B00100208C010020BF
:1035A000A8010020A00100207C010020780100205B
:1035B0007401002098010020CC0100209C01002013
:1035C000C801002088010020E401002058E060EEDE
:1035D000810AB0EE600AFFF760F80446FC48D0EDBF
:1035E000000AF8EEE00AFB4890ED001A60EE810A4E
:1035F000B0EE600AFFF751F80546F548D0ED000A35
:10360000F8EEE00AF44890ED001A60EE810AB0EEA0
:10361000600AFFF742F80646ED48D0ED000AF8EEE2
:10362000E00AEE4890ED001A60EE810AB0EE600A02
:10363000FFF733F80746E648D0ED000AF8EEE00A57
:10364000E74890ED001A60EE810AB0EE600AFFF7DD
:1036500024F88046DE48D0ED000AF8EEE00AE148A2
:1036600090ED001A60EE810AB0EE600AFFF715F8DF
:10367000814633463A464146CDE90054FEF762FFA3
:1036800000BF57E770B52DED028B0F2505269FED86
:10369000D60AB0EE408AD54800791E2805DBD3480B
:1036A0000079B42801DC012000E000200446CF4866
:1036B000007800F00800C0B9CC48007800F0100095
:1036C00098B9CA48007800F0200070B9C74800785F
:1036D00000F0400048B944B1C448C07928B900207E
:1036E000FFF75BFBBDEC028B70BDC048407800F07B
:1036F000010028B1FA259FEDBE0AB0EE408A04E031
:103700003C25B5EE000AB0EE408AB848007800F0DB
:10371000080098B1B548007800F0100070B9B348BF
:10372000007800F0200048B9B048007800F0400070
:1037300020B92946AF48FFF718FCB1E0AB48007844
:1037400000F00800A0B9A948007800F0100078B196
:10375000A648007800F0200050B9A448007800F096
:10376000400028B9294640F2DC50FFF7FEFB97E005
:103770009E48007800F00800A0B99C48007800F04E
:10378000100078B99948007800F0200050B19748AF
:10379000007800F0400028B929464FF41670FFF772
:1037A000E4FB7DE09148007800F0080098B98F486C
:1037B000007800F0100070B98C48007800F020000C
:1037C00048B98A48007800F0400020B129468A486C
:1037D000FFF7CBFB64E08548007800F00800A0B15B
:1037E0008248007800F0100078B98048007800F036
:1037F000200050B17D48007800F0400028B92946EB
:103800004FF49670FFF7B1FB4AE07848007800F07B
:10381000080098B17548007800F0100070B973483E
:10382000007800F0200048B97048007800F04000AF
:1038300020B129467148FFF798FB31E06B480078CA
:1038400000F00800A0B96948007800F0100078B1D5
:103850006648007800F0200050B16448007800F01D
:10386000400028B929464FF46170FFF77EFB17E04E
:103870005E48007800F0080090B95C48007800F0DD
:10388000100068B15948007800F0200040B957484E
:10389000007800F0400018B129465948FFF765FB51
:1038A0005248007800F00800C0B95048007800F095
:1038B000100098B94D48007800F0200070B94B48CE
:1038C000007800F0400048B944B1FEF7D3FE28B1BB
:1038D0004648C07910B90020FFF75FFA2CB1434881
:1038E000C07910B9FFF782FA27E040480079142820
:1038F0000EDAFEF7BFFE28B10020B1EE480AFFF74E
:1039000024FB1AE00020B1EE480AFFF71EFB14E08A
:1039100036480079B4280EDDFEF7ACFE28B1002051
:10392000B0EE480AFFF711FB07E00020B0EE480AAE
:10393000FFF70BFB01E0FFF759FA00BFD2E6314871
:1039400001680068401C2F4A1060322907D22E48B7
:1039500040892E49096808442C4908600BE02B482F
:1039600000683221B0FBF1F02949086000202549A8
:10397000086026490860274801680068401C254AFD
:103980001060322907D22048008923490968084479
:10399000214908600BE0204800683221B0FBF1F0BB
:1039A0001E49086000201B4908601B4908601C482C
:1039B00001680068401C1A4A1060322934D212484B
:1039C00080891849096808441649086038E00000F1
:1039D00090010020E0010020DC010020D80100203F
:1039E000D4010020D0010020000000004805002084
:1039F0003333333FD4FEFFFF50FBFFFF7CFCFFFF60
:103A000024FAFFFF64020020FC040020680200206A
:103A1000700000206C020020700200207400002062
:103A20007402002078020020FE4800683221B0FBBA
:103A3000F1F0FD4908600020FC490860F949086080
:103A4000FB4801680068401CF94A1060322907D21F
:103A5000F848C089F84909680844F74908600BE04C
:103A6000F54800683221B0FBF1F0F449086000200D
:103A7000EF490860F0490860F14801680068401C9F
:103A8000EF4A1060322907D2EA480088ED490968F8
:103A90000844EC4908600BE0EA4800683221B0FBBA
:103AA000F1F0E94908600020E5490860E54908604F
:103AB000E64801680068401CE44A1060322907D2D9
:103AC000DC484088E24909680844E14908600BE0A5
:103AD000DF4800683221B0FBF1F0DE4908600020C9
:103AE000DA490860DA490860DB4801680068401C70
:103AF000D94A1060322907D2CE488088D749096850
:103B00000844D64908600BE0D44800683221B0FB75
:103B1000F1F0D34908600020CF490860CF49086020
:103B2000704710B5CF48407800F00200C0B9CD48CA
:103B3000407800F0040098B101228021CA4801F0C9
:103B400029FF4FF48041C94801F006FF20B9012246
:103B50004021C54801F01EFF0120C54908700FE053
:103B6000C348007860B100224021BF4801F012FF35
:103B700000228021BC4801F00DFF0020BC490870E4
:103B800010BD10B54FF4E670BA49086001228021DB
:103B9000B54801F0FFFE002410E006E0FCF788FEC7
:103BA00000B109E0012005F0D7F84FF48041AF489B
:103BB00001F0D2FE0128F1D000BF641C642CECDBC4
:103BC00040F2DC5005F0C8F801229102A64801F04D
:103BD000E1FE4FF4FA7005F0BFF801224021A2483F
:103BE00001F0D8FE00240FE006E0FCF761FE00B112
:103BF00008E0012005F0B0F801219C4801F0ACFE7E
:103C00000128F2D000BF641C642CEDDB00240FE01F
:103C100006E0FCF74DFE00B108E0012005F09CF83D
:103C20000121924801F098FE0028F2D000BF641CE8
:103C3000642CEDDB4FF47A7005F08EF800224FF41F
:103C40008061894801F0A6FE40F2DC5005F084F85E
:103C500000240FE006E0FCF72BFE00B108E0012095
:103C600005F07AF80121814801F076FE0128F2D0B2
:103C700000BF641C642CEDDB4FF4FA7005F06CF8A7
:103C800000224021784801F085FE4FF4FA6005F0EB
:103C900063F800228021744801F07CFE00240FE0CC
:103CA00006E0FCF705FE00B108E0012005F054F83D
:103CB00002216E4801F050FE0128F2D000BF641CC2
:103CC000642CEDDB10BD10B54FF4E6706949086057
:103CD00006E0FCF7EDFD00B107E0012005F03CF83F
:103CE00059480068B0F5EB7FF3DC00BF01224021AA
:103CF0005D4801F04FFE41F2883005F02DF80A20B2
:103D00005D4981F82B0081F8270081F8230001200C
:103D100081F8220081F8260081F82A0041F28830DB
:103D200005F01AF840F23A2052490860002240217A
:103D30004D4801F02FFE002410E006E0FCF7B8FD2E
:103D400000B109E0012005F007F84FF48061474811
:103D500001F002FE0128F1D000BF641C642CECDBF2
:103D600040F6B83004F0F8FF0020434981F8230002
:103D700081F8270081F82B0010BD10B53948407834
:103D800000F0080050B13748407800F0020028B930
:103D900001228021344801F0FDFD11E03148007816
:103DA00000F0020060B1002280212F4801F0F2FDF6
:103DB0000020314981F82B0081F8270081F8230089
:103DC00010BD10B52748407800F0400040B34FF4D4
:103DD0008061264801F0C0FD10BB1E20264981F8F5
:103DE0002B0081F8270081F82300002081F82200B1
:103DF00081F8260081F82A0042F2107004F0ACFF2E
:103E00000122D102184801F0C5FD42F2107004F001
:103E1000A3FF0020184981F82B0081F827002DE02E
:103E200034E00000780200207C00002074020020B2
:103E30007C020020FC04002080020020780000208A
:103E40008402002088020020800000208C020020D4
:103E5000900200208400002094020020980200209C
:103E600088000020480500200004024000100240A5
:103E70009C020020EC0000200400002081F82300B8
:103E800000224FF40061F84801F084FD10BD10B528
:103E9000F648407800F0800058B31420F44981F8C7
:103EA0002B0081F8270081F82300012081F82200EF
:103EB00081F8260081F82A0000240BE002E00120AE
:103EC00004F04AFF4FF48061EA4801F045FD012803
:103ED000F5D0641C642CF1DB40F6B83004F03CFFF4
:103EE0000020E34981F8230081F8270081F82B00A6
:103EF00000BF10BD10B50A20FEF74FFF7D20DC4942
:103F000081F82B0081F8270081F82300002081F838
:103F1000220081F8260081F82A0043F6982004F058
:103F20001BFF0122D102D04801F034FD41F6583088
:103F300004F012FF0020CE4981F82B0081F8270001
:103F400081F8230000224FF40061C74801F022FDF0
:103F500010BD70B52DED068B04460D46C6480560B4
:103F6000C6480460492C0AD19FEDC50AC54880EDBA
:103F7000000AC5480068C01DC44908609DE24A2C7B
:103F80000AD19FEDC30ABF4880ED000ABE48006811
:103F9000C01DBE49086090E24B2C0AD19FEDBD0ABE
:103FA000B84880ED000AB8480068C01DB7490860ED
:103FB00083E24C2C09D19FEDB80AB24880ED000A8B
:103FC000B1480068B149086077E24D2C09D19FEDF6
:103FD000B10AAC4880ED000AAB480068AB49086004
:103FE0006BE24E2C09D19FEDAA0AA64880ED000A8B
:103FF000A5480068A54908605FE24F2C09D19FEDF4
:10400000A00AA04880ED000A9F4800689F49086008
:1040100053E2502C09D19FEDA10A9A4880ED000A85
:10402000994800689949086047E2512C0AD19FEDF0
:104030009C0A944880ED000A93480068801D9349CB
:1040400008603AE2522C0AD19FED960A8D4880ED25
:10405000000A8D480068401D8C4908602DE2532CF1
:104060000AD19FED910A874880ED000A86480068D2
:10407000401D8649086020E2542C0AD19FED8B0A2E
:10408000804880ED000A80480068401D7F49086034
:1040900013E2552C0AD19FED860A7A4880ED000A7A
:1040A00079480068401F7949086006E2562C0AD119
:1040B0009FED800A734880ED000A73480068401F36
:1040C00072490860F9E1572C0AD19FED7B0A6D48CF
:1040D00080ED000A6C480068401F6C490860ECE104
:1040E000582C0AD19FED750A664880ED000A664893
:1040F0000068401F65490860DFE1592C0AD19FED37
:10410000700A604880ED000A5F480068001F5F4940
:104110000860D2E15A2C0AD19FED6A0A594880ED15
:10412000000A59480068001F58490860C5E15B2C27
:104130000AD19FED650A534880ED000A5248006895
:10414000001F52490860B8E15C2C0AD19FED5F0A5C
:104150004C4880ED000A4C480068001F4B4908603D
:10416000ABE15D2C0AD19FED5A0A464880ED000A6A
:1041700045480068001F454908609EE15E2C0AD151
:104180009FED540A3F4880ED000A3F480068C01E7A
:104190003E49086091E15F2C0AD19FED4F0A3948F2
:1041A00080ED000A38480068C01E3849086084E184
:1041B000602C0AD19FED490A324880ED000A32484E
:1041C0000068C01E3149086077E1612C0AD19FED7B
:1041D000440A2C4880ED000A2B4800680A382B4915
:1041E00008606AE1622C0AD19FED3E0A254880ED05
:1041F000000A254800680A38244908605DE1632CFC
:104200000AD19FED390A1F4880ED000A1E48006858
:104210000A381E49086050E1642C0AD19FED310A2A
:10422000184880ED000A18480068801E1749086089
:1042300043E1652C0AD19FED2D0A124880ED000A5A
:1042400011480068801E1149086036E1662C51D182
:104250009FED270A0B4880ED000A0B480068801E7E
:104260000A49086029E100000004024048050020D6
:1042700004000020001002403C0200203802002010
:1042800066666A413002002094000020EC000020A5
:10429000CDCC6841333367419A99654100006C4148
:1042A0009A996D4133336F41CDCC7041666672414E
:1042B000000074419A99754133337741CDCC7841F0
:1042C00066667A4100007C419A997D4133337F4193
:1042D000666680413333814100008241CDCC82410A
:1042E0003333854100008641CDCC864166668841E6
:1042F0009A998741672C0AD11FED040AE64880EDA0
:10430000000AE6480068401EE5490860D5E0682CD0
:104310000AD19FEDE40AE04880ED000ADF4800681A
:10432000401EDF490860C8E0692C0AD19FEDDE0A13
:10433000D94880ED000AD9480068401ED849086075
:10434000BBE06A2C0AD19FEDD90AD34880ED000A60
:10435000D2480068401ED2490860AEE06B2C0AD1FA
:104360009FEDD30ACC4880ED000ACC480068401E7F
:10437000CB490860A1E06C2C0AD19FEDCE0AC6485B
:1043800080ED000AC5480068401EC549086094E0F9
:104390006D2C09D19FEDC80ABF4880ED000ABF48C7
:1043A0000068BF49086088E06E2C09D19FEDC30A00
:1043B000B94880ED000AB9480068B94908607CE056
:1043C0006F2C09D19FEDBE0AB34880ED000AB348B7
:1043D0000068B349086070E0702C09D19FEDB90AFC
:1043E000AD4880ED000AAD480068AD49086064E062
:1043F000712C09D19FEDB20AA74880ED000AA748A9
:104400000068A749086058E0722C09D19FEDAD0AF9
:10441000A14880ED000AA1480068A14908604CE06D
:10442000732C0AD19FEDA80A9B4880ED000A9B4897
:104430000068401C9A4908603FE0742C0AD19FED47
:10444000A30A954880ED000A94480068401C9449EE
:10445000086032E0752C0AD19FED9D0A8E4880EDF0
:10446000000A8E480068401C8D49086025E0762CC3
:104470000AD19FED980A884880ED000A87480068B5
:10448000401C8749086018E0772C0AD19FED920AFA
:10449000814880ED000A81480068801C80490860DE
:1044A0000BE0782C09D19FED8D0A7B4880ED000A46
:1044B0007A480068801C7A490860962D21DB992D86
:1044C0001FDCA5F1960005F050FA41EC1A0B9FEDA8
:1044D000840B53EC102B05F067F941EC190B9FEDA1
:1044E000820B53EC102B05F05CF941EC180B05F036
:1044F00060FA7F4908607F480068401F684908608B
:1045000016E39A2D21DB9C2D1FDCA5F1960005F00A
:104510002CFA41EC1A0B9FED780B53EC102B05F0A5
:1045200043F941EC190B9FED700B53EC102B05F088
:1045300038F941EC180B05F03CFA6D4908606D48FC
:104540000068401F56490860F2E29D2D21DBA02D36
:104550001FDCA5F1960005F008FA41EC1A0B9FED5F
:10456000680B53EC102B05F01FF941EC190B9FED74
:10457000660B53EC102B05F014F941EC180B05F009
:1045800018FA5B4908605B480068401F44490860AE
:10459000CEE2A12D21DBA52D1FDCA5F1960005F0B3
:1045A000E4F941EC1A0B9FED5A0B53EC102B05F07C
:1045B000FBF841EC190B9FED540B53EC102B05F05D
:1045C000F0F841EC180B05F0F4F949490860494846
:1045D0000068401F32490860AAE2AA2D0CDBAE2D0C
:1045E0000ADC9FED4D0A424880ED000A4148006810
:1045F000401F2B4908609BE2B12D0CDBB22D0ADC79
:104600009FED460A3A4880ED000A3A480068401F8C
:10461000234908608CE2B42D07DBB62D05DC9FED45
:10462000400A334880ED000A82E2B72D07DBB92D3E
:1046300005DC9FED3C0A2E4880ED000A78E2BA2D99
:1046400007DBBC2D05DC9FED380A294880ED000A08
:104650006EE2BD2D07DBC02D05DC9FED340A24483A
:1046600080ED000A64E2C12D07DBC32D05DC9FED60
:10467000300A1F4880ED000A5AE2C42D07DBC72D1F
:1046800005DC9FED2C0A1A4880ED000A50E2A5F1E6
:104690007B00562850D250E03002002094000020C9
:1046A000EC0000203333894100008A41CDCC8A419F
:1046B0009A998B4166668C4133338D4100008E415F
:1046C000666690413333914100009241CDCC9241D6
:1046D0009A9993416666944133339541000096411F
:1046E000000000000000D03FCDCCCCCCCCCC23408F
:1046F0003402002044020020713D0AD7A370BD3F60
:1047000009F9A067B3EAB33F666666666666244049
:10471000333333333333B33F66661641AE47134109
:10472000CDCC1441F62814411F85134152B81241D3
:10473000666612419A990941F1E0DFE800F02B31F9
:10474000373D43494F555B61676D737E898F959BFC
:10475000A6B1BCC7D2F5F3F2F1F0F0F0F0F0F0F052
:10476000F0F0F0F0F0F0F0F0F0EFEEEDECEBEAE965
:10477000E8E7E6E5F0F0E4F0F0F0F0F0F0F0F0F06B
:10478000F0F0F0F0F0F0F0F0F0F0F0F0F0E3E2E153
:10479000E0DFDEDD9FEDFE0AFE4880ED000AC6E1A7
:1047A0009FEDFD0AFB4880ED000AC0E19FEDFB0A8A
:1047B000F84880ED000ABAE19FEDF90AF54880ED6E
:1047C000000AB4E19FEDF60AF24880ED000AAEE17E
:1047D0009FEDF40AEF4880ED000AA8E19FEDF20A90
:1047E000EC4880ED000AA2E19FEDF00AE94880ED77
:1047F000000A9CE1B2EE040AE64880ED000A96E168
:10480000B2EE040AE34880ED000A90E19FEDE50A6C
:10481000E04880ED000A8AE19FEDE20ADD4880ED84
:10482000000A84E19FEDDF0ADA4880ED000AE048E3
:104830000068401FDF49086079E19FEDDF0AD54835
:1048400080ED000ADA480068401FDA4908606EE12E
:104850009FEDDA0ACF4880ED000A68E19FEDD80AA3
:10486000CC4880ED000A62E19FEDD50AC94880ED91
:10487000000A5CE1B2EE040AC64880ED000ACC48AA
:104880000068C01FCB49086051E1B2EE040AC1487C
:1048900080ED000AC6480068C01FC649086046E1AE
:1048A000B2EE040ABB4880ED000AC1480068C01F90
:1048B000C04908603BE1B2EE040AB64880ED000A48
:1048C000BB480068C01FBB49086030E1B2EE040A73
:1048D000B04880ED000AB6480068C01FB5490860BE
:1048E00025E19FEDB80AAB4880ED000AB0480068AA
:1048F000C01FB04908601AE108E1FCE0F0E0E4E024
:10490000D8E0CCE0C0E0B4E0A8E09CE090E084E037
:1049100078E06CE060E054E048E03CE030E000E14A
:1049200023E017E00BE0FFE71FED850A994880EDD3
:10493000000A9F480068C01F9E490860F7E09FED8D
:10494000A20A944880ED000A99480068C01F99495E
:104950000860ECE09FED9D0A8E4880ED000A9448C7
:104960000068C01F93490860E1E01FED930A894881
:1049700080ED000A8E480068C01F8E490860D6E0AE
:104980009FED930A834880ED000A89480068401F24
:1049900088490860CBE09FED8E0A7E4880ED000AD2
:1049A00083480068401F83490860C0E09FED890A82
:1049B000784880ED000A7E480068401F7D49086005
:1049C000B5E01FEDAA0A734880ED000A7848006838
:1049D000401F78490860AAE01FEDB10A6D4880EDDC
:1049E000000A73480068401F724908609FE09FED0D
:1049F0007A0A684880ED000A6D480068401F6D49DA
:104A0000086094E09FED750A624880ED000A6848EE
:104A10000068401F6749086089E09FED710A5D48A2
:104A200080ED000A62480068401F624908607EE02D
:104A30009FED6C0A574880ED000A5D480068401FF2
:104A40005C49086073E09FED680A524880ED000AF7
:104A500057480068401F5749086068E09FED630AA7
:104A60004C4880ED000A52480068801F5149086098
:104A70005DE09FED5F0A474880ED000A4C48006802
:104A8000401F4C49086052E09FED5A0A414880EDB2
:104A9000000A47480068401F4649086047E09FED0C
:104AA000560A3C4880ED000A41480068401F4149D1
:104AB00008603CE09FED510A364880ED000A3C4812
:104AC0000068401F3B49086031E09FED4D0A3148C6
:104AD00080ED000A36480068401F3649086026E02D
:104AE0009FED480A2B4880ED000A31480068401FBE
:104AF000304908601BE09FED440A264880ED000A1B
:104B00002B480068401F2B49086010E09FED3F0ACA
:104B1000204880ED000A26480068401F25490860AB
:104B200005E09FED3B0A1B4880ED000A00BF00BF77
:104B300000EE104AB8EEC00A3648D0ED000A20EE6A
:104B4000200AF2EE040A80EE201ABDEEC10A3248B5
:104B500080ED000A00EE105AB8EEC00A0D48D0ED04
:104B6000000A20EE200AF2EE040A80EE201ABDEEC2
:104B7000C10A2A4880ED000A4FF48061284800F0FD
:104B8000EBFE18B92748007800B94DE05BE0000063
:104B9000F628204134020020EC5120416666204175
:104BA000E17A20417B142241E17A2441C3F524417A
:104BB00044020020EC00002014AE2341A4702541E3
:104BC0003333274133331F4185EB1541A470154121
:104BD000CDCC1041295C13410AD715411F851541E1
:104BE000AE471541C3F5144100001441355E134131
:104BF00014AE1341AE471141C3F51041D7A3104184
:104C0000EC51104166660E4133330B416666064136
:104C10000000000030020020380200203C0200208A
:104C20000010024063020020FE48807920B1FE4857
:104C30000068FE49086006E0FA48C07918B1FC48EF
:104C40000068FA490860BDEC068B70BD10B5F548E8
:104C50008079002846D04FF48061F64800F07CFE51
:104C600000283FD1EF48007800F08000002839D0BC
:104C70000120F14908700A20FEF78FF8EF4800780C
:104C8000EF4981F82B0081F8270081F823000020EC
:104C900081F8220081F8260081F82A0002E06420D1
:104CA00004F05AF8DF48007800F080000028F6D1C0
:104CB0000122D102E34800F06DFE43F6982004F093
:104CC0004BF80020DE4981F82B0081F8270081F89D
:104CD000230000224FF40061DA4800F05BFE002060
:104CE000D54908704FF48061D24800F035FE0028A5
:104CF0003ED1CC48007800F08000C8B30120CE49F6
:104D000008700A20FEF749F8CF480078CC4981F8AE
:104D10002B0081F8270081F82300002081F8220071
:104D200081F8260081F82A0002E0642004F014F8DB
:104D3000BC48007800F080000028F6D10122D102A2
:104D4000C04800F027FE43F6982004F005F8002044
:104D5000BB4981F82B0081F8270081F8230000224D
:104D60004FF40061B74800F015FE0020B24908700A
:104D700010BD10B52DED0C8B0446A4F16400002885
:104D800001DB014600E04142B04A11601046006874
:104D900004F0EBFD41EC1D0B9FEDAD0B53EC102B24
:104DA00004F002FD41EC1C0BB0EE4C0AF0EE6C0A74
:104DB00005F07AF9B0EE40BAF0EE60BA9FEDA60BBE
:104DC00053EC102B51EC1B0B04F0EBFC41EC1A0BD9
:104DD0009FEDA30B53EC102B04F0E6FC41EC190BF8
:104DE0009FEDA10B53EC102B04F037FC41EC180B9A
:104DF00004F0DFFD00EE100ABDEC0C8B10BD10B509
:104E00002DED028B04462046FFF7B3FFB0EE408A3B
:104E10008448C07990B1622C05DA0020B1EE480ACE
:104E2000FEF793F80AE0662C05DD0020B0EE480A94
:104E3000FEF78BF802E00020FDF7AFFFBDEC028B20
:104E400010BD10B50446622C05DA002201217D4810
:104E500000F0A0FD0CE0662C05DD00220121794860
:104E600000F098FD04E001221146764800F092FD22
:104E700010BD10B52DED088BB0EE408A1FED9C0AD9
:104E8000F0EE408A1FED9E0AB0EE409A9FED780A40
:104E900008EE080A10EE101A084604F077FD41ECFF
:104EA0001B0BB0EE4B0AF0EE6B0A06F035F9B0EED4
:104EB00040AAF0EE60AA51EC1A0B04F07AFD09EE5C
:104EC000900ADFED6C0A89EEA00ADFED6B0A20EE96
:104ED000200AB0EE409A9FED690AB4EEC09AF1EE56
:104EE00010FA04DD9FED650AB0EE409A0AE09FEDEE
:104EF000640AB4EEC09AF1EE10FA03D29FED600A94
:104F0000B0EE409A9FED5B0A39EEC00A9FED591A48
:104F1000C0EE010A9FED5B1A9FED5B0A00EE810A6D
:104F2000F0EE408A9FED590AF4EEC08AF1EE10FAD5
:104F300004DD9FED560AF0EE408A0AE09FED540A28
:104F4000F4EEC08AF1EE10FA03D29FED510AF0EEB2
:104F5000408ABDEEC90A4F4880ED000ABDEEE80A5E
:104F6000314880ED000ABDEC088B10BD10B52DED69
:104F70000A8BB0EE408A1FEDDA0AF0EE408A1FED90
:104F8000DC0AB0EE409A9FED440AC8EE000A10EE2B
:104F9000904A204604F0FAFC41EC1C0B9FED3F1BAD
:104FA000B0EE4C0AF0EE6C0A05F02AFAB0EE40BA08
:104FB000F0EE60BA9FED3B0B53EC102B51EC1B0B4A
:104FC00004F0F2FB41EC1A0B04F0F3FC09EE100ABA
:104FD0009FED2A0AB4EEC09AF1EE10FA04DD9FEDBF
:104FE000270AB0EE409A0AE09FED250AB4EEC09A77
:104FF000F1EE10FA03D29FED220AB0EE409A9FED37
:10500000260A78EE400A9FED241A80EE810ADFED31
:105010001C0A20EE200A10EE104A204604F0B6FCCE
:1050200044E000004805002094000020EC0000202F
:1050300044020020001002406302002038020020D9
:1050400004000020000402403C020020480200202E
:10505000D122DBF97E6AACBF000000000000F03F07
:10506000343333333333E33F666666666666F23F56
:105070000000C84500C02E440000E64200007A430C
:10508000000048420000C84200401744008022440B
:10509000008009449000002000A07F459A999999CA
:1050A0009999F13F0000000000805A4041EC1C0B30
:1050B0009FEDD60B53EC102B04F076FB41EC1B0B51
:1050C0009FEDD40B53EC102B04F0C7FA41EC1A0BF4
:1050D00004F06FFC08EE900A9FEDD00AF4EEC08A4F
:1050E000F1EE10FA04DD9FEDCD0AF0EE408A0AE001
:1050F0001FED190AF4EEC08AF1EE10FA03D21FED8B
:105100001C0AF0EE408ABDEEC90AC54880ED000ACF
:10511000BDEEE80AC34880ED000ABDEC0A8B10BD65
:10512000C1480068C1490968884203DABF4800687D
:10513000BD490860BC480068BD490968884203DD74
:10514000BB480068B8490860BA490968B64A12689D
:10515000881A002801DB014600E04142012931DDC7
:10516000B4480068B0490968884204DD0120B249AA
:1051700081F82E0003E00020AF4981F82E00AD49F0
:105180000968A94A1268881A002801DB014600E074
:10519000414201EB81014900A84A116010460068B4
:1051A000FA2802DDFA2011460860A4480068322877
:1051B00002DA3220A1490860A04800789E4981F8AF
:1051C0002F0003E000209C4981F82F00704710B5A4
:1051D0009B48407800F00200A0B19948407800F068
:1051E000040078B19048006891490968884209DA5A
:1051F0008D480068401C8C4908604FF4967003F09D
:10520000ABFD18E08E48407800F0020098B18C4861
:10521000407800F0200070B1834800688349096835
:10522000884208DD80480068401E7F4908604FF4CE
:10523000C87003F091FD10BD05E01120FDF70FF9D6
:105240000F2003F089FDF8E711E07D48007800F0B9
:10525000010010B1FEF716FA02E00020FDF79DFDF7
:10526000FEF76DFBFFF75CFF032003F075FDECE735
:1052700004E0FEF724F9032003F06EFDF9E71FB503
:10528000FBF717FCFBF754FCFBF7A3FEFBF763FFF0
:10529000FBF7F0FFFCF7E1F8FBF7B5FC4FF4E1306A
:1052A000FCF7BBF94FF4E130FCF740FA4FF4E13082
:1052B000FCF7C9FA4FF46120FCF7FDFB4FF4E13035
:1052C000FCF796FCFDF7E0F9FCF7EAFD00205D49EC
:1052D000087001205C490870002000900190029045
:1052E00003464FF4807259A103905D4803F0F5FA2C
:1052F000002000900190029003464FF4807259A163
:1053000003905D4803F0E9FA04205C49087001202D
:105310005B4908704FF416704349086056E04DE051
:10532000FFF755FFFEF7FDFB56480078FFF767FDD6
:10533000FEF723FD544890ED000AB8EEC00AFFF7CF
:1053400098FD5248008800EE100AB8EE400AFFF7B8
:105350000DFE334801684E480068FEF7FAFD4948E3
:105360000078FFF76EFDFEF792FD3548407800F0BB
:10537000020030B93248407800F0200008B1FEF752
:1053800000FC2F48407800F0020030B92C484078EB
:1053900000F0100008B1FEF796FC2948407800F0B4
:1053A000020030B92648407800F0400008B1FEF70E
:1053B00008FDFFF74BFC012003F0CEFC20480078ED
:1053C00000F001000028ABD1FDF7E7FCA7E71FB50F
:1053D000002000900190029003464FF480722DA1AE
:1053E00003902F4803F079FA00200090019002907A
:1053F00003464FF480722BA103902D4803F06DFA01
:1054000003F084FE002004B010BD000066666666EE
:105410006666E63F0000000000D0814000001644B0
:105420004002002044020020EC000020F000002098
:10543000F400002080000020040000201002002062
:1054400048050020A0000020620200207461736BF8
:10545000526F626F74416E616C797469637300009E
:10546000715200087461736B446965754B686965B6
:105470006E436F436175000049520008F10100203E
:10548000EB01002028010020780000202A010020E4
:10549000900000207461736B4D61696E0000000024
:1054A0007F5200087461736B4779726F00000000CF
:1054B000395200080CB50020019000907248006835
:1054C00040F480307049086000BF6F48006800F405
:1054D000003000900198401C0190009818B9019884
:1054E000B0F5A06FF1D16848006800F4003010B149
:1054F0000120009001E0002000900098012846D192
:1055000061484030006840F080505F494031086099
:105510005E48006840F480405C4908605A480830A2
:1055200000685949083108600846006840F40040A6
:1055300008600846006840F4A05008605448091FFD
:105540000860081F006840F08070091F086000BFF5
:105550004D48006800F000700028F9D040F2056066
:105560004C49086048480830006820F0030046496C
:10557000083108600846006840F00200086000BF7B
:1055800041480830006800F00C000828F8D10CBD34
:1055900010B53D48006840F001003B49086000201C
:1055A000394908310860384800683B4908403649A5
:1055B00008603A48091D0860081F006820F4802030
:1055C000091F0860002030490C310860FFF772FFA6
:1055D0004FF000603249086010BD70B50020002215
:1055E000022300240221284D08352D6805F00C0007
:1055F00020B1042806D0082834D107E0294D2A4ECE
:10560000356033E0294D284E35602FE01E4D2D1DAD
:105610002D68C5F380541C4D2D1D2D6805F03F01EC
:1056200054B1224DB5FBF1F5174E361D3668C6F361
:10563000881605FB06F209E01A4DB5FBF1F5124E8E
:10564000361D3668C6F3881605FB06F20E4D2D1D75
:105650002D68C5F301456D1C6B00B2FBF3F5124ECE
:10566000356003E00F4D104E356000BF00BF064DA2
:1056700008352D68C5F303150D4E705D0A4D2D6874
:10568000C540094E356070BD0038024000700040D2
:1056900008544007003C0240FFFFF6FE1030002493
:1056A00008ED00E00024F400A002002000127A00BF
:1056B000A40200200648804706480047FEE7FEE7B0
:1056C000FEE7FEE7FEE7FEE7FEE7FEE7FEE7FEE7B2
:1056D000915500088901000832490143324A11609E
:1056E000704770B5002100230F22C4781CB32E4CE4
:1056F000246804F4E064C4F5E064C4F30721C1F154
:105700000404E3B20A4144789C40E1B28478144036
:1057100021430C07210E254C05786155047804F0CF
:105720001F050124AC4005786D11AD0005F1E025A1
:10573000C5F8004109E0047804F01F050124AC40DD
:105740001B4D0678761145F8264070BD194A0A406F
:105750000243154B1B1F1A60704739B1124A121DC4
:1057600012680243104B1B1D1A6006E00E4A121D00
:10577000126882430C4B1B1D1A607047042808D125
:105780004FF0E021096941F004014FF0E02211617E
:1057900007E04FF0E021096921F004014FF0E02219
:1057A000116170470000FA050CED00E000E400E034
:1057B00080E100E080FFFF1F10B504468C48844262
:1057C00008D10121084600F000FB0021012000F073
:1057D000FCFA5EE08748844208D10121022000F0F3
:1057E000F4FA0021022000F0F0FA52E082488442EC
:1057F00008D10121042000F0E8FA0021042000F083
:10580000E4FA46E07D48844208D10121082000F0F6
:10581000DCFA0021082000F0D8FA3AE07848844207
:1058200008D10121102000F0D0FA0021102000F052
:10583000CCFA2EE07348844208D10121202000F0E8
:10584000C4FA0021202000F0C0FA22E06E48844211
:1058500008D10121402000F0B8FA0021402000F0DA
:10586000B4FA16E06948844208D10121802000F092
:10587000ACFA0021802000F0A8FA0AE064488442D3
:1058800007D10121801500F0A0FA0021A01500F039
:105890009CFA10BDF0B50A4600210023002400BF89
:1058A0003DE0012505FA01F3156805EA03049C4271
:1058B00034D105684F000326BE40B5430560157915
:1058C0004E00B5400668354305601579012D02D0BC
:1058D0001579022D16D185684F000326BE40B543C9
:1058E000856055794E00B5408668354385604568CA
:1058F00001268E40B5434560456896798E40B6B224
:1059000035434560C5684F000326BE40B543C560BA
:10591000D5794E00B540C6683543C560491C10298D
:10592000BFD3F0BD4FF6FF710160002101714171DD
:105930008171C171704708B54FF480320092009AAE
:105940000A430092009AC261C161009AC261C269B1
:105950000092C269009208BD0246002013690B4004
:105960000BB1012000E0002070470146086980B2B9
:1059700070470246002053690B400BB1012000E044
:10598000002070470146486980B270470183704724
:10599000418370470AB1018300E041837047416150
:1059A000704742694A4042617047F0B500230024C5
:1059B0004D07ED0E02FA05F3CE1000F1200555F863
:1059C00026504E07F70E0F26BE40B543CF1000F10C
:1059D000200646F82750CE1000F1200555F8265035
:1059E00045EA0304CE1000F1200545F82640F0BD3D
:1059F000000002400004024000080240000C024087
:105A0000001002400014024000180240001C024036
:105A100000200240FA48006840F00100F8490860A0
:105A20000020F74908310860F5480068F54908404A
:105A3000F3490860F448091D0860081F006820F455
:105A40008020091F08600020ED490C310860704774
:105A50000021EB4A921C117011460870704710B576
:105A600001460022002300204A11012A02D1E44C01
:105A7000236808E0022A03D1E14C7034236802E075
:105A8000DF4C7434236801F01F02012494401C4051
:105A90000CB1012000E0002010BD38B500200090BE
:105AA0000024002500BF3120FFF7D9FF05460098EC
:105AB000401C00900098B0F5A06F01D0002DF2D0EE
:105AC0003120FFF7CCFF08B1012400E0002420467C
:105AD00038BD01460020CA4A106820F0F80040EAAC
