:020000040800F2
:10000000A0330020F54D0008450200084702000813
:100010004B0200084F0200085302000800000000D5
:100020000000000000000000000000009D0100082A
:100030005702000800000000E10100080F7E0008E0
:100040000F4E00080F4E00080F4E00080F4E00081C
:100050000F4E00080F4E00080F4E00080F4E00080C
:100060005F040008A30400080F4E00080103000805
:10007000E30200083F0300080F4E00087502000865
:100080000F4E0008810200080F4E00080F4E0008B6
:100090000F4E00080F4E00080F4E00080F4E0008CC
:1000A0000F4E00087B030008A70300080F4E00084E
:1000B000A9030008D7030008030400080F4E000836
:1000C0000F4E00080F4E00080F4E00085B0400089A
:1000D0000F4E00085D0200080F4E00080F4E00088A
:1000E0000F4E00080F4E00080F4E00080F4E00087C
:1000F0000F4E00080F4E00080F4E00081B030008AB
:100100000F4E00080F4E00082F0400085D04000881
:100110000F4E00080F4E00084D0300085903000859
:100120000F4E00089B020008B50200080F4E0008A1
:100130000F4E00080F4E00080F4E00080F4E00082B
:100140000F4E00080F4E00080F4E00080F4E00081B
:10015000D50200080F4E00080F4E00080F4E000891
:100160000F4E00080F4E00080F4E00080F4E0008FB
:100170000F4E00080F4E00080F4E00080F4E0008EB
:100180000F4E00080F4E0008DFF80CD009F08CF974
:10019000004800471F4B0008A0330020234B19687C
:1001A0000868B0E8F04F80F309884FF0000080F352
:1001B000118870470000000003480068006880F361
:1001C000088862B600DF00BF08ED00E0DFF80C0031
:1001D000016841F470010160704700BF88ED00E0E4
:1001E000EFF30980114B1A681EF0100F08BF20EDC5
:1001F000108A20E9F04F106008B54FF0140080F32A
:10020000118808F0CCF94FF0000080F31188BDE8A8
:10021000084019680868B0E8F04F1EF0100F08BFDA
:10022000B0EC108A80F30988704700BFD00300202B
:10023000EFF311804FF0140181F31188704780F3C0
:1002400011887047704700BFFEE700BFFEE700BFA0
:10025000FEE700BFFEE770477047704710B540F2F9
:100260002551904806F0E7FE18B120218D4806F090
:10027000D9FE10BD10B58C498C4805F011FE10BD9B
:1002800010B58B498948303005F0E0FD20B1884930
:100290008648303005F004FE10BD10B5854986480B
:1002A00005F0D4FD28B18349834805F0F9FD01F03C
:1002B00019FD10BD10B581497F48183005F0F0FDDB
:1002C0007F4840787E49097840EA012000B27D49A4
:1002D000088010BD10B57C497748603005F0E0FD1E
:1002E00010BD10B573497148483805F0AFFD30B105
:1002F00070496E48483805F0D3FD00F09FFA10BDF4
:1003000010B572496948603805F0A0FD20B16F4909
:100310006648603805F0C4FD10BD10B56C496348EF
:10032000483005F093FD48B100216048483005F0A1
:10033000E3FC67495D48483005F0B2FD10BD10B5DB
:1003400059495A48303805F0ABFD10BD10B50121B0
:10035000604806F0CDFB10BD10B501215E4806F0E7
:10036000C7FB7A204F49888001215C4806F072FD66
:1003700001215B4806F06EFD10BD10B50121594802
:1003800006F0B6FB5748008800F0100028B1564828
:100390000068401E5449086004E053480068401C4F
:1003A0005149086010BD704710B50121880706F05B
:1003B0009FFB4FF08040008800F0100028B14B48B0
:1003C0000068401E4949086004E048480068401C35
:1003D0004649086010BD10B50121454806F088FB6C
:1003E0004348008800F0100028B142480068401ED1
:1003F0004049086004E03F480068401C3D490860EF
:1004000010BD10B501213C4806F072FB3A48008847
:1004100000F0100028B139480068401E37490860D4
:1004200004E036480068401C3449086010BD10B52F
:100430000121334806F05CFB3148008800F01000D1
:1004400028B130480068401E2E49086004E02D485D
:100450000068401C2B49086010BD7047704710B5FC
:10046000042005F0B5FDD8B12021274804F039FE5D
:100470000421264804F010FE012804D1002116486A
:1004800005F0B6FE09E00421204804F005FE20B97D
:10049000114805F0B1FE1E49086004201D4908609E
:1004A00010BD7047001001402080002070600240A5
:1004B0000080202000880010286402400080201066
:1004C000EC0500208400002000880020208000101F
:1004D0000080002800100040001400400048004048
:1004E000001401400000014064000020680000206A
:1004F000000400406C000020000800408000002044
:10050000000C00407000002000000240000C02407F
:1005100060000020143C014070B50446204608F0FD
:1005200027FC05462146F74808F029FCA0B1952292
:100530002146F44808F010FC0021F34805F0DCFBEC
:10054000F048F1490C310860EF48B838C0F8BC50A9
:100550000121ED4805F0D0FB70BD70B504460025C3
:1005600010E0605D68B1615DE84806F09EFC00BF88
:100570008021E64806F049FD0028F9D0681CC5B284
:1005800000E070BDEDE770B5044600250FE05CB1FA
:100590002146DE4806F089FC00BF8021DB4806F0DA
:1005A00034FD0028F9D000E070BD681CC5B2032DF1
:1005B000EDDB00BFF8E713B50C460020FFF7E3FFC3
:1005C000D3A0FFF7CAFF2346D2A29621D24808F053
:1005D000A9FFD148FFF7C1FFD0A0FFF7BEFFCDA212
:1005E0009621CD48009B08F09DFFCB48FFF7B5FF53
:1005F000CCA0FFF7B2FFFF20FFF7C5FFFF20FFF7FA
:10060000C2FFFF20FFF7BFFF1CBD70B505460C46BB
:10061000BFA0FFF7A2FF2246BEA1BF4808F09AFF85
:10062000BD48FFF79AFFBDA0FFF797FF2846FFF7E9
:1006300094FFBCA0FFF791FFFF20FFF7A4FF70BD60
:1006400077B585B00546FF26B4A103C9CDE90301FE
:10065000B4A000680290AEA00068019000240AE0F7
:100660000020B1490855B1490855AB490855A5497D
:100670000855601CC4B21E2CF2DB0A20A649087083
:10068000FF2048708870C870A2A1A848079A08F097
:1006900061FFA64901A808F053FB01A99E4808F094
:1006A0004FFB03A99C4808F04BFB29469A4808F0E9
:1006B00047FB98A19D48069A08F04CFF9B49964835
:1006C00008F03EFB02A9944808F03AFBFF20964947
:1006D000087048708870904808F032FB8E48FFF729
:1006E0001BFF08B070BDF7B584B005460E46FF2766
:1006F0008AA103C9CDE902018AA00068019084A003
:1007000000680090002408E00020874908558749C8
:10071000085581490855601CC4B20A2CF4DB0A2034
:100720007D490870FF2048708870C87079A17F48A3
:10073000069A08F00FFF7D49684608F001FB6946FC
:10074000754808F0FDFA02A9734808F0F9FA29463D
:10075000714808F0F5FA31466F4808F0F1FA01A93E
:100760006D4808F0EDFAFF206F49087048708870F6
:100770000020C8700871684808F0E2FA6648FFF780
:10078000CBFE07B0F0BD01B58EB069A2322101A841
:100790000E9B08F0C7FE01A8FFF7BEFE0FB000BD1C
:1007A00073B584B00546FF265CA103C9CDE90201FB
:1007B0005CA00068019056A00068009000240AE048
:1007C00000205949085559490855534908554D497C
:1007D0000855601CC4B21E2CF2DB0A204E4908707A
:1007E000FF2048708870C8704AA15048059A08F0E8
:1007F000B1FE4E49684608F0A3FA6946464808F03B
:100800009FFA02A9444808F09BFA2946424808F09A
:1008100097FA4649404808F093FA01A93E4808F083
:100820008FFAFF2040490870487088703A4808F0F5
:1008300087FA3948FFF770FE06B070BD1CB53F4817
:1008400000783E49497808443C49897808443B4946
:10085000C97808443949097908443849497908442C
:100860003649897908443549C97908443349097AB0
:100870000844C0B201903148007A00F00F000090A7
:100880009DF800000D2803D000212D4806F0E2FA63
:100890001CBD2A48007A00F00F000D2806D1274819
:1008A000007800F0010008B10D2070470020FCE73F
:1008B0002248007800F0020008B1012070470020B3
:1008C000FCE71CB51F4805F097FC1F49096840EA82
:1008D0000140092190FBF1F0009000243CE0194810
:1008E00005F08AFC1849096840EA0140092190FB9B
:1008F000F1F00190DDE90021881A002826DB01468D
:1009000025E0000046050020B8600240005000408D
:100910007400000025640000100400202E74787418
:100920003D22000022000000F6040020CE0400203A
:100930006A302E76616C3D25640000002806002098
:1009400000480040000C0040700000204142052992
:1009500000DA641C01980090022CC0DB01981CBDD9
:100960001CB54FF0804005F047FCFE49096840EA9D
:100970000140092190FBF1F00090002418E04FF0B5
:10098000804005F039FCF749096840EA0140092137
:1009900090FBF1F00190DDE90021881A002801DBCD
:1009A000014600E04142052900DA641C01980090EC
:1009B000022CE4DB01981CBD1CB5EB4805F01CFCC7
:1009C000EA49096840EA0140092190FBF1F00090F2
:1009D000002417E0E44805F00FFCE449096840EA08
:1009E0000140092190FBF1F00190DDE90021881A16
:1009F000002801DB014600E04142052900DA641CC1
:100A000001980090022CE5DB01981CBD1CB5D8486C
:100A100005F0F2FBD749096840EA0140092190FB43
:100A2000F1F00090002417E0D14805F0E5FBD14932
:100A3000096840EA0140092190FBF1F00190DDE9ED
:100A40000021881A002801DB014600E04142052907
:100A500000DA641C01980090022CE5DB01981CBDB3
:100A600001B581B000200090019800EBC00040006B
:100A7000009002E00098401E009000980028F9D1F4
:100A80000CBD01B581B00020009044F25061019886
:100A90004843009002E00098401E00900098002813
:100AA000F9D10CBD1CB501211F2004F0D9FC4FF673
:100AB000FF70009001208DF8040000208DF80600E2
:100AC00001208DF8070003208DF805006946AA482B
:100AD00004F080FA4FF6FF70009001208DF80400BA
:100AE00000208DF8060001208DF8070003208DF806
:100AF00005006946A14804F06DFA4FF6FF700090BA
:100B000001208DF8040000208DF8060001208DF8EA
:100B1000070003208DF805006946994804F05AFA49
:100B20001CBD1CB501217E2004F09AFCC020009061
:100B300000208DF8040001208DF8070002208DF8B8
:100B4000050069468F4804F045FA06200090002011
:100B50008DF8040001208DF8070002208DF80500B3
:100B60006946854804F036FA0420009000208DF88C
:100B7000040001208DF8070002208DF80500694669
:100B80007E4804F027FA1CBD1FB54FF4E06004F066
:100B900043F936208DF8000000208DF801008DF813
:100BA000020001208DF80300684604F03AF90121A3
:100BB000102004F088FC3220ADF8040040F2E73049
:100BC00002900020ADF80C00ADF8060001A96E48B7
:100BD00005F0C5FA01216C4805F08AFF0122114693
:100BE000694805F05DFF0021674805F001FB012120
:100BF000654805F03DFB1FBD1FB54FF4E06004F0F4
:100C00000BF937208DF8000000208DF801008DF8D9
:100C1000020001208DF80300684604F002F901216A
:100C2000202004F050FC3220ADF8040040F2E73000
:100C300002900020ADF80C00ADF8060001A9534861
:100C400005F08DFA0121514805F052FF01221146AD
:100C50004E4805F025FF00214C4805F0C9FA012156
:100C60004A4805F005FB1FBD00B58BB001210220ED
:100C700004F03AFC01210C2004F0F2FB03220621CF
:100C80003E4804F032FA032207213C4804F02DFAD2
:100C900003220821394804F028FA032209213748A1
:100CA00004F023FA4FF47070069002208DF81C00B7
:100CB00003208DF81D0000208DF81E0001208DF806
:100CC0001F0006A92D4804F085F9A420ADF82000E6
:100CD00040F6B83009904FF48070ADF8280000203D
:100CE000ADF8220008A92A4805F039FA6020ADF8CD
:100CF00004000120ADF8060000200390ADF81000BC
:100D00000121234805F0B4FA0021214805F070FACA
:100D100001A91F4805F0B8FA01A91D4805F0EDFA30
:100D200001A91B4805F036FB01A9194805F098FBFD
:100D30000121174805F08DFE0BB000BD00B58BB04A
:100D40000121082004F0BFFB0121084604F088FBC4
:100D5000022200210B4804F0C8F9022201210948AF
:100D600018E000006800002000080040800000201B
:100D7000000400406C000020000402400008024013
:100D8000000C02400000024000100040001400402F
:100D90000004014004F0A9F902221146FE4804F0C3
:100DA000A4F902220321FC4804F09FF90F200690C9
:100DB00002208DF81C0003208DF81D0000208DF806
:100DC0001E0001208DF81F0006A9F34804F002F967
:100DD000BA20ADF8200042F2107009900020ADF862
:100DE0002800ADF8220008A9EC4805F0B8F9602009
:100DF000ADF804000120ADF8060000200390ADF826
:100E000010000121E54805F033FA0021E34805F020
:100E1000EFF901A9E14805F037FA01A9DF4805F02B
:100E20006CFA01A9DD4805F0B5FA01A9DB4805F027
:100E300017FB0121D94805F00CFE0BB000BD00B531
:100E40008BB00121042004F03EFB01210D2004F0B1
:100E500007FB02220C21D24804F047F902220D219F
:100E6000CF4804F042F902220E21CD4804F03DF9AA
:100E700002220F21CA4804F038F94FF4704006905E
:100E800002208DF81C0003208DF81D0000208DF835
:100E90001E0001208DF81F0006A9C14804F09AF831
:100EA000A420ADF8200040F6B83009904FF48070CF
:100EB000ADF828000020ADF8220008A9B94805F0D7
:100EC0004EF96020ADF804000120ADF806000020C6
:100ED0000390ADF810000121B24805F0C9F90021D6
:100EE000B04805F085F901A9AE4805F0CDF901A992
:100EF000AC4805F002FA01A9AA4805F04BFA01A98D
:100F0000A84805F0ADFA0BB000BD00B589B00121CD
:100F1000080404F0E9FA0121084604F0A1FA0322CA
:100F200011469D4804F0E1F8032202219A4804F09A
:100F3000DCF80C20019002208DF8080003208DF8C9
:100F4000090000208DF80A0001208DF80B0001A98E
:100F5000914804F03FF80020ADF818004FF6FF70FC
:100F600007900020ADF82000ADF81A0006A98E48C1
:100F700005F0F5F80420ADF80C000020ADF80E00E7
:100F8000C820ADF814000120ADF8100003A9864870
:100F900005F0BCFC00231A460321844805F053FEEB
:100FA0000121824805F0A4FD012211467F4805F089
:100FB00077FD01217C4805F05BF900217B4805F0B5
:100FC00017F909B000BD00B589B00121084604F049
:100FD0007AFA0121022004F076FA0121032004F0BC
:100FE0003FFA01220F216C4804F07FF8012203210F
:100FF0006F4804F07AF8022204216D4804F075F875
:10100000022205216A4804F070F83820019002207D
:101010008DF8080003208DF8090000208DF80A00E3
:1010200001208DF80B0001A9614803F0D3FF4FF4B4
:101030000040019002208DF8080003208DF809007F
:1010400000208DF80A0001208DF80B0001A95248FC
:1010500003F0C0FF0020ADF818004FF6FF700790B6
:101060000020ADF82000ADF81A0006A94FF080402E
:1010700005F075F806A94F4805F071F80420ADF8A1
:101080000C000220ADF80E001420ADF81400012071
:10109000ADF8100003A9800705F038FC03A9454806
:1010A00005F034FC02231A460321580705F0CBFD56
:1010B00002231A4603213F4805F0C5FD0121880798
:1010C00005F016FD01213B4805F012FD01221146F5
:1010D000900705F0E5FC01221146364805F0E0FCDA
:1010E0000121880705F0C4F80121324805F0C0F855
:1010F00000214FF0804005F07BF800212D4805F0DD
:1011000077F84FF4C06003F087FE1D208DF80000D3
:1011100003208DF8010000208DF8020001208DF8D9
:101120000300684603F07DFE1C208DF800000420BB
:101130008DF8010000208DF8020001208DF80300D9
:10114000684603F06EFE09B000BD00B589B001210C
:10115000084604F0C9F90121102004F081F94FF488
:101160002060019002208DF8080003208DF809000E
:1011700000208DF80A0001208DF80B0001A90E480F
:1011800003F028FF012209210B4803F0AEFF0122E2
:101190000B21094812E0000000000240000C004052
:1011A000000C0240000800400000014000400140E7
:1011B00000040240000400400010024003F095FFCC
:1011C0000020ADF818004FF6FF7007900020ADF832
:1011D0002000ADF81A0006A9FE4804F0C0FF042064
:1011E000ADF80C000020ADF80E000A20ADF8140098
:1011F0000120ADF8100003A9F64805F087FB002395
:101200001A460321F34805F01EFD0121F14805F0BF
:101210006FFC01221146EF4805F042FC0121ED4828
:1012200005F066FC01221146EA4805F039FC01216F
:10123000E84805F01DF80021E64804F0D9FF4FF416
:10124000C06003F0E9FD19208DF8000001208DF841
:10125000010000208DF8020001208DF8030068468F
:1012600003F0DFFD09B000BD00B589B00121042005
:1012700004F029F90121082004F0F2F84FF440505D
:10128000019002208DF8080003208DF8090000204D
:101290008DF80A0001208DF80B0001A9CE4803F05B
:1012A00099FE0020ADF818004FF6FF70079000205F
:1012B000ADF82000ADF81A0006A9C84804F04FFFA9
:1012C00002220C21C44803F010FF02220D21C24863
:1012D00003F00BFF0420ADF80C000220ADF80E0067
:1012E000C820ADF814000120ADF8100003A9BB48D8
:1012F00005F00CFB02231A460321B84805F0A3FCB5
:101300000121B64805F0F4FB01221146B34805F06F
:10131000C7FB0121B14804F0ABFF0021AF4804F046
:1013200067FF0020AD49143108800120AB490880D7
:101330004FF4C06003F070FD1E208DF80000042003
:101340008DF8010000208DF8020001208DF80300C7
:10135000684603F066FD09B000BD00B589B0012103
:10136000082004F0B0F80121084604F079F80320C1
:10137000019002208DF8080003208DF8090000205C
:101380008DF80A0001208DF80B0001A9944803F0A4
:1013900021FE0020ADF818004FF6FF7007900020E6
:1013A000ADF82000ADF81A0006A98E4804F0D7FE6B
:1013B000022200218A4803F098FE02220121884877
:1013C00003F093FE0420ADF80C000220ADF80E00EF
:1013D000C820ADF814000120ADF8100003A9814821
:1013E00005F094FA02231A4603217E4805F02BFCEF
:1013F00001217C4805F07CFB01221146794805F06B
:101400004FFB0121774804F033FF0021754804F0B9
:10141000EFFE0020734914310880012071490880D3
:101420004FF4C06003F0F8FC32208DF80000042077
:101430008DF8010000208DF8020001208DF80300D6
:10144000684603F0EEFC09B000BD00B59BB0012179
:10145000654804F005F80121080204F045F8002071
:101460000290624803906248049000200590082092
:101470000690002007904FF480600890400009908B
:1014800080000A9040110B9040020C9000200D90BB
:1014900001200E9000200F90109002A9554804F0F2
:1014A000F1FB0121534804F027FC3C20009003206D
:1014B0008DF8040000208DF807006946484803F0C5
:1014C00089FD3C20009003208DF8040000208DF859
:1014D00007006946484803F07DFD002011901290F6
:1014E0001390149011A804F033F94FF08070159008
:1014F00001208DF858008DF85900002017901890A1
:10150000199008208DF8680015A938484C3804F067
:10151000F0F800230122022134484C3804F06FF91E
:1015200000230222032131484C3804F068F90023DB
:10153000032204212D484C3804F061F900230422D1
:1015400005212A484C3804F05AF9002305220C21C1
:1015500026484C3804F053F9002306220D21234875
:101560004C3804F04CF9002307220E211F484C3858
:1015700004F045F9002308220F211C484C3804F0E0
:101580003EF9012119484C3804F0E4F901211748CB
:101590004C3804F0D4F9012114484C3804F0EFF829
:1015A00012484C3804F087F91BB000BD08B54FF461
:1015B000E06003F031FC25208DF8000000208DF85C
:1015C00001008DF8020001208DF80300684603F049
:1015D00028FC08BD00000140000C0240000800404B
:1015E00000000240000C0040050040004C2001407B
:1015F000DC050020106402400008024010B596B0DF
:1016000004460121102003F06FFF0121084603F07A
:1016100027FF0121880503F023FF4FF4C0600090ED
:1016200002208DF8040000208DF806008DF80700D8
:1016300002208DF805006946FE4803F0CBFC072226
:101640000921FC4803F051FD07220A21F94803F063
:101650004CFD02940020ADF80C00ADF80E00ADF882
:101660001000ADF814000C20ADF8120002A9F248E9
:1016700005F068FB0121F04805F0ECFB4FF4A06099
:1016800003F0CAFB3A208DF8180000208DF81900ED
:101690008DF81A0001208DF81B0006A803F0C1FB8D
:1016A000E64804F04DFA4FF00060079000200A90E1
:1016B000E34809900A200B90DF48001D08900020A5
:1016C0000C904FF480600D9000200E900F904FF41E
:1016D000807010904002119004201290032013900B
:1016E00000201490159007A9D44804F0CBFA0122E9
:1016F0004021D14805F05BFC01221021CF4804F0C5
:1017000088FB0121CD4804F0F7FA16B010BD10B5E2
:1017100096B004460121480503F0A2FE01214804C9
:1017200003F0D1FE0121082003F09AFE6020009012
:1017300002208DF8040000208DF806008DF80700C7
:1017400002208DF805006946BE4803F043FC0722DD
:101750000521BC4803F0C9FC07220621B94803F063
:10176000C4FC02940020ADF80C00ADF80E00ADF8FA
:101770001000ADF814000C20ADF8120002A9B24818
:1017800005F0E0FA0121B04805F064FB4FF4A060D9
:1017900003F042FB11208DF8180000208DF819008D
:1017A0008DF81A0001208DF81B0006A803F039FB04
:1017B000A64804F0C5F94FF00060079040200A9059
:1017C000A348099046200B909F48001D08900020D8
:1017D0000C904FF480600D9000200E900F904FF40D
:1017E00080701090400211900420129003201390FA
:1017F00000201490159007A9944804F043FA0122A0
:101800008021914805F0D3FB012280218E4805F00C
:10181000CEFB012210218D4804F0FBFA01218B48F8
:1018200004F06AFA16B010BD10B596B00446012156
:10183000880403F048FE0121082003F011FE012175
:10184000480503F00DFE4FF44070009002208DF823
:10185000040000208DF806008DF8070002208DF8A6
:1018600005006946774803F0B5FB07220821754853
:1018700003F03BFC07220921724803F036FC029476
:101880000020ADF80C00ADF80E00ADF81000ADF87A
:1018900014000C20ADF8120002A96E4805F052FAAF
:1018A00001216C4805F0D6FA4FF4A06003F0B4FAB9
:1018B0000C208DF8180000208DF819008DF81A0002
:1018C00001208DF81B0006A803F0ABFA5F487838BA
:1018D00004F036F94FF00060079000200A905E484F
:1018E00009900A200B905B48001D089000200C9086
:1018F0004FF480600D9000200E900F904FF4807098
:1019000010904002119004201290032013900020A8
:101910001490159007A94D48783804F0B3F90122C6
:1019200040214C4805F043FB01224021494805F085
:101930003EFB012210214548783804F06AFA012163
:101940004248783804F0D8F916B010BD10B596B0FA
:1019500004460121C80403F0B6FD0121084603F046
:101960007FFD0121480503F07BFD0320009002204C
:101970008DF8040000208DF806008DF80700022085
:101980008DF8050069462B4803F024FB082200214E
:10199000284803F0AAFB08220121264803F0A5FBF2
:1019A00002940020ADF80C00ADF80E00ADF8100068
:1019B000ADF814000C20ADF8120002A9274805F07C
:1019C000C1F90121254805F045FA4FF4A06003F064
:1019D00023FA0D208DF8180000208DF819008DF8DD
:1019E0001A0001208DF81B0006A803F01AFA174808
:1019F000603804F0A5F84FF00060079000200A90CE
:101A00001748099008200B901448001D08900020EA
:101A10000C904FF480600D9000200E900F904FF4CA
:101A200080701090400211900420129003201390B7
:101A3000002017E000000240001001404064024016
:101A4000EC050020000C024000440040A060024071
:101A5000040000200048004028060020004C004000
:101A6000FB0500201490159007A9F94804F00AF925
:101A700001224021F74805F09AFA01224021F54859
:101A800005F095FA01221021F14804F0C2F9012174
:101A9000EF4804F031F916B010BD10B596B0044609
:101AA0000121480503F0DCFC0121080503F00BFDD2
:101AB00001210C2003F0D4FC0420009002208DF8BA
:101AC000040000208DF806008DF8070002208DF834
:101AD00005006946E04803F07DFA4FF4805000901D
:101AE00002208DF8040000208DF806008DF8070014
:101AF00002208DF805006946D84803F06BFA0822E9
:101B00000221D54803F0F1FA08220C21D34803F052
:101B1000ECFA4FF4A06003F07FF92F208DF8180045
:101B200005208DF819008DF81A0001208DF81B0092
:101B300006A803F076F902940020ADF80C00ADF889
:101B40000E00ADF81000ADF814000C20ADF8120036
:101B500002A9C34805F0F6F80121C14805F07AF959
:101B6000BB48783003F0ECFF4FF000600790402056
:101B70000A90BC48099096200B90B948001D089027
:101B800000200C904FF480600D9000200E900F907C
:101B900010904FF400301190002012900320139009
:101BA00000201490159007A9A948783004F06AF82D
:101BB00001228021AA4805F0FAF901221021A44847
:101BC000783004F026F90121A148783004F094F827
:101BD00016B010BD10B596B004460121202003F0C8
:101BE00083FC0121042003F03BFC0121880503F064
:101BF00037FCC020009002208DF8040000208DF8F2
:101C000006008DF8070003208DF80500694693480B
:101C100003F0E0F908220621904803F066FA082252
:101C200007218E4803F061FA02940020ADF80C0001
:101C3000ADF80E00ADF81000ADF814000C20ADF8B2
:101C4000120002A9884805F07DF80121864805F0B8
:101C500001F94FF4A06003F0DFF839208DF8180087
:101C600003208DF8190001208DF81A008DF81B0053
:101C700006A803F0D6F87D4803F062FF4FF020601D
:101C8000079000200A907A48099010200B9076481F
:101C9000001D089000200C904FF480600D900020F3
:101CA0000E900F904FF4807010904002119004201D
:101CB00012900320139000201490159007A96B48F0
:101CC00003F0E0FF01224021674805F070F901228E
:101CD0001021664804F09DF80121644804F00CF8D6
:101CE00016B010BD0EB50020029001900090604823
:101CF000007802282ED15E48407801905C48C07878
:101D00005B49897840EA0120009059490978584A8E
:101D100052781144564A92781144554AD27888181C
:101D2000C11700EB11610912A0EB0121C9B20291A8
:101D30004F4800799DF8081088420BD14C484079F3
:101D4000032807D19DF804004A490870BDF8000037
:101D5000494908800EBD00B585B00121082003F077
:101D60007FFB0121880303F0BFFB00208DF81000EA
:101D700001208DF813000C20039003A9364803F0CE
:101D800029F90221032005F0ABF90420009000207E
:101D90008DF8040010208DF8050001208DF8060054
:101DA000684604F0AFF808208DF8080000208DF890
:101DB00009008DF80A0001208DF80B0002A803F03D
:101DC00030F805B000BD70B504460D46012C0BD1AE
:101DD00029462A4805F069F800BF4021274805F048
:101DE00014F90028F9D028E0032C0BD12946244807
:101DF00005F05BF800BF4021214805F006F90028F6
:101E0000F9D01AE0042C0BD12946124805F04DF800
:101E100000BF40210F4805F0F8F80028F9D00CE089
:101E2000052C0AD129460E4805F03FF800BF402195
:101E30000B4805F0EAF80028F9D070BD00201149E0
:101E400048621149086011490860114908607047EB
:101E500040600240004C0040000C0240000802407C
:101E60000050004046050020001401402864024054
:101E700037060020570100205801002000100140C3
:101E80000048004000000140640000202408004099
:101E9000800000200020FE494862FE4908604FF0A3
:101EA00080414862FC490860FC490860FC490860C0
:101EB000FC490860FC490860FC490860FC4908606E
:101EC000704700204FF080414862F3490860704736
:101ED0000020F2490860F2490860704710B5002000
:101EE000F4490870002407E061210120FFF76BFF2F
:101EF0003220FEF7C6FD641C022CF5D30120ED490B
:101F000008707A20EC49087010BD10B50020EB492C
:101F10000870002407E061210320FFF754FF3220FE
:101F2000FEF7AFFD641C022CF5D30120E3490870D5
:101F30007A20E349087010BD2DE9F14FAEB0E1A061
:101F40002D9000202C908DF888008DF860002E9840
:101F5000122831D2DFE800F009313A41484F565F8C
:101F600068717A81888F96309DFE0221DE4803F0E9
:101F700093F888B100224FF40041DC4803F0AAF83E
:101F80004FF40041D94803F094F80446002221465A
:101F9000D7A0FEF755FB0FE00122D103D34803F091
:101FA00099F84FF40041D14803F083F80446002229
:101FB0002146D7A0FEF744FB66E10122DC48B0F9D8
:101FC00000004142DBA0FEF73BFB5DE10222DB4863
:101FD0000168DBA0FEF734FB56E10322DB48016811
:101FE000DBA0FEF72DFB4FE10422DC480168DCA0FA
:101FF000FEF726FB48E10522DD480168DDA0FEF77B
:102000001FFB41E1FEF75DFC044606222146DCA0F1
:10201000FEF716FB38E1FEF7A3FC04460722214633
:10202000DAA0FEF70DFB2FE1FEF7C6FC04460822FE
:102030002146D9A0FEF704FB26E1FEF7E7FC0446A3
:1020400009222146D7A0FEF7FBFA1DE1D848017905
:102050000A22D8A0FEF7F4FA16E10B22D74801783D
:10206000D7A0FEF7EDFA0FE10C22D8480188D8A0DE
:10207000FEF7E6FA08E10D22D8480168D8A0FEF77D
:10208000DFFA01E10E22DA480168DAA0FEF7D8FA99
:10209000FAE00121DB4802F0FFFF4FF400511790F6
:1020A000924802F0F9FF04460221D64802F0F4FFFC
:1020B00005464FF480418D4802F0EEFF06460421AC
:1020C000D04802F0E9FF4FF400411690CD4802F0ED
:1020D000E3FF07460821CB4802F0DEFF80464FF4BD
:1020E0008041C84802F0D8FF81461021C54802F05F
:1020F000D3FF4FF400511590C24802F0CDFF824645
:102100000821C14802F0C8FF4FF480511490BD4827
:1021100002F0C2FF10211390BB4802F0BDFF4FF444
:1021200080611290B74802F0B7FF83468021B5481E
:1021300002F0B2FF4FF480711190B24802F0ACFF90
:1021400010901798CDE90B65CDE90D401698CDE9B3
:10215000079800E019E0CDE90970DDE91312159840
:10216000CDE9042A03910690DDE91110CDE9001BA9
:102170000290A6A2282122A8109B07F0D3F91022D2
:1021800022A9ABA0FEF7AFFA7EE08021564802F00C
:1021900090FF04460121544802F08BFF0546402180
:1021A000514802F086FF06464FF40041964802F07F
:1021B00080FF07464FF480519E4802F07AFF804628
:1021C0004FF48061484802F074FF81464FF400618B
:1021D000984802F06EFF4FF400611790424802F0F9
:1021E00068FF82464FF48061874802F062FF8346B1
:1021F0004FF480513C4802F05CFF4FF400611690B0
:10220000814802F056FF4FF400511590364802F015
:1022100050FF4FF4804114907B4802F04AFF4FF486
:1022200080411390304802F044FF4FF480711290C7
:10223000804802F03EFF4FF4004111902A4802F01E
:1022400038FFCDE90B76CDE90D5410901798CDE904
:1022500007A0CDE90998DDE915211498CDE9051B02
:10226000CDE90302DDE911121398CDE900120290C5
:1022700066A2282122A8109B07F054F9112222A956
:102280006DA0FEF730FA00BF00BF2FB0BDE8F08FA1
:102290000000014064000020680000202404004089
:1022A0006C0000202408004080000020240C004026
:1022B0007000002089000020880000208B00002092
:1022C0008A00002031313131313131313131313118
:1022D00031313131313131313131303131313131EF
:1022E000313131310000000000040240000802409A
:1022F000524F424F5420322044414E4720434841E0
:10230000592053414E2058414E483A202020000089
:10231000524F424F5420322044414E4720434841BF
:10232000592053414E20444F3A2020200000000005
:1023300084000020494D553A00000000A000002014
:10234000474F432042414E3A00000000F80200206F
:1023500066696E616C5F43414D3A0000F0020020F7
:102360004C75632042616E5F43414D3A200000008E
:102370009800002047545F4C617A652000000000FF
:10238000454E434F4445525F464C2000454E434F17
:102390004445525F46522000454E434F4445525FEC
:1023A000524C2000454E434F4445525F525220004C
:1023B0002806002042544E3A000000005701002039
:1023C0006F6666736574203A0000000058010020B3
:1023D00064697374616E63653A000000FC0200205A
:1023E00046696E616C5F4C617A65723A000000006C
:1023F000F40200204C75632042616E204C617A65C6
:102400007200000000100240000C024025642564A8
:102410002564256425642564256425642564256474
:102420002564256425642564256425640000000076
:10243000493A0000000002404F55543A00000000A5
:1024400010B50121F94803F057FC10BD01B5F8485B
:1024500000680099884203DD0020F549086004E027
:10246000F3480068401CF2490860F1480068FFF733
:1024700063FD08BD10B5FEF79FFAEE490860FEF750
:10248000C5FAED490860FEF71CFAEC490860FEF752
:1024900067FAEB49086010BD2DE9F0412DED088B7E
:1024A00006460F46304606F000FE41EC190B9FED44
:1024B000E51BB0EE490AF0EE690A07F04FFBB0EEFB
:1024C000408AF0EE608A51EC180B06F0FFFD0446DE
:1024D000002C02DBA4F5E16401E004F5E164384678
:1024E00006F0E3FD41EC1B0B9FEDD61BB0EE4B0A53
:1024F000F0EE6B0A07F032FBB0EE409AF0EE609A15
:10250000304606F0D2FD41EC1B0B9FEDCE1BB0EE2A
:102510004B0AF0EE6B0A07F021FBB0EE40AAF0EE9A
:1025200060AA53EC192B51EC1A0B06F0D7FC41ECC6
:10253000180B06F0CBFD05462846211E01DB0A4696
:1025400000E04A42002801DB034600E043429A4291
:1025500005DA25464FF0FF30BC49086003E03546F8
:102560000120BA4908602846BDEC088BBDE8F0811F
:102570000146FA2901DDFA2102E0032900DA0221ED
:10258000C8B2704730B505460C4625B9B04800784A
:10259000B049C87716E0B04890ED000AB5EEC00A21
:1025A000F1EE10FA07DD2846FFF7E2FFA949C877E8
:1025B0000020887706E06842FFF7DAFFA549C87770
:1025C0000120887724B9A2480078A249C87516E08E
:1025D000A24890ED000AB5EEC00AF1EE10FA07DD50
:1025E0002046FFF7C5FF9B49C8750020887506E0A7
:1025F0006042FFF7BDFF9749C8750120887522B971
:10260000934800789349C87116E0954890ED000A08
:10261000B5EEC00AF1EE10FA07DD1046FFF7A8FF8D
:102620008C49C8710120887106E05042FFF7A0FF75
:102630008849C8710020887123B985480078854988
:10264000C87316E0874890ED000AB5EEC00AF1EEB7
:1026500010FA07DD1846FFF78BFF7E49C87301208B
:10266000887306E05842FFF783FF7A49C873002059
:10267000887330BD10B57C4C20607C4C21607C4C54
:1026800022607C4C236010BD724AD077D075D07127
:10269000D07370476F48C07F03280DDA6D48C07D46
:1026A000032809DA6B48C079032805DA6948C07B3A
:1026B000032801DA012070470020FCE701206E4961
:1026C000086070476D48006847F23051884201D079
:1026D000012070470020FCE710B5FFF7FFFB10BD9D
:1026E0006748B0F9000040427047B5EEC00AF1EE0D
:1026F00010FA09D26348D0ED000A70EE600AFDEED0
:10270000E00A10EE900A70475E48D0ED000A70EEC5
:10271000200AFDEEE00A10EE900AF4E710B52DED68
:102720000A8B044624B99FED580ABDEC0A8B10BDF4
:10273000002C25DA5548006806F0B7FC41EC190B6F
:10274000204606F0B2FC41EC1C0B9FED510B53EC04
:10275000102B06F0C9FB41EC1B0B9FED4F0B53EC0C
:10276000102B06F0BBFB41EC1A0B53EC192B06F0B7
:102770002DFC41EC180B06F0F3FC00EE100AD4E738
:102780004248006806F091FC41EC190B204606F027
:102790008CFC41EC1C0B9FED3E0B53EC102B06F018
:1027A000A3FB41EC1B0B9FED3C0B53EC102B06F0F5
:1027B000F4FA41EC1A0B53EC192B06F007FC41EC30
:1027C000180B06F0CDFC00EE100AAEE7F0EE400A62
:1027D000F5EEC00AF1EE10FA02DBB0EE600A7047C7
:1027E000B1EE600AFBE70146002901DB08467047AD
:1027F0004842FCE701462A48D0ED000AF1EE600AA3
:102800002848D0ED001A80EEA11A00EE901AF8EEDA
:10281000E01A2348D0ED000A41EE210AB0EE600A2A
:10282000FDEEC00A10EE900A70470000A060024062
:102830007C000020300300203403002038030020F7
:102840003C030020000000000020AC404C020020AF
:10285000A0010020040000200C0200201002002033
:102860001402002018020020340200203802002048
:102870002C0200203002002088020020CC01002021
:10288000840000206001002000000000B80100204A
:10289000EC51B81E85EBB13F9A9999999999B93F36
:1028A000980100209C010020B0EE402ADFEDFE2AB6
:1028B000B0EE620AB5EEC02AF1EE10FA03D2F1EEE4
:1028C000422AB0EE622AF5EEC00AF1EE10FA03D207
:1028D000F1EE602AF0EE620AB5EEC01AF1EE10FADF
:1028E00003D2F1EE412AB0EE621AF5EEC01AF1EE13
:1028F00010FA03D2F1EE612AF0EE621AB4EEC02AA9
:10290000F1EE10FA01DDB0EE420AF4EEC00AF1EE8B
:1029100010FA01DDB0EE600AB4EEC01AF1EE10FA62
:1029200001DDB0EE410AF4EEC01AF1EE10FA01DD5D
:10293000B0EE610A7047DD4800687047DC48006807
:10294000704710B52DED048BF0EE408AB0EE608A32
:10295000D848D0ED000AD84890ED000A07F0A8FF4B
:10296000B0EE409A08F0DBFBBDEEC00A10EE104A54
:10297000D24880ED008AD24880ED008AB0EE680A25
:1029800008F0C8FAF0EE000A20EE200ACD4880EDEB
:10299000000AB0EE680A06F045FFF0EE000A20EEED
:1029A000200AC94880ED000A90ED000AF2EE040A00
:1029B00020EE200AC54880ED000AB0EE680A08F053
:1029C000A9FAB0EE409AFFF790FE00EE100AB8EEBA
:1029D000C00ABF4880ED000ABA4890ED000AB74827
:1029E000D0ED000A30EE600ABA4880ED000AB54822
:1029F00090ED000AB148D0ED000A30EE200AB6484A
:102A000080ED000AB04890ED000AAD48D0ED000A14
:102A100030EE600AB14880ED000AAB4890ED000A44
:102A2000A748D0ED000A30EE200AAD4880ED000A3C
:102A3000AA48D0ED000AA84890ED000A06F0CAFDA9
:102A4000DFEDA80A20EE200AA748D0ED000A80EEAC
:102A5000201AA64880ED001AA5480168A34890ED09
:102A6000000ABDEEC00A10EE100AFFF715FD00EED9
:102A7000100AB8EEC00A9D4880ED000A9D4890ED0E
:102A8000000AB8EEC00A9C4880ED000A9248D0EDDA
:102A9000000A60EEA00A914890ED001AD0ED001AED
:102AA00041EE210AB0EE600A08F039FB9148D0ED02
:102AB000000AF8EEE00A20EE200A904880ED000AB5
:102AC0008748D0ED000A844890ED000A06F082FDA8
:102AD000DFED840A20EE200A8348D0ED000A80EE64
:102AE000201A874880ED001A86480168844890EDD6
:102AF000000ABDEEC00A10EE100AFFF7CDFC00EE92
:102B0000100AB8EEC00A7E4880ED000A794890EDC0
:102B1000000AB8EEC00A7C4880ED000A6E48D0ED8D
:102B2000000A60EEA00A6E4890ED001AD0ED001A7F
:102B300041EE210AB0EE600A08F0F1FA6D48D0EDDE
:102B4000000AF8EEE00A20EE200A704880ED000A44
:102B50006348D0ED000A5F4890ED000A06F03AFDA8
:102B6000DFED600A20EE200A5F48D0ED000A80EE1B
:102B7000201A674880ED001A66480168644890EDA5
:102B8000000ABDEEC00A10EE100AFFF785FC00EE49
:102B9000100AB8EEC00A5E4880ED000A554890ED74
:102BA000000AB8EEC00A5C4880ED000A4948D0ED42
:102BB000000A60EEA00A4A4890ED001AD0ED001A13
:102BC00041EE210AB0EE600A08F0A9FA4948D0EDBA
:102BD000000AF8EEE00A20EE200A504880ED000AD4
:102BE0003E48D0ED000A3B4890ED000A06F0F2FCAA
:102BF000DFED3C0A20EE200A3B48D0ED000A80EED3
:102C0000201A474880ED001A46480168444890ED74
:102C1000000ABDEEC00A10EE100AFFF73DFC00EE00
:102C2000100AB8EEC00A3E4880ED000A314890ED27
:102C3000000AB8EEC00A3C4880ED000A2548D0EDF5
:102C4000000A60EEA00A254890ED001AD0ED001AA7
:102C500041EE210AB0EE600A08F061FA2548D0ED95
:102C6000000AF8EEE00A20EE200A304880ED000A63
:102C7000BDEC048B10BD10B52DED028BB0EE408A7B
:102C80002B48006847F23051884268D19FED290AED
:102C900028EE000A284880ED000AD0ED000A9FEDDA
:102CA000270AFFF74EFE4BE06F12833AB80100206F
:102CB000E801002074020020780200206802002051
:102CC0006C02002050020020540200207C020020F0
:102CD00080020020580200205C02002060020020D8
:102CE000640200200000E144AC010020200200202A
:102CF0003C0300204C0200201002002000020020B3
:102D00001C020020380300200C020020FC010020DF
:102D100024020020300300201402002004020020BE
:102D2000280200203403002018020020080200209E
:102D3000CC0100200000E1437002002000000000F0
:102D40001FED020AFE4880ED000AFE4880ED000AF1
:102D5000FD4880ED000AFD4880ED000A21E0FC48B6
:102D60000068FC490968401AFB490968081A00EE26
:102D7000100AB8EEC00AF948D0ED000A20EE200A89
:102D8000F748D0ED000AC0EE208AF64890ED000A20
:102D9000F54880ED000AD0ED000AB0EE680AFFF7B2
:102DA000D0FDB5EEC08AF1EE10FA75D0EF4800689C
:102DB000052870D2DFE800F00371879DB300EC486E
:102DC00090ED000AFAEE040AB4EEE00AF1EE10FA11
:102DD00008D390ED000AF2EE040AB4EEE00AF1EE38
:102DE00010FA1CDDD94890ED000A30EE080A80ED9B
:102DF000000AD54890ED000A30EE480A80ED000A3E
:102E0000D04890ED000A30EE080A80ED000ACC4868
:102E100090ED000A30EE480A80ED000A3BE0D5480C
:102E200090ED000AD448D0ED000A60EE200AC748B1
:102E300090ED000A00EE880A80ED000ACD4890ED82
:102E4000000ACE48D0ED000A60EE200ABE4890EDA0
:102E5000000A00EE880A80ED000AC64890ED000ADC
:102E6000C748D0ED000A60EE200AB64890ED000A8F
:102E700000EEC80A80ED000ABE4890ED000AC14885
:102E8000D0ED000A60EE200AAD4890ED000A00EE99
:102E9000C80A80ED000A58E058E0AB4890ED000AFF
:102EA00030EE480A80ED000AA64890ED000A30EEA8
:102EB000080A80ED000AA24890ED000A30EE480AA8
:102EC00080ED000A41E0A14890ED000A30EE080ACA
:102ED00080ED000A9B4890ED000A30EE080A80ED74
:102EE000000A974890ED000A30EE480A80ED000A8B
:102EF0002BE0964890ED000A30EE080A80ED000ABB
:102F0000914890ED000A30EE480A80ED000A8C48A6
:102F100090ED000A30EE480A80ED000A15E08B487B
:102F200090ED000A30EE080A80ED000A864890ED28
:102F3000000A30EE480A80ED000A824890ED000A4F
:102F400030EE080A80ED000A00BF00BF7C48D0EDDB
:102F5000001A7C4890ED001A7B48D0ED000A7B48AF
:102F600090ED000AFFF7A0FC8748D0ED000AF8EECC
:102F7000E00A80EE801ABDEEC10A844880ED000AA6
:102F80008348006881490968884203DD7F480068FA
:102F90007F49086001207F490860BDEC028B10BDAD
:102FA00010B5044600207C4908607C480460FCB9E8
:102FB0000020774908601FED9F0A794880ED000ADC
:102FC00047F2305064490860764908601FEDA50A51
:102FD000644880ED000A0020644908607249086076
:102FE00072490860724908601FEDAC0AFFF743FEA2
:102FF00010BD10B55B4890ED000AB5EEC00AF1EEC9
:1030000010FA05D15948006810B96748006890B1B6
:103010001FEDB60A534880ED000A002053490860AE
:10302000614908604A4800684A4908604D4890ED87
:10303000000AFFF720FE10BD5E48C0ED000A5E48A2
:1030400080ED000A704770B52DED028B05460C46E9
:10305000B0EE408A40480068A8420BD14E48006854
:10306000A04207D14E4890ED000AB4EE480AF1EEB6
:1030700010FA18D0484804604548006810B9052087
:10308000434908603248006832490860444880ED8E
:10309000008A31480560002048490860314890EDB9
:1030A000000AFFF7E8FDBDEC028B70BD70B52DED99
:1030B000028B0446B0EE408A0D463B480068A042B1
:1030C0000BD1284890ED000AB4EE480AF1EE10FA50
:1030D00003D126480068A84279D01F48006847F20B
:1030E0003051884222D124202B4908600C202849E5
:1030F000086047F23050844218DA01202B490860FA
:10310000B5EEC08AF1EE10FA03DD11480068A04266
:1031100008DCB5EEC08AF1EE10FA07D20C48006860
:10312000A04203DAB1EE480AB0EE408A1E480460BD
:103130000E4805600B4880ED008A00201F4940E0E2
:10314000080200200402002000020020FC010020F0
:10315000F0010020D8010020CC010020A8010020AF
:1031600078010020E001002070020020B40100205E
:103170007C020020500200200C02002010020020DF
:1031800014020020180200205C010020C001002071
:10319000B8010020B0010020BC010020C4010020C3
:1031A000E4010020D0010020D4010020E80100202B
:1031B00088020020980100209C010020C801002006
:1031C00005E00860FE4890ED000AFFF754FDBDECF5
:1031D000028B70BD10B52DED028BB0EE408A044617
:1031E0002146B0EE480A47F23050FFF75FFFBDECD2
:1031F000028B10BD70B504460D469FEDF20A2946BC
:103200002046FFF720FF70BD10B52DED088BF0EEC6
:10321000408A0446B0EE608AB0EE419AEA4890EDEA
:10322000000AB8EEC00AB4EE680AF1EE10FA0DD149
:10323000E6480068A04209D1E54890ED000AB8EEE2
:10324000C00AB4EE480AF1EE10FA5ED0BDEEE80A0C
:10325000DD4880ED000ADF4991ED000AB8EEC00AB2
:1032600038EEC00ABDEEC00A10EE100A9FEDD50A76
:103270002146FFF7E8FED748D0ED000AF8EEE00A55
:1032800078EE600AB0EE600AFFF7A0FADFEDD20A2E
:10329000B4EEE00AF1EE10FA14DDCE4890ED000A2B
:1032A000B8EEC00AB4EEC08AF1EE10FA02DDB0EE5C
:1032B000490A01E0B1EE490A10EE101A084605F07D
:1032C00024FF13E0C34890ED000AB8EEC00A38EEC0
:1032D000400A10EE101A084605F017FF41EC1B0BD0
:1032E0009FEDBE0B53EC102B05F0FEFD41EC1A0BCD
:1032F00005F036FF09EE900A0021B0EE690AFDEEF6
:10330000C80A10EE900AFFF7D1FEBDEC088B10BD85
:1033100010B5B448006801283DDDAD490968AD4AE3
:103320001268881AFFF75FFA0A280CDAAD480168BC
:103330000068401CAB4A1060B1F5FA7F2BDD00201D
:10334000FFF72EFE10BDA7480068FA2808DD05200B
:103350009E490860A4490860FB20A249086004E077
:1033600005209A490860A04908609A480068984971
:103370000968884205DDBFEE000A914880ED000A29
:1033800004E0B7EE000A8E4880ED000A8C4890ED0C
:10339000000AFFF770FC00BFD4E710B52DED028BDB
:1033A000924890ED000AB5EEC00AF1EE10FA08D18D
:1033B0008D48006828B18648006847F2305188423D
:1033C00002DBBDEC028B10BD7D4890ED000AB5EE2E
:1033D000C00AF1EE10FA7DD08548006847F23051FE
:1033E000884278D1764890ED000AB5EEC00AF1EE39
:1033F00010FA08DD764800687E490968401A754968
:103400000968884210DB6E4890ED000AB5EEC00AEC
:10341000F1EE10FA7DD26E480068764909680844DA
:103420006C490968884274DD6E48006805285BDADB
:1034300067490968674A1268881AFFF7D4F9322881
:1034400016DA634800686C49086000206649086025
:103450005E4908609FED5B0A594880ED000A022032
:1034600060490860564890ED000AFFF704FCA8E7A1
:103470005748006857490968884236DD5A4890ED38
:10348000000AB8EEC00A4E48D0ED000A60EE200AED
:10349000584890ED000AB8EEC00AC0EE801AB0EEAF
:1034A000611AB0EE410AFFF791F949490968494AA2
:1034B0001268881AFFF797F900EE900AB8EEE01A42
:1034C000F1EE040A40EE010A474890ED000AB8EE1A
:1034D000C00A01E0C9E044E080EE801AB0EE418A03
:1034E000B0EE480AFFF7C7FBBEE03F4890ED000A88
:1034F000B8EEC00A3248D0ED000A60EE200A3D481E
:1035000090ED000AB8EEC00AC0EE801AB0EE611A63
:1035100000E020E0B0EE410AFFF758F92C490968B5
:103520002C4A1268881AFFF75EF900EE900AB8EE8E
:10353000E01AF1EE040A50EE410A2B4890ED000A21
:10354000B8EEC00A80EE801AB0EE418AB0EE480AAA
:10355000FFF791FB88E01A4890ED000AFFF78BFB1C
:1035600082E0174890ED000AB5EEC00AF1EE10FABD
:103570001FDD174890ED000AB8EEC00A1A48D0EDDA
:10358000000AF8EEE00A0E4890ED001A00EEC10ABB
:103590001A48D0ED000AF8EEE00A70EE600A0D4815
:1035A00090ED000AB8EEC00AF4EEC00AF1EE10FA8F
:1035B00049D3034890ED000AB5EEC00A20E00000B0
:1035C000E001002000000000D0010020BC0100202C
:1035D000D4010020F001002000004842FCA9F1D2F3
:1035E0004D62403FE8010020B8010020E4010020C6
:1035F000CC01002094010020EC010020900100206B
:10360000F1EE10FA2BD2F84890ED000AB8EEC00A9D
:10361000F648D0ED000AF8EEE00AF54890ED001A01
:1036200000EEC10AF348D0ED000AF8EEE00A70EEB1
:10363000200AF14890ED000AB8EEC00AF4EEC00A84
:10364000F1EE10FA0BDDE8490968EB4A1268881AB6
:10365000FFF764F8B0EE408AFFF70DFB04E0E448A2
:1036600090ED000AFFF707FBABE6E4490968E24A80
:103670001268881AFFF752F8B0EE408AFFF7FBFA9B
:1036800000BF9EE600B5DE480068022815DA1FED8F
:10369000330ADC4880ED000A1FED360AD44880ED7D
:1036A000000A0020D849086047F23050D749086026
:1036B000D74908600020CC490860D6480068401C03
:1036C000D4490860D4490968884204DAD3480068BC
:1036D000FEF7DAFF0EE0D0480068CE490860D04817
:1036E000006820B1CD480068FEF7CEFF02E0002060
:1036F000FEF7CAFF00BDC74A1268521CC54B1A60CC
:10370000824207DDB94A12680A44B84B1A600022A7
:10371000C04B1A6070472DE9F041FEF7E1FFB64952
:103720000860FFF7F5FDBF480068002821DDAF48BD
:103730000068BC49096888422AD0AC480068B94989
:10374000096888420EDAA9480068B74909688842C2
:103750001EDAA6480068FFF74DF804460121FFF77E
:10376000CAFF15E04FF0FF31B0480068FFF7C3FF14
:103770000EE09E480068002806DD4FF0FF31AC489F
:103780000068FFF7B8FF03E0FFF77CFFBDE8F081BA
:10379000A848006898490968884205D0FFF7FDFDF0
:1037A00095480068A3490860A3480068F0B38F48B3
:1037B000D0ED000AF8EEE00AA04890ED001A60EEA5
:1037C000810AB0EE600AFEF790FF04468748D0ED0C
:1037D000000AF8EEE00A9A4890ED001A60EE810ABD
:1037E000B0EE600AFEF781FF05468048D0ED000A82
:1037F000F8EEE00A934890ED001A60EE810AB0EE10
:10380000600AFEF772FF06467848D0ED000AF8EE2F
:10381000E00A8D4890ED001A60EE810AB0EE600A71
:10382000FEF763FF074623462A4600E020E03146C4
:10383000FEF7A8FE854890ED000ABDEEC00A10EE26
:10384000103A834890ED000ABDEEC00A10EE102A2F
:10385000804890ED000ABDEEC00A10EE101A7E48B6
:1038600090ED000ABDEEC00A10EE100AFEF702FF4E
:1038700000BF8BE710B57948807988B37748007826
:1038800000F0800060B376480078764981F82B001C
:1038900081F8270081F82F00012081F82E000020F8
:1038A00081F8260081F82A0043F6982004F0F4FD00
:1038B000FA206C4981F8330044F6206004F0ECFDF6
:1038C0000020684981F82B0081F8270081F82F003B
:1038D00081F8330000224FF40051634801F0FAFBF5
:1038E0005E48807988BB5D48007800F0800060B356
:1038F0005E4800785B4981F82B0081F8270081F849
:103900002F00012081F82E00002081F8260081F888
:103910002A0043F6982004F0BFFDFA20514981F8AF
:10392000330044F6206004F0B7FD00204D4981F8D3
:103930002B0081F8270081F82F0081F83300002246
:103940004FF40051484801F0C5FB4448407800F06E
:103950008000D8B12820434981F82B0081F8270046
:1039600081F82F00002081F82E00012081F8260028
:1039700081F82A0044F6206004F08EFD00203949C9
:1039800081F82F0081F8270081F82B0010BD334803
:10399000407800F0400020B1FA20324981F833002D
:1039A00003E000202F4981F83300704710B52DED5A
:1039B0000A8B04469FED2E0AF0EE409AA4F16400B3
:1039C00000EE100AB8EEC00AB0EEC00AF0EE408A6F
:1039D000B0EE080AF4EEC08AF1EE10FA4CD89FED72
:1039E000250ABDEC0A8B10BDD4010020B8010020CF
:1039F000E001002090010020F0010020D80100200B
:103A0000E8010020E4010020B4010020CC010020E6
:103A1000D0010020C8010020A4010020A001002046
:103A200088020020BC010020C0010020F801002015
:103A3000C4010020F4010020B00100200802002091
:103A40000402002000020020FC01002028020020C7
:103A500024020020200200201C0200202806002052
:103A6000F80200200400002000040240FC020020B4
:103A7000D578693D000000005FED030A68EEA00AFA
:103A8000B0EE600A07F068FBB0EE409AB2EE0C0AA6
:103A9000F4EEC08AF1EE10FA02D29FEDF88A19E036
:103AA00019EE100A05F031FB41EC1C0B9FEDF40BF5
:103AB00053EC102B05F018FA41EC1B0B9FEDF20BA9
:103AC00053EC102B05F069F941EC1A0B05F048FB9B
:103AD00008EE100A18EE100A05F017FB41EC1A0B5D
:103AE0009FEDEB0B53EC102B05F022FB03D29FED67
:103AF000EA0AB0EE408AB0EE480ABDEC0A8B10BD6F
:103B000010B52DED028B04462046FFF74FFFB0EEB7
:103B1000408A622C05DB662C03DC0020FFF740FAAC
:103B20000EE0612C05DA0020B1EE480AFFF752FBE7
:103B300006E0672C04DD0020B0EE480AFFF74AFBE0
:103B4000BDEC028B10BD10B50446022C0AD0032C2C
:103B50000DD0042C11D0052C13D13221CF48FFF702
:103B600049FB0EE03221CE48FFF744FB09E0322149
:103B70004FF4E170FFF73EFB03E00020FFF710FA7F
:103B800000BF00BF10BD10B52DED0A8BF0EE408ACE
:103B90001FED480AB0EE40CA1FED4A0AB0EE408A57
:103BA0009FEDC00AC8EE800A10EE904A204605F04C
:103BB000ACFA41EC1B0B9FEDBC1BB0EE4B0AF0EED8
:103BC0006B0A06F04DF8B0EE40AAF0EE60AA9FED49
:103BD000B80B53EC102B51EC1A0B05F085F941ECA6
:103BE000190B05F0BDFA08EE100A9FEDB30AB4EE0A
:103BF000C08AF1EE10FA04DD9FEDAF0AB0EE408A04
:103C00000AE09FEDAE0AB4EEC08AF1EE10FA03D2DC
:103C10009FEDAA0AB0EE408A9FEDA20A78EEC00A94
:103C20009FEDA01A80EE810ADFEDA40A20EE200AA3
:103C300010EE104A204605F068FA41EC1B0B9FED90
:103C4000A00B53EC102B05F04FF941EC1A0B9FED34
:103C50009E0B53EC102B05F0A0F841EC190B05F06E
:103C60007FFA08EE100A9FED9A0AB4EEC08AF1EED0
:103C700010FA04DD9FED960AB0EE408A0AE09FED4F
:103C8000950AB4EEC08AF1EE10FA03D29FED910AC4
:103C9000B0EE408ABDEEC80A8F4880ED000ABDEE46
:103CA000C80A8E4880ED000ABDEC0A8B10BD10B525
:103CB0002DED088BF0EE408A1FED920AF0EE409A4F
:103CC0001FED940AB0EE408A28EEA80A10EE101AF2
:103CD000084605F01AFA41EC1B0BB0EE4B0AF0EE69
:103CE0006B0A07F0DFF9B0EE40AAF0EE60AA51ECE3
:103CF0001A0B05F035FA09EE100A9FED790AC9EEA4
:103D0000000A9FED780A20EE800AB0EE408A9FED0F
:103D10006A0AB4EEC08AF1EE10FA04DD9FED660A7D
:103D2000B0EE408A0AE09FED650AB4EEC08AF1EE7B
:103D300010FA03D29FED610AB0EE408ABDEEC80AC8
:103D4000694880ED000A00686849086066480068B4
:103D5000002808DB64480068632804DCB2EE080A27
:103D6000634880ED000A60480068642808DB5E480C
:103D70000068702804DC9FED5F0A5D4880ED000A52
:103D800059480068712808DB574800687C2804DC23
:103D9000B2EE060A564880ED000A534800687D28B6
:103DA00008DB51480068862804DCB2EE050A50485A
:103DB00080ED000A4C480068872808DB4A48006804
:103DC000942804DC9FED4C0A494880ED000A4648DF
:103DD0000068952808DB444800689A2804DC9FEDB9
:103DE000470A434880ED000A3F4800689B2808DBEB
:103DF0003D480068AA2804DC9FED410A3C4880ED5C
:103E0000000A39480068AB2808DB37480068B42846
:103E100004DC9FED3C0A364880ED000A3248006819
:103E2000B52808DB30480068C72804DC9FED360A57
:103E30002F4880ED000A2C480068C82808DB2A4873
:103E40000068FA2804DC9FED300A294880ED000A5A
:103E5000254890ED000AB8EEC00A2548D0ED000ACA
:103E600020EE200AF2EE040A80EE201ABDEEC10A0E
:103E70001E4880ED000ABDEC088B10BD2AC6993D96
:103E8000C3F5285C8FC2B53F333333333333B33F8D
:103E90007B14AE47E17AC43F0AD7233E3EFEFFFFC4
:103EA000BAFAFFFF00A07F459A9999999999F13F35
:103EB0000000000000805A4000007A4300004842A1
:103EC000666666666666E63F0000000000C08240E7
:103ED0000000164400800944080300200C03002061
:103EE00000401C4500000C43F0020020F8020020B6
:103EF0000003002066663641CDCC2441CDCC1C4168
:103F000000001C4166661A416666164110B52DED2B
:103F1000088BF0EE408A9FEDFD0AF0EE409A9FED8F
:103F2000FB0AB0EE408A28EEA80A10EE101A0846E6
:103F300005F0EBF841EC1B0BB0EE4B0AF0EE6B0A10
:103F400007F0B0F8B0EE40AAF0EE60AA51EC1A0B00
:103F500005F006F909EE100ADFEDED0A89EE200AF8
:103F6000DFEDEC0A20EE200AB0EE408A1FED2E0AAB
:103F7000B4EEC08AF1EE10FA04DD1FED310AB0EEA6
:103F8000408A0AE01FED330AB4EEC08AF1EE10FA5F
:103F900003D21FED360AB0EE408ABDEEC80ADE48F5
:103FA00080ED000A0068DD490860DB4800683C28B5
:103FB00009DBD9480068B0F5AF7F04DC9FEDD80A73
:103FC000D84880ED000AD44890ED000AB8EEC00A47
:103FD000D448D0ED000A20EE200AF2EE040A80EE6A
:103FE000201ABDEEC10ACD4880ED000ABDEC088B59
:103FF00010BDCD4801680068401CCB4A10606429A0
:1040000007D2CA484089CA4909680844C8490860B3
:104010000BE0C74800686421B0FBF1F0C5490860B7
:104020000020C1490860C2490860C34801680068AF
:10403000401CC14A1060642907D2BC480089BF49AE
:1040400009680844BD4908600BE0BC480068642169
:10405000B0FBF1F0BA4908600020B7490860B749E1
:104060000860B84801680068401CB64A10606429BE
:1040700007D2AE488089B44909680844B24908604B
:104080000BE0B14800686421B0FBF1F0AF49086073
:104090000020AC490860AC490860AD480168006880
:1040A000401CAB4A1060782907D2A048C089A949B2
:1040B00009680844A74908600BE0A6480068782111
:1040C000B0FBF1F0A44908600020A1490860A149B3
:1040D0000860A24801680068401CA04A10600A29D4
:1040E00007D2924880889E49096808449C49086024
:1040F0000BE09B4800680A21B0FBF1F09949086089
:104100000020964908609649086097480168006851
:10411000401C954A1060322907D28448C0889349D0
:1041200009680844914908600BE090480068322112
:10413000B0FBF1F08E49086000208B4908608B4984
:1041400008608C4801680068401C8A4A1060322967
:1041500007D276480088884909680844864908607B
:104160000BE0854800683221B0FBF1F0834908601C
:1041700000208049086080490860704773B52DEDC4
:10418000028B142505269FED610AB0EE408A7C481B
:104190000079322805DB7A480079C82801DC012043
:1041A00000E0002004467648007800F00800D0B90E
:1041B0007348007800F01000A8B97148007800F04A
:1041C000200080B96E48007800F0400058B954B122
:1041D0006B48407800F0400028B90020FEF7E0FE70
:1041E000BDEC028B7CBD6648407800F0020030B127
:1041F0009DF80C50B7EE000AB0EE408A05E09DF83D
:1042000008509FED600AB0EE408A5D48007800F0EB
:10421000080098B15A48007800F0100070B958486A
:10422000007800F0200048B95548007800F04000C0
:1042300020B929465448FEF7DDFFF4E050480078E5
:1042400000F00800A0B94E48007800F0100078B1E6
:104250004B48007800F0200050B94948007800F041
:10426000400028B9294640F24650FEF7C3FFDAE085
:104270004348007800F00800A0B94148007800F0F9
:10428000100078B93E48007800F0200050B13C485A
:10429000007800F0400028B929464FF4E170FEF79D
:1042A000A9FFC0E03648007800F0080098B934480B
:1042B000007800F0100070B93148007800F020005C
:1042C00048B92F48007800F0400020B129462F4817
:1042D000FEF790FFA7E02A48007800F0080098B1A8
:1042E0002748007800F0100070B92548007800F0E9
:1042F000200048B12248007800F0400020B929464B
:104300000020FEF777FF8EE042E000000000000092
:10431000000052430000DC42F4020020FC020020B6
:1043200066661E410403002048030020DC050020CF
:104330004C03002090000020500300205403002074
:1043400094000020580300205C0300209C00002003
:104350006003002064030020980000206803002010
:104360006C030020A00000207003002074030020D4
:10437000AC000020780300207C030020A80000206F
:1043800028060020CDCC4C3E3EFEFFFFBAFAFFFFD0
:10439000FA48007800F0080098B1F848007800F07A
:1043A000100070B9F548007800F0200048B9F348D3
:1043B000007800F0400020B12946F148FEF71AFFCE
:1043C00031E0EE48007800F00800A0B9EB48007832
:1043D00000F0100078B1E948007800F0200050B1FA
:1043E000E648007800F0400028B929464FF4617093
:1043F000FEF700FF17E0E148007800F0080090B9F0
:10440000DE48007800F0100068B1DC48007800F069
:10441000200040B9D948007800F0400018B1294682
:10442000D848FEF7E7FED548007800F00800D0B97C
:10443000D248007800F01000A8B9D048007800F009
:10444000200080B9CD48007800F0400058B954B140
:10445000FEF738F938B1C948407800F0400010B98B
:104460000020FEF79DFD14B1FEF7C3FD27E0C34811
:10447000007932280EDAFEF725F928B10020B1EED6
:10448000480AFEF7A7FE1AE00020B1EE480AFEF740
:10449000A1FE14E0B9480079C8280EDDFEF712F934
:1044A00028B10020B0EE480AFEF794FE07E0002095
:1044B000B0EE480AFEF78EFE01E0FEF79AFD00BF5F
:1044C0008EE610B50020B04988704FF40041AF4827
:1044D00000F0E2FD012804D10220AB49C8700120A0
:1044E00010BD6420A849C8700020F9E710B500206D
:1044F000A54988704FF40041A44800F0CDFD012883
:104500000BD1A348007840B964209F49C8700020AF
:10451000A0490860A049086010BDFCF74DFA041ED0
:1045200001DB204600E060429C490968884208DDC2
:1045300097480078012804D102209349C8700120CF
:10454000EAE732209049C8700120914908700020A4
:10455000E2E710B500208C49887204218B4800F0F6
:104560009BFD012804D102208749C872012010BD9B
:1045700064208549C8720020F9E710B504218348FA
:1045800000F08AFD01280BD18548007840B96420ED
:104590007D49C8720020834908608349086010BDC6
:1045A000FCF734FA041E01DB204600E060427F493C
:1045B0000968884208DD7A480078012804D1022081
:1045C0007149C8720120EAE732206F49C8720120A0
:1045D000734908700020E2E710B500206A49887628
:1045E0004FF48041694800F057FD012804D10220B2
:1045F0006549C876012010BD64206349C876002053
:10460000F9E710B50020604988764FF480415F4893
:1046100000F042FD01280BD16548007840B96420C4
:104620005949C8760020634908606349086010BD95
:10463000FCF747F9041E01DB204600E060425F49B9
:104640000968884208DD5A480078012804D1022010
:104650004D49C8760120EAE732204B49C87601204F
:10466000534908700020E2E710B5002046498874DD
:104670000121464800F010FD012804D102204249E2
:10468000C874012010BD64203F49C8740020F9E7B8
:1046900010B501213D4800F0FFFC01280CD148482D
:1046A000007848B964203849C87400204FF0804130
:1046B00048624449086010BDFCF752F9041E01DB52
:1046C000204600E0604240490968884208DD3C48D5
:1046D0000078012804D102202B49C8740120EAE7A0
:1046E00032202949C8740120354908700020E2E7CA
:1046F00010B5FCF761F935490968441A002C01DB53
:10470000204600E0604214282ADDFCF755F92F49C5
:104710000968884203DD01201B49887002E00020FF
:1047200019498870FCF748F928490968441A002C8F
:1047300001DB204600E06042254908600846006829
:10474000FA2801DDFA200860214800680A2802DA08
:104750000A201F4908601E4800780B49C87002E013
:1047600002200949C87010BD10B5FCF74FF919496E
:104770000968441A002C2FDB20462EE02806002072
:104780007CFCFFFFF8F8FFFF04000020001002404F
:104790001403002024080040800000202003002093
:1047A00015030020240400406C0000202403002096
:1047B00017030020240C0040700000202803002074
:1047C00016030020680000202C0300202C0200208B
:1047D0001803002030020020604214282ADDFCF774
:1047E00015F9DE490968884203DD0120DC49887239
:1047F00002E00020DA498872FCF708F9D749096815
:10480000441A002C01DB204600E06042D5490860D4
:1048100008460068FA2801DDFA200860D1480068DF
:104820000A2802DA0A20CF490860CE480078CC492D
:10483000C87202E00220CA49C87210BD10B5FCF768
:1048400040F8C9490968441A002C01DB204600E001
:10485000604214282ADDFCF734F8C349096888420D
:1048600003DD0120BE49887602E00020BC4988763D
:10487000FCF727F8BC490968441A002C01DB2046E4
:1048800000E06042B749086008460068FA2801DD88
:10489000FA200860B34800680A2802DA0A20B14901
:1048A0000860B0480078AE49C87602E00220AC4902
:1048B000C87610BD10B5FCF753F8AC490968441A26
:1048C000002C01DB204600E0604214282ADDFCF7C2
:1048D00047F8A6490968884203DD0120A049887489
:1048E00002E000209E498874FCF73AF89F49096865
:1048F000441A002C01DB204600E060429949086020
:1049000008460068FA2801DDFA200860954800682A
:104910000A2802DA0A2093490860924800789049F0
:10492000C87402E002208E49C87410BD09E011204D
:10493000FDF78CFD01218E4802F08CFA0F2003F068
:10494000ABFDF4E704E0FFF754FB032003F0A4FD04
:10495000F9E71FE08748007800F0010060B1854862
:10496000C07920B184480078FFF7CAF807E05021E9
:104970000C20FFF703FC02E00A20FEF711FBFFF713
:10498000B7FEFFF7F1FEFFF759FFFFF793FF032094
:1049900003F082FDDEE706E0FDF76CFDFEF7BBFEEF
:1049A000032003F079FDF7E71FB5FCF77BF8FCF770
:1049B000B8F8FCF708FBFCF7C8FBFCF7CEFCFCF7EB
:1049C00053FCFCF742FDFCF717F94FF4E130FCF71C
:1049D00015FE4FF4E130FCF79AFE4FF4E130FCF79E
:1049E00023FF4FF46120FDF758F84FF4E130FDF755
:1049F000F1F8FDF771FE00BFFFF763FD08B9012470
:104A000000E00024FFF7A5FD08B9012000E0002028
:104A10000443FFF729FE08B9012000E00020044309
:104A2000FFF7DAFD08B9012000E000200443002C64
:104A3000E2D100BFFFF75AFD08B9012400E00024CD
:104A4000FFF79BFD08B9012000E000200443FFF7B9
:104A50001FFE08B9012000E000200443FFF7D1FD4C
:104A600008B9012000E000200443002CE2D100201E
:104A700042490860FDF70EFA002000900190029074
:104A800003464FF480723EA10390424803F0C5FAFA
:104A9000002000900190029003464FF480723EA1E6
:104AA0000390424803F0B9FA002000900190029070
:104AB00003464FF480723EA10390424803F0ADFAE2
:104AC000002041490860264981F8380081F8370004
:104AD00081F83D0081F83C0081F8420081F84100F6
:104AE0001CE02448007800F0010088B1374890EDC0
:104AF000000AB8EEC00AFFF709FA3548008800EE50
:104B0000100AB8EE400AFFF7D2F8FEF7B3FE02E053
:104B10001420FEF745FA052003F0BEFCE1E71FB5BF
:104B2000002000900190029003464FF4807229A16A
:104B300003902B4803F071FA00200090019002903E
:104B400003464FF4807227A10390294803F065FAC9
:104B500003F07CFE002004B010BD000030020020F5
:104B60000400002018030020340200203802002036
:104B7000004800402806002057010020B400002013
:104B80007461736B526F626F74416E616C7974699A
:104B900063730000974900087461736B446965751D
:104BA0004B6869656E436F436175000053490008A7
:104BB0007461736B446965754B6869656E436F43D7
:104BC0006175310045490008E80200209800002086
:104BD000580100207461736B4D61696E0000000024
:104BE000A94900087461736B4779726F0000000077
:104BF0002D4900080CB50020019000907248006813
:104C000040F480307049086000BF6F48006800F4CD
:104C1000003000900198401C0190009818B901984C
:104C2000B0F5A06FF1D16848006800F4003010B111
:104C30000120009001E0002000900098012846D15A
:104C400061484030006840F080505F494031086062
:104C50005E48006840F480405C4908605A4808306B
:104C600000685949083108600846006840F400406F
:104C700008600846006840F4A05008605448091FC6
:104C80000860081F006840F08070091F086000BFBE
:104C90004D48006800F000700028F9D040F205602F
:104CA0004C49086048480830006820F00300464935
:104CB000083108600846006840F00200086000BF44
:104CC00041480830006800F00C000828F8D10CBDFD
:104CD00010B53D48006840F001003B4908600020E5
:104CE000394908310860384800683B49084036496E
:104CF00008603A48091D0860081F006820F48020F9
:104D0000091F0860002030490C310860FFF772FF6E
:104D10004FF000603249086010BD70B500200022DD
:104D2000022300240221284D08352D6805F00C00CF
:104D300020B1042806D0082834D107E0294D2A4E96
:104D4000356033E0294D284E35602FE01E4D2D1D76
:104D50002D68C5F380541C4D2D1D2D6805F03F01B5
:104D600054B1224DB5FBF1F5174E361D3668C6F32A
:104D7000881605FB06F209E01A4DB5FBF1F5124E57
:104D8000361D3668C6F3881605FB06F20E4D2D1D3E
:104D90002D68C5F301456D1C6B00B2FBF3F5124E97
:104DA000356003E00F4D104E356000BF00BF064D6B
:104DB00008352D68C5F303150D4E705D0A4D2D683D
:104DC000C540094E356070BD00380240007000409B
:104DD00008544007003C0240FFFFF6FE103000245C
:104DE00008ED00E00024F4008003002000127A00A7
:104DF000840300200648804706480047FEE7FEE798
:104E0000FEE7FEE7FEE7FEE7FEE7FEE7FEE7FEE77A
:104E1000D14C00088901000832490143324A11602F
:104E2000704770B5002100230F22C4781CB32E4CAC
:104E3000246804F4E064C4F5E064C4F30721C1F11C
:104E40000404E3B20A4144789C40E1B284781440FF
:104E500021430C07210E254C05786155047804F098
:104E60001F050124AC4005786D11AD0005F1E0256A
:104E7000C5F8004109E0047804F01F050124AC40A6
:104E80001B4D0678761145F8264070BD194A0A4038
:104E90000243154B1B1F1A60704739B1124A121D8D
:104EA00012680243104B1B1D1A6006E00E4A121DC9
:104EB000126882430C4B1B1D1A607047042808D1EE
:104EC0004FF0E021096941F004014FF0E022116147
:104ED00007E04FF0E021096921F004014FF0E022E2
:104EE000116170470000FA050CED00E000E400E0FD
:104EF00080E100E080FFFF1F10B504468C4884422B
:104F000008D10121084600F000FB0021012000F03B
:104F1000FCFA5EE08748844208D10121022000F0BB
:104F2000F4FA0021022000F0F0FA52E082488442B4
:104F300008D10121042000F0E8FA0021042000F04B
:104F4000E4FA46E07D48844208D10121082000F0BF
:104F5000DCFA0021082000F0D8FA3AE078488442D0
:104F600008D10121102000F0D0FA0021102000F01B
:104F7000CCFA2EE07348844208D10121202000F0B1
:104F8000C4FA0021202000F0C0FA22E06E488442DA
:104F900008D10121402000F0B8FA0021402000F0A3
:104FA000B4FA16E06948844208D10121802000F05B
:104FB000ACFA0021802000F0A8FA0AE0644884429C
:104FC00007D10121801500F0A0FA0021A01500F002
:104FD0009CFA10BDF0B50A4600210023002400BF52
:104FE0003DE0012505FA01F3156805EA03049C423A
:104FF00034D105684F000326BE40B54305601579DE
:105000004E00B5400668354305601579012D02D084
:105010001579022D16D185684F000326BE40B54391
:10502000856055794E00B540866835438560456892
:1050300001268E40B5434560456896798E40B6B2EC
:1050400035434560C5684F000326BE40B543C56083
:10505000D5794E00B540C6683543C560491C102956
:10506000BFD3F0BD4FF6FF710160002101714171A6
:105070008171C171704708B54FF480320092009A77
:105080000A430092009AC261C161009AC261C2697A
:105090000092C269009208BD0246002013690B40CD
:1050A0000BB1012000E0002070470146086980B282
:1050B00070470246002053690B400BB1012000E00D
:1050C000002070470146486980B2704701837047ED
:1050D000418370470AB1018300E041837047416119
:1050E000704742694A4042617047F0B5002300248E
:1050F0004D07ED0E02FA05F3CE1000F1200555F82C
:1051000026504E07F70E0F26BE40B543CF1000F1D4
:10511000200646F82750CE1000F1200555F82650FD
:1051200045EA0304CE1000F1200545F82640F0BD05
:10513000000002400004024000080240000C02404F
:10514000001002400014024000180240001C0240FF
:1051500000200240FA48006840F00100F849086069
:105160000020F74908310860F5480068F549084013
:10517000F3490860F448091D0860081F006820F41E
:105180008020091F08600020ED490C31086070473D
:105190000021EB4A921C117011460870704710B53F
:1051A00001460022002300204A11012A02D1E44CCA
:1051B000236808E0022A03D1E14C7034236802E03E
:1051C000DF4C7434236801F01F02012494401C401A
:1051D0000CB1012000E0002010BD38B50020009087
:1051E0000024002500BF3120FFF7D9FF05460098B5
:1051F000401C00900098B0F5A06F01D0002DF2D0B7
:105200003120FFF7CCFF08B1012400E00024204644
:1052100038BD01460020CA4A106820F0F80040EA74
:10522000C10010607047C949086070470021C44A36
:10523000703211701170012802D004280AD104E0E4
:105240000121BF4A7032117005E00521BC4A70325D
:10525000117000E000BF00BF7047BD490860704793
:1052600070B5049C41EA82150126C6EB530645EA57
:105270000645054345EA0465B14E361D356070BDEF
:10528000B24908667047820142EA0172AC4B84332E
:105290001A607047AD4988667047AC49C86470476A
:1052A00002460020A64B0833186820F0EC6042EA62
:1052B00001031843A24B08331860704702460020D0
:1052C0009F4B0833186820F0784042EA01031843E6
:1052D0009B4B08331860704701460020984A0832FB
:1052E000106820F0030008431060704794480830AD
:1052F000006800F00C00704701460020904A083218
:10530000106820F0F000084310607047014600204C
:105310008B4A0832106820F4E05008431060704750
:1053200001460020864A0832106820F4604040EAB6
:10533000C10010607047F0B5002100220024022552
:10534000002602237E4F08373F6807F00C0121B189
:10535000042905D0082937D105E07E4F076036E0E3
:105360007D4F076033E0764F3F1D3F68C7F380569F
:10537000734F3F1D3F6807F03F036EB1764FB7FB99
:10538000F3F7DFF8BCC10CF1040CDCF800C0CCF37F
:10539000881C07FB0CF40CE06E4FB7FBF3F7DFF84B
:1053A000A0C10CF1040CDCF800C0CCF3881C07FB96
:1053B0000CF4634F3F1D3F68C7F301477F1C7D001E
:1053C000B4FBF5F7076002E0624F076000BF00BF63
:1053D0005B4F08373F6807F0F00109095F4F7A5CBF
:1053E0000768D7404760564F08373F6807F4E051D9
:1053F000890A5A4F7A5C4768D7408760504F083710
:105400003F6807F46041490B544F7A5C4768D740C6
:10541000C760F0BD002100F44072B2F5407F0AD1B0
:10542000474A0832116821F4F8114D4A02401143ED
:10543000434A08321160424A70321268C0F30B03CB
:105440001A433F4B70331A60704741494439086032
:1054500070473F49403908607047424908607047CB
:1054600039B1374A303212680243354B30331A6053
:1054700006E0334A303212688243314B30331A60CF
:10548000704739B12E4A3432126802432C4B343300
:105490001A6006E02A4A343212688243284B3433B9
:1054A0001A60704739B1264A383212680243244BD9
:1054B00038331A6006E0224A383212688243204BA1
:1054C00038331A60704739B11D4A403212680243BE
:1054D0001B4B40331A6006E0194A4032126882437F
:1054E000174B40331A60704739B1154A443212687D
:1054F0000243134B44331A6006E0114A44321268E7
:1055000082430F4B44331A60704739B10C4A103252
:10551000126802430A4B10331A6006E0084A103240
:1055200012688243064B10331A607047E1B1044A97
:10553000143212680243024B14331A6019E000005F
:1055400000380240FFFFF6FE103000240000474202
:10555000800E47420024F40000127A0094030020D9
:10556000FFFCFF0F5C0147425B4A126882435A4BC3
:105570001A60704739B1584A121D12680243564BDF
:105580001B1D1A6006E0544A121D12688243524BDA
:105590001B1D1A60704739B14F4A0C321268024322
:1055A0004D4B0C331A6006E04B4A0C3212688243B2
:1055B000494B0C331A60704739B1474A10321268B0
:1055C0000243454B10331A6006E0434A103212681A
:1055D0008243414B10331A60704739B13E4A3C3226
:1055E000126802433C4B3C331A6006E03A4A3C32B4
:1055F00012688243384B3C331A60704739B1364ADF
:10560000403212680243344B40331A6006E0324A9B
:10561000403212688243304B40331A60704739B1D0
:105620002D4A4432126802432B4B44331A6006E081
:10563000294A443212688243274B44331A60704728
:1056400039B1254A4C3212680243234B4C331A605D
:1056500006E0214A4C32126882431F4B4C331A60D9
:10566000704739B11C4A5032126802431A4B50330A
:105670001A6006E0184A503212688243164B5033C3
:105680001A60704739B1144AD21F12780243124B84
:10569000DB1F1A7006E0104AD21F127882430E4BAD
:1056A000DB1F1A7070470C486030006840F0807053
:1056B000094960310860704701460020064A083AEF
:1056C00012680A400AB1012000E000207047024938
:1056D000891F0870704700001438024010B501217E
:1056E0000802FFF769FF00214FF48070FFF764FFA5
:1056F00010BD30B50246002000235068F84C204011
:105700000D790C6844EA0524204350609068F54CFC
:105710002040D1E903542C438D682C434D7944EA51
:10572000450420439060D06A20F470000C7D641E14
:10573000E4B2234340EA0350D06230BD002101604F
:10574000017141718160C160016101210175704782
:105750000021E54A1168E54A1140D0E900231A43C7
:1057600083681A43C3681A431143E14AC2F8041319
:1057700070470021016041608160C160704721B1C4
:10578000826842F00102826003E0826822F0010236
:10579000826070470A4600214168D64B1940114388
:1057A000416070474162826270470A460021416849
:1057B00021F01F0111434160704738B1CA4909689F
:1057C00041F40001CA4AC2F8041306E0C649096858
:1057D00021F40001C64AC2F80413704738B1C24927
:1057E000096841F48001C24AC2F8041306E0BE49C8
:1057F000096821F48001BE4AC2F804137047F0B56D
:1058000004460D4600200021092D11DDE068A5F1B8
:105810000A0606EB4607072606FA07F18843A5F1B4
:105820000A0606EB460603FA06F10843E0600CE0C0
:10583000206905EB4507072606FA07F1884305EBC3
:10584000450603FA06F108432061072A0FDA606B68
:10585000561E06EB86071F2606FA07F18843561EDA
:1058600006EB860605FA06F10843606322E00D2A7E
:105870000FDA206BD61F06EB86071F2606FA07F104
:105880008843D61F06EB860605FA06F10843206317
:1058900010E0E06AA2F10D0606EB86071F2606FA65
:1058A00007F18843A2F10D0606EB860605FA06F11C
:1058B0000843E062F0BD816841F08041816070473B
:1058C000014600208A6802F480020AB1012000E04B
:1058D0000020704721B1826842F48062826003E058
:1058E000826822F480628260704721B1826842F04F
:1058F0000202826003E0826822F002028260704746
:1059000010B50A4600210023416821F46041531E6E
:1059100041EA4331416010BD21B1426842F4006266
:10592000426003E0426822F4006242607047014630
:10593000C86C80B270476C48001D0068704721B188
:10594000826842F48072826003E0826822F480728E
:105950008260704721B1826842F40072826003E085
:10596000826822F400728260704738B15E4909682B
:1059700041F400515E4AC2F8041306E05A4909682E
:1059800021F400515A4AC2F804137047F0B5044696
:105990001546002000220026092911DDE068A1F14A
:1059A0000A0707EB470C072707FA0CF29043A1F10F
:1059B0000A0707EB470703FA07F21043E0600CE021
:1059C000206901EB410C072707FA0CF2904301EB29
:1059D000410703FA07F210432061A06BC0F30156A0
:1059E000EF1C06F1010CA7EB0C0707EB870C1F2738
:1059F00007FA0CF29043EF1C06F1010CA7EB0C0721
:105A000007EB870701FA07F21043A063F0BD10B55A
:105A10000A4600210023816B21F44011531E41EA04
:105A20000351816310BD08B5002300930090009BD3
:105A30000B440093009B1A6008BD0A460021816850
:105A400021F470211143816070470A46002181686A
:105A500021F44011114381607047816841F4800155
:105A600081607047014600208A6802F480020AB112
:105A7000012000E00020704721B1426842F48062BA
:105A8000426003E0426822F480624260704721B1C4
:105A9000426842F48052426003E0426822F480523D
:105AA0004260704708B5024600200090009201F164
:105AB0002800009B184400900098006880B208BD40
:105AC00010B50B460021D9B2012404FA01F11AB134
:105AD00044680C43446002E044688C43446010BD59
