:020000040800F2
:1000000020730020016C0008450200084702000828
:100010004B0200084F0200085302000800000000D5
:100020000000000000000000000000009D0100082A
:100030005702000800000000E10100081B9C0008B6
:100040001B6C00081B6C00081B6C00081B6C000874
:100050001B6C00081B6C00081B6C00081B6C000864
:10006000A5040008E90400081B6C00081903000837
:10007000FB020008570300081B6C0008750200080B
:100080001B6C0008810200081B6C00081B6C000838
:100090001B6C00081B6C00081B6C00081B6C000824
:1000A0001B6C0008C1030008ED0300081B6C00086E
:1000B000EF0300081D040008490400081B6C000839
:1000C0001B6C00081B6C00081B6C0008A1040008D6
:1000D0001B6C00085D0200081B6C00081B6C00080C
:1000E0001B6C00081B6C00081B6C00081B6C0008D4
:1000F0001B6C00081B6C00081B6C00083303000815
:100100001B6C00081B6C000875040008A3040008A1
:100110001B6C00081B6C0008930300089F03000879
:100120001B6C00089B020008CD0200081B6C000835
:100130001B6C00081B6C00081B6C00081B6C000883
:100140001B6C00081B6C00081B6C00081B6C000873
:10015000ED0200081B6C00081B6C00081B6C0008FB
:100160001B6C00081B6C00081B6C00081B6C000853
:100170001B6C00081B6C00081B6C00081B6C000843
:100180001B6C00081B6C0008DFF80CD00BF0CEF8DD
:10019000004800472F69000820730020234B19688E
:1001A0000868B0E8F04F80F309884FF0000080F352
:1001B000118870470000000003480068006880F361
:1001C000088862B600DF00BF08ED00E0DFF80C0031
:1001D000016841F470010160704700BF88ED00E0E4
:1001E000EFF30980114B1A681EF0100F08BF20EDC5
:1001F000108A20E9F04F106008B54FF0140080F32A
:1002000011880AF0D2F84FF0000080F31188BDE8A1
:10021000084019680868B0E8F04F1EF0100F08BFDA
:10022000B0EC108A80F30988704700BF8404002076
:10023000EFF311804FF0140181F31188704780F3C0
:1002400011887047704700BFFEE700BFFEE700BFA0
:10025000FEE700BFFEE770477047704710B540F2F9
:100260002551A24808F0EDFD18B120219F4808F063
:10027000DFFD10BD10B59E499E4807F017FD10BD6B
:1002800010B59D499B48303007F0E6FC20B19A49F3
:100290009848303007F00AFD10BD10B597499848CE
:1002A00007F0DAFC88B19549954807F0FFFC01F0AA
:1002B000CEFD0021924807F025FC0421904807F06C
:1002C00042FC01218E4807F01DFC10BD10B58D4980
:1002D0008B48183007F0EAFC8B4840788A49097847
:1002E00040EA012000B28949088010BD10B5884954
:1002F0008348603007F0DAFC10BD10B57F497D48B7
:10030000483807F0A9FC30B17C497A48483807F0F2
:10031000CDFC00F0B7FA10BD10B57E4975486038C5
:1003200007F09AFC20B17B497248603807F0BEFCA8
:1003300010BD10B578496F48483007F08DFC48B1C2
:1003400000216C48483007F0DDFB734969484830AC
:1003500007F0ACFC10BD10B56A496648303807F0AC
:100360007BFCA8B167496348303807F09FFC01F077
:1003700020FC00215F48303807F0C4FB05215D48B0
:10038000303807F0E0FB01215A48303807F0BAFB5B
:1003900010BD10B50121614808F0B0FA10BD10B5CC
:1003A00001215F4808F0AAFA7A205049888001218B
:1003B0005C4808F055FC01215B4808F051FC10BD79
:1003C00010B50121594808F099FA5848008800F002
:1003D000100028B156480068401E5549086004E0E6
:1003E00053480068401C5249086010BD704710B562
:1003F0000121880708F082FA4FF08040008800F061
:10040000100028B14B480068401E4A49086004E0CB
:1004100048480068401C4749086010BD10B50121DC
:10042000454808F06BFA4448008800F0100028B1F5
:1004300042480068401E4149086004E03F480068A7
:10044000401C3E49086010BD10B501213C4808F031
:1004500055FA3B48008800F0100028B13948006880
:10046000401E3849086004E036480068401C3549A1
:10047000086010BD10B50121334808F03FFA32483A
:10048000008800F0100028B130480068401E2F4955
:10049000086004E02D480068401C2C49086010BD2D
:1004A0007047704710B5042007F098FCD8B12021A0
:1004B000274806F01CFD0421264806F0F3FC01281D
:1004C00004D10021164807F099FD09E004212148D4
:1004D00006F0E8FC20B9124807F094FD1E490860B8
:1004E00004201E49086010BD704700000010014044
:1004F00020800020706002400080202000880010D2
:100500002864024000802010A00600208C000020FB
:10051000008800202080001000800028001000408B
:100520000014004000480040001401400000014059
:100530006C000020700000200004004074000020C7
:100540000008004088000020000C004078000020D7
:1005500000000240000C024068000020143C0140F2
:1005600070B5044620460AF009FB05462146FE48C0
:100570000AF00BFBA0B195222146FB480AF0F2FAE3
:100580000021FA4807F0BEFAF748F8490C31086034
:10059000F648B838C0F8BC500121F44807F0B2FA68
:1005A00070BD70B50446002510E0605D68B1615D06
:1005B000EF4808F080FB00BF8021ED4808F02BFCDD
:1005C0000028F9D0681CC5B200E070BDEDE770B539
:1005D000044600250FE05CB12146E54808F06BFBBE
:1005E00000BF8021E24808F016FC0028F9D000E0A6
:1005F00070BD681CC5B2032DEDDB00BFF8E713B575
:100600000C460020FFF7E3FFDAA0FFF7CAFF2346FE
:10061000D9A29621D9480AF0C7FED848FFF7C1FFF2
:10062000D7A0FFF7BEFFD4A29621D448009B0AF0C2
:10063000BBFED248FFF7B5FFD3A0FFF7B2FFFF2004
:10064000FFF7C5FFFF20FFF7C2FFFF20FFF7BFFF47
:100650001CBD70B505460C46C6A0FFF7A2FF22469A
:10066000C5A1C6480AF0B8FEC448FFF79AFFC4A067
:10067000FFF797FF2846FFF794FFC3A0FFF791FF0E
:10068000FF20FFF7A4FF70BD77B585B00546FF26B4
:10069000BBA103C9CDE90301BBA000680290B5A0CE
:1006A0000068019000240AE00020B8490855B849C4
:1006B0000855B2490855AC490855601CC4B21E2CF7
:1006C000F2DB0A20AD490870FF2048708870C870BE
:1006D000A9A1AF48079A0AF07FFEAD4901A80AF028
:1006E00035FA01A9A5480AF031FA03A9A3480AF08E
:1006F0002DFA2946A1480AF029FA9FA1A448069A92
:100700000AF06AFEA2499D480AF020FA02A99B4815
:100710000AF01CFAFF209D490870487088709748BD
:100720000AF014FA9548FFF71BFF08B070BDF7B543
:1007300084B005460E46FF2791A103C9CDE9020109
:1007400091A0006801908BA000680090002408E050
:1007500000208E4908558E49085588490855601C67
:10076000C4B20A2CF4DB0A2084490870FF204870C8
:100770008870C87080A18648069A0AF02DFE8449C8
:1007800068460AF0E3F969467C480AF0DFF902A9F5
:100790007A480AF0DBF9294678480AF0D7F9314659
:1007A00076480AF0D3F901A974480AF0CFF9FF207E
:1007B00076490870487088700020C87008716F48CA
:1007C0000AF0C4F96D48FFF7CBFE07B0F0BD01B5E4
:1007D0008EB070A2322101A80E9B0AF0E5FD01A89F
:1007E000FFF7BEFE0FB000BD73B584B00546FF260F
:1007F00063A103C9CDE9020163A0006801905DA077
:100800000068009000240AE0002060490855604913
:1008100008555A49085554490855601CC4B21E2C45
:10082000F2DB0A2055490870FF2048708870C870B4
:1008300051A15748059A0AF0CFFD554968460AF07C
:1008400085F969464D480AF081F902A94B480AF03A
:100850007DF9294649480AF079F94D4947480AF097
:1008600075F901A945480AF071F9FF204749087058
:100870004870887041480AF069F94048FFF770FEF7
:1008800006B070BD1CB54648007845494978084413
:100890004349897808444249C9780844404909795C
:1008A00008443F49497908443D49897908443C490D
:1008B000C97908443A49097A0844C0B201903848D5
:1008C000007A00F00F0000909DF800000D2803D082
:1008D0000021344808F0C4F91CBD3148007A00F00A
:1008E0000F000D2806D12E48007800F0010008B155
:1008F0000D2070470020FCE72948007800F0020036
:1009000008B1012070470020FCE730B52DED048BC5
:1009100083B0254807F076FB2449096840EA014581
:1009200028460AF0C8FA41EC190B9FED210B53EC55
:10093000102B0AF051FA41EC180B0AF0DAFA019088
:1009400000244DE0184807F05DFB1849096840EAAB
:10095000014528460AF0AFFA41EC190B9FED140B44
:1009600053EC102B28E00000FA050020B86002408C
:10097000005000407400000025640000C404002002
:100980002E7478743D22000022000000AA05002089
:10099000820500206A302E76616C3D2564000000DF
:1009A000DC060020004800400004004074000020E5
:1009B0006666666666A64E400AF00EFA41EC180BB3
:1009C0000AF097FA0290DDE90121881A002801DB7C
:1009D000014600E04142052900DA641C02980190BA
:1009E000022CAFDB0298404203B0BDEC048B30BD5B
:1009F00030B52DED048B83B0FE4807F003FBFE49B4
:100A0000096840EA014528460AF055FA41EC190BFD
:100A10001FED190B53EC102B0AF0DEF941EC180B0B
:100A20000AF067FA0190002423E0F24807F0EAFA9E
:100A3000F149096840EA014528460AF03CFA41ECD0
:100A4000190B1FED250B53EC102B0AF0C5F941ECE7
:100A5000180B0AF04EFA0290DDE90121881A0028ED
:100A600001DB014600E04142052900DA641C0298DE
:100A70000190022CD9DB0298404203B0BDEC048BFC
:100A800030BD30B52DED048B83B04FF0804007F0C2
:100A9000B9FADA49096840EA014528460AF00BFA32
:100AA00041EC190B1FED3E0B53EC102B0AF094F99F
:100AB00041EC180B0AF01DFA0190002424E04FF0DD
:100AC000804007F09FFACD49096840EA0145284671
:100AD0000AF0F1F941EC190B1FED4B0B53EC102B05
:100AE0000AF07AF941EC180B0AF003FA0290DDE9FA
:100AF0000121881A002801DB014600E04142052956
:100B000000DA641C02980190022CD8DB029803B032
:100B1000BDEC048B30BD1CB5B94807F073FAB94978
:100B2000096840EA0140322190FBF1F00090002476
:100B300017E0B34807F066FAB249096840EA014095
:100B4000322190FBF1F00190DDE90021881A0028A4
:100B500001DB014600E04142322900DA641C0198C1
:100B60000090022CE5DB0199002901DB08461CBD41
:100B70004842FCE701B581B000200090019800EBED
:100B8000C0004000009002E00098401E00900098D5
:100B90000028F9D10CBD01B581B00020009044F2CD
:100BA000506101984843009002E00098401E009078
:100BB00000980028F9D10CBD1CB501211F2006F0BA
:100BC00055FB4FF6FF70009001208DF804000020C7
:100BD0008DF8060001208DF8070003208DF8050030
:100BE0006946894806F0FCF84FF6FF700090012036
:100BF0008DF8040000208DF8060001208DF8070014
:100C000003208DF805006946804806F0E9F84FF6A4
:100C1000FF70009001208DF8040000208DF8060080
:100C200001208DF8070003208DF8050069467848FB
:100C300006F0D6F81CBD1CB501217E2006F016FB7F
:100C4000C020009000208DF8040001208DF80700DE
:100C500002208DF8050069466E4806F0C1F80620AE
:100C6000009000208DF8040001208DF8070002207C
:100C70008DF805006946644806F0B2F8042000903B
:100C800000208DF8040001208DF8070002208DF867
:100C9000050069465D4806F0A3F81CBD1FB54FF47A
:100CA000E06005F0BFFF36208DF8000000208DF8D1
:100CB00001008DF8020001208DF80300684605F060
:100CC000B6FF0121102006F004FB3220ADF804002D
:100CD00040F2E73002900020ADF80C00ADF80600BD
:100CE00001A94D4807F041F901214B4807F006FEE4
:100CF00001221146484807F0D9FD0021464807F077
:100D00007DF90121444807F0B9F91FBD1FB54FF423
:100D1000E06005F087FF37208DF8000000208DF897
:100D200001008DF8020001208DF80300684605F0EF
:100D30007EFF0121202006F0CCFA3220ADF804001D
:100D400040F2E73002900020ADF80C00ADF806004C
:100D500001A9324807F009F90121304807F0CEFD1A
:100D6000012211462D4807F0A1FD00212B4807F074
:100D700045F90121294807F081F91FBD00B58BB065
:100D80000121022006F0B6FA01210C2006F06EFACD
:100D9000032206211D4806F0AEF8032207211B4856
:100DA00006F0A9F803220821184806F0A4F8032247
:100DB0000921164806F09FF84FF470700690022043
:100DC0008DF81C0003208DF81D0000208DF81E00FA
:100DD00001208DF81F0006A90C4806F001F8A42098
:100DE000ADF8200040F6B83009904FF48070ADF8AF
:100DF000280015E0000C0040780000207000002062
:100E00000008004088000020000402400008024062
:100E1000000C02400000024000100040001400409E
:100E20000020ADF8220008A9FE4807F09EF86020D7
:100E3000ADF804000120ADF8060000200390ADF8E5
:100E400010000121F74807F019F90021F54807F0D3
:100E5000D5F801A9F34807F01DF901A9F14807F0F9
:100E600052F901A9EF4807F09BF901A9ED4807F0F5
:100E7000FDF90121EB4807F0F2FC0BB000BD00B515
:100E80008BB00121082006F024FA0121084606F063
:100E9000EDF902220021E44806F02DF8022201219A
:100EA000E14806F028F802221146DF4806F023F850
:100EB00002220321DC4806F01EF80F2006900220D3
:100EC0008DF81C0003208DF81D0000208DF81E00F9
:100ED00001208DF81F0006A9D34805F081FFBA2034
:100EE000ADF8200042F2107009900020ADF8280003
:100EF000ADF8220008A9CD4807F037F86020ADF81A
:100F000004000120ADF8060000200390ADF81000A9
:100F10000121C64807F0B2F80021C44807F06EF876
:100F200001A9C24807F0B6F801A9C04807F0EBF8DC
:100F300001A9BE4807F034F901A9BC4807F096F9A9
:100F40000121BA4807F08BFC0BB000BD00B58BB097
:100F50000121042006F0BDF901210D2006F086F9DB
:100F600002220C21B24805F0C6FF02220D21B04832
:100F700005F0C1FF02220E21AD4805F0BCFF0222A0
:100F80000F21AB4805F0B7FF4FF4704006900220E8
:100F90008DF81C0003208DF81D0000208DF81E0028
:100FA00001208DF81F0006A9A14805F019FFA42013
:100FB000ADF8200040F6B83009904FF48070ADF8DD
:100FC00028000020ADF8220008A99A4806F0CDFFBD
:100FD0006020ADF804000120ADF806000020039069
:100FE000ADF810000121934807F048F8002191481E
:100FF00007F004F801A98F4807F04CF801A98D48C3
:1010000007F081F801A98B4807F0CAF801A98948BF
:1010100007F02CF90BB000BD00B589B00121080420
:1010200006F068F90121084606F020F9032211466E
:101030007D4805F060FF032202217B4805F05BFF3D
:101040000C20019002208DF8080003208DF8090083
:1010500000208DF80A0001208DF80B0001A97248CC
:1010600005F0BEFE0020ADF818004FF6FF700790A7
:101070000020ADF82000ADF81A0006A96E4806F071
:1010800074FF0420ADF80C000020ADF80E00C8205D
:10109000ADF814000120ADF8100003A9664807F070
:1010A0003BFB00231A460321644807F0D2FC0121D0
:1010B000624807F023FC01221146604807F0F6FB66
:1010C00001215D4806F0DAFF00215C4806F096FF3A
:1010D00009B000BD00B589B00121084606F0F9F855
:1010E0000121022006F0F5F80121032006F0BEF8E8
:1010F00001220F214C4805F0FEFE01220321504839
:1011000005F0F9FE022204214D4805F0F4FE02220A
:1011100005214B4805F0EFFE3820019002208DF8A4
:10112000080003208DF8090000208DF80A00012036
:101130008DF80B0001A9424805F052FE4FF4004023
:10114000019002208DF8080003208DF8090000208E
:101150008DF80A0001208DF80B0001A9324805F036
:101160003FFE0020ADF818004FF6FF7007900020FA
:10117000ADF82000ADF81A0006A94FF0804006F047
:10118000F4FE06A92F4806F0F0FE0420ADF80C008E
:101190000220ADF80E001420ADF814000120ADF8C7
:1011A000100003A9800707F0B7FA03A9254807F044
:1011B000B3FA02231A460321580707F04AFC022318
:1011C0001A4603211F4807F044FC0121880707F055
:1011D00095FB01211B4807F091FB01221146900766
:1011E00007F064FB01221146164807F05FFB01215E
:1011F000880706F043FF0121124806F03FFF002157
:101200004FF0804006F0FAFE00210E4806F0F6FE90
:101210004FF4C06005F006FD1D208DF8000003208E
:1012200012E000000004014000000240000C0040F9
:10123000000C024000080040000001400040014056
:1012400000040240000400408DF8010000208DF8E9
:10125000020001208DF80300684605F0E8FC1C2020
:101260008DF8000004208DF8010000208DF80200A8
:1012700001208DF80300684605F0D9FC09B000BDD7
:1012800000B589B00121084606F034F8012110208C
:1012900005F0ECFF4FF42060019002208DF808006B
:1012A00003208DF8090000208DF80A0001208DF838
:1012B0000B0001A9FE4805F093FD01220921FC481D
:1012C00005F019FE01220B21F94805F014FE00205B
:1012D000ADF818004FF6FF7007900020ADF8200021
:1012E000ADF81A0006A9F34806F03FFE0420ADF859
:1012F0000C000020ADF80E000A20ADF8140001200B
:10130000ADF8100003A9EB4807F006FA00231A46CF
:101310000321E84807F09DFB0121E64807F0EEFABB
:1013200001221146E34807F0C1FA0121E14807F024
:10133000E5FA01221146DF4807F0B8FA0121DD483D
:1013400006F09CFE0021DB4806F058FE4FF4C0601A
:1013500005F068FC19208DF8000001208DF80100CF
:1013600000208DF8020001208DF80300684605F08A
:101370005EFC09B000BD00B589B00121042005F074
:10138000A8FF0121082005F071FF4FF440500190A3
:1013900002208DF8080003208DF8090000208DF848
:1013A0000A0001208DF80B0001A9C34805F018FDC3
:1013B0000020ADF818004FF6FF7007900020ADF840
:1013C0002000ADF81A0006A9BC4806F0CEFD0222A6
:1013D0000C21B94805F08FFD02220D21B64805F019
:1013E0008AFD0420ADF80C000220ADF80E00C820E4
:1013F000ADF814000120ADF8100003A9AF4807F0C4
:101400008BF902231A460321AC4807F022FB012185
:10141000AA4807F073FA01221146A84807F046FAD5
:101420000121A64806F02AFE0021A44806F0E6FDA8
:101430000020A249143108800120A04908804FF4FF
:10144000C06005F0EFFB1E208DF8000004208DF831
:10145000010000208DF8020001208DF8030068468D
:1014600005F0E5FB09B000BD00B589B001210820F9
:1014700005F02FFF0121084605F0F8FE032001903A
:1014800002208DF8080003208DF8090000208DF857
:101490000A0001208DF80B0001A9894805F0A0FC85
:1014A0000020ADF818004FF6FF7007900020ADF84F
:1014B0002000ADF81A0006A9824806F056FD022267
:1014C00000217F4805F017FD022201217C4805F02C
:1014D00012FD0420ADF80C000220ADF80E00C8206B
:1014E000ADF814000120ADF8100003A9754807F00D
:1014F00013F902231A460321724807F0AAFA0121C0
:10150000704807F0FBF9012211466E4807F0CEF94A
:1015100001216C4806F0B2FD00216A4806F06EFD1C
:1015200000206849143108800120664908804FF482
:10153000C06005F077FB32208DF8000004208DF8A4
:10154000010000208DF8020001208DF8030068469C
:1015500005F06DFB09B000BD00B59BB001215A48F4
:1015600005F084FE0121080205F0C4FE002002906F
:101570005648039056480490002005900820069095
:10158000002007904FF48060089040000990800090
:101590000A9040110B9040020C9000200D90012009
:1015A0000E9000200F90109002A94A4806F070FAA1
:1015B0000121484806F0A6FA3C20009003208DF84F
:1015C000040000208DF8070069463D4805F008FC3E
:1015D0003C20009003208DF8040000208DF80700C7
:1015E00069463D4805F0FCFB0020119012901390D5
:1015F000149011A805F0B2FF4FF0807015900120F3
:101600008DF858008DF85900002017901890199007
:1016100008208DF8680015A92C484C3805F06FFF9C
:1016200000230122022129484C3805F0EEFF002357
:101630000222032125484C3805F0E7FF002303224E
:10164000042122484C3805F0E0FF00230422052144
:101650001E484C3805F0D9FF002305220C211B48F9
:101660004C3805F0D2FF002306220D2117484C38D4
:1016700005F0CBFF002307220E2114484C3805F05B
:10168000C4FF002308220F2110484C3805F0BDFF8D
:1016900001210E484C3806F063F801210B484C3804
:1016A00006F053F8012109484C3805F06EFF15E0AB
:1016B0000010024000000140000C02400008004001
:1016C00000000240000C0040050040004C2001409A
:1016D000900600201064024000080240FE484C388A
:1016E00005F0EFFF1BB000BD08B54FF4E06005F05A
:1016F00099FA25208DF8000000208DF801008DF862
:10170000020001208DF80300684605F090FA08BD3C
:1017100010B596B004460121102005F0EBFD012123
:10172000084605F0A3FD0121880505F09FFD4FF453
:10173000C060009002208DF8040000208DF80600A3
:101740008DF8070002208DF805006946E34805F092
:1017500047FB07220921E14805F0CDFB07220A21BA
:10176000DE4805F0C8FB02940020ADF80C00ADF88F
:101770000E00ADF81000ADF814000C20ADF812000A
:1017800002A9D74807F0E4F90121D54807F068FA23
:101790004FF4A06005F046FA3A208DF818000020BA
:1017A0008DF819008DF81A0001208DF81B0006A88D
:1017B00005F03DFACB4806F0C9F84FF000600790FD
:1017C00000200A90C84809900A200B90C448001DC8
:1017D000089000200C904FF480600D9000200E9037
:1017E0000F904FF4807010904002119004201290DE
:1017F0000320139000201490159007A9B94806F013
:1018000047F901224021B64807F0D7FA01221021FA
:10181000B44806F004FA0121B24806F073F916B094
:1018200010BD10B596B004460121480505F01EFD17
:101830000121480405F04DFD0121082005F016FDA9
:101840006020009002208DF8040000208DF8060032
:101850008DF8070002208DF805006946A34805F0C1
:10186000BFFA07220521A14805F045FB0722062102
:101870009E4805F040FB02940020ADF80C00ADF846
:101880000E00ADF81000ADF814000C20ADF81200F9
:1018900002A9974807F05CF90121954807F0E0F9A3
:1018A0004FF4A06005F0BEF911208DF8180000205B
:1018B0008DF819008DF81A0001208DF81B0006A87C
:1018C00005F0B5F98B4806F041F84FF0006007903D
:1018D00040200A908848099050200B908448001DB1
:1018E000089000200C904FF480600D9000200E9026
:1018F0000F904FF4807010904002119004201290CD
:101900000320139000201490159007A9794806F041
:10191000BFF801228021764807F04FFA012280218A
:10192000734807F04AFA01221021724806F077F94D
:101930000121704806F0E6F816B010BD10B596B05B
:1019400004460121880405F0C4FC0121082005F0AB
:101950008DFC0121480505F089FC4FF44070009092
:1019600002208DF8040000208DF806008DF8070095
:1019700002208DF8050069465C4805F031FA07221F
:1019800008215A4805F0B7FA07220921574805F0FF
:10199000B2FA02940020ADF80C00ADF80E00ADF8DC
:1019A0001000ADF814000C20ADF8120002A9534845
:1019B00007F0CEF80121514807F052F94FF4A0602A
:1019C00005F030F90C208DF8180000208DF8190072
:1019D0008DF81A0001208DF81B0006A805F027F9E4
:1019E0004448783805F0B2FF4FF0006007900020BF
:1019F0000A90434809900A200B904048001D089027
:101A000000200C904FF480600D9000200E900F90FD
:101A10004FF4807010904002119004201290032027
:101A2000139000201490159007A93248783806F0DA
:101A30002FF801224021314807F0BFF9012240214F
:101A40002E4807F0BAF9012210212A48783806F00A
:101A5000E6F801212748783806F054F816B010BD92
:101A600010B596B004460121C80405F032FC0121EE
:101A7000042005F0FBFB0121480505F0F7FB4FF4BE
:101A80004060009002208DF8040000208DF80600D0
:101A90008DF8070002208DF805006946194805F009
:101AA0009FF908220A21174805F025FA08220B2180
:101AB000144805F020FA02940020ADF80C00ADF8AF
:101AC0000E00ADF81000ADF814000C20ADF81200B7
:101AD00002A90D481AE000004C200140000002401D
:101AE0000010014040640240A0060020000C0240AB
:101AF00000440040A0600240040000200048004074
:101B0000DC06002000080240004C004007F020F8EE
:101B10000121FB4807F0A4F84FF4A06005F082F81B
:101B20000D208DF8180003208DF8190001208DF884
:101B30001A008DF81B0006A805F079F8F14805F0A9
:101B400005FF4FF00060079000200A90EE480990D2
:101B500005200B90EA48001D089000200C904FF4DF
:101B600080600D9000200E900F9010904FF4003088
:101B700011900020129003201390002014901590D3
:101B800007A9E04805F084FF01224021DC4807F066
:101B900014F901228021DA4807F00FF901221021FF
:101BA000D84806F03CF80121D64805F0ABFF16B046
:101BB00010BD0CB5002001900090D3480078022899
:101BC00016D1D1488078D049497840EA0120019067
:101BD000CD480079CC49C97840EA01200090BDF891
:101BE0000400CA490880BDF80000C949088004E023
:101BF0000420C7490880C54908800CBD10B596B0BF
:101C000004460121480505F031FB0121080505F0D6
:101C100060FB01210C2005F029FB0420009002202C
:101C20008DF8040000208DF806008DF807000220D2
:101C30008DF805006946B74805F0D2F84FF480509A
:101C4000009002208DF8040000208DF806008DF829
:101C5000070002208DF805006946AF4805F0C0F87E
:101C600008220221AB4805F046F908220C21AA48B7
:101C700005F041F94FF4A06004F0D4FF2F208DF857
:101C8000180005208DF819008DF81A0001208DF834
:101C90001B0006A804F0CBFF02940020ADF80C0056
:101CA000ADF80E00ADF81000ADF814000C20ADF842
:101CB000120002A9994806F04BFF0121974806F04F
:101CC000CFFF9048783005F041FE4FF0006007905C
:101CD00040200A909248099096200B908F48001D52
:101CE000089000200C904FF480600D9000200E9022
:101CF0000F9010904FF400301190002012900320AC
:101D0000139000201490159007A97E48783005F0B4
:101D1000BFFE01228021814807F04FF801221021E7
:101D20007848783005F07BFF01217648783005F05F
:101D3000E9FE16B010BD10B596B004460121202072
:101D400005F0D8FA0121042005F090FA0121880558
:101D500005F08CFAC020009002208DF804000020CD
:101D60008DF806008DF8070002208DF80500694601
:101D7000694805F035F808220621674805F0BBF8E8
:101D800008220721644805F0B6F802940020ADF857
:101D90000C00ADF80E00ADF81000ADF814000C20EA
:101DA000ADF8120002A95F4806F0D2FE01215D489D
:101DB00006F056FF4FF4A06004F034FF39208DF890
:101DC000180003208DF8190001208DF81A008DF8F5
:101DD0001B0006A804F02BFF534805F0B7FD4FF099
:101DE0002060079000200A905048099004200B9032
:101DF0004C48001D089000200C904FF480600D901E
:101E000000200E900F9010904FF4003011900020A1
:101E100012900320139000201490159007A94248B7
:101E200005F036FE012240213E4806F0C6FF0122A1
:101E300080213C4806F0C1FF012210213A4805F0FC
:101E4000EEFE0121384805F05DFE16B010BD0CB560
:101E500000200190009035480078022812D13348C4
:101E6000407801903148C0783049897840EA0120B3
:101E700000909DF804002E490870BDF800002D491F
:101E8000088004E004202A4908702A4908800CBD13
:101E900000B585B00121082005F0E8F9012188038B
:101EA00005F028FA00208DF8100001208DF81300AD
:101EB0000C20039003A9174804F092FF022103208D
:101EC00007F014F80420009000208DF80400102082
:101ED0008DF8050001208DF80600684605F018FF12
:101EE00008208DF8080000208DF809008DF80A0000
:101EF00001208DF80B0002A804F099FE05B000BD8A
:101F0000004C0040406002409301002098010020F6
:101F10009A010020000C02400008024000500040DE
:101F2000FA05002000140140286402409C010020B2
:101F3000A0010020A201002070B504460D46012C2E
:101F40000BD12946FE4806F0B6FE00BF4021FC48F2
:101F500006F061FF0028F9D028E0032C0BD12946B8
:101F6000F84806F0A8FE00BF4021F64806F053FFEF
:101F70000028F9D01AE0042C0BD12946F24806F0CB
:101F80009AFE00BF4021F04806F045FF0028F9D036
:101F90000CE0052C0AD12946EC4806F08CFE00BF67
:101FA0004021EA4806F037FF0028F9D070BD002034
:101FB000E7490860E749086070470020E649486241
:101FC000E64908604FF080414862E5490860E5490C
:101FD0000860E5490860DE490860DE490860E349B9
:101FE0000860E3490860704700204FF08041486274
:101FF000DB49086070470020DA490860DA49086068
:10200000704710B50020DB490870002407E061210B
:102010000120FFF791FF3220FEF7BDFD641C022C6A
:10202000F5D30120D34908707A20D349087010BD38
:1020300010B50020D1490870002407E06121032079
:10204000FFF77AFF3220FEF7A6FD641C022CF5D3C1
:102050000120CA4908707A20C949087010BD2DE9CD
:10206000F14FAEB0C7A02D9000202C908DF88800C5
:102070008DF860002E98152833D2DFE800F00B337E
:102080003C434A5158616A737A81888F969DA4FDBA
:10209000FCFBFA000221C44804F004FF88B10022CE
:1020A0004FF40041C14804F01BFF4FF40041BF480A
:1020B00004F005FF044600222146BDA0FEF7E4FA25
:1020C0000FE00122D103B94804F00AFF4FF40041A8
:1020D000B64804F0F4FE044600222146BCA0FEF7F8
:1020E000D3FA70E20122C248B0F900004142C1A017
:1020F000FEF7CAFA67E20222C0480168C0A0FEF7F4
:10210000C3FA60E20322C1480168C1A0FEF7BCFA2D
:1021100059E20422C2480168C2A0FEF7B5FA52E2B1
:102120000522C3480168C3A0FEF7AEFA4BE2FEF7F2
:10213000ECFB044606222146C1A0FEF7A5FA42E2C6
:10214000FEF756FC044607222146C0A0FEF79CFA83
:1021500039E2FEF796FC044608222146BEA0FEF7AF
:1021600093FA30E20922BF480168BFA0FEF78CFA5B
:1021700029E20A22BF480168BFA0FEF785FA22E2E1
:102180000B22C1480168C1A0FEF77EFA1BE20C22B7
:10219000C1480168C1A0FEF777FA14E20D22C248D7
:1021A0000168C2A0FEF770FA0DE20E22C248016873
:1021B000C2A0FEF769FA06E20F22C4480168C4A073
:1021C000FEF762FAFFE10121C54804F06BFE4FF40F
:1021D00000511790754804F065FE04460221C0487E
:1021E00004F060FE05464FF48041704804F05AFE4A
:1021F00006460421BA4804F055FE4FF400411690FB
:10220000B74804F04FFE07460821B54804F04AFEDF
:1022100080464FF48041B24804F044FE81461021CC
:10222000AF4804F03FFE4FF400511590AC4804F065
:1022300039FE82460821AB4804F034FE4FF4805149
:102240001490A74804F02EFE10211390A54804F026
:1022500029FE4FF480611290A14804F023FE8346CA
:1022600080219F4804F01EFE4FF4807111909C481D
:1022700003E0A1E199E191E124E004F013FE109064
:102280001798CDE90B65CDE90D401698CDE9079873
:10229000CDE90970DDE914211398CDE9042A0691EE
:1022A0000390DDE91101CDE901B100908EA2282152
:1022B00022A8109B09F078F8102222A993A0FEF71B
:1022C00036FA80E18021384804F0F9FD0446012106
:1022D000354804F0F4FD05464021334804F0EFFD95
:1022E00006464FF400417F4804F0E9FD07464FF4ED
:1022F0008051874804F0E3FD80464FF480612A480E
:1023000004F0DDFD81464FF40061814804F0D7FD03
:102310004FF400611790244804F0D1FD82464FF439
:102320008061704804F0CBFD83464FF480511E4815
:1023300004F0C5FD4FF4006116906A48EAE0000021
:102340000010014000480040004C00400050004098
:102350002408004088000020000001406C0000209C
:10236000700000202404004074000020240C004071
:1023700078000020910000209000002093000020B1
:10238000920000203131313131313131313131314F
:10239000313131313131313131313031313131312E
:1023A00031313131000000000004024000080240D9
:1023B000524F424F5420322044414E47204348411F
:1023C000592053414E2058414E483A2020200000C9
:1023D000524F424F5420322044414E4720434841FF
:1023E000592053414E20444F3A2020200000000045
:1023F0008C000020494D553A00000000B00000203C
:1024000042545F4E414E475F48413A00C0010020B0
:102410002076616C75655F6374726169203A0000B3
:10242000840300204C75632042616E3A2000000056
:102430009C0000204C415A45525F42414E20000012
:10244000454E434F4445525F30482000454E434F70
:102450004445525F34482000454E434F4445525F47
:1024600038482000C401002063616E6820747261E6
:1024700069200000AC00002042545F4E414E475F8F
:102480004E4F4E473A000000B400002042545F53C4
:10249000686F6F74203A00008C030020666F7263CF
:1024A000655F4C3A00000000C801002076616C7541
:1024B000655F63706861690088010020747275202F
:1024C00068616F206C75633A00000000A401002071
:1024D0006D696E5F6C617A655F42616E3A00000003
:1024E00000100240000C0240256425642564256428
:1024F0002564256425642564256425642564256494
:10250000256425642564256400000000493A000024
:102510000000024004F0D3FC4FF400511590F7483E
:1025200004F0CDFC4FF480411490F54804F0C7FC52
:102530004FF480411390F14804F0C1FC4FF48071D6
:102540001290F04804F0BBFC4FF400411190EB48AE
:1025500004F0B5FCCDE90B76CDE90D541090179839
:10256000CDE907A0CDE90998DDE914121698CDE967
:10257000050BCDE90312DDE911121398CDE9001224
:102580000290AFF29C02282122A8109B08F00CFFB9
:10259000122222A9DCA0FEF7CAF814E02A22DC48A5
:1025A0000168DAA0FEF770F80DE02B22D948016827
:1025B000D6A0FEF769F806E02C22D7480168D3A020
:1025C000FEF762F800BF00BF2FB0BDE8F08F10B576
:1025D0000121D24805F096FA10BD01B5D048006837
:1025E0000099884203DD0020CD49086004E0CC4812
:1025F0000068401CCA490860C9480068FFF72FFD01
:1026000008BD02680B6803600A6070472DE9F04757
:1026100004460F46154654F825A0A7F10108AF421D
:1026200026DA3E460CE054F82600504507DC08F157
:10263000010804EB860104EB8800FFF7E2FF761C3B
:10264000AE42F0DB04EB850108F1010204EB8200ED
:10265000FFF7D7FF08F10109A9F101023946204629
:10266000FFF7D4FF2A4609F101012046FFF7CEFF0C
:10267000BDE8F08710B5002011E00022A94B43F817
:102680002020002108E00022C0EB0013A64C04EB40
:10269000C30343F82120491C1E29F4DB401C792880
:1026A000EBDB10BD10B5002801DB792800DB10BD85
:1026B00001B9FCE7C0EB00129B4B03EBC202994B44
:1026C00053F8203042F82310964A52F82020521C2A
:1026D0001E2392FBF3F403FB1422924B43F82020B9
:1026E00000BFE4E72DE9F04F2DED048B81B00746E4
:1026F000002600250AE057F8250030B157F82520BC
:102700003046761C894941F820206D1C1E2DF2DBD5
:102710002EB9002001B0BDEC048BBDE8F08F721E15
:1027200000218248FFF772FF3046F11706EB9171E6
:1027300089107E4A52F8218006EB4600C11700EB53
:102740009171891052F82190A9EB080A504608F0BF
:10275000B2FB41EC190B9FED760B53EC102B08F0FC
:10276000C9FA41EC180B08F0C4FBA8EB000B50466B
:1027700008F0A1FB41EC190B9FED6D0B53EC102BF6
:1027800008F0B8FA41EC180B08F0B3FB484400908D
:102790000025002413E0654850F8250058450DDB5E
:1027A000624850F825100098814207DC5F4850F8D5
:1027B00025202046641C5D4941F820206D1CB5424F
:1027C000E9DB0CB90020A5E7204604EBD0714910E5
:1027D000A4EB4101B9B9214604EBD1704010401E71
:1027E000DFF848C15CF82000234604EBD37C4FEAB5
:1027F0006C0CDFF838E15EF82CC000EB0C0202EB49
:10280000D270401086E7A44604EBDC704010DFF87D
:102810001CE15EF820007DE770B500220021002455
:10282000454D2C60002022E0444C54F820400CB967
:10283000521C1BE0052A18DD3F4C2468322C14DAA8
:10284000841A8C4210DD3E4C3B4D2D6844F8251017
:10285000841A641E3B4D384E366845F82640364C87
:102860002468641C344D2C6001460022401C7928E9
:10287000DADB79291FDA304C2468322C1BDA0B465C
:10288000084605E02D4C54F8204004B10346401C96
:102890007928F7DB8B420EDB294C274D2D6844F855
:1028A0002510284C244D2D6844F82530224C2468EE
:1028B000641C214D2C6070BD2DE9F0474FF00008DD
:1028C000C14600240AE0C4EB0411174A02EBC10020
:1028D000FFF708FF194941F82400641C792CF2DB4A
:1028E000FFF79AFF002452E043F698264FF0FF3797
:1028F000134850F82400451C35E000000004024055
:10290000000C0240000002404F55543A0000000005
:1029100084030020E001002044010020A060024068
:1029200084000020344100207C080020184300204F
:10293000000000000000F83FE40100209043002068
:10294000EC060020B4070020FE4850F825000028BF
:1029500008DDFC4850F82500B04203DAF94850F889
:1029600025602F466D1CF84850F82400A842EBDA89
:102970001CB9F6480660F6480760F6480068401E35
:10298000A04203D1F4480660F4480760641CF14893
:1029900000688442A8DBED480068F1490860EE4811
:1029A0000068F0490860EA480068EC490968084492
:1029B000ED490860BDE8F08710B52DED028BB0EE53
:1029C000408AF0EE608A9FEDE90B53EC102B51EC3E
:1029D000180B08F0F1FA0CD89FEDE60B53EC102B16
:1029E00051EC180B08F0D0FA03D80120BDEC028B93
:1029F00010BD0020FAE730B52DED108B99B0B0EE88
:102A000040AAF0EE60AAB0EE418AF0EE618A044678
:102A10000D469FEDDA0BB0EE409AF0EE609A9FED16
:102A2000D90BB0EE40CAF0EE60CA9FEDD80B53EC64
:102A3000102B51EC190B08F0CFF99FEDD40B53EC90
:102A4000102BCDE9060151EC190B08F0C5F9CDE9C1
:102A500004019DED060B53EC102B9DED040B51EC86
:102A6000100B08F047F953EC1C2BCDE9080151EC91
:102A70001C0B08F03FF941EC1F0B9DED080B53ECCC
:102A8000102B08F090F841EC1E0BB0EE4E0AF0EE61
:102A90006E0A0AF025FCB0EE40BAF0EE60BA53ECD4
:102AA0001C2B9FEDBA0B51EC100B08F023F941ECF5
:102AB0001F0B53EC192B08F08FF941EC1E0BB0EEF5
:102AC0004E0AF0EE6E0A08F073FE8DED160B53EC15
:102AD000192B9FEDAE0B51EC100B08F00BF941ECEC
:102AE0001E0B53EC182B08F005F953EC1A2BCDE90B
:102AF000080151EC1A0B08F0FDF841EC1E0B53ECE9
:102B0000182B51EC180B08F0F5F853EC192BCDE904
:102B1000040151EC190B08F0EDF8CDE902019DED2F
:102B2000040B53EC102B9DED020B51EC100B08F035
:102B30003AF841EC1F0B53EC1E2B08F0D5F8CDE909
:102B400006019DED080B53EC102B9DED060B51EC8F
:102B5000100B08F041F9CDE90E019DED0E0BFFF7CA
:102B60002BFF20B9012019B0BDEC108B30BD9DEDBD
:102B70000E0B08F071FC8DED140B9DED160B53EC54
:102B8000102B9DED140B51EC100B08F0ADF841EC3F
:102B90001D0B9FED800B53EC102B51EC1D0B08F01F
:102BA000F3F901D80120DEE7B0EE4D0AF0EE6D0A30
:102BB00009F092F8B0EE40EAF0EE60EA53EC1B2B1D
:102BC0009FED720B51EC100B08F094F853EC182B9E
:102BD000CDE900019DED000B51EC100B08F08AF8D7
:102BE00041EC1F0B53EC1E2B08F084F853EC182B10
:102BF000CDE9040151EC180B08F07CF841EC1E0BF8
:102C000053EC1B2B51EC1B0B08F074F841EC1F0B21
:102C100053EC1E2B07F0C7FFCDE902019DED040B1D
:102C200053EC102B9DED020B51EC100B08F05CF8EF
:102C3000CDE906019DED060B0AF052FB8DED080B68
:102C40009DED080B51EC100B08F053F920609FED3F
:102C50004F0B53EC102B51EC1A0B08F04BF841ECD6
:102C60001E0B53EC182B08F045F853EC192BCDE94B
:102C7000080151EC190B08F03DF841EC1E0B53EC28
:102C8000182B51EC180B08F035F853EC1A2BCDE942
:102C9000040151EC1A0B08F02DF8CDE902019DED6D
:102CA000040B53EC102B9DED020B51EC100B07F0B5
:102CB0007AFF41EC1F0B53EC1E2B08F015F8CDE901
:102CC00006019DED080B53EC102B9DED060B51EC0E
:102CD000100B08F081F8CDE90C019DED0C0BFFF70E
:102CE0006BFE08B901203EE79DED0C0B08F0B4FB2C
:102CF0008DED120B206808F0DEF841EC1F0B9FED04
:102D0000230B53EC102B07F0F5FF41EC1E0B53EC9B
:102D1000182B07F0EFFF53EC1B2BCDE9080151EC0A
:102D20001B0B07F0E7FF53EC182BCDE9040151EC26
:102D3000180B07F0DFFF41EC1F0B216801FB01F0CE
:102D40002CE0000090430020B4070020E8010020A0
:102D5000EC010020E4010020F0010020F40100203B
:102D6000C4010020C8010020CC01002000000000A8
:102D70000000F0BF000000000000F03F0000000075
:102D800000209C400000000000C0774000000000D0
:102D900000000040000000000000000008F08BF878
:102DA00053EC1F2BCDE902019DED020B51EC100BF2
:102DB00007F0F9FE41EC1E0B9DED040B53EC102BBC
:102DC00007F092FFCDE906019DED080B53EC102BA7
:102DD0009DED060B51EC100B07F0FEFFCDE90A014B
:102DE0009DED0A0BFFF7E8FD08B90120BBE69DED5C
:102DF0000A0B08F031FB8DED100BFE490968FE4A05
:102E00001268881A08F057F8CDE906019DED120BFB
:102E100053EC102B9DED100B51EC100B07F0DCFF69
:102E2000CDE904019DED060B53EC102B9DED040B39
:102E300051EC100B07F05EFFCDE90801ED4800688A
:102E400008F039F841EC1F0B9DED080B53EC102BEB
:102E500007F04AFF41EC1E0B08F04BF828600020F9
:102E600081E610B5FDF751FDE4490860FDF7C0FDAE
:102E7000E3490860FDF705FEE249086010BD2DE951
:102E8000F0412DED088B06460F46304608F013F84A
:102E900041EC190B9FEDDC1BB0EE490AF0EE690A1C
:102EA00009F02AF9B0EE408AF0EE608A51EC180B76
:102EB00008F01FF80446002C02DBA4F5E16401E0F1
:102EC00004F5E164384607F0F6FF41EC1B0B9FED7B
:102ED000CE1BB0EE4B0AF0EE6B0A09F00DF9B0EE26
:102EE000409AF0EE609A304607F0E5FF41EC1B0B8C
:102EF0009FEDC51BB0EE4B0AF0EE6B0A09F0FCF833
:102F0000B0EE40AAF0EE60AA53EC192B51EC1A0B6C
:102F100007F0EAFE41EC180B07F0EBFF05462846E8
:102F2000211E01DB0A4600E04A42002801DB03467D
:102F300000E043429A4205DA25464FF0FF30B4499B
:102F4000086003E035460120B14908602846BDEC21
:102F5000088BBDE8F0810146FA2901DDFA2102E083
:102F6000032900DC0221C8B2704710B504460B46A5
:102F700024B9A8480078A849C87116E0A74890ED80
:102F8000000AB5EEC00AF1EE10FA07DD2046FFF7A1
:102F9000E2FFA149C8710120887106E06042FFF795
:102FA000DAFF9D49C8710020887123B999480078DB
:102FB0009949C87516E09A4890ED000AB5EEC00A26
:102FC000F1EE10FA07DD1846FFF7C5FF9249C87504
:102FD0000120887506E05842FFF7BDFF8E49C8758D
:102FE0000020887522B98B4800788B49C87316E099
:102FF0008C4890ED000AB5EEC00AF1EE10FA07DD3C
:103000001046FFF7A8FF8449C8730120887306E0C3
:103010005042FFF7A0FF8049C8730020887310BD9D
:10302000814B1860814B1960814B1A6070477A4A56
:10303000D071D075D07370477748C079032809DA0A
:103040007548C07D032805DA7348C07B032801DA80
:10305000012070470020FCE7012076490860704796
:103060007548006847F23051884201D0012070470E
:103070000020FCE710B5FEF7C4FF10BD6F48B0F9A3
:10308000000040427047B5EEC00AF1EE10FA09D2D6
:103090006B48D0ED000A70EE600AFDEEE00A10EE1B
:1030A000900A70476648D0ED000A70EE200AFDEEE7
:1030B000E00A10EE900AF4E710B52DED088B0446F7
:1030C00024B99FED600ABDEC088B10BD002C1DDA01
:1030D0005D48006807F0EFFE41EC190B204607F051
:1030E000EAFE41EC1B0B9FED590B53EC102B07F044
:1030F00001FE41EC1A0B53EC192B07F06DFE41EC6D
:10310000180B07F071FF00EE100ADCE74E4800686C
:1031100007F0D1FE41EC1A0B204607F0CCFE41EC43
:103120001B0B9FED4A0B53EC102B07F0E3FD41EC1A
:10313000180B53EC1A2B07F04FFE41EC190B07F05C
:1031400053FF00EE100ABEE7F0EE400AF5EEC00AAB
:10315000F1EE10FA02DBB0EE600A7047B1EE600AE1
:10316000FBE70146002901DB084670474842FCE7BF
:1031700001463848D0ED000AF1EE600A3648D0ED3D
:10318000001A80EEA11A00EE901AF8EEE01A31480B
:10319000D0ED000A41EE210AB0EE600AFDEEC00A51
:1031A00010EE900A7047F0EE401A9FED2C2AB0EE18
:1031B000420AF5EEC01AF1EE10FA03D2B1EE612A1E
:1031C000F0EE421AF5EEC00AF1EE10FA03D2B1EEBB
:1031D000602AF0EE420AB5EEC01AF1EE10FA03D200
:1031E000B1EE412AB0EE421AF4EEC01AF1EE10FA36
:1031F00038DD35E0F4010020EC010020EC03002074
:10320000F0030020F4030020000000000020AC4088
:10321000E40200204002002004000020A802002058
:10322000AC020020B0020020CC020020D00200201E
:10323000D4020020200300206C0200208C0000201B
:1032400000020020000000005802002000000000E2
:103250000000F83F380200203C0200206F12833A41
:10326000B0EE610AF4EEC00AF1EE10FA01DDB0EE44
:10327000600AB4EEC01AF1EE10FA01DDB0EE410AB8
:103280007047FE4800687047FD480068704710B5F9
:103290002DED0A8BF0EE408A18EE900A07F061FEE1
:1032A00041EC1C0B1FED281BB0EE4C0AF0EE6C0A33
:1032B00008F022FFB0EE40BAF0EE60BA1FED2E0B20
:1032C00053EC102B51EC1B0B07F06DFC41EC1A0B6F
:1032D0001FED331BB0EE4A0AF0EE6A0A08F00CFF4D
:1032E000B0EE409AF0EE609A51EC190B07F07CFEBC
:1032F00008EE100A9FEDE30AB4EEC08AF1EE10FA70
:1033000006DD9FEDE10AB4EEC08AF1EE10FA0BD3B0
:10331000B5EEC08AF1EE10FA0ADB9FEDDC0AB4EEDE
:10332000C08AF1EE10FA03D80120BDEC0A8B10BD63
:103330009FEDD70AB4EEC08AF1EE10FA01D8022050
:10334000F3E79FEDD40AB4EEC08AF1EE10FA01D88B
:103350000320EAE70420E8E710B52DED108B8AB0D2
:10336000B0EE408AF0EE608AB0EE419ACA4890ED25
:10337000000A28EE000ADFEDC90A80EE201A11EEDD
:10338000104A204607F0EDFDCDE908019DED080B40
:1033900008F0A2FCB0EE40FAF0EE60FA18EE900AE7
:1033A00007F0DFFD41EC1E0B53EC1F2B07F0A2FCD6
:1033B00041EC1C0B07F018FE0AEE900A19EE100AF9
:1033C00007F0CFFDCDE90601B34890ED000A28EEE5
:1033D000000ADFEDB20A80EE201A11EE104A2046F4
:1033E00007F0BFFD41EC1E0BB0EE4E0AF0EE6E0A88
:1033F00009F012FF8DED040B18EE900A07F0B1FDF5
:1034000041EC1C0B9DED040B53EC102B07F072FCF0
:1034100041EC1F0B9DED060B53EC102B07F0C3FB8B
:10342000CDE908019DED080B51EC100B07F0DCFD18
:103430000BEE100A9FED9A0A38EE400A9648D0ED3E
:10344000000A20EE200ADFED950A80EE201A11EE28
:10345000104A204607F085FDCDE908019DED080BD7
:1034600008F03AFCB0EE40FAF0EE60FA18EE900A7E
:1034700007F077FD41EC1E0B53EC1F2B07F03AFCD5
:1034800041EC1C0B07F0B0FD0BEE900A19EE100A90
:1034900007F067FD41EC1F0B9FED810A38EE400AF3
:1034A0007D48D0ED000A20EE200ADFED7C0A80EE98
:1034B000201A11EE104A204607F053FD41EC1E0B76
:1034C000B0EE4E0AF0EE6E0A09F0A6FE8DED040B8A
:1034D00018EE900A07F045FD41EC1C0B9DED040B26
:1034E00053EC102B07F006FC53EC1F2BCDE9060123
:1034F0009DED060B51EC100B07F055FBCDE90801D3
:103500009DED080B51EC100B07F06EFD0DEE100A4F
:103510009FED640A38EE400A5F48D0ED000A20EEC5
:10352000200ADFED5E0A80EE201A11EE104A2046D6
:1035300007F017FD41EC1E0BB0EE4E0AF0EE6E0ADE
:1035400008F0CAFBB0EE40FAF0EE60FA18EE900A0E
:1035500007F007FD41EC1C0B53EC1F2B07F0CAFBD7
:10356000CDE908019DED080B51EC100B07F03CFD77
:1035700009EE900A19EE100A07F0F3FC9FED490AD4
:1035800038EE400ACDE906014348D0ED000A20EEAE
:10359000200ADFED420A80EE201A11EE104A204682
:1035A00007F0DFFC41EC1E0BB0EE4E0AF0EE6E0AA7
:1035B00009F032FEB0EE40CAF0EE60CA18EE900A92
:1035C00007F0CFFC41EC1F0B53EC1C2B07F092FBD8
:1035D000CDE904019DED060B53EC102B9DED040B82
:1035E00051EC100B07F0DFFACDE908019DED080B57
:1035F00051EC100B07F0F8FC0AEE100AF0EE6A0A24
:10360000B0EE4B0A08F040FADFED240A20EE200A63
:103610002148D0ED000A80EE201A234880ED001AE0
:1036200022480168204890ED000ABDEEC00A10EE65
:10363000100AFFF724FC00EE100AB8EEC00A1A4880
:1036400080ED000A1A4890ED000AB8EEC00A194849
:1036500080ED000A1648006807F02DFCCDE9060150
:103660001BEE100A07F07DFC41EC1E0B9FED121BB8
:10367000B0EE4E0AF0EE6E0A22E000005802002082
:103680008802002000E04445000061450000E1435D
:1036900000C0A84400A00C454C0200200000E144FA
:1036A0000000964400001645B4020020EC03002000
:1036B000E4020020A80200200000000000000040FA
:1036C00008F082FFB0EE40FAF0EE60FA1AEE900ACF
:1036D00007F047FC41EC1E0B1FED091BB0EE4E0A34
:1036E000F0EE6E0A08F070FF8DED000B53EC1F2B0F
:1036F0009DED000B51EC100B07F055FACDE90201DE
:103700009DED020B09F0ECFDB0EE40CAF0EE60CA90
:103710009FEDFE0B53EC102B51EC1C0B07F05CFBE8
:10372000CDE904019DED060B53EC102B9DED040B30
:1037300051EC100B07F0DEFACDE908019DED080B06
:1037400051EC100B07F050FCF2490860F0EE6B0AE8
:10375000B0EE4D0A08F098F95FED300A20EE200A2D
:10376000ED48D0ED000A80EE201AEC4880ED001AFA
:10377000EB480168E94890ED000ABDEEC00A10EE82
:10378000100AFFF77CFB00EE100AB8EEC00AE3480F
:1037900080ED000AE34890ED000AB8EEC00AE24866
:1037A00080ED000ADF48006807F085FBCDE90601DF
:1037B0001DEE100A07F0D5FB41EC1E0B1FED421B5E
:1037C000B0EE4E0AF0EE6E0A08F0FEFE8DED020B32
:1037D0001BEE900A07F0C5FB41EC1E0B1FED4A1BC8
:1037E000B0EE4E0AF0EE6E0A08F0EEFE8DED000B24
:1037F0009DED020B53EC102B9DED000B51EC100BCB
:1038000007F0D1F941EC1C0BB0EE4C0AF0EE6C0A5B
:1038100009F066FDB0EE40FAF0EE60FA9FEDBB0BEA
:1038200053EC102B51EC1F0B07F0D6FACDE9040135
:103830009DED060B53EC102B9DED040B51EC100B82
:1038400007F058FACDE908019DED080B51EC100B7B
:1038500007F0CAFBB5490860F0EE690AB0EE4A0A03
:1038600008F012F95FED730A20EE200AAA48D0EDA5
:10387000000A80EE201AAE4880ED001AAD480168BB
:10388000AB4890ED000ABDEEC00A10EE100AFFF73B
:10389000F6FA00EE100AB8EEC00AA54880ED000A5C
:1038A000A04890ED000AB8EEC00AA34880ED000AD7
:1038B0009C48006807F0FFFA41EC1F0B1AEE100A53
:1038C00007F04FFB41EC1E0B1FED851BB0EE4E0ABF
:1038D000F0EE6E0A08F078FE8DED000B19EE900AFE
:1038E00007F03FFB41EC1E0B1FED8D1BB0EE4E0AA7
:1038F000F0EE6E0A08F068FEB0EE40CAF0EE60CA64
:103900009DED000B53EC102B51EC1C0B07F04BF909
:10391000CDE902019DED020B09F0E2FC8DED040BF7
:103920009FED7A0B53EC102B9DED040B51EC100B1B
:1039300007F052FA53EC1F2BCDE906019DED060B63
:1039400051EC100B07F0D6F9CDE908019DED080BFD
:1039500051EC100B07F048FB784908601AEE100A8A
:1039600007F0FFFA41EC1F0B1FEDAD1BB0EE4F0A45
:10397000F0EE6F0A08F028FE8DED080B19EE900AA4
:1039800007F0EFFA41EC1F0B1FEDB51BB0EE4F0A2D
:10399000F0EE6F0A08F018FE8DED060B9DED080B9A
:1039A00053EC102B9DED060B51EC100B07F0FBF8C0
:1039B00041EC1C0BB0EE4C0AF0EE6C0A09F090FCE6
:1039C000B0EE40EAF0EE60EA51EC1E0B07F091FA1F
:1039D0005B490860554890ED000ABDEEC00A5948A1
:1039E00080ED000A584890ED000AB8EEC00AFFF7D3
:1039F0004EFC564908600AB0BDEC108B10BDF0EECD
:103A0000400AB0EE600A524890ED001AB1EE411A39
:103A1000F4EEC10AF1EE10FA06D290ED001AB1EE02
:103A2000411AB0EE410A0EE0444890ED001A4848B1
:103A3000D0ED001AB4EEE11AF1EE10FA03DD90EDCC
:103A4000001AB0EE410A70473C48D0ED000AF5EE8E
:103A5000C00AF1EE10FA06DDD0ED000A70EEC00AE1
:103A6000C0ED000A06E03548D0ED000A70EE800A8D
:103A7000C0ED000A3148D0ED000A354890ED001A3B
:103A8000B1EE411AF4EEC10AF1EE10FA07D2D0ED10
:103A9000000AF1EE600A2948C0ED000A0FE027484D
:103AA000D0ED000A2A4890ED001AF4EEC10AF1EEBA
:103AB00010FA04DDD0ED000A2048C0ED000A70477E
:103AC0001E48D0ED000AF5EEC00AF1EE10FA06DD50
:103AD000D0ED000A70EE800AC0ED000A06E017483B
:103AE000D0ED000A70EEC00AC0ED000A1348D0ED18
:103AF000000A174890ED001AB1EE411AF4EEC10A1F
:103B0000F1EE10FA2CD2D0ED000A23E00000000004
:103B1000000034409C0200204C020020B80200202B
:103B2000F0030020E4020020AC020020A0020020EC
:103B3000BC020020F4030020B0020020A4020020F8
:103B4000C0020020C40200206C020020C802002035
:103B500018020020F1EE600AFE48C0ED000A0FE0F6
:103B6000FC48D0ED000AFC4890ED001AF4EEC10AC2
:103B7000F1EE10FA04DDD0ED000AF648C0ED000ABF
:103B80007047F648D0ED000AF5EEC00AF1EE10FAE3
:103B900006DDD0ED000A70EEC00AC0ED000A06E0B6
:103BA000EE48D0ED000A70EE800AC0ED000AEB4846
:103BB000D0ED000AE84890ED001AB1EE411AF4EE9B
:103BC000C10AF1EE10FA07D2D0ED000AF1EE600A58
:103BD000E248C0ED000A0FE0E048D0ED000ADE4800
:103BE00090ED001AF4EEC10AF1EE10FA04DDD0ED0A
:103BF000000ADA48C0ED000A7047D848D0ED000A44
:103C0000F5EEC00AF1EE10FA06DDD0ED000A70EE16
:103C1000800AC0ED000A06E0D048D0ED000A70EE40
:103C2000C00AC0ED000ACD48D0ED000ACA4890EDA8
:103C3000001AB1EE411AF4EEC10AF1EE10FA07D201
:103C4000D0ED000AF1EE600AC448C0ED000A0FE0B2
:103C5000C248D0ED000AC04890ED001AF4EEC10A47
:103C6000F1EE10FA04DDD0ED000ABC48C0ED000A08
:103C70007047BB48D0ED000AF5EEC00AF1EE10FA2D
:103C800006DDD0ED000A70EEC00AC0ED000A06E0C5
:103C9000B348D0ED000A70EE800AC0ED000AB048CB
:103CA000D0ED000AAC4890ED001AB1EE411AF4EEE6
:103CB000C10AF1EE10FA07D2D0ED000AF1EE600A67
:103CC000A748C0ED000A0FE0A548D0ED000AA248C1
:103CD00090ED001AF4EEC10AF1EE10FA04DDD0ED19
:103CE000000A9F48C0ED000A70479D48D0ED000AC9
:103CF000F5EEC00AF1EE10FA06DDD0ED000A70EE26
:103D0000800AC0ED000A06E09548D0ED000A70EE8A
:103D1000C00AC0ED000A9248D0ED000A8E4890ED2E
:103D2000001AB1EE411AF4EEC10AF1EE10FA07D210
:103D3000D0ED000AF1EE600A8948C0ED000A0FE0FC
:103D40008748D0ED000A844890ED001AF4EEC10ACD
:103D5000F1EE10FA04DDD0ED000A8148C0ED000A52
:103D6000704710B52DED068BB0EE408A18EE100AA4
:103D700007F0F7F841EC1A0B9FED7A0B53EC102B80
:103D800006F0B8FF41EC190B07F02EF908EE900A87
:103D90007648006847F2305188420FD1B2EE040AEB
:103DA00028EE000A724880ED000A90ED001ADFED5F
:103DB000710A9FED700AFFF7CFFA24E06E480068A1
:103DC0006E490968401A69490968081A00EE100A24
:103DD000B8EEC00A6A4880ED000A6A4890ED000A11
:103DE000F2EE080A20EE200A614880ED000A90ED0C
:103DF000001A654890ED000AF8EEC00A604890EDA0
:103E0000000AFFF7A9FAB5EEC08AF1EE10FA3AD02F
:103E10005648006847F23051884234D0534890EDFC
:103E2000000AB8EEC00AFFF732FA012806D00228CD
:103E30000DD0032814D0042824D11AE0B0EE680A6B
:103E4000FFF79FFEB0EE680AFFF73AFE1AE0B0EE09
:103E5000680AFFF74AFFB0EE680AFFF792FE11E02A
:103E6000B0EE680AFFF7C9FEB0EE680AFFF7ECFD96
:103E700008E0B0EE680AFFF7FCFEB0EE680AFFF754
:103E80001FFE00BF00BF334890ED001A3348D0ED4D
:103E9000000A334890ED000AFFF785F93B48D0ED62
:103EA000000AF8EEE00A80EE801ABDEEC10A38483A
:103EB00080ED000A3748006835490968884203DD0B
:103EC0003348006833490860012033490860BDEC7D
:103ED000068B10BD10B5044600202B4908602F4802
:103EE0000460FCB900202B4908609FED220A2C4891
:103EF00080ED000A47F230501C49086029490860EB
:103F00009FED1C0A1F4880ED000A0020264908602A
:103F10002649086026490860264908609FED150A71
:103F2000FFF71FFF10BD10B5164890ED000AB5EE63
:103F3000C00AF1EE10FA05D11B48006810B91B4801
:103F40000068C8B39FED0B0A0E4880ED000A002000
:103F5000154932E0A402002018020020A00200202F
:103F60009C020020333333333333D33F6C020020C1
:103F700008030020000000009002002078020020CA
:103F8000F8010020800200205C020020FC010020DB
:103F9000600200205802002050020020640200202D
:103FA00084020020700200205402002074020020CD
:103FB00088020020200300200BE00860FE49086012
:103FC000FE480068FE490860FE4890ED000AFFF7D1
:103FD000C8FE10BDFC48C0ED000AFC4880ED000A98
:103FE000704770B52DED028B05460C46B0EE408A49
:103FF000F7480068A8420BD1F6480068A04207D1F4
:10400000F54890ED000AB4EE480AF1EE10FA18D027
:10401000F0480460F148006810B90520EF490860D5
:10402000E6480068E6490860EB4880ED008AE84809
:1040300005600020EA490860E24890ED000AFFF7B9
:1040400090FEBDEC028B70BD70B52DED028B044669
:10405000B0EE408A0D46D8480068A0420BD1D9483E
:1040600090ED000AB4EE480AF1EE10FA03D1DD48F3
:104070000068A84237D0D648006847F230518842DD
:1040800022D13220D34908600A20D449086047F27F
:104090003050844218DA0120D3490860B5EEC08A56
:1040A000F1EE10FA03DDC5480068A04208DCB5EE69
:1040B000C08AF1EE10FA07D2C0480068A04203DAC5
:1040C000B1EE480AB0EE408ABB480460C5480560BE
:1040D000BC4880ED008A0020C1490860B94890EDD5
:1040E000000AFFF73EFEBDEC028B70BD10B52DED52
:1040F000028BB0EE408A04462146B0EE480A47F2F1
:104100003050FFF7A1FFBDEC028B10BD70B5044627
:104110000D461FED680A29462046FFF762FF70BD75
:1041200010B52DED088BF0EE408A0446B0EE608AA3
:10413000B0EE419AAD4890ED000AB8EEC00AB4EE78
:10414000680AF1EE10FA0DD1A2480068A04209D128
:10415000994890ED000AB8EEC00AB4EE480AF1EEB4
:1041600010FA5ED0BDEEE80AA04880ED000A93493F
:1041700091ED000AB8EEC00A38EEC00ABDEEC00AE2
:1041800010EE100A1FED850A2146FFF72AFF8B4823
:10419000D0ED000AF8EEE00A78EE600AB0EE600AB0
:1041A000FEF7D2FFDFED920AB4EEE00AF1EE10FA6C
:1041B00014DD824890ED000AB8EEC00AB4EEC08A61
:1041C000F1EE10FA02DDB0EE490A01E0B1EE490A63
:1041D00010EE101A084606F0C4FE13E0774890ED82
:1041E000000AB8EEC00A38EE400A10EE101A08466F
:1041F00006F0B7FE41EC1B0B9FED7E0B53EC102B32
:1042000006F078FD41EC1A0B06F0EEFE09EE900A7E
:104210000021B0EE690AFDEEC80A10EE900AFFF721
:1042200013FFBDEC088B10BD10B56F480068012866
:104230003DDD61490968614A1268881AFEF791FFFD
:1042400005280CDA684801680068401C664A10605E
:10425000B1F5FA7F2BDD0020FFF73CFE10BD624870
:104260000068FA2808DD05205A4908605B490860A3
:10427000FB205D49086004E0052056490860574965
:1042800008604E4800684C490968884205DDBFEE69
:10429000000A4C4880ED000A04E0B7EE000A4948E5
:1042A00080ED000A474890ED000AFFF75AFD00BF75
:1042B000D4E710B52DED028B474890ED000AB5EE1E
:1042C000C00AF1EE10FA08D14448006828B13A4813
:1042D000006847F23051884202DBBDEC028B10BD12
:1042E00037490968354A1268881AFEF7E5FEB0EECC
:1042F000408AFFF736FD00BFEFE700B53A48006897
:10430000022815DA1FEDE50A334880ED000A1FED9B
:10431000E70A2C4880ED000A00203249086047F285
:1043200030502B490860314908600020224908605C
:104330002B480068401C2A490860304909688842B7
:1043400004DA2F480068FEF772FE0EE02B48006882
:10435000234908602B48006820B129480068FEF70F
:1043600066FE02E00020FEF762FE00BD1C4A1268F5
:10437000521C1B4B1A60824207DD184A12680A441D
:10438000164B1A600022164B1A60704770B5FEF784
:1043900075FE0A490860FFF747FF0E4800680028CD
:1043A0004ADD0E4800680B490968884252D00B4824
:1043B00000680849096827E0740200209002002084
:1043C0007802002080020020380200203C020020F9
:1043D0006C0200205C0200208402002058020020B1
:1043E0006802002054020020880200207002002091
:1043F00000004842FCA9F1D24D62403F4402002037
:10440000400200202003002088420EDAFE480068A7
:10441000FE49096888421DDAFB480068FEF7A8FEDD
:1044200004460121FFF7A2FF14E04FF0FF31F848E6
:104430000068FFF79BFF0DE0F3480068002806DDE9
:104440004FF0FF31F3480068FFF790FF02E0FFF7FD
:1044500054FF70BDF0480068F0490968884205D0F3
:10446000FFF727FFED480068EB490860EC4800685B
:10447000E8B3E548D0ED000AF8EEE00AE94890ED2F
:10448000001A60EE810AB0EE600AFEF7FCFD0446F9
:10449000DD48D0ED000AF8EEE00AE34890ED001A9E
:1044A00060EE810AB0EE600AFEF7EDFD0546D648E3
:1044B000D0ED000AF8EEE00ADC4890ED001A60EE5C
:1044C000810AB0EE600AFEF7DEFD06462246294666
:1044D000FEF74BFDD64890ED000ABDEEC00A10EE87
:1044E000102AD44890ED000ABDEEC00A00E00AE0B0
:1044F00010EE101AD04890ED000ABDEEC00A10EE82
:10450000100AFEF78DFD00BFA3E710B50221CB48CE
:1045100002F0C8FC00283DD1C9480068401FC949C5
:1045200008600846006840F24E21884219DAC64801
:1045300000781E30C54981F82700C34800781E382E
:1045400081F82B00C04800781E3881F82F00002029
:1045500081F82600012081F82A00002081F82E0031
:1045600018E0B94800780F30B84981F82700B648FC
:1045700000780F3881F82B00B34800780F3881F8A5
:104580002F00002081F82600012081F82A00002059
:1045900081F82E0010BD10B50221A84802F082FC5F
:1045A000E0B9AB480068A7490860A74800781E300A
:1045B000A64981F82700A44800781E3881F82B000E
:1045C000A14800781E3881F82F00002081F82600CD
:1045D000012081F82A00002081F82E0010BD10B5BE
:1045E0000221964802F05EFC00283AD19448006807
:1045F000401D944908600846006840F24E218842F8
:1046000019DA914800781E30904981F827008E48C9
:1046100000781E3881F82B008B4800781E3881F80E
:104620002F00002081F82600012081F82A000020B8
:1046300081F82E0015E084480078844981F827002D
:104640008148007881F82B007F48007881F82F009E
:10465000002081F82600012081F82A00002081F83E
:104660002E0010BD10B57B48007800F08000C0B16E
:1046700040F2DB107849086042F2107005F012FE3B
:104680000020724981F82F0081F82B0081F8270063
:10469000D7207149086000206C4981F83F006F49BC
:1046A000086010BD10B56B48407800F0020068BB90
:1046B0006848407800F0200040B33220634981F818
:1046C0003F007B206649086002E0012005F0EAFD1A
:1046D00064490968624A1268881A002801DB0146A9
:1046E00000E041420329F0DC00205F49086001201E
:1046F0005E49086000205E4908605E4800685E49C7
:1047000008603220514981F83F0012E05B4801689F
:1047100058480068C01C81420BDC57480068554966
:104720000968884205D15048006810B901205449F1
:1047300008604848407800F0020010BB45484078C7
:1047400000F00400E8B17B204549086002E0012048
:1047500005F0A8FD43490968414A1268881A0028F3
:1047600001DB014600E041420329F0DC45480068D6
:104770004149086001203C49086000204049086028
:1047800015E03B48006890B93B4800683D4909681E
:1047900088420CD13B4800680A3838490968884289
:1047A00005DA00203149086001203149086010BD58
:1047B000002100EE900AF8EEE00A70EE600AFDEECD
:1047C000E00A10EE901A304A1160704710B52DEDD6
:1047D000068B2048C07801EE100AB8EE411ADFEDD2
:1047E0002B1A31EE611AF0EE410A1A48807801EE78
:1047F000100AB8EE411ADFED251A31EE611AB0EE5B
:10480000410A07F041F943E058020020600200200D
:1048100098020020640200209402002090020020F0
:1048200050020020A4020020A00200209C020020D0
:10483000BC020020B8020020B40200200010024098
:10484000A4010020C40300208403002004000020F1
:10485000E0010020DC06002038010020B403002025
:1048600020010020AC000020AC030020A4030020A5
:10487000A8030020300100202C010020B0000020FF
:10488000A003002034010020C80300200000FF42E4
:1048900010EE104A204606F064FB41EC1A0B9FED27
:1048A000FB0B53EC102B06F025FA41EC190B06F02C
:1048B0009BFB08EE100AB5EEC08AF1EE10FA05D2A5
:1048C0009FEDF40A38EE000AB0EE408AF248C07854
:1048D0007E2807D1F04880787F2803D19FEDEF0A2A
:1048E000B0EE408A9FEDEE0AB4EEC08AF1EE10FA07
:1048F00006D8B2EE040A28EE000AB0EE408A09E0BB
:104900009FEDE40A38EE400AF2EE040A20EE200A97
:10491000B0EE408A9FEDE30A38EE400AE24880EDAF
:10492000000ABDEC068B10BD10B5DB48407800F0E6
:104930008000002834D00A20DC4981F82F0081F85B
:104940002B0081F82700012081F82600002081F843
:104950002A00012081F82E0000240FE006E0FBF77A
:10496000CBFF00B108E0012005F09CFC0221D048FB
:1049700002F098FA0128F2D000BF641C642CEDDB31
:1049800040F6B83005F08EFC3220C84981F83F006F
:10499000002081F82F0081F82B0081F8270000BF4C
:1049A00010BD70B52DED028B06460C461546FDF781
:1049B000FEFA0020BF49086037E020E0FCF7ABF8C2
:1049C0004FF46171484390FBF5F0C4EB4411C1EB27
:1049D0000421C0EB810000EE100AB8EEC00AB0EE70
:1049E000408A9FEDB51ADFEDB40A3046FFF798FB19
:1049F000FBF782FF00B112E0012005F053FC002C10
:104A000003DDAE4800680A2805DC002C07DAAC4854
:104A100000680A2803DDFCF77EF8A842CEDB00BF61
:104A2000A4480068401CA3490860A24800686428A4
:104A3000C3DBBDEC028B70BD2DE9F04140F6B8340C
:104A400041F2883500260027FDF7B1FA9FED9A1A4A
:104A5000DFED990A32209FED9B0AFFF761FB0020F2
:104A60009449086017E006E0FBF746FF00B10CE050
:104A7000012005F017FC92480068322805DDFCF79C
:104A80004AF841F288318842EEDB00BF894800686D
:104A9000401C88490860874800686428E3DB41F2CD
:104AA00088324FF0FF313220FFF77BFFFDF77FFAAE
:104AB00000208049086020E00FE09FED7F1ADFEDC5
:104AC0007E0A32209FED800AFFF72AFBFBF714FFD6
:104AD00000B10CE0012005F0E5FB794800683228C0
:104AE00005DDFCF718F840F6B8318842E5DB00BF79
:104AF00070480068401C6F4908606E480068642870
:104B0000DADB0020FFF7E6F94FF47A7005F0CAFB14
:104B1000BDE8F08110B52DED068B6C48016800688A
:104B2000401C6A4A1060642907D269484089694973
:104B300009680844674908600BE06648006864211A
:104B4000B0FBF1F0644908600020604908606149E9
:104B500008605F49088906F0BFF941EC1A0B9FED28
:104B60005F0B53EC102B06F0C5F841EC190B9FEDD1
:104B70005D0B53EC102B06F016F841EC180B06F009
:104B8000B8F95A4908605A4801680068401C584AF8
:104B90001060642907D24E48808956490968084444
:104BA000544908600BE0534800686421B0FBF1F001
:104BB0004249086000204E4908604E4908604E484E
:104BC00001680068401C4C4A1060782907D24048B0
:104BD000C0894A4909680844484908600BE04748C9
:104BE00000687821B0FBF1F03549086000204249A7
:104BF000086042490860424801680068401C404A19
:104C000010600A2907D23248C0883E490968084422
:104C10003C4908600BE03B4800680A21B0FBF1F01A
:104C2000394908600020364908603649086037482D
:104C300001680068401C354A1060322907D22448B8
:104C40004088334909680844314908600EE030481B
:104C500000683221B0FBF1F00521B0FBF1F02D49E5
:104C60000860002029490860294908602A4801682D
:104C70000068401C284A1060322951D2144800882C
:104C80002649096808442549086055E0F8C1631AB7
:104C9000DCA54C400000B443DC06002000409C46EC
:104CA000000034430000E143CC0000200400002059
:104CB000001002405403002000000000A400002067
:104CC000A0000020000061C40080D4C4FC030020C8
:104CD000900600200004002098000020D1CB2896E8
:104CE0005B0A2440643F8BA548E966409C00002095
:104CF0000C040020100400201404002018040020DC
:104D00001C04002020040020B40000202404002003
:104D100028040020AC0000202C04002030040020D7
:104D2000F74800683221B0FBF1F0F6490860002036
:104D3000F5490860F2490860BDEC068B10BD70B5FE
:104D4000014600230A2902DDB1F53D7F00DB70BD7D
:104D5000002007E0ED4C54F820408C4201D10123A3
:104D600004E0401CEA4C2468A042F3DB00BF03B11E
:104D7000EDE7E74C2468142C09DAE54C2568246833
:104D8000641CE34E3460E14C44F8251017E0DF4C1E
:104D90002268012008E0DD4C54F82040944202DAF9
:104DA000DA4C54F82020401CD94C2468A042F2DB95
:104DB000D84C2260D54C21600124D54D2C60D34CB9
:104DC0002268012008E0D14C54F82040944202DAD5
:104DD000CE4C54F82020401CCD4C2468A042F2DB7D
:104DE000CD4C2260CD4C2468641CCC4D2C6000BF9F
:104DF000ADE7002004E00021C44A42F82010401C26
:104E00001428F8DB0021C24A1160C44A1160C24A6A
:104E100011607047C2480068C2490968884203DAD5
:104E2000C0480068BE490860BD480068BE490968BE
:104E3000884203DDBC480068B9490860B149096887
:104E4000B74A1268881A002801DB014600E0414297
:104E5000032957DDAB480068B1490968884204DD81
:104E60000120B24981F8220003E00020AF4981F817
:104E70002200A4490968AA4A1268881A002801DB9E
:104E8000014600E0414201EB8101A94A1160A948B5
:104E90000068012810D110460068782803DD7820CA
:104EA0001146086028E097480068B0F55C7F23DB76
:104EB00032209F4908601FE09D480068C82802DD35
:104EC000C8209B4908608F480068B0F5487F02DB26
:104ED0005020974908608B48006840F2EE218842D4
:104EE00002DBA0209249086086480068B0F5E17FA7
:104EF00002DC50208E4908608D4800788B4981F88B
:104F0000230003E00820894981F823008A480068CB
:104F100018B90020854981F82300704710B58748EB
:104F2000C079A0B18548407800F0040078B17C4891
:104F300000687D490968884209DA79480068401CA0
:104F4000774908604FF4967005F0ACF916E07B489D
:104F5000C07998B17948407800F0200070B170486D
:104F6000006870490968884208DD6D480068401E85
:104F70006B4908604FF4C87005F094F910BD704893
:104F8000006870490968884203DA6E4800686C4915
:104F900008606B4800686C490968884203DD6A480C
:104FA00000686749086069490968654A1268881A93
:104FB000002801DB014600E0414203292FDD634860
:104FC00000685F490968884204DD0020574981F87C
:104FD000320003E00120554981F832005B4909683D
:104FE000574A1268881A002801DB014600E0414256
:104FF00049004F4A116010460068782802DD782089
:10500000114608604A480068142802DA142048490A
:10501000086047480078454981F8330003E00220E2
:10502000424981F8330049480068B0F57A7F03DDD2
:1050300000203E4981F8330044480068322803DAF2
:1050400000203A4981F83300704710B53B4840785A
:1050500000F0010008B1642400E0FA2437484078E9
:1050600000F0080098B13548407800F0020070B9AF
:105070003348006834490968884208DA30480068D3
:10508000401C2F490860204605F00CF917E02B481A
:10509000407800F0100090B12848407800F00200FD
:1050A00068B92748006827490968884207DD24480D
:1050B0000068401E22490860204605F0F3F810BD44
:1050C00010B52DED048B22480068224909688842FA
:1050D00003DA204800681E4908601D4800681E4920
:1050E0000968884203DD1C480068194908601B49AB
:1050F0000968174A1268881A002831DB014630E037
:1051000030040020B00000202C0400207445002052
:10511000CC030020B4010020A4010020D003002013
:105120002C01002030010020340100200400002068
:10513000D8030020AC030020A4030020DC060020DC
:10514000200100202401002028010020AC000020C4
:1051500038010020400100203C010020B400002064
:105160004142042935DDF9480068F9490968884257
:1051700004DD0020F74981F83A0003E00120F549F9
:1051800081F83A00F1480068F1490968441A002C96
:1051900001DB214600E06142084605F08CFE41EC4F
:1051A000190B9FEDED0B53EC102B05F0A3FD41EC1B
:1051B000180B05F09EFEEA49086008460068FA28C8
:1051C00001DDFA200860E6480078E24981F83B00FA
:1051D00003E00020DF4981F83B00BDEC048B10BDEB
:1051E0002DE9F043044640F226284FF00F092646E9
:1051F000A6F22627F2EE0E0A60EE200AFDEEE00A85
:1052000010EE900A00F22620A7F10A014518D548B1
:105210000068854201DDD3480568D34800688542AF
:1052200001DAD1480568D1480560D1480068FFF728
:1052300086FDBDE8F08310B50221CE4801F032FEB4
:10524000C8B9CD4890ED000ABDEEC00ACB4880ED4C
:10525000000ACB480078BF4981F82F0081F82B0065
:1052600081F82700002081F82600012081F82A001B
:10527000002081F82E0010BD10B5FFF7DCFFC148FB
:105280000068C14991ED000AFFF7AAFF10BD00B503
:10529000BC480068B7EE000AFFF7A2FF00BD00B5EA
:1052A000BA48007800F00200A0B10020A94981F8B6
:1052B0002F0081F82B0081F82700B5490860A54927
:1052C00081F83F00B3490860B3490860B3490860FA
:1052D000FFF78FFD00BD10B52DED0A8B04460221AE
:1052E000A44801F0DFFD00287DD1204605F0E3FD54
:1052F00041EC1C0B9FEDAA0B53EC102B05F0FAFCB4
:1053000041EC1B0B9FEDA80B53EC102B05F0EFFCB1
:1053100041EC190BA6490968601805F0CCFD41EC79
:105320001A0B53EC192B05F03EFC41EC180B05F061
:10533000FFFD884981F82700204605F0BCFD41ECBF
:105340001C0B9FED970B53EC102B05F0D3FC41EC9D
:105350001B0B9FED950B53EC102B05F0C8FC41EC9B
:10536000190B93490968601805F0A5FD41EC1A0B6B
:1053700053EC192B05F0B8FC41EC180B05F0D8FDE7
:10538000744981F82B00204605F095FD41EC1C0B7B
:105390009FED830B53EC102B05F0ACFC41EC1B0B89
:1053A0009FED810B53EC102B05F0A1FC41EC180B89
:1053B0007F490968601805F07EFD41EC1A0B53EC3B
:1053C000182B05F091FC41EC190B05F0B1FD61497A
:1053D00081F82F00002081F82600012081F82A00A2
:1053E000002081F82E00BDEC0A8B10BD10B50A20FC
:1053F000584981F82F0081F82B0081F827000120FF
:1054000081F82600002081F82A00012081F82E0072
:1054100000240FE006E0FBF76FFA00B108E001207E
:1054200004F040FF0221534801F03CFD0128F2D076
:1054300000BF641C642CEDDB40F6B83004F032FF92
:105440003220444981F83F00002081F82F0081F884
:105450002B0081F8270010BD10B532203D4981F89E
:105460003F0040F225204149086002E0012004F09D
:1054700019FF444909683D4A1268881A002801DB6F
:10548000014600E041420229F0DC00204949086061
:1054900001204949086000204849086048480068E0
:1054A0004849086032202B4981F83F0010BD10B5F3
:1054B000FCF77DFD32214FF4E160FEF727FE00206E
:1054C0004149086012E006E0FBF716FA00B107E078
:1054D000012004F0E7FEFBF71EFBB0F5486FF3DB9D
:1054E00000BF39480068401C3749086036480068EA
:1054F0006428E8DBFCF75BFD23214FF4E160FEF755
:1055000005FE00203049086012E006E0FBF7F4F9E0
:1055100000B107E0012004F0C5FEFBF7FCFAB0F58E
:105520007A7FF3DB00BF28480068401C26490860EA
:10553000254800686428E8DB0020FEF7CBFC4FF428
:105540007A7004F0AFFEFFF787FF10BDB4000020B3
:105550003801002004000020333333333333F33F6A
:10556000D803002028010020240100202001002071
:105570009C000020001002407C010020C403002099
:1055800084030020AC00002080010020DC06002005
:10559000C0030020BC030020B8030020B403002097
:1055A0009A9999999999D93F0000000000005940B3
:1055B00088010020AC030020A4030020A8030020E1
:1055C000300100202C0100205403002070B54FF45E
:1055D00096540026FCF7EBFC9FEDFE1ADFEDFD0A6A
:1055E00023209FEDFC0AFEF79BFD00250DE006E061
:1055F000FBF782F900B106E0012004F053FEFBF74F
:105600008AFAA042F4DB00BF6D1C642DEFDBFBF7D0
:1056100082FA0646A64206DB0020FEF75BFC4FF44A
:105620007A7004F03FFE70BD70B5BE24EA48407841
:1056300000F0400000283DD00F20E84981F82F00FD
:1056400081F82B0081F82700012081F82600002036
:1056500081F82A00012081F82E0000250FE006E0E5
:10566000FBF74AF900B108E0012004F01BFE02211B
:10567000DB4801F017FC0128F2D000BF6D1C642D3F
:10568000EDDB3220D54981F83F0040F6B83004F018
:1056900009FED24981F8274081F82B4081F82F403C
:1056A000002081F82600012081F82A00002081F8DE
:1056B0002E0000BF70BD10B52DED0A8BB0EE408AF4
:1056C000F0EE608A9FEDC70B53EC102B51EC180BDA
:1056D00005F010FB41EC1A0B9FEDC40B53EC102BA3
:1056E00051EC180B05F006FB41EC1C0B53EC182B8E
:1056F00005F000FB41EC1B0B53EC1A2B05F053FAA1
:1057000041EC190B9FEDBB0B53EC102B05F0ECFAA1
:1057100041EC100BBDEC0A8B10BD70B52DED048B68
:1057200000254624BE260120B4490860FCF7A2FFEC
:1057300000BFB420A94981F83300002081F832006D
:1057400002E0012004F0AEFDAD490968081B002805
:1057500001DB014600E041420129F2DC1E209F49A5
:1057600081F83300012081F83200002534E0012067
:1057700004F098FDA3480068B0F57A7F00DAD8E716
:10578000A048006840F6B831884218DD9D4800689E
:10579000B0F5FA5F13DA0DB99948056898480068C2
:1057A000001B00280BDD96480068001B642806DA01
:1057B00093490968081B93490968FCF773FF002D9A
:1057C0000ADD8F490968481B002801DB014600E01B
:1057D0004142032900DD09E089490968881B002846
:1057E00001DB014600E041420129C0DC00BF00BFEF
:1057F000B4207A4981F83300012081F8320002E0B8
:10580000012004F04FFD7E490968881B002801DB58
:10581000014600E041420129F2DC1E206F4981F877
:105820003300002081F83200002534E0012004F02C
:1058300039FD74480068B0F57A7F00DAD8E771481E
:10584000006840F6B831884218DD6E480068B0F54F
:10585000FA5F13DA0DB96A48056869480068001BE9
:1058600000280BDD66480068001B642806DA6449DE
:105870000968081B63490968FCF714FF002D0ADD5D
:105880005F490968481B002801DB014600E04142EE
:10589000032900DD09E05A490968081B002801DBDB
:1058A000014600E041420129C0DC00BFFDF704F8D9
:1058B0005548006805F0FFFA41EC180B53480068A2
:1058C00005F0F9FA41EC190B51495248B0EE481A6B
:1058D000F0EE681AB0EE490AF0EE690AFDF78BF8AF
:1058E000C0B102203D4981F833000A2081F82F0021
:1058F00081F82B0081F82700012081F82600002084
:1059000081F82A00012081F82E0002E0012004F035
:10591000C9FCFBE73E4800682044C01E3C490860C3
:1059200046202E4981F83300002081F8320014E02F
:105930003348006836490968884204DD0020274959
:1059400081F8320006E00120244981F832000F205E
:1059500081F83300012004F0A5FC294A12682C4B81
:105960001B68D11A002901DB0A4600E04A42012ADD
:1059700009DD234A1268101B002801DB024600E003
:105980004242022AD4DC0220144981F8330000206C
:105990001A4908601E4800681F4908601D480068D1
:1059A00005F089FA41EC190BB0EE490AF0EE690AEC
:1059B000FFF781FEB0EE408AF0EE608A51EC180BE2
:1059C00005F097FA1549086008460068FFF783FC60
:1059D00071E0000000000000DC0600200400002050
:1059E00000100240D712F241CF66A53F8AE998AC79
:1059F000B7F1BABE8FC2F5285C8F2D40840100201C
:105A0000AC0000209C000020C8010020C401002040
:105A100044010020E0010020200100208403002038
:105A2000012004F03FFCFA48407800F00200C0B1C9
:105A3000F748407800F0080098B1F6480068801CEC
:105A4000F449086002E0012004F02CFCF0484078A2
:105A500000F0020028B1EE48407800F0080000286D
:105A6000F1D1EB48407800F00200C0B1E84840783E
:105A700000F0100098B1E7480068801EE549086012
:105A800002E0012004F00EFCE148407800F0020042
:105A900028B1DF48407800F010000028F1D1DE483E
:105AA0000068FFF718FCFEF7DDFDD948007800F02C
:105AB000020000B100E0B3E700BFBDEC048B70BD95
:105AC00073B52DED028B14251FED3E0AB0EE408A12
:105AD000CF480079322805DBCD480079C82801DCA1
