:020000040800F2
:10000000C0320020015700084502000847020008DE
:100010004B0200084F0200085302000800000000D5
:100020000000000000000000000000009D0100082A
:100030005702000800000000E10100081B870008CB
:100040001B5700081B5700081B5700081B570008C8
:100050001B5700081B5700081B5700081B570008B8
:100060005D040008A10400081B57000801030008F4
:10007000E30200083F0300081B5700087502000850
:100080001B570008810200081B5700081B57000877
:100090001B5700081B5700081B5700081B57000878
:1000A0001B5700087B0300081B5700081B5700085C
:1000B000A7030008D5030008010400081B57000827
:1000C0001B5700081B5700081B570008590400085D
:1000D0001B5700085D0200081B5700081B5700084B
:1000E0001B5700081B5700081B5700081B57000828
:1000F0001B5700081B5700081B5700081B0300086C
:100100001B5700081B5700082D0400085B0400085B
:100110001B5700081B5700084D030008590300082F
:100120001B5700089B020008B50200081B57000877
:100130001B5700081B5700081B5700081B570008D7
:100140001B5700081B5700081B5700081B570008C7
:10015000D50200081B5700081B5700081B57000852
:100160001B5700081B5700081B5700081B570008A7
:100170001B5700081B5700081B5700081B57000897
:100180001B5700081B570008DFF80CD009F0D6FDFC
:10019000004800471D540008C0320020234B196856
:1001A0000868B0E8F04F80F309884FF0000080F352
:1001B000118870470000000003480068006880F361
:1001C000088862B600DF00BF08ED00E0DFF80C0031
:1001D000016841F470010160704700BF88ED00E0E4
:1001E000EFF30980114B1A681EF0100F08BF20EDC5
:1001F000108A20E9F04F106008B54FF0140080F32A
:10020000118808F052FE4FF0000080F31188BDE81D
:10021000084019680868B0E8F04F1EF0100F08BFDA
:10022000B0EC108A80F30988704700BFF402002008
:10023000EFF311804FF0140181F31188704780F3C0
:1002400011887047704700BFFEE700BFFEE700BFA0
:10025000FEE700BFFEE770477047704710B540F2F9
:100260002551904807F06DFB18B120218D4807F00B
:100270005FFB10BD10B58C498C4806F097FA10BD95
:1002800010B58B498948303006F066FA20B18849AC
:100290008648303006F08AFA10BD10B58549864888
:1002A00006F05AFA28B18349834806F07FFA01F034
:1002B0001DFD10BD10B581497F48183006F076FA53
:1002C0007F4840787E49097840EA012000B27D49A4
:1002D000088010BD10B57C497748603006F066FA9A
:1002E00010BD10B573497148483806F035FA30B181
:1002F00070496E48483806F059FA00F09FFA10BD70
:1003000010B572496948603806F026FA20B16F4985
:100310006648603806F04AFA10BD10B56C4963486B
:10032000483006F019FA48B100216048483006F01C
:1003300069F967495D48483006F038FA10BD10B5D4
:1003400059495A48303806F031FA10BD10B501212C
:10035000604807F053F810BD10B501215E4807F062
:100360004DF87A204F49888001215C4807F0F8F960
:1003700001215B4807F0F4F910BD10B5012159487F
:1003800007F03CF85748008800F0100028B15648A4
:100390000068401E5449086004E053480068401C4F
:1003A0005149086010BD10B50121880707F026F8F3
:1003B0004FF08040008800F0100028B14B480068E2
:1003C000401E4A49086004E048480068401C47490C
:1003D000086010BD10B50121454807F00FF84448EA
:1003E000008800F0100028B142480068401E4149D2
:1003F000086004E03F480068401C3E49086010BDAA
:1004000010B501213C4806F0F9FF3B48008800F098
:10041000100028B139480068401E3849086004E0DF
:1004200036480068401C3549086010BD10B50121F0
:10043000334806F0E3FF3248008800F0100028B18E
:1004400030480068401E2F49086004E02D480068CD
:10045000401C2C49086010BD7047704710B504203F
:1004600006F03CFAD8B12021274805F0C0FA042153
:10047000264805F097FA012804D10021164806F015
:100480003DFB09E00421214805F08CFA20B912480F
:1004900006F038FB1E49086004201E49086010BDA4
:1004A0007047000000100140208000207060024072
:1004B0000080202000880010286402400080201066
:1004C000100500206400002000880020208000101B
:1004D0000080002800100040001400400048004048
:1004E00000140140000001404400002048000020AA
:1004F000000400404C000020000800406000002084
:10050000000C00405000002000000240000C02409F
:1005100040000020143C014070B50446204609F01C
:10052000ADF805462146F74809F0AFF8A0B195228D
:100530002146F44809F096F80021F34806F062F8E5
:10054000F048F1490C310860EF48B838C0F8BC50A9
:100550000121ED4806F056F870BD70B5044600253F
:1005600010E0605D68B1615DE84807F024F900BF04
:100570008021E64807F0CFF90028F9D0681CC5B201
:1005800000E070BDEDE770B5044600250FE05CB1FA
:100590002146DE4807F00FF900BF8021DB4807F055
:1005A000BAF90028F9D000E070BD681CC5B2032D6F
:1005B000EDDB00BFF8E713B50C460020FFF7E3FFC3
:1005C000D3A0FFF7CAFF2346D2A29621D24809F052
:1005D0000FFCD148FFF7C1FFD0A0FFF7BEFFCDA2AF
:1005E0009621CD48009B09F003FCCB48FFF7B5FFEF
:1005F000CCA0FFF7B2FFFF20FFF7C5FFFF20FFF7FA
:10060000C2FFFF20FFF7BFFF1CBD70B505460C46BB
:10061000BFA0FFF7A2FF2246BEA1BF4809F000FC21
:10062000BD48FFF79AFFBDA0FFF797FF2846FFF7E9
:1006300094FFBCA0FFF791FFFF20FFF7A4FF70BD60
:1006400077B585B00546FF26B4A103C9CDE90301FE
:10065000B4A000680290AEA00068019000240AE0F7
:100660000020B1490855B1490855AB490855A5497D
:100670000855601CC4B21E2CF2DB0A20A649087083
:10068000FF2048708870C870A2A1A848079A09F096
:10069000C7FBA64901A808F0D9FF01A99E4808F0A8
:1006A000D5FF03A99C4808F0D1FF29469A4808F0D5
:1006B000CDFF98A19D48069A09F0B2FB9B49964848
:1006C00008F0C4FF02A9944808F0C0FFFF20964933
:1006D000087048708870904808F0B8FF8E48FFF79F
:1006E0001BFF08B070BDF7B584B005460E46FF2766
:1006F0008AA103C9CDE902018AA00068019084A003
:1007000000680090002408E00020874908558749C8
:10071000085581490855601CC4B20A2CF4DB0A2034
:100720007D490870FF2048708870C87079A17F48A3
:10073000069A09F075FB7D49684608F087FF69460F
:10074000754808F083FF02A9734808F07FFF294627
:10075000714808F07BFF31466F4808F077FF01A928
:100760006D4808F073FFFF206F490870487088706B
:100770000020C8700871684808F068FF6648FFF7F5
:10078000CBFE07B0F0BD01B58EB069A2322101A841
:100790000E9B09F02DFB01A8FFF7BEFE0FB000BDB8
:1007A00073B584B00546FF265CA103C9CDE90201FB
:1007B0005CA00068019056A00068009000240AE048
:1007C00000205949085559490855534908554D497C
:1007D0000855601CC4B21E2CF2DB0A204E4908707A
:1007E000FF2048708870C8704AA15048059A09F0E7
:1007F00017FB4E49684608F029FF6946464808F04D
:1008000025FF02A9444808F021FF2946424808F084
:100810001DFF4649404808F019FF01A93E4808F06D
:1008200015FFFF2040490870487088703A4808F06A
:100830000DFF3948FFF770FE06B070BD1CB53F488C
:1008400000783E49497808443C49897808443B4946
:10085000C97808443949097908443849497908442C
:100860003649897908443549C97908443349097AB0
:100870000844C0B201903148007A00F00F000090A7
:100880009DF800000D2803D000212D4806F068FFD8
:100890001CBD2A48007A00F00F000D2806D1274819
:1008A000007800F0010008B10D2070470020FCE73F
:1008B0001CB5244806F026F92349096840EA01409E
:1008C0000A2190FBF1F00090002417E01D4806F08B
:1008D00019F91D49096840EA01400A2190FBF1F02D
:1008E0000190DDE90021881A002801DB014600E0C3
:1008F0004142052900DA641C01980090022CE5DBD6
:1009000001981CBD6A040020B860024000500040FD
:100910007400000025640000340300202E747874F5
:100920003D220000220000001A040020F2030020F3
:100930006A302E76616C3D25640000004C05002075
:100940000048004000000140440000201CB54FF06A
:10095000804006F0D7F8F849096840EA01400A21CA
:1009600090FBF1F00090002418E04FF0804006F07A
:10097000C9F8F149096840EA01400A2190FBF1F009
:100980000190DDE90021881A002801DB014600E022
:100990004142322900DA641C01980090022CE4DB09
:1009A00001984100002901DB08461CBD4842FCE7D4
:1009B0001CB5E24806F0A6F8E149096840EA0140A2
:1009C000642190FBF1F00090002417E0DB4806F072
:1009D00099F8DB49096840EA0140642190FBF1F095
:1009E0000190DDE90021881A002801DB014600E0C2
:1009F0004142322900DA641C01980090022CE5DBA8
:100A000001981CBD70471CB5CE4806F07BF8CE4956
:100A1000096840EA0140642190FBF1F00090002455
:100A200017E0C84806F06EF8C749096840EA014077
:100A3000642190FBF1F00190DDE90021881A002883
:100A400001DB014600E04142322900DA641C0198D2
:100A50000090022CE5DB01981CBD01B581B000209F
:100A60000090019800EBC0004000009002E0009868
:100A7000401E009000980028F9D10CBD01B581B04E
:100A80000020009044F2506101984843009002E039
:100A90000098401E009000980028F9D10CBD1CB5AC
:100AA00001211F2005F062F94FF6FF700090012030
:100AB0008DF8040000208DF8060001208DF8070055
:100AC00003208DF805006946A04804F009FF4FF6A1
:100AD000FF70009001208DF8040000208DF80600C2
:100AE00001208DF8070003208DF80500694698481D
:100AF00004F0F6FE4FF6FF70009001208DF8040020
:100B000000208DF8060001208DF8070003208DF8E5
:100B1000050069468F4804F0E3FE1CBD1CB50121A9
:100B20007E2005F023F9C020009000208DF80400FD
:100B300001208DF8070002208DF8050069468648DF
:100B400004F0CEFE0620009000208DF80400012065
:100B50008DF8070002208DF8050069467B4804F0F7
:100B6000BFFE0420009000208DF8040001208DF8C5
:100B7000070002208DF805006946754804F0B0FEB4
:100B80001CBD1FB54FF4E06004F0CCFD36208DF89D
:100B9000000000208DF801008DF8020001208DF882
:100BA0000300684604F0C3FD0121102005F011F98F
:100BB0003220ADF8040040F2E73002900020ADF89A
:100BC0000C00ADF8060001A9644805F04EFF0121B4
:100BD000624806F013FC01221146604806F0E6FB6D
:100BE00000215E4805F08AFF01215C4805F0C6FF40
:100BF0001FBD1FB54FF4E06004F094FD37208DF861
:100C0000000000208DF801008DF8020001208DF811
:100C10000300684604F08BFD0121202005F0D9F87F
:100C20003220ADF8040040F2E73002900020ADF829
:100C30000C00ADF8060001A9494805F016FF012196
:100C4000474806F0DBFB01221146454806F0AEFBA3
:100C50000021434805F052FF0121414805F08EFF75
:100C60001FBD00B58BB00121022005F0C3F80121A2
:100C70000C2005F07BF803220621354804F0BBFE6A
:100C800003220721324804F0B6FE0322082130482F
:100C900004F0B1FE032209212D4804F0ACFE4FF40C
:100CA0007070069002208DF81C0003208DF81D0046
:100CB00000208DF81E0001208DF81F0006A9244891
:100CC00004F00EFEA420ADF8200040F6B8300990E4
:100CD0004FF48070ADF828000020ADF8220008A97C
:100CE000204805F0C2FE6020ADF804000120ADF8F8
:100CF000060000200390ADF810000121194805F00E
:100D00003DFF0021174805F0F9FE01A9154805F03F
:100D100041FF01A9134805F076FF01A9114805F02C
:100D2000BFFF01A90F4806F021F801210D4806F088
:100D300016FB0BB000BD000048000020000800407A
:100D400060000020000400404C000020000402402D
:100D500000080240000C0240000002400010004069
:100D6000001400400004014000B58BB001210820B0
:100D700005F02FF80121084604F0F8FF02220021B7
:100D8000FE4804F038FE02220121FC4804F033FE44
:100D900002221146F94804F02EFE02220321F748F0
:100DA00004F029FE0F20069002208DF81C0003207D
:100DB0008DF81D0000208DF81E0001208DF81F0009
:100DC00006A9EE4804F08CFDBA20ADF8200042F2EE
:100DD000107009900020ADF82800ADF8220008A995
:100DE000E74805F042FE6020ADF804000120ADF8B0
:100DF000060000200390ADF810000121E04805F046
:100E0000BDFE0021DE4805F079FE01A9DC4805F0B1
:100E1000C1FE01A9DA4805F0F6FE01A9D84805F09F
:100E20003FFF01A9D64805F0A1FF0121D44806F0F3
:100E300096FA0BB000BD00B58BB00121042004F080
:100E4000C8FF01210D2004F091FF02220C21CD48A2
:100E500004F0D1FD02220D21CA4804F0CCFD02228B
:100E60000E21C84804F0C7FD02220F21C54804F036
:100E7000C2FD4FF47040069002208DF81C00032044
:100E80008DF81D0000208DF81E0001208DF81F0038
:100E900006A9BC4804F024FDA420ADF8200040F6CB
:100EA000B83009904FF48070ADF828000020ADF8FC
:100EB000220008A9B44805F0D8FD6020ADF8040070
:100EC0000120ADF8060000200390ADF810000121CC
:100ED000AD4805F053FE0021AB4805F00FFE01A917
:100EE000A94805F057FE01A9A74805F08CFE01A905
:100EF000A54805F0D5FE01A9A34805F037FF0BB0C2
:100F000000BD00B589B00121080404F073FF012180
:100F1000084604F02BFF03221146984804F06BFDAD
:100F200003220221954804F066FD0C200190022066
:100F30008DF8080003208DF8090000208DF80A00C4
:100F400001208DF80B0001A98C4804F0C9FC002099
:100F5000ADF818004FF6FF7007900020ADF82000A4
:100F6000ADF81A0006A9894805F07FFD0420ADF808
:100F70000C000020ADF80E00C820ADF814000120D0
:100F8000ADF8100003A9814806F046F900231A467F
:100F900003217F4806F0DDFA01217D4806F02EFA94
:100FA000012211467A4806F001FA0121774805F03E
:100FB000E5FD0021764805F0A1FD09B000BD00B5B2
:100FC00089B00121084604F004FF0121022004F049
:100FD00000FF0121032004F0C9FE01220F21674810
:100FE00004F009FD012203216A4804F004FD0222F5
:100FF0000421684804F0FFFC02220521654804F042
:10100000FAFC3820019002208DF8080003208DF8AA
:10101000090000208DF80A0001208DF80B0001A9BD
:101020005C4804F05DFC4FF40040019002208DF814
:10103000080003208DF8090000208DF80A00012027
:101040008DF80B0001A94D4804F04AFC0020ADF8D2
:1010500018004FF6FF7007900020ADF82000ADF8A3
:101060001A0006A94FF0804005F0FFFC06A94A4887
:1010700005F0FBFC0420ADF80C000220ADF80E00DA
:101080001420ADF814000120ADF8100003A980076A
:1010900006F0C2F803A9404806F0BEF802231A463B
:1010A0000321580706F055FA02231A4603213A484D
:1010B00006F04FFA0121880706F0A0F90121364811
:1010C00006F09CF901221146900706F06FF9012203
:1010D0001146314806F06AF90121880705F04EFDF6
:1010E00001212D4805F04AFD00214FF0804005F018
:1010F00005FD0021284805F001FD4FF4C06004F013
:1011000011FB1D208DF8000003208DF80100002048
:101110008DF8020001208DF80300684604F007FBFB
:101120001C208DF8000004208DF8010000208DF8AF
:10113000020001208DF80300684604F0F8FA09B0B7
:1011400000BD00B589B00121084604F053FE01211D
:10115000102004F00BFE4FF42060019002208DF867
:10116000080003208DF8090000208DF80A000120F6
:101170008DF80B0001A9094812E0000000000240B0
:10118000000C0040000C024000080040000001403C
:1011900000400140000402400004004000100240F2
:1011A00004F09EFB01220921FE4804F024FC0122E8
:1011B0000B21FC4804F01FFC0020ADF818004FF68E
:1011C000FF7007900020ADF82000ADF81A0006A9C6
:1011D000F54805F04AFC0420ADF80C000020ADF8FD
:1011E0000E000A20ADF814000120ADF8100003A98C
:1011F000ED4806F011F800231A460321EA4806F0EC
:10120000A8F90121E84806F0F9F801221146E6485C
:1012100006F0CCF80121E44806F0F0F8012211466E
:10122000E14806F0C3F80121DF4805F0A7FC0021E2
:10123000DD4805F063FC4FF4C06004F073FA192038
:101240008DF8000001208DF8010000208DF80200CB
:1012500001208DF80300684604F069FA09B000BD6A
:1012600000B589B00121042004F0B3FD012108205C
:1012700004F07CFD4FF44050019002208DF80800EE
:1012800003208DF8090000208DF80A0001208DF858
:101290000B0001A9C54804F023FB0020ADF818009D
:1012A0004FF6FF7007900020ADF82000ADF81A004F
:1012B00006A9BF4805F0D9FB02220C21BB4804F067
:1012C0009AFB02220D21B94804F095FB0420ADF8E9
:1012D0000C000220ADF80E00C820ADF8140001206B
:1012E000ADF8100003A9B24805F096FF02231A4694
:1012F0000321AF4806F02DF90121AD4806F07EF834
:1013000001221146AA4806F051F80121A84805F02B
:1013100035FC42F21071A64805F0F0FB0020A4490C
:10132000143108800120A24908804FF4C06004F005
:10133000F9F91E208DF8000004208DF8010000202E
:101340008DF8020001208DF80300684604F0EFF9E3
:1013500009B000BD00B589B00121082004F039FDB5
:101360000121084604F002FD0320019002208DF8BF
:10137000080003208DF8090000208DF80A000120E4
:101380008DF80B0001A98B4804F0AAFA0020ADF8F3
:1013900018004FF6FF7007900020ADF82000ADF860
:1013A0001A0006A9844805F060FB0222002181484A
:1013B00004F021FB022201217E4804F01CFB0420E2
:1013C000ADF80C000220ADF80E00C820ADF81400F6
:1013D0000120ADF8100003A9774805F01DFF022396
:1013E0001A460321744806F0B4F80121724806F049
:1013F00005F801221146704805F0D8FF01216E481A
:1014000005F0BCFB42F210716B4805F077FB002041
:101410006949143108800120674908804FF4C06091
:1014200004F080F932208DF8000004208DF80100CE
:1014300000208DF8020001208DF80300684604F0BA
:1014400076F909B000BD00B59BB001215B4804F0FE
:101450008DFC0121080204F0CDFC002002905848C8
:101460000390584804900020059008200690002022
:1014700007904FF4806008904000099080000A9027
:1014800040110B9040020C9000200D9001200E9016
:1014900000200F90109002A94B4805F079F8012127
:1014A000494805F0AFF83C20009003208DF8040077
:1014B00000208DF8070069463E4804F011FA3C20F0
:1014C000009003208DF8040000208DF80700694685
:1014D0003E4804F005FA002011904FF4403012907D
:1014E000002013904FF47060149011A804F0B6FD22
:1014F0004FF08070159001208DF858008DF859003C
:10150000002017901890199008208DF8680015A9F0
:101510002B484C3804F073FD042301220221284893
:101520004C3804F0F2FD04230222032124484C38F5
:1015300004F0EBFD04230322194621484C3804F043
:10154000E4FD04231A4605211D484C3804F0DDFD56
:10155000042305220C211A484C3804F0D6FD04233C
:1015600006220D2116484C3804F0CFFD0423072233
:101570000E2113484C3804F0C8FD042308220F2123
:101580000F484C3804F0C1FD01210D484C3804F0DF
:1015900067FE01210A484C3804F057FE0121084833
:1015A0004C3815E00010024000000140000C0240E1
:1015B0000008004000000240000C00400500400010
:1015C0004C20014000050020106402400008024049
:1015D00004F05BFDFE4804F0F4FD1BB000BD08B54F
:1015E0004FF4E06004F09EF825208DF80000002004
:1015F0008DF801008DF8020001208DF80300684687
:1016000004F095F808BD10B596B0044601211020ED
:1016100004F0F0FB0121084604F0A8FB0121880535
:1016200004F0A4FB4FF4C060009002208DF8040089
:1016300000208DF806008DF8070002208DF80500C7
:101640006946E44804F04CF907220921E14804F016
:10165000D2F907220A21DF4804F0CDF902940020D4
:10166000ADF80C00ADF80E00ADF81000ADF81400A8
:101670000C20ADF8120002A9D74805F0E9FF0121BE
:10168000D54806F06DF84FF4A06004F04BF83A200E
:101690008DF8180000208DF819008DF81A0001202F
:1016A0008DF81B0006A804F042F8CC4804F0CEFEEA
:1016B0004FF00060079000200A90C94809900A2066
:1016C0000B90C548001D089000200C904FF48060DE
:1016D0000D9000200E900F904FF4807010904002FB
:1016E0001190042012900320139000201490159064
:1016F00007A9BA4804F04CFF01224021B64806F081
:10170000DCF801221021B54805F009F80121B348A1
:1017100004F078FF16B010BD10B596B00446012154
:10172000480504F023FB0121480404F052FB012189
:10173000082004F01BFB6020009002208DF80400BC
:1017400000208DF806008DF8070002208DF80500B6
:101750006946A44804F0C4F807220521A14804F012
:101760004AF9072206219F4804F045F90294002017
:10177000ADF80C00ADF80E00ADF81000ADF8140097
:101780000C20ADF8120002A9974805F061FF012175
:10179000954805F0E5FF4FF4A06003F0C3FF11206A
:1017A0008DF8180000208DF819008DF81A0001201E
:1017B0008DF81B0006A803F0BAFF8C4804F046FE23
:1017C0004FF00060079040200A90894809903C2023
:1017D0000B908548001D089000200C904FF480600D
:1017E0000D9000200E900F904FF4807010904002EA
:1017F0001190042012900320139000201490159053
:1018000007A97A4804F0C4FE01228021764806F038
:1018100054F801228021744806F04FF8012210216B
:10182000724804F07CFF0121704804F0EBFE16B012
:1018300010BD10B596B004460121880404F0C9FA21
:101840000121082004F092FA0121480504F08EFAE3
:101850004FF44070009002208DF8040000208DF8B5
:1018600006008DF8070002208DF8050069465D48E6
:1018700004F036F8072208215A4804F0BCF8072281
:101880000921584804F0B7F802940020ADF80C0084
:10189000ADF80E00ADF81000ADF814000C20ADF856
:1018A000120002A9534805F0D3FE0121514805F06A
:1018B00057FF4FF4A06003F035FF0C208DF818009F
:1018C00000208DF819008DF81A0001208DF81B00FA
:1018D00006A803F02CFF4548783804F0B7FD4FF018
:1018E0000060079000200A90434809900A200B905E
:1018F0004048001D089000200C904FF480600D902F
:1019000000200E900F904FF48070109040021190C4
:10191000042012900320139000201490159007A922
:101920003248783804F034FE01224021314805F075
:10193000C4FF012240212F4805F0BFFF01221021E2
:101940002A48783804F0EBFE01212848783804F062
:1019500059FE16B010BD10B596B004460121C8045A
:1019600004F037FA0121084604F000FA0121480585
:1019700004F0FCF90320009002208DF80400002000
:101980008DF806008DF8070002208DF805006946E5
:10199000104803F0A5FF082200210E4804F02BF8A0
:1019A000082201210B4804F026F802940020ADF82B
:1019B0000C00ADF80E00ADF81000ADF814000C20CE
:1019C000ADF8120002A90D4805F042FE012117E012
:1019D000002001400000024000100140406402402D
:1019E00010050020000C024000440040A0600240AE
:1019F00004000020004800404C050020004C00403E
:101A0000FB4805F0ADFE4FF4A06003F08BFE0D2007
:101A10008DF8180000208DF819008DF81A000120AB
:101A20008DF81B0006A803F082FEF24804F00EFDBC
:101A30004FF00060079000200A90EF4809900820BE
:101A40000B90EB48001D089000200C904FF4806034
:101A50000D9000200E900F904FF480701090400277
:101A600011900420129003201390002014901590E0
:101A700007A9E04804F08CFD01224021DC4805F074
:101A80001CFF01224021DA4805F017FF0122102136
:101A9000D84804F044FE0121D64804F0B3FD16B046
:101AA00010BD10B596B004460121480504F05EF95A
:101AB0000121080504F08DF901210C2004F056F9EC
:101AC0000420009002208DF8040000208DF806000C
:101AD0008DF8070002208DF805006946C74803F01D
:101AE000FFFE4FF48050009002208DF8040000208B
:101AF0008DF806008DF8070002208DF80500694674
:101B0000BF4803F0EDFE08220221BC4803F073FF3A
:101B100008220C21BA4803F06EFF4FF4A06003F0D6
:101B200001FE2F208DF8180005208DF819008DF882
:101B30001A0001208DF81B0006A803F0F8FD02949E
:101B40000020ADF80C00ADF80E00ADF81000ADF8B7
:101B500014000C20ADF8120002A9AA4805F078FD87
:101B60000121A84805F0FCFDA248783004F06EFC85
:101B70004FF00060079040200A90A34809909620FB
:101B80000B90A048001D089000200C904FF480603E
:101B90000D9000200E900F9010904FF40030119097
:101BA000002012900320139000201490159007A994
:101BB0009048783004F0ECFC01228021914805F037
:101BC0007CFE012210218B48783004F0A8FD012111
:101BD0008848783004F016FD16B010BD10B596B0E8
:101BE00004460121202004F005F90121042004F01D
:101BF000BDF80121880504F0B9F8C020009002204A
:101C00008DF8040000208DF806008DF807000220F2
:101C10008DF8050069467A4803F062FE0822062125
:101C2000774803F0E8FE08220721754803F0E3FE39
:101C300002940020ADF80C00ADF80E00ADF81000D5
:101C4000ADF814000C20ADF8120002A96F4805F0A1
:101C5000FFFC01216D4805F083FD4FF4A06003F007
:101C600061FD39208DF8180003208DF8190001203E
:101C70008DF81A008DF81B0006A803F058FD644883
:101C800004F0E4FB4FF02060079000200A906148C8
:101C9000099010200B905D48001D089000200C90CA
:101CA0004FF480600D9000200E900F904FF48070E4
:101CB00010904002119004201290032013900020F5
:101CC0001490159007A9524804F062FC01224021AB
:101CD0004E4805F0F2FD012210214D4804F01FFD91
:101CE00001214B4804F08EFC16B010BD0EB500204B
:101CF0000290019000904748007802282ED1454874
:101D0000407801904348C0784249897840EA0120F0
:101D10000090404909783F4A527811443D4A9278F0
:101D200011443C4AD2788818C11700EB116109129E
:101D3000A0EB0121C9B20291364800799DF8081044
:101D400088420BD133484079032807D19DF804001D
:101D500031490870BDF80000304908800EBD00B55B
:101D600085B00121082004F001F80121880304F066
:101D700041F800208DF8100001208DF813000C2090
:101D8000039003A91D4803F0ABFD0221032005F0D9
:101D90002DFE0420009000208DF8040010208DF806
:101DA000050001208DF80600684604F031FD08208A
:101DB0008DF8080000208DF809008DF80A00012038
:101DC0008DF80B0002A803F0B2FC05B000BD70B5A1
:101DD00004460D46012C25D12946114805F0EBFC9F
:101DE00000BF40210E4805F096FD0028F9D042E0E2
:101DF000004C0040406002401F050020000C0240E3
:101E000000080240005000406A0400200014014015
:101E1000286402405B050020280100202A010020E0
:101E200000100140032C0BD12946FE4805F0C3FCED
:101E300000BF4021FB4805F06EFD0028F9D01AE0F4
:101E4000042C0BD12946F84805F0B5FC00BF402111
:101E5000F54805F060FD0028F9D00CE0052C0AD10A
:101E60002946F24805F0A7FC00BF4021EF4805F0E5
:101E700052FD0028F9D070BD0020ED494862ED49BF
:101E80000860ED490860ED49086070470020E849A6
:101E90004862E84908604FF080414862E8490860BC
:101EA000E8490860E8490860E3490860E3490860D8
:101EB00070470020E0490860E04908607047002052
:101EC000E0490860E0490860704710B50020DF492C
:101ED0000870002407E061210120FFF778FF32201D
:101EE000FEF7CCFD641C022CF5D30120D749087005
:101EF0007A20D749087010BD10B50020D549087068
:101F0000002407E061210320FFF761FF3220FEF784
:101F1000B5FD641C022CF5D30120CE4908707A204F
:101F2000CD49087010BD2DE9F14FAEB0CBA02D907A
:101F300000202C908DF888008DF860002E981328D2
:101F400032D2DFE800F00A323940474E555C636A0E
:101F50007172737A868D94FEFD000221C84803F0E9
:101F600021FD88B100224FF40041C64803F038FD3E
:101F70004FF40041C34803F022FD044600222146ED
:101F8000C1A0FEF75DFB0FE00122D103BD4803F0C5
:101F900027FD4FF40041BB4803F011FD0446002229
:101FA0002146C1A0FEF74CFB45E20122C64801686C
:101FB000C6A0FEF745FB3EE20222C6480168C6A065
:101FC000FEF73EFB37E20322C6480168C6A0FEF7D3
:101FD00037FB30E20422C7480168C7A0FEF730FB98
:101FE00029E20522C7480178C7A0FEF729FB22E2B3
:101FF0000622C7480188C7A0FEF722FB1BE2072282
:10200000C7480168C7A0FEF71BFB14E20A22C948B3
:102010000168C9A0FEF714FB0DE20922CA48016855
:10202000CAA0FEF70DFB06E205E204E20C22CB4853
:102030000168CBA0FEF704FBFDE10D22CC4890ED3A
:10204000000ABDEEC00A10EE101ACAA0FEF7F8FA98
:10205000F1E10E22CA480168CAA0FEF7F1FAEAE1EE
:102060000F22CD480168CDA0FEF7EAFAE3E1012195
:10207000CF4803F097FC4FF400511790814803F0CC
:1020800091FC04460221CA4803F08CFC05464FF43B
:1020900080417C4803F086FC06460421C44803F0D6
:1020A00081FC4FF400411690C14803F07BFC0746C9
:1020B0000821BF4803F076FC80464FF48041BC48BD
:1020C00003F070FC81461021B94803F06BFC4FF41B
:1020D00000511590B64803F065FC82460821B548CA
:1020E00003F060FC4FF480511490B14803F05AFCA7
:1020F00010211390AF4803F055FC4FF4806112900B
:10210000AB4803F04FFC83468021A94803F04AFC0A
:102110004FF480711190A64803F044FC109017987A
:10212000CDE90B65CDE90D401698CDE90798CDE9CD
:102130000970DDE913121598CDE9042A039101E035
:1021400072E111E00690DDE91101CDE901B10090E5
:1021500099A2282122A8109B07F04AFE122222A948
:102160007DA0FEF7C0FA66E18021454803F027FC18
:1021700004460121424803F022FC05464021404824
:1021800003F01DFC06464FF400418A4803F017FC9B
:1021900007464FF48051914803F011FC80464FF4FC
:1021A0008061374803F00BFC81464FF400618B4897
:1021B00003F005FC4FF400611790314803F0FFFB7A
:1021C00082464FF480617B4803F0F9FB83464FF46D
:1021D00080512B4803F0F3FB4FF4006116907548D3
:1021E00003F0EDFB4FF400511590254803F0E7FB99
:1021F0004FF4804114906F4803F0E1FB4FF48041AD
:1022000013901F4803F0DBFB4FF48071129073486A
:1022100003F0D5FB4FF400411190194803F0CFFBB8
:10222000DEE0000000480040004C0040005000404C
:10223000000001404400002024080040600000200D
:1022400048000020240400404C00002069000020C9
:10225000680000206B0000206A000020313131311D
:10226000313131313131313131313131313131315E
:102270003131303131313131313131310000000013
:102280000004024000080240524F424F54203220C6
:1022900044414E4720434841592053414E20584124
:1022A0004E483A2020200000524F424F5420322006
:1022B00044414E4720434841592053414E20444F0A
:1022C0003A20202000000000C4010020494D553A6A
:1022D0000000000080000020474F432042414E3A5A
:1022E00000000000EC0000205649205452492042D2
:1022F000414E3A0044020020676F635F6C6964617D
:10230000723A0000280100206F66667365743A0017
:102310002A01002064697374616E63653A000000ED
:10232000400200204C75635F42616E5F6C696461BE
:10233000723A000094000020476F635F42616E5F55
:102340006175746F3A0000007800002047545F4CBC
:10235000415A45525F545241493A000090000020D2
:102360004C75635F42616E5F6C617A65723A000022
:102370008C0000204A6F79537469636B3A00000047
:102380003802002066696E616C5F726573756C74EB
:102390005F6C617A65723A003C02002066696E618A
:1023A0006C5F726573756C745F6C696461723A001E
:1023B00000100240000C0240256425642564256459
:1023C00025642564256425642564256425642564C5
:1023D0002564256425642564000000000000024097
:1023E000CDE90B76CDE90D5410901798CDE907A0F3
:1023F000CDE90998DDE915211498CDE9051BCDE952
:102400000302DDE911121398CDE900120290AFF238
:102410005802282122A8109B07F0EAFC112222A9C9
:10242000FEA0FEF760F906E0FE48017A1022FEA049
:10243000FEF706F900BF00BF2FB0BDE8F08F10B562
:102440000121FB4804F0DEF810BD01B5F948006831
:102450000099884203DD0020F649086004E0F54851
:102460000068401CF3490860F2480068FFF75BFD14
:1024700008BD10B52DED028BEA48C07801EE100AB8
:10248000B8EE411ADFEDEC1A31EE611AF0EE410AB6
:10249000E448807801EE100AB8EE411ADFEDE61A42
:1024A00031EE611AB0EE410A07F0FAFCF0EE408A14
:1024B000E248D0ED000A9FEDE21A81EE200A20EEFC
:1024C000280AB0EE408AB5EEC08AF1EE10FA05D2C5
:1024D0009FEDDC0A38EE000AB0EE408AD148C078A1
:1024E0007E2807D1CF4880787F2803D19FEDD60A78
:1024F000B0EE408A9FEDD20AB4EEC08AF1EE10FA37
:1025000006D8B2EE040A28EE000AB0EE408A09E0CE
:102510009FEDCC0A38EE400AF2EE040A20EE200AC3
:10252000B0EE408AC94880ED008ABDEC028B10BD38
:10253000F0B5DDE9054520B9C54E3678C54FFE70CA
:102540000BE0002804DDC34FF8700126BE7004E0E4
:102550004642C04FFE700026BE7021B9BC4E367890
:10256000BC4FFE720BE0002904DDBA4FF971012661
:10257000BE7104E04E42B74FFE710026BE7122B913
:10258000B34E3678B34FFE720BE0002A04DDB14F34
:10259000FA720126BE7204E05642AE4FFE72002669
:1025A000BE7223B9AA4E3678AA4FFE730BE0002BF9
:1025B00004DDA84FFB730126BE7304E05E42A54F05
:1025C000FE730026BE7324B9A14E3678A14FFE7467
:1025D0000BE0002C04DD9F4FFC740026BE7404E069
:1025E00066429C4FFE740126BE7425B9984E36781B
:1025F000984FFE750BE0002D04DD964FFD7501260A
:10260000BE7504E06E42934FFE750026BE75F0BDA8
:10261000904AD070D071D072D073D074D07570479A
:1026200001208D49086070478A48C078032815DA70
:102630008848C079032811DA8648C07A03280DDA61
:102640008448C07B032809DA8248C07C032805DA65
:102650008048C07D032801DA012070470020FCE794
:102660007E48006847F23051884201D0012070470F
:102670000020FCE710B5FFF728FC10BD7848B0F942
:10268000000040427047B5EEC00AF1EE10FA09D2E0
:102690007448D0ED000A70EE600AFDEEE00A10EE1C
:1026A000900A70476F48D0ED000A70EE200AFDEEE8
:1026B000E00A10EE900AF4E710B52DED0A8B0446FF
:1026C00024B99FED690ABDEC0A8B10BD002C25DAF8
:1026D0006648006807F06FF941EC190B204607F0D7
:1026E0006AF941EC1C0B9FED620B53EC102B07F0C9
:1026F00081F841EC1B0B9FED5E0B53EC102B07F0A8
:1027000073F841EC1A0B53EC192B07F0E5F841EC88
:10271000180B07F0A5F900EE100AD4E7534800683B
:1027200007F049F941EC190B204607F044F941EC58
:102730001C0B9FED4F0B53EC102B07F05BF841EC9B
:102740001B0B9FED4B0B53EC102B06F0ACFF41EC39
:102750001A0B53EC192B07F0BFF841EC180B07F0DC
:102760007FF900EE100AAEE7F0EE400AF5EEC00A7F
:10277000F1EE10FA02DBB0EE600A7047B1EE600ACB
:10278000FBE70146002901DB084670474842FCE7A9
:1027900001463948D0ED000AF1EE600A3748D0ED25
:1027A000001A80EEA11A00EE901AF8EEE01A3248F4
:1027B000D0ED000A41EE210AB0EE600AFDEEC00A3B
:1027C00010EE900A7047F0EE401A9FED2D2AB0EE01
:1027D000420AF5EEC01AF1EE10FA03D2B1EE612A08
:1027E000F0EE421AF5EEC00AF1EE10FA03D2B1EEA5
:1027F000602AF0EE420AB5EEC01AF1EE10FA03D2EA
:10280000B1EE412AB0EE421AF4EEC01AF1EE10FA1F
:1028100001DDB0EE610AF4EEC00A33E04F55543AE0
:10282000000000004C0500204241544552593A0036
:10283000A06002405C0000200000FF4284010020F4
:10284000000034430000B44300409C468C0000204C
:10285000780100200400002074010020A401002061
:1028600064000020340100200000000090010020DE
:102870009A9999999999B93F6C01002070010020AB
:102880006F12833AF1EE10FA01DDB0EE600AB4EE99
:10289000C01AF1EE10FA01DDB0EE410A7047FD48B2
:1028A00000687047FC480068704710B52DED088B34
:1028B000B0EE408AF948006847F23051884214D19E
:1028C0001FED170AF64880ED000AF64880ED000A71
:1028D000F54880ED000AF54880ED000AF44880EDE7
:1028E000000AF44880ED000AE8E0F3480068F34984
:1028F0000968401AE9490968081A00EE100AB8EE9A
:10290000C00AEF48D0ED000AEE4890ED001A00EE44
:10291000C10AD0ED000AC0EE208AEB4890ED000A13
:1029200020EE280A10EE101A084607F055F841EC80
:102930001B0BB0EE4B0AF0EE6B0A08F0ADFBB0EEED
:1029400040AAF0EE60AA51EC1A0B81F0004141EC74
:10295000190B07F085F8D7490860DC4890ED000AAC
:1029600038EE800AD848D0ED000A20EE200A10EE9A
:10297000101A084607F030F841EC1A0BB0EE4A0A7C
:10298000F0EE6A0A08F088FBB0EE409AF0EE609A2A
:1029900051EC190B07F064F8C5490860CC4890ED7C
:1029A000000A38EE800AC848D0ED000A20EE200A5E
:1029B00010EE101A084607F00FF841EC1A0BB0EEB3
:1029C0004A0AF0EE6A0A08F067FBB0EE409AF0EEB1
:1029D000609A51EC190B07F043F8B4490860BD4800
:1029E00090ED000A38EE800AB748D0ED000A20EEDC
:1029F000200A10EE101A084606F0EEFF41EC1B0B01
:102A0000B0EE4B0AF0EE6B0A08F046FBB0EE40AABF
:102A1000F0EE60AA51EC1A0B81F0004141EC190B69
:102A200007F01EF8A0490860A84890ED000A38EEAB
:102A3000800AA548D0ED000A20EE200A10EE101AF8
:102A4000084606F0C9FF41EC1B0BB0EE4B0AF0EE56
:102A50006B0A08F021FBB0EE40AAF0EE60AA51EC40
:102A60001A0B81F0004141EC190B06F0F9FF8D497A
:102A70000860974890ED000A38EE800A9248D0ED41
:102A8000000A20EE200A10EE101A084606F0A4FFF5
:102A900041EC1B0BB0EE4B0AF0EE6B0A08F0FCFAAF
:102AA000B0EE40AAF0EE60AA51EC1A0B81F00041A2
:102AB00041EC190B06F0D4FF79490860B5EEC08AE5
:102AC000F1EE10FA7CD08448006807282FD2DFE8A6
:102AD00000F0042F53789CC0E000764890ED000A87
:102AE00030EE480A80ED000A714890ED000A30EEA1
:102AF000480A80ED000A6D4890ED000A30EE480A61
:102B000080ED000A684890ED000A30EE480A80ED3A
:102B1000000A644890ED000A30EE480A80ED000A91
:102B20005F4890ED000A30EE480A80ED000AFEE0B2
:102B30005F4890ED000A30EE480A80ED000A5B48DD
:102B400090ED000A30EE480A80ED000A564890EDFC
:102B5000000A30EE480A80ED000A524890ED000A63
:102B600030EE480A80ED000A4D4890ED000A30EE44
:102B7000480A80ED000ADAE04E4890ED000A30EE97
:102B8000480A80ED000A494890ED000A30EE480AF4
:102B900080ED000A444890ED000A30EE480A80EDCE
:102BA000000A404890ED000A30EE480A80ED000A25
:102BB0003B4890ED000A30EE480A80ED000AB6E08E
:102BC000B6E03C4890ED000A30EE480A80ED000A7D
:102BD000374890ED000A30EE480A80ED000A32488E
:102BE00090ED000A30EE480A80ED000A2D4890ED85
:102BF000000A30EE480A80ED000A294890ED000AEC
:102C000030EE480A80ED000A91E02A4890ED000A73
:102C100030EE480A80ED000A254890ED000A30EEBB
:102C2000480A80ED000A214890ED000A30EE480A7B
:102C300080ED000A1B4890ED000A30EE480A80ED56
:102C4000000A174890ED000A30EE480A80ED000AAD
:102C50006DE0184890ED000A30EE480A80ED000A59
:102C6000134890ED000A30EE480A80ED000A0F4844
:102C700090ED000A30EE480A80ED000A0A4890ED17
:102C8000000A30EE480A80ED000A054890ED000A7F
:102C900024E028E090010020BC010020A4010020D5
:102CA000E4010020E0010020DC010020D801002028
:102CB000D4010020D0010020C4010020B001002078
:102CC000B40100204C010020800100205C010020A4
:102CD00058010020600100208C01002030EE480ADD
:102CE00080ED000A23E0FE4890ED000A30EE480A2D
:102CF00080ED000AFB4890ED000A30EE480A80EDB6
:102D0000000AF94890ED000A30EE480A80ED000A0A
:102D1000F64890ED000A30EE480A80ED000AF448CB
:102D200090ED000A30EE480A80ED000A00BF00BFB7
:102D3000EF4890ED001AEC48D0ED000AE84890ED1D
:102D4000000AFFF740FDEB48D0ED000AF8EEE00A7C
:102D500080EE801ABDEEC10AE74880ED000AE74820
:102D60000068E5490968884203DDE3480068E349F3
:102D700008600120E2490860BDEC088B10BD10B569
:102D800004460020DF490860DF480460FCB90020E9
:102D9000DA4908609FEDDD0ADD4880ED000A47F260
:102DA0003050DC490860DC4908609FEDD80ADB48F8
:102DB00080ED000A0020DA490860DA490860DA4943
:102DC0000860DA4908609FEDD10AFFF76EFD10BD7B
:102DD00010B5D24890ED000AB5EEC00AF1EE10FA37
:102DE00005D1CF48006810B9CE48006890B19FED7A
:102DF000C70ACA4880ED000A0020C9490860C949CD
:102E00000860CB480068CB490860C44890ED000AD0
:102E1000FFF74BFD10BDC848C0ED000AC74880ED64
:102E2000000A704770B52DED028B05460C46B0EEDA
:102E3000408AB8480068A8420BD1B2480068A04256
:102E400007D1B34890ED000AB4EE480AF1EE10FA4B
:102E500018D0AC480460A948006810B90520A749FB
:102E60000860B3480068B3490860A94880ED008A4B
:102E7000A84805600020B2490860A84890ED000A03
:102E8000FFF713FDBDEC028B70BD70B52DED028B0D
:102E90000446B0EE408A0D46A2480068A0420BD11D
:102EA0009E4890ED000AB4EE480AF1EE10FA03D104
:102EB0009B480068A84237D09648006847F23051D6
:102EC000884222D150208F49086003208B49086036
:102ED00047F23050844218DA012093490860B5EE79
:102EE000C08AF1EE10FA03DD91480068A04208DCC8
:102EF000B5EEC08AF1EE10FA07D28D480068A04204
:102F000003DAB1EE480AB0EE408A8648046084488D
:102F10000560824880ED008A0020894908607F486A
:102F200090ED000AFFF7C1FCBDEC028B70BD10B53F
:102F30002DED028BB0EE408A04462146B0EE480AE1
:102F400047F23050FFF7A1FFBDEC028B10BD70B50A
:102F500004460D469FED6D0A29462046FFF762FFA5
:102F600070BD70B52DED088BF0EE408A0446B0EED2
:102F7000608AB0EE419A684890ED000AB8EEC00A47
:102F8000B4EE680AF1EE10FA0DD15E480068A04276
:102F900009D1644890ED000AB8EEC00AB4EE480AC0
:102FA000F1EE10FA5ED0BDEEE80A5B4880ED000A53
:102FB0005F4991ED000AB8EEC00A38EEC00ABDEED6
:102FC000C00A10EE100A9FED510A2146FFF72AFFB2
:102FD000574890ED000AB8EEC00A38EE400ABDEE40
:102FE000C00A10EE105A002D01DB284600E06842AE
:102FF000642814DD4E4890ED000AB8EEC00AB4EE25
:10300000C08AF1EE10FA02DDB0EE490A01E0B1EE3D
:10301000490A10EE101A084606F0DEFC13E0444898
:1030200090ED000AB8EEC00A38EE400A10EE101A11
:10303000084606F0D1FC41EC1B0B9FED420B53EC14
:10304000102B06F0D7FB41EC1A0B06F009FD09EE38
:10305000900A0021B0EE690AFDEEC80A10EE900A4F
:10306000FFF713FFBDEC088B70BD10B52E4800684C
:10307000012876DD2B4909682D4A1268881AFFF766
:1030800080FB05280CDA284801680068401C264AA5
:103090001060B1F57A7F64DD0020FFF770FE10BD8F
:1030A00021480068B0F5FA7F09DD05201549086060
:1030B0001249086040F2F5101B49086004E0052041
:1030C000104908600D4908601948006815490968E9
:1030D00088423CDDBFEE000A104880ED000A3BE06C
:1030E000D0010020D4010020D8010020DC01002004
:1030F000E00100202C010020980100209001002018
:1031000088010020940100209C01002000000000A4
:10311000B8010020A4010020A8010020B401002073
:103120008C010020AC010020BC01002074010020B3
:10313000C4010020B00100206C01002070010020BB
:10314000A00100207B14AE47E17A743F09E0B7EE9E
:10315000000AFE4880ED000AFC4890ED000AFFF7E7
:10316000A4FB00BF9BE710B52DED028BF84890ED56
:10317000000AB5EEC00AF1EE10FA08D1F548006871
:1031800028B1F548006847F23051884202DBBDECB7
:10319000028B10BDED4890ED000AB5EEC00AF1EECD
:1031A00010FA7CD0ED48006847F23051884277D160
:1031B000E64890ED000AB5EEC00AF1EE10FA08DD1F
:1031C000E5480068E6490968401AE6490968884206
:1031D00010DBDE4890ED000AB5EEC00AF1EE10FA01
:1031E0007ED2DD480068DE4909680844DD49096887
:1031F000884275DDDC48006803285CDAD649096836
:10320000D84A1268881AFFF7BCFA0A2816DAD24898
:103210000068D64908600020CE490860D44908609B
:103220001FED460AC94880ED000A0220CE49086019
:10323000C64890ED000AFFF738FBA8E7C6480068CB
:10324000C8490968884237DDC24890ED000AB8EEE7
:10325000C00ABE48D0ED000A60EE200AC04890EDDA
:10326000000AB8EEC00AC0EE801AB0EE611AB0EEE5
:10327000410AFFF779FAB8490968BA4A1268881A08
:10328000FFF77FFA00EE900AB8EEE01AB948D0EDE9
:10329000000A40EE010AAF4890ED000A01E0AAE002
:1032A00047E0B8EEC00A80EE801AB0EE418AB0EE78
:1032B000480AFFF7FAFA9DE0A64890ED000AB8EE3A
:1032C000C00AA248D0ED000A60EE200AA44890EDA2
:1032D000000AB8EEC00AC0EE801AB0EE611A00E033
:1032E00021E0B0EE410AFFF73FFA9B4909689D4A89
:1032F0001268881AFFF745FA00EE900AB8EEE01A55
:103300009C48D0ED000A50EE410A924890ED000A28
:10331000B8EEC00A80EE801AB0EE418AB0EE480ADC
:10332000FFF7C3FA66E0894890ED000AFFF7BDFA9F
:1033300060E0864890ED000AB5EEC00AF1EE10FAA2
:103340001FDD854890ED000AB8EEC00A8148D0ED37
:10335000000AF8EEE00A7D4890ED001A00EEC10A7E
:103360008548D0ED000AF8EEE00A70EE600A7D486C
:1033700090ED000AB8EEC00AF4EEC00AF1EE10FAC1
:1033800027D3724890ED000AB5EEC00AF1EE10FAAC
:103390002BD2714890ED000AB8EEC00A6D48D0ED0E
:1033A000000AF8EEE00A694890ED001A00EEC10A42
:1033B0007148D0ED000AF8EEE00A70EE200A694884
:1033C00090ED000AB8EEC00AF4EEC00AF1EE10FA71
:1033D0000BDD61490968634A1268881AFFF76CF9C6
:1033E000B0EE408AFFF761FA04E0584890ED000A19
:1033F000FFF75BFACBE6614909685A4A1268881AF6
:10340000FFF75AF9B0EE408AFFF74FFA00BFBEE669
:1034100000B555480068022815DA1FEDC40A4C486B
:1034200080ED000A1FEDC70A484880ED000A002021
:103430005349086047F230504849086051490860D4
:1034400000204549086050480068401C4E4908600B
:103450004E490968884204DA4D480068FFF7D8F8F9
:103460000EE04A480068484908604A48006820B1B0
:1034700047480068FFF7CCF802E00020FFF7C8F8E3
:1034800000BD414A1268521C3F4B1A60824207DD60
:10349000304A12680A442F4B1A6000223A4B1A60D5
:1034A00070472DE9FC47FFF7E9F82E490860FFF760
:1034B000DCFD2F480068002821DD264800682C49E3
:1034C000096888422AD02348006829490968884247
:1034D0000EDA204800683049096888421EDA1D4823
:1034E0000068FFF755F904460121FFF7CAFF15E010
:1034F0004FF0FF3129480068FFF7C3FF0EE0154881
:103500000068002806DD4FF0FF3125480068FFF70E
:10351000B8FF03E0FFF77CFFBDE8FC8721480068A7
:1035200010490968884205D0FFF71DFE0D48006864
:103530001C4908601C480068D0B30648D0ED000A5A
:10354000F8EEE00A194890ED001A32E0B4010020CC
:10355000B801002090010020AC010020A40100204F
:1035600068010020C4010020BC010020C00100202F
:10357000940100204801002064010020B0010020D7
:103580008C010020A8010020A00100207C01002067
:10359000780100207401002098010020CC01002057
:1035A0009C010020C801002088010020E4010020C7
:1035B00058E060EE810AB0EE600AFFF764F8044656
:1035C000FC48D0ED000AF8EEE00AFB4890ED001A46
:1035D00060EE810AB0EE600AFFF755F80546F5483F
:1035E000D0ED000AF8EEE00AF44890ED001A60EE23
:1035F000810AB0EE600AFFF746F80646ED48D0EDC6
:10360000000AF8EEE00AEE4890ED001A60EE810A3A
:10361000B0EE600AFFF737F80746E648D0ED000A3B
:10362000F8EEE00AE74890ED001A60EE810AB0EE8D
:10363000600AFFF728F88046DE48D0ED000AF8EE71
:10364000E00AE14890ED001A60EE810AB0EE600AEF
:10365000FFF719F8814633463A464146CDE9005412
:10366000FEF766FF00BF57E770B52DED028B0F2503
:1036700005269FEDD60AB0EE408AD54800791E286F
:1036800005DBD3480079B42801DC012000E00020EC
:103690000446FEF7EEFECE48407800F0010028B167
:1036A000C8259FEDCC0AB0EE408A04E032259FED9C
:1036B000CA0AB0EE408AC648007800F0080098B107
:1036C000C348007800F0100070B9C148007800F0DD
:1036D000200048B9BE48007800F0400020B92946D3
:1036E000BE48FFF734FCC5E0B948007800F0080098
:1036F000A0B9B748007800F0100078B1B44800785D
:1037000000F0200050B9B248007800F0400028B91D
:10371000294640F2DC50FFF71AFCABE0AC480078D9
:1037200000F00800A0B9AA48007800F0100078B9AD
:10373000A748007800F0200050B1A548007800F0BC
:10374000400028B929464FF41670FFF700FC91E0BD
:103750009F48007800F0080098B99D48007800F074
:10376000100070B99A48007800F0200048B99848D5
:10377000007800F0400020B129469948FFF7E7FBA8
:1037800078E09348007800F00800A0B190480078F5
:1037900000F0100078B98E48007800F0200050B199
:1037A0008B48007800F0400028B929464FF4967005
:1037B000FFF7CDFB5EE08648007800F0080098B186
:1037C0008348007800F0100070B98148007800F05C
:1037D000200048B97E48007800F0400020B129461A
:1037E0008048FFF7B4FB45E07948007800F0080016
:1037F000A0B97748007800F0100078B174480078DC
:1038000000F0200050B17248007800F0400028B964
:1038100029464FF46170FFF79AFB2BE06C48007863
:1038200000F0080098B96A48007800F0100070B104
:103830006748007800F0200048B96548007800F03B
:10384000400020B129466848FFF781FB12E0674835
:1038500090ED000ADFED660AB4EEE00AF1EE10FA30
:1038600008D2294690ED000ABDEEC00A10EE100AFB
:10387000FFF76DFB5648007800F0080010BB544875
:10388000007800F01000E8B95148007800F02000FE
:10389000C0B94F48007800F0400098B9534890ED07
:1038A000000ADFED530AB4EEE00AF1EE10FA09DD8A
:1038B00044B1FEF7D5FE28B14548C07910B90020C3
:1038C000FFF75DFA14B1FFF783FA27E0404800796B
:1038D00014280EDAFEF7C4FE28B10020B1EE480A23
:1038E000FFF725FB1AE00020B1EE480AFFF71FFBA7
:1038F00014E037480079B4280EDDFEF7B1FE28B198
:103900000020B0EE480AFFF712FB07E00020B0EEFF
:10391000480AFFF70CFB01E0FFF75AFABDEC028BF7
:1039200070BD344801680068401C324A106032297A
:1039300007D2314840893149096808442F49086055
:103940000BE02E4800683221B0FBF1F02C490860F2
:10395000002028490860294908602A480168006851
:10396000401C284A1060322907D223480089264982
:1039700009680844244908600BE0234800683221A4
:10398000B0FBF1F02149086000201E4908601E4983
:1039900008601F4801680068401C1D4A10603229F9
:1039A0003AD2154880891B490968084419490860BA
:1039B0003EE0000090010020E0010020DC0100203A
:1039C000D8010020D4010020D00100200000000018
:1039D0004C0500209A99193FCDCC4C3ED4FEFFFFF8
:1039E00050FBFFFF7CFCFFFF24FAFFFF8C00002050
:1039F00000606A466002002000050020640200208A
:103A000070000020680200206C020020740000207A
:103A10007002002074020020FD4800683221B0FBD3
:103A2000F1F0FC4908600020FB490860F849086093
:103A3000FA4801680068401CF84A1060322907D231
:103A4000F748C089F74909680844F64908600BE05F
:103A5000F44800683221B0FBF1F0F349086000201F
:103A6000EE490860EF490860F04801680068401CB2
:103A7000EE4A1060322907D2E9480088EC4909680B
:103A80000844EB4908600BE0E94800683221B0FBCC
:103A9000F1F0E84908600020E4490860E449086062
:103AA000E54801680068401CE34A1060322907D2EB
:103AB000DB484088E14909680844E04908600BE0B8
:103AC000DE4800683221B0FBF1F0DD4908600020DB
:103AD000D9490860D9490860DA4801680068401C83
:103AE000D84A1060322907D2CD488088D649096863
:103AF0000844D54908600BE0D34800683221B0FB88
:103B0000F1F0D24908600020CE490860CE49086033
:103B1000704701B5CE48407800F0200040B19DF8D4
:103B20000000CC4981F82F00002081F82E0011E020
:103B3000C748407800F0040040B19DF80000C54936
:103B400081F82F00012081F82E0003E00220C149F6
:103B500081F82F0008BD10B5BD48407800F0020084
:103B6000C0B9BB48407800F0040098B10122802120
:103B7000B94801F035FF4FF48041B84801F012FF19
:103B800020B901224021B44801F02AFF0120B449A4
:103B900008700FE0B248007860B100224021AE48C2
:103BA00001F01EFF00228021AB4801F019FF002028
:103BB000AB49087010BD10B54FF4E670A949086014
:103BC00001228021A44801F00BFF00240BE002E059
:103BD000012005F0E7F84FF48041A04801F0E2FE33
:103BE0000128F5D0641C642CF1DB40F2DC5005F0B8
:103BF000D9F801229102984801F0F2FE4FF4FA70D0
:103C000005F0D0F801224021934801F0E9FE00249C
:103C10000AE002E0012005F0C5F801218F4801F01B
:103C2000C1FE0128F6D0641C642CF2DB00240AE0FB
:103C300002E0012005F0B6F80121884801F0B2FE4B
:103C40000028F6D0641C642CF2DB4FF47A7005F087
:103C5000A9F800224FF480617F4801F0C1FE40F2D4
:103C6000DC5005F09FF800240AE002E0012005F096
:103C700099F80121794801F095FE0128F6D0641CDD
:103C8000642CF2DB4FF4FA7005F08CF8002240212E
:103C9000714801F0A5FE4FF4FA6005F083F80022A8
:103CA00080216D4801F09CFE00240AE002E0012022
:103CB00005F078F80221694801F074FE0128F6D079
:103CC000641C642CF2DB10BD10B54FF4E67065493E
:103CD000086002E00A2005F065F856480068B0F573
:103CE000EB7FF7DC012240215B4801F079FE41F2D5
:103CF000883005F057F80A20564981F82B0081F8E2
:103D0000270081F82300012081F8220081F8260095
:103D100081F82A0041F2883005F044F840F23A2058
:103D200050490860002240214B4801F059FE002410
:103D30000DE004E0012005F035F8FFF795FC4FF4A5
:103D40008061464801F02EFE0128F3D0641C642CEB
:103D5000EFDB40F6B83005F025F800203D4981F84A
:103D6000230081F8270081F82B0010BD10B53848DA
:103D7000407800F0080050B13548407800F002006B
:103D800028B901228021344801F02AFE11E0304890
:103D9000007800F0020060B1002280212E4801F07E
:103DA0001FFE00202B4981F82B0081F8270081F8A5
:103DB000230010BD10B52648407800F0400030B315
:103DC0004FF48061254801F0EDFD00BB1E20214924
:103DD00081F82B0081F8270081F82300002081F86A
:103DE000220081F8260081F82A0042F2107004F0C7
:103DF000D9FF0122D102184801F0F2FD42F2107001
:103E000004F0D0FF0020134981F82B002CE035E0AE
:103E1000740200207C000020700200207802002044
:103E2000000500207C020020780000208002002095
:103E30008402002080000020880200208C020020E4
:103E400084000020900200209402002088000020BE
:103E50004C05002004000020000402400010024035
:103E600098020020EC00002081F8270081F8230050
:103E700000224FF40061F84801F0B2FD10BD10B50A
:103E8000F648407800F0800058B31420F44981F8D7
:103E90002B0081F8270081F82300012081F82200FF
:103EA00081F8260081F82A0000240BE002E00120BE
:103EB00004F078FF4FF48061EA4801F073FD0128B7
:103EC000F5D0641C642CF1DB40F6B83004F06AFFD6
:103ED0000020E34981F8230081F8270081F82B00B6
:103EE00000BF10BD10B50A20FEF749FF7D20DC4958
:103EF00081F82B0081F8270081F82300002081F849
:103F0000220081F8260081F82A0043F6982004F068
:103F100049FF0122D102D04801F062FD41F658303C
:103F200004F040FF0020CE4981F82B0081F82700E3
:103F300081F8230000224FF40061C74801F050FDD2
:103F400010BD70B52DED068B04460D46C6480560C4
:103F5000C6480460492C0AD19FEDC50AC54880EDCA
:103F6000000AC54800680D30C4490860A1E24A2C27
:103F70000AD19FEDC30ABF4880ED000ABE48006821
:103F80000D30BE49086094E24B2C0AD19FEDBD0A6A
:103F9000B84880ED000AB84800680A30B7490860A0
:103FA00087E24C2C09D19FEDB80AB24880ED000A97
:103FB000B1480068B54908607BE24D2C09D19FEDFE
:103FC000B10AAC4880ED000AAB480068AF49086010
:103FD0006FE24E2C09D19FEDAA0AA64880ED000A97
:103FE000A5480068A949086063E24F2C09D19FEDFC
:103FF000A00AA04880ED000A9F480068A349086015
:1040000057E2502C09D19FEDA20A9A4880ED000A90
:10401000994800689D4908604BE2512C0AD19FEDF8
:104020009D0A944880ED000A93480068801D9749D6
:1040300008603EE2522C0AD19FED970A8D4880ED30
:10404000000A8D480068401D9049086031E2532CF9
:104050000AD19FED920A874880ED000A86480068E1
:10406000401D8A49086024E2542C0AD19FED8C0A35
:10407000804880ED000A80480068401D8349086040
:1040800017E2552C0AD19FED870A7A4880ED000A85
:1040900079480068401F7D4908600AE2562C0AD121
:1040A0009FED810A734880ED000A73480068401F45
:1040B00076490860FDE1572C0AD19FED7C0A6D48D6
:1040C00080ED000A6C480068401F70490860F0E10C
:1040D000582C0AD19FED760A664880ED000A6648A2
:1040E0000068401F69490860E3E1592C0AD19FED3F
:1040F000710A604880ED000A5F480068001F63494C
:104100000860D6E15A2C0AD19FED6B0A594880ED20
:10411000000A59480068001F5C490860C9E15B2C2F
:104120000AD19FED660A534880ED000A52480068A4
:10413000001F56490860BCE15C2C0AD19FED600A63
:104140004C4880ED000A4C480068001F4F49086049
:10415000AFE15D2C0AD19FED5B0A464880ED000A75
:1041600045480068001F49490860A2E15E2C0AD159
:104170009FED550A3F4880ED000A3F480068C01E89
:104180004249086095E15F2C0AD19FED500A3948F9
:1041900080ED000A38480068C01E3C49086088E18C
:1041A000602C0AD19FED4A0A324880ED000A32485D
:1041B0000068C01E354908607BE1612C0AD19FED83
:1041C000450A2C4880ED000A2B480068C01E2F4984
:1041D00008606EE1622C0AD19FED3F0A254880ED10
:1041E000000A25480068801E2849086061E1632CA8
:1041F0000AD19FED3A0A1F4880ED000A1E48006868
:10420000801E2249086054E1642C0AD19FED340AD3
:10421000184880ED000A18480068801E1B49086095
:1042200047E1652C0AD19FED2F0A124880ED000A64
:1042300011480068801E154908603AE1662C55D186
:104240009FED290A0B4880ED000A0B480068801E8C
:104250000E4908602DE10000000402404C050020DA
:1042600004000020001002403C0200203802002020
:10427000333367413002002094000020EC0000201E
:104280009A996541000064416666624148020020D7
:10429000CDCC684166666A4100006C419A996D41D7
:1042A00033336F41CDCC704166667241000074417A
:1042B0009A99754133337741CDCC784166667A411E
:1042C00000007C419A997D4133337F41666680418D
:1042D0003333814100008241CDCC82419A998341A0
:1042E000666684413333854100008641672C0AD1DC
:1042F0009FEDF90AF94880ED000AF9480068401E70
:10430000F8490860D5E0682C0AD19FEDF70AF34818
:1043100080ED000AF2480068401EF2490860C8E0DB
:10432000692C0AD19FEDF10AEC4880ED000AEC48B7
:104330000068401EEB490860BBE06A2C0AD19FED83
:10434000EC0AE64880ED000AE5480068401EE549B1
:104350000860AEE06B2C0AD19FEDE60ADF4880EDE5
:10436000000ADF480068401EDE490860A1E06C2CAE
:104370000AD19FEDE10AD94880ED000AD8480068CB
:10438000401ED849086094E06D2C09D19FEDDB0AEE
:10439000D24880ED000AD2480068D249086088E01F
:1043A0006E2C09D19FEDD60ACC4880ED000ACC488E
:1043B0000068CC4908607CE06F2C09D19FEDD10AE0
:1043C000C64880ED000AC6480068C649086070E02B
:1043D000702C09D19FEDCC0AC04880ED000AC0487E
:1043E0000068C049086064E0712C09D19FEDC70ADC
:1043F000BA4880ED000ABA480068BA49086058E037
:10440000722C09D19FEDC20AB44880ED000AB4486D
:104410000068B44908604CE0732C0AD19FEDBD0AD6
:10442000AE4880ED000AAE480068401CAD49086007
:104430003FE0742C0AD19FEDB80AA84880ED000A2D
:10444000A7480068401CA749086032E0752C0AD1D3
:104450009FEDB20AA14880ED000AA1480068401C07
:10446000A049086025E0762C0AD19FEDAD0A9B4853
:1044700080ED000A9A480068401C9A49086018E0DC
:10448000772C0AD19FEDA70A944880ED000A944842
:104490000068801C934908600BE0782C09D19FEDDF
:1044A000A20A8E4880ED000A8D480068801C8D4964
:1044B0000860962D21DB992D1FDCA5F1960005F0F3
:1044C0007AFA41EC1A0B9FED990B53EC102B05F087
:1044D00091F941EC190B9FED970B53EC102B05F064
:1044E00086F941EC180B05F0BBFA94490860944832
:1044F0000068401F93490860C5E29A2D21DB9C2D7E
:104500001FDCA5F1960005F056FA41EC1A0B9FED61
:104510008E0B53EC102B05F06DF941EC190B9FED50
:10452000850B53EC102B05F062F941EC180B05F0EC
:1045300097FA8249086082480068401F81490860F4
:10454000A1E29D2D21DBA02D1FDCA5F1960005F039
:1045500032FA41EC1A0B9FED7E0B53EC102B05F059
:1045600049F941EC190B9FED7C0B53EC102B05F036
:104570003EF941EC180B05F073FA70490860704879
:104580000068401F6F4908607DE2A12D21DBA52D49
:104590001FDCA5F1960005F00EFA41EC1A0B9FED19
:1045A000700B53EC102B05F025F941EC190B9FED26
:1045B0006A0B53EC102B05F01AF941EC180B05F0BF
:1045C0004FFA5E4908605E480068401F5D49086018
:1045D00059E2AA2D0CDBAE2D0ADC9FED630A574889
:1045E00080ED000A56480068401F564908604AE2BC
:1045F000B12D0CDBB22D0ADC9FED5C0A4F4880ED3B
:10460000000A4F480068401F4E4908603BE2B42D45
:1046100007DBB62D05DC9FED560A484880ED000A01
:1046200031E2B72D07DBB92D05DC9FED520A434877
:1046300080ED000A27E2BA2D07DBBC2D05DC9FEDDB
:104640004E0A3E4880ED000A1DE2BD2D07DBC02D5D
:1046500005DC9FED4A0A394880ED000A13E2C12DBE
:1046600007DBC32D05DC9FED460A344880ED000AC8
:1046700009E2C42D07DBC72D05DC9FED420A2F4858
:1046800080ED000AFFE1A5F17B0039287ED2DFE84A
:1046900000F01D7E848A90969CA2A8AEB4BAC0CBCE
:1046A000EFF5FBEBEAE9E8E7E6E5E4E3E27D7D7DB3
:1046B0007D7D7D7D7D7D7D7D7D7D7D7D7DE1E0DF01
:1046C000DEDDDCDBDAD9D8D77D7DD6009FED2E0A82
:1046D0001A4880ED000AD5E1CDCC86413002002099
:1046E00094000020480200209A998741666688411C
:1046F0003333894100008A41CDCC8A419A998B415C
:1047000066668C4133338D4100008E41CDCC8E41A5
:104710009A998F41666690413333914100009241EE
:10472000CDCC92419A999341666694410000000075
:104730000000D03FCDCCCCCCCCCC234034020020E8
:1047400044020020EC000020713D0AD7A370BD3F59
:1047500009F9A067B3EAB33F6666666666662440F9
:10476000333333333333B33F66661641AE471341B9
:10477000CDCC1441F62814411F85134152B8124183
:104780006666124185EB1141F628204174E19FEDE8
:10479000FD0AFD4880ED000A74E19FEDFC0AFA482D
:1047A00080ED000A6EE19FEDFA0AF74880ED000AFD
:1047B00068E19FEDF70AF44880ED000A62E19FEDA1
:1047C000F50AF14880ED000A5CE19FEDF30AEE483E
:1047D00080ED000A56E19FEDF10AEB4880ED000AFA
:1047E00050E1B2EE040AE84880ED000A4AE1B2EE78
:1047F000040AE54880ED000A44E19FEDE60AE2483C
:1048000080ED000A3EE19FEDE30ADF4880ED000AFB
:1048100038E19FEDE00ADC4880ED000AE0480068DE
:10482000401FE04908602DE19FEDDF0AD64880ED8A
:10483000000ADB480068401FDA49086022E110E105
:1048400004E1F8E0ECE0E0E0D4E0C8E0BCE0B0E097
:10485000A4E098E08CE080E074E068E05CE050E088
:1048600044E038E02CE020E014E00DE006E0FFE753
:104870009FEDCE0AC44880ED000A03E19FEDCC0A0B
:10488000C14880ED000AFDE09FEDC90ABE4880EDF9
:10489000000AF7E0B2EE040ABB4880ED000AC04807
:1048A0000068C01FBF490860ECE0B2EE040AB648D9
:1048B00080ED000ABA480068C01FBA490860E1E00C
:1048C000B2EE040AB04880ED000AB5480068C01F87
:1048D000B4490860D6E0B2EE040AAB4880ED000AA5
:1048E000AF480068C01FAF490860CBE0B2EE040AD1
:1048F000A54880ED000AAA480068C01FA9490860C1
:10490000C0E09FEDAC0AA04880ED000AA448006812
:10491000C01FA4490860B5E01FED6D0A9A4880EDFC
:10492000000A9F480068C01F9E490860AAE09FEDEA
:10493000A20A954880ED000A99480068C01F99496D
:1049400008609FE09FED9D0A8F4880ED000A944823
:104950000068C01F9349086094E01FED7B0A8A48F5
:1049600080ED000A8E480068C01F8E49086089E00B
:104970009FED930A844880ED000A89480068401F33
:10498000884908607EE09FED8E0A7F4880ED000A2E
:1049900083480068401F8349086073E09FED890ADF
:1049A000794880ED000A7E480068401F7D49086014
:1049B00068E01FED920A744880ED000A78480068AC
:1049C000401F784908605DE01FED990A6E4880ED50
:1049D000000A73480068401F7249086052E09FED6A
:1049E0007A0A694880ED000A6D480068401F6D49E9
:1049F000086047E09FED750A634880ED000A68484B
:104A00000068401F674908603CE09FED710A5E48FE
:104A100080ED000A62480068401F6249086031E08A
:104A20009FED6C0A584880ED000A5D480068401F01
:104A30005C49086026E09FED680A534880ED000A53
:104A400057480068401F574908601BE09FED630A04
:104A50004D4880ED000A52480068801F51490860A7
:104A600010E09FED5F0A484880ED000A4C4800685E
:104A7000401F4C49086005E09FED5A0A424880ED0E
:104A8000000A00BF00BF00EE104AB8EEC00A564848
:104A9000D0ED000A20EE200AF2EE040A80EE201A81
:104AA000BDEEC10A514880ED000A00EE105AB8EE82
:104AB000C00A3548D0ED000A20EE200AF2EE040AC2
:104AC00080EE201ABDEEC10A494880ED000A4FF47D
:104AD0008061484800F066FF88B94748007870B99F
:104AE0004648807920B1464800682E49086006E0B3
:104AF0004248C07918B12A4800682A490860BDECCC
:104B0000068B70BD10B53D48807900287ED04FF4EB
:104B10008061384800F046FF002877D13748007898
:104B200000F0800000287FD00120334908700A205F
:104B3000FEF725F92D480078324981F82B0081F8DD
:104B4000270081F82300002081F8220081F8260048
:104B500081F82A0002E0642004F024F92748007854
:104B600000F080000028F6D10122D102264800F092
:104B700037FF43F6982004F015F90020214981F809
:104B80002B0044E0EC5120413402002066662041B5
:104B9000E17A20417B142241E17A2441C3F524418A
:104BA00044020020EC00002014AE2341A4702541F3
:104BB0003333274133331F4185EB1541A470154131
:104BC000CDCC1041295C13410AD715411F851541F1
:104BD000AE471541C3F5144100001441355E134141
:104BE00014AE134100000000300200203802002003
:104BF0003C020020001002405F0200204C05002013
:104C00009400002004000020000402400CE081F821
:104C1000270081F8230000224FF40061FE4800F0D5
:104C2000DFFE0020FD4908704FF48061FC4800F071
:104C3000B9FE00283ED1FB48007800F08000C8B3E0
:104C40000120F64908700A20FEF799F8F648007826
:104C5000F64981F82B0081F8270081F82300002015
:104C600081F8220081F8260081F82A0002E0642001
:104C700004F098F8EB48007800F080000028F6D1A6
:104C80000122D102E44800F0ABFE43F6982004F084
:104C900089F80020E54981F82B0081F8270081F888
:104CA000230000224FF40061DB4800F099FE002051
:104CB000DA49087010BD70B52DED0C8B0446A4F1D7
:104CC0006400002801DB014600E041420D46284611
:104CD00004F071FE41EC1D0B9FEDD50B53EC102B36
:104CE00004F088FD41EC1C0BB0EE4C0AF0EE6C0AAF
:104CF00005F0FEF9B0EE40BAF0EE60BA9FEDCE0BD3
:104D000053EC102B51EC1B0B04F071FD41EC1A0B12
:104D10009FEDCB0B53EC102B04F06CFD41EC190B09
:104D20009FEDC90B53EC102B04F0BDFC41EC180BAC
:104D300004F096FE00EE100ABDEC0C8B70BD10B5B1
:104D40002DED088B04469FEDC20AF0EE409A9FEDD0
:104D5000C10AB0EE40BA9FEDC00AF0EE40BAB148C9
:104D6000C07900287CD0C4F1640000EE100AB8EECF
:104D7000C08ABA4890ED000A30EE080A80ED000AB9
:104D800090ED000ADFEDB60AB4EEE00AF1EE10FA9B
:104D900003DD9FEDB30A80ED000AB04890ED000AF4
:104DA000DFEDB00AB4EEE00AF1EE10FA03D29FEDA7
:104DB000AD0A80ED000AAC4890ED000A38EE409A4A
:104DC0009FEDA30A28EE000AA448D0ED000A9FED4B
:104DD000A11A01EE200ADFEDA00AF0EE408A40EEB3
:104DE000898A18EE900A04F0F7FD41EC1A0B9FED4A
:104DF0009F0B53EC102B04F01BFE03D2B7EE0C0AF2
:104E0000F0EE408A18EE900A04F0E6FD41EC1A0B31
:104E10009FED980B53EC102B04F0F2FD03D2BFEE84
:104E20000C0AF0EE408ABDEEC80A10EE100A002807
:104E300001DB014600E04142022908DAFDF7C8FF24
:104E40001FED980A854880ED000A05E008E0002083
:104E5000B0EE680AFEF76BF8834880ED008A09E03F
:104E60001FEDA00A804880ED000A1FEDA20A7B48D2
:104E700080ED000ABDEC088B10BD10B50446622C15
:104E800005DA00220121644800F0AAFD0CE0662C3E
:104E900005DD00220121604800F0A2FD04E00122AE
:104EA00011465D4800F09CFD10BD10B52DED088B3E
:104EB000B0EE408A1FEDB50AF0EE408A1FEDB70A4A
:104EC000B0EE409A9FED6D0A08EE080A10EE101A37
:104ED000084604F081FD41EC1B0BB0EE4B0AF0EEEE
:104EE0006B0A06F03DF9B0EE40AAF0EE60AA51EC74
:104EF0001A0B04F0B5FD09EE900ADFED610A89EEA8
:104F0000A00ADFED600A20EE200AB0EE409A9FED85
:104F10005E0AB4EEC09AF1EE10FA04DD9FED5A0A73
:104F2000B0EE409A0AE09FED590AB4EEC09AF1EE55
:104F300010FA03D29FED550AB0EE409A9FED500A49
:104F400039EEC00A9FED4E1AC0EE010A9FED441AD9
:104F50009FED4F0A00EE810AF0EE408A9FED4D0A68
:104F6000F4EEC08AF1EE10FA04DD9FED4A0AF0EE8D
:104F7000408A0AE09FED480AF4EEC08AF1EE10FA8A
:104F800003D29FED450AF0EE408ABDEEC90A4348C0
:104F900080ED000ABDEEE80A414880ED000ABDEC54
:104FA000088B10BD10B52DED0A8BB0EE408A1FEDB9
:104FB000F30AF0EE408A1FEDF50AB0EE409A9FED3D
:104FC000390AC8EE000A10EE904A204604F004FDAB
:104FD00041EC1C0B9FED341BB0EE4C0AF0EE6C0A5A
:104FE00005F032FAB0EE40BAF0EE60BA9FED300B49
:104FF00053EC102B51EC1B0B04F0FCFB41EC1A0B97
:1050000004F02EFD09EE100A9FED1F0AB4EEC09ABF
:10501000F1EE10FA55DD4FE0000402405F0200207F
:10502000001002404C0500203C020020040000203B
:10503000D122DBF97E6AACBF000000000000F03F27
:105040001E85EB51B81EE53F713D0AD7A370F13FB5
:10505000CDCC4C3F0AD7233CCDCC4C3EA002002007
:105060000000C8420000C8C29C02002000000000EE
:105070000000FC3F000000000000FCBF0000C8452D
:1050800000C02E440000E64200007A43000048427F
:105090000040174400802244008009449000002012
:1050A0009400002000A07F459A9999999999F13F21
:1050B0000000000000805A401FED0D0AB0EE409A3B
:1050C0000AE01FED0E0AB4EEC09AF1EE10FA03D218
:1050D0001FED120AB0EE409A1FED0E0A78EE400A5C
:1050E0001FED101A80EE810A5FED180A20EE200AEB
:1050F00010EE104A204604F06FFC41EC1C0B9FEDB3
:10510000D60B53EC102B04F075FB41EC1B0B9FED01
:10511000D40B53EC102B04F0C6FA41EC1A0B04F03C
:105120009FFC08EE900A9FEDD00AF4EEC08AF1EEE3
:1051300010FA04DD9FEDCC0AF0EE408A0AE01FED84
:105140002A0AF4EEC08AF1EE10FA03D21FED2E0AFD
:10515000F0EE408ABDEEC90AC44880ED000ABDEEFB
:10516000E80AC34880ED000ABDEC0A8B10BDC148B7
:105170000068C1490968884203DABF480068BD4930
:105180000860BC480068BD490968884203DDBB4827
:105190000068B8490860BA490968B64A1268881AAE
:1051A000002801DB014600E04142012931DDB4481D
:1051B0000068B0490968884204DD0120B14981F8DE
:1051C0002E0003E00020AF4981F82E00AC490968A9
:1051D000A84A1268881A002801DB014600E0414213
:1051E00001EB81014900A84A116010460068FA28C5
:1051F00002DDFA2011460860A3480068322802DA6E
:105200003220A1490860A04800789E4981F82F000B
:1052100003E000209B4981F82F00704710B59B48A0
:10522000407800F00200A0B19848407800F00400F7
:1052300078B19048006891490968884209DA8D4838
:105240000068401C8B4908604FF4967003F0AAFD7B
:1052500018E08E48407800F0020098B18B48407802
:1052600000F0200070B183480068834909688842D3
:1052700008DD80480068401E7E4908604FF4C87011
:1052800003F090FD10BD05E01120FDF7DEF80F20C2
:1052900003F088FDF8E711E07C48007800F0010099
:1052A00010B1FEF7E1F902E00020FDF768FDFEF71E
:1052B00038FBFFF75CFF032003F074FDECE704E02C
:1052C000FEF7EFF8032003F06DFDF9E71FB5FBF7DC
:1052D000E6FBFBF723FCFBF772FEFBF732FFFBF765
:1052E000BFFFFCF7B0F8FBF784FC4FF4E130FCF7AC
:1052F0008AF94FF4E130FCF70FFA4FF4E130FCF794
:1053000098FA4FF46120FCF7CCFB4FF4E130FCF746
:1053100065FCFDF7AFF9FCF7B9FD00205C490870AA
:1053200001205C4908700020009001900290034623
:105330004FF4807258A103905C4803F0F4FA002007
:1053400000900190029003464FF4807258A10390A0
:105350005C4803F0E8FA04205B49087001205B49CF
:1053600008704FF416704349086056E04DE0FFF7AF
:1053700055FFFEF7F0FB56480078FFF7E0FCFEF71C
:10538000F5FC544890ED000AB8EEC00AFFF78DFD19
:105390005148008800EE100AB8EE400AFFF702FEFE
:1053A000324801684D480068FEF7CBFD4848007858
:1053B000FFF763FDFEF763FD3448407800F002001C
:1053C00030B93248407800F0200008B1FEF7F3FB16
:1053D0002E48407800F0020030B92C48407800F0A8
:1053E000100008B1FEF770FC2848407800F0020079
:1053F00030B92648407800F0400008B1FEF7DAFCEA
:10540000FFF780FB012003F0CDFC2048007800F07E
:1054100001000028ABD1FDF7B2FCA7E71FB50020C3
:1054200000900190029003464FF480722CA10390EB
:105430002E4803F078FA0020009001900290034675
:105440004FF480722AA103902C4803F06CFA03F009
:1054500083FE002004B010BD666666666666E63FA1
:105460000000000000D081400000164440020020EF
:1054700044020020EC000020F0000020F400002096
:105480008000002004000020100200204C050020B5
:10549000A00000205E0200207461736B526F626F87
:1054A00074416E616C79746963730000BF520008C7
:1054B0007461736B446965754B6869656E436F43CE
:1054C0006175000097520008F1010020EB010020F7
:1054D00028010020780000202A01002090000020F0
:1054E0007461736B4D61696E00000000CD5200085D
:1054F0007461736B4779726F000000008752000877
:105500000CB50020019000907248006840F4803093
:105510007049086000BF6F48006800F400300090D8
:105520000198401C0190009818B90198B0F5A06F3F
:10553000F1D16848006800F4003010B101200090FB
:1055400001E0002000900098012846D161484030D9
:10555000006840F080505F49403108605E48006854
:1055600040F480405C4908605A4808300068594956
:10557000083108600846006840F4004008600846AA
:10558000006840F4A05008605448091F0860081FD4
:10559000006840F08070091F086000BF4D48006837
:1055A00000F000700028F9D040F205604C49086016
:1055B00048480830006820F0030046490831086078
:1055C0000846006840F00200086000BF414808300B
:1055D000006800F00C000828F8D10CBD10B53D485B
:1055E000006840F001003B4908600020394908315B
:1055F0000860384800683B490840364908603A4826
:10560000091D0860081F006820F48020091F086039
:10561000002030490C310860FFF772FF4FF0006046
:105620003249086010BD70B500200022022300241A
:105630000221284D08352D6805F00C0020B1042802
:1056400006D0082834D107E0294D2A4E356033E0D2
:10565000294D284E35602FE01E4D2D1D2D68C5F3B8
:1056600080541C4D2D1D2D6805F03F0154B1224D75
:10567000B5FBF1F5174E361D3668C6F3881605FBE7
:1056800006F209E01A4DB5FBF1F5124E361D3668EB
:10569000C6F3881605FB06F20E4D2D1D2D68C5F3C9
:1056A00001456D1C6B00B2FBF3F5124E356003E053
:1056B0000F4D104E356000BF00BF064D08352D68F8
:1056C000C5F303150D4E705D0A4D2D68C540094E9A
:1056D000356070BD0038024000700040085440073B
:1056E000003C0240FFFFF6FE1030002408ED00E011
:1056F0000024F400A402002000127A00A802002076
:105700000648804706480047FEE7FEE7FEE7FEE75B
:10571000FEE7FEE7FEE7FEE7FEE7FEE7DD550008F1
:105720008901000832490143324A1160704770B55F
:10573000002100230F22C4781CB32E4C246804F4EB
:10574000E064C4F5E064C4F30721C1F10404E3B2EA
:105750000A4144789C40E1B28478144021430C070C
:10576000210E254C05786155047804F01F050124AD
:10577000AC4005786D11AD0005F1E025C5F800419C
:1057800009E0047804F01F050124AC401B4D0678A5
:10579000761145F8264070BD194A0A400243154B60
:1057A0001B1F1A60704739B1124A121D126802435A
:1057B000104B1B1D1A6006E00E4A121D1268824330
:1057C0000C4B1B1D1A607047042808D14FF0E021D4
:1057D000096941F004014FF0E022116107E04FF048
:1057E000E021096921F004014FF0E02211617047C6
:1057F0000000FA050CED00E000E400E080E100E0CC
:1058000080FFFF1F10B504468C48844208D1012157
:10581000084600F000FB0021012000F0FCFA5EE0E9
:105820008748844208D10121022000F0F4FA0021C7
:10583000022000F0F0FA52E08248844208D10121AF
:10584000042000F0E8FA0021042000F0E4FA46E029
:105850007D48844208D10121082000F0DCFA0021B3
:10586000082000F0D8FA3AE07848844208D10121B3
:10587000102000F0D0FA0021102000F0CCFA2EE029
:105880007348844208D10121202000F0C4FA00218D
:10589000202000F0C0FA22E06E48844208D10121A5
:1058A000402000F0B8FA0021402000F0B4FA16E0E1
:1058B0006948844208D10121802000F0ACFA00211F
:1058C000802000F0A8FA0AE06448844207D1012150
:1058D000801500F0A0FA0021A01500F09CFA10BD80
:1058E000F0B50A4600210023002400BF3DE0012559
:1058F00005FA01F3156805EA03049C4234D10568F2
:105900004F000326BE40B543056015794E00B540F3
:105910000668354305601579012D02D01579022DF1
:1059200016D185684F000326BE40B5438560557982
:105930004E00B540866835438560456801268E4037
:10594000B5434560456896798E40B6B235434560AB
:10595000C5684F000326BE40B543C560D5794E00EB
:10596000B540C6683543C560491C1029BFD3F0BD9A
:105970004FF6FF7101600021017141718171C171A8
:10598000704708B54FF480320092009A0A430092A3
:10599000009AC261C161009AC261C2690092C26983
:1059A000009208BD0246002013690B400BB1012094
:1059B00000E0002070470146086980B27047024647
:1059C000002053690B400BB1012000E0002070471C
:1059D0000146486980B27047018370474183704730
:1059E0000AB1018300E04183704741617047426919
:1059F0004A4042617047F0B5002300244D07ED0E88
:105A000002FA05F3CE1000F1200555F826504E0796
:105A1000F70E0F26BE40B543CF1000F1200646F822
:105A20002750CE1000F1200555F8265045EA030412
:105A3000CE1000F1200545F82640F0BD00000240E0
:105A40000004024000080240000C02400010024026
:105A50000014024000180240001C024000200240D6
:105A6000FA48006840F00100F84908600020F74952
:105A700008310860F5480068F5490840F3490860B6
:105A8000F448091D0860081F006820F48020091FE1
:105A900008600020ED490C31086070470021EB4A96
:105AA000921C117011460870704710B50146002213
:105AB000002300204A11012A02D1E44C236808E0A7
:105AC000022A03D1E14C7034236802E0DF4C7434C5
:105AD000236801F01F02012494401C400CB10120F6
