:020000040800F2
:10000000C033002069560008450200084702000876
:100010004B0200084F0200085302000800000000D5
:100020000000000000000000000000009D0100082A
:100030005702000800000000E10100088386000864
:10004000835600088356000883560008835600082C
:10005000835600088356000883560008835600081C
:100060005F040008A3040008835600080103000889
:10007000E30200083F0300088356000875020008E9
:100080008356000881020008835600088356000842
:1000900083560008835600088356000883560008DC
:1000A000835600087B030008A70300088356000856
:1000B000A9030008D70300080304000883560008BA
:1000C0008356000883560008835600085B04000826
:1000D000835600085D020008835600088356000816
:1000E000835600088356000883560008835600088C
:1000F0008356000883560008835600081B03000837
:1001000083560008835600082F0400085D04000889
:1001100083560008835600084D0300085903000861
:10012000835600089B020008B502000883560008A9
:10013000835600088356000883560008835600083B
:10014000835600088356000883560008835600082B
:10015000D50200088356000883560008835600081D
:10016000835600088356000883560008835600080B
:1001700083560008835600088356000883560008FB
:100180008356000883560008DFF80CD009F0B0FD54
:100190000048004783530008C0330020234B1968F0
:1001A0000868B0E8F04F80F309884FF0000080F352
:1001B000118870470000000003480068006880F361
:1001C000088862B600DF00BF08ED00E0DFF80C0031
:1001D000016841F470010160704700BF88ED00E0E4
:1001E000EFF30980114B1A681EF0100F08BF20EDC5
:1001F000108A20E9F04F106008B54FF0140080F32A
:10020000118808F006FE4FF0000080F31188BDE869
:10021000084019680868B0E8F04F1EF0100F08BFDA
:10022000B0EC108A80F30988704700BFF403002007
:10023000EFF311804FF0140181F31188704780F3C0
:1002400011887047704700BFFEE700BFFEE700BFA0
:10025000FEE700BFFEE770477047704710B540F2F9
:100260002551904807F021FB18B120218D4807F057
:1002700013FB10BD10B58C498C4806F04BFA10BD2D
:1002800010B58B498948303006F01AFA20B18849F8
:100290008648303006F03EFA10BD10B585498648D4
:1002A00006F00EFA28B18349834806F033FA01F0CC
:1002B000DDFD10BD10B581497F48183006F02AFADF
:1002C0007F4840787E49097840EA012000B27D49A4
:1002D000088010BD10B57C497748603006F01AFAE6
:1002E00010BD10B573497148483806F0E9F930B1CE
:1002F00070496E48483806F00DFA00F09FFA10BDBC
:1003000010B572496948603806F0DAF920B16F49D2
:100310006648603806F0FEF910BD10B56C496348B8
:10032000483006F0CDF948B100216048483006F069
:100330001DF967495D48483006F0ECF910BD10B56D
:1003400059495A48303806F0E5F910BD10B5012179
:10035000604807F007F810BD10B501215E4807F0AE
:1003600001F87A204F49888001215C4807F0ACF9F8
:1003700001215B4807F0A8F910BD10B501215948CB
:1003800006F0F0FF5748008800F0100028B15648EA
:100390000068401E5449086004E053480068401C4F
:1003A0005149086010BD704710B50121880706F05B
:1003B000D9FF4FF08040008800F0100028B14B4872
:1003C0000068401E4949086004E048480068401C35
:1003D0004649086010BD10B50121454806F0C2FF2E
:1003E0004348008800F0100028B142480068401ED1
:1003F0004049086004E03F480068401C3D490860EF
:1004000010BD10B501213C4806F0ACFF3A48008809
:1004100000F0100028B139480068401E37490860D4
:1004200004E036480068401C3449086010BD10B52F
:100430000121334806F096FF3148008800F0100093
:1004400028B130480068401E2E49086004E02D485D
:100450000068401C2B49086010BD7047704710B5FC
:10046000042006F0EFF9D8B12021274805F073FAEF
:100470000421264805F04AFA012804D10021164833
:1004800006F0F0FA09E00421204805F03FFA20B90F
:10049000114806F0EBFA1E49086004201D49086067
:1004A00010BD7047001001402080002070600240A5
:1004B0000080202000880010286402400080201066
:1004C00010060020840000200088002020800010FA
:1004D0000080002800100040001400400048004048
:1004E000001401400000014064000020680000206A
:1004F000000400406C000020000800408000002044
:10050000000C00407000002000000240000C02407F
:1005100060000020143C014070B50446204609F0FC
:1005200061F805462146FE4809F063F8A0B195221E
:100530002146FB4809F04AF80021FA4806F016F86F
:10054000F748F8490C310860F648B838C0F8BC5094
:100550000121F44806F00AF870BD70B50446002584
:1005600010E0605D68B1615DEF4807F0D8F800BF4A
:100570008021ED4807F083F90028F9D0681CC5B246
:1005800000E070BDEDE770B5044600250FE05CB1FA
:100590002146E54807F0C3F800BF8021E24807F094
:1005A0006EF90028F9D000E070BD681CC5B2032DBB
:1005B000EDDB00BFF8E713B50C460020FFF7E3FFC3
:1005C000DAA0FFF7CAFF2346D9A29621D94809F03D
:1005D000CDFBD848FFF7C1FFD7A0FFF7BEFFD4A2DD
:1005E0009621D448009B09F0C1FBD248FFF7B5FF24
:1005F000D3A0FFF7B2FFFF20FFF7C5FFFF20FFF7F3
:10060000C2FFFF20FFF7BFFF1CBD70B505460C46BB
:10061000C6A0FFF7A2FF2246C5A1C64809F0BEFB4F
:10062000C448FFF79AFFC4A0FFF797FF2846FFF7DB
:1006300094FFC3A0FFF791FFFF20FFF7A4FF70BD59
:1006400077B585B00546FF26BBA103C9CDE90301F7
:10065000BBA000680290B5A00068019000240AE0E9
:100660000020B8490855B8490855B2490855AC4961
:100670000855601CC4B21E2CF2DB0A20AD4908707C
:10068000FF2048708870C870A9A1AF48079A09F088
:1006900085FBAD4901A808F08DFF01A9A54808F028
:1006A00089FF03A9A34808F085FF2946A14808F05F
:1006B00081FF9FA1A448069A09F070FBA2499D48BA
:1006C00008F078FF02A99B4808F074FFFF209D49BD
:1006D000087048708870974808F06CFF9548FFF7DD
:1006E0001BFF08B070BDF7B584B005460E46FF2766
:1006F00091A103C9CDE9020191A0006801908BA0EE
:1007000000680090002408E000208E4908558E49BA
:10071000085588490855601CC4B20A2CF4DB0A202D
:1007200084490870FF2048708870C87080A186488E
:10073000069A09F033FB8449684608F03BFF694696
:100740007C4808F037FF02A97A4808F033FF2946B1
:10075000784808F02FFF3146764808F02BFF01A9B2
:10076000744808F027FFFF207649087048708870A9
:100770000020C87008716F4808F01CFF6D48FFF733
:10078000CBFE07B0F0BD01B58EB070A2322101A83A
:100790000E9B09F0EBFA01A8FFF7BEFE0FB000BDFB
:1007A00073B584B00546FF2663A103C9CDE90201F4
:1007B00063A0006801905DA00068009000240AE03A
:1007C000002060490855604908555A490855544960
:1007D0000855601CC4B21E2CF2DB0A205549087073
:1007E000FF2048708870C87051A15748059A09F0D9
:1007F000D5FA5549684608F0DDFE69464D4808F0CF
:10080000D9FE02A94B4808F0D5FE2946494808F010
:10081000D1FE4D49474808F0CDFE01A9454808F0F2
:10082000C9FEFF204749087048708870414808F0A9
:10083000C1FE4048FFF770FE06B070BD1CB54648CB
:100840000078454949780844434989780844424931
:10085000C97808444049097908443F49497908441E
:100860003D49897908443C49C97908443A49097A9B
:100870000844C0B201903848007A00F00F000090A0
:100880009DF800000D2803D00021344806F01CFF1D
:100890001CBD3148007A00F00F000D2806D12E480B
:1008A000007800F0010008B10D2070470020FCE73F
:1008B0002948007800F0020008B1012070470020AC
:1008C000FCE730B52DED048B83B0254806F0CEF85B
:1008D0002449096840EA0145284609F020F841EC1E
:1008E000190B9FED210B53EC102B08F0A9FF41ECE5
:1008F000180B09F025F8019000244DE0184806F087
:10090000B5F81849096840EA0145284609F007F892
:1009100041EC190B9FED140B53EC102B28E0000059
:100920006A050020B86002400050004074000000DA
:1009300025640000340400202E7478743D220000E9
:10094000220000001A050020F20400206A302E76F2
:10095000616C3D25640000004C060020004800400A
:10096000000C0040700000200000000000802140CA
:1009700008F066FF41EC180B08F0E2FF0290DDE999
:100980000121881A002801DB014600E041420529C7
:1009900000DA641C02980190022CAFDB02984042FE
:1009A00003B0BDEC048B30BD30B52DED048B83B0AE
:1009B0004FF0804006F05AF8FE49096840EA0145C8
:1009C000284608F0ACFF41EC190B1FED190B53EC56
:1009D000102B08F035FF41EC180B08F0B1FF019027
:1009E000002424E04FF0804006F040F8F149096807
:1009F00040EA0145284608F092FF41EC190B1FED33
:100A0000260B53EC102B08F01BFF41EC180B08F0E1
:100A100097FF0290DDE90121881A002801DB0146D9
:100A200000E04142052900DA641C02980190022C82
:100A3000D8DB0298404203B0BDEC048B30BD30B52A
:100A40002DED048B83B0DC4806F010F8DB49096813
:100A500040EA0145284608F062FF41EC190B1FED02
:100A60003E0B53EC102B08F0EBFE41EC180B08F09A
:100A700067FF0190002423E0CF4805F0F7FFCF493E
:100A8000096840EA0145284608F049FF41EC190B86
:100A90001FED4B0B53EC102B08F0D2FE41EC180B62
:100AA00008F04EFF0290DDE90121881A002801DBE1
:100AB000014600E04142052900DA641C02980190D9
:100AC000022CD9DB0298404203B0BDEC048B30BD50
:100AD00030B52DED048B83B0B94805F0C7FFB94997
:100AE000096840EA0145284608F019FF41EC190B56
:100AF0001FED630B53EC102B08F0A2FE41EC180B1A
:100B000008F01EFF0190002423E0AD4805F0AEFF81
:100B1000AC49096840EA0145284608F000FF41EC6D
:100B2000190B1FED6F0B53EC102B08F089FE41ECF5
:100B3000180B08F005FF0290DDE90121881A002852
:100B400001DB014600E04142052900DA641C0298FD
:100B50000190022CD9DB0298404203B0BDEC048B1B
:100B600030BD30B52DED048B83B0974805F07EFF86
:100B70009649096840EA0145284608F0D0FE41EC54
:100B8000190B9FED930B53EC102B08F059FE41EC21
:100B9000180B08F0D5FE0190002423E08A4805F0E8
:100BA00065FF8A49096840EA0145284608F0B7FE12
:100BB00041EC190B9FED860B53EC102B08F040FE17
:100BC00041EC180B08F0BCFE0290DDE90121881A07
:100BD000002801DB014600E04142322900DA641CB2
:100BE00002980190022CD9DB029803B0BDEC048B73
:100BF00030BD01B581B000200090019800EBC0002D
:100C00004000009002E00098401E009000980028EC
:100C1000F9D10CBD01B581B00020009044F25061C3
:100C200001984843009002E00098401E0090009810
:100C30000028F9D10CBD1CB501211F2005F04AF890
:100C40004FF6FF70009001208DF8040000208DF811
:100C5000060001208DF8070003208DF80500694685
:100C60005D4804F0F1FD4FF6FF70009001208DF813
:100C7000040000208DF8060001208DF807000320F5
:100C80008DF805006946554804F0DEFD4FF6FF700B
:100C9000009001208DF8040000208DF8060001204E
:100CA0008DF8070003208DF8050069464C4804F0D4
:100CB000CBFD1CBD1CB501217E2005F00BF8C0202A
:100CC000009000208DF8040001208DF8070002201C
:100CD0008DF805006946434804F0B6FD06200090F3
:100CE00000208DF8040001208DF8070002208DF807
:100CF00005006946384804F0A7FD04200090002054
:100D00008DF8040001208DF8070002208DF8050001
:100D10006946324804F098FD1CBD1FB54FF4E060F1
:100D200004F0B4FC36208DF8000000208DF801009E
:100D30008DF8020001208DF80300684604F0ABFC3A
:100D40000121102004F0F9FF3220ADF8040040F238
:100D5000E73002900020ADF80C00ADF8060001A9C4
:100D6000214805F036FE01211F4806F0FBFA01225A
:100D700011461D4806F0CEFA00211B4805F072FE10
:100D80000121194805F0AEFE1FBD1FB54FF4E0600C
:100D900004F07CFC37208DF8000000208DF8010065
:100DA0008DF8020001208DF80300684604F073FC02
:100DB00001211BE0680000200008004080000020A6
:100DC000000400406C00002000000140640000208E
:100DD0006666666666A64E40000402400008024051
:100DE000000C02400000024000100040202004F0EF
:100DF000A4FF3220ADF8040040F2E730029000205A
:100E0000ADF80C00ADF8060001A9FE4805F0E1FDC3
:100E10000121FC4806F0A6FA01221146F94806F025
:100E200079FA0021F74805F01DFE0121F54805F08B
:100E300059FE1FBD00B58BB00121022004F08EFFCA
:100E400001210C2004F046FF03220621EE4804F0A5
:100E500086FD03220721EC4804F081FD03220821CE
:100E6000E94804F07CFD03220921E74804F077FDFE
:100E70004FF47070069002208DF81C0003208DF84E
:100E80001D0000208DF81E0001208DF81F0006A90E
:100E9000DD4804F0D9FCA420ADF8200040F6B830BD
:100EA00009904FF48070ADF828000020ADF82200C2
:100EB00008A9D64805F08DFD6020ADF8040001209A
:100EC000ADF8060000200390ADF810000121CF48D6
:100ED00005F008FE0021CD4805F0C4FD01A9CB486E
:100EE00005F00CFE01A9C94805F041FE01A9C7485B
:100EF00005F08AFE01A9C54805F0ECFE0121C348B2
:100F000006F0E1F90BB000BD00B58BB0012108205F
:100F100004F013FF0121084604F0DCFE0222002148
:100F2000BB4804F01CFD02220121B94804F017FD62
:100F300002221146B64804F012FD02220321B448F1
:100F400004F00DFD0F20069002208DF81C000320F8
:100F50008DF81D0000208DF81E0001208DF81F0067
:100F600006A9AB4804F070FCBA20ADF8200042F2AC
:100F7000107009900020ADF82800ADF8220008A9F3
:100F8000A44805F026FD6020ADF804000120ADF86E
:100F9000060000200390ADF8100001219D4805F0E7
:100FA000A1FD00219B4805F05DFD01A9994805F0D0
:100FB000A5FD01A9974805F0DAFD01A9954805F0BE
:100FC00023FE01A9934805F085FE0121914806F012
:100FD0007AF90BB000BD00B58BB00121042004F0FC
:100FE000ACFE01210D2004F075FE02220C218A487E
:100FF00004F0B5FC02220D21874804F0B0FC022267
:101000000E21854804F0ABFC02220F21824804F037
:10101000A6FC4FF47040069002208DF81C000320BF
:101020008DF81D0000208DF81E0001208DF81F0096
:1010300006A9794804F008FCA420ADF8200040F689
:10104000B83009904FF48070ADF828000020ADF85A
:10105000220008A9714805F0BCFC6020ADF804002E
:101060000120ADF8060000200390ADF8100001212A
:101070006A4805F037FD0021684805F0F3FC01A936
:10108000664805F03BFD01A9644805F070FD01A923
:10109000624805F0B9FD01A9604805F01BFE0BB0E0
:1010A00000BD00B589B00121080404F057FE0121FC
:1010B000084604F00FFE03221146554804F04FFC89
:1010C00003220221524804F04AFC0C200190022025
:1010D0008DF8080003208DF8090000208DF80A0023
:1010E00001208DF80B0001A9494804F0ADFB002058
:1010F000ADF818004FF6FF7007900020ADF8200003
:10110000ADF81A0006A9464805F063FC0420ADF8C6
:101110000C000020ADF80E00C820ADF8140001202E
:10112000ADF8100003A93E4806F02AF800231A463D
:1011300003213C4806F0C1F901213A4806F012F9B2
:1011400001221146374806F0E5F80121344805F040
:10115000C9FC0021334805F085FC09B000BD00B58D
:1011600089B00121084604F0E8FD0121022004F0C5
:10117000E4FD0121032004F0ADFD01220F212448EC
:1011800004F0EDFB01220321274804F0E8FB0222D2
:101190000421254804F0E3FB02220521224804F043
:1011A000DEFB3820019002208DF8080003208DF826
:1011B000090000208DF80A0001208DF80B0001A91C
:1011C000194804F041FB4FF40040019002208DF8D3
:1011D000080003208DF8090000208DF80A00012086
:1011E0008DF80B0001A90A4804F02EFB0020ADF891
:1011F00018004FF6FF7007900020ADF82000ADF802
:101200001A0013E0001400400008024000040140EE
:1012100000000240000C0040000C024000080040AA
:1012200000000140004001400004024006A94FF0C8
:10123000804005F0CEFB06A9FE4805F0CAFB04205D
:10124000ADF80C000220ADF80E001420ADF814002B
:101250000120ADF8100003A9800705F091FF03A954
:10126000F44805F08DFF02231A460321580706F0C3
:1012700024F902231A460321EE4806F01EF9012143
:10128000880706F06FF80121EA4806F06BF80122A2
:101290001146900706F03EF801221146E54806F097
:1012A00039F80121880705F01DFC0121E14805F00E
:1012B00019FC00214FF0804005F0D4FB0021DD48EF
:1012C00005F0D0FB4FF4C06004F0E0F91D208DF86C
:1012D000000003208DF8010000208DF8020001209D
:1012E0008DF80300684604F0D6F91C208DF8000044
:1012F00004208DF8010000208DF8020001208DF8F7
:101300000300684604F0C7F909B000BD00B589B014
:101310000121084604F022FD0121102004F0DAFC2E
:101320004FF42060019002208DF8080003208DF812
:10133000090000208DF80A0001208DF80B0001A99A
:10134000BD4804F081FA01220921BB4804F007FBE3
:1013500001220B21B84804F002FB0020ADF8180070
:101360004FF6FF7007900020ADF82000ADF81A008E
:1013700006A9B24805F02DFB0420ADF80C000020B2
:10138000ADF80E000A20ADF814000120ADF81000F1
:1013900003A9AA4805F0F4FE00231A460321A74832
:1013A00006F08BF80121A54805F0DCFF012211466B
:1013B000A24805F0AFFF0121A04805F0D3FF0122AC
:1013C00011469E4805F0A6FF01219C4805F08AFBC6
:1013D00000219A4805F046FB4FF4C06004F056F92E
:1013E00019208DF8000001208DF8010000208DF8F3
:1013F000020001208DF80300684604F04CF909B0A2
:1014000000BD00B589B00121042004F096FC012143
:10141000082004F05FFC4FF44050019002208DF84A
:10142000080003208DF8090000208DF80A00012033
:101430008DF80B0001A9824804F006FA0020ADF8EF
:1014400018004FF6FF7007900020ADF82000ADF8AF
:101450001A0006A97B4805F0BCFA02220C21784844
:1014600004F07DFA02220D21754804F078FA042078
:10147000ADF80C000220ADF80E00C820ADF8140045
:101480000120ADF8100003A96E4805F079FE022393
:101490001A4603216B4806F010F80121694805F04F
:1014A00061FF01221146674805F034FF01216548BC
:1014B00005F018FB0021634805F0D4FA00206149CB
:1014C0001431088001205F4908804FF4C06004F0A7
:1014D000DDF81E208DF8000004208DF801000020AA
:1014E0008DF8020001208DF80300684604F0D3F85F
:1014F00009B000BD00B589B00121082004F01DFC31
:101500000121084604F0E6FB0320019002208DF83B
:10151000080003208DF8090000208DF80A00012042
:101520008DF80B0001A9484804F08EF90020ADF8B1
:1015300018004FF6FF7007900020ADF82000ADF8BE
:101540001A0006A9414805F044FA022200213E484B
:1015500004F005FA022201213B4804F000FA0420BD
:10156000ADF80C000220ADF80E00C820ADF8140054
:101570000120ADF8100003A9344805F001FE022354
:101580001A460321314805F098FF01212F4805F044
:10159000E9FE012211462D4805F0BCFE01212B4831
:1015A00005F0A0FA0021294805F05CFA002027493F
:1015B000143108800120254908804FF4C06004F0F0
:1015C00065F832208DF8000004208DF8010000201D
:1015D0008DF8020001208DF80300684604F05BF8E6
:1015E00009B000BD00B59BB00121194804F072FBA1
:1015F0000121080204F0B2FB00200290154803907C
:1016000015480490002005900820069000200790BF
:101610004FF4806008904000099080000A904011CB
:101620000B9040020C9000200D9001200E900020A5
:101630000F9013E000040040001002400000014041
:10164000000C02400008004000000240000C004076
:10165000050040004C20014000060020109002A927
:10166000FE4804F049FF0121FC4804F07FFF3C20C4
:10167000009003208DF8040000208DF807006946D3
:10168000F74804F0E1F83C20009003208DF80400B6
:1016900000208DF807006946F24804F0D5F80020D4
:1016A000119012901390149011A804F08BFC4FF03D
:1016B0008070159001208DF858008DF85900002099
:1016C00017901890199008208DF8680015A9E64821
:1016D00004F049FC002301220221E34804F0C9FC84
:1016E000002302220321E04804F0C3FC002303226C
:1016F0000421DD4804F0BDFC002304220521DA4862
:1017000004F0B7FC002305220C21D74804F0B1FCFB
:10171000002306220D21D44804F0ABFC002307224D
:101720000E21D14804F0A5FC002308220F21CE4849
:1017300004F09FFC0121CC4804F046FD0121CA4879
:1017400004F037FD0121C84804F053FCC64804F0FA
:10175000ECFC1BB000BD08B54FF4E06003F096FF51
:1017600025208DF8000000208DF801008DF8020082
:1017700001208DF80300684603F08DFF08BD10B509
:1017800096B004460121102004F0E8FA0121084631
:1017900004F0A0FA0121880504F09CFA4FF4C0601F
:1017A000009002208DF8040000208DF806008DF8CE
:1017B000070002208DF805006946A94804F044F8A6
:1017C00007220921A64804F0CAF807220A21A448E2
:1017D00004F0C5F802940020ADF80C00ADF80E003E
:1017E000ADF81000ADF814000C20ADF8120002A9FD
:1017F0009E4805F0E1FE01219C4805F065FF4FF48D
:10180000A06003F043FF3A208DF8180000208DF807
:1018100019008DF81A0001208DF81B0006A803F0AE
:101820003AFF8E48303004F0C5FD4FF0006007905D
:1018300000200A908E4809900A200B908B48001DCA
:10184000089000200C904FF480600D9000200E90C6
:101850000F904FF48070109040021190042012906D
:101860000320139000201490159007A97B48303076
:1018700004F042FE012240217C4805F0D2FF012203
:1018800010217648303004F0FEFE012173483030DC
:1018900004F06CFE16B010BD10B596B004460121E0
:1018A000480504F017FA0121480404F046FA012122
:1018B000082004F00FFA6020009002208DF8040048
:1018C00000208DF806008DF8070002208DF8050035
:1018D0006946684803F0B8FF07220521654804F00F
:1018E0003EF807220621634804F039F802940020EC
:1018F000ADF80C00ADF80E00ADF81000ADF8140016
:101900000C20ADF8120002A95B4805F055FE01213C
:10191000594805F0D9FE4FF4A06003F0B7FE11203E
:101920008DF8180000208DF819008DF81A0001209C
:101930008DF81B0006A803F0AEFE504804F03AFDF7
:101940004FF00060079040200A904D4809904620D3
:101950000B904948001D089000200C904FF48060C7
:101960000D9000200E900F904FF480701090400268
:1019700011900420129003201390002014901590D1
:1019800007A93E4804F0B8FD012280213A4805F03D
:1019900048FF01228021384805F043FF0122102131
:1019A000364804F070FE0121344804F0DFFD16B023
:1019B00010BD10B596B004460121880404F0BDF9AD
:1019C0000121082004F086F90121480504F082F97C
:1019D0004FF44070009002208DF8040000208DF834
:1019E00006008DF8070002208DF8050069462148A1
:1019F00003F02AFF072208211E4803F0B0FF072248
:101A000009211C4803F0ABFF02940020ADF80C0044
:101A1000ADF80E00ADF81000ADF814000C20ADF8D4
:101A2000120002A9174805F0C7FD0121154805F06D
:101A30004BFE4FF4A06003F029FE0C208DF8180037
:101A400000208DF819008DF81A0001208DF81B0078
:101A500006A803F020FE0948783815E0106402401B
:101A60000000024000080240002001400010014038
:101A700010060020000C024000440040A06002401C
:101A8000040000200048004004F094FC4FF0006087
:101A9000079000200A90FE4809900A200B90FD480C
:101AA000089000200C904FF480600D9000200E9064
:101AB0000F904FF48070109040021190042012900B
:101AC0000320139000201490159007A9F24804F009
:101AD00013FD01224021EF48001F05F0A2FE012264
:101AE0004021EC48001F05F09CFE01221021EA482D
:101AF00004F0C9FD0121E84804F038FD16B010BD1E
:101B000010B596B004460121C80404F016F901216D
:101B1000084604F0DFF80121480504F0DBF8032053
:101B2000009002208DF8040000208DF806008DF84A
:101B3000070002208DF805006946D84803F084FEAE
:101B400008220021D54803F00AFF08220121D348CA
:101B500003F005FF02940020ADF80C00ADF80E0074
:101B6000ADF81000ADF814000C20ADF8120002A979
:101B7000CB4805F021FD0121C94805F0A5FD4FF432
:101B8000A06003F083FD0D208DF8180000208DF873
:101B900019008DF81A0001208DF81B0006A803F02B
:101BA0007AFDBD48183004F005FC4FF00060079046
:101BB00000200A90BB48099008200B90B848001DEF
:101BC000089000200C904FF480600D9000200E9043
:101BD0000F904FF4807010904002119004201290EA
:101BE0000320139000201490159007A9AA481830DC
:101BF00004F082FC01224021A94805F012FE0122D6
:101C00004021A74805F00DFE01221021A2481830FE
:101C100004F039FD0121A048183004F0A7FC16B0EB
:101C200010BD10B596B004460121480504F052F8E5
:101C30000121080504F081F801210C2004F04AF884
:101C40000420009002208DF8040000208DF806008A
:101C50008DF8070002208DF805006946924803F0D0
:101C6000F3FD4FF48050009002208DF80400002016
:101C70008DF806008DF8070002208DF805006946F2
:101C80008A4803F0E1FD08220221874803F067FE3D
:101C900008220C21854803F062FE4FF4A06003F097
:101CA000F5FC2F208DF8180005208DF819008DF80F
:101CB0001A0001208DF81B0006A803F0ECFC02942A
:101CC0000020ADF80C00ADF80E00ADF81000ADF836
:101CD00014000C20ADF8120002A9754805F06CFC48
:101CE0000121734805F0F0FC6B48903004F062FB72
:101CF0004FF00060079040200A906E4809909620AF
:101D00000B906B48001D089000200C904FF48060F1
:101D10000D9000200E900F9010904FF40030119015
:101D2000002012900320139000201490159007A912
:101D30005948903004F0E0FB012280215C4805F016
:101D400070FD012210215448903004F09CFC0121C8
:101D50005148903004F00AFC16B010BD10B596B092
:101D600004460121202003F0F9FF0121042003F0A3
:101D7000B1FF0121880503F0ADFFC02000900220D3
:101D80008DF8040000208DF806008DF80700022071
:101D90008DF805006946454803F056FD08220621E6
:101DA000424803F0DCFD08220721404803F0D7FD3C
:101DB00002940020ADF80C00ADF80E00ADF8100054
:101DC000ADF814000C20ADF8120002A93A4805F055
:101DD000F3FB0121384805F077FC4FF4A06003F0D5
:101DE00055FC39208DF8180003208DF819000120CA
:101DF0008DF81A008DF81B0006A803F04CFC2F4844
:101E000004F0D8FA4FF02060079000200A902C4888
:101E1000099010200B902848001D089000200C907D
:101E20004FF480600D9000200E900F904FF4807062
:101E30001090400211900420129003201390002073
:101E40001490159007A91D4804F056FB012240216B
:101E5000194805F0E6FC01221021184804F013FC93
:101E60000121164804F082FB16B010BD0EB500200B
:101E70000290019000901248007802284AD1104840
:101E8000407801900E48C0780D4989781AE000002A
:101E90004C06002004480040286002400000024038
:101EA000004C00401F060020000C024000080240C9
:101EB000005000406A0500200014014028640240E0
:101EC0005B06002040EA01200090FE490978FD4AA7
:101ED00052781144FB4A92781144FA4AD278881811
:101EE000C11700EB11610912A0EB0121C9B20291E7
:101EF000F44800799DF8081088420BD1F1484079E8
:101F0000032807D19DF80400EF490870BDF80000D0
:101F1000EE4908800EBD00B585B00121082003F010
:101F2000D9FE0121880303F019FF00208DF810006D
:101F300001208DF813000C20039003A9E44803F05E
:101F400083FC0221032005F005FD04200090002001
:101F50008DF8040010208DF8050001208DF8060092
:101F6000684604F009FC08208DF8080000208DF870
:101F700009008DF80A0001208DF80B0002A803F07B
:101F80008AFB05B000BD70B504460D46012C0BD18F
:101F90002946D04805F0C3FB00BF4021CD4805F0DD
:101FA0006EFC0028F9D028E0032C0BD12946CA4842
:101FB00005F0B5FB00BF4021C74805F060FC0028D4
:101FC000F9D01AE0042C0BD12946C44805F0A7FB30
:101FD00000BF4021C14805F052FC0028F9D00CE0B8
:101FE000052C0AD12946BE4805F099FB00BF4021C7
:101FF000BB4805F044FC0028F9D070BD0020B94969
:102000004862B9490860B9490860B9490860704731
:102010000020B4494862B44908604FF080414862EA
:10202000B4490860B4490860B4490860AF49086021
:10203000AF490860B2490860B249086070470020A3
:102040004FF080414862AB49086070470020AA49C0
:102050000860AA490860704710B50020AA490870B6
:10206000002407E061210120FFF78DFF3220FEF7F9
:10207000D1FD641C022CF5D30120A34908707A20FD
:10208000A249087010BD10B50020A14908700024B5
:1020900007E061210320FFF776FF3220FEF7BAFD4B
:1020A000641C022CF5D30120994908707A209949C3
:1020B000087010BD2DE9F14FAEB097A02D90002013
:1020C0002C908DF888008DF860002E98122831D25F
:1020D000DFE800F009313A41484F565F68717A8174
:1020E000888F969DA4F60221944803F00FFC88B1D6
:1020F00000224FF40041924803F026FC4FF40041C7
:102100008F4803F010FC0446002221468DA0FEF704
:1021100097FA0FE00122D103894803F015FC4FF430
:102120000041874803F0FFFB0446002221468DA0B2
:10213000FEF786FA40E201229248B0F900004142DF
:1021400091A0FEF77DFA37E202229148016891A042
:10215000FEF776FA30E203229148016891A0FEF77B
:102160006FFA29E204229348016893A0FEF768FA07
:1021700022E205229348016893A0FEF761FA1BE270
:10218000FEF79FFB04460622214693A0FEF758FA6D
:1021900012E2FEF709FC04460722214691A0FEF751
:1021A0004FFA09E2FEF74BFC04460822214690A0B4
:1021B000FEF746FA00E2FEF78BFC044609222146B0
:1021C0008EA0FEF73DFAF7E10A228F4801688FA042
:1021D000FEF736FAF0E10B229048016890A0FEF776
:1021E0002FFAE9E10C229248016892A0FEF728FA42
:1021F000E2E10D223448017891A0FEF721FADBE1FB
:102200000E223248018891A0FEF71AFAD4E10F227B
:102210009048016890A0FEF713FACDE101219248A1
:1022200003F074FB4FF400511790454803F06EFB28
:10223000044602218C4803F069FB05464FF48041B7
:102240003F4803F063FB06460421874803F05EFB2A
:102250004FF400411690844803F058FB07460821CC
:10226000814803F053FB80464FF480417E4803F0E1
:102270004DFB814610217C4803F048FB4FF4005190
:102280001590794803F042FB82460821104803F07C
:102290003DFB4FF480511490734803F037FB10213D
:1022A00013900B4803F032FB4FF4806112906E489C
:1022B00003F02CFB834680216B4803F027FBD5E01D
:1022C000FDE000005B0600205F01002060010020AF
:1022D000000C02400010014000480040004C00404B
:1022E000005000400000014064000020240800402D
:1022F0008000002068000020240400406C000020C2
:10230000240C00407000002089000020880000207C
:102310008B0000208A0000203131313131313131E0
:10232000313131313131313131313131313130319E
:1023300031313131313131310000000000040240CF
:1023400000080240524F424F5420322044414E4731
:1023500020434841592053414E2058414E483A208D
:1023600020200000524F424F5420322044414E471B
:1023700020434841592053414E20444F3A202020C9
:102380000000000084000020494D553A0000000084
:10239000A800002042545F4E414E475F48413A003A
:1023A000AC00002042545F4D414D5F584F415920D1
:1023B0003A000000000300204C75632042616E3A31
:1023C00020000000940000204769615F7472695F1B
:1023D0006C617A6572200000454E434F4445525F60
:1023E000464C2000454E434F4445525F4652200024
:1023F000454E434F4445525F524C2000454E434F9B
:102400004445525F52522000A400002042545F4EC7
:10241000414E475F4E4F4E473A000000F402002005
:1024200046696E616C5F666F726365203A000000FA
:10243000FC020020666F7263655F4C3A000000008A
:102440004F6666736574203A000000004469737437
:10245000633A000004030020466F7263655F747284
:1024600061636B3A00000000001002404FF480717D
:102470001190F84803F04AFA10901798CDE90B65CF
:10248000CDE90D401698CDE90798CDE90970DDE951
:1024900013121598CDE9042A03910690DDE9110184
:1024A000CDE901B10090ECA2282122A8109B07F0F1
:1024B0005DFC102222A9F1A0FEF715F97CE0802135
:1024C000EF4803F030FA04460121ED4803F02BFAFF
:1024D00005464021EA4803F026FA06464FF400413B
:1024E000E84803F020FA07464FF48051E64803F02D
:1024F0001AFA80464FF48061E14803F014FA8146ED
:102500004FF40061E04803F00EFA4FF400611790B9
:10251000DB4803F008FA82464FF48061D94803F0A3
:1025200002FA83464FF48051D54803F0FCF94FF48A
:1025300000611690D34803F0F6F94FF4005115905E
:10254000CF4803F0F0F94FF480411490CD4803F0E8
:10255000EAF94FF480411390C94803F0E4F94FF4CD
:1025600080711290C84803F0DEF94FF400411190D9
:10257000C34803F0D8F9CDE90B76CDE90D5410909E
:102580001798CDE907A0CDE9099814A807C803ABAF
:10259000A3E80708DDE911121398CDE900120290B3
:1025A000ADA2282122A8109B07F0E0FB112222A94E
:1025B000B6A0FEF798F800BF00BF2FB0BDE8F08FBF
:1025C00010B50121B34803F0D1FF10BD01B5B248E9
:1025D00000680099884203DD0020AF49086004E0EC
:1025E000AD480068401CAC490860AB480068FFF784
:1025F00061FD08BD10B5FEF722FAA8490860FEF794
:1026000067FAA7490860FEF75CF9A6490860FEF77B
:10261000CBF9A549086010BD2DE9F0412DED088BDF
:1026200006460F46304607F07AF941EC190B9FED4C
:102630009F1BB0EE490AF0EE690A07F09BFEB0EE70
:10264000408AF0EE608A51EC180B07F079F90446E5
:10265000002C02DBA4F5E16401E004F5E1643846F6
:1026600007F05DF941EC1B0B9FED901BB0EE4B0AA0
:10267000F0EE6B0A07F07EFEB0EE409AF0EE609A44
:10268000304607F04CF941EC1B0B9FED881BB0EE78
:102690004B0AF0EE6B0A07F06DFEB0EE40AAF0EECA
:1026A00060AA53EC192B51EC1A0B07F051F841ECCE
:1026B000180B07F045F905462846211E01DB0A469E
:1026C00000E04A42002801DB034600E043429A4210
:1026D00005DA25464FF0FF307649086003E03546BD
:1026E0000120744908602846BDEC088BBDE8F081E4
:1026F0000146FA2901DDFA2102E0032900DA02216C
:10270000C8B2704730B505460C4625B96A4800780E
:102710006A49C87716E06A4890ED000AB5EEC00A2B
:10272000F1EE10FA07DD2846FFF7E2FF6349C877AC
:102730000120887706E06842FFF7DAFF5F49C87733
:102740000020887724B95C4800785C49C87516E099
:102750005C4890ED000AB5EEC00AF1EE10FA07DD14
:102760002046FFF7C5FF5549C8750020887506E06B
:102770006042FFF7BDFF5149C8750120887522B935
:102780004D4800784D49C87116E04F4890ED000A59
:10279000B5EEC00AF1EE10FA07DD1046FFF7A8FF0C
:1027A0004649C8710020887106E05042FFF7A0FF3B
:1027B0004249C8710120887123B93F4800783F49D8
:1027C000C87316E0414890ED000AB5EEC00AF1EE7C
:1027D00010FA07DD1846FFF78BFF3849C873002051
:1027E000887306E05842FFF783FF3449C87301201D
:1027F000887330BD10B5364C2060364C2160364CA5
:102800002260364C236010BD2C4AD077D075D07131
:10281000D07370472948C07F03280DDA2748C07D50
:10282000032809DA2548C079032805DA2348C07B44
:10283000032801DA012070470020FCE70120284925
:10284000086070472748006847F2305188424BD0F3
:10285000012070470010024025642564256425642A
:102860002564256425642564256425642564256420
:10287000256425642564256400000000493A0000B1
:1028800000040240000C0240000002404F55543A40
:1028900000000000A06002407C00002050030020E7
:1028A00054030020580300205C03002000000000B7
:1028B0000020AC4054020020A801002004000020A9
:1028C00014020020180200201C0200202002002018
:1028D0003C02002040020020340200203802002088
:1028E00090020020D40100200020704710B5FFF7AF
:1028F000B3FB10BDFE48B0F9000040427047B5EE92
:10290000C00AF1EE10FA09D2FA48D0ED000A70EED2
:10291000600AFDEEE00A10EE900A7047F548D0ED2F
:10292000000A70EE200AFDEEE00A10EE900AF4E7CD
:1029300010B52DED0A8B044624B99FEDEF0ABDECCE
:102940000A8B10BD002C25DAEC48006806F0E7FF82
:1029500041EC190B204606F0E2FF41EC1C0B9FED09
:10296000E80B53EC102B06F0F9FE41EC1B0B9FED2E
:10297000E40B53EC102B06F0EBFE41EC1A0B53EC7E
:10298000192B06F05DFF41EC180B07F023F800EE61
:10299000100AD4E7D948006806F0C1FF41EC190BD2
:1029A000204606F0BCFF41EC1C0B9FEDD50B53EC11
:1029B000102B06F0D3FE41EC1B0B9FEDD10B53EC1B
:1029C000102B06F024FE41EC1A0B53EC192B06F0E9
:1029D00037FF41EC180B06F0FDFF00EE100AAEE7E2
:1029E000F0EE400AF5EEC00AF1EE10FA02DBB0EEAE
:1029F000600A7047B1EE600AFBE70146002901DB7F
:102A0000084670474842FCE70146BF48D0ED000A3F
:102A1000F1EE600ABD48D0ED001A80EEA11A00EE7A
:102A2000901AF8EEE01AB848D0ED000A41EE210AFB
:102A3000B0EE600AFDEEC00A10EE900A7047B0EEEC
:102A4000402ADFEDB32AB0EE620AB5EEC02AF1EEFD
:102A500010FA03D2F1EE422AB0EE622AF5EEC00A75
:102A6000F1EE10FA03D2F1EE602AF0EE620AB5EE52
:102A7000C01AF1EE10FA03D2F1EE412AB0EE621A5A
:102A8000F5EEC01AF1EE10FA03D2F1EE612AF0EE83
:102A9000621AB4EEC02AF1EE10FA01DDB0EE420A7D
:102AA000F4EEC00AF1EE10FA01DDB0EE600AB4EE09
:102AB000C01AF1EE10FA01DDB0EE410AF4EEC01AD0
:102AC000F1EE10FA01DDB0EE610A70478B48006844
:102AD000704790480068704710B52DED048BF0EEFC
:102AE000408AB0EE608A8C48D0ED000A8B4890EDA9
:102AF000000A07F0C1FCB0EE409A08F0F4F8BDEE11
:102B0000C00A10EE104A864880ED008A854880EDA4
:102B1000008AB0EE680A07F0E1FFF0EE000A20EE4E
:102B2000200A814880ED000AB0EE680A07F086FAB4
:102B3000F0EE000A20EE200A7C4880ED000A90EDBD
:102B4000000AF2EE040A20EE200A794880ED000A1D
:102B5000B0EE680A07F0C2FFB0EE409AFFF7CFFE72
:102B600000EE100AB8EEC00A724880ED000A6E4806
:102B700090ED000A6A48D0ED000A30EE600A6E4817
:102B800080ED000A684890ED000A6548D0ED000A23
:102B900030EE200A694880ED000A644890ED000A92
:102BA0006048D0ED000A30EE600A654880ED000A0A
:102BB0005E4890ED000A5B48D0ED000A30EE200A36
:102BC000604880ED000A5E48D0ED000A5B4890ED59
:102BD000000A07F00BF9DFED5C0A20EE200A5B48E3
:102BE000D0ED000A80EE201A594880ED001A5948AD
:102BF0000168574890ED000ABDEEC00A10EE100AB9
:102C0000FFF70AFD00EE100AB8EEC00A504880ED4A
:102C1000000A514890ED000AB8EEC00A4F4880ED16
:102C2000000A4648D0ED000A60EEA00A444890ED44
:102C3000001AD0ED001A41EE210AB0EE600A08F049
:102C400052F84548D0ED000AF8EEE00A20EE200ADE
:102C5000434880ED000A3B48D0ED000A374890ED2C
:102C6000000A07F0C3F8DFED380A20EE200A3748E3
:102C7000D0ED000A80EE201A3A4880ED001A3A485A
:102C80000168384890ED000ABDEEC00A10EE100A47
:102C9000FFF7C2FC00EE100AB8EEC00A314880ED22
:102CA000000A2D4890ED000AB8EEC00A2F4880EDCA
:102CB000000A2248D0ED000A60EEA00A214890EDFB
:102CC000001AD0ED001A41EE210AB0EE600A08F0B9
:102CD0000AF82148D0ED000AF8EEE00A20EE200ABA
:102CE000234880ED000A1748D0ED000A124841E061
:102CF000840000206801002000000000C0010020C6
:102D00009A9999999999B93FA0010020A4010020AE
:102D10006F12833AF00100207C0200208002002024
:102D20007002002074020020580200205C02002083
:102D3000840200208802002060020020640200203B
:102D4000680200206C0200200000E144B401002071
:102D5000280200205C0300205402002018020020FA
:102D60000802002024020020580300201402002042
:102D70000402002090ED000A07F038F85FED0E0A1B
:102D800020EE200AFC48D0ED000A80EE201AFB4815
:102D900080ED001AFA480168F84890ED000ABDEE8F
:102DA000C00A10EE100AFFF737FC00EE100AB8EE6A
:102DB000C00AF24880ED000AF24890ED000AB8EE31
:102DC000C00AF14880ED000AF048D0ED000A60EE3C
:102DD000A00AEF4890ED001AD0ED001A41EE210A4A
:102DE000B0EE600A07F07FFFE648D0ED000AF8EE8B
:102DF000E00A20EE200AE74880ED000AE648D0ED20
:102E0000000AE24890ED000A06F0F0FF5FED320A9A
:102E100020EE200AD848D0ED000A80EE201ADF48C4
:102E200080ED001ADE480168DC4890ED000ABDEE36
:102E3000C00A10EE100AFFF7EFFB00EE100AB8EE22
:102E4000C00AD64880ED000ACE4890ED000AB8EEE0
:102E5000C00AD44880ED000ACC48D0ED000A60EEEC
:102E6000A00ACD4890ED001AD0ED001A41EE210ADB
:102E7000B0EE600A07F037FFC248D0ED000AF8EE66
:102E8000E00A20EE200AC84880ED000ABDEC048B61
:102E900010BD10B52DED028BB0EE408AC34800681E
:102EA00047F2305188421BD19FEDC10A28EE000A3B
:102EB000C04880ED000AD0ED000A1FED710AFFF74F
:102EC0000BFE1FED730AB84880ED000AB14880ED93
:102ED000000AB94880ED000AB84880ED000A21E0F8
:102EE000B7480068B7490968401AB0490968081A24
:102EF00000EE100AB8EEC00AB348D0ED000A20EE8A
:102F0000200AB248D0ED000AC0EE208AB04890ED09
:102F1000000AA84880ED000AD0ED000AB0EE680A69
:102F2000FFF7DAFDB5EEC08AF1EE10FA75D0A948C8
:102F30000068052870D2DFE800F00371879DB300B8
:102F4000A54890ED000AFAEE040AB4EEE00AF1EEAC
:102F500010FA08D390ED000AF2EE040AB4EEE00A8B
:102F6000F1EE10FA1CDD954890ED000A30EE080AEB
:102F700080ED000A904890ED000A30EE480A80ED9E
:102F8000000A844890ED000A30EE080A80ED000A3D
:102F9000854890ED000A30EE480A80ED000A3BE0DB
:102FA0008E4890ED000A8E48D0ED000A60EE200AAF
:102FB000824890ED000A00EE880A80ED000A8748FA
:102FC00090ED000A8748D0ED000A60EE200A7A48AA
:102FD00090ED000A00EE880A80ED000A7F4890ED2F
:102FE000000A6948D0ED000A60EE200A694890EDB9
:102FF000000A00EEC80A80ED000A784890ED000A49
:103000006848D0ED000A60EE200A674890ED000A9B
:1030100000EEC80A80ED000A58E058E0664890EDDE
:10302000000A30EE480A80ED000A5A4890ED000A86
:1030300030EE080A80ED000A5B4890ED000A30EEA1
:10304000480A80ED000A41E05C4890ED000A30EE4D
:10305000080A80ED000A4F4890ED000A30EE080A99
:1030600080ED000A504890ED000A30EE480A80EDED
:10307000000A2BE0514890ED000A30EE080A80ED7E
:10308000000A4D4890ED000A30EE480A80ED000A33
:10309000454890ED000A30EE480A80ED000A15E040
:1030A000464890ED000A30EE080A80ED000A4248DA
:1030B00090ED000A30EE480A80ED000A354890EDA8
:1030C000000A30EE080A80ED000A00BF00BF364853
:1030D000D0ED001A2F4890ED001A3748D0ED000AC5
:1030E000364890ED000AFFF7AAFC3F48D0ED000AF1
:1030F000F8EEE00A80EE801ABDEEC10A3B4880ED92
:10310000000A3B48006839490968884203DD3748AE
:10311000006837490860012036490860BDEC028B21
:1031200010BD10B5044600203349087033490860CB
:1031300033480460FCB900202D4908609FED310A36
:10314000314880ED000A47F23050184908602F4995
:1031500008609FED2C0A1E4880ED000A00201D49E2
:1031600008602B4908602B4908602B4908609FEDD7
:10317000250AFFF78EFE10BDB40100202C020020AE
:1031800050030020540200201C0200206002002096
:103190006C0200200C020020680200203002002097
:1031A000540300202002002010020020D40100203F
:1031B0000000E14378020020080200200402002001
:1031C000F8010020E0010020B00100208001002073
:1031D000E8010020BC0100208402002058020020E9
:1031E000140200201802002064010020C801002001
:1031F000C0010020B801002068030020C4010020A5
:10320000CC01002000000000EC010020D8010020CB
:10321000DC010020F00100209002002010B5002009
:10322000FE490870FE4890ED000AB5EEC00AF1EEC6
:1032300010FA05D1FB48006810B9FB48006890B14E
:103240001FED100AF64880ED000A0020F5490860DD
:10325000F5490860F5480068F5490860F04890EDC8
:10326000000AFFF716FE10BDF248C0ED000AF24852
:1032700080ED000A704770B52DED028B05460C46B7
:10328000B0EE408AED480068A8420BD1EC480068D7
:10329000A04207D1EB4890ED000AB4EE480AF1EEE7
:1032A00010FA18D0E6480460E748006810B9052015
:1032B000E5490860DD480068DD490860E14880EDC7
:1032C000008ADE4805600020E0490860D44890ED9F
:1032D000000AFFF7DEFDBDEC028B70BD70B52DED71
:1032E000028B0446B0EE408A0D46CF480068A042EB
:1032F0000BD1CB4890ED000AB4EE480AF1EE10FA7B
:1033000003D1C8480068A84237D0CC48006847F2CB
:103310003051884222D11E20C94908600A20CA497A
:10332000086047F23050844218DA0120C84908602A
:10333000B5EEC08AF1EE10FA03DDBC480068A04289
:1033400008DCB5EEC08AF1EE10FA07D2B748006883
:10335000A04203DAB1EE480AB0EE408AB2480460F7
:10336000B0480560AE4880ED008A0020B74908608B
:10337000AB4890ED000AFFF78CFDBDEC028B70BDF1
:1033800010B52DED028BB0EE408A04462146B0EE1A
:10339000480A47F23050FFF7A1FFBDEC028B10BD89
:1033A00070B504460D461FED690A29462046FFF711
:1033B00062FF70BD10B52DED088BF0EE408A04461B
:1033C000B0EE608AB0EE419AA24890ED000AB8EEE5
:1033D000C00AB4EE680AF1EE10FA0DD19848006800
:1033E000A04209D1904890ED000AB8EEC00AB4EEB0
:1033F000480AF1EE10FA5ED0BDEEE80A954880ED7D
:10340000000A8A4991ED000AB8EEC00A38EEC00AF7
:10341000BDEEC00A10EE100A1FED860A2146FFF726
:103420002AFF8248D0ED000AF8EEE00A78EE600A42
:10343000B0EE600AFFF7D4FADFED870AB4EEE00AD7
:10344000F1EE10FA14DD794890ED000AB8EEC00AEA
:10345000B4EEC08AF1EE10FA02DDB0EE490A01E0E6
:10346000B1EE490A10EE101A084606F088FA13E089
:103470006E4890ED000AB8EEC00A38EE400A10EE31
:10348000101A084606F07BFA41EC1B0B9FED730BFC
:1034900053EC102B06F062F941EC1A0B06F09AFA85
:1034A00009EE900A0021B0EE690AFDEEC80A10EE9E
:1034B000900AFFF713FFBDEC088B10BD10B56448F0
:1034C000006801283DDD58490968584A1268881A81
:1034D000FFF793FA0A280CDA5D4801680068401C7F
:1034E0005B4A1060B1F5FA7F2BDD0020FFF719FE73
:1034F00010BD57480068FA2808DD052050490860CB
:1035000051490860FB205249086004E005204C49FD
:1035100008604D4908604548006843490968884289
:1035200005DDBFEE000A3E4880ED000A04E0B7EE7C
:10353000000A3B4880ED000A394890ED000AFFF789
:10354000A8FC00BFD4E710B52DED028B3D4890EDEF
:10355000000AB5EEC00AF1EE10FA08D13A48006848
:1035600028B13148006847F23051884202DBBDEC97
:10357000028B10BD2A4890ED000AB5EEC00AF1EEAC
:1035800010FA75D02D48006847F23051884270D14A
:10359000234890ED000AB5EEC00AF1EE10FA08DDFE
:1035A000214800682F490968401A20490968884263
:1035B00010DB1B4890ED000AB5EEC00AF1EE10FAE0
:1035C0007DD21948006827490968084417490968E5
:1035D000884274DD1E480068052871DA12490968BE
:1035E000124A1268881AFFF708FA322842DA0E489F
:1035F00000681D49086000201349086010490860F0
:103600009FED1A0A064880ED000A02201049086062
:10361000034890ED000AFFF73CFCA8E76803002090
:10362000E8010020BC010020DC010020F80100209E
:10363000E0010020A0010020A4010020D40100200E
:10364000C4010020EC010020C0010020D0010020B6
:10365000F0010020D801002000004842FCA9F1D26E
:103660004D62403F9C010020F4010020000000005A
:10367000D9E076E0FD480068FD490968884236DDFA
:10368000FC4890ED000AB8EEC00AFB48D0ED000AF5
:1036900060EE200AF94890ED000AB8EEC00AC0EECC
:1036A000801AB0EE611AB0EE410AFFF799F9EF49BE
:1036B0000968EF4A1268881AFFF79FF901E04AE0AB
:1036C000B0E000EE900AB8EEE01AF1EE040A40EE27
:1036D000010AE84890ED000AB8EEC00A80EE801AB0
:1036E000B0EE418AB0EE480AFFF7D3FB9AE0E1481A
:1036F00090ED000AB8EEC00ADF48D0ED000A60EE97
:10370000200ADE4890ED000AB8EEC00AC0EE801A2A
:10371000B0EE611AB0EE410AFFF762F9D3490968C9
:10372000D34A1268881AFFF768F900EE900AB8EEDB
:10373000E01AF1EE040A50EE410ACE4890ED000A7C
:10374000B8EEC00A80EE801AB0EE418AB0EE480AA8
:10375000FFF79FFB66E0C84890ED000AFFF799FB72
:1037600060E0C54890ED000AB5EEC00AF1EE10FA2F
:103770001FDDBE4890ED000AB8EEC00ABD48D0ED8E
:10378000000AF8EEE00ABC4890ED001A00EEC10A0B
:10379000BB48D0ED000AF8EEE00A70EE600AB448CB
:1037A00090ED000AB8EEC00AF4EEC00AF1EE10FA8D
:1037B00027D3B14890ED000AB5EEC00AF1EE10FA39
:1037C0002BD2AA4890ED000AB8EEC00AA948D0ED65
:1037D000000AF8EEE00AA84890ED001A00EEC10ACF
:1037E000A748D0ED000AF8EEE00A70EE200AA048E3
:1037F00090ED000AB8EEC00AF4EEC00AF1EE10FA3D
:103800000BDD9A4909689A4A1268881AFFF790F8FE
:10381000B0EE408AFFF73DFB04E0974890ED000AC8
:10382000FFF737FBA3E697490968914A1268881A9F
:10383000FFF77EF8B0EE408AFFF72BFB00BF96E65D
:1038400000B591480068022815DA1FED780A8F4804
:1038500080ED000A1FED7B0A874880ED000A0020FA
:103860008B49086047F230508A4908608A490860ED
:1038700000207E49086089480068401C874908602C
:1038800087490968884204DA86480068FEF7BCFF69
:103890000EE083480068814908608348006820B1D1
:1038A00080480068FEF7B0FF02E00020FEF7ACFFA2
:1038B00000BD7A4A1268521C784B1A60824207DDBA
:1038C0006C4A12680A446B4B1A600022734B1A60F0
:1038D00070472DE9F041FFF70DF865490860FFF7E3
:1038E000EDFD72480068002821DD624800686F49DC
:1038F000096888422AD05F4800686C490968884294
:103900000EDA5C4800686A49096888421EDA59483C
:103910000068FFF779F804460121FFF7CAFF15E0B8
:103920004FF0FF3163480068FFF7C3FF0EE05148D6
:103930000068002806DD4FF0FF315F480068FFF7A0
:10394000B8FF03E0FFF77CFFBDE8F0815B4800684B
:1039500047490968884205D0FFF7F5FD44480068EB
:103960005649086056480068F0B34248D0ED000A56
:10397000F8EEE00A534890ED001A60EE810AB0EECE
:10398000600AFEF7BCFF04463A48D0ED000AF8EEA4
:10399000E00A4D4890ED001A60EE810AB0EE600A30
:1039A000FEF7ADFF05463348D0ED000AF8EEE00A19
:1039B000464890ED001A60EE810AB0EE600AFEF70C
:1039C0009EFF06462B48D0ED000AF8EEE00A40487C
:1039D00090ED001A60EE810AB0EE600AFEF78FFFEC
:1039E000074623462A4600E020E03146FEF78AFEDD
:1039F000384890ED000ABDEEC00A10EE103A364885
:103A000090ED000ABDEEC00A10EE102A334890ED8A
:103A1000000ABDEEC00A10EE101A314890ED000AFF
:103A2000BDEEC00A10EE100AFEF7E4FE00BF8BE701
:103A300010B52C48007800F08000B0B1322005F0BD
:103A400065F92848007800F0800070B126480068C9
:103A5000401C2549086008460068022801DD002056
:103A6000086000BF1F48007840E043E0DC01002010
:103A7000F8010020C0010020E80100209C01002086
:103A800098010020E0010020F0010020EC0100205E
:103A9000BC010020D4010020D8010020D00100206A
:103AA000AC010020A801002090020020C4010020E9
:103AB000C801002000020020CC010020FC010020F1
:103AC000B8010020100200200C0200200802002093
:103AD00004020020300200202C02002028020020D6
:103AE000240200204C0600202403002000F0800067
:103AF0000028B7D1FE480068012804D14FF40270B5
:103B0000FC49086037E0FA480068022833D1FA49D6
:103B100081F833000120F9490860F9480078F64936
:103B200081F82F0081F82B0081F82700002081F810
:103B3000260081F82A0081F82E0043F6982005F02F
:103B4000E5F80120EC4981F83600FA2081F83700C9
:103B500042F2107005F0DAF80020E74981F82F00F2
:103B600081F82B0081F82700E4490860E24981F8D8
:103B70003700DF49086010BD10B5E248407800F01A
:103B8000010000283CD0DF48007800F080000028C9
:103B900036D10220D84981F833004FF40270D5495C
:103BA00008600120D5490860D7480078D24981F8DB
:103BB0002F0081F82B0081F82700002081F82600D3
:103BC00081F82A0081F82E0043F6982005F09EF82F
:103BD0000120C94981F83600FA2081F8370042F205
:103BE000107005F093F80020C34981F82F0081F888
:103BF0002B0081F82700C1490860BF4981F83700D0
:103C000010BD01B5BF48407800F0100040B19DF8EC
:103C10000000B94981F83300002081F8320011E03A
:103C2000B848407800F0080040B19DF80000B24963
:103C300081F83300012081F8320003E00220AE4910
:103C400081F8330008BDAF48C07990B9AD484078DD
:103C500000F0200068B10020AC4908600120AC49A8
:103C600008600020AB4908604FF46B70AA490860F7
:103C70000FE0AA480068B0F56A7F0ADBA648006832
:103C8000B0F56B7F05D1A148006810B901209B49B0
:103C900008609C48C07970B99A48407800F00400E8
:103CA00048B132209C4908600120984908600020F2
:103CB0009249086010E09748006868B99648006823
:103CC000322809D1954800683C2805DA002090493F
:103CD000086001208F490860704710B540F241200C
:103CE0008449086006E0FCF7E3FD00B10CE0012028
:103CF00005F00CF88A480068B0F5117F04DB8848AD
:103D00000068B0F5147FEEDB00BF40F6B83004F079
:103D1000FDFF0220784981F83300BE2081F827009A
:103D20000A2081F82B00BE2081F82F00002081F8A6
:103D3000260081F82A0081F82E0043F6982004F02E
:103D4000E5FF01206C4981F83600FA2081F8370040
:103D500041F2883004F0DAFF0020674981F82F0033
:103D600081F82B0081F8270081F8370041F2883074
:103D700004F0CCFF0020604981F83600FA2081F879
:103D800037000F2081F82F0081F82B0081F82700E1
:103D9000012081F8260081F82A0081F82E000020F9
:103DA0006049086013E006E0FCF782FD00B108E01E
:103DB000012004F0ABFF02215B4801F0A7FD0128C0
:103DC000F2D000BF57480068401C5649086055486B
:103DD00000686428E7DB40F6B83004F097FF002065
:103DE000454981F82F0081F82B0081F827004FF416
:103DF00002704049086040F2FB104C49086010BD59
:103E000010B52DED0C8BF0EE408A9FED490AF0EED7
:103E1000409A9FED470AB0EE408A4648006805F098
:103E2000AEFD41EC1D0B9FED440B53EC102B05F048
:103E300095FC41EC1B0B18EE900A05F0A0FD41EC3F
:103E40001D0B9FED3F0B53EC102B05F087FC41EC55
:103E50001C0B53EC1B2B05F0DAFB41EC1A0B05F0A5
:103E6000B9FD34490860084690ED000A20EE000ACA
:103E700010EE101A084605F082FD41EC1B0BB0EE67
:103E80004B0AF0EE6B0A06F0F1FEB0EE40AAF0EE3F
:103E900060AA51EC1A0B05F09DFD09EE100A9FED8A
:103EA0002A0AC9EE000A9FED290A20EE800AB0EE28
:103EB000408A9FED270AB4EEC08AF1EE10FA04DDC5
:103EC0009FED230AB0EE408A0AE09FED220AB4EE8D
:103ED000C08AF1EE10FA03D29FED1E0AB0EE408ABE
:103EE000BDEEC80A1C4880ED000A0068044935E0B0
:103EF00024030020100100200400002010030020F3
:103F0000F40200204C060020040300201C030020C3
:103F1000140300201803002020010020A800002026
:103F2000A4000020C0020020001002400401002074
:103F3000000000002C030020CDCCCCCCCCCCEC3F3E
:103F40009A9999999999B93F0080C8430000EA422B
:103F500000007A4300004842FC0200200860F74855
:103F60000068312805D1B2EE040AF54880ED000A58
:103F700030E0F2480068322805D1B2EE040AF04879
:103F800080ED000A26E0ED480068332805D1B2EE46
:103F9000040AEB4880ED000A1CE0E8480068342879
:103FA00005D1B2EE040AE64880ED000A12E0E348CB
:103FB0000068332805D1B2EE040AE14880ED000A1A
:103FC00008E0DE480068342804D1B2EE040ADC4878
:103FD00080ED000AD9480068552808DBD7480068FA
:103FE000592804DC9FEDD70AD54880ED000AD34854
:103FF00000685A2808DBD14800685E2804DC9FED81
:10400000D20ACF4880ED000ACC4800685F2808DB60
:10401000CA480068612804DC9FEDCC0AC84880EDDE
:10402000000AC6480068622808DBC44800686728A0
:1040300004DC9FEDC70AC24880ED000ABF4890ED3E
:10404000000AB8EEC00ABE48D0ED000A20EE200AF1
:10405000F2EE040A80EE201ABDEEC10ABD4880EDE2
:10406000000ABDEC0C8B10BD10B52DED0C8BF0EEE5
:10407000408A1FED510AF0EE409A1FED530AB0EE50
:10408000408AB548006805F07AFC41EC1D0B1FED35
:10409000560B53EC102B05F061FB41EC1B0B18EE9B
:1040A000900A05F06CFC41EC1D0B1FED5B0B53EC13
:1040B000102B05F053FB41EC1C0B53EC1B2B05F0B4
:1040C000A6FA41EC1A0B05F085FCA34908600846E6
:1040D00090ED000A20EE000A10EE101A084605F0D6
:1040E0004EFC41EC1B0BB0EE4B0AF0EE6B0A06F0F7
:1040F000BDFDB0EE40AAF0EE60AA51EC1A0B05F03F
:1041000069FC09EE100A9FED950AC9EE000A9FEDC1
:10411000940A20EE800AB0EE408A1FED730AB4EED6
:10412000C08AF1EE10FA04DD1FED770AB0EE408A86
:104130000AE01FED780AB4EEC08AF1EE10FA03D25D
:104140001FED7C0AB0EE408ABDEEC80A854880EDBE
:10415000000A00688449086082480068322804D157
:10416000B2EE040A814880ED000A7E4890ED000A14
:10417000B8EEC00A7D48D0ED000A20EE200AF2EE2B
:10418000040A80EE201ABDEEC10A774880ED000ACD
:10419000BDEC0C8B10BD10B52DED0A8B04469FEDC8
:1041A000740AF0EE409AA4F1640000EE100AB8EE32
:1041B000C00AB0EEC00AF0EE408AB0EE080AF4EE93
:1041C000C08AF1EE10FA04D81FEDA70ABDEC0A8BE5
:1041D00010BDDFED670A68EEA00AB0EE600A06F0D7
:1041E0009FFDB0EE409AB2EE0C0AF4EEC08AF1EEFA
:1041F00010FA02D29FED5F8A19E019EE100A05F05D
:10420000BEFB41EC1C0B9FED5C0B53EC102B05F03F
:10421000A5FA41EC1B0B9FED5A0B53EC102B05F04C
:10422000F6F941EC1A0B05F0D5FB08EE100A18EE72
:10423000100A05F0A4FB41EC1A0B9FED530B53EC55
:10424000102B05F0AFFB03D29FED510AB0EE408A70
:10425000B0EE480ABAE710B52DED028B04462046B1
:10426000FFF799FFB0EE408A622C05DB662C03DC79
:104270000020FEF756FF0EE0612C05DA0020B1EEBB
:10428000480AFFF77DF806E0672C04DD0020B0EE59
:10429000480AFFF775F8BDEC028B10BD10B52DED87
:1042A000028B3C48C07801EE100AB8EE411ADFEDEF
:1042B0003A1A31EE611AF0EE410A3648807801EE82
:1042C000100AB8EE411ADFED341A31EE611AB0EE81
:1042D000410A05F08BFDF0EE408A3048D0ED000A2F
:1042E0009FED2F1A81EE200A20EE280AB0EE408AB8
:1042F000B5EEC08AF1EE10FA05D29FED2A0A38EE2B
:10430000000AB0EE408A2348C0787E2807D12148B1
:1043100080787F2803D19FED240AB0EE408A9FED7C
:10432000200AB4EEC08AF1EE10FA3FD8B2EE040AC9
:1043300028EE000AB0EE408A42E00000FC020020B5
:10434000F802002066661E41CDCC1C4100001C41D5
:1043500033331B41F40200203003002000401C4591
:104360000000A04208030020040300200C030020EA
:10437000D578693D2AC6993DC3F5285C8FC2B53F03
:10438000333333333333B33F7B14AE47E17AC43F27
:104390000AD7233E4C0600200000FF42E402002022
:1043A000000034430000B44300409C461FED030A64
:1043B00038EE400AF2EE040A20EE200AB0EE408AFF
:1043C0009FEDFD0A38EE400AFC4880ED000ABDEC86
:1043D000028B10BD10B5FA48407800F0800000282C
:1043E00039D00A20F74981F82F0081F82B0081F895
:1043F0002700012081F8260081F82A0081F82E008C
:1044000000240FE006E0FCF753FA00B108E00120B9
:1044100004F07CFC0221EC4801F078FA0128F2D08B
:1044200000BF641C642CEDDB40F6B83004F06EFC79
:104430000020E44981F83600FA2081F83700002096
:1044400081F82F0081F82B0081F827004FF40270CB
:10445000DE49086000BF10BDD948007800F00200B6
:1044600000285FD00020D74981F82F0081F82B0069
:1044700081F82700D64908600120D24981F836002A
:10448000002081F8370040F2FB10D249086008464E
:104490000068D1490968884203DACF480068CD49ED
:1044A0000860CC480068CD490968884203DDCB48E4
:1044B0000068C8490860CA490968C64A1268881A6B
:1044C000002801DB014600E04142032915DDC44814
:1044D0000068C0490968884207DD0020B94981F8B1
:1044E0003200142081F833000BE00120B54981F837
:1044F0003200142081F8330003E00220B14981F832
:104500003300B7480068B0F51B7F03DD0020AD49DC
:1045100081F83300B2480068FA2803DA0020A9497C
:1045200081F833007047AF4801680068401CAD4A0D
:104530001060642907D2AC484089AC490968084436
:10454000AA4908600BE0A94800686421B0FBF1F0BB
:10455000A74908600020A3490860A4490860A5484D
:1045600001680068401CA34A1060642907D29E4875
:104570000089A149096808449F4908600BE09E48EA
:1045800000686421B0FBF1F09C4908600020994963
:104590000860994908609A4801680068401C984A78
:1045A0001060642907D290488089964909680844B8
:1045B000944908600BE0934800686421B0FBF1F077
:1045C0009149086000208E4908608E4908608F4834
:1045D00001680068401C8D4A1060782907D2824823
:1045E000C0898B4909680844894908600BE08848FC
:1045F00000687821B0FBF1F086490860002083490B
:10460000086083490860844801680068401C824A49
:1046100010600A2907D27448C08880490968084494
:104620007E4908600BE07D4800680A21B0FBF1F08C
:104630006B4908600020784908607849086078482C
:1046400001680068401C764A1060322907D266482B
:104650004088744909680844724908600BE0714851
:1046600000683221B0FBF1F06F49086000206C490E
:1046700008606C4908606D4801680068401C6B4A1E
:104680001060322907D258480088694909680844EF
:10469000674908600BE0664800683221B0FBF1F022
:1046A00064490860002061490860614908607047FA
:1046B0004648006860490968884203DA5E48006835
:1046C00042490860414800685C490968884203DD46
:1046D0005A4800683D490860534909683B4A1268D6
:1046E000881A002801DB014600E0414205292EDD41
:1046F0004D48006835490968884204DD0020314989
:1047000081F83A0003E001202E4981F83A00464939
:1047100009682E4A1268881A002801DB014600E069
:104720004142474A116010460068FA2802DDFA202B
:104730001146086042480068FA2802DAFA20404927
:1047400008603F4800781F4981F83B0003E00220E1
:104750001C4981F83B003448006840F28A218842B5
:1047600003DD0020174981F83B002F480068B0F5B1
:10477000FA7F03DA0020134981F83B007047314883
:10478000006831490968884203DA2F4800682D49DA
:1047900008602C4800682D490968884203DD2B48D1
:1047A00000682849086023490968264A1268881A5F
:1047B00000284DDB01464CE00000E143B40000203E
:1047C0004C060020040000200010024010010020D0
:1047D0002803002004010020080100200C01002013
:1047E000AC0000206C0300200006002070030020B5
:1047F0009000002074030020780300209400002023
:104800007C030020800300209C0000208403002003
:1048100088030020980000208C03002090030020D3
:104820009403002098030020A40000209C03002093
:10483000A0030020A800002014010020180100207F
:10484000380300202001002024010020280100203E
:10485000414203293EDDFD480068FD490968884260
:1048600004DD0120FB4981F8220003E00020F94922
:1048700081F82200F5490968F54A1268881A00286B
:1048800001DB014600E041424900F34A1160104655
:104890000068FA2802DDFA2011460860EE48006838
:1048A000142802DA1420EC490860E8480068462819
:1048B00003DA1420E849086006E0E4480068642848
:1048C00002DA3220E4490860E3480078E14981F8DF
:1048D000230003E00220DF4981F82300DF4800685D
:1048E00018B90020DB4981F82300704710B5DC4877
:1048F000C079A0B1DA48407800F0040078B1D4481B
:104900000068D8490968884209DAD1480068401C23
:10491000CF4908604FF4967004F0F8F916E0D048DB
:10492000C07998B1CE48407800F0200070B1C848F6
:104930000068CD490968884208DDC5480068401E06
:10494000C34908604FF4C87004F0E0F910BD10B519
:10495000C348407800F0080078B1C4480068C449F2
:104960000968884209DAC1480068401CBF490860EC
:1049700040F2EE2004F0CAF913E0B948407800F0A4
:10498000100070B1B9480068BA490968884208DD6A
:10499000B6480068401EB549086040F2EE2004F0B9
:1049A000B5F910BD0121B44A117040F21A41B34A61
:1049B00011604FF4E171B24A11604942B14A11608D
:1049C000002805DA0021A34A91779175917304E0DC
:1049D0000121A04A917791759173011E01DB0A466E
:1049E00000E04A42D2B29B4BDA73DA75DA7770474D
:1049F00073B52DED028B142605259FEDA30AB0EEAD
:104A0000408A97480079322805DB95480079C82804
:104A100001DC012000E0002004469148007800F00D
:104A20000800A8B98E48007800F0100080B98C48C2
:104A3000007800F0200058B98948007800F0400064
:104A400030B92CB10520FEF76CFBBDEC028B7CBDB0
:104A50008348407800F0020038B19DF80C60B6EE53
:104A6000080AB0EE408A0A2506E09DF80860B5EE17
:104A7000000AB0EE408A04257948007800F008006A
:104A800098B17748007800F0100070B97448007849
:104A900000F0200048B97248007800F0400020B9CA
:104AA00031460020FEF77CFCB1E06D48007800F054
:104AB0000800A0B96A48007800F0100078B1684892
:104AC000007800F0200050B96548007800F0400000
:104AD00028B931464FF4E160FEF762FC97E0604888
:104AE000007800F00800A0B95D48007800F01000E0
:104AF00078B95B48007800F0200050B15848007841
:104B000000F0400028B931464FF46170FEF748FCD0
:104B10007DE05348007800F0080098B950480078CC
:104B200000F0100070B94E48007800F0200048B93D
:104B30004B48007800F0400020B131465348FEF762
:104B40002FFC64E04648007800F00800A0B144481B
:104B5000007800F0100078B94148007800F020009B
:104B600050B13F48007800F0400028B931464FF47A
:104B7000E170FEF715FC4AE03948007800F00800C3
:104B800098B13748007800F0100070B934480078C8
:104B900000F0200048B93248007800F0400020B111
:104BA00031463B48FEF7FCFB31E02D48007800F031
:104BB0000800A0B92A48007800F0100078B1284811
:104BC000007800F0200050B12548007800F0400047
:104BD00028B9314640F24650FEF7E2FB17E0204884
:104BE000007800F0080090B91D48007800F010002F
:104BF00068B11B48007800F0200040B918480078E0
:104C000000F0400018B131462248FEF7C9FB1448B5
:104C1000007800F00800A8B91148007800F01000F2
:104C200080B90F48007800F0200058B90C4800788F
:104C300000F0400030B92CB1FDF704FE10B10520A2
:104C4000FEF76FFA44B3FEF7E9FA4AE0A800002045
:104C5000200100200400002038030020140300205D
:104C60004C0600202801002024010020040100201F
:104C70000C010020080100206803002038020020F9
:104C80003C02002040020020000000007CFCFFFFEE
:104C90003EFEFFFFBAFAFFFFFFE7F7480079322830
:104CA0000CDAFDF7CFFD28B10020B1EE480AFEF77F
:104CB00067FB16E06842FFF775FE12E0EE480079E8
:104CC000C8280CDDFDF7BEFD28B10020B0EE480A73
:104CD000FEF756FB05E02846FFF764FE01E0FEF70D
:104CE0009DFA00BFB1E610B50120E44988700421A7
:104CF000E34800F00BFE012804D10220DF49C87010
:104D0000012010BD6420DD49C8700020F9E710B50E
:104D10000120DA4988700421D94800F0F7FD012804
:104D20000BD1D848007840B96420D449C87000201D
:104D3000D5490860D549086010BDFBF780FE041E08
:104D400001DB204600E06042D1490968884208DD65
:104D5000CC480078012804D10220C849C87001203D
:104D6000EAE73220C549C8700120C6490870002012
:104D7000E2E710B50120C1498872C103C04800F0C4
:104D8000C5FD012804D10220BC49C872012010BD14
:104D90006420BA49C8720020F9E710B54FF4004109
:104DA000B74800F0B3FD01280BD1BA48007840B9EC
:104DB0006420B249C8720020B7490860B74908604A
:104DC00010BDFBF785FE041E01DB204600E06042BB
:104DD000B3490968884208DDAE480078012804D14B
:104DE0000220A649C8720120EAE73220A349C8720E
:104DF0000120A84908700020E2E710B501209F4972
:104E0000887601219E4800F081FD012804D102200E
:104E10009A49C876012010BD64209849C8760020C0
:104E2000F9E710B50120954988760121944800F0F2
:104E30006DFD01280BD19B48007840B964208F4953
:104E4000C8760020984908609849086010BDFBF7B3
:104E500038FD041E01DB204600E0604294490968E9
:104E6000884208DD8F480078012804D10220834958
:104E7000C8760120EAE732208049C87601208949B6
:104E800008700020E2E710B501207C498874810396
:104E90007B4800F03BFD012804D102207749C8740B
:104EA000012010BD64207549C8740020F9E710B5D1
:104EB0004FF48041724800F029FD01280CD17D4853
:104EC000007848B964206D49C87400204FF08041D3
:104ED00048627949086010BDFBF766FD041E01DBDE
:104EE000204600E0604275490968884208DD714843
:104EF0000078012804D102206049C8740120EAE743
:104F000032205E49C87401206A4908700020E2E737
:104F100010B5FBF794FD6A490968441A002C01DBBF
:104F2000204600E060420A282ADDFBF788FD64493C
:104F30000968884203DD00205049887002E00120A2
:104F40004E498870FBF77BFD5D490968441A002CC7
:104F500001DB204600E060425A49086008460068CC
:104F6000FA2801DDFA200860564800680A2802DAAB
:104F70000A2054490860534800784049C87002E04C
:104F800002203E49C87010BD10B5FBF7A1FD4E4987
:104F90000968441A002C01DB204600E060420A2820
:104FA0002ADDFBF795FD48490968884203DD0020AA
:104FB0003249887202E0012030498872FBF788FD8F
:104FC00041490968441A002C01DB204600E0604298
:104FD0003C49086008460068FA2801DDFA200860AC
:104FE000384800680A2802DA0A203649086035483D
:104FF00000782249C87202E002202049C87210BD20
:1050000010B5FBF75EFC31490968441A002C01DB3E
:10501000204600E060420A282ADDFBF752FC2B49BB
:105020000968884203DD00201449887602E00120E7
:1050300012498876FBF745FC24490968441A002C7C
:1050400001DB204600E060421E4908600846006817
:10505000FA2801DDFA2008601A4800680A2802DAF6
:105060000A2018490860174800780449C87602E009
:1050700002200249C87610BD4C0600200400002022
:10508000001002403403002024080040800000206B
:105090004003002035030020240400406C00002061
:1050A0004403002037030020240C0040700000203F
:1050B0004803002036030020680000204C03002035
:1050C0003402002038030020380200203C02002077
:1050D00010B5FBF769FCBA490968441A002C01DBDA
:1050E000204600E060420A282ADDFBF75DFCB44957
:1050F0000968884203DD0020B249887402E001207B
:10510000B0498874FBF750FCAD490968441A002C7B
:1051100001DB204600E06042AB49086008460068B9
:10512000FA2801DDFA200860A74800680A2802DA98
:105130000A20A5490860A4480078A249C87402E082
:105140000220A049C87410BD09E01120FDF73EFA05
:1051500001219E4802F0B8FA0F2003F0D7FDF4E7D2
:105160000EE09B48006810B9FFF709FB03E002203E
:10517000944981F82300FFF79BFA032003F0C6FD52
:10518000EFE702E0032003F0C1FDFBE717E09148E1
:10519000007800F0010020B178210C20FFF728FCF6
:1051A00002E00A20FDF7BDFFFFF7B2FEFFF7ECFEBD
:1051B000FFF726FFFFF78CFF032003F0A7FDE6E7CC
:1051C0000BE0FFF7B0F9FDF715FA8348007808B94E
:1051D000FEF77FFB032003F099FDF2E71FB5FBF715
:1051E0002AFDFBF767FDFBF7BAFFFCF78FF8FCF72A
:1051F00081F9FCF706F9FCF7F5F9FBF7C6FD4FF46A
:10520000E130FCF7BCFA4FF4E130FCF745FB4FF41A
:10521000E130FCF7CEFB4FF46120FCF702FD4FF4C8
:10522000E130FCF79BFDFDF761FB00BFFFF7A1FD3F
:1052300008B9012400E00024FFF725FE08B9012089
:1052400000E000200443FFF7D8FD08B9012000E08A
:1052500000200443002CE9D100BFFFF79EFD08B9F0
:10526000012400E00024FFF722FE08B9012000E03D
:1052700000200443FFF7D5FD08B9012000E000201D
:105280000443002CE9D1002054490860FCF7C0FE1B
:10529000002000900190029003464FF4807250A1CC
:1052A0000390544803F0F3FA00200090019002901C
:1052B00003464FF4807250A10390544803F0E7FA7C
:1052C000002000900190029003464FF4807250A19C
:1052D0000390544803F0DBFA00205349086040F281
:1052E000FB10524908604FF4027051490860514860
:1052F000006840F28A21884203DD0020314981F8AC
:105300003B004C480068B0F5FA7F03DA00202D49D5
:1053100081F83B0034E02AE0FFF79EF8464890ED24
:10532000000AB8EEC00AFEF76BFD4448008800EEA4
:10533000100AB8EE400AFEF797FE4148006810B91F
:105340001420FEF75EFC2348807908B1FEF7C5FC07
:105350002048C07918B13B480078FEF77CFFFEF783
:105360000BFCFEF770FCFEF763FBFFF733F8194800
:10537000007800F001000028CED11420FDF7D1FE06
:10538000C9E71FB5002000900190029003464FF43A
:1053900080722DA103902F4803F079FA002000902D
:1053A0000190029003464FF480722BA103902D4888
:1053B00003F06DFA03F084FE002004B010BD00007D
:1053C0004002002004000020380300200048004074
:1053D000100300204C06002068030020B8000020C5
:1053E0007461736B526F626F74416E616C79746932
:1053F00063730000C15100087461736B4469657583
:105400004B6869656E436F43617500008D510008FC
:105410007461736B446965754B6869656E436F436E
:10542000617531006151000814030020040100205F
:1054300010010020A4000020940000206001002042
:10544000280300205F0100207461736B4D61696E59
:1054500000000000DD5100087461736B4779726FC2
:1054600000000000495100080CB500200190009098
:105470007248006840F480307049086000BF6F488F
:10548000006800F4003000900198401C01900098E2
:1054900018B90198B0F5A06FF1D16848006800F420
:1054A000003010B10120009001E000200090009831
:1054B000012846D161484030006840F080505F4983
:1054C000403108605E48006840F480405C490860F4
:1054D0005A48083000685949083108600846006891
:1054E00040F4004008600846006840F4A05008609E
:1054F0005448091F0860081F006840F08070091FA9
:10550000086000BF4D48006800F000700028F9D026
:1055100040F205604C49086048480830006820F0B7
:1055200003004649083108600846006840F0020060
:10553000086000BF41480830006800F00C000828EF
:10554000F8D10CBD10B53D48006840F001003B4962
:1055500008600020394908310860384800683B4934
:105560000840364908603A48091D0860081F00686D
:1055700020F48020091F0860002030490C310860A9
:10558000FFF772FF4FF000603249086010BD70B540
:1055900000200022022300240221284D08352D6816
:1055A00005F00C0020B1042806D0082834D107E00B
:1055B000294D2A4E356033E0294D284E35602FE0C5
:1055C0001E4D2D1D2D68C5F380541C4D2D1D2D68BD
:1055D00005F03F0154B1224DB5FBF1F5174E361DD4
:1055E0003668C6F3881605FB06F209E01A4DB5FBCE
:1055F000F1F5124E361D3668C6F3881605FB06F225
:105600000E4D2D1D2D68C5F301456D1C6B00B2FBC1
:10561000F3F5124E356003E00F4D104E356000BFBC
:1056200000BF064D08352D68C5F303150D4E705D9E
:105630000A4D2D68C540094E356070BD00380240E6
:105640000070004008544007003C0240FFFFF6FE97
:105650001030002408ED00E00024F400A403002032
:1056600000127A00A8030020064880470648004739
:10567000FEE7FEE7FEE7FEE7FEE7FEE7FEE7FEE702
:10568000FEE7FEE74555000889010008324901435D
:10569000324A1160704770B5002100230F22C47890
:1056A0001CB32E4C246804F4E064C4F5E064C4F335
:1056B0000721C1F10404E3B20A4144789C40E1B2FD
:1056C0008478144021430C07210E254C0578615540
:1056D000047804F01F050124AC4005786D11AD007D
:1056E00005F1E025C5F8004109E0047804F01F0544
:1056F0000124AC401B4D0678761145F8264070BD5C
:10570000194A0A400243154B1B1F1A60704739B1F2
:10571000124A121D12680243104B1B1D1A6006E04C
:105720000E4A121D126882430C4B1B1D1A607047F3
:10573000042808D14FF0E021096941F004014FF03D
:10574000E022116107E04FF0E021096921F0040136
:105750004FF0E022116170470000FA050CED00E007
:1057600000E400E080E100E080FFFF1F10B5044688
:105770008C48844208D10121084600F000FB00213A
:10578000012000F0FCFA5EE08748844208D1012144
:10579000022000F0F4FA0021022000F0F0FA52E0BA
:1057A0008248844208D10121042000F0E8FA002157
:1057B000042000F0E4FA46E07D48844208D101214B
:1057C000082000F0DCFA0021082000F0D8FA3AE0C6
:1057D0007848844208D10121102000F0D0FA00213D
:1057E000102000F0CCFA2EE07348844208D1012149
:1057F000202000F0C4FA0021202000F0C0FA22E0AE
:105800006E48844208D10121402000F0B8FA0021FE
:10581000402000F0B4FA16E06948844208D1012122
:10582000802000F0ACFA0021802000F0A8FA0AE005
:105830006448844207D10121801500F0A0FA0021BC
:10584000A01500F09CFA10BDF0B50A460021002317
:10585000002400BF3DE0012505FA01F3156805EAC3
:1058600003049C4234D105684F000326BE40B54373
:10587000056015794E00B540066835430560157919
:10588000012D02D01579022D16D185684F0003260F
:10589000BE40B543856055794E00B54086683543B6
:1058A0008560456801268E40B54345604568967918
:1058B0008E40B6B235434560C5684F000326BE40F2
:1058C000B543C560D5794E00B540C6683543C5605F
:1058D000491C1029BFD3F0BD4FF6FF7101600021B4
:1058E000017141718171C171704708B54FF4803207
:1058F0000092009A0A430092009AC261C161009A24
:10590000C261C2690092C269009208BD02460020CD
:1059100013690B400BB1012000E0002070470146E5
:10592000086980B270470246002053690B400BB1F2
:10593000012000E0002070470146486980B27047AE
:1059400001837047418370470AB1018300E04183BE
:1059500070474161704742694A4042617047F0B503
:10596000002300244D07ED0E02FA05F3CE1000F1DE
:10597000200555F826504E07F70E0F26BE40B543BA
:10598000CF1000F1200646F82750CE1000F1200578
:1059900055F8265045EA0304CE1000F1200545F8DD
:1059A0002640F0BD00000240000402400008024012
:1059B000000C024000100240001402400018024097
:1059C000001C024000200240FA48006840F001003C
:1059D000F84908600020F74908310860F548006878
:1059E000F5490840F3490860F448091D0860081F9C
:1059F000006820F48020091F08600020ED490C3168
:105A0000086070470021EB4A921C11701146087023
:105A1000704710B501460022002300204A11012AD8
:105A200002D1E44C236808E0022A03D1E14C70342F
:105A3000236802E0DF4C7434236801F01F02012464
:105A400094401C400CB1012000E0002010BD38B58E
:105A5000002000900024002500BF3120FFF7D9FF6F
:105A600005460098401C00900098B0F5A06F01D04A
:105A7000002DF2D03120FFF7CCFF08B1012400E067
:105A80000024204638BD01460020CA4A106820F094
:105A9000F80040EAC10010607047C94908607047CB
:105AA0000021C44A703211701170012802D00428FC
:105AB0000AD104E00121BF4A7032117005E00521CE
:105AC000BC4A7032117000E000BF00BF7047BD4992
:105AD0000860704770B5049C41EA82150126C6EB48
