:020000040800F2
:1000000068310020C56D0008490200084B02000855
:100010004D0200084F0200085102000800000000D5
:10002000000000000000000000000000A101000826
:100030005302000800000000E5010008FB930008DF
:10004000DF6D0008DF6D0008DF6D0008DF6D000860
:10005000DF6D0008DF6D0008DF6D0008DF6D000850
:100060002F0400087B040008DF6D00080F03000860
:10007000D10200085B030008DF6D00087902000868
:10008000DF6D000881020008DF6D0008DF6D0008E9
:10009000DF6D0008DF6D0008DF6D0008DF6D000810
:1000A000DF6D000889030008A9030008DF6D000860
:1000B000AB030008CB030008EB030008DF6D00086A
:1000C000DF6D0008DF6D0008DF6D00082B040008FD
:1000D000DF6D000859020008DF6D0008DF6D0008C1
:1000E000DF6D0008DF6D0008DF6D0008DF6D0008C0
:1000F000DF6D0008DF6D0008DF6D000831030008C8
:10010000DF6D0008DF6D00080B0400082D040008F7
:10011000DF6D0008DF6D0008650300086D0300084F
:10012000DF6D0008A3020008AB020008DF6D0008C5
:10013000DF6D0008DF6D0008DF6D0008DF6D00086F
:10014000DF6D0008DF6D0008DF6D0008DF6D00085F
:10015000C7020008DF6D0008DF6D0008DF6D0008D2
:10016000DF6D0008DF6D0008DF6D0008DF6D00083F
:10017000DF6D0008DF6D0008DF6D0008DF6D00082F
:10018000DF6D0008DF6D0008DFF810D00AF0C0F95D
:1001900000480047BD6B0008AFF3008068310020C5
:1001A000234B19680868B0E8F04F80F309884FF0D6
:1001B000000080F3118870470000000003480068C9
:1001C000006880F3088862B600DF00BF08ED00E039
:1001D000DFF80C00016841F470010160704700BF56
:1001E00088ED00E0EFF30980114B1A681EF0100F44
:1001F00008BF20ED108A20E9F04F106008B54FF0DD
:10020000140080F3118809F0CEFB4FF0000080F35A
:100210001188BDE8084019680868B0E8F04F1EF082
:10022000100F08BFB0EC108A80F30988704700BF38
:10023000E0020020EFF311804FF0140181F31188E8
:10024000704780F3118870477047FEE7FEE7FEE7CE
:10025000FEE770477047704710B5884C40F2255153
:10026000204608F014FB002805D02046BDE81040C9
:10027000202108F009BB10BD8149824807F019BC54
:1002800070B5804D804C30352146284607F0EEFB96
:10029000002805D021462846BDE8704007F009BC7B
:1002A00070BD7A497A4807F004BC794810B579499D
:1002B000183007F0FEFB78484178007841EA0020CA
:1002C0007649088010BD72487549603007F0F1BB6F
:1002D00070B56C4D6D4C483D2146284607F0C6FB75
:1002E000002813D02146284607F0E3FB6D4802F0B2
:1002F0007CF900280AD16C4C0021204608F006FA4F
:100300002046BDE87040012108F000BA70BD70B50C
:100310005C4D664C603D2146284607F0A7FB00284F
:1003200005D021462846BDE8704007F0C2BB70BD2D
:1003300070B5544C5E4D48342946204607F096FB74
:10034000002809D00021204607F005FB2946204659
:10035000BDE8704007F0ADBB70BD4A484849303831
:1003600007F0A7BB0121534808F06FB810B5012171
:10037000514808F06AF841497A208880BDE8104069
:1003800001214E4808F0C2B910B54D4C012120465C
:1003900008F05BF82088C1064A48016801D5491E6B
:1003A00000E0491C016010BD704710B501218C07A9
:1003B000204608F04AF82088C1064348016801D564
:1003C000491E00E0491C016010BD10B53F4C0121E1
:1003D000204608F03AF82088C1063D48016801D55A
:1003E000491E00E0491C016010BD10B5394C0121C7
:1003F000204608F02AF82088C1063748016801D550
:10040000491E00E0491C016010BD10B5334C0121AC
:10041000204608F01AF82088C1063148016801D545
:10042000491E00E0491C016010BD7047704770B55F
:10043000042007F0BDFB00281ED02021294806F02B
:1004400010FE294D0421284606F0ECFD1A4C012827
:1004500005D00421284606F0E5FD28B109E0002179
:10046000204607F08BFC04E0204607F08BFC1F4978
:1004700008601F490420086070BD704700100140EB
:100480002080002070600240008020200088001042
:100490002864024000802010E40300200C000020AB
:1004A0000088002002040020004800402080001046
:1004B000008000280010004000140040001401409B
:1004C0000000014010000020140000200004004043
:1004D000180000200008004024010020000C00400B
:1004E0008802002000000240000C02408C02002024
:1004F000143C014070B50546002409F06FFDFE492B
:1005000002E02A5D0A55641C8442FADBBDE87040B3
:100510000121FA4807F01FBA70B5F94D06460024CC
:10052000315D00290BD0284608F016F980212846B5
:1005300008F0A3F90028F9D0641CE4B2F0E770BD1C
:1005400070B5EF4E05460024002D0DD029463046EB
:1005500008F002F98021304608F08FF90028F9D020
:10056000641CE4B2032CEFD370BD73B50C460020BD
:10057000FFF7E6FFE3A0FFF7CFFFDF482246E2A147
:1005800082380AF03FF8DC488238FFF7C5FFDFA069
:10059000FFF7C2FFDFA0FFF7BFFFD748DAA182381D
:1005A000009A0AF02FF8D44E0024D54D823E2846FA
:1005B000315D08F0D1F84021284608F05EF90028A6
:1005C000F9D0641C142CF2DBD2A0FFF7A5FFFF20AA
:1005D000FFF7B6FFFF20FFF7B3FFBDE87C40FF2029
:1005E000AEE770B505460C46C6A0FFF795FFC248BA
:1005F0002246C5A182380AF005F8BF488238FFF7C5
:100600008BFFC5A0FFF788FF2846FFF785FFC1A035
:10061000FFF782FFBDE87040FF2091E777B5BEA1EC
:1006200085B00646D1E90001CDE90001B9A000225C
:1006300000680390B3A0B04D0068283DA5F12803E1
:100640000290AD4C1146A3F13200A9549954815443
:10065000A154521CD2B21E2AF7D30A210170FF24E2
:1006600044708470C470A448A7A15038079A09F058
:10067000C9FFA14902A8503909F098FC9E4802A977
:10068000823809F093FC9C486946823809F08EFC58
:1006900099483146823809F089FC97489AA1503828
:1006A000069A09F0AFFF94495039A1F1320009F0E0
:1006B0007DFC914803A9823809F078FC8E492C70A2
:1006C0006C702839AC70A1F15A0009F06FFC8A48AF
:1006D0008238FFF70FFF08B070BD2DE9F74188465B
:1006E0008DA185B00646D1E90001CDE9000189A0C0
:1006F00000220068039083A07F4D0068283DA5F18B
:10070000280102901446A1F13200AC548C54845458
:10071000521CD2B20A2AF8D30A210170FF2747706F
:100720008770C770744878A15038079A09F06AFF3B
:10073000714902A8503909F039FC6F4802A9823882
:1007400009F034FC6C486946823809F02FFC6A488D
:100750003146823809F02AFC67484146823809F060
:1007600025FC654803A9823809F020FC2F706F70C2
:100770006149AF70EC7028392C71A1F15A0009F071
:1007800015FC5D488238FFF7B5FE08B0BDE8F08182
:1007900070B50020FFF7D4FE5AA0FFF7BDFE564803
:1007A0000D2259A1823809F02DFF53488238FFF7F6
:1007B000B3FE59A0FFF7B0FE594C2021204606F0A9
:1007C00031FC02464C4850A1823809F01BFF4A48D0
:1007D0008238FFF7A1FE1021204606F023FC0246D6
:1007E000454849A1823809F00DFF43488238FFF798
:1007F00093FE4C4D8021284606F014FC02463E48EC
:1008000041A1823809F0FEFE3B488238FFF784FEA2
:100810004021284606F006FC024637483AA18238B5
:1008200009F0F0FE34488238FFF776FE4FF40041BD
:10083000204606F0F7FB02462F4833A1823809F024
:10084000E1FE2D488238FFF767FE4FF480412046D5
:1008500006F0E8FB024628482BA1823809F0D2FEB8
:1008600025488238FFF758FE4FF40051204606F025
:10087000D9FB0246204824A1823809F0C3FE1E4855
:100880008238FFF749FE4021274806F0CBFB02469D
:1008900019481DA1823809F0B5FE17488238FFF7C4
:1008A0003BFE1CA0FFF738FEFF20FFF749FEFF20AC
:1008B000FFF746FEBDE87040FF2041E6FEB51BA1F4
:1008C0000646D1E90001CDE900011AA000210A4D38
:1008D0000068283DA5F1280202900C46A2F13200E2
:1008E0006C5454544454491CC9B23229F8D30A21D7
:1008F0000170FF2747701FE0A2030020B86002408C
:100900000050004074000000256400002E747874CC
:100910003D000000220000002E7478743D2200008B
:100920000008024000000240001002402E76616C78
:100930003D0000006A0000008770C7700022AFF21F
:100940003801FE4809F05EFEFC4902A809F02EFBC2
:10095000FA4802A9323809F029FBF84869463238CA
:1009600009F024FB3246AFF26001F44809F04AFE78
:10097000F249A1F1320009F019FB2F706F70EF49B5
:10098000AF70EC7028312C71A1F15A0009F00EFB08
:10099000EA483238FFF7AEFDFEBD2DE9FC41E84FD5
:1009A000384607F0EFF9E74D29690A2640EA014089
:1009B00090FBF6F000240190384607F0E3F929692E
:1009C00040EA014090FBF6F001990090401A00D5F2
:1009D0004042322800DA641C00980190022CEBDBC4
:1009E0000098002800DA4042BDE8FC812DE9FC4176
:1009F0004FF08047384607F0C5F9D24D69690A269D
:100A000040EA014090FBF6F000240190384607F0E0
:100A1000B9F9696940EA014090FBF6F0019900904C
:100A2000401A00D54042322800DA641C0098019038
:100A3000022CEBDB00984000D6D54042D4E72DE9EC
:100A4000FC41C14F384607F09DF9C04D696A6426E4
:100A500040EA014090FBF6F000240190384607F090
:100A600091F9696A40EA014090FBF6F00199009023
:100A7000401A00D54042322800DA641C00980190E8
:100A8000022CEBDB0098AFE710B5FFF786FF0446BA
:100A9000FFF7ACFF002C00DA6442002800DA404285
:100AA000204410BD2DE9FC41A94F384607F06AF9F2
:100AB000A44DA969642640EA014090FBF6F00024A9
:100AC0000190384607F05EF9A96940EA014090FBC1
:100AD000F6F001990090401A00D54042322800DA21
:100AE000641C00980190022CEBDB00987CE701B5B8
:100AF00081B0019800EBC00040000090002801D0B8
:100B0000401EFAE70CBD01B581B044F25061019876
:100B100048430090002801D0401EFAE70CBD2DE9A3
:100B2000FC4101211F2006F0E5FB01248DF8044063
:100B300000268DF806604FF6FF758DF807400327F5
:100B400000958DF805706946824806F005FA8DF823
:100B500004408DF806608DF8074000958DF805700B
:100B600069467D4806F0F8F98DF804408DF8066076
:100B70008DF8074000958DF805706946774806F0B6
:100B8000EBF931E77CB501217E2006F0B3FB0024B0
:100B9000C0208DF80440012500908DF807500226F2
:100BA0008DF8056069466E4806F0D6F906208DF886
:100BB000044000908DF807508DF80560694665483F
:100BC00006F0CAF904208DF8044000908DF8075013
:100BD0008DF805606946604806F0BEF97CBD1FB51A
:100BE0004FF4E06006F000F936208DF80C00002488
:100BF0008DF80D408DF80E4001208DF80F0003A8F0
:100C000006F0F7F80121102006F092FB3220ADF833
:100C10000000ADF80840ADF8024040F2E730514C1A
:100C200001906946204607F067F80121204607F049
:100C30000CFC01221146204607F0E7FB002120466C
:100C400007F09CF80121204607F0CEF81FBD1FB524
:100C50004FF4E06006F0C8F837208DF80C0000244F
:100C60008DF80D408DF80E4001208DF80F0003A87F
:100C700006F0BFF80121202006F05AFB3220ADF823
:100C80000000ADF80840ADF8024040F2E730364CC5
:100C900001906946204607F02FF80121204607F011
:100CA000D4FB01221146204607F0AFFB002120466D
:100CB00007F064F80121204607F096F81FBD70B5D3
:100CC0008AB00121022006F03DFB01210C2006F034
:100CD00011FB214E03220621304606F0C6F90322FD
:100CE0000721304606F0C1F903220821304606F0FC
:100CF000BCF903220921304606F0B7F94FF47070B1
:100D0000059002208DF8180003208DF819000024AA
:100D10008DF81A4001258DF81B5005A9304606F0C4
:100D20001BF9A420ADF81C0040F6B830089028024A
:100D3000ADF82400ADF81E4007A917E052030020CB
:100D400000000140000000200008004000010020D9
:100D5000000400400004024000080240000C024071
:100D6000000002400010004000140040FE4E3046DB
:100D700006F0C2FF6020ADF80000ADF8025002940A
:100D8000ADF80C400121304607F02EF80021304626
:100D900006F0F4FF6946304607F030F86946304601
:100DA00007F058F86946304607F090F86946304633
:100DB00007F0C6F80121304607F008FB0AB070BD05
:100DC00070B58AB00121082006F0B2FA0121084668
:100DD00006F090FAE54E02220021304606F045F971
:100DE00002220121304606F040F902221146304627
:100DF00006F03BF902220321304606F036F90F20B7
:100E0000059002208DF8180003208DF819000024A9
:100E10008DF81A4001258DF81B5005A9304606F0C3
:100E20009BF8BA20ADF81C0042F21070D04E08902A
:100E3000ADF82440ADF81E4007A9304606F05CFF2F
:100E40006020ADF80000ADF802500294ADF80C40FF
:100E50000121304606F0C8FF0021304606F08EFF23
:100E60006946304606F0CAFF6946304606F0F2FF92
:100E70006946304607F02AF86946304607F060F8C0
:100E80000121304607F0A2FA98E770B58AB0012137
:100E9000042006F04DFA01210D2006F02BFAB54E84
:100EA00002220C21304606F0E0F802220D213046E5
:100EB00006F0DBF802220E21304606F0D6F80222B8
:100EC0000F21304606F0D1F84FF470400590022013
:100ED0008DF8180003208DF8190000248DF81A40B1
:100EE00001258DF81B5005A9304606F035F8A420E1
:100EF000ADF81C0040F6B830089028029E4EADF8C0
:100F00002400ADF81E4007A9304606F0F5FE60202B
:100F1000ADF80000ADF802500294ADF80C4001218C
:100F2000304606F061FF0021304606F027FF694693
:100F3000304606F063FF6946304606F08BFF69468F
:100F4000304606F0C3FF6946304606F0F9FF35E744
:100F500070B5012188B0080406F0F4F901210846B3
:100F600006F0C8F9814E03221146304606F07DF89E
:100F700003220221304606F078F80C20009002206F
:100F80008DF8040003208DF8050000248DF806403C
:100F900001258DF807506946304605F0DDFF4FF614
:100FA000FF70764EADF808400390ADF81040ADF8F4
:100FB0000A4002A9304606F09FFE0420ADF8140056
:100FC000C820ADF81C00ADF81640ADF8185005A9C2
:100FD000304607F04BF96A4C00231A46032120469D
:100FE00007F0ADFA0121204607F02FFA0122114641
:100FF000204607F00AFA0121304606F0F5FE0021EE
:10100000204606F0BBFE08B070BD2DE9F047012177
:101010008AB0084606F08CF90121022006F088F912
:101020000121032006F066F9DFF8409101220F212B
:10103000484606F01AF8DFF84C81012203214046A9
:1010400006F013F802220421404606F00EF80222B0
:101050000521404606F009F802268DF804600327B2
:1010600038208DF80570002400908DF80640012589
:101070008DF807506946404605F06EFF8DF8046014
:10108000E8038DF8057000908DF806408DF8075044
:101090006946484605F060FF4FF6FF70ADF80C401A
:1010A00004904FF08049ADF81440ADF80E4003A90C
:1010B000484606F021FEDFF8D0A003A9504606F00E
:1010C0001BFE4FF004081420ADF81880ADF8200086
:1010D000ADF81A60ADF81C5006A9484607F0C6F8EE
:1010E00006A9504607F0C2F802231A4603214846D3
:1010F00007F025FA02231A460321504607F01FFA8B
:101100000121484607F0A1F90121504607F09DF959
:1011100001221146484607F078F90122114650464F
:1011200007F073F90121484606F05EFE01215046A2
:1011300006F05AFE0021484606F020FE00215046E7
:1011400006F01CFE780205F04FFE1D208DF8080009
:101150008DF809708DF80A408DF80B5002A805F043
:1011600048FE1C2012E00000000401400000024084
:10117000000C0040000C024000080040000001404C
:101180000040014000040240000400408DF80800C7
:101190008DF809808DF80A408DF80B5002A805F0F3
:1011A00028FE0AB0BDE8F08770B501218AB0084674
:1011B00006F0C8F80121102006F09CF84FF42060DA
:1011C000009002208DF8040003208DF80500002413
:1011D000FC4E8DF8064001258DF8075069463046D3
:1011E00005F0BAFE01220921304605F03EFF01223A
:1011F0000B21304605F039FF4FF6FF70F24EADF887
:1012000008400390ADF81040ADF80A4002A93046FE
:1012100006F072FD0420ADF814000A20ADF81C00A1
:10122000ADF81640ADF8185005A9304607F01EF885
:1012300000231A460321304607F081F90121304688
:1012400007F003F901221146304607F0DEF80121CC
:10125000304607F0FAF801221146304607F0D5F87B
:101260000121304606F0C0FD0021304606F086FD23
:101270004FF4C06005F0B8FD19208DF820008DF8FE
:1012800021508DF822408DF8235008A805F0B1FDBB
:1012900094E52DE9F0418AB00121042006F048F8D8
:1012A0000121082006F026F84FF440500226009055
:1012B0008DF8046003208DF805000024C34F8DF8DD
:1012C000064001258DF807506946384605F044FE72
:1012D0004FF6FF70DFF8F882ADF808400390ADF8E4
:1012E0001040ADF80A4002A9404606F005FD022272
:1012F0000C21384605F0B9FE02220D21384605F0D2
:10130000B4FE0427C820ADF81470ADF81C00ADF889
:101310001660ADF8185005A9404606F0A7FF022355
:101320001A460321404607F00AF90121404607F01A
:101330008CF801221146404607F067F8012140462B
:1013400006F052FD42F21071404606F017FDA0482B
:1013500014300480A8F800504FF4C06005F044FD3C
:101360001E208DF820008DF821708DF822408DF818
:10137000235008A805F03DFD0AB0BDE8F0812DE935
:10138000F0418AB00121082005F0D2FF0121084672
:1013900005F0B0FF032002268DF804608DF80500EB
:1013A00000248C4F00908DF8064001258DF80750E1
:1013B0006946384605F0D0FD4FF6FF70DFF8188219
:1013C000ADF808400390ADF81040ADF80A4002A90E
:1013D000404606F091FC02220021384605F045FE09
:1013E00002220121384605F040FE0427C820ADF84E
:1013F0001470ADF81C00ADF81660ADF8185005A9D2
:10140000404606F033FF02231A460321404607F008
:1014100096F80121404607F018F80122114640468F
:1014200006F0F3FF0121404606F0DEFC42F21071A7
:10143000404606F0A3FC684814300480A8F8005029
:101440004FF4C06005F0D0FC32208DF820008DF8FC
:1014500021708DF822408DF8235008A805F0C9FCB2
:101460008AE72DE9F0419CB001215C4805F042FF7C
:1014700001210D02284605F065FF59480024CDE9F9
:101480000040584802A94FF0080881E81101A8005F
:10149000CDE90540400007908000CDE908050AA984
:1014A0000001012581E831004F4E0D946946304618
:1014B0000E9406F017FA0121304606F04CFA032785
:1014C0003C268DF8587015968DF85B4015A941485B
:1014D00005F042FD8DF8587015968DF85B4015A902
:1014E000424805F039FD3804CDE91740B001CDE997
:1014F000194017A805F0FBFF1194129413942806C5
:10150000374C0F908DF840504C3C8DF841508DF881
:1015100050800FA9204605F0BFFF042301220221BD
:10152000204606F02EF8042302220321204606F06E
:1015300028F8042303221946204606F022F8042343
:101540001A460521204606F01CF8042305220C212A
:10155000204606F016F8042306220D21204606F048
:1015600010F8042307220E21204606F00AF804236F
:1015700008220F21204606F004F80121204606F03B
:101580007DF80121204606F06FF80121204605F084
:10159000C5FF204606F02FF81CB0EEE608B54FF464
:1015A000E06005F021FC25208DF8000000208DF87A
:1015B00001008DF8020001208DF80300684605F057
:1015C00018FC08BD0010024000000140000C024061
:1015D0000008004000000240000C004005004000F0
:1015E0004C200140D4030020106402400008024057
:1015F00070B5054696B00121102005F0A3FE01212B
:10160000084605F077FE0121880505F073FE4FF4CA
:10161000C060139002208DF8500000248DF85240D5
:101620008DF85340FC4E8DF8510013A9304605F05B
:1016300093FC07220921304605F017FD07220A21F5
:10164000304605F012FD0F95ADF844400C20F34DE7
:10165000ADF84040ADF84600ADF84240ADF8484026
:101660000FA9284606F0E1FF0121284607F04EF8B1
:101670004FF4A06005F0B8FB3A208DF854008DF8C7
:1016800055408DF8564001208DF8570015A805F0FB
:10169000B0FBE34E304606F09DF84FF0006000903E
:1016A000E048CDE902040A200490281D01900015AD
:1016B000CDE905408010CDE9084040020A900420A1
:1016C0000B9007940320CDE90C04694630460E9434
:1016D00006F008F901224021284607F0AEF8012261
:1016E0001021304606F0ACF90121304606F033F9FE
:1016F00016B070BDF0B50646012197B0480505F05B
:10170000F9FD01214D04284605F012FE01210820B3
:1017100005F0F0FD6020139002208DF850000024A9
:101720008DF852408DF85340BF4F8DF8510013A9EA
:10173000384605F011FC07220521384605F095FCD6
:1017400007220621384605F090FC0F96ADF844407C
:101750000C20B64EADF84040ADF84600ADF8424022
:10176000ADF848400FA9304606F05FFF0121304632
:1017700006F0CCFF4FF4A06005F036FB11208DF889
:1017800054008DF855408DF8564001208DF85700D3
:1017900015A805F02EFBA64F384606F01BF8A80248
:1017A000009040200390A34802903C200490301DFC
:1017B00001900015CDE905408010CDE908400420D6
:1017C000CDE90A5007940320CDE90C046946384658
:1017D0000E9406F087F801228021304607F02DF89C
:1017E00001228021304607F028F8012210213846D6
:1017F00006F026F90121384606F0ADF817B0F0BD25
:1018000070B50546012196B0880405F091FD0121CF
:10181000082005F06FFD0121480505F06BFD4FF430
:101820004070139002208DF8500000248DF8524033
:101830008DF853407C4E8DF8510013A9304605F0C9
:101840008BFB07220821304605F00FFC07220921F7
:10185000304605F00AFC0F95774EADF84040ADF8E4
:1018600044400C25ADF84240ADF84840ADF8465034
:101870000FA9304606F0D9FE0121304606F046FF9A
:101880004FF4A06005F0B0FA8DF854508DF8554033
:101890008DF8564001208DF8570015A805F0A9FADB
:1018A000634D783D284605F095FF4FF000600090AD
:1018B0005C4869461E30CDE9020408200490301DC2
:1018C00001900015CDE905408010CDE908404002A7
:1018D0000A9004200B9007940320CDE90C042846BD
:1018E0000E9405F0FFFF01224021304606F0A5FFCF
:1018F00001224021304606F0A0FF01221021284697
:1019000006F09EF80121284606F025F8F0E6F0B52D
:101910000646012197B0C80405F00AFD01210846DA
:1019200005F0E8FC0121480505F0E4FC02208DF8F3
:10193000500000248DF852408DF85340364F032557
:101940008DF85100139513A9384605F005FB0822C0
:101950000021384605F089FB08220121384605F0B0
:1019600084FB0F96ADF844400C20344EADF8404057
:10197000ADF84600ADF84240ADF848400FA93046FA
:1019800006F053FE0121304606F0C0FE4FF4A06081
:1019900005F02AFA0D208DF854008DF855408DF889
:1019A000564001208DF8570015A805F022FA204F67
:1019B000603F384605F00EFF7805009019486946EB
:1019C0000F30CDE9020408200490301D019000156D
:1019D000CDE905408010CDE90840400207940A9007
:1019E0000420CDE90C540B9038460E9405F07AFF94
:1019F00001224021304606F020FF012240213046DE
:101A000006F01BFF01221021384606F019F80121CB
:101A1000384605F0A0FFF1E600000240001001404A
:101A200040640240E4030020000C024000440040F7
:101A3000A06002404C01002000480040004C0040E3
:101A40002DE9F0418046012196B0480505F052FC91
:101A50000121080505F06CFC01210C2005F04AFC71
:101A600002258DF8405000248DF84240FA4F04269C
:101A70008DF843400F968DF841500FA9384605F078
:101A80006BFA8DF840508DF842408DF84340E802E3
:101A90008DF84150F14D0F900FA9284605F05CFAE2
:101AA00008220221384605F0E0FA08220C212846D7
:101AB00005F0DBFA4FF4A06005F096F92F208DF8C1
:101AC000540005208DF855008DF8560001208DF842
:101AD000570015A805F08DF9ADF84C400C20E04DED
:101AE000ADF84840ADF84E00CDF84480ADF84A401E
:101AF000ADF8504011A9284606F097FD012128466F
:101B000006F004FED74F384605F064FE70060090DC
:101B100040200390D448029031200490281D019069
:101B20000015CDE905408010CDE908404002CDE91F
:101B30000A0607940320CDE90C04694638460E9442
:101B400005F0D0FE01228021284606F076FE012213
:101B50001021384605F074FF0121384605F0FBFEE0
:101B600016B00AE42DE9F041054696B00121202087
:101B700005F0E8FB0121042005F0BCFB01218805EC
:101B800005F0B8FBC020139002208DF8500000240F
:101B90008DF852408DF85340B04E8DF8510013A986
:101BA000304605F0D9F908220621304605F05DFAE5
:101BB00008220721304605F058FAADF844400C20C1
:101BC000DFF8A882ADF84040ADF846000F95ADF8BB
:101BD0004240ADF848400FA9404606F026FD0121DD
:101BE000404606F093FD4FF4A06005F0FDF8392063
:101BF0008DF8540003268DF8556001258DF8565058
:101C00008DF8575015A805F0F4F8994F384605F0AF
:101C1000E1FDB8050090974802A981E8310008F17C
:101C2000040001900015CDE905408010CDE9084081
:101C3000400207940A900420CDE90C640B90694699
:101C400038460E9405F04EFE01224021404606F033
:101C5000F4FD01221021384605F0F2FE012138463C
:101C600005F079FE7CE730B585B00121082005F04C
:101C700041FB0121880305F065FB00240C208DF851
:101C80001040012503908DF8135003A9724805F008
:101C900063F90221032006F03AFE042000908DF83B
:101CA000044010208DF805008DF80650684605F0B8
:101CB0002FFF08208DF808008DF809408DF80A40A4
:101CC0008DF80B5002A805F094F805B030BD10B5A2
:101CD000012810D0032819D0042822D0052809D1C2
:101CE0005F4C204606F038FD4021204606F0C5FD39
:101CF0000028F9D010BD604C204606F02DFD402193
:101D0000204606F0BAFD0028F9D010BD5B4C2046F5
:101D100006F022FD4021204606F0AFFD0028F9D054
:101D200010BD574C204606F017FD4021204606F016
:101D3000A4FD0028F9D010BD5249002048624D4949
:101D4000891F0861504908604A49FA314862704762
:101D50004C49002048624749891F08614FF0804282
:101D600050624861494A10608861474908604149AA
:101D7000FA31486270474FF08041002048623D4987
:101D8000891F486170474149002008603949891F0F
:101D90008861704770B5374D0020AD1FE87004466C
:101DA00061210120FFF793FF3220FEF7ACFE641C97
:101DB000022CF5D30120E8707A20A87070BD70B5B0
:101DC0002C4D0020AD1F6871044661210320FFF7F0
:101DD0007EFF3220FEF797FE641C022CF5D3012013
:101DE00068717A20287170BD2DE9F14FAAB00020EA
:101DF00028908DF800008DF850001E484FF40046E2
:101E0000FA30A0F580712A9B214A144D77108C1D61
:101E10004FF480784FF480694FF4805A122B71D2BE
:101E2000DFE803F009484D5155595D61656B7175E7
:101E30007A7F87C3F3F20221104605F0F3F848B326
:101E400000223146284605F005F93146284605F0BE
:101E5000F3F8014600221EE0000C02400008024098
:101E600000500040B8600240A2030020001401406E
:101E70002864024006000020001001400048004095
:101E8000004C0040000001402408004024040040B1
:101E90000004024001E0EBA046E001223146284662
:101EA00005F0D8F83146284605F0C6F8014600226C
:101EB000ECA039E0F2480122016CF2A034E0016BA1
:101EC0000222F2A030E0416B0322F3A02CE0C16AB1
:101ED0000422F4A028E0816A0522F5A024E0C16B69
:101EE0000622F6A020E0816B0722F8A01CE0FEF796
:101EF000CBFD01460822F8A016E0FA480922017835
:101F0000F9A011E012E0016C0A22FAA00CE091F9AC
:101F100007100B22FAA007E091F908100C22FCA090
:101F200002E0416C0D22FEA0FEF778FB2BB0BDE86D
:101F3000F08F2078C0070DD00022FDA1684608F080
:101F400061FB694614A808F031F82078800703D4B3
:101F5000012202E00122F0E70022F5A1684608F024
:101F600051FB694614A808F021F82078400701D4F5
:101F7000012200E00022EEA1684608F043FB69461A
:101F800014A808F013F82078000701D4012200E01B
:101F90000022E7A1684608F035FB694614A808F05E
:101FA00005F80E2214A9E3A085E22078C00601D42A
:101FB000012200E00022DEA1684608F023FB69460A
:101FC00014A807F0F3FF2078800601D4012200E076
:101FD0000022D7A1684608F015FB694614A807F04F
:101FE000E5FF2078400601D4012200E00022D0A1C4
:101FF000684608F007FB694614A807F0D7FF207869
:10200000000603D4012202E0E5E00CE00022C8A1B2
:10201000684608F0F7FA694614A807F0C7FF1022CF
:1020200014A9C7A047E2DFF824B30121584604F001
:10203000F9FF0246BEA1684608F0E4FA694614A812
:1020400007F0B4FF0221584604F0ECFF0246B8A1A5
:10205000684608F0D7FA694614A807F0A7FF0421DC
:10206000584604F0DFFF0246B1A1684608F0CAFAFC
:10207000694614A807F09AFF0821584604F0D2FFD9
:102080000246ABA1684608F0BDFA694614A807F0FD
:102090008DFF1021584604F0C5FF0246A4A16846F2
:1020A00008F0B0FA694614A807F080FF20215846CE
:1020B00004F0B8FF02469EA1684608F0A3FA6946FC
:1020C00014A807F073FF4021584604F0ABFF024606
:1020D00097A1684608F096FA694614A807F066FFCB
:1020E0008021584604F09EFF024691A1684608F000
:1020F00089FA694614A807F059FF4146584604F08A
:1021000091FF02468AA1684608F07CFA694614A845
:1021100007F04CFF4946584604F084FF024684A16C
:10212000684608F06FFA694614A807F03FFF514669
:10213000584604F077FF02467DA1684608F062FA2F
:10214000694614A807F032FF4FF400542146584660
:1021500004F068FF024676A1684608F053FA694623
:1021600014A807F023FF3946284604F05BFF024617
:102170006FA1684608F046FA694614A807F016FFF2
:102180003146584604F04EFF024669A1684608F001
:1021900039FA694614A807F009FF2146284604F0D9
:1021A00041FF024662A1684608F02CFA694614A86D
:1021B00007F0FCFE3946584604F034FF02465CA1A5
:1021C000684608F01FFA694614A807F0EFFE0F22D0
:1021D00014A930A06FE180219346104604F02CFF33
:1021E000024653A1684608F00DFA694614A807F0A4
:1021F000DDFE4146284604F01FFF02464CA168461A
:1022000008F000FA694614A807F0D0FE4FF40071F8
:10221000284604F011FF024645A1684608F0F2F98D
:10222000694614A807F0C2FE4C464946584604F0D9
:1022300003FF02463EA1684608F0E4F9694614A887
:1022400086E00000524F424F542044414E47204305
:102250004841592053414E2058414E483A202020B1
:1022600000000000524F424F542044414E4720434B
:102270004841592053414E20444F3A20202000002D
:1022800080000020494D553A000000004C415A455D
:102290005F545241493A00004C415A455F50484111
:1022A000493A00004C415A455F5452554F433A0059
:1022B0004C415A455F5341553A0000004254204E6C
:1022C000414E47204C55413A0000000042542058EE
:1022D0004F41593A00000000454E5F544F4E473A77
:1022E000000000008801002047414D455F504144F7
:1022F0003A00000042545F424F4E473A000000004F
:1023000043425F6C696E65747261693A0000000057
:1023100043425F6C696E65706861693A0000000055
:1023200056495F5452495F424F4E473A0000000001
:10233000256400004C494E4520504841493A000070
:102340004C494E4520545241493A00000010024089
:1023500007F02CFE4FF400694946584604F06CFE25
:102360000246AFF23401684608F04CF9694614A8F9
:1023700007F01CFE55465146584604F05DFE0246E5
:10238000AFF25401684608F03DF9694614A807F019
:102390000DFE4FF40051584604F04EFE0246AFF2D7
:1023A0007001684608F02EF9694614A807F0FEFD92
:1023B0003946584604F040FE0246AFF28C016846AA
:1023C00008F020F9694614A807F0F0FD3146584698
:1023D00004F032FE0246AFF2A801684608F012F996
:1023E000694614A807F0E2FD2146FB4C204604F0A4
:1023F00023FE0246AFF2C801684608F003F96946B9
:1024000014A807F0D3FD3946204604F015FE024615
:10241000AFF2E401684608F0F5F8694614A807F041
:10242000C5FD4946204604F007FE0246AFF2001102
:10243000684608F0E7F8694614A807F0B7FDE74CCE
:102440004146204604F0F8FD0246AFF21C116846F2
:1024500008F0D8F8694614A807F0A8FD49462046B8
:1024600004F0EAFD0246AFF23811684608F0CAF8F7
:10247000694614A807F09AFD2946204604F0DCFDC1
:102480000246AFF25411684608F0BCF8694614A839
:1024900007F08CFD4021584604F0CEFD0246AFF215
:1024A0007011684608F0AEF8694614A807F07EFD82
:1024B000112214A9CAA0FEF710F937E50121CA4874
:1024C00005F049BA11B4C948016A009A914201DD88
:1024D000002101E0016A491C0162006A18BC83E422
:1024E0002DE9F0470025BC4E074601244FF4005962
:1024F0004FF480484FF4805A00224146304604F0A1
:10250000A9FD1020FEF7F3FA274201D0012200E0D6
:1025100000224946304604F09DFD012241463046E6
:1025200004F098FD1020FEF7E2FA5146304604F020
:1025300079FD00B12543600010F0FF04DCD128468E
:10254000BDE8F08770B5A44E4FF40045002229463F
:10255000304604F07FFD1020FEF7C9FA0120FFF796
:10256000BFFF4220FFF7BCFFFF20FFF7B9FFFF20AE
:10257000FFF7B6FF9D4C88342070FF20FFF7B0FFB7
:102580006070FF20FFF7ACFFA070FF20FFF7A8FFEF
:10259000E070FF20FFF7A4FF2071FF20FFF7A0FFEE
:1025A000607129463046BDE87040012204F052BDFA
:1025B00070B5894E4FF4004500222946304604F09C
:1025C00049FD1020FEF793FA0120FFF789FF422012
:1025D000FFF786FF044601222946304604F03AFD03
:1025E0001020FEF784FA204670BD814A0021516414
:1025F000C2797E4988310D2A0AD0EF200870FF2069
:1026000048708870C87008714871887100207047E0
:1026100002780A7042784A7082788A70C278CA70EA
:1026200002790A7142794A71807988710120704774
:102630006E486F4988300278FF2A05D14278FF2A18
:1026400002D18278FF2A09D04A6C531C4B64C82AF5
:1026500003DDFF21017041708170704700204864E4
:1026600070476248883080797047604888300078C9
:10267000400601D401207047002070475B48883035
:102680000078800701D4012070470020704770B5A2
:10269000574B0025012693F8784003F5A6730028D0
:1026A00003D004DDD8709E7005E0DC7003E0C0F15B
:1026B0000000D8709D70002903D004DDD9729D728E
:1026C00005E0DC7203E0C1F10000D8729E72002ABE
:1026D00003D004DDDA719D7170BDDC7170BDC2F193
:1026E0000000D8719E7170BD40494C31C870C872ED
:1026F000C87170473E490120486770473B484C30DD
:10270000C178032907D2C17A032904D2C0790328EA
:1027100001D2012070470020704734488038006A99
:10272000A0F5EA41303901D0012070470020704700
:10273000FFF730BB2E48B0F90C00404270472C48E0
:10274000B5EEC00AD0ED130AF1EE10FA02D230EE67
:10275000600A01E030EE200ABDEEC00A10EE100A59
:10276000704710B5041E2DED068B20489FED21AB60
:102770009FED229BA0F1800011D0C06814DA07F011
:10278000BCFD41EC180B204607F0B7FD53EC1A2BAB
:1027900007F0D2FC53EC192B07F0C8FC13E09FEDB7
:1027A000190ABDEC068B10BD07F0A7FD41EC180B14
:1027B000204607F0A2FD53EC1A2B07F0BDFC53ECAA
:1027C000192B07F012FC53EC182B07F027FD07F02C
:1027D000B8FD00EE100AE4E7000C024000000240E1
:1027E0004F55543A00000000A06002400001002054
:1027F000000000209A9999999999B93F333333335E
:102800003333D33F00000000B5EEC00AF1EE10FAFA
:1028100001DAB1EE400A7047002800DA4042704702
:10282000FD4991ED1B0AD1ED1C1AF1EE400A80EE34
:10283000A11A00EE900AF8EEE00A01EE200ABDEEC1
:10284000C00A10EE100A7047F0EE401A9FEDF30A2E
:10285000F5EEC01AF1EE10FA01D2F1EE611AF5EEC2
:10286000C00AF1EE10FA01D2F1EE600AB5EEC01A1C
:10287000F1EE10FA01D2B1EE411AF4EEC01AF1EE07
:1028800010FA01DDB0EE610AF4EEC00AF1EE10FAC2
:1028900001DDB0EE600AB4EEC01AF1EE10FA01DD0F
:1028A000B0EE410A7047DC488030C0687047DA48B3
:1028B0008030806B704770B5D74CD74D80342DED8C
:1028C000048BB0EE408A206AA0F5EA41303974D01A
:1028D000E26A216CD4ED0C0A891A401A00EE100A43
:1028E00095ED161A606BB8EEC00A00EEC10AD5ED80
:1028F000150AC0EE208A07F011FD94ED000A41ECA4
:10290000190B20EE280A10EE100A07F007FD41EC23
:10291000100B07F0A5FE51EC100B81F0004153ECB9
:10292000192B07F003FC07F00CFDE064606B07F067
:10293000F5FC95ED170AD4ED000A41EC190B38EEC1
:10294000800A20EE200A10EE100A07F0E7FC41ECA6
:10295000100B07F085FE53EC192B51EC100B07F010
:10296000E5FB07F0EEFC206595ED180AD4ED000AB2
:1029700038EE800A20EE200A10EE100A07F0CEFC96
:1029800041EC100B07F06CFE51EC100B07F0D9FC7A
:1029900000EE100AB1EE400A84ED150AB5EEC08AC9
:1029A000F1EE10FA38D0A06880B1012814D00228C6
:1029B00019D0032830D123E0FFE71FED6E0A84ED24
:1029C000150A84ED140A84ED130AE7E794ED130A5F
:1029D00030EE480A84ED130A94ED140A30EE480AEA
:1029E00084ED140A05E094ED130A30EE480A84EDF4
:1029F000130A94ED150A30EE480A84ED150A0BE02F
:102A000094ED130A30EE480A84ED130A94ED140A8B
:102A100030EE480A84ED140A04F14C0090EC030AED
:102A2000FFF712FFD5ED120AF8EEE00A80EE801AE9
:102A3000BDEEC10A10EE100A6061E168814200DD5E
:102A4000E06001206060BDEC048B70BD7249002223
:102A5000803100280A61886110D11FED960ACA6092
:102A600081ED0D0A47F230500862486281ED0C0A90
:102A70008A6069488A628A6342671CE770476648D1
:102A8000803090ED0C0AB5EEC00AF1EE10FA04D1D8
:102A9000816811B9816A002909D01FEDA60A0021B9
:102AA00080ED0C0A81608162016CC16203E77047AE
:102AB0005948C0ED1B0A80ED1C0A7047564A803207
:102AC000136A834209D113698B4206D1D2ED0D0AF4
:102AD000F4EE400AF1EE10FA0ED01161D16809B996
:102AE0000521D160116CD16282ED0D0A10620020C7
:102AF000D06192ED0C0ADEE67047474A30B480326E
:102B0000936A834209D1D2ED0C0AF4EE400AF1EE49
:102B100010FA02D193688B4226D0146A47F23053E0
:102B20009C4219D1322414610524D460984213DAEE
:102B3000B5EEC00A0123F1EE10FA936302DD136CC7
:102B4000834207DCB5EEC00AF1EE10FA04D2136C32
:102B5000834201DAB1EE400A9160906282ED0C0A84
:102B60000020D06130BCA6E630BC7047014647F279
:102B70003050C2E71FEDDD0AA0E710B5264C2DED61
:102B8000028B8034F0EE608AD4ED090AB0EE418AFF
:102B9000F8EEE00AF4EE400AF1EE10FA0BD12169EA
:102BA000814208D1D4ED0A0AF8EEE00AF4EE680A90
:102BB000F1EE10FA4FD0FDEEC00AC4ED090AD4EDD3
:102BC000100AF8EEE00A30EE600ABDEEC00A10EE20
:102BD000102A1FEDF40A01461046FFF76FFF94ED2F
:102BE000100AF8EEC00A78EEE00AFDEEE00A10EEF8
:102BF000900A002800DA4042B8EEC00A64281DDDC1
:102C0000F4EEC08AF1EE10FA01DCB1EE488A18EE5B
:102C1000100A07F083FB03E0000000206F12833AE4
:102C200007F08FFBFDEEE80ABDEC028B00EE100A08
:102C3000BDE81040002110EE900A5EE738EEC00AB1
:102C400010EE100A07F06AFB9FEDF91B53EC112BF5
:102C500007F072FADFE7BDEC028B10BDF64910B544
:102C6000886B012828DD0A6C886A801AFFF7D4FD7A
:102C7000052809DA886B421C8A63B0F57A7F1BDD70
:102C8000BDE810400020E1E605208A6B0861B2F53E
:102C9000FA7FC86002DD40F2F51088638A6A086C2A
:102CA000904202DDBFEE000A01E0B7EE000A81EDBE
:102CB0000C0ABDE81040FEE510BD70B5DE4991ED8F
:102CC0000D0AB5EEC00AF1EE10FA73D1CB68002BF5
:102CD00070D0886A47F23054A0426BDA91ED0C0A4A
:102CE000B5EEC00AF1EE10FA7DD00D6AA1F18002B6
:102CF000A54260D1B5EEC00A1346F1EE10FA9B6E04
:102D000003DD0D6CC41AAC4208DBB5EEC00AF1EE6F
:102D100010FA17D20C6C0344A34213DD8B6B032B08
:102D200048DA0B6CC01AFFF777FD0A28886A0ADABE
:102D3000C8630020C8609FEDC10A086181ED0C0ADC
:102D40000220886379E091ED030AD1ED0C0A0B6C47
:102D5000B8EEC00A984260EE200A92ED1A0AB8EE68
:102D6000C01A80EE810A0FDDFFF74EFD0B6C886AFA
:102D7000C01AFFF751FD00EE900AB8EEE01AD2ED4E
:102D8000140A40EE010A0EE0FFF73EFD0B6C886A64
:102D9000C01AFFF741FD00EE900AB8EEE01AD2ED3E
:102DA000140A50EE410A91ED030AB8EEC01A80EE03
:102DB000810A42E046E0A04AB5EEC00A803AD2ED70
:102DC000190AF1EE10FA18DD01EE100AF8EEC11A38
:102DD00001EE103AB8EEC11A41EE401AB8EEE01A10
:102DE00071EEC11A00E02BE091ED101AB8EEC11A95
:102DF000F4EEC11AF1EE10FA1BD3B5EEC00AF1EEF3
:102E000010FA1AD201EE100AF8EEE00AF8EEC11A32
:102E100001EE103AB8EEC11A41EE401A31EEA01A96
:102E2000D1ED100AF8EEE00AB4EEE01AF1EE10FA75
:102E300003DD096C401AFFF794FCBDE870403AE5E9
:102E4000C86AF6E770BD7C4910B4886B02280CDABA
:102E50009FED7A0A002281ED0D0A81ED0C0A47F2FE
:102E600030508A600862C1E90902CC69724B641C67
:102E7000803BCC611846DA6F806F944202DBCA61F6
:102E8000596F09B110BC2FE40020FBE76A4AD369EF
:102E90005B1CD361834204DDD0680844D06000200D
:102EA000D061704710B5FFF745FC634C2064FFF715
:102EB000D5FE2269E0684FF0FF31002A0BDD904219
:102EC0000ED006DA616988420ADAFFF7A9FC01210F
:102ED00004E0A06C02E0002831DDA069FFF7D6FF16
:102EE000D4E91001814203D0FFF7E7FE206C606453
:102EF0006068002826D094ED030AD4ED150AB8EED8
:102F0000C00A20EE200AFFF71AFC94ED030AD4ED64
:102F1000140A0246B8EEC00A20EE200AFFF70FFCA2
:102F200094ED030AD4ED130A0146B8EEC00A20EE70
:102F3000200AFFF704FCBDE81040FFF7A8BBBDE87E
:102F4000104080E710BD2DE9F0413D4B2DED028B87
:102F50009878401FF52801D8012400E00024187952
:102F6000401FF52801D8012700E000271878C10686
:102F70000CD541060AD5810608D5010606D52CB127
:102F8000BDEC028B0020BDE8F0415FE55A785107A7
:102F900003D428219FED2B8A02E09FED2B8A142178
:102FA0009846C306244D47F230564FEA40630DD48D
:102FB000002B69DA83064FEA006027D500284FEA24
:102FC000C27029DA90B34FF4E16048E0002B4FEA79
:102FD00080630ADB002B4FEA006021DA00284FEA09
:102FE000C27039DA10B3002039E0002B4FEA0060DC
:102FF00005DB002848DAD00746D014482FE0002827
:1030000039DBD00740D04FF4617028E000283BDA6C
:10301000D00739D00E4822E040B140F246501EE0C1
:10302000002831DAD0072FD00A4818E02CE0000041
:103030007B14AE47E17A743F80000020000000005E
:1030400088010020CDCCCC3ECDCC4C3E7CFCFFFF9B
:10305000BAFAFFFF3EFEFFFFB0B14FF4E170FFF799
:1030600089FD98F80000C1060ED541060CD58106F1
:103070000AD5000608D584BB3FB1286AB04204D007
:103080000020FFF7E3FC00E03CBB98F8021040464C
:1030900005290DD24278D2070AD0286AB0424FF0F3
:1030A000000002D0B6EE000A12E0B0EE480A0FE0CF
:1030B000FA2913D998F80100C0070FD0286AB04246
:1030C0004FF0000002D0BEEE000A01E0B1EE480A67
:1030D000BDEC028BBDE8F04148E5FFE7BDEC028B9B
:1030E000BDE8F041CBE470B5FC486424FC4B866E2F
:1030F00000F18002711C81660146CD6E0021642EB4
:1031000003D25E893544C56604E0B5FBF4F59562EB
:103110008166C166066F751C0567F04D642E6D6F84
:1031200003D21E893544456704E0B5FBF4F5D5624A
:1031300001674167866F751C8567E84D642EED6FEA
:1031400003D29C892C44C46704E0B5FBF4F45463B7
:103150008167C1671468601C1060E0488030782C7B
:10316000406803D2DC892044506005E07824B0FB3D
:10317000F4F01160516010639568681C9060D74846
:103180008030C4683220322D03D21D882C44D46094
:1031900004E0B4FBF0F491609463D16015696C1C99
:1031A0001461CE4C8034322D646903D25D882C4486
:1031B000546104E0B4FBF0F41161D463516195698A
:1031C0006C1C9461C54C8034322DE46903D298881C
:1031D0002044D06170BDB4FBF0F09161D161106406
:1031E00070BD2DE9F041BD4CBE48803CBE4D617ABA
:1031F0004FF48068871421B101294FF0000211D0EB
:1032000000E00122414603F025FF0022394628460E
:1032100003F020FFB54E2021304603F003FF0225C6
:1032200028B108E0414603F015FF0122EEE760787F
:10323000012800D165724021304603F0F3FE18B931
:103240006078022800D165723946304603F0EAFE04
:1032500018B96078032800D165724146304603F002
:10326000E1FE002803D16078042800D16572BDE832
:10327000F0812DE9F0419E4E0021A6F1880403253E
:103280000B464FF00108A4F58072A36477781846C6
:103290005FEAC77C00D1491C401C3228F8DBA064DF
:1032A000012908D0022908D0032908D0042908D010
:1032B00005290BD00DE055700AE0022002E05570A0
:1032C00001E00420507082F8098002E082F8018059
:1032D0005372FFF7CAF90128D7D1C8E7F0B57F4884
:1032E0008038D0E90716B14200DAC661426AC16986
:1032F000914200DDC2617949002580310A248B6B3F
:103300004C31B34201DA8D7303E00126934202DDB2
:103310008E73CC73F0BDC0691A1A01D4174600E051
:103320005742012F15DD834201DD8E7300E08D735E
:10333000002A00DA524269488265C36D9A4200DD74
:103340008365826D0A2A00DA846590F85800C87394
:10335000F0BD0220FBE76648A0F5C4714278C86959
:10336000130604D44B6A984201DA401C05E0920629
:1033700007D40A6A904204DD401EC861B42006F0FA
:10338000A4BA704770B555488038D0E90C139942FB
:1033900000DA0363D0E90B41A14200DD04634F4929
:1033A000002580310A260A6C4C319A4201DA8D746C
:1033B00003E00123A24202DD8B74CE7470BD046B66
:1033C000101B01D4064600E04642072E16DDA2423D
:1033D00001DD8B7400E08D74002800DA4042C200E9
:1033E0003E48DC2A826501DDDC2202E0142A01DA93
:1033F0001422826590F85800C87470BD0220FBE763
:103400003B48A0F5C471C278086BFA2A04D9CB6A8C
:10341000984201DA401C05E0052A07D24A6B904227
:1034200004DD401E0863642006F04FBA704730B4D4
:103430002A4D029C80359FED2F1AED6AEB1AA342AC
:103440000ADD00EE102A01F56171F8EEC00A00EE07
:10345000101AB8EEC00A11E00ADAC1F5617100EE87
:10346000101A00EE902AB8EEC00AF8EEE00A05E065
:1034700000EE102AF8EEC00A9FED1F0A30BCFFF7DD
:103480007CBB30B4154C029D8034E46AA21A01D48E
:10349000144600E0544204EB4404A400AC4200DDB6
:1034A0002C469FED161A9A4209DD00EE101A04F51B
:1034B00061746142F8EEC00A00EE101A0AE000EEF4
:1034C000101A5B429A42F8EEC00A19DAA4F5617448
:1034D00000EE104AB8EEC00A14E0000080000020A0
:1034E000D4030020000C02400004024000100240FF
:1034F00088010020CDCC4C3E00006144CDCCCC3DB9
:103500009FEDFE0A30BCFFF738BB30B4FC4D029C87
:10351000AD6AEB1A9FEDFB1AA34208DD00EE102AFC
:1035200001F56171C1F10001F8EEC00A06E000EE9C
:10353000102AF8EEC00A06DAA1F5617100EE101A41
:10354000B8EEC00A01E09FEDED0A30BCFFF715BBF5
:1035500030B4EB4C029DE46AA21A01D4144600E098
:10356000544204EB4404A400AC4200DD2C461FEDA1
:103570001D1A9A420ADD00EE101A04F56174F8EE85
:10358000C00A00EE104AB8EEC00A13E05B429A424D
:103590000ADAC4F5617200EE102A00EE901AB8EE55
:1035A000C00AF8EEE00A05E000EE101AF8EEC00AD4
:1035B0001FED2F0A30BCFFF7E0BA30B4D04C029DAB
:1035C000646BA21A01D4144600E0544204EB440494
:1035D000A400AC4200DD2C461FED381A9A4206DDED
:1035E00000EE101AF8EEC00A00EE104A09E000EEF4
:1035F000101A5B429A42F8EEC00A05DA614200EE08
:10360000101AB8EEC00A01E09FEDBF0A30BCFFF708
:10361000B4BA30B4BA4C029D246BA21A01D4144639
:1036200000E0544204EB4404A400AC4200DD2C460C
:103630001FED4E1A9A4207DD00EE101A6142F8EEB5
:10364000C00A00EE101A08E000EE101A5B429A421F
:10365000F8EEC00A04DA00EE104AB8EEC00A01E043
:103660009FEDA90A30BCFFF788BA2DE9F041A44EBE
:103670008446DDE90657706B801AFFF7CDF800EB42
:1036800080004400AC4200DD2C469FEDA00A1FEDF7
:10369000671A706BB8421BDD801A984206DDC4F5CC
:1036A000E16000EE100AB8EEC00A11E05A42904202
:1036B0000EDA00EE101AA4F5E1646046F8EEC00AD6
:1036C00000EE104AB8EEC00ABDE8F041FFF755BA67
:1036D00000EE901A6046F8EEE00AF5E72DE9F041B9
:1036E000874E8446DDE90657306B801A00EB800078
:1036F0004000FFF791F80446A84200DD2C469FEDFC
:10370000830A1FED841A306BB8421ADD801A984282
:103710000EDD00EE101AA4F5E1646046F8EEC00A72
:1037200000EE104AB8EEC00ABDE8F041FFF725BA36
:103730005A42904205DAC4F5E16000EE100AB8EE94
:10374000C00A00EE901A6046F8EEE00AECE731B5E8
:103750006F4C2DED048B94F907004FF46175002830
:1037600014DB94F90700012810DA94F90800002806
:103770000CDB94F90800012808DA9DF8101028469F
:10378000BDEC048BBDE83840FFF7F4B994F90700AD
:103790009FED608B002816DA94F90800002800DA03
:1037A000404206F0AAFD53EC182B06F0C5FC06F0CB
:1037B000C8FD00EE100A94F90800002800DA404223
:1037C000C0EB00101CE094F907009FED549B01280A
:1037D00020DB00BF94F90800002800DA404206F020
:1037E0008CFD53EC192B06F0A7FC06F0AAFD00EEA9
:1037F000100A94F90800002800DA4042A0EB0010FB
:103800009DF8101005EB4000BDEC048BBDE838407E
:10381000FFF754B994F908000028BDDB94F90800BB
:103820000128D7DABDEC048B38BD31B5384C2DED0D
:10383000048B94F907003B4D002814DB94F9070032
:10384000012810DA94F9080000280CDB94F908002C
:10385000012808DA9DF810102846BDEC048BBDE85D
:103860003840FFF787B994F907009FED2F8B0028A8
:1038700017DA00BF94F90700002800DA404206F08A
:103880003CFD53EC182B06F057FC06F05AFD00EEF9
:10389000100A94F90700002800DA4042A0EB00105B
:1038A0001CE094F907009FED229B012820DB00BF5C
:1038B00094F90700002800DA404206F01EFD53ECA0
:1038C000192B06F039FC06F03CFD00EE100A94F9C5
:1038D0000700002800DA4042C0EB00109DF81010ED
:1038E00005EB4000BDEC048BBDE83840FFF7E6B8BF
:1038F00094F908000028BDDB1EE00000000061C450
:10390000000100209A99993E000000000000E14467
:1039100000000020B81E85EB51B89E3FB81E85EB15
:1039200051B89EBF7CFCFFFF9A9999999999A9BFBC
:103930009A9999999999A93F94F908000128B7DAB9
:1039400070E72DE9F041FA4C46250127606C4FF0F5
:10395000140804F19806052828D988E4606C616B86
:1039600056F82000401AFEF757FFA84201DD28460E
:1039700003E04146404500DA0846616C626B56F848
:103980002110CB19934203DDC0B2FFF74EFF09E0CF
:10399000C91B914203DAC0B2FFF7D9FE02E00A2048
:1039A000FFF754F8FEF761FE0028D6D1606C616B1A
:1039B00056F82000081AFEF72FFFB842CEDC56E476
:1039C0002DE9F041DA4C3C250127606C4FF01408DA
:1039D00004F1B006052828D949E4606C216B56F83B
:1039E0002000401AFEF718FFA84201DD284603E038
:1039F0004146404500DA0846616C226B56F82110BA
:103A0000CB19934203DDC0B2FFF7A1FE09E0C91B49
:103A1000914203DAC0B2FFF708FF02E06420FFF72B
:103A200015F8FEF722FE0028D6D1606C216B56F8FF
:103A30002000081AFEF7F0FEB842CEDC17E4BC48BE
:103A400088304078C107BB4803D00022402103F0F2
:103A500001BB0122FAE7B649B548496CE03050F89D
:103A60002100B549C86101207047B149B348496C8C
:103A700050F82100B049C86101207047AC4810B52A
:103A8000AE49436C48314C3011F83320C2750122E5
:103A9000827501EBC3010979C17682761046FEF783
:103AA000D5FF012010BDA249A448496C483850F800
:103AB0002100A149C861012070479D4910B59F4868
:103AC000496C183850F821009B49C8610120FEF765
:103AD000BDFF012010BD964810B59849436C1831C0
:103AE0004C3011F83320C2750122827501EBC301FD
:103AF0000979C17682761046FEF7A8FF012010BD35
:103B00002DE9F05F8A4EDFF838828836DFF824B27C
:103B10007078874CC106A6F13C0A4FF0000770D4BC
:103B200000076ED5DFF8109289F80A700122510261
:103B3000844803F08FFA00224FF40041584603F006
:103B400089FA4546A76406E0FEF78FFD012808D0F4
:103B5000012005F0BAFE0821284603F063FA012887
:103B6000F2D0042005F0B1FEA06C401CA064322805
:103B7000F1DB00224FF48041584603F06BFAA76452
:103B800007E000BFFEF771FD012809D0012005F014
:103B90009CFE0421A846284603F044FA0128F1D0EF
:103BA000042005F092FEA06C401CA0643228F0DBDB
:103BB00001224021584603F04DFAD9F83C00C9F8DB
:103BC00030004D46A76406E0FEF74FFD012807D000
:103BD000012005F07AFEE86B216C08388142F3DBA6
:103BE000A06C401CA0643228F5DB41F2883005F05F
:103BF0006CFE01229103D946584603F02BFAA764C4
:103C000007E07EE0FEF731FD012808D0012005F035
:103C10005CFE1021404603F005FA0128F2D0042092
:103C200005F053FEA06C401CA0643228F1DB00229A
:103C30004021484603F00EFA40F6B83005F045FE44
:103C4000FFF749FF00224FF48041484603F002FA93
:103C50000221484603F0E6F9012803D0FFF723FFCD
:103C6000A7640AE0FFF729FFFAE700BFFEF7FDFCB3
:103C7000012808D0012005F028FE0421404603F069
:103C8000D1F90128F2D0042005F01FFEA06C401CE1
:103C9000A0643228F1DBA86B286300224FF40041B6
:103CA000484603F0D7F9A76402E0012005F00DFEB5
:103CB000A86B216C401F8142F7DBA06C401CA06404
:103CC0003228F5DBA06BE969401AFEF7A5FD012853
:103CD000F8DC01224021484603F0BCF942F21070A2
:103CE00000E0012005F0F1FD30784007F9D48AF8B2
:103CF0001B708AF81770A86AE861E86B28630120D6
:103D0000A8720B488830407810F0180F78D10A4D0F
:103D10003E46AF72012251020A4803F09BF900228D
:103D20004FF40041584603F095F94746A66412E067
:103D300000010020000402400000002010020020CA
:103D40000010024000080240FEF78FFC012808D056
:103D5000012005F0BAFD0821384603F063F9012877
:103D6000F2D0042005F0B1FDA06C401CA064322804
:103D7000F1DB4FF4804900224946D846584603F00B
:103D800069F9A6640AE000BFFEF76FFC01280BD0BA
:103D9000012005F09AFD042005F097FD0421384626
:103DA00003F040F90128EFD0A06C401CA064322839
:103DB000F4DB01224021404603F04CF9E86B286314
:103DC000A66406E0FEF751FC012807D0012005F0AB
:103DD0007CFDE86B216C08388142F3DBA06C401C51
:103DE000A0643228F5DB41F2883005F06EFD012237
:103DF000CB464946404603F02DF9B146A66408E09B
:103E000084E000BFFEF731FC012808D0012005F056
:103E10005CFD1021384603F005F90128F2D0A06CB2
:103E2000401CA0643228F4DB002240214646404674
:103E300003F010F940F6B83005F047FDFFF71EFE1D
:103E400000225946304603F005F90221304603F0BE
:103E5000E9F8012805D0FFF7FEFD4E46C4F848906A
:103E600009E0FFF702FEF8E7FEF7FFFB012808D0A4
:103E7000012005F02AFD0421384603F0D3F801287B
:103E8000F2D0042005F021FDA06C401CA064322873
:103E9000F1DBA86B286300224FF4004147464046FF
:103EA00003F0D8F8A66402E0012005F00EFDA86B2F
:103EB000216C08388142F7DB042005F006FDA06C78
:103EC000401CA0643228F2DBA06BE969401AFEF7BF
:103ED000A3FC0128F8DC01224021384603F0BAF89F
:103EE00042F2107005F0F1FCFE4C02E0012005F0FA
:103EF000ECFC20784007F9D48AF81B608AF8176038
:103F0000A86AE861E86B28630120A872BDE8F09F09
:103F10002DE9F05FF34F4FF4004AA7F13C0B78789E
:103F20004FF000084106A7F1880479D4000777D53F
:103F3000A4F58075464685F80A80DFF8AC93002228
:103F40005146484603F086F801225102E74803F043
:103F500081F800224FF48041484603F07BF8A664C4
:103F6000E34E06E0FEF781FB012808D0012005F0B2
:103F7000ACFC0421304603F055F80128F2D00420AF
:103F800005F0A3FCA06C401CA0643228F1DB0022E9
:103F90004021484603F05EF8286C28630122514610
:103FA000484603F057F8C4F8488006E0FEF75DFB8A
:103FB000012808D0012005F088FC5146304603F066
:103FC00031F80128F2D0042005F07FFCA06C401CE1
:103FD000A0643228F1DBC4F8488006E0FEF745FB18
:103FE000012807D0012005F070FC286C216C401FCF
:103FF0008142F3DBA06C401CA0643228F5DB40F664
:10400000B83005F062FC01224021484603F022F856
:1040100001229103484603F01DF8C4F8488008E0E7
:1040200099E000BFFEF721FB012808D0012005F030
:104030004CFC1021304602F0F5FF0128F2D004209C
:1040400005F043FCA06C401CA0643228F1DB002288
:104050004021484602F0FEFF40F6B83005F035FC3E
:1040600000224FF48041484602F0F4FFC4F8488033
:1040700007E000BFFEF7F9FA012808D0012005F09B
:1040800024FC0421304602F0CDFF0128F2D00420A8
:1040900005F01BFCA06C401CA0643228F1DB02215F
:1040A000484602F0BFFF01280DD0FFF7FCFCA86BCB
:1040B0002863FFF710FD00225146484602F0CAFF70
:1040C000C4F8488009E0FFF7F8FCF0E7FEF7CDFA06
:1040D000012808D0012005F0F8FB0821304602F045
:1040E000A1FF0128F2D0042005F0EFFBA06C401CDA
:1040F000A0643228F1DB4646C4F8488002E0012083
:1041000005F0E3FBA86B216C08388142F7DBA06C5B
:10411000401CA0643228F5DBA06BE969401AFEF769
:104120007BFB0128F8DC01224021484602F092FF87
:1041300042F2107000E0012005F0C7FB387840071C
:10414000F9D48BF81B608BF81760A86AE861E86BFC
:1041500028630120A8727878B94610F0480F7CD106
:10416000DFF89081002588F80A505F4F2A465146B3
:10417000384602F06FFF012251025C4802F06AFFEC
:1041800000224FF48041384602F064FF584EA56487
:1041900007E000BFFEF769FA012808D0012005F00A
:1041A00094FB0421304602F03DFF0128F2D00420A8
:1041B00005F08BFBA06C401CA0643228F1DB0022D0
:1041C0004021384602F046FFD8F84000C8F83000D9
:1041D000454601225146384602F03CFF4FF00008A8
:1041E000C4F8488007E000BFFEF73FFA012809D075
:1041F000012005F06AFB4FF40041304602F012FF47
:104200000128F1D0042005F060FBA06C401CA064E4
:104210003228F0DBC246C4F8488006E0FEF725FAF3
:10422000012807D0012005F050FB286C216C401FAD
:104230008142F3DBA06C401CA0643228F5DB40F621
:10424000B83005F042FBB84601224021404602F05A
:1042500001FF01229103384600E0A5E002F0FAFEDA
:104260005746C4F848A006E0FEF7FFF9012808D039
:10427000012005F02AFB1021304602F0D3FE012870
:10428000F2D0042005F021FBA06C401CA064322871
:10429000F1DB00224021404602F0DCFE40F6B8305F
:1042A00005F013FB00224FF48041404602F0D2FE9D
:1042B000A76406E0FEF7D9F9012808D0012005F02F
:1042C00004FB0421304602F0ADFE0128F2D00420A8
:1042D00005F0FBFAA06C401CA0643228F1DB002240
:1042E0000AE00000880100200004024000080240AB
:1042F00000100240000000204FF40041404602F050
:10430000A9FE0221404602F08DFE012807D0FFF7EA
:10431000A2FBA86B2863FFF7B1FBA76405E0FFF7DA
:10432000A4FBF6E7012005F0D0FA0821304602F0A0
:1043300079FE0128F6D0042005F0C7FAA06C401CD5
:10434000A0643228F1DBA76402E0012005F0BDFA89
:10435000A86B216C08388142F7DBA06C401CA0647C
:104360003228F5DBA06BE969401AFEF755FA0128FF
:10437000F8DC01224021404602F06CFE42F210704F
:1043800005F0A3FA4C4602E0012005F09EFA2078E1
:104390004007F9D48BF81B708BF81770A86AE86196
:1043A000E86B28630120A872B0E5F0B5FE480178FB
:1043B0004FF003025FEAC17C4FF002034FF00104AB
:1043C0004FF000054FF0FF366FF00107A0F1060136
:1043D0006FF0020E10D190F800C05FEA8C7C0BD514
:1043E00090F800C05FEA4C7C06D590F800C05FEA08
:1043F0000C7C01D5CA7183E090F800C05FEACC7CE8
:1044000010D190F800C05FEA8C7C0BD490F800C00B
:104410005FEA4C7C06D590F800C05FEA0C7C01D5C1
:10442000CB716DE090F800C05FEACC7C10D090F8C2
:1044300000C05FEA8C7C0BD490F800C05FEA4C7C33
:1044400006D590F800C05FEA0C7C01D5CC7157E02E
:1044500090F800C05FEACC7C10D090F800C05FEA12
:104460008C7C0BD490F800C05FEA4C7C06D490F8AA
:1044700000C05FEA0C7C01D5CD7141E090F800C02E
:104480005FEACC7C10D090F800C05FEA8C7C0BD542
:1044900090F800C05FEA4C7C06D490F800C05FEA58
:1044A0000C7C01D5CE712BE090F800C05FEACC7C8B
:1044B00010D090F800C05FEA8C7C0BD590F800C05B
:1044C0005FEA4C7C06D490F800C05FEA0C7C01D413
:1044D000CF7115E090F800C05FEACC7C10D090F866
:1044E00000C05FEA8C7C0BD590F800C05FEA4C7C82
:1044F00006D590F800C05FEA0C7C01D481F807E093
:1045000090F800C05FEACC6C10D490F800C05FEA6D
:104510008C6C0BD590F800C05FEA4C6C06D590F817
:1045200000C05FEA0C6C01D50A72F0BD0278D206B9
:104530000AD40278920607D40278520604D502788B
:10454000120601D50B72F0BD0278D2060AD50278A8
:10455000920607D40278520604D50278120601D5D5
:104560000C72F0BD0278D2060AD50278920607D402
:104570000278520604D40278120601D50D72F0BDFD
:104580000278D2060AD50278920607D5027852063A
:1045900004D40278120601D50E72F0BD0278D2065C
:1045A0000AD50278920607D50278520604D402781A
:1045B000120601D40F72F0BD0278D206FBD5027844
:1045C0009206F8D502785206F5D500780006F2D4A6
:1045D00081F808E0F0BD2DE9F047DFF8D0814FF019
:1045E0000006A8F5C47598F80100800750D44FF074
:1045F000010985F8019005F580746E726C4FA66410
:1046000007E000BFFEF731F8012808D0012005F0CF
:104610005CF92021384602F005FD0128F2D0A06C9B
:10462000401CA0643228F4DB01221102614802F030
:1046300011FD41F2707005F048F9DFF87CA101220C
:10464000D102504602F006FD01228021504602F0C0
:1046500001FD4FF4FA6005F038F90320687085F821
:1046600009904FF48059A66407E000BFFDF7FDFFF5
:10467000012808D0012005F028F94946384602F003
:10468000D1FC0128F2D0A06C401CA0643228F4DBDD
:1046900098F80000C00702D1022068706E72BDE871
:1046A000F0872DE9F04F2DED068B83B0FDF750FB21
:1046B0009FED428AB0EE481ADFED418A3C20F0EED1
:1046C000680A9FED400AFEF758FA384C0025883CEE
:1046D00041F27C57DFF8DCA040F6B8364FF40078A2
:1046E000A5640FE0FCF7D0F9B04204DD0122414699
:1046F000504602F0AFFCFDF7B8FF012806D00120BC
:1047000005F0E3F8FCF7C0F9B842EBDBA06C401C05
:10471000A0643228F6DBFAEE040A9FED2B1A502033
:104720009FED2A0AFEF729FA1F4E42F21078B61FB3
:1047300041F28839A5640DE0FCF7A6F9484501DD92
:10474000012070707572FDF790FF012806D00120DE
:1047500005F0BBF8FCF798F94045EDDBA06C401C78
:10476000A0643228F6DBB0EE481A9FED199AF9EEF4
:10477000040A7820B0EE490AFEF7FFF949F6404BEB
:10478000A56406E0FDF771FF012806D0012005F0C1
:104790009CF8FCF779F95845F4DBA06C401CA06448
:1047A0003228F6DB16E00000060000208801002019
:1047B000001002400008024000040240CDCCCC3D75
:1047C0000000000000C0A844CDCC4C3E0000614475
:1047D00000805444B0EE481AF9EE040A1E20B0EEF0
:1047E000490AFEF7CAF94AF6C879A56407E000BF8E
:1047F000FDF73BFF012806D0012005F066F8FCF725
:1048000043F94845F4DBA06C401CA0643228F6DB79
:10481000A56406E0FDF729FF012805D0012005F079
:1048200054F8606B6628F5DCA06C401CA06432284C
:10483000F7DB01221102FE4802F00CFCB0EE481A30
:10484000F1EE040A14209FEDFB0AFEF796F9AA4642
:10485000A564F94D07E000BFFDF707FF01280FD061
:10486000012005F032F84FF40051284602F0DAFB3F
:104870000128F1D08021284602F0D4FB0128EBD09A
:10488000A06C401CA0643228EDDB4FF4FA7005F0F8
:104890001CF80020FEF7DAF8B0EE680AB0EE481A0D
:1048A000F0EE400A0F20FEF768F94FF4FA6005F0C9
:1048B0000CF80020FEF7CAF8DFF8809305E000BF8F
:1048C000FEF741FB012005F000F899F80000000711
:1048D000F6D40122D102DA4802F0BCFB0122802189
:1048E000D74802F0B7FB40F6C41004F0EEFFD548FD
:1048F00003215646417001214172C4F848A006E0E8
:10490000FDF7B3FE012809D0012004F0DEFF4FF4CB
:104910008051C94802F086FB0128F1D0A06C401CF0
:10492000A0643228F3DBFDF713FA35464AF2104A49
:10493000A66411E014217820CDE9000103234C2264
:104940006FF004016420FEF790FEFDF78EFE012853
:1049500006D0012004F0B9FFFCF796F85045E9DBDA
:10496000A06C401CA0643228F6DB4DF2D866A5642A
:1049700010E014216420CDE9000101234C22991F8D
:104980002820FEF772FEFDF770FE012806D00120F8
:1049900004F09BFFFCF778F8B042EADBA06C401C07
:1049A000A0643228F6DBA749022048700020487234
:1049B000A06410E014215020CDE9000101234C2215
:1049C000991F0F20FEF751FEFDF74FFE012805D07D
:1049D000012004F07AFFA06A5928EBDC012004F0E2
:1049E00074FFA06C401CA0643228F4DB0020FEF7AA
:1049F0002DF84D4605E000BFFEF7A5FA012004F0B2
:104A000064FF28780007F7D4002280218C4802F048
:104A100021FB40F2DC5004F058FFFDF799F94FF00C
:104A20000009C4F848901BE0FCF72EF8B0F57A6F47
:104A300005DD00224FF480717D4802F00BFB14214C
:104A40006420CDE9000102234C22D91F2820FEF763
:104A50000CFEFDF70AFE012806D0012004F035FF08
:104A6000FCF712F84045DFDBA06C401CA064322844
:104A7000F6DB002043F6A409A06410E014215020C6
:104A8000CDE9000101234C22991F1120FEF7EDFD15
:104A9000FDF7EBFD012806D0012004F016FFFBF71F
:104AA000F3FF4845EADBA06C401CA0643228F6DB2B
:104AB0000020A06410E014215020CDE90001012362
:104AC0004C22991F0C20FEF7D0FDFDF7CEFD0128EA
:104AD00005D0012004F0F9FEA06A2728EBDC0120B4
:104AE00004F0F3FEA06C401CA0643228F4DB00202C
:104AF000FDF7ACFF05E000BFFEF725FA012004F04A
:104B0000E4FE28780007F7D400224FF400614C48F7
:104B100002F0A0FA40F2DC5004F0D7FEFDF718F9DD
:104B2000B0EE481AF0EE680A3C20DFED479AB0EE8E
:104B3000690AFEF722F80020A06406E0FDF795FD63
:104B4000012808D0012004F0C0FEFBF79DFF41F2D0
:104B50007C518842F2DBA06C401CA0643228F4DB5C
:104B6000B0EE481A9FED399AF0EE680A3C20B0EE9C
:104B7000490AFEF702F80027A76406E0FDF775FD75
:104B8000012808D0012004F0A0FEFBF77DFF42F6CB
:104B900004118842F2DBA06C401CA0643228F4DBD4
:104BA0000A20FDF753FFFDF7D3F8B0EE481AF2EEF6
:104BB0000E0A3C20B0EE680AFDF7DFFF4FF0640BF1
:104BC000A76419E0FBF760FF49F64041884202DD27
:104BD0001C49012048701B480A23B6224772002155
:104BE0006420CDF800B0FEF7E8FCFDF73EFD01289B
:104BF00006D0012004F069FEFBF746FFB042E1DB7E
:104C0000A06C401CA0643228F6DBA7640EE0642090
:104C100000900423B62200213C20FEF7CEFCFDF7D5
:104C200024FD01281AD0012004F04FFE10E00000FE
:104C30000008024000802244001002408801002049
:104C4000000402400000002000007AC4000061C49B
:104C5000FBF71AFF4FF6E85B5845D8DBA06C401C09
:104C6000A0643228E2DB0020FE4FA0640EE050205A
:104C700000900323B62200211420FEF79EFCFDF7CE
:104C8000F4FC012808D0012004F01FFE0221384660
:104C900002F0C8F90128EAD0A06C401CA0643228B8
:104CA000F4DB0020A0640EE0502000900223B62226
:104CB00000211120FEF781FCFDF7D7FC012808D068
:104CC000012004F002FE0121384602F0ABF9012870
:104CD000EAD0A06C401CA0643228F4DB4FF496604C
:104CE00004F0F3FD0020FDF7B1FEFDF731F8B0EE62
:104CF000481AF0EE680A0F209FEDDBAAB0EE4A0AD0
:104D0000FDF73BFF0020A0640BE001221102D74811
:104D100002F0A0F9FDF7A9FC01280FD0012004F052
:104D2000D4FD4FF40051384602F07CF90128ECD054
:104D30008021384602F076F90128E6D0A06C401CAC
:104D4000A0643228EDDB4FF47A7004F0BEFD002041
:104D5000FDF77CFE0F210020FDF70CFF40F6C4108C
:104D600004F0B3FD0020FDF771FE04E0FEF7EBF860
:104D7000012004F0AAFD28780007F7D40122D1020F
:104D8000BB4802F067F901228021B94802F062F9BC
:104D90004FF4FA6004F099FDB648032141700121F7
:104DA00041720020A06406E0FDF75FFC012809D0F5
:104DB000012004F08AFD4FF48051AA4802F032F934
:104DC0000128F1D0A06C401CA0643228F3DBFCF772
:104DD000BFFF0027A76411E064217820CDE900011E
:104DE0000323AF226FF004016420FEF73EFCFDF7C1
:104DF0003CFC012806D0012004F067FDFBF744FECF
:104E00005045E9DBA06C401CA0643228F6DBA764A7
:104E10000FE06420009001230190AF22991F282009
:104E2000FEF723FCFDF721FC012806D0012004F049
:104E30004CFDFBF729FEB042EBDBA06C401CA064EC
:104E40003228F6DB8B480221417000214172642731
:104E5000A1640FE05021CDE900170123AF22991F73
:104E60001120FEF702FCFDF700FC012805D001200F
:104E700004F02BFDA06A5928ECDC012004F025FD8C
:104E8000A06C401CA0643228F4DB0020FDF7DEFD9E
:104E900005E000BFFEF757F8012004F016FD287862
:104EA0000007F7D400228021714802F0D3F840F2C5
:104EB000DC5004F00AFDFCF74BFF00204746A064DD
:104EC0001BE000BFFBF7E0FDB0F57A6F05DD0022C7
:104ED0004FF48071654802F0BDF864200090022311
:104EE0000190AF22D91F2820FEF7BFFBFDF7BDFBC5
:104EF000012806D0012004F0E8FCFBF7C5FDB8420C
:104F0000E0DBA06C401CA0643228F6DB00204FF0F0
:104F10005008A0640FE06420CDE900800123AF2297
:104F2000991F1120FEF7A1FBFDF79FFB012806D07A
:104F3000012004F0CAFCFBF7A7FD4845EBDBA06CA1
:104F4000401CA0643228F6DB0020A06410E064213D
:104F50005020CDE900010223AF22D91F0C20FEF71B
:104F600084FBFDF782FB012805D0012004F0ADFC95
:104F7000A06A2728EBDC012004F0A7FCA06C401CF1
:104F8000A0643228F4DB0120FDF760FD05E000BFDE
:104F9000FDF7D9FF012004F098FC28780007F7D42A
:104FA00000224FF40061324802F054F840F2DC5025
:104FB00004F08BFCFCF7CCFEB0EE481AF0EE680A69
:104FC0003C20B0EE690AFDF7D8FD0021A046A1649F
:104FD00041F27C5407E000BFFDF747FB012806D0F3
:104FE000012004F072FCFBF74FFDA042F4DBD8F87F
:104FF0004800401CC8F848003228F4DBB0EE481ADC
:10500000F0EE680A3C20B0EE490AFDF7B6FD00213B
:1050100042F60414C8F8481007E000BFFDF725FB6E
:10502000012806D0012004F050FCFBF72DFDA04222
:10503000F4DBD8F84800401CC8F848003228F4DBFC
:105040000A20FDF703FDFCF783FEB0EE481AF2EEEE
:105050000E0A3C20B0EE680AFDF78FFD002049F6ED
:10506000404409E000100240000048C4000802402B
:105070000004024000000020C8F8480019E000BF0A
:10508000FBF702FDA04202DDF94901204870F84912
:1050900000200823487264204FF48C720021009095
:1050A000FEF78BFAFDF7E1FA012808D0012004F0A1
:1050B0000CFCFBF7E9FC4DF6C0218842E0DBD8F898
:1050C00048004146401CC8F848003228F1DB002067
:1050D0000C464FF48C7888640EE064200090042322
:1050E000424600213C20FEF768FAFDF7BEFA01288F
:1050F00006D0012004F0E9FBFBF7C6FC5845ECDBC9
:10510000A06C401CA0643228F6DB00204FF0500B4E
:10511000DFF86083A0640FE003234FF48C7200215A
:105120001420CDF800B0FEF748FAFDF79EFA0128EA
:1051300008D0012004F0C9FB0221404601F072FFB3
:105140000128E9D0A06C401CA0643228F4DB0021C7
:10515000A1640FE05020009002234FF48C720021D4
:105160001120FEF72AFAFDF780FA012808D0012065
:1051700004F0ABFB0121404601F054FF0128E9D0C7
:10518000A06C401CA0643228F4DB4FF4966004F05D
:105190009CFB0020FDF75AFCFCF7DAFDB0EE481A44
:1051A000F0EE680A0F20B0EE4A0AFDF7E6FC002197
:1051B0004FF4005BA1640BE001221102AE4801F044
:1051C00049FFFDF752FA01280ED0012004F07DFBC3
:1051D0005946404601F026FF0128EDD08021404687
:1051E00001F020FF0128E7D0A16C491CA1643229FD
:1051F000EEDB4FF47A7004F068FB0020FDF726FC2C
:105200000F210020FDF7B6FC40F6C41004F05DFB52
:105210000020FDF71BFC04E0FDF795FE012004F0E3
:1052200054FB28780007F7D4DFF850B20122D102EE
:10523000584601F00FFF01228021584601F00AFF75
:105240004FF4FA6004F041FB8948032141700121C9
:1052500041720020A06406E0FDF707FA012809D09A
:10526000012004F032FB4FF48051404601F0DAFE99
:105270000128F1D0A06C401CA0643228F3DBFCF7BD
:1052800067FDB0EE481AF2EE0E0A2820DFED7C8AA8
:10529000B0EE680AFDF771FC0020A06412E0C8219E
:1052A0007820CDE90001032340F211126FF00E01C6
:1052B0006420FEF7DAF9FDF7D8F9012806D00120BD
:1052C00004F003FBFBF7E0FB5045E8DBA06C401C5F
:1052D000A0643228F6DB4FF0000AC4F848A012E0C0
:1052E000C8216420CDE90001012340F211126FF0C2
:1052F0000E012820FEF7B9F9FDF7B7F9012806D00D
:10530000012004F0E2FAFBF7BFFBB042E8DBA06C3F
:10531000401CA0643228F6DB5548022156464170F5
:1053200080F809A0C4F848A04FF0C80A11E0502145
:10533000CDE9001A012340F211126FF00E01112085
:10534000FEF793F9FDF791F9012805D0012004F04B
:10535000BCFAA06A5928EADC012004F0B6FAA06C75
:10536000401CA0643228F4DB0020FDF76FFB04E052
:10537000FDF7E9FD012004F0A8FA28780007F7D42A
:10538000002280213D4801F065FE40F2DC5004F02F
:105390009CFAFCF7DDFCBB465746A6641DE000BF47
:1053A000FBF772FBB0F57A6F05DD00224FF48071D8
:1053B000314801F04FFE6420CDE90007022340F29E
:1053C00011126FF013012820FEF74FF9FDF74DF988
:1053D000012806D0012004F078FAFBF755FB584568
:1053E000DEDBA06C401CA0643228F6DBCA464FF01E
:1053F000500940F2111BA6640FE0CDE9009701238C
:105400005A466FF013011120FEF72FF9FDF72DF921
:10541000012806D0012004F058FAFBF735FB50456F
:10542000EBDBA06C401CA0643228F6DB6FF0130AA3
:10543000A6640EE0CDE9009701235A4651460C20A0
:10544000FEF713F9FDF711F9012805D0012004F04A
:105450003CFAA06A2728EDDC012004F036FAA06CA3
:10546000401CA0643228F4DB0120FDF7EFFA0EE0C7
:10547000000000200010024000080240000402402A
:105480000000E144FDF75FFD012004F01EFA2878DA
:105490000007F7D4F84D00224FF40061284601F0D0
:1054A000D9FD40F2DC5004F010FAFCF751FCB0EEEC
:1054B000481AF2EE0E0A3C20B0EE690AFDF75DFBD9
:1054C000A9464FF47A6741F27075A66410E000BFF8
:1054D000FBF7DAFAB84204DD01224021484601F028
:1054E000B9FDFDF7C2F8012806D0012004F0EDF95E
:1054F000FBF7CAFAA842EBDBA06C401CA064322880
:10550000F6DBDE4D04204FF00109687085F8099044
:1055100047464FF48068A66407E000BFFDF7A5F892
:10552000012808D0012004F0D0F94146384601F0A6
:1055300079FD0128F2D0A06C401CA0643228F4DB75
:10554000FCF706FCCD4F3C218037386C00F5E1704C
:105550004042FDF70FFB00219FEDC90A40F23A706F
:10556000FDF7CBFA4FF4E16807E000BFFDF77DF8E7
:10557000012805D0012004F0A8F9386C4045F5DB7E
:10558000B0EE481AF0EE680A2820B0EE490AFDF79E
:10559000F4FAA66407E000BFFDF767F8012806D01B
:1055A000012004F092F9606B396E8842F4DCA06C43
:1055B000401CA0643228F6DB0020FDF747FA85F88E
:1055C000009003B0BDEC068BBDE8F08F2DE9F043F1
:1055D0002DED048B81B0FCF7BBFBDFEDAA8AB0EEAA
:1055E000681A9FEDA98A7820F0EE480A9FEDA79AE5
:1055F000B0EE490AFDF7C1FAA54C0025A4F18007D9
:105600004FF03209DFF87482A24EA5640DE000BFAE
:10561000C7F85C90D8F82810C8F81C10FDF725F8DA
:10562000012806D0012004F050F9FBF72DFAB04212
:10563000EEDBA06C401CA0643228F6DBB0EE681AEA
:10564000F0EE480A3C20B0EE490AFDF796FAA56450
:1056500007E000BFFDF709F8012805D0012004F09C
:1056600034F9E06AB428F5DCA06C401CA064322850
:10567000F7DB0020FDF7EAF9FCF76AFBB0EE681AE9
:10568000F0EE480A28209FED840AFDF776FAA5641B
:10569000FCF7EBFF012807D0012004F016F9A06CFD
:1056A000401CA0643228F3DBA56406E0FCF7DDFFB4
:1056B000012805D0012004F008F9E06A5C28F5DC37
:1056C000A06C401CA0643228F7DBFCF741FB782675
:1056D00040F2267942F21078A5640DE002235722A9
:1056E00049461E200096FDF733FFFCF7BEFF012858
:1056F00006D0012004F0E9F8FBF7C6F94045EDDBE0
:10570000A06C401CA0643228F6DBA564604DB03567
:105710000DE00223572249461E200096FDF718FF90
:10572000FCF7A3FF012806D0012004F0CEF828687A
:10573000216B8842EDDBA06C401CA0643228F6DBB4
:105740000120FDF783F9C820F86501B0BDEC048B9A
:10575000BDE8F0832DE9F047FCF7FAFA9FED4F1A08
:10576000DFED4F0A50209FED4F0AFDF706FA484C37
:10577000002641F288354FF40078DFF82C91DFF8ED
:10578000F8A04FF4FA57A66415E000BFFBF77CF9C8
:10579000A84204DD01224146484601F05BFC01229B
:1057A0004021504601F056FCFCF75FFF012806D06F
:1057B000012004F08AF8FBF767F9B842E6DBA06C39
:1057C000401CA0643228F6DB00219FED2D0A40F238
:1057D0003A70FDF792F9294D4FF4E167803506E004
:1057E000FCF743FF012805D0012004F06EF8286C77
:1057F000B842F5DB1E209FED2D1ADFED2D0A9FED3F
:105800002D0AFDF7BAF9A66407E000BFFCF72DFFEB
:10581000012806D0012004F058F8606B296E8842F8
:10582000F4DCA06C401CA0643228F6DBFFF7CEFE4F
:10583000BDE8F0470020FDF709B92DE9F04F2DED47
:10584000068B83B0FCF784FA9FED0E8ADFED148A95
:105850003C20B0EE481AF0EE680A9FED160AFDF7FC
:105860008CF90B4C002640F6B835DFF83C904FF42D
:1058700000786F00A6642FE00004024000000020C2
:105880009A99193FCDCCCC3D00C0E4440000E1C45E
:1058900000010020A009010000409C44CDCC4C3EFA
:1058A0000000000000C0C1C4000802409A9999BEDF
:1058B0000000E64400C0A8C4FBF7E6F8A84204DDF7
:1058C00001224146484601F0C5FBFCF7CEFE012807
:1058D00006D0012003F0F9FFFBF7D6F8B842EBDB66
:1058E000A06C401CA0643228F6DB9FEDFC1AFAEE97
:1058F000040A50209FEDFA0AFDF73FF94FF0010A24
:10590000F84F41F2883B43F69828A6640EE000BFAA
:10591000FBF7BAF8584501DD87F801A07E72FCF765
:10592000A4FE012806D0012003F0CFFFFBF7ACF85E
:105930004045EDDBA06C401CA0643228F6DBB0EEE5
:10594000481AF1EE040A78209FEDE79AB0EE490A72
:10595000FDF713F94AF6C878A66406E0FCF785FE61
:10596000012806D0012003F0B0FFFBF78DF8404579
:10597000F4DBA06C401CA0643228F6DBB0EE481AC1
:10598000F1EE040A1E20B0EE490AFDF7F6F84CF2DB
:105990005038A66407E000BFFCF767FE012806D078
:1059A000012003F092FFFBF76FF84045F4DBA06C99
:1059B000401CA0643228F6DBA66406E0FCF755FE26
:1059C000012805D0012003F080FF206B5028F5DC72
:1059D000A06C401CA0643228F7DB01221102C348EE
:1059E00001F038FBB0EE481AF1EE040A14209FEDE6
:1059F000C00AFDF7C2F8B046A664BE4E07E000BF7D
:105A0000FCF733FE01280FD0012003F05EFF4FF4B6
:105A10000051304601F006FB0128F1D080213046CC
:105A200001F000FB0128EBD0A06C401CA0643228E0
:105A3000EDDB4FF4FA7003F048FF0020FDF706F8A5
:105A4000B0EE680AB0EE481AF0EE400A0F20FDF7FB
:105A500094F840F6B83003F038FF0020FCF7F6FF6A
:105A6000A54D04E0FDF76FFA012003F02EFF287822
:105A70000007F7D4DFF884920122D102484601F0F2
:105A8000E9FA01228021484601F0E4FA4FF4FA6075
:105A900003F01BFF934803214746417001214172E7
:105AA000C4F8488007E000BFFCF7DFFD012809D0FB
:105AB000012003F00AFF4FF480518E4801F0B2FA42
:105AC0000128F1D0A06C401CA0643228F3DBFCF765
:105AD0003FF93E46A7644FF014084AF210470FE022
