:020000040800F2
:10000000A07B0020C96900084502000847020008DB
:100010004B0200084F0200085302000800000000D5
:100020000000000000000000000000009D0100082A
:100030005702000800000000E1010008E3990008F1
:10004000E3690008E3690008E3690008E369000860
:10005000E3690008E3690008E3690008E369000850
:10006000A5040008E9040008E36900081903000872
:10007000FB02000857030008E36900087502000846
:10008000E369000881020008E3690008E3690008E9
:10009000E3690008E3690008E3690008E369000810
:1000A000E3690008C1030008ED030008E3690008E4
:1000B000EF0300081D04000849040008E369000874
:1000C000E3690008E3690008E3690008A104000887
:1000D000E36900085D020008E3690008E3690008BD
:1000E000E3690008E3690008E3690008E3690008C0
:1000F000E3690008E3690008E369000833030008C6
:10010000E3690008E369000875040008A304000817
:10011000E3690008E3690008930300089F030008EF
:10012000E36900089B020008CD020008E3690008AB
:10013000E3690008E3690008E3690008E36900086F
:10014000E3690008E3690008E3690008E36900085F
:10015000ED020008E3690008E3690008E3690008AC
:10016000E3690008E3690008E3690008E36900083F
:10017000E3690008E3690008E3690008E36900082F
:10018000E3690008E3690008DFF80CD00AF08CFF8F
:1001900000480047D9660008A07B0020234B19685F
:1001A0000868B0E8F04F80F309884FF0000080F352
:1001B000118870470000000003480068006880F361
:1001C000088862B600DF00BF08ED00E0DFF80C0031
:1001D000016841F470010160704700BF88ED00E0E4
:1001E000EFF30980114B1A681EF0100F08BF20EDC5
:1001F000108A20E9F04F106008B54FF0140080F32A
:10020000118809F0B6FF4FF0000080F31188BDE8B7
:10021000084019680868B0E8F04F1EF0100F08BFDA
:10022000B0EC108A80F30988704700BF7404002086
:10023000EFF311804FF0140181F31188704780F3C0
:1002400011887047704700BFFEE700BFFEE700BFA0
:10025000FEE700BFFEE770477047704710B540F2F9
:100260002551A24808F0D1FC18B120219F4808F080
:10027000C3FC10BD10B59E499E4807F0FBFB10BDA6
:1002800010B59D499B48303007F0CAFB20B19A4910
:100290009848303007F0EEFB10BD10B597499848EC
:1002A00007F0BEFB88B19549954807F0E3FB01F0E4
:1002B000CAFD0021924807F009FB0421904807F08D
:1002C00026FB01218E4807F001FB10BD10B58D49BA
:1002D0008B48183007F0CEFB8B4840788A49097864
:1002E00040EA012000B28949088010BD10B5884954
:1002F0008348603007F0BEFB10BD10B57F497D48D4
:10030000483807F08DFB30B17C497A48483807F00F
:10031000B1FB00F0B7FA10BD10B57E4975486038E2
:1003200007F07EFB20B17B497248603807F0A2FBE2
:1003300010BD10B578496F48483007F071FB48B1DF
:1003400000216C48483007F0C1FA734969484830C9
:1003500007F090FB10BD10B56A496648303807F0C9
:100360005FFBA8B167496348303807F083FB01F0B1
:100370001CFC00215F48303807F0A8FA05215D48D1
:10038000303807F0C4FA01215A48303807F09EFA95
:1003900010BD10B50121614808F094F910BD10B5E9
:1003A00001215F4808F08EF97A20504988800121A8
:1003B0005C4808F039FB01215B4808F035FB10BDB3
:1003C00010B50121594808F07DF95848008800F01F
:1003D000100028B156480068401E5549086004E0E6
:1003E00053480068401C5249086010BD704710B562
:1003F0000121880708F066F94FF08040008800F07E
:10040000100028B14B480068401E4A49086004E0CB
:1004100048480068401C4749086010BD10B50121DC
:10042000454808F04FF94448008800F0100028B112
:1004300042480068401E4149086004E03F480068A7
:10044000401C3E49086010BD10B501213C4808F031
:1004500039F93B48008800F0100028B1394800689D
:10046000401E3849086004E036480068401C3549A1
:10047000086010BD10B50121334808F023F9324857
:10048000008800F0100028B130480068401E2F4955
:10049000086004E02D480068401C2C49086010BD2D
:1004A0007047704710B5042007F07CFBD8B12021BD
:1004B000274806F000FC0421264806F0D7FB012857
:1004C00004D10021164807F07DFC09E004212148F1
:1004D00006F0CCFB20B9124807F078FC1E490860F2
:1004E00004201E49086010BD704700000010014044
:1004F00020800020706002400080202000880010D2
:100500002864024000802010900600208C0000200B
:10051000008800202080001000800028001000408B
:100520000014004000480040001401400000014059
:100530006C000020700000200004004074000020C7
:100540000008004088000020000C004078000020D7
:1005500000000240000C024068000020143C0140F2
:1005600070B5044620460AF0EDF905462146FE48DE
:100570000AF0EFF9A0B195222146FB480AF0D6F91E
:100580000021FA4807F0A2F9F748F8490C31086051
:10059000F648B838C0F8BC500121F44807F096F985
:1005A00070BD70B50446002510E0605D68B1615D06
:1005B000EF4808F064FA00BF8021ED4808F00FFB17
:1005C0000028F9D0681CC5B200E070BDEDE770B539
:1005D000044600250FE05CB12146E54808F04FFADB
:1005E00000BF8021E24808F0FAFA0028F9D000E0C4
:1005F00070BD681CC5B2032DEDDB00BFF8E713B575
:100600000C460020FFF7E3FFDAA0FFF7CAFF2346FE
:10061000D9A29621D9480AF091FDD848FFF7C1FF29
:10062000D7A0FFF7BEFFD4A29621D448009B0AF0C2
:1006300085FDD248FFF7B5FFD3A0FFF7B2FFFF203B
:10064000FFF7C5FFFF20FFF7C2FFFF20FFF7BFFF47
:100650001CBD70B505460C46C6A0FFF7A2FF22469A
:10066000C5A1C6480AF082FDC448FFF79AFFC4A09E
:10067000FFF797FF2846FFF794FFC3A0FFF791FF0E
:10068000FF20FFF7A4FF70BD77B585B00546FF26B4
:10069000BBA103C9CDE90301BBA000680290B5A0CE
:1006A0000068019000240AE00020B8490855B849C4
:1006B0000855B2490855AC490855601CC4B21E2CF7
:1006C000F2DB0A20AD490870FF2048708870C870BE
:1006D000A9A1AF48079A0AF049FDAD4901A80AF05F
:1006E00019F901A9A5480AF015F903A9A3480AF0C8
:1006F00011F92946A1480AF00DF99FA1A448069ACC
:100700000AF034FDA2499D480AF004F902A99B4869
:100710000AF000F9FF209D490870487088709748DA
:100720000AF0F8F89548FFF71BFF08B070BDF7B561
:1007300084B005460E46FF2791A103C9CDE9020109
:1007400091A0006801908BA000680090002408E050
:1007500000208E4908558E49085588490855601C67
:10076000C4B20A2CF4DB0A2084490870FF204870C8
:100770008870C87080A18648069A0AF0F7FC844900
:1007800068460AF0C7F869467C480AF0C3F802A92F
:100790007A480AF0BFF8294678480AF0BBF8314693
:1007A00076480AF0B7F801A974480AF0B3F8FF20B8
:1007B00076490870487088700020C87008716F48CA
:1007C0000AF0A8F86D48FFF7CBFE07B0F0BD01B501
:1007D0008EB070A2322101A80E9B0AF0AFFC01A8D6
:1007E000FFF7BEFE0FB000BD73B584B00546FF260F
:1007F00063A103C9CDE9020163A0006801905DA077
:100800000068009000240AE0002060490855604913
:1008100008555A49085554490855601CC4B21E2C45
:10082000F2DB0A2055490870FF2048708870C870B4
:1008300051A15748059A0AF099FC554968460AF0B3
:1008400069F869464D480AF065F802A94B480AF074
:1008500061F8294649480AF05DF84D4947480AF0D1
:1008600059F801A945480AF055F8FF204749087092
:100870004870887041480AF04DF84048FFF770FE14
:1008800006B070BD1CB54648007845494978084413
:100890004349897808444249C9780844404909795C
:1008A00008443F49497908443D49897908443C490D
:1008B000C97908443A49097A0844C0B201903848D5
:1008C000007A00909DF800000D2803D000213548E3
:1008D00008F0AAF81CBD3248007A0D2806D130482D
:1008E000007800F0010008B10D2070470020FCE7FF
:1008F0002B48007800F0020008B10120704700206A
:10090000FCE730B52DED048B83B0274807F05EFA85
:100910002649096840EA014528460AF0B0F941EC49
:10092000190B9FED230B53EC102B0AF039F941EC16
:10093000180B0AF0B5F9019000244DE01A4807F0B1
:1009400045FA1A49096840EA014528460AF097F92C
:1009500041EC190B9FED160B53EC102B0AF020F90C
:1009600041EC180B28E00000EA050020B8600240C6
:10097000005000407400000025640000B404002012
:100980002E7478743D220000220000009A05002099
:10099000720500206A302E76616C3D2564000000EF
:1009A000CC060020004800400004004074000020F5
:1009B0006666666666A64E400AF072F90290DDE948
:1009C0000121881A002801DB014600E04142052987
:1009D00000DA641C02980190022CAFDB02984042BE
:1009E00003B0BDEC048B30BD30B52DED048B83B06E
:1009F000FE4807F0EBF9FE49096840EA0145284640
:100A00000AF03DF941EC190B1FED170B53EC102BBD
:100A10000AF0C6F841EC180B0AF042F901900024E4
:100A200023E0F24807F0D2F9F149096840EA0145AC
:100A300028460AF024F941EC190B1FED230B53EC67
:100A4000102B0AF0ADF841EC180B0AF029F90290CE
:100A5000DDE90121881A002801DB014600E041425E
:100A6000052900DA641C02980190022CD9DB029857
:100A7000404203B0BDEC048B30BD30B52DED048B8E
:100A800083B04FF0804007F0A1F9DA49096840EAE5
:100A9000014528460AF0F3F841EC190B1FED3C0B19
:100AA00053EC102B0AF07CF841EC180B0AF0F8F824
:100AB0000190002424E04FF0804007F087F9CD49F1
:100AC000096840EA014528460AF0D9F841EC190BBB
:100AD0001FED490B53EC102B0AF062F841EC180B98
:100AE0000AF0DEF80290DDE90121881A002801DB16
:100AF000014600E04142052900DA641C0298019099
:100B0000022CD8DB029803B0BDEC048B30BD1CB5C1
:100B1000B94807F05BF9B949096840EA0140322158
:100B200090FBF1F00090002417E0B34807F04EF975
:100B3000B249096840EA0140322190FBF1F001908E
:100B4000DDE90021881A002801DB014600E041426E
:100B5000322900DA641C01980090022CE5DB01992F
:100B6000002901DB08461CBD4842FCE701B581B005
:100B700000200090019800EBC0004000009002E0CF
:100B80000098401E009000980028F9D10CBD01B5D6
:100B900081B00020009044F25061019848430090D9
:100BA00002E00098401E009000980028F9D10CBD8A
:100BB0001CB501211F2006F03DFA4FF6FF70009092
:100BC00001208DF8040000208DF8060001208DF82A
:100BD000070003208DF805006946894805F0E4FF09
:100BE0004FF6FF70009001208DF8040000208DF872
:100BF000060001208DF8070003208DF805006946E6
:100C0000804805F0D1FF4FF6FF70009001208DF86D
:100C1000040000208DF8060001208DF80700032055
:100C20008DF805006946784805F0BEFF1CBD1CB56F
:100C300001217E2006F0FEF9C020009000208DF8F2
:100C4000040001208DF8070002208DF80500694698
:100C50006E4805F0A9FF0620009000208DF80400E2
:100C600001208DF8070002208DF8050069466448D0
:100C700005F09AFF0420009000208DF80400012068
:100C80008DF8070002208DF8050069465D4805F0E3
:100C90008BFF1CBD1FB54FF4E06005F0A7FE3620AA
:100CA0008DF8000000208DF801008DF80200012071
:100CB0008DF80300684605F09EFE0121102006F025
:100CC000ECF93220ADF8040040F2E7300290002049
:100CD000ADF80C00ADF8060001A94D4807F029F861
:100CE00001214B4807F0EEFC01221146484807F06D
:100CF000C1FC0021464807F065F80121444807F08F
:100D0000A1F81FBD1FB54FF4E06005F06FFE37205E
:100D10008DF8000000208DF801008DF80200012000
:100D20008DF80300684605F066FE0121202006F0DC
:100D3000B4F93220ADF8040040F2E7300290002010
:100D4000ADF80C00ADF8060001A9324806F0F1FF3D
:100D50000121304807F0B6FC012211462D4807F06A
:100D600089FC00212B4807F02DF80121294807F0C4
:100D700069F81FBD00B58BB00121022006F09EF975
:100D800001210C2006F056F9032206211D4805F02A
:100D900096FF032207211B4805F091FF032208213B
:100DA000184805F08CFF03220921164805F087FF3B
:100DB0004FF47070069002208DF81C0003208DF80F
:100DC0001D0000208DF81E0001208DF81F0006A9CF
:100DD0000C4805F0E9FEA420ADF8200040F6B8303C
:100DE00009904FF48070ADF8280015E0000C004029
:100DF00078000020700000200008004088000020DB
:100E00000004024000080240000C024000000240C2
:100E100000100040001400400020ADF8220008A996
:100E2000FE4806F086FF6020ADF804000120ADF812
:100E3000060000200390ADF810000121F74807F0EC
:100E400001F80021F54806F0BDFF01A9F34807F0BD
:100E500005F801A9F14807F03AF801A9EF4807F0B1
:100E600083F801A9ED4807F0E5F80121EB4807F008
:100E7000DAFB0BB000BD00B58BB00121082006F0F5
:100E80000CF90121084606F0D5F802220021E448B9
:100E900005F015FF02220121E14805F010FF0222B2
:100EA0001146DF4805F00BFF02220321DC4805F064
:100EB00006FF0F20069002208DF81C0003208DF8FD
:100EC0001D0000208DF81E0001208DF81F0006A9CE
:100ED000D34805F069FEBA20ADF8200042F2107048
:100EE00009900020ADF82800ADF8220008A9CD48EF
:100EF00006F01FFF6020ADF804000120ADF80600E9
:100F000000200390ADF810000121C64806F09AFFBA
:100F10000021C44806F056FF01A9C24806F09EFF12
:100F200001A9C04806F0D3FF01A9BE4807F01CF88C
:100F300001A9BC4807F07EF80121BA4807F073FB0D
:100F40000BB000BD00B58BB00121042006F0A5F860
:100F500001210D2006F06EF802220C21B24805F0A6
:100F6000AEFE02220D21B04805F0A9FE02220E219C
:100F7000AD4805F0A4FE02220F21AB4805F09FFE0C
:100F80004FF47040069002208DF81C0003208DF86D
:100F90001D0000208DF81E0001208DF81F0006A9FD
:100FA000A14805F001FEA420ADF8200040F6B830BD
:100FB00009904FF48070ADF828000020ADF82200B1
:100FC00008A99A4806F0B5FE6020ADF8040001209B
:100FD000ADF8060000200390ADF810000121934801
:100FE00006F030FF0021914806F0ECFE01A98F4881
:100FF00006F034FF01A98D4806F069FF01A98B486E
:1010000006F0B2FF01A9894807F014F80BB000BD43
:1010100000B589B00121080406F050F80121084606
:1010200006F008F8032211467D4805F048FE032229
:1010300002217B4805F043FE0C20019002208DF830
:10104000080003208DF8090000208DF80A00012017
:101050008DF80B0001A9724805F0A6FD0020ADF83F
:1010600018004FF6FF7007900020ADF82000ADF893
:101070001A0006A96E4806F05CFE0420ADF80C00CC
:101080000020ADF80E00C820ADF814000120ADF826
:10109000100003A9664807F023FA00231A4603212B
:1010A000644807F0BAFB0121624807F00BFB0122FC
:1010B0001146604807F0DEFA01215D4806F0C2FEE5
:1010C00000215C4806F07EFE09B000BD00B589B085
:1010D0000121084605F0E1FF0121022005F0DDFFB6
:1010E0000121032005F0A6FF01220F214C4805F045
:1010F000E6FD01220321504805F0E1FD0222042112
:101100004D4805F0DCFD022205214B4805F0D7FDD6
:101110003820019002208DF8080003208DF8090086
:1011200000208DF80A0001208DF80B0001A942482B
:1011300005F03AFD4FF40040019002208DF80800C0
:1011400003208DF8090000208DF80A0001208DF899
:101150000B0001A9324805F027FD0020ADF818006A
:101160004FF6FF7007900020ADF82000ADF81A0090
:1011700006A94FF0804006F0DCFD06A92F4806F0D6
:10118000D8FD0420ADF80C000220ADF80E001420AC
:10119000ADF814000120ADF8100003A9800707F096
:1011A0009FF903A9254807F09BF902231A4603215A
:1011B000580707F032FB02231A4603211F4807F0A5
:1011C0002CFB0121880707F07DFA01211B4807F05D
:1011D00079FA01221146900707F04CFA01221146D4
:1011E000164807F047FA0121880706F02BFE012177
:1011F000124806F027FE00214FF0804006F0E2FD85
:1012000000210E4806F0DEFD4FF4C06005F0EEFB55
:101210001D208DF80000032012E0000000040140B2
:1012200000000240000C0040000C0240000800409A
:101230000000014000400140000402400004004062
:101240008DF8010000208DF8020001208DF80300C8
:10125000684605F0D0FB1C208DF8000004208DF8B6
:10126000010000208DF8020001208DF8030068467F
:1012700005F0C1FB09B000BD00B589B001210846E9
:1012800005F01CFF0121102005F0D4FE4FF4206072
:10129000019002208DF8080003208DF8090000203D
:1012A0008DF80A0001208DF80B0001A9FE4805F019
:1012B0007BFC01220921FC4805F001FD01220B21E4
:1012C000F94805F0FCFC0020ADF818004FF6FF705F
:1012D00007900020ADF82000ADF81A0006A9F348E9
:1012E00006F027FD0420ADF80C000020ADF80E003C
:1012F0000A20ADF814000120ADF8100003A9EB4856
:1013000007F0EEF800231A460321E84807F085FAB3
:101310000121E64807F0D6F901221146E34807F01B
:10132000A9F90121E14807F0CDF901221146DF4872
:1013300007F0A0F90121DD4806F084FD0021DB481B
:1013400006F040FD4FF4C06005F050FB19208DF809
:10135000000001208DF8010000208DF8020001201E
:101360008DF80300684605F046FB09B000BD00B5E6
:1013700089B00121042005F090FE0121082005F02C
:1013800059FE4FF44050019002208DF808000320D0
:101390008DF8090000208DF80A0001208DF80B005F
:1013A00001A9C34805F000FC0020ADF818004FF675
:1013B000FF7007900020ADF82000ADF81A0006A9D4
:1013C000BC4806F0B6FC02220C21B94805F077FCB7
:1013D00002220D21B64805F072FC0420ADF80C0085
:1013E0000220ADF80E00C820ADF814000120ADF8C1
:1013F000100003A9AF4807F073F802231A4603212F
:10140000AC4807F00AFA0121AA4807F05BF901226B
:101410001146A84807F02EF90121A64806F012FD52
:101420000021A44806F0CEFC0020A2491431088017
:101430000120A04908804FF4C06005F0D7FA1E20B3
:101440008DF8000004208DF8010000208DF80200C6
:1014500001208DF80300684605F0CDFA09B000BD03
:1014600000B589B00121082005F017FE01210846CA
:1014700005F0E0FD0320019002208DF80800032014
:101480008DF8090000208DF80A0001208DF80B006E
:1014900001A9894805F088FB0020ADF818004FF637
:1014A000FF7007900020ADF82000ADF81A0006A9E3
:1014B000824806F03EFC022200217F4805F0FFFB37
:1014C000022201217C4805F0FAFB0420ADF80C0053
:1014D0000220ADF80E00C820ADF814000120ADF8D0
:1014E000100003A9754806F0FBFF02231A460321EA
:1014F000724807F092F90121704807F0E3F80122E1
:1015000011466E4807F0B6F801216C4806F09AFCC7
:1015100000216A4806F056FC002068491431088012
:101520000120664908804FF4C06005F05FFA322060
:101530008DF8000004208DF8010000208DF80200D5
:1015400001208DF80300684605F055FA09B000BD8A
:1015500000B59BB001215A4805F06CFD012108023D
:1015600005F0ACFD002002905648039056480490C8
:101570000020059008200690002007904FF480601E
:1015800008904000099080000A9040110B904002A2
:101590000C9000200D9001200E9000200F901090D4
:1015A00002A94A4806F058F90121484806F08EF988
:1015B0003C20009003208DF8040000208DF80700E7
:1015C00069463D4805F0F0FA3C20009003208DF874
:1015D000040000208DF8070069463D4805F0E4FA54
:1015E0000020119012901390149011A805F09AFE0B
:1015F0004FF08070159001208DF858008DF859003B
:10160000002017901890199008208DF8680015A9EF
:101610002C484C3805F057FE0023012202212948AE
:101620004C3805F0D6FE00230222032125484C3811
:1016300005F0CFFE00230322042122484C3805F098
:10164000C8FE0023042205211E484C3805F0C1FEC7
:10165000002305220C211B484C3805F0BAFE00235C
:1016600006220D2117484C3805F0B3FE002307224F
:101670000E2114484C3805F0ACFE002308220F213F
:1016800010484C3805F0A5FE01210E484C3805F0F5
:101690004BFF01210B484C3805F03BFF0121094865
:1016A0004C3805F056FE15E00010024000000140E5
:1016B000000C02400008004000000240000C004006
:1016C000050040004C2001408006002010640240CC
:1016D00000080240FE484C3805F0D7FE1BB000BDA4
:1016E00008B54FF4E06005F081F925208DF8000081
:1016F00000208DF801008DF8020001208DF8030014
:10170000684605F078F908BD10B596B00446012189
:10171000102005F0D3FC0121084605F08BFC0121C7
:10172000880505F087FC4FF4C060009002208DF81A
:10173000040000208DF806008DF8070002208DF8C7
:1017400005006946E34805F02FFA07220921E14820
:1017500005F0B5FA07220A21DE4805F0B0FA029436
:101760000020ADF80C00ADF80E00ADF81000ADF89B
:1017700014000C20ADF8120002A9D74807F0CCF8ED
:101780000121D54807F050F94FF4A06005F02EF97B
:101790003A208DF8180000208DF819008DF81A00F5
:1017A00001208DF81B0006A805F025F9CB4805F0AF
:1017B000B1FF4FF00060079000200A90C8480990E0
:1017C0000A200B90C448001D089000200C904FF494
:1017D00080600D9000200E900F904FF4807010905C
:1017E00040021190042012900320139000201490C6
:1017F000159007A9B94806F02FF801224021B648F4
:1018000007F0BFF901221021B44806F0ECF80121DD
:10181000B24806F05BF816B010BD10B596B004469D
:101820000121480505F006FC0121480405F035FCBE
:101830000121082005F0FEFB6020009002208DF8B9
:10184000040000208DF806008DF8070002208DF8B6
:1018500005006946A34805F0A7F907220521A1481C
:1018600005F02DFA072206219E4805F028FA029479
:101870000020ADF80C00ADF80E00ADF81000ADF88A
:1018800014000C20ADF8120002A9974807F044F8A4
:101890000121954807F0C8F84FF4A06005F0A6F8BC
:1018A00011208DF8180000208DF819008DF81A000D
:1018B00001208DF81B0006A805F09DF88B4805F067
:1018C00029FF4FF00060079040200A908848099057
:1018D00050200B908448001D089000200C904FF47D
:1018E00080600D9000200E900F904FF4807010904B
:1018F00040021190042012900320139000201490B5
:10190000159007A9794805F0A7FF012280217648A4
:1019100007F037F901228021734807F032F90122DC
:101920001021724806F05FF80121704805F0CEFFE3
:1019300016B010BD10B596B004460121880405F01C
:10194000ACFB0121082005F075FB0121480505F0DD
:1019500071FB4FF44070009002208DF804000020CD
:101960008DF806008DF8070002208DF80500694605
:101970005C4805F019F9072208215A4805F09FF93B
:1019800007220921574805F09AF902940020ADF882
:101990000C00ADF80E00ADF81000ADF814000C20EE
:1019A000ADF8120002A9534806F0B6FF01215148D4
:1019B00007F03AF84FF4A06005F018F80C208DF805
:1019C000180000208DF819008DF81A0001208DF8FC
:1019D0001B0006A805F00FF84448783805F09AFE79
:1019E0004FF00060079000200A90434809900A20B9
:1019F0000B904048001D089000200C904FF4806030
:101A00000D9000200E900F904FF4807010904002C7
:101A10001190042012900320139000201490159030
:101A200007A93248783805F017FF012240213148D4
:101A300007F0A7F8012240212E4807F0A2F8012262
:101A400010212A48783805F0CEFF01212748783840
:101A500005F03CFF16B010BD10B596B0044601214C
:101A6000C80405F01AFB0121042005F0E3FA012166
:101A7000480505F0DFFA4FF44060009002208DF831
:101A8000040000208DF806008DF8070002208DF874
:101A900005006946194805F087F808220A21174809
:101AA00005F00DF908220B21144805F008F90294FD
:101AB0000020ADF80C00ADF80E00ADF81000ADF848
:101AC00014000C20ADF8120002A90D481AE0000025
:101AD0004C200140000002400010014040640240E0
:101AE00090060020000C024000440040A06002402C
:101AF0000400002000480040CC06002000080240FE
:101B0000004C004006F008FF0121FB4806F08CFF66
:101B10004FF4A06004F06AFF0D208DF81800032038
:101B20008DF8190001208DF81A008DF81B0006A809
:101B300004F061FFF14805F0EDFD4FF00060079003
:101B400000200A90EE48099005200B90EA48001DFD
:101B5000089000200C904FF480600D9000200E90B3
:101B60000F9010904FF4003011900020129003203D
:101B7000139000201490159007A9E04805F06CFE22
:101B800001224021DC4806F0FCFF01228021DA48D6
:101B900006F0F7FF01221021D84805F024FF0121AB
:101BA000D64805F093FE16B010BD0CB5002001908C
:101BB0000090D3480078022816D1D1488078D049C7
:101BC000497840EA01200190CD480079CC49C97894
:101BD00040EA01200090BDF80400CA490880BDF821
:101BE0000000C949088004E00420C7490880C549AD
:101BF00008800CBD10B596B004460121480505F0DB
:101C000019FA0121080505F048FA01210C2005F018
:101C100011FA0420009002208DF8040000208DF8B5
:101C200006008DF8070002208DF805006946B748C8
:101C300004F0BAFF4FF48050009002208DF80400A9
:101C400000208DF806008DF8070002208DF80500B1
:101C50006946AF4804F0A8FF08220221AB4805F00E
:101C60002EF808220C21AA4805F029F84FF4A060AC
:101C700004F0BCFE2F208DF8180005208DF8190007
:101C80008DF81A0001208DF81B0006A804F0B3FEA1
:101C900002940020ADF80C00ADF80E00ADF8100075
:101CA000ADF814000C20ADF8120002A9994806F016
:101CB00033FE0121974806F0B7FE9048783005F0D2
:101CC00029FD4FF00060079040200A90924809904B
:101CD00096200B908F48001D089000200C904FF428
:101CE00080600D9000200E900F9010904FF4003007
:101CF0001190002012900320139000201490159052
:101D000007A97E48783005F0A7FD0122802181488F
:101D100006F037FF012210217848783005F063FE85
:101D200001217648783005F0D1FD16B010BD10B510
:101D300096B004460121202005F0C0F901210420BD
:101D400005F078F90121880505F074F9C0200090AC
:101D500002208DF8040000208DF806008DF80700A1
:101D600002208DF805006946694804F01DFF08222D
:101D70000621674804F0A3FF08220721644804F005
:101D80009EFF02940020ADF80C00ADF80E00ADF8F7
:101D90001000ADF814000C20ADF8120002A95F4845
:101DA00006F0BAFD01215D4806F03EFE4FF4A0604A
:101DB00004F01CFE39208DF8180003208DF819005E
:101DC00001208DF81A008DF81B0006A804F013FE00
:101DD000534805F09FFC4FF02060079000200A90C8
:101DE0005048099004200B904C48001D089000209A
:101DF0000C904FF480600D9000200E900F9010908A
:101E00004FF4003011900020129003201390002016
:101E10001490159007A9424805F01EFD01224021AB
:101E20003E4806F0AEFE012280213C4806F0A9FEA5
:101E3000012210213A4805F0D6FD0121384805F06D
:101E400045FD16B010BD0CB500200190009035483E
:101E50000078022812D13348407801903148C07888
:101E60003049897840EA012000909DF804002E490D
:101E70000870BDF800002D49088004E004202A49BC
:101E800008702A4908800CBD00B585B001210820E2
:101E900005F0D0F80121880305F010F900208DF835
:101EA000100001208DF813000C20039003A917489F
:101EB00004F07AFE0221032006F0FCFE04200090CC
:101EC00000208DF8040010208DF8050001208DF809
:101ED0000600684605F000FE08208DF80800002086
:101EE0008DF809008DF80A0001208DF80B0002A87A
:101EF00004F081FD05B000BD004C00404060024090
:101F0000870100208C0100208E010020000C02407F
:101F10000008024000500040EA0500200014014083
:101F200028640240900100209401002096010020C6
:101F300070B504460D46012C0BD12946FE4806F02B
:101F40009EFD00BF4021FC4806F049FE0028F9D064
:101F500028E0032C0BD12946F84806F090FD00BF7D
:101F60004021F64806F03BFE0028F9D01AE0042C88
:101F70000BD12946F24806F082FD00BF4021F0480F
:101F800006F02DFE0028F9D00CE0052C0AD12946D8
:101F9000EC4806F074FD00BF4021EA4806F01FFE41
:101FA0000028F9D070BD0020E7490860E7490860C3
:101FB00070470020E6494862E64908604FF08041DA
:101FC0004862E5490860E5490860E5490860DE497E
:101FD0000860DE490860E3490860E349086070472B
:101FE00000204FF080414862DB49086070470020C4
:101FF000DA490860DA490860704710B50020DB490B
:102000000870002407E061210120FFF791FF3220D2
:10201000FEF7BDFD641C022CF5D30120D3490870E6
:102020007A20D349087010BD10B50020D14908703E
:10203000002407E061210320FFF77AFF3220FEF73A
:10204000A6FD641C022CF5D30120CA4908707A2031
:10205000C949087010BD2DE9F14FAEB0C7A02D9051
:1020600000202C908DF888008DF860002E9815289F
:1020700033D2DFE800F00B333C434A5158616A73B6
:102080007C838A91989FA6FEFDFCFB000221C44838
:1020900004F0ECFD88B100224FF40041C14804F087
:1020A00003FE4FF40041BF4804F0EDFD044600225A
:1020B0002146BDA0FEF7E8FA0FE00122D103B9489E
:1020C00004F0F2FD4FF40041B64804F0DCFD044694
:1020D00000222146BCA0FEF7D7FA71E20122C248D5
:1020E000B0F900004142C1A0FEF7CEFA68E2022238
:1020F000C0480168C0A0FEF7C7FA61E20322C148E8
:102100000168C1A0FEF7C0FA5AE20422C248016881
:10211000C2A0FEF7B9FA53E20522C3480168C3A082
:10212000FEF7B2FA4CE2FEF7ECFB0446062221462B
:10213000C1A0FEF7A9FA43E2FEF756FC04460722C7
:102140002146C0A0FEF7A0FA3AE2FEF796FC04464C
:1021500008222146BEA0FEF797FA31E2FEF7D7FC2F
:10216000044609222146BDA0FEF78EFA28E20A2283
:10217000BE480168BEA0FEF787FA21E20B22C048E4
:102180000168C0A0FEF780FA1AE20C22C04801687C
:10219000C0A0FEF779FA13E20D22C1480168C1A080
:1021A000FEF772FA0CE20E22C1480168C1A0FEF7E8
:1021B0006BFA05E20F22C3480168C3A0FEF764FA78
:1021C000FEE10121C44804F051FD4FF40051179085
:1021D000744804F04BFD04460221BF4804F046FD5C
:1021E00005464FF480416F4804F040FD0646042147
:1021F000B94804F03BFD4FF400411690B64804F096
:1022000035FD07460821B44804F030FD80464FF400
:102210008041B14804F02AFD81461021AE4804F007
:1022200025FD4FF400511590AB4804F01FFD824688
:102230000821AA4804F01AFD4FF480511490A648D2
:1022400004F014FD10211390A44804F00FFD4FF486
:1022500080611290A04804F009FD834680219E48C9
:1022600004F004FD4FF48071119003E0A1E199E1C5
:1022700091E125E0984804F0F9FC10901798CDE919
:102280000B65CDE90D401698CDE90798CDE90970A9
:10229000DDE913121598CDE9042A03910690DDE9D2
:1022A0001101CDE901B100908DA2282122A8109B37
:1022B00008F044FF102222A992A0FEF738FA7FE12D
:1022C0008021374804F0DFFC04460121344804F043
:1022D000DAFC05464021324804F0D5FC06464FF4AE
:1022E00000417E4804F0CFFC07464FF480518648F9
:1022F00004F0C9FC80464FF48061294804F0C3FC17
:1023000081464FF40061804804F0BDFC4FF4006149
:102310001790234804F0B7FC82464FF480616F4861
:1023200004F0B1FC83464FF480511D4804F0ABFC2F
:102330004FF400611690E9E00010014000480040B1
:10234000004C00400050004024080040880000205D
:10235000000001406C0000207000002024040040B8
:1023600074000020240C0040780000209100002020
:102370009000002093000020920000203131313184
:10238000313131313131313131313131313131313D
:1023900031313031313131313131313100000000F2
:1023A0000004024000080240524F424F54203220A5
:1023B00044414E4720434841592053414E20584103
:1023C0004E483A2020200000524F424F54203220E5
:1023D00044414E4720434841592053414E20444FE9
:1023E0003A202020000000008C000020494D553A82
:1023F00000000000B000002042545F4E414E475F95
:1024000048413A00B40100202076616C75655F6335
:1024100074726169203A0000740300204C756320D7
:1024200042616E3A200000009C0000204C415A4559
:10243000525F42414E200000454E434F4445525F9B
:1024400030482000454E434F4445525F34482000F9
:10245000454E434F4445525F38482000454E434F58
:102460004445525F584F415920000000AC00002005
:1024700042545F4E414E475F4E4F4E473A00000078
:10248000B400002042545F53686F6F74203A00001C
:102490007C030020666F7263655F4C3A00000000A9
:1024A000B001002076616C75655F637068616900DA
:1024B000D8010020636F6E675F7472755F6C75631F
:1024C0003A000000980100206D696E5F6C617A65CA
:1024D0005F42616E3A00000000100240000C0240B2
:1024E00025642564256425642564256425642564A4
:1024F0002564256425642564256425642564256494
:1025000000000000493A000000000240F84804F0D2
:10251000BAFB4FF400511590F64804F0B4FB4FF4A9
:1025200080411490F24804F0AEFB4FF480411390C8
:10253000F04804F0A8FB4FF480711290EE4804F0CC
:10254000A2FB4FF400411190EA4804F09CFBCDE956
:102550000B76CDE90D5410901798CDE907A0CDE981
:102560000998DDE914121698CDE9050BCDE903129F
:10257000DDE911121398CDE900120290AFF2A0022A
:10258000282122A8109B08F0D9FD122222A9DBA045
:10259000FEF7CDF814E02A22DA480168D8A0FEF749
:1025A00073F80DE02B22D8480168D5A0FEF76CF82F
:1025B00006E02C22D5480168D1A0FEF765F800BFDF
:1025C00000BF2FB0BDE8F08F10B50121D04805F055
:1025D0007DF910BD01B5CF4800680099884203DD40
:1025E0000020CC49086004E0CA480068401CC94982
:1025F0000860C8480068FFF72EFD08BD02680B6838
:1026000003600A6070472DE9F04704460F461546FF
:1026100054F825A0A7F10108AF4226DA3E460CE0A7
:1026200054F82600504507DC08F1010804EB860148
:1026300004EB8800FFF7E2FF761CAE42F0DB04EB10
:10264000850108F1010204EB8200FFF7D7FF08F1D2
:102650000109A9F1010239462046FFF7D4FF2A46B5
:1026600009F101012046FFF7CEFFBDE8F08710B564
:10267000002011E00022A84B43F82020002108E0B0
:10268000002200EB8003A54C04EB431343F8212008
:10269000491C2829F4DB401C6928EBDB10BD10B570
:1026A000002801DB692800DB10BD01B9FCE700EB65
:1026B00080029A4B03EB4212974B53F8203042F8BA
:1026C0002310954A52F82020521C282392FBF3F441
:1026D00003FB1422904B43F8202000BFE4E72DE9D0
:1026E000F04F2DED048B81B00746002600250AE04F
:1026F00057F8250030B157F825203046761C884918
:1027000041F820206D1C282DF2DB2EB9002001B0ED
:10271000BDEC048BBDE8F08F721E00218048FFF7EE
:1027200072FF3046F11706EB917189107C4A52F81E
:10273000218006EB4600C11700EB9171891052F819
:102740002190A9EB080A504608F099FA41EC190BC0
:102750009FED740B53EC102B08F0B0F941EC180B03
:1027600008F09EFAA8EB000B504608F088FA41ECFE
:10277000190B9FED6C0B53EC102B08F09FF941ECFB
:10278000180B08F08DFA484400900025002413E04F
:10279000634850F8250058450DDB614850F8251076
:1027A0000098814207DC5E4850F825202046641CD2
:1027B0005B4941F820206D1CB542E9DB0CB90020D3
:1027C000A5E7204604EBD0714910A4EB4101B9B94B
:1027D000214604EBD1704010401EDFF844C15CF884
:1027E0002000234604EBD37C4FEA6C0CDFF830E189
:1027F0005EF82CC000EB0C0202EBD270401086E7B2
:10280000A44604EBDC704010DFF814E15EF8200011
:102810007DE770B5002200210024444D2C6000208B
:1028200022E0434C54F820400CB9521C1BE0052A0E
:1028300018DD3E4C2468322C14DA841A8C4210DDE8
:102840003C4C3A4D2D6844F82510841A641E3A4DCC
:10285000364E366845F82640344C2468641C334DA7
:102860002C6001460022401C6928DADB69291FDA46
:102870002E4C2468322C1BDA0B46084605E02C4C03
:1028800054F8204004B10346401C6928F7DB8B4212
:102890000EDB284C254D2D6844F82510264C234D81
:1028A0002D6844F82530214C2468641C1F4D2C6091
:1028B00070BD2DE9FC5F4FF000094FF0FF3ACB46A9
:1028C0004FF0FF3800200190009000240AE004EB54
:1028D0008401124A02EB4110FFF701FF144941F84D
:1028E0002400641C692CF2DBFFF793FF00244DE009
:1028F000000C024000040240000002404F55543AD0
:102900000000000098010020D8010020740300207E
:10291000A0600240840000200C4A00206C080020C7
:10292000B04B0020000000000000F83FDC01002058
:10293000504C0020DC060020A40700204FF47A76DB
:102940004FF0FF37FE4850F82400451C0EE0FD48CC
:1029500050F82500002808DDFA4850F82500B0425C
:1029600003DAF84850F825602F466D1CF64850F8F9
:102970002400A842EBDA0CB9B146BA46F348006825
:10298000401EA04201D1B346B846641CEF4800681F
:102990008442D3DBEE48C0F80090EE48C0F800B0A7
:1029A0000AEB0800EC490860EC48C0F80080BDE87C
:1029B000FC9F10B52DED0A8BB0EE408AF0EE608AD8
:1029C000B0EE000A28EE800A20EE280AF0EE000A97
:1029D00068EE200A00EE880AE1480068404300EEF5
:1029E000900AF8EEE00A30EE600AB0EE409A28EE67
:1029F000A80A08EE480A20EE000AF0EE40BAD848CD
:102A00000068404300EE100AB8EEC00A20EE090A42
:102A1000B0EE40BAB5EEC09AF1EE10FA04D9B5EEB8
:102A2000C0BAF1EE10FA04D1BFEE000ABDEC0A8B79
:102A300010BD8BEE8B0AF7EE000A70EEC09AF5EE31
:102A4000C09AF1EE10FA02D2BFEE000AEEE7B0EE45
:102A5000490A0AF0E2F9F0EE40AAB0EE690A0AF07B
:102A6000DCF9F0EE400ABF480068404300EE100A6F
:102A7000B8EEC00AB5EE001A01EE090AB94890EDA9
:102A8000001AB8EEC11A21EE2A1A01EE600AB0EE61
:102A900040CA0AF0C2F9B0EE40AAB0EE4A0AC5E751
:102AA00000B52DED108B89B0B0EE408AF0EE608A53
:102AB000B0EE419AF0EE619AB0EE42AAF0EE62AA50
:102AC0009FEDA90B53EC102B51EC180B07F0F6FF00
:102AD00041EC1E0B53EC192B07F0F0FF41EC1D0BE2
:102AE00053EC1A2B51EC1A0B07F0E8FF41EC1E0BCC
:102AF00053EC192B51EC190B07F0E0FF53EC182B9A
:102B0000CDE9000151EC180B07F0D8FF41EC1F0B89
:102B10009DED000B53EC102B07F029FF53EC1E2BFF
:102B2000CDE902019DED020B51EC100B07F0C0FF47
:102B300053EC1D2BCDE904019DED040B51EC100B62
:102B400008F02EF841EC1B0B9FED890B53EC102B7A
:102B500051EC1B0B08F0EEF806D29FED850BB0EEA2
:102B600040BAF0EE60BA0EE09FED830B53EC102BF1
:102B700051EC1B0B08F0C6F805D29FED7F0BB0EEB1
:102B800040BAF0EE60BAB0EE4B0AF0EE6B0A08F015
:102B90002FFB8DED060B9FED7A0B53EC102B9DED6B
:102BA000060B51EC100B07F089FF41EC1C0BB0EE4B
:102BB0004C0AF0EE6C0A09B0BDEC108B00BD2DE99B
:102BC000F0412DED0C8B04466549096801FB01F6C7
:102BD000F11706EB91718910624A1268614B1B680C
:102BE00002FB031008F04BF841EC1B0BB0EE4B0A54
:102BF000F0EE6B0A0AF0D4F8B0EE40AAF0EE60AA4C
:102C000051EC1A0B08F0AEF807465548006808F07A
:102C100036F841EC1B0B4F48006808F030F841ECE7
:102C20001C0B4B48006808F02AF841EC1D0BB0EE75
:102C30004B2AF0EE6B2AB0EE4C1AF0EE6C1AB0EEA6
:102C40004D0AF0EE6D0AFFF72BFFB0EE40AAF0EE52
:102C500060AA51EC1A0B08F085F808EE100A384605
:102C600008F03DF841EC1B0B3A48006808F007F803
:102C700041EC1C0B4448006808F001F841EC1D0BC6
:102C8000B0EE4B2AF0EE6B2AB0EE4C1AF0EE6C1A56
:102C9000B0EE4D0AF0EE6D0AFFF702FFB0EE40AA6B
:102CA000F0EE60AA51EC1A0B08F05CF808EE900AFE
:102CB00088EE880AB0EE409A274800682118264816
:102CC00090ED000AB8EEC00A29EE000ABDEEC00A77
:102CD00010EE100A0D1A2D480068854203DC2C48BE
:102CE0000068854200DA25462846BDEC0C8BBDE81D
:102CF000F08110B5FDF705FE26490860FDF774FE6A
:102D000025490860FDF7B9FE2449086010BD2DE98A
:102D1000F0412DED088B06460F46304607F0AFFF19
:102D200041EC190B9FED1E1BB0EE490AF0EE690A4B
:102D300008F042FFB0EE408AF0EE608A34E0000016
:102D4000DC060020504C0020A4070020DC010020FD
:102D5000B8010020BC010020C0010020C4010020F7
:102D6000E0010020E401002000000000000000401D
:102D7000000000000000F03F000000000000F0BF75
:102D8000F8C1631ADCA54C40D401002028010020C2
:102D900024010020DC030020E0030020E4030020E5
:102DA000000000000020AC4051EC180B07F078FF49
:102DB0000446002C02DBA4F5E16401E004F5E164C3
:102DC000384607F05CFF41EC1B0B1FED0B1BB0EE10
:102DD0004B0AF0EE6B0A08F0EFFEB0EE409AF0EE10
:102DE000609A304607F04BFF41EC1B0B1FED141BA4
:102DF000B0EE4B0AF0EE6B0A08F0DEFEB0EE40AA31
:102E0000F0EE60AA53EC192B51EC1A0B07F050FEB0
:102E100041EC180B07F044FF05462846211E01DB54
:102E20000A4600E04A42002801DB034600E0434234
:102E30009A4205DA25464FF0FF30FE49086003E06C
:102E400035460120FB4908602846BDEC088BBDE8EB
:102E5000F0810146FA2901DDFA2102E0032900DCB4
:102E60000221C8B2704710B504460B4624B9F24897
:102E70000078F249C87116E0F14890ED000AB5EE0D
:102E8000C00AF1EE10FA07DD2046FFF7E2FFEB493A
:102E9000C8710120887106E06042FFF7DAFFE74958
:102EA000C8710020887123B9E3480078E349C875E8
:102EB00016E0E44890ED000AB5EEC00AF1EE10FA13
:102EC00007DD1846FFF7C5FFDC49C8750120887586
:102ED00006E05842FFF7BDFFD849C8750020887545
:102EE00022B9D5480078D549C87316E0D64890ED88
:102EF000000AB5EEC00AF1EE10FA07DD1046FFF742
:102F0000A8FFCE49C8730120887306E05042FFF73E
:102F1000A0FFCA49C8730020887310BDCB4B18604E
:102F2000CB4B1960CB4B1A607047C44AD071D07537
:102F3000D0737047C148C079032809DABF48C07D03
:102F4000032805DABD48C07B032801DA0120704759
:102F50000020FCE70120C04908607047BF480068B6
:102F600047F23051884201D0012070470020FCE731
:102F700010B5FFF742F810BDB948B0F90000404263
:102F80007047B5EEC00AF1EE10FA09D2B548D0ED9F
:102F9000000A70EE600AFDEEE00A10EE900A70473B
:102FA000B048D0ED000A70EE200AFDEEE00A10EE07
:102FB000900AF4E710B52DED088B044624B99FED77
:102FC000AA0ABDEC088B10BD002C1DDAA7480068CA
:102FD00007F055FE41EC190B204607F050FE41EC7E
:102FE0001B0B9FEDA30B53EC102B07F067FD41EC7F
:102FF0001A0B53EC192B07F0D3FD41EC180B07F01B
:10300000B1FE00EE100ADCE79848006807F037FED2
:1030100041EC1A0B204607F032FE41EC1B0B9FEDF2
:10302000940B53EC102B07F049FD41EC180B53ECBB
:103030001A2B07F0B5FD41EC190B07F093FE00EEDB
:10304000100ABEE7F0EE400AF5EEC00AF1EE10FA03
:1030500002DBB0EE600A7047B1EE600AFBE70146A2
:10306000002901DB084670474842FCE701468248D8
:10307000D0ED000AF1EE600A8048D0ED001A80EE33
:10308000A11A00EE901AF8EEE01A7B48D0ED000A83
:1030900041EE210AB0EE600AFDEEC00A10EE900A81
:1030A0007047F0EE401A9FED762AB0EE420AF5EE38
:1030B000C01AF1EE10FA03D2B1EE612AF0EE421A14
:1030C000F5EEC00AF1EE10FA03D2B1EE602AF0EE8E
:1030D000420AB5EEC01AF1EE10FA03D2B1EE412A5F
:1030E000B0EE421AF4EEC01AF1EE10FA01DDB0EEC5
:1030F000610AF4EEC00AF1EE10FA01DDB0EE600AEA
:10310000B4EEC01AF1EE10FA01DDB0EE410A7047DC
:103110005648006870475B480068704710B52DED51
:103120000A8BF0EE408A18EE900A07F0D8FD41ECC9
:103130001C0B1FEDE51BB0EE4C0AF0EE6C0A08F01C
:103140003BFDB0EE40BAF0EE60BA1FEDEB0B53EC76
:10315000102B51EC1B0B07F00AFC41EC1A0B1FED76
:10316000F01BB0EE4A0AF0EE6A0A08F025FDB0EE58
:10317000409AF0EE609A51EC190B07F0F3FD08EE5F
:10318000100A9FED410AB4EEC08AF1EE10FA06DD96
:103190009FED3E0AB4EEC08AF1EE10FA0BD3B5EE05
:1031A000C08AF1EE10FA0ADB9FED390AB4EEC08A4C
:1031B000F1EE10FA03D80120BDEC0A8B10BD9FED93
:1031C000350AB4EEC08AF1EE10FA01D80220F3E716
:1031D0009FED310AB4EEC08AF1EE10FA01D8032057
:1031E000EAE70420E8E710B52DED108B8AB0B0EEC9
:1031F000408AF0EE608AB0EE419A284890ED000ACD
:1032000028EE000ADFED260A80EE201A11EE104AA1
:10321000204607F064FDCDE908019DED080B08F09C
:10322000BBFAB0EE40FAF0EE60FA18EE900A07F042
:1032300056FD37E0D40200203002002004000020B8
:10324000980200209C020020A0020020BC02002066
:10325000C0020020C4020020100300205C020020F5
:103260008C000020F0010020000000004802002037
:10327000000000000000F83F280200202C0200207F
:103280006F12833A7802002000E044450000614557
:103290000000E14300C0A84400A00C453C0200200F
:1032A0000000E14441EC1E0B53EC1F2B07F006FC21
:1032B00041EC1C0B07F056FD0AEE900A19EE100ABD
:1032C00007F00DFDCDE90601FE4890ED000A28EE5D
:1032D000000A5FED0D0A80EE201A11EE104A20461A
:1032E00007F0FDFC41EC1E0BB0EE4E0AF0EE6E0A4C
:1032F00009F0F2FC8DED040B18EE900A07F0EFFCDC
:1033000041EC1C0B9DED040B53EC102B07F0D6FB8E
:1033100041EC1F0B9DED060B53EC102B07F027FB28
:10332000CDE908019DED080B51EC100B07F01AFDDB
:103330000BEE100A9FEDE40A38EE400AE148D0EDAA
:10334000000A20EE200A5FED2A0A80EE201A11EE14
:10335000104A204607F0C3FCCDE908019DED080B9B
:1033600008F01AFAB0EE40FAF0EE60FA18EE900AA1
:1033700007F0B5FC41EC1E0B53EC1F2B07F09EFB36
:1033800041EC1C0B07F0EEFC0BEE900A19EE100A54
:1033900007F0A5FC41EC1F0B9FEDCB0A38EE400A6D
:1033A000C848D0ED000A20EE200A5FED430A80EE07
:1033B000201A11EE104A204607F091FC41EC1E0B3A
:1033C000B0EE4E0AF0EE6E0A09F086FC8DED040BAD
:1033D00018EE900A07F083FC41EC1C0B9DED040BEA
:1033E00053EC102B07F06AFB53EC1F2BCDE90601C1
:1033F0009DED060B51EC100B07F0B9FACDE9080171
:103400009DED080B51EC100B07F0ACFC0DEE100A13
:103410009FEDAE0A38EE400AAA48D0ED000A20EE31
:10342000200A5FED610A80EE201A11EE104A204654
:1034300007F055FC41EC1E0BB0EE4E0AF0EE6E0AA2
:1034400008F0AAF9B0EE40FAF0EE60FA18EE900A31
:1034500007F045FC41EC1C0B53EC1F2B07F02EFB37
:10346000CDE908019DED080B51EC100B07F07AFC3B
:1034700009EE900A19EE100A07F031FC9FED930A4D
:1034800038EE400ACDE906018E48D0ED000A20EE64
:10349000200A5FED7D0A80EE201A11EE104A2046C8
:1034A00007F01DFC41EC1E0BB0EE4E0AF0EE6E0A6A
:1034B00009F012FCB0EE40CAF0EE60CA18EE900AB5
:1034C00007F00DFC41EC1F0B53EC1C2B07F0F6FA38
:1034D000CDE904019DED060B53EC102B9DED040B83
:1034E00051EC100B07F043FACDE908019DED080BF4
:1034F00051EC100B07F036FC0AEE100AF0EE6A0AE7
:10350000B0EE4B0A08F020F85FED9B0A20EE200A8F
:103510006C48D0ED000A80EE201A6D4880ED001A4C
:103520006C4801686A4890ED000ABDEEC00A10EED2
:10353000100AFFF7ECFB00EE100AB8EEC00A644870
:1035400080ED000A644890ED000AB8EEC00A6348B6
:1035500080ED000A6048006807F091FBCDE90601A4
:103560001BEE100A07F0BBFB41EC1E0B9FED5C1B32
:10357000B0EE4E0AF0EE6E0A08F086FDB0EE40FAAC
:10358000F0EE60FA1AEE900A07F0A9FB41EC1E0B70
:103590009FED531BB0EE4E0AF0EE6E0A08F074FD7C
:1035A0008DED000B53EC1F2B9DED000B51EC100B20
:1035B00007F0DDF9CDE902019DED020B09F0F0FB0A
:1035C000B0EE40CAF0EE60CA9FED470B53EC102BF3
:1035D00051EC1C0B07F0E4FACDE904019DED060B5C
:1035E00053EC102B9DED040B51EC100B07F066FA19
:1035F000CDE908019DED080B51EC100B07F0B2FB73
:103600003B490860F0EE6B0AB0EE4D0A07F09CFFF4
:103610005FEDDD0A20EE200A2A48D0ED000A80EE98
:10362000201A344880ED001A33480168314890ED83
:10363000000ABDEEC00A10EE100AFFF768FB00EEAC
:10364000100AB8EEC00A2B4880ED000A224890ED1F
:10365000000AB8EEC00A294880ED000A1E4800683A
:1036600007F00DFBCDE906011DEE100A07F037FB50
:1036700041EC1E0B9FED1A1BB0EE4E0AF0EE6E0AE7
:1036800008F002FD8DED020B1BEE900A07F027FB00
:1036900041EC1E0B9FED121BB0EE4E0AF0EE6E0ACF
:1036A00008F0F2FC8DED000B9DED020B53EC102B9E
:1036B0009DED000B51EC100B07F059F941EC1C0B80
:1036C0001EE000003C020020000096440000164569
:1036D000A4020020DC030020D40200209802002075
:1036E0000000000000000040000000000000344026
:1036F0008C020020A8020020E00300209C02002091
:10370000B0EE4C0AF0EE6C0A09F04AFBB0EE40FA5B
:10371000F0EE60FA1FED0C0B53EC102B51EC1F0B6D
:1037200007F03EFACDE904019DED060B53EC102B9A
:103730009DED040B51EC100B07F0C0F9CDE9080129
:103740009DED080B51EC100B07F00CFBFC490860D9
:10375000F0EE690AB0EE4A0A07F0F6FEDFEDF90A6C
:1037600020EE200AF848D0ED000A80EE201AF74833
:1037700080ED001AF6480168F44890ED000ABDEEAD
:10378000C00A10EE100AFFF7C2FA00EE100AB8EEF7
:10379000C00AEE4880ED000AEE4890ED000AB8EE4F
:1037A000C00AED4880ED000AEA48006807F067FAB1
:1037B00041EC1F0B1AEE100A07F091FA41EC1E0BB8
:1037C0001FED391BB0EE4E0AF0EE6E0A08F05CFCFD
:1037D0008DED000B19EE900A07F081FA41EC1E0BFB
:1037E0001FED411BB0EE4E0AF0EE6E0A08F04CFCE5
:1037F000B0EE40CAF0EE60CA9DED000B53EC102B0A
:1038000051EC1C0B07F0B3F8CDE902019DED020B62
:1038100009F0C6FA8DED040B1FED4D0B53EC102B88
:103820009DED040B51EC100B07F0BAF953EC1F2B74
:10383000CDE906019DED060B51EC100B07F03EF9AA
:10384000CDE908019DED080B51EC100B07F08AFA49
:10385000C24908601AEE100A07F041FA41EC1F0B4A
:103860001FED611BB0EE4F0AF0EE6F0A08F00CFC82
:103870008DED080B19EE900A07F031FA41EC1F0BA1
:103880001FED691BB0EE4F0AF0EE6F0A08F0FCFB6B
:103890008DED060B9DED080B53EC102B9DED060BEB
:1038A00051EC100B07F063F841EC1C0BB0EE4C0A26
:1038B000F0EE6C0A09F074FAB0EE40EAF0EE60EA5D
:1038C00051EC1E0B07F0ECF9A54908609C4890EDFF
:1038D000000ABDEEC00AA34880ED000AA24890EDA0
:1038E000000AB8EEC00AFFF719FCA04908600AB048
:1038F000BDEC108B10BDF0EE400AB0EE600A9C48A3
:1039000090ED001AB1EE411AF4EEC10AF1EE10FA90
:1039100006D290ED001AB1EE411AB0EE410A0EE067
:103920008E4890ED001A9248D0ED001AB4EEE11ADC
:10393000F1EE10FA03DD90ED001AB0EE410A704787
:103940008648D0ED000AF5EEC00AF1EE10FA06DD69
:10395000D0ED000A70EEC00AC0ED000A06E07F4814
:10396000D0ED000A70EE800AC0ED000A7B48D0ED71
:10397000000A7F4890ED001AB1EE411AF4EEC10A38
:10398000F1EE10FA07D2D0ED000AF1EE600A7348AA
:10399000C0ED000A0FE07148D0ED000A744890EDC8
:1039A000001AF4EEC10AF1EE10FA04DDD0ED000ABF
:1039B0006A48C0ED000A70476848D0ED000AF5EE8D
:1039C000C00AF1EE10FA06DDD0ED000A70EE800AB2
:1039D000C0ED000A06E06148D0ED000A70EEC00AB2
:1039E000C0ED000A5D48D0ED000A614890ED001A74
:1039F000B1EE411AF4EEC10AF1EE10FA07D2D0EDA1
:103A0000000AF1EE600A5548C0ED000A0FE0534885
:103A1000D0ED000A564890ED001AF4EEC10AF1EE1E
:103A200010FA04DDD0ED000A4C48C0ED000A7047E2
:103A30004348D0ED000AF5EEC00AF1EE10FA06DDBB
:103A4000D0ED000A70EEC00AC0ED000A06E03C4866
:103A5000D0ED000A70EE800AC0ED000A3848D0EDC3
:103A6000000A434890ED001AB1EE411AF4EEC10A83
:103A7000F1EE10FA07D2D0ED000AF1EE600A3048FC
:103A8000C0ED000A0FE02E48D0ED000A384890ED56
:103A9000001AF4EEC10AF1EE10FA04DDD0ED000ACE
:103AA0002748C0ED000A70472548D0ED000AF5EE22
:103AB000C00AF1EE10FA06DDD0ED000A70EE800AC1
:103AC000C0ED000A06E01E48D0ED000A70EEC00A04
:103AD000C0ED000A1A48D0ED000A254890ED001A02
:103AE000B1EE411AF4EEC10AF1EE10FA07D2D0EDB0
:103AF000000AF1EE600A1248C0ED000A0FE010481B
:103B0000D0ED000A1A4890ED001AF4EEC10AF1EE69
:103B100010FA04DDD0ED000A0948C0ED000A704734
:103B20001448D0ED000AF5EEC00AF1EE10FA23DDDC
:103B3000D0ED000A70EEC00AC0ED000A23E00000DC
:103B4000900200200000E1443C020020AC02002072
:103B5000E4030020D4020020A002002094020020F0
:103B6000B0020020B40200205C020020B802002055
:103B7000080200208C020020FC48D0ED000A70EE04
:103B8000800AC0ED000AF948D0ED000AF84890ED2F
:103B9000001AB1EE411AF4EEC10AF1EE10FA07D2A2
:103BA000D0ED000AF1EE600AF048C0ED000A0FE027
:103BB000EE48D0ED000AEE4890ED001AF4EEC10A8E
:103BC000F1EE10FA04DDD0ED000AE848C0ED000A7D
:103BD0007047E648D0ED000AF5EEC00AF1EE10FAA3
:103BE00006DDD0ED000A70EE800AC0ED000A06E0A6
:103BF000DE48D0ED000A70EEC00AC0ED000ADB48D6
:103C0000D0ED000ADA4890ED001AB1EE411AF4EE58
:103C1000C10AF1EE10FA07D2D0ED000AF1EE600A07
:103C2000D248C0ED000A0FE0D048D0ED000AD048DD
:103C300090ED001AF4EEC10AF1EE10FA04DDD0EDB9
:103C4000000ACA48C0ED000A704710B52DED068B7A
:103C5000B0EE408A18EE100A07F041F841EC1A0B5A
:103C60009FEDC40B53EC102B06F028FF41EC190B11
:103C700007F078F808EE900AC048006847F2305123
:103C800088420FD1B2EE040A28EE000ABC4880ED4B
:103C9000000A90ED001ADFEDBB0A9FEDBA0AFFF7AC
:103CA000A2FA24E0B8480068B8490968401AB34944
:103CB0000968081A00EE100AB8EEC00AB44880ED90
:103CC000000AB44890ED000AF2EE080A20EE200A3D
:103CD000AB4880ED000A90ED001AAF4890ED000A65
:103CE000F8EEC00AAA4890ED000AFFF77CFAB5EE9C
:103CF000C08AF1EE10FA3AD0A048006847F230517D
:103D0000884234D09D4890ED000AB8EEC00AFFF713
:103D100005FA012806D002280DD0032814D0042863
:103D200024D11AE0B0EE680AFFF782FEB0EE680A0E
:103D3000FFF742FE1AE0B0EE680AFFF74AFFB0EE66
:103D4000680AFFF775FE11E0B0EE680AFFF7ACFEF7
:103D5000B0EE680AFFF7F4FD08E0B0EE680AFFF77E
:103D6000DFFEB0EE680AFFF727FE00BF00BF8B48FA
:103D700090ED001A8A48D0ED000A7C4890ED000AC8
:103D8000FFF78FF98748D0ED000AF8EEE00A80EEE1
:103D9000801ABDEEC10A844880ED000A834800689D
:103DA00081490968884203DD7F4800687F490860CF
:103DB00001207F490860BDEC068B10BD10B504469C
:103DC0000020754908607B480460FCB900207749F1
:103DD00008609FED6C0A784880ED000A47F2305089
:103DE00066490860754908609FED660A694880ED7C
:103DF000000A002072490860724908607249086030
:103E0000724908609FED5F0AFFF71FFF10BD10B5F4
:103E1000604890ED000AB5EEC00AF1EE10FA05D147
:103E20006748006810B96748006890B19FED550A6F
:103E3000584880ED000A0020614908606149086027
:103E40005148006851490860524890ED000AFFF758
:103E5000FCFE10BD5E48C0ED000A5E4880ED000A21
:103E6000704770B52DED028B05460C46B0EE408ACA
:103E700042480068A8420BD147480068A04207D1D9
:103E80004D4890ED000AB4EE480AF1EE10FA18D051
:103E9000414804604548006810B90520434908605E
:103EA0003948006839490860434880ED008A334842
:103EB0000560002048490860364890ED000AFFF789
:103EC000C4FEBDEC028B70BD70B52DED028B0446B7
:103ED000B0EE408A0D463B480068A0420BD12D4809
:103EE00090ED000AB4EE480AF1EE10FA03D134481E
:103EF0000068A84237D02148006847F23051884214
:103F000022D16320244908600A202849086047F22A
:103F10003050844218DA01202B490860B5EEC08A7F
:103F2000F1EE10FA03DD18480068A04208DCB5EE97
:103F3000C08AF1EE10FA07D213480068A04203DAF3
:103F4000B1EE480AB0EE408A1E4804601C48056085
:103F5000104880ED008A00201F4908600D4890ED50
:103F6000000AFFF772FEBDEC028B70BD8C020020D0
:103F700008020020000000000000E03F5C0200207A
:103F8000F8020020000000008002002068020020EB
:103F9000E8010020700200204C0200209402002062
:103FA00090020020EC010020500200204802002076
:103FB0004002002054020020740200206002002011
:103FC0004402002064020020780200201003002038
:103FD000280200202C0200205802002010B52DEDF0
:103FE000028BB0EE408A04462146B0EE480A47F202
:103FF0003050FFF769FFBDEC028B10BD70B5044671
:104000000D461FED200A29462046FFF72AFF70BD06
:1040100010B52DED088BF0EE408A0446B0EE608AB4
:10402000B0EE419AFE4890ED000AB8EEC00AB4EE38
:10403000680AF1EE10FA0DD1FA480068A04209D1E1
:10404000F94890ED000AB8EEC00AB4EE480AF1EE65
:1040500010FA5ED0BDEEE80AF14880ED000AF3499F
:1040600091ED000AB8EEC00A38EEC00ABDEEC00AF3
:1040700010EE100A1FED3D0A2146FFF7F2FEEB4855
:10408000D0ED000AF8EEE00A78EE600AB0EE600AC1
:10409000FEF7D8FFDFEDE60AB4EEE00AF1EE10FA23
:1040A00014DDE24890ED000AB8EEC00AB4EEC08A12
:1040B000F1EE10FA02DDB0EE490A01E0B1EE490A74
:1040C00010EE101A084606F00AFE13E0D74890EDED
:1040D000000AB8EEC00A38EE400A10EE101A084680
:1040E00006F0FDFD41EC1B0B9FEDD20B53EC102BAA
:1040F00006F0E4FC41EC1A0B06F034FE09EE900ADF
:104100000021B0EE690AFDEEC80A10EE900AFFF732
:10411000DBFEBDEC088B10BD10B5C8480068012857
:104120003DDDC1490968C14A1268881AFEF797FF48
:1041300005280CDAC14801680068401CBF4A1060BD
:10414000B1F5FA7F2BDD0020FFF738FE10BDBB482C
:104150000068FA2808DD0520B2490860B8490860FF
:10416000FB20B649086004E00520AE490860B44968
:104170000860AE480068AC490968884205DDBFEEBA
:10418000000AB04880ED000A04E0B7EE000AAD482E
:1041900080ED000AAB4890ED000AFFF756FD00BF26
:1041A000D4E710B52DED028BA74890ED000AB5EECF
:1041B000C00AF1EE10FA08D1A148006828B19A4867
:1041C000006847F23051884202DBBDEC028B10BD23
:1041D0009E490968954A1268881AFEF7EBFEB0EE10
:1041E000408AFFF732FD00BFEFE700B59348006853
:1041F000022815DA1FED9D0A934880ED000A1FED95
:104200009F0A904880ED000A00209149086047F21B
:104210003050904908608249086000208249086057
:104220008D480068401C8C4908608C4909688842A8
:1042300004DA8B480068FEF778FE0EE087480068D5
:10424000854908608748006820B185480068FEF706
:104250006CFE02E00020FEF768FE00BD7E4A126898
:10426000521C7D4B1A60824207DD754A12680A446F
:10427000734B1A600022784B1A60704770B5FEF7D6
:104280007BFE6A490860FFF747FF66480068002820
:1042900021DD6B48006863490968884229D0684875
:1042A00000686049096888420EDA654800686E490E
:1042B000096888421DDA62480068FEF7D7FE0446A6
:1042C0000121FFF7CBFF14E04FF0FF316748006892
:1042D000FFF7C4FF0DE05A480068002806DD4FF0E4
:1042E000FF3163480068FFF7B9FF02E0FFF77DFF89
:1042F00070BD604800684D490968884205D0FFF7E5
:1043000050FF4A4800685B4908605B480068E8B3B2
:104310004B48D0ED000AF8EEE00A584890ED001A3C
:1043200060EE810AB0EE600AFEF72BFE04464448B8
:10433000D0ED000AF8EEE00A514890ED001A60EE68
:10434000810AB0EE600AFEF71CFE05463C48D0ED3F
:10435000000AF8EEE00A4B4890ED001A60EE810A80
:10436000B0EE600AFEF70DFE064622462946FEF72D
:104370007AFD454890ED000ABDEEC00A10EE102A05
:10438000424890ED000ABDEEC00A00E00AE010EEDF
:10439000101A3F4890ED000ABDEEC00A10EE100A58
:1043A000FEF7BCFD00BFA3E710B50221394802F0BB
:1043B0005DFC002823D138480068401F3749086059
:1043C0000846006840F24E21884219DA34480078E5
:1043D0001E30344981F82700314800781E3881F8B2
:1043E0002B002F4800781E3881F82F00002081F81C
:1043F0002600012081F82A00002081F82E005EE0CE
:10440000274800781430274981F82700244800788D
:10441000143881F82B0022480078143844E000005A
:10442000600200204C020020640200208002002074
:1044300000004842FCA9F1D24D62403F78020020C2
:104440004802002070020020740200206802002050
:10445000440200205C0200205802002034020020A8
:1044600030020020100300205002002088020020AB
:104470005402002084020020400200209402002008
:10448000900200208C020020AC020020A802002034
:10449000A40200200010024098010020B403002074
:1044A000740300200400002081F82F00002081F810
:1044B0002600012081F82A00002081F82E0010BD7E
:1044C00010B50221F94802F0D1FB00283DD1F8488F
:1044D00000680A38F74908600846006840F24E2133
:1044E000884219DAF44800781E30F44981F8270030
:1044F000F14800781E3881F82B00EF4800781E380C
:1045000081F82F00002081F82600012081F82A0080
:10451000002081F82E0018E0E74800781430E749C1
:1045200081F82700E4480078143881F82B00E2482D
:104530000078143881F82F00002081F8260001202F
:1045400081F82A00002081F82E0010BD10B502214C
:10455000D64802F08BFB00283DD1D5480068401DAD
:10456000D44908600846006840F24E21884219DAB2
:10457000D14800781E30D14981F82700CE48007814
:104580001E3881F82B00CC4800781E3881F82F00A7
:10459000002081F82600012081F82A00002081F8FF
:1045A0002E0018E0C44800781430C44981F8270070
:1045B000C1480078143881F82B00BF4800781438BF
:1045C00081F82F00002081F82600012081F82A00C0
:1045D000002081F82E0010BD10B5B948007800F019
:1045E0008000C0B140F2DB10B649086042F21070A2
:1045F00005F03CFD0020B14981F82F0081F82B0027
:1046000081F82700D720AF4908600020AB4981F826
:104610003F00AD49086010BD10B5A948407800F0D2
:10462000020070BBA648407800F0200048B332205A
:10463000A24981F83F0040F28520A449086002E0C9
:10464000012005F013FDA2490968A04A1268881AE2
:10465000002801DB014600E041420329F0DC002094
:104660009C49086001209C49086000209B49086023
:104670009B4800689B4908603220904981F83F00C0
:1046800013E0FFE79848016895480068C01C814224
:104690000BDC9448006892490968884205D18D482E
:1046A000006810B90120914908608548407800F001
:1046B000020018BB8248407800F00400F0B140F2DC
:1046C00085208249086002E0012005F0CFFC804986
:1046D00009687E4A1268881A002801DB014600E05A
:1046E00041420329F0DC824800687E4908600120CD
:1046F0007849086000207D49086015E07748006827
:1047000090B9784800687A49096888420CD178489D
:1047100000680A3874490968884205DA00206E4941
:10472000086001206D49086010BD002100EE900A6C
:10473000F8EEE00A70EE600AFDEEE00A10EE901A64
:104740006C4A1160704710B52DED068B5C48C0783F
:1047500001EE100AB8EE411ADFED671A31EE611A68
:10476000F0EE410A5648807801EE100AB8EE411A80
:10477000DFED611A31EE611AB0EE410A06F0E4FE97
:1047800010EE104A204606F0AAFA41EC1A0B9FEDF3
:104790005B0B53EC102B06F091F941EC190B06F072
:1047A000E1FA08EE100AB5EEC08AF1EE10FA05D271
:1047B0009FED540A38EE000AB0EE408A4048C078B7
:1047C0007E2807D13E4880787F2803D19FED4E0A8E
:1047D000B0EE408A9FED4D0AB4EEC08AF1EE10FAB9
:1047E00006D8B2EE040A28EE000AB0EE408A09E0CC
:1047F0009FED440A38EE400AF2EE040A20EE200A49
:10480000B0EE408A9FED420A38EE400A414880ED02
:10481000000ABDEC068B10BD10B52948407800F0A9
:104820008000002834D00A20244981F82F0081F824
:104830002B0081F82700012081F82600002081F854
:104840002A00012081F82E0000240FE006E0FCF78A
:104850004FF800B108E0012005F008FC02211348E0
:1048600002F004FA0128F2D000BF641C642CEDDBD6
:1048700040F6B83005F0FAFB3220104981F83F00CD
:10488000002081F82F0081F82B0081F8270000BF5D
:1048900010BD70B52DED028B06460C461546FDF792
:1048A00082FB00201C49086070E0000000100240FC
:1048B00098010020B40300207403002004000020AD
:1048C000CC06002038010020A40300202001002095
:1048D000AC0000209C0300209403002098030020DB
:1048E000300100202C010020B000002090030020A7
:1048F00034010020B80300200000FF42F8C1631A11
:10490000DCA54C400000B44300409C46000034430A
:104910000000E143CC0000204403002020E0FCF72D
:10492000F6F84FF46171484390FBF5F0C4EB441185
:10493000C1EB0421C0EB810000EE100AB8EEC00A02
:10494000B0EE408A9FEDF91ADFEDF80A3046FFF726
:104950005FFBFBF7CDFF00B112E0012005F086FB05
:10496000002C03DDF24800680A2805DC002C07DA79
:10497000F04800680A2803DDFCF7C9F8A842CEDB3E
:1049800000BFED480068401CEB490860EA48006839
:104990006428C3DBBDEC028B70BD2DE9F04140F60D
:1049A000B83441F2883500260027FDF7FCFA9FED68
:1049B000DF1ADFEDDE0A32209FEDE00AFFF728FB69
:1049C0000020DD49086017E006E0FBF791FF00B129
:1049D0000CE0012005F04AFBD6480068322805DDCE
:1049E000FCF795F841F288318842EEDB00BFD248EF
:1049F0000068401CD0490860CF4800686428E3DBA9
:104A000041F288324FF0FF313220FFF742FFFDF7CD
:104A1000CAFA0020C849086020E00FE09FEDC31AE1
:104A2000DFEDC20A32209FEDC60AFFF7F1FAFBF76D
:104A30005FFF00B10CE0012005F018FBBD480068E5
:104A4000322805DDFCF763F840F6B8318842E5DB33
:104A500000BFB9480068401CB7490860B648006804
:104A60006428DADB0020FFF7A9F94FF47A7005F02B
:104A7000FDFABDE8F081B34801680068401CB14A06
:104A80001060642907D2B0484089B04909680844D9
:104A9000AE4908600BE0AD4800686421B0FBF1F05E
:104AA000AB4908600020A7490860A8490860A948E8
:104AB00001680068401CA74A1060642907D2A24818
:104AC0000089A54909680844A34908600BE0A24889
:104AD00000686421B0FBF1F0A049086000209D4906
:104AE00008609D4908609E4801680068401C9C4A17
:104AF0001060642907D2944880899A49096808445B
:104B0000984908600BE0974800686421B0FBF1F019
:104B100087490860002092490860924908609248DD
:104B200001680068401C904A1060782907D28648C6
:104B3000C0898E49096808448C4908600BE08B489D
:104B400000687821B0FBF1F07A49086000208649BE
:104B5000086086490860864801680068401C844AED
:104B600010600A2907D27848C08882490968084439
:104B7000804908600BE07F4800680A21B0FBF1F033
:104B80007D49086000207A4908607A4908607B48BE
:104B900001680068401C794A1060322907D26A48CF
:104BA0004088774909680844754908600BE07448F3
:104BB00000683221B0FBF1F07249086000206F49B3
:104BC00008606F490860704801680068401C6E4AC0
:104BD0001060322907D25C4800886C490968084493
:104BE0006A4908600BE0694800683221B0FBF1F0C7
:104BF000674908600020644908606449086070479C
:104C000070B5014600230A2902DDB1F53D7F00DBC6
:104C100070BD002007E05F4C54F820408C4201D169
:104C2000012304E0401C5C4C2468A042F3DB00BF7D
:104C300003B1EDE7584C2468142C09DA564C25686A
:104C40002468641C544E3460524C44F8251017E01C
:104C5000504C2268012008E04E4C54F82040944209
:104C600002DA4C4C54F82020401C4B4C2468A042E3
:104C7000F2DB4A4C2260474C21600124464D2C60F7
:104C8000444C2268012008E0424C54F820409442F1
:104C900002DA404C54F82020401C3F4C2468A042CB
:104CA000F2DB3F4C22603F4C2468641C3D4D2C607D
:104CB00000BFADE7002004E00021364A42F8201092
:104CC000401C1428F8DB0021334A1160354A11607A
:104CD000334A116070473448006834490968884293
:104CE00003DA32480068304908602F4800683049CC
:104CF0000968884203DD2E4800682B490860244972
:104D00000968294A1268881A002801DB014600E078
:104D10004142032977DD1E4800682349096888421B
:104D20004ADD0120234981F8220049E0000000000B
:104D3000A4000020A000002044030020000061C463
:104D40000080D4C4EC03002080060020F003002083
:104D500098000020F4030020F80300209C000020AD
:104D6000FC030020000400200404002008040020AC
:104D70000C04002010040020B400002014040020C3
:104D800018040020AC0000201C0400202004002097
:104D9000B0000020F44D0020BC030020A80100203A
:104DA00098010020C00300202C01002030010020C9
:104DB00034010020040000200020FD4981F8220079
:104DC000FC490968FC4A1268881A002801DB014680
:104DD00000E0414201EB8101F84A1160F8480068A7
:104DE000012811D110460068782803DD782011468B
:104DF000086029E0EF480068B0F55C7F24DB3220D2
:104E0000EE49086020E025E0EC480068C82802DD93
:104E1000C820EA490860E7480068B0F5487F02DB2F
:104E20005020E6490860E348006840F2EE218842DD
:104E300002DBA020E1490860DE480068B0F5E17FB0
:104E400002DC5020DD490860DC480078D84981F850
:104E5000230003E00820D64981F82300D9480068E0
:104E600018B90020D24981F82300704710B5D64800
:104E7000C079A0B1D448407800F0040078B1CE48A1
:104E80000068D2490968884209DACB480068401CAA
:104E9000C94908604FF4967005F0E8F816E0CA4872
:104EA000C07998B1C848407800F0200070B1C2487D
:104EB0000068C7490968884208DDBF480068401E8D
:104EC000BD4908604FF4C87005F0D0F810BDC14866
:104ED0000068C1490968884203DABF480068BD49D3
:104EE0000860BC480068BD490968884203DDBB48CA
:104EF0000068B8490860BA490968B64A1268881A51
:104F0000002801DB014600E0414203292FDDB448BF
:104F10000068B0490968884204DD0020A44981F88E
:104F2000320003E00120A24981F83200AC4909684F
:104F3000A84A1268881A002801DB014600E04142B5
:104F400049009E4A116010460068FA2802DDFA20E6
:104F500011460860994800681E2802DD1E20974906
:104F6000086096480078924981F8330003E00220F7
:104F70008F4981F833009A480068B0F57A7F03DDE5
:104F800000208B4981F8330095480068322803DA05
:104F90000020874981F83300704710B58A4840786F
:104FA00000F0010008B1642400E0FA24864840784B
:104FB00000F0080098B18448407800F0020070B911
:104FC0008448006885490968884208DA8148006891
:104FD000401C80490860204605F048F817E07A48F0
:104FE000407800F0100090B17748407800F002005F
:104FF00068B97848006878490968884207DD7548CB
:105000000068401E73490860204605F02FF810BD67
:1050100010B52DED048B7348006873490968884208
:1050200003DA714800686F4908606E4800686F498C
:105030000968884203DD6D4800686A4908606C4968
:105040000968684A1268881A002801DB014600E0F6
:105050004142042935DD6648006862490968884292
:1050600004DD0020524981F83A0003E00120504954
:1050700081F83A005E4800685A490968441A002CD1
:1050800001DB214600E06142084605F0F8FD41ECF5
:10509000190B9FED580B53EC102B05F00FFD41EC55
:1050A000180B05F0FDFD4549086008460068FA2820
:1050B00001DDFA200860414800783D4981F83B0055
:1050C00003E000203A4981F83B00BDEC048B10BDA1
:1050D0002DE9F043044640F226284FF00F092646FA
:1050E000A6F22627F2EE0E0A60EE200AFDEEE00A96
:1050F00010EE900A00F22620A7F10A014518374861
:105100000068854201DD35480568334800688542FE
:1051100001DA314805682F48056038480068FFF714
:105120006FFDBDE8F08310B50221354801F09EFD0A
:10513000C8B9344890ED000ABDEEC00A324880ED8F
:10514000000A324800781A4981F82F0081F82B00B4
:1051500081F82700002081F82600012081F82A002C
:10516000002081F82E0010BD10B5FFF7DCFF1C48B1
:105170000068274991ED000AFFF7AAFF10BD00B5AE
:1051800017480068B7EE000AFFF7A2FF00BD00B5A0
:105190000D48007800F00200F0B30020044981F8C7
:1051A0002F0081F82B0081F827001A49086034E0AD
:1051B00004000020B00000202C010020C8030020C3
:1051C0009C03002094030020CC0600203401002022
:1051D00030010020200100202401002028010020AF
:1051E000AC00002038010020400100203C010020DC
:1051F000B4000020333333333333F33F9C000020BB
:105200000010024078010020B40300207403002045
:105210007C010020B00300200AE0F94981F83F003A
:10522000F8490860F8490860F8490860FFF742FD4E
:1052300000BD10B50221F64801F018FD00283CD150
:10524000F4480068F44908600846006840F24E21BE
:10525000884219DAF14800781E30E94981F82700C0
:10526000EE4800781E3881F82B00EC4800781E3894
:1052700081F82F00002081F82600012081F82A0003
:10528000002081F82E0018E0E44800781430DC4952
:1052900081F82700E1480078143881F82B00DF48B6
:1052A0000078143881F82F00002081F826000120B2
:1052B00081F82A00002081F82E0010BD10B50A20C8
:1052C000CF4981F82F0081F82B0081F827000120B9
:1052D00081F82600002081F82A00012081F82E00A4
:1052E00000240FE006E0FBF703FB00B108E001201B
:1052F00004F0BCFE0221C64801F0B8FC0128F2D03F
:1053000000BF641C642CEDDB40F6B83004F0AEFE48
:105310003220BB4981F83F00002081F82F0081F83E
:105320002B0081F8270010BD10B53220B44981F858
:105330003F0040F22520BA49086002E0012004F055
:1053400095FEB8490968B64A1268881A002801DB38
:10535000014600E041420229F0DC0020B249086029
:105360000120B24908600020B1490860B1480068D6
:10537000B14908603220A24981F83F0010BD10B544
:10538000FCF711FE32214FF4E160FEF737FE0020FA
:10539000AA49086012E006E0FBF7AAFA00B107E0AC
:1053A000012004F063FEFBF7B2FBB0F5486FF3DBBE
:1053B00000BFA2480068401CA04908609F480068E0
:1053C0006428E8DBFCF7EFFD23214FF4E160FEF7F2
:1053D00015FE00209949086012E006E0FBF788FA04
:1053E00000B107E0012004F041FEFBF790FBB0F5AF
:1053F0007A7FF3DB00BF91480068401C8F4908604A
:105400008E4800686428E8DB0020FEF7D7FC4FF4E4
:105410007A7004F02BFEFFF787FF10BD70B54FF4D4
:1054200096540026FCF7BFFD9FED851ADFED840A38
:1054300023209FED830AFEF7EBFD00250DE006E03B
:10544000FBF756FA00B106E0012004F00FFEFBF76F
:105450005EFBA042F4DB00BF6D1C642DEFDBFBF7AD
:1054600056FB0646A64206DB0020FEF7A7FC4FF4DB
:105470007A7004F0FBFD70BD70B5D324714840789C
:1054800000F04000002840D00F205D4981F82F0037
:1054900081F82B0081F82700012081F826000020E8
:1054A00081F82A00012081F82E0000250FE006E097
:1054B000FBF71EFA00B108E0012004F0D7FD02213D
:1054C000534801F0D3FB0128F2D000BF6D1C642DBE
:1054D000EDDB32204A4981F83F0040F6B83004F055
:1054E000C5FD04F11E00464981F827003C3881F8CB
:1054F0002B0081F82F00002081F82600012081F880
:105500002A00002081F82E0000BF70BD10B5FDF705
:10551000AEF84D480068B0F5487F00DD10BD4B483F
:1055200000683F490860012049490860282049492E
:10553000086002E0012004F099FD3A490968384A00
:105540001268881A002801DB014600E04142042964
:10555000F0DC414800683249086032203D4908606B
:1055600015E0012004F082FD3C48006896280EDD1D
:105570003A480068B0F5207F09DC2A490968334AB7
:105580001268891A481D35490968FDF788F82549C8
:105590000968234A1268881A002801DB014600E0E6
:1055A00041420429DDDCFDF784F92D4890ED000A25
:1055B000F8EEC00A2B4890ED000AB8EEC00AFDF7DD
:1055C000F8F9BDEEC00A284880ED000A1F480068BF
:1055D000FDF7F5FA1249086001201D4908603220E4
:1055E0001C49086002E0012004F040FD0D490968F3
:1055F0000B4A1268881A002838DB014637E00000A1
:1056000004000020AC030020A8030020A403002015
:105610000010024098010020B40300207403002011
:1056200020010020AC0000209C03002094030020F7
:1056300098030020300100202C01002044030020AA
:1056400000000000CC060020A8000020240100205B
:10565000C8010020CC010020280100209C0000206F
:10566000BC010020B8010020D401002041420429DF
:10567000B9DC0020F949086000BF4FE710B5F848D1
:105680008079B0B1F648407800F0100088B1F54854
:105690000068401EF349086002E0012004F0E6FCC7
:1056A000EF48807928B1EE48407800F010000028DB
:1056B000F3D110BD10B5EA488079B0B1E848407820
:1056C00000F0080088B1E7480068401CE549086020
:1056D00002E0012004F0CAFCE148807928B1E048EA
:1056E000407800F008000028F3D110BD73B52DED0F
:1056F000028B14251FED2E0AB0EE408AD84800799F
:10570000322805DBD6480079C82801DC012000E0FA
:1057100000200446D248007800F00800E8B9D048DC
:10572000007800F01000C0B9CD48007800F02000EB
:1057300098B9CB48007800F0400070B96CB1C84807
:10574000407800F0010040B9C548C07928B9002070
:10575000FEF734FBBDEC028B7CBDC148407800F005
:10576000020030B19DF80C50B1EE000AB0EE408A54
:1057700005E09DF808509FEDBC0AB0EE408AB8489D
:10578000007800F00800A0B1B548007800F01000E3
:1057900078B9B348007800F0200050B9B0480078DC
:1057A00000F0400028B929464FF4E160FEF726FCDE
:1057B000B0E0AB48007800F0080098B9A84800783D
:1057C00000F0100070B1A648007800F0200048B941
:1057D000A348007800F0400020B929460020FEF7D9
:1057E0000DFC97E09E48007800F0080098B99C48AE
:1057F000007800F0100070B99948007800F020009F
:1058000048B19748007800F0400020B929469748F1
:10581000FEF7F4FB7EE09248007800F00800A0B9A3
:105820008F48007800F0100078B98D48007800F0BB
:10583000200050B98A48007800F0400028B129467D
:105840004FF46170FEF7DAFB64E08548007800F001
:10585000080098B18248007800F0100070B98048C4
:10586000007800F0200048B17D48007800F040004A
:1058700020B929467E48FEF7C1FB4BE07848007806
:1058800000F00800A0B17648007800F0100078B968
:105890007348007800F0200050B97148007800F09B
:1058A000400028B1294640F24650FEF7A7FB31E000
:1058B0006B48007800F0080098B96948007800F05B
:1058C000100070B16648007800F0200048B16448CC
:1058D000007800F0400020B929466648FEF78EFBAC
:1058E00018E05F48007800F0080098B95C4800783C
:1058F00000F0100070B15A48007800F0200048B95C
:105900005748007800F0400020B129464FF4E1707C
:10591000FEF774FB5248007800F00800E8B95048E0
:10592000007800F01000C0B94D48007800F0200069
:1059300098B94B48007800F0400070B96CB1FDF7A1
:105940000DFB50B14648407800F0010028B94448AA
:10595000C07910B90020FEF731FA14B1FEF757FAFA
:1059600027E03F48007932280EDAFDF7F7FA28B130
:105970000020B1EE480AFEF731FB1AE00020B1EE3C
:10598000480AFEF72BFB14E035480079C8280EDDE5
:10599000FDF7E4FA28B10020B0EE480AFEF71EFB3E
:1059A00007E00020B0EE480AFEF718FB01E0FEF722
:1059B0002EFA00BFCEE610B501202F4988700421D1
:1059C0002E4801F053F9012804D102202A49C87059
:1059D000012010BD64202849C8700020F9E710B5E7
:1059E0000421264801F042F901280BD1244800780F
:1059F00040B964202049C87000202249086022492B
:105A0000086010BDFAF77DFF041E01DB204600E0B0
:105A100060421E490968884208DD1948007801285B
:105A200004D102201449C8700120EAE71E2012495F
:105A3000C8700120124908700020E2E710B501206B
:105A40000D498874C1030D4801F010F901281FD1D8
:105A500002200949C874012010BD0000C8010020BF
:105A6000CC060020D80100203333333F7CFCFFFFFD
:105A7000BAFAFFFF3EFEFFFF0400002000100240C4
:105A8000C40300202404004074000020D003002040
:105A90006420FE49C874002010BD10B54FF40041C9
:105AA000FB4801F0E3F801280BD1FA48007840B92F
:105AB0006420F649C8740020F7490860F749086077
:105AC00010BDFAF791FF041E01DB204600E06042A2
:105AD000F3490968884208DDEE480078012804D1BE
