:020000040800F2
:10000000D03300205D550008450200084702000873
:100010004B0200084F0200085302000800000000D5
:100020000000000000000000000000009D0100082A
:100030005702000800000000E10100087785000871
:100040007755000877550008775500087755000860
:100050007755000877550008775500087755000850
:100060005F040008A3040008775500080103000896
:10007000E30200083F0300087755000875020008F6
:100080007755000881020008775500087755000869
:100090007755000877550008775500087755000810
:1000A000775500087B030008A70300087755000870
:1000B000A9030008D70300080304000877550008C7
:1000C0007755000877550008775500085B0400084D
:1000D000775500085D02000877550008775500083D
:1000E00077550008775500087755000877550008C0
:1000F0007755000877550008775500081B0300085E
:1001000077550008775500082F0400085D040008A3
:1001100077550008775500084D030008590300087B
:10012000775500089B020008B502000877550008C3
:10013000775500087755000877550008775500086F
:10014000775500087755000877550008775500085F
:10015000D502000877550008775500087755000844
:10016000775500087755000877550008775500083F
:10017000775500087755000877550008775500082F
:100180007755000877550008DFF80CD009F056FDC8
:10019000004800478B520008D0330020234B1968D9
:1001A0000868B0E8F04F80F309884FF0000080F352
:1001B000118870470000000003480068006880F361
:1001C000088862B600DF00BF08ED00E0DFF80C0031
:1001D000016841F470010160704700BF88ED00E0E4
:1001E000EFF30980114B1A681EF0100F08BF20EDC5
:1001F000108A20E9F04F106008B54FF0140080F32A
:10020000118808F080FD4FF0000080F31188BDE8F0
:10021000084019680868B0E8F04F1EF0100F08BFDA
:10022000B0EC108A80F30988704700BF00040020FA
:10023000EFF311804FF0140181F31188704780F3C0
:1002400011887047704700BFFEE700BFFEE700BFA0
:10025000FEE700BFFEE770477047704710B540F2F9
:100260002551904807F09BFA18B120218D4807F0DE
:100270008DFA10BD10B58C498C4806F0C5F910BD3B
:1002800010B58B498948303006F094F920B188497F
:100290008648303006F0B8F910BD10B5854986485B
:1002A00006F088F928B18349834806F0ADF901F0DA
:1002B0008DFD10BD10B581497F48183006F0A4F9B6
:1002C0007F4840787E49097840EA012000B27D49A4
:1002D000088010BD10B57C497748603006F094F96D
:1002E00010BD10B573497148483806F063F930B154
:1002F00070496E48483806F087F900F09FFA10BD43
:1003000010B572496948603806F054F920B16F4958
:100310006648603806F078F910BD10B56C4963483E
:10032000483006F047F948B100216048483006F0EF
:1003300097F867495D48483006F066F910BD10B57A
:1003400059495A48303806F05FF910BD10B50121FF
:10035000604806F081FF10BD10B501215E4806F02F
:100360007BFF7A204F49888001215C4807F026F9FD
:1003700001215B4807F022F910BD10B50121594851
:1003800006F06AFF5748008800F0100028B1564870
:100390000068401E5449086004E053480068401C4F
:1003A0005149086010BD704710B50121880706F05B
:1003B00053FF4FF08040008800F0100028B14B48F8
:1003C0000068401E4949086004E048480068401C35
:1003D0004649086010BD10B50121454806F03CFFB4
:1003E0004348008800F0100028B142480068401ED1
:1003F0004049086004E03F480068401C3D490860EF
:1004000010BD10B501213C4806F026FF3A4800888F
:1004100000F0100028B139480068401E37490860D4
:1004200004E036480068401C3449086010BD10B52F
:100430000121334806F010FF3148008800F0100019
:1004400028B130480068401E2E49086004E02D485D
:100450000068401C2B49086010BD7047704710B5FC
:10046000042006F069F9D8B12021274805F0EDF9FC
:100470000421264805F0C4F9012804D100211648BA
:1004800006F06AFA09E00421204805F0B9F920B91C
:10049000114806F065FA1E49086004201D490860ED
:1004A00010BD7047001001402080002070600240A5
:1004B0000080202000880010286402400080201066
:1004C0001C0600208C0000200088002020800010E6
:1004D0000080002800100040001400400048004048
:1004E00000140140000001406C000020700000205A
:1004F0000004004074000020000800408800002034
:10050000000C00407800002000000240000C024077
:1005100068000020143C014070B50446204608F0F5
:10052000DBFF05462146FE4808F0DDFFA0B195221D
:100530002146FB4808F0C4FF0021FA4805F090FF6F
:10054000F748F8490C310860F648B838C0F8BC5094
:100550000121F44805F084FF70BD70B50446002504
:1005600010E0605D68B1615DEF4807F052F800BFD0
:100570008021ED4807F0FDF80028F9D0681CC5B2CD
:1005800000E070BDEDE770B5044600250FE05CB1FA
:100590002146E54807F03DF800BF8021E24807F01A
:1005A000E8F80028F9D000E070BD681CC5B2032D42
:1005B000EDDB00BFF8E713B50C460020FFF7E3FFC3
:1005C000DAA0FFF7CAFF2346D9A29621D94809F03D
:1005D0007FFBD848FFF7C1FFD7A0FFF7BEFFD4A22B
:1005E0009621D448009B09F073FBD248FFF7B5FF72
:1005F000D3A0FFF7B2FFFF20FFF7C5FFFF20FFF7F3
:10060000C2FFFF20FFF7BFFF1CBD70B505460C46BB
:10061000C6A0FFF7A2FF2246C5A1C64809F070FB9D
:10062000C448FFF79AFFC4A0FFF797FF2846FFF7DB
:1006300094FFC3A0FFF791FFFF20FFF7A4FF70BD59
:1006400077B585B00546FF26BBA103C9CDE90301F7
:10065000BBA000680290B5A00068019000240AE0E9
:100660000020B8490855B8490855B2490855AC4961
:100670000855601CC4B21E2CF2DB0A20AD4908707C
:10068000FF2048708870C870A9A1AF48079A09F088
:1006900037FBAD4901A808F007FF01A9A54808F0FC
:1006A00003FF03A9A34808F0FFFE2946A14808F06C
:1006B000FBFE9FA1A448069A09F022FBA2499D488F
:1006C00008F0F2FE02A99B4808F0EEFEFF209D49CB
:1006D000087048708870974808F0E6FE9548FFF764
:1006E0001BFF08B070BDF7B584B005460E46FF2766
:1006F00091A103C9CDE9020191A0006801908BA0EE
:1007000000680090002408E000208E4908558E49BA
:10071000085588490855601CC4B20A2CF4DB0A202D
:1007200084490870FF2048708870C87080A186488E
:10073000069A09F0E5FA8449684608F0B5FE69466C
:100740007C4808F0B1FE02A97A4808F0ADFE2946BF
:10075000784808F0A9FE3146764808F0A5FE01A9C0
:10076000744808F0A1FEFF20764908704870887030
:100770000020C87008716F4808F096FE6D48FFF7BA
:10078000CBFE07B0F0BD01B58EB070A2322101A83A
:100790000E9B09F09DFA01A8FFF7BEFE0FB000BD49
:1007A00073B584B00546FF2663A103C9CDE90201F4
:1007B00063A0006801905DA00068009000240AE03A
:1007C000002060490855604908555A490855544960
:1007D0000855601CC4B21E2CF2DB0A205549087073
:1007E000FF2048708870C87051A15748059A09F0D9
:1007F00087FA5549684608F057FE69464D4808F0A3
:1008000053FE02A94B4808F04FFE2946494808F01C
:100810004BFE4D49474808F047FE01A9454808F0FE
:1008200043FEFF204749087048708870414808F02F
:100830003BFE4048FFF770FE06B070BD1CB5464851
:100840000078454949780844434989780844424931
:10085000C97808444049097908443F49497908441E
:100860003D49897908443C49C97908443A49097A9B
:100870000844C0B201903848007A00F00F000090A0
:100880009DF800000D2803D00021344806F096FEA4
:100890001CBD3148007A00F00F000D2806D12E480B
:1008A000007800F0010008B10D2070470020FCE73F
:1008B0002948007800F0020008B1012070470020AC
:1008C000FCE730B52DED048B83B0254806F048F8E1
:1008D0002449096840EA0145284608F09AFF41EC9E
:1008E000190B9FED210B53EC102B08F023FF41EC6B
:1008F000180B08F09FFF019000244DE0184806F007
:100900002FF81849096840EA0145284608F081FF98
:1009100041EC190B9FED140B53EC102B28E0000059
:1009200076050020B86002400050004074000000CE
:1009300025640000400400202E7478743D220000DD
:100940002200000026050020FE0400206A302E76DA
:10095000616C3D25640000005806002000480040FE
:1009600000040040740000206666666666A64E407D
:1009700008F0E0FE41EC180B08F05CFF0290DDE9A6
:100980000121881A002801DB014600E041420529C7
:1009900000DA641C02980190022CAFDB029803B0CD
:1009A000BDEC048B30BD30B52DED048B83B0FE481B
:1009B00005F0D6FFFD49096840EA0145284608F0E0
:1009C00028FF41EC190B1FED180B53EC102B08F00E
:1009D000B1FE41EC180B08F02DFF0190002423E03C
:1009E000F14805F0BDFFF149096840EA0145284694
:1009F00008F00FFF41EC190B1FED250B53EC102BEA
:100A000008F098FE41EC180B08F014FF0290DDE9A5
:100A10000121881A002801DB014600E04142052936
:100A200000DA641C02980190022CD9DB0298404243
:100A300003B0BDEC048B30BD30B52DED048B83B01D
:100A40004FF0804005F08CFFD949096840EA014524
:100A5000284608F0DEFE41EC190B1FED3D0B53EC70
:100A6000102B08F067FE41EC180B08F0E3FE019034
:100A7000002424E04FF0804005F072FFCC49096863
:100A800040EA0145284608F0C4FE41EC190B1FED71
:100A90004A0B53EC102B08F04DFE41EC180B08F0FC
:100AA000C9FE0290DDE90121881A002801DB014618
:100AB00000E04142052900DA641C02980190022CF2
:100AC000D8DB029803B0BDEC048B30BD30B52DED02
:100AD000048B83B0B74805F043FFB749096840EA83
:100AE0000145284608F095FE41EC190B1FED620BFD
:100AF00053EC102B08F01EFE41EC180B08F09AFE88
:100B00000190002423E0AB4805F02AFFAA490968B8
:100B100040EA0145284608F07CFE41EC190B1FED28
:100B20006E0B53EC102B08F005FE41EC180B08F08F
:100B300081FE0290DDE90121881A002801DB0146CF
:100B400000E04142322900DA641C02980190022C34
:100B5000D9DB029803B0BDEC048B30BD01B581B088
:100B600000200090019800EBC0004000009002E0DF
:100B70000098401E009000980028F9D10CBD01B5E6
:100B800081B00020009044F25061019848430090E9
:100B900002E00098401E009000980028F9D10CBD9A
:100BA0001CB501211F2005F00FF84FF6FF700090D3
:100BB00001208DF8040000208DF8060001208DF83A
:100BC000070003208DF8050069467C4804F0B6FD57
:100BD0004FF6FF70009001208DF8040000208DF882
:100BE000060001208DF8070003208DF805006946F6
:100BF000734804F0A3FD4FF6FF70009001208DF8BC
:100C0000040000208DF8060001208DF80700032065
:100C10008DF8050069466B4804F090FD1CBD1CB5BD
:100C200001217E2004F0D0FFC020009000208DF82C
:100C3000040001208DF8070002208DF805006946A8
:100C4000614804F07BFD0620009000208DF8040030
:100C500001208DF8070002208DF8050069465748ED
:100C600004F06CFD0420009000208DF804000120A9
:100C70008DF8070002208DF805006946504804F001
:100C80005DFD1CBD1FB54FF4E06004F079FC36201B
:100C90008DF8000000208DF801008DF80200012081
:100CA0008DF80300684604F070FC0121102004F068
:100CB000BEFF3220ADF8040040F2E7300290002081
:100CC000ADF80C00ADF8060001A9404805F0FBFDA9
:100CD00001213E4806F0C0FA012211463B4806F0C9
:100CE00093FA0021394805F037FE0121374805F015
:100CF00073FE1FBD1FB54FF4E06004F041FC3720C8
:100D00008DF8000000208DF801008DF80200012010
:100D10008DF80300684604F038FC0121202004F01F
:100D200086FF3220ADF8040040F2E7300290002048
:100D3000ADF80C00ADF8060001A9254805F0C3FD8B
:100D40000121234806F088FA01221146204806F0C6
:100D50005BFA00211E4805F0FFFD01211C4805F04B
:100D60003BFE1FBD00B58BB00121022004F070FFD7
:100D700001210C2004F028FF03220621104804F072
:100D800068FD032207210E4804F063FD03220821B9
:100D90000B4804F05EFD03220921094804F059FDC7
:100DA0004FF47070069015E0000C004078000020B1
:100DB00070000020000001406C0000200004024090
:100DC00000080240000C02400000024000100040F9
:100DD0000014004002208DF81C0003208DF81D0037
:100DE00000208DF81E0001208DF81F0006A9FE4886
:100DF00004F0A4FCA420ADF8200040F6B83009901F
:100E00004FF48070ADF828000020ADF8220008A94A
:100E1000F64805F058FD6020ADF804000120ADF85B
:100E2000060000200390ADF810000121EF4805F006
:100E3000D3FD0021ED4805F08FFD01A9EB4805F039
:100E4000D7FD01A9E94805F00CFE01A9E74805F026
:100E500055FE01A9E54805F0B7FE0121E34806F07B
:100E6000ACF90BB000BD00B58BB00121082004F037
:100E7000DEFE0121084604F0A7FE02220021DC4824
:100E800004F0E7FC02220121D94804F0E2FC02222E
:100E90001146D74804F0DDFC02220321D44804F0B7
:100EA000D8FC0F20069002208DF81C0003208DF83E
:100EB0001D0000208DF81E0001208DF81F0006A9DE
:100EC000CB4804F03BFCBA20ADF8200042F2107091
:100ED00009900020ADF82800ADF8220008A9C54807
:100EE00005F0F1FC6020ADF804000120ADF806002B
:100EF00000200390ADF810000121BE4805F06CFD04
:100F00000021BC4805F028FD01A9BA4805F070FD94
:100F100001A9B84805F0A5FD01A9B64805F0EEFD08
:100F200001A9B44805F050FE0121B24806F045F988
:100F30000BB000BD00B58BB00121042004F077FE9A
:100F400001210D2004F040FE02220C21AA4804F0E9
:100F500080FC02220D21A84804F07BFC02220E2115
:100F6000A54804F076FC02220F21A34804F071FC8E
:100F70004FF47040069002208DF81C0003208DF87D
:100F80001D0000208DF81E0001208DF81F0006A90D
:100F9000994804F0D3FBA420ADF8200040F6B83007
:100FA00009904FF48070ADF828000020ADF82200C1
:100FB00008A9924805F087FC6020ADF804000120E4
:100FC000ADF8060000200390ADF8100001218B4819
:100FD00005F002FD0021894805F0BEFC01A9874803
:100FE00005F006FD01A9854805F03BFD01A98348F0
:100FF00005F084FD01A9814805F0E6FD0BB000BDB8
:1010000000B589B00121080404F022FE0121084640
:1010100004F0DAFD03221146754804F01AFC03229D
:101020000221734804F015FC0C20019002208DF879
:10103000080003208DF8090000208DF80A00012027
:101040008DF80B0001A96A4804F078FB0020ADF888
:1010500018004FF6FF7007900020ADF82000ADF8A3
:101060001A0006A9664805F02EFC0420ADF80C0015
:101070000020ADF80E00C820ADF814000120ADF836
:10108000100003A95E4805F0F5FF00231A4603216E
:101090005C4806F08CF901215A4806F0DDF801227F
:1010A0001146584806F0B0F80121554805F094FC67
:1010B0000021544805F050FC09B000BD00B589B0CE
:1010C0000121084604F0B3FD0121022004F0AFFD28
:1010D0000121032004F078FD01220F21444804F08F
:1010E000B8FB01220321484804F0B3FB022204218B
:1010F000454804F0AEFB02220521434804F0A9FB59
:101100003820019002208DF8080003208DF8090096
:1011100000208DF80A0001208DF80B0001A93A4843
:1011200004F00CFB4FF40040019002208DF8080001
:1011300003208DF8090000208DF80A0001208DF8A9
:101140000B0001A92A4804F0F9FA0020ADF81800B4
:101150004FF6FF7007900020ADF82000ADF81A00A0
:1011600006A94FF0804005F0AEFB06A9274805F020
:10117000AAFB0420ADF80C000220ADF80E001420EC
:10118000ADF814000120ADF8100003A9800705F0A8
:1011900071FF03A91D4805F06DFF02231A460321C4
:1011A000580706F004F902231A460321174806F0EF
:1011B000FEF80121880706F04FF80121134806F0D8
:1011C0004BF801221146900706F01EF80122114645
:1011D0000E4806F019F80121880705F0FDFB0121F2
:1011E0000A4805F0F9FB13E0000802400004014042
:1011F00000000240000C0040000C024000080040CB
:101200000000014000400140000402400004004092
:1012100000214FF0804005F09FFB0021FE4805F0C3
:101220009BFB4FF4C06004F0ABF91D208DF800006B
:1012300003208DF8010000208DF8020001208DF8B8
:101240000300684604F0A1F91C208DF8000004207A
:101250008DF8010000208DF8020001208DF80300B8
:10126000684604F092F909B000BD00B589B00121CB
:10127000084604F0EDFC0121102004F0A5FC4FF419
:101280002060019002208DF8080003208DF80900ED
:1012900000208DF80A0001208DF80B0001A9DF481D
:1012A00004F04CFA01220921DC4804F0D2FA0122B0
:1012B0000B21DA4804F0CDFA0020ADF818004FF603
:1012C000FF7007900020ADF82000ADF81A0006A9C5
:1012D000D34805F0F8FA0420ADF80C000020ADF872
:1012E0000E000A20ADF814000120ADF8100003A98B
:1012F000CB4805F0BFFE00231A460321C84806F07C
:1013000056F80121C64805F0A7FF01221146C4483E
:1013100005F07AFF0121C24805F09EFF0122114627
:10132000BF4805F071FF0121BD4805F055FB0021C4
:10133000BB4805F011FB4FF4C06004F021F91920FF
:101340008DF8000001208DF8010000208DF80200CA
:1013500001208DF80300684604F017F909B000BDBC
:1013600000B589B00121042004F061FC01210820AE
:1013700004F02AFC4FF44050019002208DF8080040
:1013800003208DF8090000208DF80A0001208DF857
:101390000B0001A9A34804F0D1F90020ADF8180012
:1013A0004FF6FF7007900020ADF82000ADF81A004E
:1013B00006A99D4805F087FA02220C21994804F0FD
:1013C00048FA02220D21974804F043FA0420ADF8B0
:1013D0000C000220ADF80E00C820ADF8140001206A
:1013E000ADF8100003A9904805F044FE02231A4608
:1013F00003218D4805F0DBFF01218B4805F02CFF10
:1014000001221146884805F0FFFE0121864805F0BB
:10141000E3FA0021844805F09FFA00208249143144
:1014200008800120804908804FF4C06004F0A8F8CB
:101430001E208DF8000004208DF8010000208DF89A
:10144000020001208DF80300684604F09EF809B000
:1014500000BD00B589B00121082004F0E8FB01219E
:10146000084604F0B1FB0320019002208DF808002B
:1014700003208DF8090000208DF80A0001208DF866
:101480000B0001A9694804F059F90020ADF81800D3
:101490004FF6FF7007900020ADF82000ADF81A005D
:1014A00006A9634805F00FFA022200215F4804F004
:1014B000D0F9022201215D4804F0CBF90420ADF8F7
:1014C0000C000220ADF80E00C820ADF81400012079
:1014D000ADF8100003A9564805F0CCFD02231A46CA
:1014E0000321534805F063FF0121514805F0B4FE84
:1014F000012211464E4805F087FE01214C4805F0B7
:101500006BFA00214A4805F027FA002048491431B7
:1015100008800120464908804FF4C06004F030F88C
:1015200032208DF8000004208DF8010000208DF895
:10153000020001208DF80300684604F026F809B087
:1015400000BD00B59BB001213A4804F03DFB0121EC
:10155000080204F07DFB00200290374803903748D2
:1015600004900020059008200690002007904FF47A
:10157000806008904000099080000A9040110B9014
:1015800040020C9000200D9001200E9000200F9042
:10159000109002A92A4804F029FF0121284804F0EC
:1015A0005FFF3C20009003208DF8040000208DF8A0
:1015B000070069461D4804F0C1F83C200090032054
:1015C0008DF8040000208DF8070069461D4804F0DE
:1015D000B5F80020119012901390149011A804F007
:1015E0006BFC4FF08070159001208DF858008DF83D
:1015F0005900002017901890199008208DF8680065
:1016000015A90D484C3804F028FC002301220221C2
:1016100009484C3818E00000000400400010024067
:1016200000000140000C02400008004000000240A1
:10163000000C0040050040004C2001400C0600203A
:10164000106402400008024004F08DFC00230222D6
:101650000321FA4804F087FC002303220421F74801
:1016600004F081FC002304220521F44804F07BFCF3
:10167000002305220C21F14804F075FC002306220A
:101680000D21EE4804F06FFC002307220E21EB48E9
:1016900004F069FC002308220F21E84804F063FCF1
:1016A0000121E64804F00AFD0121E44804F0FBFCB6
:1016B0000121E24804F017FCE04804F0B0FC1BB044
:1016C00000BD08B54FF4E06003F05AFF25208DF807
:1016D000000000208DF801008DF8020001208DF837
:1016E0000300684603F051FF08BD10B596B00446EC
:1016F0000121102004F0ACFA0121084604F064FA3C
:101700000121880504F060FA4FF4C06000900220C7
:101710008DF8040000208DF806008DF807000220E7
:101720008DF805006946C64804F008F8072209212B
:10173000C34804F08EF807220A21C14804F089F852
:1017400002940020ADF80C00ADF80E00ADF81000CA
:10175000ADF814000C20ADF8120002A9B94805F04C
:10176000A5FE0121B74805F029FF4FF4A06003F062
:1017700007FF3A208DF8180000208DF819008DF829
:101780001A0001208DF81B0006A803F0FEFEAE48EB
:1017900004F08AFD4FF00060079000200A90AB48EB
:1017A00009900A200B90A748001D089000200C907B
:1017B0004FF480600D9000200E900F904FF48070D9
:1017C00010904002119004201290032013900020EA
:1017D0001490159007A99C4804F008FE01224021AE
:1017E000984805F098FF01221021974804F0C5FEA3
:1017F0000121954804F034FE16B010BD10B596B026
:1018000004460121480504F0DFF90121480404F0F1
:101810000EFA0121082004F0D7F960200090022080
:101820008DF8040000208DF806008DF807000220D6
:101830008DF805006946864803F080FF07220521E0
:10184000834804F006F807220621814804F001F8D5
:1018500002940020ADF80C00ADF80E00ADF81000B9
:10186000ADF814000C20ADF8120002A9794805F07B
:101870001DFE0121774805F0A1FE4FF4A06003F0A2
:101880007FFE11208DF8180000208DF819008DF8CA
:101890001A0001208DF81B0006A803F076FE6E48A2
:1018A00004F002FD4FF00060079040200A906B4862
:1018B000099050200B906748001D089000200C9064
:1018C0004FF480600D9000200E900F904FF48070C8
:1018D00010904002119004201290032013900020D9
:1018E0001490159007A95C4804F080FD0122802126
:1018F000584805F010FF01228021564805F00BFFE3
:1019000001221021544804F038FE0121524804F00D
:10191000A7FD16B010BD10B596B00446012188048D
:1019200004F085F90121082004F04EF90121480551
:1019300004F04AF94FF44070009002208DF8040042
:1019400000208DF806008DF8070002208DF80500B4
:1019500069463F4803F0F2FE072208213C4803F0A5
:1019600078FF072209213A4803F073FF0294002010
:10197000ADF80C00ADF80E00ADF81000ADF8140095
:101980000C20ADF8120002A9354805F08FFD0121A9
:10199000334805F013FE4FF4A06003F0F1FD0C2076
:1019A0008DF8180000208DF819008DF81A0001201C
:1019B0008DF81B0006A803F0E8FD2748783804F0EE
:1019C00073FC4FF00060079000200A9025480990B2
:1019D0000A200B902248001D089000200C904FF424
:1019E00080600D9000200E900F904FF4807010904A
:1019F00040021190042012900320139000201490B4
:101A0000159007A91448783804F0F0FC0122402111
:101A1000134805F080FE01224021114805F07BFEAD
:101A2000012210210C48783804F0A7FD01210A4852
:101A3000783804F015FD16B010BD000000200140FC
:101A40000000024000100140406402401C060020DB
:101A5000000C024000440040A0600240040000204E
:101A6000004800405806002010B596B004460121F9
:101A7000C80404F0DCF80121084604F0A5F80121AF
:101A8000480504F0A1F80320009002208DF804001E
:101A900000208DF806008DF8070002208DF8050063
:101AA0006946FE4803F04AFE08220021FB4803F085
:101AB000D0FE08220121F94803F0CBFE0294002059
:101AC000ADF80C00ADF80E00ADF81000ADF8140044
:101AD0000C20ADF8120002A9F14805F0E7FC012145
:101AE000EF4805F06BFD4FF4A06003F049FD0D20B9
:101AF0008DF8180000208DF819008DF81A000120CB
:101B00008DF81B0006A803F040FDE64804F0CCFB6E
:101B10004FF00060079000200A90E34809900820E9
:101B20000B90DF48001D089000200C904FF480605F
:101B30000D9000200E900F904FF480701090400296
:101B400011900420129003201390002014901590FF
:101B500007A9D44804F04AFC01224021D04805F0EE
:101B6000DAFD01224021CE4805F0D5FD01221021E9
:101B7000CC4804F002FD0121CA4804F071FC16B003
:101B800010BD10B596B004460121480504F01CF8BC
:101B90000121080504F04BF801210C2004F014F891
:101BA0000420009002208DF8040000208DF806002B
:101BB0008DF8070002208DF805006946BB4803F048
:101BC000BDFD4FF48050009002208DF804000020ED
:101BD0008DF806008DF8070002208DF80500694693
:101BE000B34803F0ABFD08220221B04803F031FEF8
:101BF00008220C21AE4803F02CFE4FF4A06003F045
:101C0000BFFC2F208DF8180005208DF819008DF8E5
:101C10001A0001208DF81B0006A803F0B6FC029400
:101C20000020ADF80C00ADF80E00ADF81000ADF8D6
:101C300014000C20ADF8120002A99E4805F036FCF5
:101C400001219C4805F0BAFC9648783004F02CFB42
:101C50004FF00060079040200A9097480990962026
:101C60000B909448001D089000200C904FF4806069
:101C70000D9000200E900F9010904FF400301190B6
:101C8000002012900320139000201490159007A9B3
:101C90008448783004F0AAFB01228021854805F0B1
:101CA0003AFD012210217F48783004F066FC0121C2
:101CB0007C48783004F0D4FB16B010BD10B596B057
:101CC00004460121202003F0C3FF0121042003F07A
:101CD0007BFF0121880503F077FFC02000900220E0
:101CE0008DF8040000208DF806008DF80700022012
:101CF0008DF8050069466E4803F020FD0822062194
:101D00006B4803F0A6FD08220721694803F0A1FDF6
:101D100002940020ADF80C00ADF80E00ADF81000F4
:101D2000ADF814000C20ADF8120002A9634805F0CC
:101D3000BDFB0121614805F041FC4FF4A06003F0B8
:101D40001FFC39208DF8180003208DF819000120A0
:101D50008DF81A008DF81B0006A803F016FC5848F1
:101D600004F0A2FA4FF02060079000200A90554836
:101D7000099010200B905148001D089000200C90F5
:101D80004FF480600D9000200E900F904FF4807003
:101D90001090400211900420129003201390002014
:101DA0001490159007A9464804F020FB0122402119
:101DB000424805F0B0FC01221021414804F0DDFB4F
:101DC00001213F4804F04CFB16B010BD0EB50020B9
:101DD0000290019000903B48007802282ED13948AB
:101DE000407801903748C0783649897840EA012028
:101DF000009034490978334A52781144314A927834
:101E00001144304AD2788818C11700EB11610912C9
:101E1000A0EB0121C9B202912A4800799DF808106F
:101E200088420BD127484079032807D19DF8040048
:101E300025490870BDF80000244908800EBD00B592
:101E400085B00121082003F0BFFE0121880303F0C3
:101E5000FFFE00208DF8100001208DF813000C20EB
:101E6000039003A9114803F069FC0221032005F047
:101E7000EBFC0420009000208DF8040010208DF869
:101E8000050001208DF80600684604F0EFFB0820ED
:101E90008DF8080000208DF8090019E000000240CC
:101EA000004C0040406002402B060020000C024025
:101EB0000008024000500040760500200014014058
:101EC000286402406706002073010020740100208E
:101ED0008DF80A0001208DF80B0002A803F055FBD5
:101EE00005B000BD70B504460D46012C0BD1294646
:101EF000FE4805F08EFB00BF4021FC4805F039FC90
:101F00000028F9D028E0032C0BD12946F84805F029
:101F100080FB00BF4021F64805F02BFC0028F9D0DB
:101F20001AE0042C0BD12946F24805F072FB00BFE1
:101F30004021F04805F01DFC0028F9D00CE0052CEC
:101F40000AD12946EC4805F064FB00BF4021EA486D
:101F500005F00FFC0028F9D070BD0020E749486269
:101F6000E7490860E7490860E749086070470020D2
:101F7000E2494862E24908604FF080414862E34923
:101F80000860E3490860E3490860DE490860DE490B
:101F90000860E1490860E1490860704700204FF09F
:101FA00080414862D949086070470020D8490860DC
:101FB000D8490860704710B50020D949087000243E
:101FC00007E061210120FFF78DFF3220FEF7D7FDEA
:101FD000641C022CF5D30120D14908707A20D14924
:101FE000087010BD10B50020CF490870002407E02C
:101FF00061210320FFF776FF3220FEF7C0FD641C4D
:10200000022CF5D30120C84908707A20C74908700E
:1020100010BD2DE9F14FAEB0C5A02D9000202C9041
:102020008DF888008DF860002E98122831D2DFE8F4
:1020300000F009313A41484F565F68717A81888FC4
:10204000969DA4FD0221C34803F0DAFB88B100226B
:102050004FF40041C04803F0F1FB4FF40041BE488B
:1020600003F0DBFB044600222146BCA0FEF7E8FAA1
:102070000FE00122D103B84803F0E0FB4FF4004128
:10208000B54803F0CAFB044600222146BBA0FEF778
:10209000D7FA4DE20122C148B0F900004142C0A088
:1020A000FEF7CEFA44E20222BF480168BFA0FEF765
:1020B000C7FA3DE20322C0480168C0A0FEF7C0FA9B
:1020C00036E20422BF480168BFA0FEF7B9FA2FE24A
:1020D0000522C0480168C0A0FEF7B2FA28E2FEF768
:1020E000F0FB044606222146BFA0FEF7A9FA1FE234
:1020F000FEF759FC044607222146BEA0FEF7A0FACF
:1021000016E2FEF799FC044608222146BCA0FEF721
:1021100097FA0DE2FEF7DAFC044609222146BBA03D
:10212000FEF78EFA04E20A22BB480168BBA0FEF764
:1021300087FAFDE10B22A3480168BCA0FEF780FAF4
:10214000F6E10C229C480168BCA0FEF779FAEFE1A9
:102150000D22BD480178BDA0FEF772FAE8E10E221B
:10216000BD480188BDA0FEF76BFAE1E10F22BD4832
:102170000168BDA0FEF764FADAE10121BE4803F070
:102180003FFB4FF400511790734803F039FB0446AE
:102190000221B94803F034FB05464FF480416E48F4
:1021A00003F02EFB06460421B34803F029FB4FF44D
:1021B00000411690B04803F023FB07460821AE48C3
:1021C00003F01EFB80464FF48041AB4803F018FB40
:1021D00081461021A84803F013FB4FF400511590DD
:1021E000A54803F00DFB82460821A44803F008FB34
:1021F0004FF480511490A04803F002FB102113907B
:102200009E4803F0FDFA4FF4806112909A4803F063
:10221000F7FA83468021984803F0F2FA4FF4807170
:102220001190954803F0ECFA109000E021E0179827
:10223000CDE90B65CDE90D401698CDE90798CDE9BC
:102240000970DDE913121598CDE9042A039106906F
:10225000DDE91101CDE901B1009089A2282122A870
:10226000109B07F035FD102222A98EA0FEF73BFA45
:102270005EE18021374803F0D0FA04460121354859
:1022800003F0CBFA05464021324803F0C6FA064671
:102290004FF40041794803F0C0FA07464FF48051EB
:1022A000814803F0BAFA80464FF48061294803F070
:1022B000B4FA81464FF400617B4803F0AEFA4FF464
:1022C00000611790234803F0A8FA82464FF480611A
:1022D0006A4803F0A2FA83464FF480511D4803F088
:1022E0009CFA4FF4006116906448DFE00010014052
:1022F00000480040004C00400050004000000140F9
:102300006C0000202408004088000020700000209D
:102310002404004074000020240C004078000020B9
:1023200091000020900000209300002092000020E7
:10233000313131313131313131313131313131318D
:10234000313131313131303131313131313131317E
:10235000000000000004024000080240524F424FBB
:102360005420322044414E47204348415920534194
:102370004E2058414E483A2020200000524F424FF4
:102380005420322044414E47204348415920534174
:102390004E20444F3A202020000000008C000020F6
:1023A000494D553A00000000B000002042545F4EF5
:1023B000414E475F48413A0010030020204C5543EE
:1023C000203A0000080300204C75632042616E3AF9
:1023D000200000009C0000204769615F7472695F03
:1023E0006C617A6572200000454E434F4445525F50
:1023F00030482000454E434F4445525F344820004A
:10240000454E434F4445525F38482000454E434FA8
:102410004445525F52522000AC00002042545F4EAF
:10242000414E475F4E4F4E473A00000046696E618D
:102430006C5F666F726365203A000000666F7263BE
:10244000655F4C3A00000000730100204F66667320
:102450006574203A00000000740100204469737420
:10246000633A000018030020466F7263655F747260
:1024700061636B3A0000000000100240000C024053
:102480002564256425642564256425642564256404
:1024900025642564256425642564256425642564F4
:1024A00000000000493A00000000024003F0B5F9C6
:1024B0004FF400511590FD4803F0AFF94FF48041FF
:1024C0001490FB4803F0A9F94FF480411390F748AA
:1024D00003F0A3F94FF480711290F64803F09DF9D0
:1024E0004FF400411190F14803F097F9CDE90B76D4
:1024F000CDE90D5410901798CDE907A0CDE90998C2
:1025000014A807C803ABA3E80708DDE91112139864
:10251000CDE900120290AFF29802282122A8109B68
:1025200007F0D6FB112222A9E3A0FEF7DCF800BFDA
:1025300000BF2FB0BDE8F08F10B50121E04803F0D7
:102540008FFF10BD01B5DF4800680099884203DDA8
:102550000020DC49086004E0DA480068401CD949E2
:102560000860D8480068FFF754FD08BD10B5FEF7B5
:10257000A8F9D5490860FEF716FAD4490860FEF7B5
:102580005BFAD349086010BD2DE9F0412DED088BB1
:1025900006460F46304607F03CF941EC190B9FED1B
:1025A000CD1BB0EE490AF0EE690A08F015F8B0EE5E
:1025B000408AF0EE608A51EC180B07F03BF90446B4
:1025C000002C02DBA4F5E16401E004F5E164384687
:1025D00007F01FF941EC1B0B9FEDBE1BB0EE4B0A41
:1025E000F0EE6B0A07F0F8FFB0EE409AF0EE609A5A
:1025F000304607F00EF941EC1B0B9FEDB61BB0EE19
:102600004B0AF0EE6B0A07F0E7FFB0EE40AAF0EEDF
:1026100060AA53EC192B51EC1A0B07F013F841EC9C
:10262000180B07F007F905462846211E01DB0A466C
:1026300000E04A42002801DB034600E043429A42A0
:1026400005DA25464FF0FF30A449086003E035461F
:102650000120A24908602846BDEC088BBDE8F08146
:102660000146FA2901DDFA2102E0032900DC0221FA
:10267000C8B2704710B504460B4624B99848007894
:102680009849C87116E0984890ED000AB5EEC00A66
:10269000F1EE10FA07DD2046FFF7E2FF9149C8711D
:1026A0000120887106E06042FFF7DAFF8D49C871AA
:1026B0000020887123B98A4800788A49C87516E0D5
:1026C0008A4890ED000AB5EEC00AF1EE10FA07DD77
:1026D0001846FFF7C5FF8349C8750020887506E0D6
:1026E0005842FFF7BDFF7F49C8750120887522B9A0
:1026F0007B4800787B49C87316E07D4890ED000A5E
:10270000B5EEC00AF1EE10FA07DD1046FFF7A8FF9C
:102710007449C8730020887306E05042FFF7A0FF99
:102720007049C8730120887310BD724B1860724BDA
:102730001960724B1A6070476A4AD071D075D073B5
:1027400070476848C079032809DA6648C07D0328C5
:1027500005DA6448C07B032801DA012070470020B5
:10276000FCE701206649086070476648006847F248
:102770003051884201D0012070470020FCE710B59D
:10278000FFF719FC10BD00207047B5EEC00AF1EE4E
:1027900010FA09D25C48D0ED000A70EE600AFDEE36
:1027A000E00A10EE900A70475748D0ED000A70EE2C
:1027B000200AFDEEE00A10EE900AF4E710B52DEDC8
:1027C000088B044624B99FED510ABDEC088B10BD5F
:1027D000002C1DDA4E48006807F01BF841EC190B7D
:1027E000600007F016F841EC1B0B9FED4A0B53EC11
:1027F000102B06F027FF41EC1A0B53EC192B06F0B7
:1028000099FF41EC180B07F047F800EE100ADCE7DF
:102810003F48006806F0FDFF41EC190B600006F030
:10282000F8FF41EC1B0B9FED3B0B53EC102B06F01C
:1028300068FE41EC1A0B53EC192B06F07BFF41ECC0
:10284000180B07F029F800EE100ABEE7F0EE400A78
:10285000F5EEC00AF1EE10FA02DBB0EE600A704746
:10286000B1EE600AFBE70146002901DB084670472C
:102870004842FCE701462948D0ED000AF1EE600A23
:102880002748D0ED001A80EEA11A00EE901AF8EE5B
:10289000E01A2248D0ED000A41EE210AB0EE600AAB
:1028A000FDEEC00A10EE900A7047000000040240DE
:1028B000000C0240000002404F55543A0000000056
:1028C000A060024084000020680300206C03002008
:1028D00070030020000000000020AC4064020020D3
:1028E000C001002004000020280200202C0200204B
:1028F000300200204C020020500200205402002030
:10290000A0020020EC010020800100200000000057
:10291000D8010020333333333333D33FB8010020A1
:10292000BC010020F0EE401A9FEDFE2AB0EE420AF4
:10293000F5EEC01AF1EE10FA03D2B1EE612AF0EE14
:10294000421AF5EEC00AF1EE10FA03D2B1EE602A97
:10295000F0EE420AB5EEC01AF1EE10FA03D2B1EE73
:10296000412AB0EE421AF4EEC01AF1EE10FA01DD7F
:10297000B0EE610AF4EEC00AF1EE10FA01DDB0EE3D
:10298000600AB4EEC01AF1EE10FA01DDB0EE410AB1
:102990007047E54800687047E4480068704710B524
:1029A0002DED0A8BF0EE408A18EE900A06F061FFDA
:1029B00041EC1C0B1FED391BB0EE4C0AF0EE6C0A1B
:1029C00007F00AFEB0EE40BAF0EE60BA1FED3F0B22
:1029D00053EC102B51EC1B0B06F093FD41EC1A0B42
:1029E0001FED441BB0EE4A0AF0EE6A0A07F0F4FD50
:1029F000B0EE409AF0EE609A51EC190B06F04CFFE5
:102A000008EE100A9FEDCA0AB4EEC08AF1EE10FA81
:102A100006DD9FEDC80AB4EEC08AF1EE10FA0BD3C2
:102A2000B5EEC08AF1EE10FA0ADB9FEDC30AB4EEF0
:102A3000C08AF1EE10FA03D80120BDEC0A8B10BD5C
:102A40009FEDBE0AB4EEC08AF1EE10FA01D8022062
:102A5000F3E79FEDBB0AB4EEC08AF1EE10FA01D89D
:102A60000320EAE70420E8E710B52DED108B8AB0CB
:102A7000B0EE408AF0EE608AB0EE419AB14890ED37
:102A8000000A28EE000ADFEDB00A80EE201A11EEEF
:102A9000104A204606F0EDFECDE908019DED080B39
:102AA00007F096FAB0EE40FAF0EE60FA18EE900AEF
:102AB00006F0DFFE41EC1E0B53EC1F2B06F0C8FDA9
:102AC00041EC1C0B06F0E8FE0AEE900A19EE100A23
:102AD00006F0CFFECDE906019A4890ED000A28EEF7
:102AE000000ADFED990A80EE201A11EE104A204606
:102AF00006F0BFFE41EC1E0BB0EE4E0AF0EE6E0A81
:102B000008F0FAFD8DED040B18EE900A06F0B1FE08
:102B100041EC1C0B9DED040B53EC102B06F098FDC3
:102B200041EC1F0B9DED060B53EC102B06F0E9FC5E
:102B3000CDE908019DED080B51EC100B06F0ACFE41
:102B40000BEE100A9FED810A38EE400A7D48D0ED69
:102B5000000A20EE200ADFED7C0A80EE201A11EE3A
:102B6000104A204606F085FECDE908019DED080BD0
:102B700007F02EFAB0EE40FAF0EE60FA18EE900A86
:102B800006F077FE41EC1E0B53EC1F2B06F060FDA8
:102B900041EC1C0B06F080FE0BEE900A19EE100AB9
:102BA00006F067FE41EC1F0B9FED680A38EE400A05
:102BB0006448D0ED000A20EE200ADFED630A80EEC3
:102BC000201A11EE104A204606F053FE41EC1E0B6F
:102BD000B0EE4E0AF0EE6E0A08F08EFD8DED040B9D
:102BE00018EE900A06F045FE41EC1C0B9DED040B1F
:102BF00053EC102B06F02CFD53EC1F2BCDE90601F6
:102C00009DED060B51EC100B06F07BFCCDE90801A5
:102C10009DED080B51EC100B06F03EFE0DEE100A78
:102C20009FED4B0A38EE400A4648D0ED000A20EEF0
:102C3000200ADFED450A80EE201A11EE104A2046E8
:102C400006F017FE41EC1E0BB0EE4E0AF0EE6E0AD7
:102C500007F0BEF9B0EE40FAF0EE60FA18EE900A16
:102C600006F007FE41EC1C0B53EC1F2B06F0F0FCAA
:102C7000CDE908019DED080B51EC100B06F00CFEA0
:102C800009EE900A19EE100A06F0F3FD9FED300AE6
:102C900038EE400ACDE906012A48D0ED000A20EEC0
:102CA000200ADFED290A80EE201A11EE104A204694
:102CB00006F0DFFD41EC1E0BB0EE4E0AF0EE6E0AA0
:102CC00008F01AFDB0EE40CAF0EE60CA18EE900AA5
:102CD00006F0CFFD41EC1F0B53EC1C2B06F0B8FCAB
:102CE000CDE904019DED060B53EC102B9DED040B7B
:102CF00051EC100B06F005FCCDE908019DED080B29
:102D000051EC100B06F0C8FD0AEE100AF0EE6A0A4C
:102D1000B0EE4B0A07F034F8DFED0B0A20EE200A84
:102D2000084817E06F12833AD801002008020020FB
:102D300000E04445000061450000E14300C0A844B4
:102D400000A00C45CC0100200000E14400009644A6
:102D500000001645D0ED000A80EE201AFD4880EDF7
:102D6000001AFD480168FB4890ED000ABDEEC00A5C
:102D700010EE100AFFF708FC00EE100AB8EEC00AC9
:102D8000F44880ED000AF54890ED000AB8EEC00A5C
:102D9000F34880ED000AF148006806F03AFDCDE9FD
:102DA00006011BEE100A06F064FD41EC1E0B9FEDC0
:102DB000ED1BB0EE4E0AF0EE6E0A07F075FEB0EEB7
:102DC00040FAF0EE60FA1AEE900A06F052FD41EC7D
:102DD0001E0B9FEDE41BB0EE4E0AF0EE6E0A07F0FC
:102DE00063FE8DED000B53EC1F2B9DED000B51ECA2
:102DF000100B06F086FBCDE902019DED020B08F0F9
:102E0000DFFCB0EE40CAF0EE60CA9FEDD80B53EC89
:102E1000102B51EC1C0B06F08DFCCDE904019DED4F
:102E2000060B53EC102B9DED040B51EC100B06F030
:102E30000FFCCDE908019DED080B51EC100B06F0DD
:102E40002BFDCC490860F0EE6B0AB0EE4D0A06F09F
:102E500097FF5FED430A20EE200AC748D0ED000A35
:102E600080EE201AC54880ED001AC5480168C348A5
:102E700090ED000ABDEEC00A10EE100AFFF784FBC9
:102E800000EE100AB8EEC00ABC4880ED000AB34854
:102E900090ED000AB8EEC00ABA4880ED000AAF48CB
:102EA000006806F0B6FCCDE906011DEE100A06F03A
:102EB000E0FC41EC1E0B9FEDAB1BB0EE4E0AF0EEBA
:102EC0006E0A07F0F1FD8DED020B1BEE900A06F085
:102ED000D0FC41EC1E0B9FEDA31BB0EE4E0AF0EEB2
:102EE0006E0A07F0E1FD8DED000B9DED020B53EC3A
:102EF000102B9DED000B51EC100B06F002FB41EC8A
:102F00001C0BB0EE4C0AF0EE6C0A08F059FCB0EE67
:102F100040FAF0EE60FA9FED950B53EC102B51EC5C
:102F20001F0B06F007FCCDE904019DED060B53ECE9
:102F3000102B9DED040B51EC100B06F089FBCDE935
:102F400008019DED080B51EC100B06F0A5FC8E4915
:102F50000860F0EE690AB0EE4A0A06F011FF5FED74
:102F6000860A20EE200A8448D0ED000A80EE201A5E
:102F7000864880ED001A86480168844890ED000A72
:102F8000BDEEC00A10EE100AFFF7FEFA00EE100ABE
:102F9000B8EEC00A7D4880ED000A704890ED000A46
:102FA000B8EEC00A7B4880ED000A6C48006806F065
:102FB00030FC41EC1F0B1AEE100A06F05AFC41ECF3
:102FC0001E0B9FED681BB0EE4E0AF0EE6E0A07F086
:102FD0006BFD8DED000B19EE900A06F04AFC41ECFA
:102FE0001E0B9FED601BB0EE4E0AF0EE6E0A07F06E
:102FF0005BFDB0EE40CAF0EE60CA9DED000B53ECF5
:10300000102B51EC1C0B06F07CFACDE902019DED72
:10301000020B08F0D5FB8DED040B9FED540B53EC28
:10302000102B9DED040B51EC100B06F083FB53ECC1
:103030001F2BCDE906019DED060B51EC100B06F0A0
:1030400007FBCDE908019DED080B51EC100B06F0D4
:1030500023FC514908601AEE100A06F00AFC41EC04
:103060001F0B9FED401BB0EE4F0AF0EE6F0A07F00A
:103070001BFD8DED080B19EE900A06F0FAFB41ECF2
:103080001F0B9FED381BB0EE4F0AF0EE6F0A07F0F2
:103090000BFD8DED060B9DED080B53EC102B9DEDFC
:1030A000060B51EC100B06F02CFA41EC1C0BB0EEA9
:1030B0004C0AF0EE6C0A08F083FBB0EE40EAF0EE4A
:1030C00060EA51EC1E0B06F0B5FB344908602E484F
:1030D00090ED000ABDEEC00A314880ED000A31488B
:1030E00090ED000AB8EEC00AFFF759FC2E490860BF
:1030F0000AB0BDEC108B10BDF0EE400AB0EE600AD5
:10310000BAEE0E1AF4EEC10AF1EE10FA04D2BAEEDB
:103110000E1AB0EE410A0DE01F4890ED001AF2EED3
:103120000E1AB4EEE11AF1EE10FA03DDB2EE0E1A49
:10313000B0EE410A70471848D0ED000AF5EEC00A1B
:10314000F1EE10FA32DDD0ED000A70EEC00AC0EDEB
:10315000000A32E0340200206803002064020020EC
:1031600028020020000000000000004000000000D5
:10317000000034401C020020CC0100203802002056
:103180006C0300202C020020200200203C020020C2
:1031900070030020300200202402002040020020A2
:1031A00044020020EC01002048020020FC48D0ED41
:1031B000000A70EE800AC0ED000AF948D0ED000A5E
:1031C000BAEE0E1AF4EEC10AF1EE10FA04D2FAEEDB
:1031D0000E0AC0ED000A0DE0F148D0ED000AB2EE93
:1031E0000E1AF4EEC10AF1EE10FA03DDF2EE0E0A49
:1031F000C0ED000A7047EA48D0ED000AF5EEC00ABB
:10320000F1EE10FA06DDD0ED000A70EE800AC0ED96
:10321000000A06E0E248D0ED000A70EEC00AC0EDF8
:10322000000ADF48D0ED000ABAEE0E1AF4EEC10A29
:10323000F1EE10FA04D2FAEE0E0AC0ED000A0DE02B
:10324000D748D0ED000AB2EE0E1AF4EEC10AF1EE44
:1032500010FA03DDF2EE0E0AC0ED000A7047D14805
:10326000D0ED000AF5EEC00AF1EE10FA06DDD0ED61
:10327000000A70EEC00AC0ED000A06E0C948D0EDB1
:10328000000A70EE800AC0ED000AC648D0ED000AC0
:10329000BAEE0E1AF4EEC10AF1EE10FA04D2FAEE0A
:1032A0000E0AC0ED000A0DE0BE48D0ED000AB2EEF5
:1032B0000E1AF4EEC10AF1EE10FA03DDF2EE0E0A78
:1032C000C0ED000A7047B748D0ED000AF5EEC00A1D
:1032D000F1EE10FA06DDD0ED000A70EE800AC0EDC6
:1032E000000A06E0AF48D0ED000A70EEC00AC0ED5B
:1032F000000AAC48D0ED000ABAEE0E1AF4EEC10A8C
:10330000F1EE10FA04D2FAEE0E0AC0ED000A0DE05A
:10331000A448D0ED000AB2EE0E1AF4EEC10AF1EEA6
:1033200010FA03DDF2EE0E0AC0ED000A70479E4867
:10333000D0ED000AF5EEC00AF1EE10FA06DDD0ED90
:10334000000A70EEC00AC0ED000A06E09648D0ED13
:10335000000A70EE800AC0ED000A9348D0ED000A22
:10336000BAEE0E1AF4EEC10AF1EE10FA04D2FAEE39
:103370000E0AC0ED000A0DE08B48D0ED000AB2EE57
:103380000E1AF4EEC10AF1EE10FA03DDF2EE0E0AA7
:10339000C0ED000A70478448D0ED000AF5EEC00A7F
:1033A000F1EE10FA06DDD0ED000A70EE800AC0EDF5
:1033B000000A06E07C48D0ED000A70EEC00AC0EDBD
:1033C000000A7948D0ED000ABAEE0E1AF4EEC10AEE
:1033D000F1EE10FA04D2FAEE0E0AC0ED000A0DE08A
:1033E0007148D0ED000AB2EE0E1AF4EEC10AF1EE09
:1033F00010FA03DDF2EE0E0AC0ED000A704710B5B8
:103400002DED068BB0EE408A18EE100A06F031FA68
:1034100041EC1A0B9FED650B53EC102B06F018F9DD
:1034200041EC190B06F038FA08EE900A6148006882
:1034300047F2305188420FD1B2EE040A28EE000A5A
:103440005D4880ED000A90ED001ADFED5C0A9FED0B
:103450005B0AFFF709FB24E05948006859490968ED
:10346000401A54490968081A00EE100AB8EEC00A5A
:10347000554880ED000A554890ED000AF2EE080A22
:1034800020EE200A4C4880ED000A90ED001A5048CA
:1034900090ED000AF8EEC00A4B4890ED000AFFF7E5
:1034A000E3FAB5EEC08AF1EE10FA3AD0414800686E
:1034B00047F23051884234D03E4890ED000AB8EED1
:1034C000C00AFFF76CFA012806D002280DD00328A5
:1034D00014D0042824D11AE0B0EE680AFFF7BFFE2A
:1034E000B0EE680AFFF787FE1AE0B0EE680AFFF751
:1034F00052FFB0EE680AFFF7B2FE11E0B0EE680AC4
:10350000FFF7E1FEB0EE680AFFF715FE08E0B0EE47
:10351000680AFFF70CFFB0EE680AFFF76CFE00BF09
:1035200000BF1F4890ED001A1E48D0ED000A1E484B
:1035300090ED000AFFF7F6F92648D0ED000AF8EE04
:10354000E00A80EE801ABDEEC10A234880ED000A31
:103550002248006820490968884203DD1E48006847
:103560001E49086001201E490860BDEC068B10BD95
:1035700010B504460020164908601A48046074B962
:103580000020164908609FED0D0A174880ED000ADB
:1035900047F23050074908601449086028E039E0D4
:1035A00024020020200200201C0200207B14AE47D1
:1035B000E17AB43FEC010020880200200000000006
:1035C00010020020F80100207801002000020020F5
:1035D000DC0100207C010020E0010020D801002057
:1035E000D0010020E401002004020020F0010020AE
:1035F0001FED0E0AF74880ED000A0020F64908602A
:10360000F6490860F6490860F64908601FED150A9A
:10361000FFF7F5FE10BD10B5EE4890ED000AB5EECF
:10362000C00AF1EE10FA05D1EB48006810B9EB487A
:10363000006890B11FED1F0AE64880ED000A0020E7
:10364000E5490860E5490860E7480068E74908601F
:10365000E04890ED000AFFF7D2FE10BDE448C0ED4F
:10366000000AE44880ED000A704770B52DED028B2A
:1036700005460C46B0EE408ADF480068A8420BD1F0
:10368000DE480068A04207D1DD4890ED000AB4EEA4
:10369000480AF1EE10FA18D0D8480460D9480068FA
:1036A00010B90520D7490860CF480068CF490860A5
:1036B000D34880ED008AD04805600020D2490860D8
:1036C000C44890ED000AFFF79AFEBDEC028B70BD76
:1036D00070B52DED028B0446B0EE408A0D46BF4812
:1036E0000068A0420BD1BB4890ED000AB4EE480A36
:1036F000F1EE10FA03D1B8480068A84237D0BE48AE
:10370000006847F23051884222D13220BB4908601C
:103710000A20BC49086047F23050844218DA012080
:10372000AF490860B5EEC08AF1EE10FA03DDAE488D
:103730000068A04208DCB5EEC08AF1EE10FA07D2AC
:10374000A9480068A04203DAB1EE480AB0EE408A08
:10375000A2480460A04805609E4880ED008A0020D1
:10376000A94908609B4890ED000AFFF748FEBDECB0
:10377000028B70BD10B52DED028BB0EE408A044671
:103780002146B0EE480A47F23050FFF7A1FFBDECEA
:10379000028B10BD70B504460D461FED780A294610
:1037A0002046FFF762FF70BD10B52DED088BF0EEDF
:1037B000408A0446B0EE608AB0EE419A934890ED9C
:1037C000000AB8EEC00AB4EE680AF1EE10FA0DD1A4
:1037D0008A480068A04209D1804890ED000AB8EEFE
:1037E000C00AB4EE480AF1EE10FA5ED0BDEEE80A67
:1037F000864880ED000A7C4991ED000AB8EEC00AC7
:1038000038EEC00ABDEEC00A10EE100A1FED950A90
:103810002146FFF72AFF7448D0ED000AF8EEE00ACF
:1038200078EE600AB0EE600AFFF710F8DFED780A74
:10383000B4EEE00AF1EE10FA14DD6B4890ED000AE8
:10384000B8EEC00AB4EEC08AF1EE10FA02DDB0EEB6
:10385000490A01E0B1EE490A10EE101A084606F0D6
:1038600008F813E0604890ED000AB8EEC00A38EEA0
:10387000400A10EE101A084605F0FBFF41EC1B0B46
:103880009FED640B53EC102B05F0E2FE41EC1A0B9C
:1038900006F002F809EE900A0021B0EE690AFDEE8A
:1038A000C80A10EE900AFFF713FFBDEC088B10BD9D
:1038B00010B54B48006801283DDD484909684A4A6F
:1038C0001268881AFEF7CFFF05280CDA4448016811
:1038D0000068401C424A1060B1F5FA7F2BDD0020E1
:1038E000FFF746FE10BD3E480068FA2808DD0520B7
:1038F0004249086043490860FB203949086004E0F8
:1039000005203E4908603F49086037480068334950
:103910000968884205DDBFEE000A2E4880ED000AE6
:1039200004E0B7EE000A2B4880ED000A294890ED2C
:10393000000AFFF764FD00BFD4E710B52DED028B40
:103940002F4890ED000AB5EEC00AF1EE10FA08D14A
:103950002C48006828B12148006847F2305188425D
:1039600002DBBDEC028B10BD204909681E4A1268BB
:10397000881AFEF723FFB0EE408AFFF740FD00BF34
:10398000EFE700B516480068022815DA1FEDF50AC2
:103990001B4880ED000A1FEDF70A0E4880ED000A73
:1039A00000200D49086047F230501349086017495C
:1039B000086000200949086013480068401C12494B
:1039C00008601649096888422CDA15480068FEF735
:1039D000B3FE36E000020020D4010020F4010020F4
:1039E00008020020A002002010020020F8010020A0
:1039F000B8010020BC010020EC010020DC01002007
:103A000004020020D8010020E8010020F00100207D
:103A100000004842FCA9F1D24D62403FC4010020A1
:103A2000C0010020FE480068FE490860FE480068AA
:103A300020B1FE480068FEF77FFE02E00020FEF79E
:103A40007BFE00BDF74A1268521CF64B1A60824298
:103A500007DDF74A12680A44F54B1A600022F14B61
:103A60001A60704770B5FEF78EFEF2490860FFF7E6
:103A70001FFFF1480068002821DDED480068EE498D
:103A80000968884229D0EA480068EB4909688842F9
:103A90000EDAE7480068E949096888421DDAE44817
:103AA0000068FEF7E7FE04460121FFF7CBFF14E0B4
:103AB0004FF0FF31E2480068FFF7C4FF0DE0DC483B
:103AC0000068002806DD4FF0FF31DE480068FFF790
:103AD000B9FF02E0FFF755FF70BDDB480068D5492C
:103AE0000968884205D0FFF728FFD2480068D64908
:103AF0000860D6480068E8B3CD48D0ED000AF8EE7B
:103B0000E00AD34890ED001A60EE810AB0EE600A38
:103B1000FEF73BFE0446C648D0ED000AF8EEE00A88
:103B2000CC4890ED001A60EE810AB0EE600AFEF714
:103B30002CFE0546BE48D0ED000AF8EEE00AC64865
:103B400090ED001A60EE810AB0EE600AFEF71DFEED
:103B5000064622462946FEF78DFDC04890ED000A34
:103B6000BDEEC00A10EE102ABD4890ED000ABDEE71
:103B7000C00A00E00AE010EE101ABA4890ED000A00
:103B8000BDEEC00A10EE100AFEF7CFFD00BFA3E79E
:103B900010B5B548007800F08000C8B1022005F0EB
:103BA0002FF8B148007800F0800088B1AF48006875
:103BB000401CAE49086008460068022801DD00206C
:103BC000086000BFA848007800F080000028F9D104
:103BD000A6480068012824D101224102A44801F02E
:103BE0002DFE40F6B83005F00BF80120A149086021
:103BF000A14800685A2802DD5920A04908609F4862
:103C000000789F4981F82F0081F82B0081F8270068
:103C1000002081F8260081F82A00012081F82E007A
:103C20002CE092480068022828D10122C101904866
:103C300001F004FE42F2107004F0E2FF002090490F
:103C400081F82F0081F82B0081F82700894908604E
:103C500000224FF40071864801F0F0FD41F28830F7
:103C600004F0CEFF00224FF48071814801F0E6FDA0
:103C70000020834981F833007C49086010BD10B5ED
:103C80007948C079002850D07748007800F080004B
:103C900000284AD101225102754801F0CFFD0120D0
:103CA00074490860744800685A2802DD5A20754932
:103CB000086074480078724981F82F0081F82B0061
:103CC00081F82700002081F8260081F82A000120D1
:103CD00081F82E0043F6982004F092FF0122110291
:103CE000634801F0ABFD42F2107004F089FF002040
:103CF000634981F82F0081F82B0081F827005D4986
:103D0000086000224FF40071594801F097FD41F21C
:103D1000883004F075FF00224FF48071544801F0A0
:103D20008DFD0020564981F8330010BD4E48C07902
:103D300090B94D48407800F0200068B10020524909
:103D4000086001205149086000205149086051482D
:103D500000685149086012E0504801684D48006809
:103D6000C01C81420BDC4C4800684A490968884203
:103D700005D14548006810B901203E4908603A481D
:103D8000C07978B93848407800F0040050B1444810
:103D900000684149086001203B490860002035491E
:103DA000086015E03A48006890B93B4800683C4913
:103DB000096888420CD13A4800680A3837490968CE
:103DC000884205DA00203149086001203049086046
:103DD000704710B524488079A8B1322004F010FF54
:103DE0002148807978B12F480068401C2D4908602F
:103DF00008460068022801DD0020086000BF1A485C
:103E000080790028FBD12748006801286AD1022167
:103E1000254801F0F5FC08B9002247E062E0000007
:103E2000C4010020E8010020A0020020C001002001
:103E3000D801002010020020DC010020E001002059
:103E400018020020E401002014020020D00100200C
:103E500024020020200200201C0200203C0200203E
:103E600038020020340200205806002038030020C9
:103E7000000802402403002018030020080300204B
:103E8000040000201C030020300300202803002031
:103E90002C0300203C01002038010020B00000204D
:103EA000400100203C030020001002404FF400714C
:103EB000FD4801F0C3FC41F2883004F0A1FE1A2055
:103EC000FA4981F82700DC2081F82B001A2081F8BC
:103ED0002F00002081F8260081F82A00012081F8B7
:103EE0002E0064E0F2480068022860D10122C1017E
:103EF000ED4801F0A3FC41F2883004F081FE01227C
:103F00005102E94801F09AFC0020E84981F82F00AD
:103F100081F82B0081F8270000224FF48071E248DD
:103F200001F08CFC42F2107004F06AFE3220DF498E
:103F300081F833000A2081F82F0081F82B0081F8E6
:103F40002700012081F8260081F82A00002081F84E
:103F50002E00D849086013E006E0FCF7A9FC00B188
:103F600008E0012004F04CFE0221D34801F048FC97
:103F70000128F2D000BFCF480068401CCD4908603E
:103F8000CC4800686428E7DB40F6B83004F038FE1F
:103F900001225102C44801F051FC0020C34981F8BC
:103FA0002F0081F82B0081F82700C149086010BD5F
:103FB000002100EE900AF8EEE00A70EE600AFDEED5
:103FC000E00A10EE901ABD4A11607047704770B554
:103FD0002DED0E8B04469FEDBA0AB0EE408AB9482B
:103FE000006805F046FC41EC1C0B9FEDB70B53EC51
:103FF000102B05F02DFB41EC1A0B204605F009FCB7
:1040000041EC1C0B9FEDB20B53EC102B05F020FB89
:1040100041EC1B0B53EC1A2B05F073FA41EC190B16
:1040200005F03AFCA7490860084690ED000A20EE2A
:10403000000A10EE101A084605F01BFC41EC1A0BA2
:10404000B0EE4A0AF0EE6A0A07F0BAFBB0EE409A08
:10405000F0EE609A51EC190B05F01EFC054628465F
:1040600005F007FC41EC1C0B9FED9B0B06F038FBA9
:10407000B0EE40EAF0EE60EA9FED990B53EC102BA6
:1040800051EC1E0B05F056FB41EC1D0B53EC1C2BA9
:1040900005F0DEFA41EC1B0BB0EE4B0AF0EE6B0ABA
:1040A00005F0FAFFB0EE40AAF0EE60AA9FED8E0B8D
:1040B00053EC102B51EC1A0B05F0CAFA41EC190B1A
:1040C00005F0EAFB08EE100A9FED890AB4EEC08AFB
:1040D000F1EE10FA04DD9FED860AB0EE408A0AE0A8
:1040E000B3EE040AB4EEC08AF1EE10FA03D2B3EED6
:1040F000040AB0EE408ABDEEC80A7E4880ED000A90
:1041000000687D4908607B480068322804D1B2EE1F
:10411000040A7A4880ED000ABDEC0E8B70BD10B524
:104120002DED048B04469FED760AF0EE409AA4F143
:10413000640000EE100AB8EEC00AB0EEC00AF0EE5D
:10414000408AB0EE000AF4EEC08AF1EE10FA04D80C
:104150009FED5B0ABDEC048B10BDDFED690A68EED4
:10416000A00AB0EE600A07F069FBB0EE409AB2EE2A
:104170000E0AF4EEC08AF1EE10FA02D29FED618AC7
:1041800007E0B0EE080AF7EE000AB0EE408A00EE53
:10419000898AB1EE000AB4EEC08AF1EE10FA03DDAE
:1041A000B1EE000AB0EE408AB0EE480AD2E710B590
:1041B0002DED028B5448C07801EE100AB8EE411A7A
:1041C000DFED521A31EE611AF0EE410A4E48807866
:1041D00001EE100AB8EE411ADFED4C1A31EE611A09
:1041E000B0EE410A05F0CCFDF0EE408A4848D0ED33
:1041F000000A9FED481A81EE200A20EE280AB0EE50
:10420000408AB5EEC08AF1EE10FA05D29FED420A5F
:1042100038EE000AB0EE408A3B48C0787E2807D1CD
:10422000394880787F2803D19FED3C0AB0EE408A60
:104230009FED380AB4EEC08AF1EE10FA06D8B2EE5D
:10424000040A28EE000AB0EE408A09E09FED320A27
:1042500038EE400AF2EE040A20EE200AB0EE408A60
:104260009FED2F0A38EE400A2E4880ED000ABDEC83
:10427000028B10BD10B52448407800F08000002863
:1042800079D00A20094981F82F0081F82B0081F8A4
:104290002700012081F8260081F82A00002081F8FB
:1042A0002E00002450E0000000080240040000201E
:1042B0003C030020D40200200010024048030020EC
:1042C000000000004C030020CDCCCCCCCCCCEC3F8B
:1042D0009A9999999999B93F000000E0505EF33F8F
:1042E0000000000000C069400000000000003340F2
:1042F00000007A431C030020180300202003002044
:10430000D578693D62104040580600200000FF4209
:10431000F8020020000034430000B44300409C46F3
:104320000000E143CC00002006E0FCF7C1FA00B138
:1043300008E0012004F064FC0221FE4801F060FA6C
:104340000128F2D000BF641C642CEDDB40F6B830CD
:1043500004F056FC3220F84981F83300002081F83F
:104360002F0081F82B0081F8270001225102F34829
:1043700001F064FA00BF10BD10B5F148007800F0FC
:104380000200C8B10020EC4981F82F0081F82B0011
:1043900081F82700EB490860E74981F833000022E3
:1043A0004FF40071E54801F049FA0020E649086041
:1043B000E6490860E649086010BDE6480168006803
:1043C000401CE44A1060642907D2E3484089E3496D
:1043D00009680844E14908600BE0E048006864218E
:1043E000B0FBF1F0DE4908600020DA490860DB49E3
:1043F0000860DC4801680068401CDA4A10606429E3
:1044000007D2D5480089D84909680844D6490860C8
:104410000BE0D54800686421B0FBF1F0D349086097
:104420000020D0490860D0490860D1480168006880
:10443000401CCF4A1060642907D2C7488089CD4903
:1044400009680844CB4908600BE0CA480068642149
:10445000B0FBF1F0C84908600020C5490860C549B3
:104460000860C64801680068401CC44A106078298A
:1044700007D2B948C089C24909680844C0490860E0
:104480000BE0BF4800687821B0FBF1F0BD4908603F
:104490000020BA490860BA490860BB480168006852
:1044A000401CB94A10600A2907D2AB48C088B749F6
:1044B00009680844B54908600BE0B44800680A215F
:1044C000B0FBF1F0B24908600020AF490860AF4985
:1044D0000860B04801680068401CAE4A106032298C
:1044E00007D29D484088AC4909680844AA49086039
:1044F0000BE0A94800683221B0FBF1F0A749086041
:104500000020A4490860A4490860A5480168006823
:10451000401CA34A1060322907D28F480088A14965
:10452000096808449F4908600BE09E4800683221F2
:10453000B0FBF1F09C490860002099490860994956
:10454000086070479948006899490968884203DA09
:10455000974800689549086094480068954909683B
:10456000884203DD93480068904908608E490968D5
:104570008E4A1268881A002801DB014600E0414299
:10458000032928DD8848006888490968884204DDD5
:104590000020694981F8220003E00120664981F882
:1045A000220081490968814A1268881A002801DBC3
:1045B000014600E0414249007F4A11601046006810
:1045C000FA2802DDFA20114608607B4800785A4933
:1045D00081F8230003E00A20574981F82300774837
:1045E000006818B90020544981F82300704710B5BD
:1045F0005348C079A0B15248407800F0040078B127
:104600006A4800686B490968884209DA67480068A7
:10461000401C664908604FF4967004F0F1FA16E009
:104620004748C07998B14648407800F0200070B102
:104630005E4800685E490968884208DD5B4800689A
:10464000401E5A4908604FF4C87004F0D9FA10BDF2
:1046500073B52DED028B14251FEDE70AB0EE408AED
:1046600037480079322805DB35480079C82801DC55
:10467000012000E0002004463148007800F00800E6
:10468000A8B92F48007800F0100080B92C480078B5
:1046900000F0200058B92A48007800F0400030B9F6
:1046A0002CB11920FEF764FFBDEC028B7CBD2448C1
:1046B000407800F0020030B19DF80C509FED400AA8
:1046C000B0EE408A05E09DF808509FED3E0AB0EE3E
:1046D000408A1B48007800F0080098B1184800781C
:1046E00000F0100070B91648007800F0200048B9BA
:1046F0001348007800F0400020B929460020FFF759
:1047000049F8FEE00E48007800F0080080B90C4837
:10471000007800F0100058B10948007800F020003F
:1047200030B90748007800F0400008B929464BE04E
:104730004FE000000010024004000020000802408A
:104740005806002044030020400300203C030020C2
:1047500038030020780300200C0600207C03002092
:104760009800002080030020840300209C0000208B
:10477000880300208C030020A40000209003002068
:1047800094030020A0000020980300209C03002038
:10479000B4000020A0030020A4030020AC000020EF
:1047A000A8030020AC030020B00000203801002046
:1047B0003C01002040010020540300202803002079
:1047C000CDCC4C403333333F4FF4E160FEF7E2FF92
:1047D00097E0FC48007800F00800A0B9F94800789C
:1047E00000F0100078B9F748007800F0200050B1D0
:1047F000F448007800F0400028B929464FF4617071
:10480000FEF7C8FF7DE0EF48007800F0080098B997
:10481000EC48007800F0100070B9EA48007800F029
:10482000200048B9E748007800F0400020B1294650
:10483000E548FEF7AFFF64E0E248007800F00800CA
:10484000A0B1E048007800F0100078B9DD480078A9
:1048500000F0200050B1DB48007800F0400028B99B
:1048600029464FF4E170FEF795FF4AE0D5480078FD
:1048700000F0080098B1D348007800F0100070B93B
:10488000D048007800F0200048B9CE48007800F009
:10489000400020B12946CD48FEF77CFF31E0C948F1
:1048A000007800F00800A0B9C648007800F01000B9
:1048B00078B1C448007800F0200050B1C1480078B9
:1048C00000F0400028B9294640F24650FEF762FF4A
:1048D00017E0BC48007800F0080090B9B9480078AB
:1048E00000F0100068B1B748007800F0200040B92F
:1048F000B448007800F0400018B12946B448FEF7EB
:1049000049FFB048007800F00800A8B9AD48007829
:1049100000F0100080B9AB48007800F0200058B9D2
:10492000A848007800F0400030B92CB1FDF71DFF19
:1049300010B11920FEF71CFE14B1FEF76CFE27E043
:10494000A048007932280EDAFDF70FFF28B10020C9
:10495000B1EE480AFEF70EFF1AE00020B1EE480A59
:10496000FEF708FF14E097480079C8280EDDFDF730
:10497000FCFE28B10020B0EE480AFEF7FBFE07E07F
:104980000020B0EE480AFEF7F5FE01E0FEF743FE18
:1049900000BF89E610B500208E49887004218E483A
:1049A00000F02EFF012804D102208A49C87001209E
:1049B00010BD64208749C8700020F9E710B50421B4
:1049C000854800F01DFF01280BD18448007840B9CC
:1049D00064208049C87000208149086081490860CE
:1049E00010BDFBF76EFF041E01DB204600E06042B5
:1049F0007D490968884208DD78480078012804D19B
:104A000002207449C8700120EAE71E207149C8706D
:104A10000120724908700020E2E710B500206D49BE
:104A200088744FF400416C4800F0EAFE012804D17C
:104A300002206849C874012010BD64206549C8740B
:104A40000020F9E710B54FF40041634800F0D8FEAC
:104A500001280BD16548007840B964205D49C874CD
:104A60000020634908606349086010BDFBF79BFFA5
:104A7000041E01DB204600E060425F49096888426D
:104A800008DD5A480078012804D102205149C87431
:104A90000120EAE71E204F49C874012053490870DD
:104AA0000020E2E710B500204A4988724FF48041A7
:104AB000494800F0A5FE012804D102204549C872EA
:104AC000012010BD64204349C8720020F9E710B5E9
:104AD0004FF48041404800F093FE01280CD1474834
:104AE000007848B964203B49C87200204FF08041EB
:104AF00048624349086010BDFBF79EFF041E01DBBE
:104B0000204600E060423F490968884208DD3B4892
:104B10000078012804D102202E49C8720120EAE75A
:104B20001E202C49C8720120344908700020E2E799
:104B300010B52DED048BFBF7C4FE33490968441A08
:104B4000002C01DB204600E06042002864DDFBF71A
:104B5000B8FE2D490968884203DD01201D4988708F
:104B600002E000201B498870FBF7ABFE264909686C
:104B7000441A002C01DB214600E06142084604F0A3
:104B800048FE41EC190B9FED210B53EC102B04F068
:104B90005FFD41EC180B04F04DFE1E49086008460D
:104BA0000068FA2801DDFA2008601A4800680A281F
:104BB00002DA0A2017490860164800780549C870CB
:104BC0002DE029E0580600207CFCFFFF3EFEFFFFA1
:104BD000BAFAFFFF0400002000100240500300203A
:104BE00024040040740000205C03002051030020D6
:104BF000240C0040780000206003002053030020B4
:104C000070000020640300204C0200209A999999BA
:104C10009999E93F540300200220FE49C870BDEC79
:104C2000048B10BD10B52DED048BFBF7BCFEFA49CB
:104C30000968441A002C01DB204600E0604200288D
:104C400039DDFBF7B0FEF4490968884203DD012035
:104C5000F049887402E00020EE498874FBF7A3FE57
:104C6000ED490968441A002C01DB214600E061424D
:104C7000084604F0CEFD41EC190B1FED1C0B53EC64
:104C8000102B04F0E5FC41EC180B04F0D3FDE349D4
:104C9000086008460068FA2801DDFA200860DF484D
:104CA00000680A2802DA0A20DC490860DB4800783C
:104CB000D849C87402E00220D649C874BDEC048B00
:104CC00010BD10B52DED048BFBF7B6FED449096875
:104CD000441A002C01DB204600E06042002839DD48
:104CE000FBF7AAFECE490968884203DD0120C949C5
:104CF000887202E00020C7498872FBF79DFEC84910
:104D00000968441A002C01DB214600E06142084694
:104D100004F07FFD41EC190B1FED440B53EC102BFD
:104D200004F096FC41EC180B04F084FDBB490860CC
:104D300008460068FA2801DDFA200860B7480068D4
:104D40000A2802DA0A20B5490860B4480078B14957
:104D5000C87202E00220AF49C872BDEC048B10BDDE
:104D600070B52DED108BF0EE408A04469FEDAD0A34
:104D7000B0EE40FA9FEDAB0AB0EE408AAA48006858
:104D800004F077FD41EC1C0B9FEDA80B53EC102BAE
:104D900004F05EFC41EC1A0B00EE104AB8EEC00ABB
:104DA00038EEC00A10EE101A084604F062FD41EC1D
:104DB0001C0B9FEDA00B53EC102B04F049FC41ECB5
:104DC0001B0B53EC1A2B04F09CFB41EC190B04F069
:104DD00063FD95490860084690ED000A20EE000A40
:104DE00010EE101A084604F044FD41EC1A0BB0EE28
:104DF0004A0AF0EE6A0A06F0E3FCB0EE409AF0EEE2
:104E0000609A51EC190B04F047FD0546284604F062
:104E100030FD41EC1C0B9FED890B05F061FCB0EE01
:104E200040EAF0EE60EA9FED870B53EC102B51EC5B
:104E30001E0B04F07FFC41EC1D0B53EC1C2B04F00B
:104E400007FC41EC1B0BB0EE4B0AF0EE6B0A05F0D1
:104E500023F9B0EE40AAF0EE60AA9FED7C0B53EC74
:104E6000102B51EC1A0B04F0F3FB41EC190B04F07E
:104E700013FD08EE100A9FED770AB4EEC08AF1EE3A
:104E800010FA04DD9FED730AB0EE408A0AE0B3EE3B
:104E9000040AB4EEC08AF1EE10FA03D2B3EE040AAB
:104EA000B0EE408ABDEEC80A6B4880ED000A00688B
:104EB0006A490860BDEC108B70BD70B52DED108B8C
:104EC000F0EE408A04469FED570AB0EE40FA9FED9F
:104ED000550AB0EE408A5448006804F0CAFC41EC20
:104EE0001C0B9FED520B53EC102B04F0B1FB41EC6B
:104EF0001A0B00EE104AB8EEC00A38EEC00A10EEE7
:104F0000101A084604F0B5FC41EC1C0B9FED490B50
:104F100053EC102B04F09CFB41EC1B0B53EC1A2BB5
:104F200004F0EFFA41EC190B04F0B6FC3E490860BE
:104F3000084690ED000A20EE000A10EE101A08460E
:104F400004F097FC41EC1A0BB0EE4A0AF0EE6A0A44
:104F500006F036FCB0EE409AF0EE609A51EC190B78
:104F600004F09AFC0546284604F083FC41EC1C0B37
:104F70009FED3B0B05F0B4FBB0EE40EAF0EE60EACB
:104F80009FED300B53EC102B51EC1E0B04F0D2FBB9
:104F900041EC1D0B53EC1C2B04F05AFB41EC1B0B9A
:104FA000B0EE4B0AF0EE6B0A05F076F8B0EE40AAD0
:104FB000F0EE60AA9FED250B53EC102B51EC1A0B71
:104FC00004F046FB41EC190B04F066FC08EE100AF5
:104FD0009FED200AB4EEC08AF1EE10FA04DD9FEDD9
:104FE0001D0AB0EE408A0AE0B3EE040AB4EEC08AAD
:104FF000F1EE10FA03D2B3EE040AB0EE408ABDEE31
:10500000C80A154880ED000A006814490860BDEC24
:10501000108B70BD040000205002002054030020BB
:10502000540200200000000074030020CDCCCCCC42
:10503000CCCCEC3F9A9999999999B93F000000A07E
:10504000D750FE3F0000000000C069400000000093
:105050000000334000007A431003002008030020C2
:10506000000000C06B28FF3F09E01120FDF76AFA3D
:105070000121954802F0A2FA0F2003F0C1FDF4E7E8
:105080000CE09248006810B9FFF75CFA03E00A20D0
:105090008F4981F82300032003F0B2FDF1E715E00A
:1050A0008C48007800F0010020B13C211E20FFF761
:1050B000CFFA02E01920FEF75BFAFFF739FDFFF7A0
:1050C000B1FDFFF7FEFD032003F09AFDE8E708E0DD
:1050D000FFF773F9FDF74AFAFEF7C4FC042003F06A
:1050E0008FFDF5E71FB5FBF75BFDFBF798FDFBF7C1
:1050F000E5FFFCF7BAF8FCF7ACF9FCF731F9FCF77F
:1051000020FAFBF7F7FD4FF4E130FCF7EEFA4FF42D
:10511000E130FCF773FB4FF4E130FCF7FCFB4FF49C
:105120006120FCF72EFD4FF4E130FCF7C7FDFDF7E1
:1051300026FB00BFFFF72EFC08B9012400E0002485
:10514000FFF76BFC08B9012000E000200443FFF7E3
:10515000A9FC08B9012000E000200443002CE9D19B
:1051600000BFFFF72BFC08B9012400E00024FFF783
:1051700069FC08B9012000E000200443FFF7A7FC08
:1051800008B9012000E000200443002CE9D10020F0
:1051900051490860FCF7EBFE00200090019002905E
:1051A00003464FF480724DA10390514803F0E9FA91
:1051B000002000900190029003464FF480724DA1B0
:1051C0000390514803F0DDFA002000900190029016
:1051D00003464FF480724DA10390514803F0D1FA79
:1051E0000020504908604FE045E0FFF7C5F8022174
:1051F0004D4800F005FB01280DD14C4800784C4982
:1052000091ED000AB8EEC00AFFF757FE4948008842
:10521000FEF7DDFE0CE045480078454991ED000AB7
:10522000B8EEC00AFFF79CFD42480088FEF7CFFEAB
:105230004148006850280BDCFEF721FD25484078E6
:1052400000F0400008B1FEF7C1FEFEF7A1FC0AE045
:105250003948006840F26631884204DB1D48807995
:1052600008B1FEF7B6FDFEF70AFDFEF791FCFEF76A
:105270005DFDFEF7FFFF1748007800F001000028F1
:10528000B3D10A20FEF774F9AEE71FB500200090F5
:105290000190029003464FF4807228A103902A489F
:1052A00003F06FFA002000900190029003464FF443
:1052B000807226A10390284803F063FA03F07AFE77
:1052C000002004B010BD000000480040240300206E
:1052D0000400002058060020D00000207461736B89
:1052E000526F626F74416E616C7974696373000010
:1052F000CF5000087461736B446965754B686965CC
:105300006E436F43617500009F5000087461736BBA
:10531000446965754B6869656E436F43617531001B
:10532000815000082803002000040240730100207F
:105330009C00002074010020B00000207461736B99
:105340004D61696E00000000E55000087461736BE8
:105350004779726F00000000695000080CB500200A
:10536000019000907248006840F4803070490860F5
:1053700000BF6F48006800F4003000900198401CA6
:105380000190009818B90198B0F5A06FF1D1684864
:10539000006800F4003010B10120009001E000200E
:1053A00000900098012846D161484030006840F0E4
:1053B00080505F49403108605E48006840F480409A
:1053C0005C4908605A48083000685949083108604B
:1053D0000846006840F4004008600846006840F451
:1053E000A05008605448091F0860081F006840F07A
:1053F0008070091F086000BF4D48006800F0007011
:105400000028F9D040F205604C490860484808304F
:10541000006820F00300464908310860084600682B
:1054200040F00200086000BF41480830006800F00A
:105430000C000828F8D10CBD10B53D48006840F0BC
:1054400001003B49086000203949083108603848AC
:1054500000683B490840364908603A48091D086021
:10546000081F006820F48020091F086000203049D0
:105470000C310860FFF772FF4FF00060324908609E
:1054800010BD70B500200022022300240221284D07
:1054900008352D6805F00C0020B1042806D0082836
:1054A00034D107E0294D2A4E356033E0294D284E8E
:1054B00035602FE01E4D2D1D2D68C5F380541C4D09
:1054C0002D1D2D6805F03F0154B1224DB5FBF1F5BE
:1054D000174E361D3668C6F3881605FB06F209E03E
:1054E0001A4DB5FBF1F5124E361D3668C6F3881617
:1054F00005FB06F20E4D2D1D2D68C5F301456D1CF3
:105500006B00B2FBF3F5124E356003E00F4D104E09
:10551000356000BF00BF064D08352D68C5F3031583
:105520000D4E705D0A4D2D68C540094E356070BD49
:10553000003802400070004008544007003C024020
:10554000FFFFF6FE1030002408ED00E00024F40018
:10555000B003002000127A00B40300200648804700
:1055600006480047FEE7FEE7FEE7FEE7FEE7FEE748
:10557000FEE7FEE7FEE7FEE7395400088901000870
:1055800032490143324A1160704770B5002100234F
:105590000F22C4781CB32E4C246804F4E064C4F5D4
:1055A000E064C4F30721C1F10404E3B20A41447882
:1055B0009C40E1B28478144021430C07210E254C15
:1055C00005786155047804F01F050124AC40057886
:1055D0006D11AD0005F1E025C5F8004109E0047842
:1055E00004F01F050124AC401B4D0678761145F8E8
:1055F000264070BD194A0A400243154B1B1F1A6012
:10560000704739B1124A121D12680243104B1B1D1C
:105610001A6006E00E4A121D126882430C4B1B1DD5
:105620001A607047042808D14FF0E021096941F061
:1056300004014FF0E022116107E04FF0E021096919
:1056400021F004014FF0E022116170470000FA05DB
:105650000CED00E000E400E080E100E080FFFF1FCF
:1056600010B504468C48844208D10121084600F058
:1056700000FB0021012000F0FCFA5EE08748844234
:1056800008D10121022000F0F4FA0021022000F0EC
:10569000F0FA52E08248844208D10121042000F04F
:1056A000E8FA0021042000F0E4FA46E07D48844254
:1056B00008D10121082000F0DCFA0021082000F0C8
:1056C000D8FA3AE07848844208D10121102000F04D
:1056D000D0FA0021102000F0CCFA2EE0734884426A
:1056E00008D10121202000F0C4FA0021202000F080
:1056F000C0FA22E06E48844208D10121402000F027
:10570000B8FA0021402000F0B4FA16E0694884425B
:1057100008D10121802000F0ACFA0021802000F0A7
:10572000A8FA0AE06448844207D10121801500F0FC
:10573000A0FA0021A01500F09CFA10BDF0B50A46B1
:1057400000210023002400BF3DE0012505FA01F3FC
:10575000156805EA03049C4234D105684F0003260E
:10576000BE40B543056015794E00B5400668354327
:1057700005601579012D02D01579022D16D18568A5
:105780004F000326BE40B543856055794E00B540B5
:10579000866835438560456801268E40B54345607F
:1057A000456896798E40B6B235434560C5684F006E
:1057B0000326BE40B543C560D5794E00B540C668E6
:1057C0003543C560491C1029BFD3F0BD4FF6FF71AA
:1057D00001600021017141718171C171704708B58B
:1057E0004FF480320092009A0A430092009AC261FC
:1057F000C161009AC261C2690092C269009208BD8B
:105800000246002013690B400BB1012000E000208C
:1058100070470146086980B270470246002053690C
:105820000B400BB1012000E00020704701464869A1
:1058300080B2704701837047418370470AB101838A
:1058400000E0418370474161704742694A404261CC
:105850007047F0B5002300244D07ED0E02FA05F362
:10586000CE1000F1200555F826504E07F70E0F26F2
:10587000BE40B543CF1000F1200646F82750CE10A9
:1058800000F1200555F8265045EA0304CE1000F13A
:10589000200545F82640F0BD00000240000402400B
:1058A00000080240000C02400010024000140240B8
:1058B00000180240001C024000200240FA48006824
:1058C00040F00100F84908600020F74908310860FD
:1058D000F5480068F5490840F3490860F448091D97
:1058E0000860081F006820F48020091F086000205D
:1058F000ED490C31086070470021EB4A921C117091
:1059000011460870704710B50146002200230020A0
:105910004A11012A02D1E44C236808E0022A03D18B
:10592000E14C7034236802E0DF4C7434236801F0EA
:105930001F02012494401C400CB1012000E0002013
:1059400010BD38B5002000900024002500BF312094
:10595000FFF7D9FF05460098401C00900098B0F56D
:10596000A06F01D0002DF2D03120FFF7CCFF08B19D
:10597000012400E00024204638BD01460020CA4A28
:10598000106820F0F80040EAC10010607047C94973
:10599000086070470021C44A7032117011700128EC
:1059A00002D004280AD104E00121BF4A70321170EC
:1059B00005E00521BC4A7032117000E000BF00BF55
:1059C0007047BD490860704770B5049C41EA821574
:1059D0000126C6EB530645EA0645054345EA04653C
:1059E000B14E361D356070BDB24908667047820100
:1059F00042EA0172AC4B84331A607047AD49886645
:105A00007047AC49C864704702460020A64B083373
:105A1000186820F0EC6042EA01031843A24B0833F7
:105A200018607047024600209F4B0833186820F02A
:105A3000784042EA010318439B4B083318607047D3
:105A400001460020984A0832106820F003000843FD
:105A50001060704794480830006800F00C007047F0
:105A600001460020904A0832106820F0F0000843F8
:105A700010607047014600208B4A0832106820F4FD
:105A8000E05008431060704701460020864A083203
:105A9000106820F4604040EAC10010607047F0B523
:105AA0000021002200240225002602237E4F083711
:105AB0003F6807F00C0121B1042905D0082937D12E
:105AC00005E07E4F076036E07D4F076033E0764F9C
:105AD0003F1D3F68C7F38056734F3F1D3F6807F077
