:020000040800F2
:10000000F8330020055700084502000847020008A1
:100010004B0200084F0200085302000800000000D5
:100020000000000000000000000000009D0100082A
:100030005702000800000000E10100081F870008C7
:100040001F5700081F5700081F5700081F570008B8
:100050001F5700081F5700081F5700081F570008A8
:10006000A5040008E90400081F5700081903000848
:10007000FB020008570300081F570008750200081C
:100080001F570008810200081F5700081F5700086B
:100090001F5700081F5700081F5700081F57000868
:1000A0001F570008C1030008ED0300081F57000890
:1000B000EF0300081D040008490400081F5700084A
:1000C0001F5700081F5700081F570008A104000809
:1000D0001F5700085D0200081F5700081F5700083F
:1000E0001F5700081F5700081F5700081F57000818
:1000F0001F5700081F5700081F5700083303000848
:100100001F5700081F57000875040008A3040008C3
:100110001F5700081F570008930300089F0300089B
:100120001F5700089B020008CD0200081F57000857
:100130001F5700081F5700081F5700081F570008C7
:100140001F5700081F5700081F5700081F570008B7
:10015000ED0200081F5700081F5700081F5700082E
:100160001F5700081F5700081F5700081F57000897
:100170001F5700081F5700081F5700081F57000887
:100180001F5700081F570008DFF80CD009F02AFE9F
:100190000048004713540008F8330020234B196827
:1001A0000868B0E8F04F80F309884FF0000080F352
:1001B000118870470000000003480068006880F361
:1001C000088862B600DF00BF08ED00E0DFF80C0031
:1001D000016841F470010160704700BF88ED00E0E4
:1001E000EFF30980114B1A681EF0100F08BF20EDC5
:1001F000108A20E9F04F106008B54FF0140080F32A
:10020000118808F054FE4FF0000080F31188BDE81B
:10021000084019680868B0E8F04F1EF0100F08BFDA
:10022000B0EC108A80F30988704700BF34040020C6
:10023000EFF311804FF0140181F31188704780F3C0
:1002400011887047704700BFFEE700BFFEE700BFA0
:10025000FEE700BFFEE770477047704710B540F2F9
:100260002551A24807F06FFB18B120219F4807F0E5
:1002700061FB10BD10B59E499E4806F099FA10BD6D
:1002800010B59D499B48303006F068FA20B19A4974
:100290009848303006F08CFA10BD10B59749984850
:1002A00006F05CFA88B19549954806F081FA01F0AC
:1002B000CCFD0021924806F0A7F90421904806F0F1
:1002C000C4F901218E4806F09FF910BD10B58D4983
:1002D0008B48183006F06CFA8B4840788A490978C8
:1002E00040EA012000B28949088010BD10B5884954
:1002F0008348603006F05CFA10BD10B57F497D4838
:10030000483806F02BFA30B17C497A48483806F074
:100310004FFA00F0B7FA10BD10B57E497548603845
:1003200006F01CFA20B17B497248603806F040FAAA
:1003300010BD10B578496F48483006F00FFA48B143
:1003400000216C48483006F05FF97349694848302D
:1003500006F02EFA10BD10B56A496648303806F02E
:10036000FDF9A8B167496348303806F021FA01F079
:1003700027FC00215F48303806F046F904215D482B
:10038000303806F062F901215A48303806F03CF95D
:1003900010BD10B50121614807F032F810BD10B54D
:1003A00001215F4807F02CF87A205049888001210C
:1003B0005C4807F0D7F901215B4807F0D3F910BD7D
:1003C00010B50121594807F01BF85848008800F083
:1003D000100028B156480068401E5549086004E0E6
:1003E00053480068401C5249086010BD704710B562
:1003F0000121880707F004F84FF08040008800F0E2
:10040000100028B14B480068401E4A49086004E0CB
:1004100048480068401C4749086010BD10B50121DC
:10042000454806F0EDFF4448008800F0100028B170
:1004300042480068401E4149086004E03F480068A7
:10044000401C3E49086010BD10B501213C4806F033
:10045000D7FF3B48008800F0100028B139480068F9
:10046000401E3849086004E036480068401C3549A1
:10047000086010BD10B50121334806F0C1FF3248B5
:10048000008800F0100028B130480068401E2F4955
:10049000086004E02D480068401C2C49086010BD2D
:1004A0007047704710B5042006F01AFAD8B1202121
:1004B000274805F09EFA0421264805F075FA012820
:1004C00004D10021164806F01BFB09E00421214855
:1004D00005F06AFA20B9124806F016FB1E490860BA
:1004E00004201E49086010BD704700000010014044
:1004F00020800020706002400080202000880010D2
:100500002864024000802010500600208C0000204B
:10051000008800202080001000800028001000408B
:100520000014004000480040001401400000014059
:100530006C000020700000200004004074000020C7
:100540000008004088000020000C004078000020D7
:1005500000000240000C024068000020143C0140F2
:1005600070B50446204609F08BF805462146FE4842
:1005700009F08DF8A0B195222146FB4809F074F8E6
:100580000021FA4806F040F8F748F8490C310860B5
:10059000F648B838C0F8BC500121F44806F034F8E9
:1005A00070BD70B50446002510E0605D68B1615D06
:1005B000EF4807F002F900BF8021ED4807F0ADF9E0
:1005C0000028F9D0681CC5B200E070BDEDE770B539
:1005D000044600250FE05CB12146E54807F0EDF840
:1005E00000BF8021E24807F098F90028F9D000E028
:1005F00070BD681CC5B2032DEDDB00BFF8E713B575
:100600000C460020FFF7E3FFDAA0FFF7CAFF2346FE
:10061000D9A29621D94809F02FFCD848FFF7C1FF8D
:10062000D7A0FFF7BEFFD4A29621D448009B09F0C3
:1006300023FCD248FFF7B5FFD3A0FFF7B2FFFF209E
:10064000FFF7C5FFFF20FFF7C2FFFF20FFF7BFFF47
:100650001CBD70B505460C46C6A0FFF7A2FF22469A
:10066000C5A1C64809F020FCC448FFF79AFFC4A002
:10067000FFF797FF2846FFF794FFC3A0FFF791FF0E
:10068000FF20FFF7A4FF70BD77B585B00546FF26B4
:10069000BBA103C9CDE90301BBA000680290B5A0CE
:1006A0000068019000240AE00020B8490855B849C4
:1006B0000855B2490855AC490855601CC4B21E2CF7
:1006C000F2DB0A20AD490870FF2048708870C870BE
:1006D000A9A1AF48079A09F0E7FBAD4901A808F0C6
:1006E000B7FF01A9A54808F0B3FF03A9A34808F084
:1006F000AFFF2946A14808F0ABFF9FA1A448069A86
:1007000009F0D2FBA2499D4808F0A2FF02A99B482C
:1007100008F09EFFFF209D49087048708870974838
:1007200008F096FF9548FFF71BFF08B070BDF7B5BE
:1007300084B005460E46FF2791A103C9CDE9020109
:1007400091A0006801908BA000680090002408E050
:1007500000208E4908558E49085588490855601C67
:10076000C4B20A2CF4DB0A2084490870FF204870C8
:100770008870C87080A18648069A09F095FB844964
:10078000684608F065FF69467C4808F061FF02A9E9
:100790007A4808F05DFF2946784808F059FF31464D
:1007A000764808F055FF01A9744808F051FFFF2072
:1007B00076490870487088700020C87008716F48CA
:1007C00008F046FF6D48FFF7CBFE07B0F0BD01B55E
:1007D0008EB070A2322101A80E9B09F04DFB01A83A
:1007E000FFF7BEFE0FB000BD73B584B00546FF260F
:1007F00063A103C9CDE9020163A0006801905DA077
:100800000068009000240AE0002060490855604913
:1008100008555A49085554490855601CC4B21E2C45
:10082000F2DB0A2055490870FF2048708870C870B4
:1008300051A15748059A09F037FB5549684608F019
:1008400007FF69464D4808F003FF02A94B4808F02E
:10085000FFFE2946494808F0FBFE4D49474808F08D
:10086000F7FE01A9454808F0F3FEFF20474908704C
:1008700048708870414808F0EBFE4048FFF770FE72
:1008800006B070BD1CB54648007845494978084413
:100890004349897808444249C9780844404909795C
:1008A00008443F49497908443D49897908443C490D
:1008B000C97908443A49097A0844C0B201903848D5
:1008C000007A00F00F0000909DF800000D2803D082
:1008D0000021344806F046FF1CBD3148007A00F084
:1008E0000F000D2806D12E48007800F0010008B155
:1008F0000D2070470020FCE72948007800F0020036
:1009000008B1012070470020FCE730B52DED048BC5
:1009100083B0254806F0F8F82449096840EA014503
:10092000284609F04AF841EC190B9FED210B53ECD6
:10093000102B08F0D3FF41EC180B09F04FF8019091
:1009400000244DE0184806F0DFF81849096840EA2D
:100950000145284609F031F841EC190B9FED140BC5
:1009600053EC102B28E00000AA050020B8600240DC
:100970000050004074000000256400007404002052
:100980002E7478743D220000220000005A050020D9
:10099000320500206A302E76616C3D25640000002F
:1009A0008C06002000480040000400407400002035
:1009B0006666666666A64E4008F090FF41EC180B2E
:1009C00009F00CF80290DDE90121881A002801DB0A
:1009D000014600E04142052900DA641C02980190BA
:1009E000022CAFDB0298404203B0BDEC048B30BD5B
:1009F00030B52DED048B83B0FE4806F085F8FE4936
:100A0000096840EA0145284608F0D7FF41EC190B78
:100A10001FED190B53EC102B08F060FF41EC180B85
:100A200008F0DCFF0190002423E0F24806F06CF8A7
:100A3000F149096840EA0145284608F0BEFF41EC4B
:100A4000190B1FED250B53EC102B08F047FF41EC61
:100A5000180B08F0C3FF0290DDE90121881A002875
:100A600001DB014600E04142052900DA641C0298DE
:100A70000190022CD9DB0298404203B0BDEC048BFC
:100A800030BD30B52DED048B83B04FF0804006F0C3
:100A90003BF8DA49096840EA0145284608F08DFF2D
:100AA00041EC190B1FED3E0B53EC102B08F016FF19
:100AB00041EC180B08F092FF0190002424E04FF065
:100AC000804006F021F8CD49096840EA01452846F2
:100AD00008F073FF41EC190B1FED4B0B53EC102B7F
:100AE00008F0FCFE41EC180B08F078FF0290DDE9FD
:100AF0000121881A002801DB014600E04142052956
:100B000000DA641C02980190022CD8DB029803B032
:100B1000BDEC048B30BD30B52DED048B83B0B848EF
:100B200005F0F2FFB749096840EA0145284608F098
:100B300044FF41EC190B1FED620B53EC102B08F036
:100B4000CDFE41EC180B08F049FF0190002423E092
:100B5000AB4805F0D9FFAB49096840EA0145284692
:100B600008F02BFF41EC190B1FED6F0B53EC102B12
:100B700008F0B4FE41EC180B08F030FF0290DDE9FC
:100B80000121881A002801DB014600E04142322998
:100B900000DA641C02980190022CD9DB029803B0A1
:100BA000BDEC048B30BD01B581B0002000900198F0
:100BB00000EBC0004000009002E00098401E009052
:100BC00000980028F9D10CBD01B581B0002000903B
:100BD00044F2506101984843009002E00098401EA2
:100BE000009000980028F9D10CBD1CB501211F20F0
:100BF00005F0BEF84FF6FF70009001208DF804005C
:100C000000208DF8060001208DF8070003208DF8E4
:100C1000050069467C4804F065FE4FF6FF700090C1
:100C200001208DF8040000208DF8060001208DF8C9
:100C3000070003208DF805006946744804F052FE51
:100C40004FF6FF70009001208DF8040000208DF811
:100C5000060001208DF8070003208DF80500694685
:100C60006B4804F03FFE1CBD1CB501217E2005F041
:100C70007FF8C020009000208DF8040001208DF83E
:100C8000070002208DF805006946624804F02AFE3C
:100C90000620009000208DF8040001208DF8070048
:100CA00002208DF805006946574804F01BFE042019
:100CB000009000208DF8040001208DF8070002202C
:100CC0008DF805006946514804F00CFE1CBD1FB5A7
:100CD0004FF4E06004F028FD36208DF8000000207D
:100CE0008DF801008DF8020001208DF803006846A0
:100CF00004F01FFD0121102005F06DF83220ADF841
:100D0000040040F2E73002900020ADF80C00ADF88E
:100D1000060001A9404805F0AAFE01213E4806F060
:100D20006FFB012211463C4806F042FB00213A4885
:100D300005F0E6FE0121384805F022FF1FBD1FB572
:100D40004FF4E06004F0F0FC37208DF80000002044
:100D50008DF801008DF8020001208DF8030068462F
:100D600004F0E7FC0121202005F035F83220ADF831
:100D7000040040F2E73002900020ADF80C00ADF81E
:100D8000060001A9254805F072FE0121234806F05E
:100D900037FB01221146214806F00AFB00211F48BB
:100DA00005F0AEFE01211D4805F0EAFE1FBD00B5AD
:100DB0008BB00121022005F01FF801210C2004F066
:100DC000D7FF03220621114804F017FE0322072152
:100DD0000E4804F012FE032208210C4804F00DFE18
:100DE00003220921094804F008FE4FF470700690B0
:100DF000022015E0000C0040780000207000002068
:100E0000000001406C000020000402400008024085
:100E1000000C02400000024000100040001400409E
:100E20008DF81C0003208DF81D0000208DF81E0099
:100E300001208DF81F0006A9FE4804F053FDA420F0
:100E4000ADF8200040F6B83009904FF48070ADF84E
:100E500028000020ADF8220008A9F74805F007FE99
:100E60006020ADF804000120ADF8060000200390DA
:100E7000ADF810000121F04805F082FE0021EE4897
:100E800005F03EFE01A9EC4805F086FE01A9EA48FE
:100E900005F0BBFE01A9E84805F004FF01A9E648FA
:100EA00005F066FF0121E44806F05BFA0BB000BDD7
:100EB00000B58BB00121082004F08DFF0121084608
:100EC00004F056FF02220021DC4804F096FD0222C5
:100ED0000121DA4804F091FD02221146D74804F0BE
:100EE0008CFD02220321D54804F087FD0F200690D7
:100EF00002208DF81C0003208DF81D0000208DF8C5
:100F00001E0001208DF81F0006A9CC4804F0EAFC61
:100F1000BA20ADF8200042F2107009900020ADF820
:100F20002800ADF8220008A9C54805F0A0FD602002
:100F3000ADF804000120ADF8060000200390ADF8E4
:100F400010000121BE4805F01BFE0021BC4805F041
:100F5000D7FD01A9BA4805F01FFE01A9B84805F060
:100F600054FE01A9B64805F09DFE01A9B44805F05C
:100F7000FFFE0121B24806F0F4F90BB000BD00B548
:100F80008BB00121042004F026FF01210D2004F084
:100F9000EFFE02220C21AB4804F02FFD02220D21AE
:100FA000A84804F02AFD02220E21A64804F025FDDF
:100FB00002220F21A34804F020FD4FF47040069058
:100FC00002208DF81C0003208DF81D0000208DF8F4
:100FD0001E0001208DF81F0006A99A4804F082FC2B
:100FE000A420ADF8200040F6B83009904FF480708E
:100FF000ADF828000020ADF8220008A9924805F0BD
:1010000036FD6020ADF804000120ADF80600002098
:101010000390ADF8100001218B4805F0B1FD0021CF
:10102000894805F06DFD01A9874805F0B5FD01A9C6
:10103000854805F0EAFD01A9834805F033FE01A9C2
:10104000814805F095FE0BB000BD00B589B00121C7
:10105000080404F0D1FE0121084604F089FE0322B1
:101060001146764804F0C9FC03220221734804F0BB
:10107000C4FC0C20019002208DF8080003208DF89C
:10108000090000208DF80A0001208DF80B0001A94D
:101090006A4804F027FC0020ADF818004FF6FF70F6
:1010A00007900020ADF82000ADF81A0006A96748A7
:1010B00005F0DDFC0420ADF80C000020ADF80E00BA
:1010C000C820ADF814000120ADF8100003A95F4856
:1010D00006F0A4F800231A4603215D4806F03BFA07
:1010E00001215B4806F08CF901221146584806F0B0
:1010F0005FF90121554805F043FD0021544805F0F2
:10110000FFFC09B000BD00B589B00121084604F01C
:1011100062FE0121022004F05EFE0121032004F0A2
:1011200027FE01220F21454804F067FC012203211C
:10113000484804F062FC02220421464804F05DFCA9
:1011400002220521434804F058FC38200190022077
:101150008DF8080003208DF8090000208DF80A00A2
:1011600001208DF80B0001A93A4804F0BBFB4FF4B5
:101170000040019002208DF8080003208DF809003E
:1011800000208DF80A0001208DF80B0001A92B48E2
:1011900004F0A8FB0020ADF818004FF6FF70079090
:1011A0000020ADF82000ADF81A0006A94FF08040ED
:1011B00005F05DFC06A9284805F059FC0420ADF8AF
:1011C0000C000220ADF80E001420ADF81400012030
:1011D000ADF8100003A9800706F020F803A91E4807
:1011E00006F01CF802231A460321580706F0B3F94B
:1011F00002231A460321184806F0ADF90121880799
:1012000006F0FEF80121144806F0FAF80122114612
:10121000900706F0CDF8012211460F4806F0C8F8F5
:101220000121880705F0ACFC01210B4805F0A8FC62
:10123000002113E0000802400004014000000240C9
:10124000000C0040000C024000080040000001407B
:101250000040014000040240000400404FF0804084
:1012600005F04EFC0021FE4805F04AFC4FF4C0603A
:1012700004F05AFA1D208DF8000003208DF80100BB
:1012800000208DF8020001208DF80300684604F06C
:1012900050FA1C208DF8000004208DF80100002079
:1012A0008DF8020001208DF80300684604F041FA31
:1012B00009B000BD00B589B00121084604F09CFDCD
:1012C0000121102004F054FD4FF420600190022011
:1012D0008DF8080003208DF8090000208DF80A0021
:1012E00001208DF80B0001A9DE4804F0FBFA012271
:1012F0000921DC4804F081FB01220B21D94804F0CC
:101300007CFB0020ADF818004FF6FF70079000201E
:10131000ADF82000ADF81A0006A9D34805F0A7FBE8
:101320000420ADF80C000020ADF80E000A20ADF846
:1013300014000120ADF8100003A9CB4805F06EFFA2
:1013400000231A460321C84806F005F90121C648C2
:1013500006F056F801221146C34806F029F801218B
:10136000C14806F04DF801221146BF4806F020F8AA
:101370000121BD4805F004FC0021BB4805F0C0FB7D
:101380004FF4C06004F0D0F919208DF8000001205E
:101390008DF8010000208DF8020001208DF8030077
:1013A000684604F0C6F909B000BD00B589B0012156
:1013B000042004F010FD0121082004F0D9FC4FF4B2
:1013C0004050019002208DF8080003208DF809009C
:1013D00000208DF80A0001208DF80B0001A9A34818
:1013E00004F080FA0020ADF818004FF6FF70079067
:1013F0000020ADF82000ADF81A0006A99C4805F0C1
:1014000036FB02220C21994804F0F7FA02220D2142
:10141000964804F0F2FA0420ADF80C000220ADF872
:101420000E00C820ADF814000120ADF8100003A98B
:101430008F4805F0F3FE02231A4603218C4806F07C
:101440008AF801218A4805F0DBFF0122114688480D
:1014500005F0AEFF0121864805F092FB002184488B
:1014600005F04EFB0020824914310880012080499C
:1014700008804FF4C06004F057F91E208DF800007A
:1014800004208DF8010000208DF8020001208DF865
:101490000300684604F04DF909B000BD00B589B0FD
:1014A0000121082004F097FC0121084604F060FCAB
:1014B0000320019002208DF8080003208DF8090018
:1014C00000208DF80A0001208DF80B0001A9694861
:1014D00004F008FA0020ADF818004FF6FF700790EE
:1014E0000020ADF82000ADF81A0006A9624805F00A
:1014F000BEFA022200215F4804F07FFA0222012195
:101500005C4804F07AFA0420ADF80C000220ADF833
:101510000E00C820ADF814000120ADF8100003A99A
:10152000554805F07BFE02231A460321524806F077
:1015300012F80121504805F063FF012211464E4880
:1015400005F036FF01214C4805F01AFB00214A48FE
:1015500005F0D6FA00204849143108800120464998
:1015600008804FF4C06004F0DFF832208DF80000EE
:1015700004208DF8010000208DF8020001208DF874
:101580000300684604F0D5F809B000BD00B59BB073
:1015900001213A4804F0ECFB0121080204F02CFC84
:1015A00000200290364803903648049000200590B1
:1015B00008200690002007904FF4806008904000BB
:1015C000099080000A9040110B9040020C9000207E
:1015D0000D9001200E9000200F90109002A92A4833
:1015E00004F0D8FF0121284805F00EF83C200090B7
:1015F00003208DF8040000208DF8070069461D487F
:1016000004F070F93C20009003208DF804000020C5
:101610008DF8070069461D4804F064F90020119018
:1016200012901390149011A804F01AFD4FF08070DE
:10163000159001208DF858008DF859000020179062
:101640001890199008208DF8680015A90C484C389E
:1016500004F0D7FC00230122022109484C3817E08E
:10166000000400400010024000000140000C024055
:101670000008004000000240000C0040050040004F
:101680004C20014040060020106402400008024047
:1016900004F03DFD002302220321FA4804F037FD47
:1016A000002303220421F74804F031FD0023042223
:1016B0000521F44804F02BFD002305220C21F148FC
:1016C00004F025FD002306220D21EE4804F01FFD45
:1016D000002307220E21EB4804F019FD0023082205
:1016E0000F21E84804F013FD0121E64804F0BAFD9B
:1016F0000121E44804F0ABFD0121E24804F0C7FCFD
:10170000E04804F060FD1BB000BD08B54FF4E06098
:1017100004F00AF825208DF8000000208DF8010063
:101720008DF8020001208DF80300684604F001F8EE
:1017300008BD10B596B004460121102004F05CFBF2
:101740000121084604F014FB0121880504F010FB78
:101750004FF4C060009002208DF8040000208DF846
:1017600006008DF8070002208DF805006946C6487E
:1017700004F0B8F807220921C34804F03EF9072213
:101780000A21C14804F039F902940020ADF80C0098
:10179000ADF80E00ADF81000ADF814000C20ADF857
:1017A000120002A9B94805F055FF0121B74805F01C
:1017B000D9FF4FF4A06003F0B7FF3A208DF818006E
:1017C00000208DF819008DF81A0001208DF81B00FB
:1017D00006A803F0AEFFAE4804F03AFE4FF00060FA
:1017E000079000200A90AB4809900A200B90A74868
:1017F000001D089000200C904FF480600D90002098
:101800000E900F904FF480701090400211900420C1
:1018100012900320139000201490159007A99C4863
:1018200004F0B8FE01224021984806F048F8012251
:101830001021974804F075FF0121954804F0E4FE5B
:1018400016B010BD10B596B004460121480504F04D
:101850008FFA0121480404F0BEFA0121082004F0A7
:1018600087FA6020009002208DF8040000208DF897
:1018700006008DF8070002208DF8050069468648AD
:1018800004F030F807220521834804F0B6F8072257
:101890000621814804F0B1F802940020ADF80C0054
:1018A000ADF80E00ADF81000ADF814000C20ADF846
:1018B000120002A9794805F0CDFE0121774805F014
:1018C00051FF4FF4A06003F02FFF11208DF8180096
:1018D00000208DF819008DF81A0001208DF81B00EA
:1018E00006A803F026FF6E4804F0B2FD4FF000603A
:1018F000079040200A906B48099050200B90674851
:10190000001D089000200C904FF480600D90002086
:101910000E900F904FF480701090400211900420B0
:1019200012900320139000201490159007A95C4892
:1019300004F030FE01228021584805F0C0FF01224A
:101940008021564805F0BBFF01221021544804F0C5
:10195000E8FE0121524804F057FE16B010BD10B544
:1019600096B004460121880404F035FA01210820CC
:1019700004F0FEF90121480504F0FAF94FF4407033
:10198000009002208DF8040000208DF806008DF8EC
:10199000070002208DF8050069463F4803F0A2FFCA
:1019A000072208213C4804F028F8072209213A4878
:1019B00004F023F802940020ADF80C00ADF80E00FE
:1019C000ADF81000ADF814000C20ADF8120002A91B
:1019D000354805F03FFE0121334805F0C3FE4FF4C2
:1019E000A06003F0A1FE0C208DF8180000208DF8F7
:1019F00019008DF81A0001208DF81B0006A803F0CD
:101A000098FE2748783804F023FD4FF000600790D7
:101A100000200A90254809900A200B902248001DBA
:101A2000089000200C904FF480600D9000200E90E4
:101A30000F904FF48070109040021190042012908B
:101A40000320139000201490159007A914487838AB
:101A500004F0A0FD01224021134805F030FF0122CF
:101A60004021114805F02BFF012210210C48783845
:101A700004F057FE01210A48783804F0C5FD16B07D
:101A800010BD000000200140000002400010014095
:101A90004064024050060020000C02400044004018
:101AA000A060024004000020004800408C06002096
:101AB00010B596B004460121C80404F08CF9012148
:101AC000042004F055F90121480504F051F94FF4C0
:101AD0004060009002208DF8040000208DF8060080
:101AE0008DF8070003208DF805006946FE4803F0D5
:101AF000F9FE08220A21FC4803F07FFF08220B218F
:101B0000F94803F07AFF02940020ADF80C00ADF81C
:101B10000E00ADF81000ADF814000C20ADF8120066
:101B200002A9F24805F096FD0121F04805F01AFEE1
:101B30004FF4A06003F0F8FD0D208DF8180002208E
:101B40008DF8190001208DF81A008DF81B0006A8E9
:101B500003F0EFFDE64804F07BFC4FF000600790D7
:101B600000200A90E348099004200B90DF48001DF4
:101B7000089000200C904FF480600D9000200E9093
:101B80000F9010904FF4003011900020129003201D
:101B9000139000201490159007A9D54804F0FAFC82
:101BA00001224021D14805F08AFE01221021D048AF
:101BB00004F0B7FD0121CE4804F026FD16B010BD9B
:101BC0000CB5002001900090CA480078022812D17C
:101BD000C84840780190C748C078C649897840EA2B
:101BE000012000909DF80400C3490870BDF8000072
:101BF000C249088004E00420BF490870BF4908803A
:101C00000CBD10B596B004460121480504F0B0F8AB
:101C10000121080504F0DFF801210C2004F0A8F8E8
:101C20000420009002208DF8040000208DF80600AA
:101C30008DF8070002208DF805006946B04803F0D2
:101C400051FE4FF48050009002208DF804000020D7
:101C50008DF806008DF8070002208DF80500694612
:101C6000A14803F03FFE08220221A54803F0C5FE6B
:101C700008220C219C4803F0C0FE4FF4A06003F042
:101C800053FD2F208DF8180005208DF819008DF8D0
:101C90001A0001208DF81B0006A803F04AFD0294EB
:101CA0000020ADF80C00ADF80E00ADF81000ADF856
:101CB00014000C20ADF8120002A9924805F0CAFCED
:101CC0000121904805F04EFD8948783004F0C0FBB2
:101CD0004FF00060079040200A908B4809909620B2
:101CE0000B908848001D089000200C904FF48060F5
:101CF0000D9000200E900F9010904FF40030119036
:101D0000002012900320139000201490159007A932
:101D10007748783004F03EFC01228021794805F0B4
:101D2000CEFD012210217248783004F0FAFC012126
:101D30006F48783004F068FC16B010BD10B596B04E
:101D400004460121202004F057F80121042004F06A
:101D50000FF80121880504F00BF8C0200090022044
:101D60008DF8040000208DF806008DF80700032090
:101D70008DF8050069465C4803F0B4FD0822062191
:101D8000594803F03AFE08220721574803F035FE70
:101D900002940020ADF80C00ADF80E00ADF8100074
:101DA000ADF814000C20ADF8120002A9574805F058
:101DB00051FC0121554805F0D5FC4FF4A06003F01B
:101DC000B3FC39208DF8180003208DF8190001208C
:101DD0008DF81A008DF81B0006A803F0AAFC4C48E9
:101DE00004F036FB4FF02060079000200A9049482D
:101DF000099004200B904548001D089000200C908D
:101E00004FF480600D9000200E900F9010904FF4D2
:101E100000301190002012900320139000201490A5
:101E2000159007A93A4804F0B5FB01224021374834
:101E300005F045FD01221021354804F072FC012116
:101E4000334804F0E1FB16B010BD0CB50020019042
:101E5000009030480078022812D12E484078019036
:101E60002C48C0782B49897840EA012000909DF8E1
:101E7000040029490870BDF800002849088004E0E2
:101E8000042025490870254908800CBD00B585B09F
:101E90000121082003F06CFF0121880303F0ACFF4F
:101EA00000208DF8100001208DF813000C20039005
:101EB00003A9134803F016FD0221032005F098FD45
:101EC0000420009000208DF8040010208DF80500FB
:101ED00001208DF80600684604F09CFC08208DF86F
:101EE000080000201CE0000000080240004C0040F8
:101EF000406002407B0100207F0100208001002023
:101F0000000C024000500040AA05002000140140CF
:101F10002864024082010020860100208801002000
:101F20008DF809008DF80A0001208DF80B0002A839
:101F300003F0FFFB05B000BD70B504460D46012C53
:101F40000BD12946FE4805F038FC00BF4021FC4873
:101F500005F0E3FC0028F9D028E0032C0BD129463A
:101F6000F84805F02AFC00BF4021F64805F0D5FCF2
:101F70000028F9D01AE0042C0BD12946F24805F0CC
:101F80001CFC00BF4021F04805F0C7FC0028F9D038
:101F90000CE0052C0AD12946EC4805F00EFC00BFE8
:101FA0004021EA4805F0B9FC0028F9D070BD0020B6
:101FB000E7494862E7490860E7490860E74908607F
:101FC00070470020E2494862E24908604FF08041D2
:101FD0004862E3490860E3490860E3490860DE4974
:101FE0000860DE490860E1490860E149086070471F
:101FF00000204FF080414862D949086070470020B6
:10200000D8490860D8490860704710B50020D94900
:102010000870002407E061210120FFF78DFF3220C6
:10202000FEF7D2FD641C022CF5D30120D1490870C3
:102030007A20D149087010BD10B50020CF49087032
:10204000002407E061210320FFF776FF3220FEF72E
:10205000BBFD641C022CF5D30120C84908707A200E
:10206000C749087010BD2DE9F14FAEB0C5A02D9045
:1020700000202C908DF888008DF860002E98122892
:1020800031D2DFE800F009313A41484F565F6871BC
:102090007A81888F969DA4FD0221C34803F084FCB9
:1020A00088B100224FF40041C04803F09BFC4FF47C
:1020B0000041BE4803F085FC044600222146BCA036
:1020C000FEF7E2FA0FE00122D103B84803F08AFCE0
:1020D0004FF40041B54803F074FC04460022214649
:1020E000BBA0FEF7D1FA53E20122C148B0F90000CB
:1020F0004142C0A0FEF7C8FA4AE20222BF48016886
:10210000BFA0FEF7C1FA43E20322C0480168C0A0A5
:10211000FEF7BAFA3CE20422C1480168C1A0FEF70A
:10212000B3FA35E20522C2480168C2A0FEF7ACFA54
:102130002EE2FEF7EAFB044606222146C1A0FEF786
:10214000A3FA25E2FEF754FC044607222146C0A06C
:10215000FEF79AFA1CE2FEF794FC04460822214698
:10216000BEA0FEF791FA13E2FEF7D5FC0446092261
:102170002146BDA0FEF788FA0AE20A22BD4801689E
:10218000BDA0FEF781FA03E20B22A5480168BEA0BC
:10219000FEF77AFAFCE10C22BF480168BFA0FEF707
:1021A00073FAF5E10D22C0480168C0A0FEF76CFA91
:1021B000EEE10E22C0480188C0A0FEF765FAE7E113
:1021C0000F22C0480168C0A0FEF75EFAE0E10121DD
:1021D000C14803F0E9FB4FF400511790734803F036
:1021E000E3FB04460221BC4803F0DEFB05464FF446
:1021F00080416E4803F0D8FB06460421B64803F040
:10220000D3FB4FF400411690B34803F0CDFB0746D3
:102210000821B14803F0C8FB80464FF48041AE4826
:1022200003F0C2FB81461021AB4803F0BDFB4FF425
:1022300000511590A84803F0B7FB82460821A74833
:1022400003F0B2FB4FF480511490A34803F0ACFBB1
:1022500010211390A14803F0A7FB4FF48061129066
:102260009D4803F0A1FB834680219B4803F09CFB23
:102270004FF480711190984803F096FB109000E0A5
:1022800021E01798CDE90B65CDE90D401698CDE911
:102290000798CDE90970DDE913121598CDE9042AF4
:1022A00003910690DDE91101CDE901B100908CA206
:1022B000282122A8109B07F0DFFD102222A991A05F
:1022C000FEF735FA64E18021374803F07AFB0446D3
:1022D0000121354803F075FB05464021324803F0E3
:1022E00070FB06464FF400417C4803F06AFB07464A
:1022F0004FF48051844803F064FB80464FF48061C2
:10230000294803F05EFB81464FF400617E4803F0EC
:1023100058FB4FF400611790234803F052FB8246AC
:102320004FF480616D4803F04CFB83464FF48051BD
:102330001D4803F046FB4FF4006116906748E5E046
:102340000010014000480040004C00400050004098
:10235000000001406C00002024080040880000209C
:10236000700000202404004074000020240C004071
:1023700078000020910000209000002093000020B1
:10238000920000203131313131313131313131314F
:10239000313131313131313131313031313131312E
:1023A00031313131000000000004024000080240D9
:1023B000524F424F5420322044414E47204348411F
:1023C000592053414E2058414E483A2020200000C9
:1023D000524F424F5420322044414E4720434841FF
:1023E000592053414E20444F3A2020200000000045
:1023F0008C000020494D553A00000000B00000203C
:1024000042545F4E414E475F48413A00300300203E
:10241000204C55435F63687579656E203A00000073
:102420001C0300204C75632042616E3A20000000BE
:102430009C0000204769615F7472695F6C617A6516
:1024400072200000454E434F4445525F3048200003
:10245000454E434F4445525F34482000454E434F5C
:102460004445525F38482000454E434F4445525F33
:1024700052522000AC00002042545F4E414E475F54
:102480004E4F4E473A00000046696E616C5F666FC2
:10249000726365203A00000024030020666F7263B7
:1024A000655F4C3A00000000700300206B657420EB
:1024B000717561203A00000088010020446973743E
:1024C000633A00002C030020466F7263655F7472EC
:1024D00061636B3A0000000000100240000C0240F3
:1024E00025642564256425642564256425642564A4
:1024F0002564256425642564256425642564256494
:1025000000000000493A00000000024003F059FAC0
:102510004FF400511590F84803F053FA4FF48041FE
:102520001490F64803F04DFA4FF480411390F248AE
:1025300003F047FA4FF480711290F14803F041FA2A
:102540004FF400411190EC4803F03BFACDE90B76D3
:10255000CDE90D5410901798CDE907A0CDE9099861
:1025600014A807C803ABA3E80708DDE91112139804
:10257000CDE900120290AFF29802282122A8109B08
:1025800007F07AFC112222A9DEA0FEF7D0F800BFE6
:1025900000BF2FB0BDE8F08F10B50121DB4804F07B
:1025A00033F810BD01B5DA4800680099884203DDB0
:1025B0000020D749086004E0D5480068401CD44991
:1025C0000860D3480068FFF74EFD08BD10B5FEF760
:1025D0009CF9D0490860FEF70BFACF490860FEF776
:1025E00050FACE49086010BD2DE9F0412DED088B61
:1025F00006460F46304607F0E0F941EC190B9FED17
:10260000C81BB0EE490AF0EE690A08F0B9F8B0EE5E
:10261000408AF0EE608A51EC180B07F0DFF90446AF
:10262000002C02DBA4F5E16401E004F5E164384626
:1026300007F0C3F941EC1B0B9FEDB91BB0EE4B0A41
:10264000F0EE6B0A08F09CF8B0EE409AF0EE609A5B
:10265000304607F0B2F941EC1B0B9FEDB11BB0EE19
:102660004B0AF0EE6B0A08F08BF8B0EE40AAF0EEE1
:1026700060AA53EC192B51EC1A0B07F0B7F841EC98
:10268000180B07F0ABF905462846211E01DB0A4668
:1026900000E04A42002801DB034600E043429A4240
:1026A00005DA25464FF0FF309F49086003E03546C4
:1026B00001209D4908602846BDEC088BBDE8F081EB
:1026C0000146FA2901DDFA2102E0032900DC02219A
:1026D000C8B2704710B504460B4624B99348007839
:1026E0009349C87116E0934890ED000AB5EEC00A10
:1026F000F1EE10FA07DD2046FFF7E2FF8C49C871C2
:102700000120887106E06042FFF7DAFF8849C8714E
:102710000020887123B9854800788549C87516E07E
:10272000854890ED000AB5EEC00AF1EE10FA07DD1B
:102730001846FFF7C5FF7E49C8750020887506E07A
:102740005842FFF7BDFF7A49C8750120887522B944
:10275000764800787649C87316E0784890ED000A0C
:10276000B5EEC00AF1EE10FA07DD1046FFF7A8FF3C
:102770006F49C8730120887306E05042FFF7A0FF3D
:102780006B49C8730020887310BD6D4B18606D4B8A
:1027900019606D4B1A607047654AD071D075D0735F
:1027A00070476348C079032809DA6148C07D03286F
:1027B00005DA5F48C07B032801DA0120704700205A
:1027C000FCE701206149086070476148006847F2F2
:1027D0003051884201D0012070470020FCE710B53D
:1027E000FFF713FC10BD5B48B0F900004042704792
:1027F000B5EEC00AF1EE10FA09D25748D0ED000A42
:1028000070EE600AFDEEE00A10EE900A7047524842
:10281000D0ED000A70EE200AFDEEE00A10EE900AFC
:10282000F4E710B52DED0A8B044624B99FED4B0A51
:10283000BDEC0A8B10BD002C25DA4948006807F072
:10284000BCF841EC190B204607F0B7F841EC1C0B23
:102850009FED440B53EC102B06F0CEFF41EC1B0B0D
:102860009FED420B53EC102B06F0C0FF41EC1A0B0E
:1028700053EC192B07F032F841EC180B07F0E0F895
:1028800000EE100AD4E73648006807F096F841ECED
:10289000190B204607F091F841EC1C0B9FED310B12
:1028A00053EC102B06F0A8FF41EC1B0B9FED2F0BF8
:1028B00053EC102B06F0F9FE41EC1A0B53EC192BDC
:1028C00007F00CF841EC180B07F0BAF800EE100A0C
:1028D000AEE7F0EE400AF5EEC00AF1EE10FA02DBC8
:1028E000B0EE600A7047B1EE600AFBE701460029CE
:1028F00040DB08467047000000040240000C024024
:10290000000002404F55543A00000000A060024011
:1029100084000020A0030020A4030020A8030020BE
:10292000000000000020AC4078020020D40100200C
:10293000040000203C02002040020020440200204D
:10294000600200206402002068020020B40200201F
:10295000000200208C0000209401002000000000F4
:10296000EC01002000000000000004400000000016
:102970000000E03F484270470146FE48D0ED000AA3
:10298000F1EE600AFC48D0ED001A80EEA11A00EECC
:10299000901AF8EEE01AF748D0ED000A41EE210A4D
:1029A000B0EE600AFDEEC00A10EE900A7047F0EE3D
:1029B000401A9FEDF22AB0EE420AF5EEC01AF1EE8F
:1029C00010FA03D2B1EE612AF0EE421AF5EEC00A17
:1029D000F1EE10FA03D2B1EE602AF0EE420AB5EE43
:1029E000C01AF1EE10FA03D2B1EE412AB0EE421A4B
:1029F000F4EEC01AF1EE10FA01DDB0EE610AF4EE69
:102A0000C00AF1EE10FA01DDB0EE600AB4EEC01AB1
:102A1000F1EE10FA01DDB0EE410A7047D8480068C7
:102A20007047D8480068704710B52DED0A8BF0EE5E
:102A3000408A18EE900A06F0F0FF41EC1C0B1FEDE7
:102A4000481BB0EE4C0AF0EE6C0A07F099FEB0EEAF
:102A500040BAF0EE60BA1FED4E0B53EC102B51EC68
:102A60001B0B06F022FE41EC1A0B1FED531BB0EEC0
:102A70004A0AF0EE6A0A07F083FEB0EE409AF0EEE2
:102A8000609A51EC190B06F0DBFF08EE100A9FED7F
:102A9000BE0AB4EEC08AF1EE10FA06DD9FEDBB0A65
:102AA000B4EEC08AF1EE10FA0BD3B5EEC08AF1EEA7
:102AB00010FA0ADB9FEDB60AB4EEC08AF1EE10FA06
:102AC00003D80120BDEC0A8B10BD9FEDB20AB4EE15
:102AD000C08AF1EE10FA01D80220F3E79FEDAE0AAA
:102AE000B4EEC08AF1EE10FA01D80320EAE7042020
:102AF000E8E710B52DED108B8AB0B0EE408AF0EE0D
:102B0000608AB0EE419AA54890ED000A28EE000ACE
:102B1000DFEDA30A80EE201A11EE104A204606F0DF
:102B20007CFFCDE908019DED080B07F025FBB0EE19
:102B300040FAF0EE60FA18EE900A06F06EFF41ECF3
:102B40001E0B53EC1F2B06F057FE41EC1C0B06F03E
:102B500077FF0AEE900A19EE100A06F05EFFCDE943
:102B600006018E4890ED000A28EE000ADFED8C0A7F
:102B700080EE201A11EE104A204606F04EFF41EC7E
:102B80001E0BB0EE4E0AF0EE6E0A08F03DFF8DED22
:102B9000040B18EE900A06F040FF41EC1C0B9DED73
:102BA000040B53EC102B06F027FE41EC1F0B9DEDA0
:102BB000060B53EC102B06F078FDCDE908019DEDD6
:102BC000080B51EC100B06F03BFF0BEE100A9FEDCB
:102BD000750A38EE400A7148D0ED000A20EE200A4E
:102BE000DFED6F0A80EE201A11EE104A204606F043
:102BF00014FFCDE908019DED080B07F0BDFAB0EE1A
:102C000040FAF0EE60FA18EE900A06F006FF41EC8A
:102C10001E0B53EC1F2B06F0EFFD41EC1C0B06F0D6
:102C20000FFF0BEE900A19EE100A06F0F6FE41ECCB
:102C30001F0B9FED5C0A38EE400A5848D0ED000AA1
:102C400020EE200ADFED560A80EE201A11EE104A1F
:102C5000204606F0E2FE41EC1E0BB0EE4E0AF0EE0E
:102C60006E0A08F0D1FE8DED040B18EE900A06F006
:102C7000D4FE41EC1C0B9DED040B53EC102B06F025
:102C8000BBFD53EC1F2BCDE906019DED060B51EC6E
:102C9000100B06F00AFDCDE908019DED080B51EC83
:102CA000100B06F0CDFE0DEE100A9FED3F0A38EE38
:102CB000400A3A48D0ED000A20EE200ADFED380A3B
:102CC00080EE201A11EE104A204606F0A6FE41ECD6
:102CD0001E0BB0EE4E0AF0EE6E0A07F04DFAB0EEA3
:102CE00040FAF0EE60FA18EE900A06F096FE41EC1B
:102CF0001C0B53EC1F2B06F07FFDCDE908019DED69
:102D0000080B51EC100B06F09BFE09EE900A19EE31
:102D1000100A06F082FE9FED240A38EE400ACDE943
:102D200006011E48D0ED000A20EE200ADFED1C0A45
:102D300080EE201A11EE104A204606F06EFE41EC9D
:102D40001E0BB0EE4E0AF0EE6E0A08F05DFEB0EE1D
:102D500040CAF0EE60CA18EE900A06F05EFE41EC42
:102D60001F0B53EC1C2B06F047FDCDE904019DED34
:102D7000060B1BE0CC010020D00100206F12833A2B
:102D8000EC0100201C02002000E0444500006145E9
:102D90000000E14300C0A84400A00C45E001002071
:102DA0000000E144000096440000164553EC102B4F
:102DB0009DED040B51EC100B06F077FCCDE90801FA
:102DC0009DED080B51EC100B06F03AFE0AEE100ACE
:102DD000F0EE6A0AB0EE4B0A07F0A6F85FED100AB3
:102DE00020EE200AF848D0ED000A80EE201AF748BD
:102DF00080ED001AF6480168F44890ED000ABDEE37
:102E0000C00A10EE100AFFF7EFFB00EE100AB8EE52
:102E1000C00AEE4880ED000AEE4890ED000AB8EED8
:102E2000C00AED4880ED000AEA48006806F0C5FDDA
:102E3000CDE906011BEE100A06F0EFFD41EC1E0B7A
:102E40009FEDE61BB0EE4E0AF0EE6E0A07F0B4FFFF
:102E5000B0EE40FAF0EE60FA1AEE900A06F0DDFDF0
:102E600041EC1E0B9FEDDD1BB0EE4E0AF0EE6E0A3C
:102E700007F0A2FF8DED000B53EC1F2B9DED000B17
:102E800051EC100B06F011FCCDE902019DED020B97
:102E900008F01EFEB0EE40CAF0EE60CA9FEDD10B06
:102EA00053EC102B51EC1C0B06F018FDCDE904017E
:102EB0009DED060B53EC102B9DED040B51EC100B0C
:102EC00006F09AFCCDE908019DED080B51EC100BC2
:102ED00006F0B6FDC5490860F0EE6B0AB0EE4D0A8B
:102EE00007F022F85FED520A20EE200AB648D0ED36
:102EF000000A80EE201ABE4880ED001ABD48016825
:102F0000BB4890ED000ABDEEC00A10EE100AFFF7B4
:102F10006BFB00EE100AB8EEC00AB54880ED000A5F
:102F2000AC4890ED000AB8EEC00AB34880ED000A44
:102F3000A848006806F041FDCDE906011DEE100A23
:102F400006F06BFD41EC1E0B9FEDA41BB0EE4E0A8C
:102F5000F0EE6E0A07F030FF8DED020B1BEE900ACB
:102F600006F05BFD41EC1E0B9FED9C1BB0EE4E0A84
:102F7000F0EE6E0A07F020FF8DED000B9DED020BC9
:102F800053EC102B9DED000B51EC100B06F08DFB5C
:102F900041EC1C0BB0EE4C0AF0EE6C0A08F098FD08
:102FA000B0EE40FAF0EE60FA9FED8E0B53EC102B72
:102FB00051EC1F0B06F092FCCDE904019DED060BD0
:102FC00053EC102B9DED040B51EC100B06F014FC90
:102FD000CDE908019DED080B51EC100B06F030FD1A
:102FE00086490860F0EE690AB0EE4A0A06F09CFFD6
:102FF0005FED950A20EE200A7348D0ED000A80EEBE
:10300000201A7F4880ED001A7E4801687C4890EDC8
:10301000000ABDEEC00A10EE100AFFF7E5FA00EE56
:10302000100AB8EEC00A764880ED000A694890EDB3
:10303000000AB8EEC00A744880ED000A65480068CE
:1030400006F0BBFC41EC1F0B1AEE100A06F0E5FC83
:1030500041EC1E0B9FED611BB0EE4E0AF0EE6E0AC6
:1030600007F0AAFE8DED000B19EE900A06F0D5FCD4
:1030700041EC1E0B9FED591BB0EE4E0AF0EE6E0AAE
:1030800007F09AFEB0EE40CAF0EE60CA9DED000B6C
:1030900053EC102B51EC1C0B06F007FBCDE90201A1
:1030A0009DED020B08F014FD8DED040B9FED4D0B13
:1030B00053EC102B9DED040B51EC100B06F00EFCA5
:1030C00053EC1F2BCDE906019DED060B51EC100BC7
:1030D00006F092FBCDE908019DED080B51EC100BB9
:1030E00006F0AEFC494908601AEE100A06F095FC9D
:1030F00041EC1F0B9FED391BB0EE4F0AF0EE6F0A4B
:1031000007F05AFE8DED080B19EE900A06F085FCCB
:1031100041EC1F0B9FED311BB0EE4F0AF0EE6F0A32
:1031200007F04AFE8DED060B9DED080B53EC102BBE
:103130009DED060B51EC100B06F0B7FA41EC1C0BA1
:10314000B0EE4C0AF0EE6C0A08F0C2FCB0EE40EAB9
:10315000F0EE60EA51EC1E0B06F040FC2C490860D2
:10316000264890ED000ABDEEC00A2A4880ED000A0C
:10317000294890ED000AB8EEC00AFFF755FC274930
:1031800008600AB0BDEC108B10BDF0EE400AB0EE46
:10319000600ABAEE0E1AF4EEC10AF1EE10FA04D289
:1031A000BAEE0E1AB0EE410A0DE0184890ED001A82
:1031B000F2EE0E1AB4EEE11AF1EE10FA03DDB2EE01
:1031C0000E1AB0EE410A7047E001002048020020CC
:1031D000A0030020780200203C0200200000000034
:1031E00000000040000000000000344030020020D9
:1031F0004C020020A40300204002002034020020E2
:1032000050020020A80300204402002038020020C1
:103210005402002058020020000200205C0200201E
:10322000F848D0ED000AF5EEC00AF1EE10FA06DD1E
:10323000D0ED000A70EEC00AC0ED000A06E0F148C9
:10324000D0ED000A70EE800AC0ED000AED48D0ED26
:10325000000ABAEE0E1AF4EEC10AF1EE10FA04D228
:10326000FAEE0E0AC0ED000A0DE0E648D0ED000AC5
:10327000B2EE0E1AF4EEC10AF1EE10FA03DDF2EE30
:103280000E0AC0ED000A7047DE48D0ED000AF5EEE8
:10329000C00AF1EE10FA06DDD0ED000A70EE800AE9
:1032A000C0ED000A06E0D748D0ED000A70EEC00A73
:1032B000C0ED000AD348D0ED000ABAEE0E1AF4EEC3
:1032C000C10AF1EE10FA04D2FAEE0E0AC0ED000ABD
:1032D0000DE0CC48D0ED000AB2EE0E1AF4EEC10AB1
:1032E000F1EE10FA03DDF2EE0E0AC0ED000A7047AF
:1032F000C548D0ED000AF5EEC00AF1EE10FA06DD81
:10330000D0ED000A70EEC00AC0ED000A06E0BE482B
:10331000D0ED000A70EE800AC0ED000ABA48D0ED88
:10332000000ABAEE0E1AF4EEC10AF1EE10FA04D257
:10333000FAEE0E0AC0ED000A0DE0B348D0ED000A27
:10334000B2EE0E1AF4EEC10AF1EE10FA03DDF2EE5F
:103350000E0AC0ED000A7047AB48D0ED000AF5EE4A
:10336000C00AF1EE10FA06DDD0ED000A70EE800A18
:10337000C0ED000A06E0A448D0ED000A70EEC00AD5
:10338000C0ED000AA048D0ED000ABAEE0E1AF4EE25
:10339000C10AF1EE10FA04D2FAEE0E0AC0ED000AEC
:1033A0000DE09948D0ED000AB2EE0E1AF4EEC10A13
:1033B000F1EE10FA03DDF2EE0E0AC0ED000A7047DE
:1033C0009248D0ED000AF5EEC00AF1EE10FA06DDE3
:1033D000D0ED000A70EEC00AC0ED000A06E08B488E
:1033E000D0ED000A70EE800AC0ED000A8748D0EDEB
:1033F000000ABAEE0E1AF4EEC10AF1EE10FA04D287
:10340000FAEE0E0AC0ED000A0DE08048D0ED000A89
:10341000B2EE0E1AF4EEC10AF1EE10FA03DDF2EE8E
:103420000E0AC0ED000A70477848D0ED000AF5EEAC
:10343000C00AF1EE10FA06DDD0ED000A70EE800A47
:10344000C0ED000A06E07148D0ED000A70EEC00A37
:10345000C0ED000A6D48D0ED000ABAEE0E1AF4EE87
:10346000C10AF1EE10FA04D2FAEE0E0AC0ED000A1B
:103470000DE06648D0ED000AB2EE0E1AF4EEC10A75
:10348000F1EE10FA03DDF2EE0E0AC0ED000A70470D
:1034900010B52DED068BB0EE408A18EE100A06F03E
:1034A000BCFA41EC1A0B9FED5A0B53EC102B06F0B3
:1034B000A3F941EC190B06F0C3FA08EE900A56483E
:1034C000006847F2305188420FD1B2EE040A28EE6C
:1034D000000A524880ED000A90ED001ADFED500A14
:1034E0009FED4F0AFFF705FB24E04E4800684E4968
:1034F0000968401A48490968081A00EE100AB8EE2F
:10350000C00A4A4880ED000A494890ED000AF2EEF0
:10351000080A20EE200A414880ED000A90ED001ACA
:10352000444890ED000AF8EEC00A404890ED000AC9
:10353000FFF7DFFAB5EEC08AF1EE10FA3AD036485E
:10354000006847F23051884234D0334890ED000A89
:10355000B8EEC00AFFF768FA012806D002280DD09D
:10356000032814D0042824D11AE0B0EE680AFFF72B
:10357000BFFEB0EE680AFFF787FE1AE0B0EE680AF9
:10358000FFF752FFB0EE680AFFF7B2FE11E0B0EEAF
:10359000680AFFF7E1FEB0EE680AFFF741FE08E0B7
:1035A000B0EE680AFFF70CFFB0EE680AFFF76CFE9A
:1035B00000BF00BF134890ED001A1348D0ED000A79
:1035C000124890ED000AFFF7F2F91B48D0ED000A0F
:1035D000F8EEE00A80EE801ABDEEC10A174880EDD1
:1035E000000A1748006815490968884203DD134836
:1035F000006813490860012012490860BDEC068B81
:1036000010BD0000380200203402002030020020EB
:103610007B14AE47E17AB43F000200209C020020F8
:1036200000000000240200200C0200208C01002079
:1036300014020020F001002090010020F40100207D
:10364000EC010020E401002010B504460020FE49F2
:103650000860FE480460FCB90020FD4908601FEDC9
:10366000100AFC4880ED000A47F23050FA49086021
:10367000FA4908601FED160AF94880ED000A00209B
:10368000F8490860F8490860F8490860F849086096
:103690001FED1D0AFFF7FCFE10BD10B5F04890EDC0
:1036A000000AB5EEC00AF1EE10FA05D1ED48006847
:1036B00010B9ED48006890B11FED270AE84880ED89
:1036C000000A0020E7490860E7490860E948006807
:1036D000E9490860E24890ED000AFFF7D9FE10BD05
:1036E000E648C0ED000AE64880ED000A704770B574
:1036F0002DED028B05460C46B0EE408AD648006898
:10370000A8420BD1D0480068A04207D1D14890ED23
:10371000000AB4EE480AF1EE10FA18D0CA48046064
:10372000CB48006810B90520C9490860D148006835
:10373000D1490860C74880ED008AC748056000206D
:10374000D0490860C64890ED000AFFF7A1FEBDEC25
:10375000028B70BD70B52DED028B0446B0EE408A31
:103760000D46C1480068A0420BD1BD4890ED000A4B
:10377000B4EE480AF1EE10FA03D1BA480068A84244
:1037800037D0B548006847F23051884222D1322004
:10379000AD4908600A20AE49086047F230508442C3
:1037A00018DA0120B1490860B5EEC08AF1EE10FACE
:1037B00003DDB0480068A04208DCB5EEC08AF1EE37
:1037C00010FA07D2AB480068A04203DAB1EE480A0B
:1037D000B0EE408AA4480460A2480560A04880ED8D
:1037E000008A0020A74908609D4890ED000AFFF775
:1037F0004FFEBDEC028B70BD10B52DED028BB0EE0F
:10380000408A04462146B0EE480A47F23050FFF79E
:10381000A1FFBDEC028B10BD70B504460D461FED37
:10382000800A29462046FFF762FF70BD10B52DEDD6
:10383000088BF0EE408A0446B0EE608AB0EE419A02
:10384000864890ED000AB8EEC00AB4EE680AF1EEC0
:1038500010FA0DD17C480068A04209D1824890ED51
:10386000000AB8EEC00AB4EE480AF1EE10FA5ED0D3
:10387000BDEEE80A794880ED000A7E4991ED000A24
:10388000B8EEC00A38EEC00ABDEEC00A10EE100A4B
:103890001FED9D0A2146FFF72AFF7648D0ED000A6A
:1038A000F8EEE00A78EE600AB0EE600AFFF711F871
:1038B000DFED750AB4EEE00AF1EE10FA14DD6D48A2
:1038C00090ED000AB8EEC00AB4EEC08AF1EE10FA2C
:1038D00002DDB0EE490A01E0B1EE490A10EE101A1D
:1038E000084606F09AF813E0624890ED000AB8EE38
:1038F000C00A38EE400A10EE101A084606F08DF89D
:1039000041EC1B0B9FED610B53EC102B05F074FF8A
:1039100041EC1A0B06F094F809EE900A0021B0EE83
:10392000690AFDEEC80A10EE900AFFF713FFBDEC1E
:10393000088B10BD10B54D48006801283DDD4A498F
:1039400009684C4A1268881AFEF7D0FF05280CDA7D
:10395000464801680068401C444A1060B1F5FA7F8F
:103960002BDD0020FFF770FE10BD40480068FA28EC
:1039700008DD05203449086035490860FB203B49D3
:10398000086004E005203049086031490860394882
:10399000006835490968884205DDBFEE000A3048F5
:1039A00080ED000A04E0B7EE000A2D4880ED000A21
:1039B0002B4890ED000AFFF76BFD00BFD4E710B570
:1039C0002DED028B234890ED000AB5EEC00AF1EE12
:1039D00010FA08D11E48006828B12348006847F251
:1039E0003051884202DBBDEC028B10BD22490968D0
:1039F000204A1268881AFEF714FFB0EE408AFFF7DB
:103A000047FD00BFEFE700B518480068022815DA47
:103A10001FEDFD0A0F4880ED000A9FED1E0A1048B9
:103A200080ED000A00200F49086047F230500A4933
:103A300008600A49086000200B49086011480068C6
:103A4000401C1049086027E0F0010020F801002028
:103A5000EC010020180200200002002004020020D7
:103A600014020020E8010020080200201C020020AF
:103A7000B4020020240200200C020020CC0100200F
:103A8000D0010020FC01002000004842FCA9F1D236
:103A90004D62403F00000000FE490968884204DA98
:103AA000FD480068FEF778FE0EE0FA480068FB4922
:103AB0000860FB48006820B1F7480068FEF76CFE1C
:103AC00002E00020FEF768FE00BDF44A1268521CB6
:103AD000F24B1A60824207DDF24A12680A44F14B47
:103AE0001A600022ED4B1A60704770B5FEF77BFE3E
:103AF000ED490860FFF71EFFEC480068002821DD53
:103B0000E8480068E9490968884229D0E548006822
:103B1000E649096888420EDAE2480068E449096823
:103B200088421DDADF480068FEF726FF04460121BF
:103B3000FFF7CBFF14E04FF0FF31DE480068FFF7DE
:103B4000C4FF0DE0D7480068002806DD4FF0FF31C4
:103B5000D9480068FFF7B9FF02E0FFF754FF70BDD6
:103B6000D6480068D0490968884205D0FFF727FF8A
:103B7000CD480068D1490860D1480068E8B3C94819
:103B8000D0ED000AF8EEE00ACE4890ED001A60EEA3
:103B9000810AB0EE600AFEF72BFE0446C148D0ED64
:103BA000000AF8EEE00AC84890ED001A60EE810ABB
:103BB000B0EE600AFEF71CFE0546BA48D0ED000ADA
:103BC000F8EEE00AC14890ED001A60EE810AB0EE0E
:103BD000600AFEF70DFE064622462946FEF77AFDEC
:103BE000BB4890ED000ABDEEC00A10EE102AB9489D
:103BF00090ED000ABDEEC00A00E00AE010EE101AD7
:103C0000B54890ED000ABDEEC00A10EE100AFEF7AE
:103C1000BCFD00BFA3E72DE9F0412DED0E8B05465D
:103C20000C461FED640AF0EE408A1FED660AB0EE06
:103C3000408A2746A948006805F0EFFE41EC1C0BBE
:103C40009FEDA70B53EC102B05F0D6FD41EC1A0BA2
:103C5000E81905F0B2FE41EC1C0B9FEDA30B53ECF1
:103C6000102B05F0C9FD41EC1B0B53EC1A2B05F092
:103C70001CFD41EC190B05F0E3FE9849086008466D
:103C800090ED000A20EE000A10EE101A084605F02A
:103C9000C4FE41EC1A0BB0EE4A0AF0EE6A0A07F0D5
:103CA00017FFB0EE409AF0EE609A51EC190B05F058
:103CB000C7FE0646304605F0B0FE41EC1C0B9FEDFA
:103CC0008C0B06F0E1FDB0EE40EAF0EE60EA9FED0D
:103CD0008A0B53EC102B51EC1E0B05F0FFFD41EC51
:103CE0001D0B53EC1C2B05F087FD41EC1B0BB0EEBC
:103CF0004B0AF0EE6B0A06F0A3FAB0EE40AAF0EE23
:103D000060AA9FED7F0B53EC102B51EC1A0B05F0C2
:103D100073FD41EC190B05F093FE08EE100A9FEDC0
:103D20007A0AB4EEC08AF1EE10FA04DD9FED760A4D
:103D3000B0EE408A0AE0B3EE040AB4EEC08AF1EEB7
:103D400010FA03D2B3EE040AB0EE408ABDEEC80A00
:103D50006E4880ED000A00686D490860BDEC0E8B6E
:103D6000BDE8F08110B52DED088BB0EE408A00243F
:103D70006848407800F00100C8B1022005F014F84E
:103D80006448407800F0010088B163480078401C26
:103D90006149087008460078022801DD002008709B
:103DA00000BF5C48407800F001000028F9D15A4873
:103DB0000078012808D1594880ED008A56480078DB
:103DC000401C554908704FE05348007802284BD1F9
:103DD000534880ED008A50480078401C4E490870D6
:103DE0004E4890ED009A4E48D0ED009A29EE090A0F
:103DF0004C48D0ED000A20EE200A69EEA90A4A4894
:103E000090ED001A00EE810AD0ED000A454890EDD1
:103E1000001A60EE810A9FED451A00EEC10A44487F
:103E2000D0ED000AC0EE208AF5EEC08AF1EE10FA5D
:103E300017DD18EE900A05F0F0FD41EC1B0BB0EE1B
:103E40004B0AF0EE6B0A07F043FEB0EE40AAF0EE2C
:103E500060AA51EC1A0B05F0C1FD04463548046018
:103E600002E0002033490860BDEC088B10BD10B59E
:103E70000221314801F098FD50B9254800782F49BA
:103E800081F82F0081F82B0081F82700002057E0EF
:103E90005DE00000D8010020D4010020FC010020DA
:103EA000B4020020EC01002024020020F0010020D8
:103EB000F40100202C020020F8010020280200203C
:103EC000E4010020380200203402002030020020EB
:103ED000500200204C020020480200206003002015
:103EE000CDCCCCCCCCCCEC3F9A9999999999B93F4F
:103EF000000000A0D750FE3F0000000000C0694055
:103F0000000000000000334000007A43240300203A
:103F10001C0300208C0600206C030020640300209A
:103F200068030020780300207403002000003E4353
:103F30007C030020700300200010024004000020D9
:103F400081F8260081F82A00012081F82E0010BD9A
:103F500010B50221FE4801F027FDD8B9FD480068E0
:103F6000401FFD490860FD480178FA480068FFF7E6
:103F700052FEFB480078FB4981F82F0081F82B00A6
:103F800081F82700002081F8260081F82A0001200E
:103F900081F82E0010BD10B50221ED4801F004FD9E
:103FA000D8B9EC4800680A38EB490860EB4801785A
:103FB000E8480068FFF72FFEE9480078E94981F8F2
:103FC0002F0081F82B0081F82700002081F82600BF
:103FD00081F82A00012081F82E0010BD10B50221C1
:103FE000DB4801F0E1FCD8B9DA4800680F38DA495B
:103FF0000860DA480178D7480068FFF70CFED84817
:104000000078D84981F82F0081F82B0081F827002B
:10401000002081F8260081F82A00012081F82E0076
:1040200010BD10B5D048C079002850D0CE480078D7
:1040300000F0800000284AD101225102CB4801F053
:10404000D1FC0120CA490860CA4800685A2802DD2C
:104050005A20C9490860C8480078C24981F82F0031
:1040600081F82B0081F82700002081F8260081F8D4
:104070002A00012081F82E0043F6982004F094FED7
:1040800001221102B94801F0ADFC42F2107004F0B7
:104090008BFE0020B34981F82F0081F82B0081F8B6
:1040A0002700B349086000224FF40071AF4801F0C7
:1040B00099FC41F2883004F077FE00224FF48071C1
:1040C000AA4801F08FFC0020A64981F8330010BDFA
:1040D00010B5A548007800F0800060B301221102FD
:1040E000A24801F07FFC42F2107004F05DFE002057
:1040F0009C4981F82F0081F82B0081F827009C490A
:10410000086000224FF40071984801F06BFC41F206
:10411000883004F049FE00224FF48071934801F08A
:1041200061FC00208F4981F833009449086094496C
:1041300008709449086010BD10B58B48407800F0B5
:10414000020028BB8848407800F0200000B300201F
:104150008D49086001208D49086000208C49086065
:104160008C4800688C49086000207E4981F82F0047
:1041700081F82B0081F827008849086032207949AE
:1041800081F8330001225102784801F02BFC12E043
:10419000834801687F480068C01C81420BDC7E4870
:1041A00000687C490968884205D17748006810B9E1
:1041B00001206F4908606C48407800F0020078B92F
:1041C0006948407800F0040050B1764800687249B0
:1041D000086001206C49086000206549086015E00E
:1041E0006B48006890B96C4800686E49096888425D
:1041F0000CD16C4800680A3869490968884205DAB8
:1042000000206249086001206149086010BD10B5B6
:1042100055488079A8B1322004F0C6FD5248807913
:1042200078B15E480068401C5C4908600846006838
:10423000022801DD0020086000BF4B48807900287B
:10424000FBD156480068012821D10221404801F0E5
:10425000ABFBE0B900224FF40071444801F0C2FB0F
:1042600041F2883004F0A0FD17203E4981F8270074
:10427000DC2081F82B00172081F82F00002081F826
:10428000260081F82A00012081F82E0090E04348A2
:10429000006802285AD10122C101344801F0A2FB72
:1042A00041F2883004F080FD00202E4981F82F0073
:1042B00081F82B0081F8270000224FF480712B48F1
:1042C00001F090FB42F2107004F06EFD322025499F
:1042D00081F833000A2081F82F0081F82B0081F843
:1042E0002700012081F8260081F82A00002081F8AB
:1042F0002E002D49086013E006E0FCF7FDFA00B13E
:1043000008E0012004F050FD0221114801F04CFBAF
:104310000128F2D000BF24480068401C22490860F0
:10432000214800686428E7DB40F6B83004F03CFD23
:10433000012251020D4801F055FB0020094981F886
:104340002F0081F82B0081F827002FE030E00000DB
:10435000001002409C0000205C0300208601002029
:104360001C030020040000208C06002000080240EE
:10437000380300202C030020300300204C030020D1
:104380006C03002070030020440300203C03002045
:10439000400300203C010020380100205003002091
:1043A000B000002040010020E8020020FE49086023
:1043B00010BD002100EE900AF8EEE00A70EE600AEF
:1043C000FDEEE00A10EE901AF84A1160704770474F
:1043D00070B52DED0C8B044625469FEDF50AB0EE29
:1043E000408AB3EE030AF0EE408AB3EE0B0AC0EE49
:1043F000280AB0EE60AAB0EE4A0A06F027FCDFED0C
:10440000ED0A80EE201AF0EE419AEB48006805F0C4
:1044100004FB41EC1D0B9FEDE90B53EC102B05F059
:10442000EBF941EC1B0B284605F0C7FA41EC1D0BDC
:104430009FEDE40B53EC102B05F0DEF941EC1C0B67
:1044400053EC1B2B05F031F941EC1A0B05F0F8FA8F
:10445000D9490860084690ED000AB0EE409A69EE2E
:10446000890AB0EE600A06F097F820EE280AB0EE4E
:10447000408A9FEDD60AB4EEC08AF1EE10FA04DD50
:104480009FEDD20AB0EE408A08E0B5EEC08AF1EEA8
:1044900010FA03D29FEDC60AB0EE408ABDEEC80AFC
:1044A000CB4880ED000A0068CA490860BDEC0C8B5F
:1044B00070BD10B52DED028BC748C07801EE100A13
:1044C000B8EE411ADFEDC51A31EE611AF0EE410A7D
:1044D000C148807801EE100AB8EE411ADFEDBF1A2C
:1044E00031EE611AB0EE410A05F01EFDF0EE408A91
:1044F000BB48D0ED000A9FEDBB1A81EE200A20EEEA
:10450000280AB0EE408AB5EEC08AF1EE10FA05D264
:104510009FEDB50A38EE000AB0EE408AAE48C0788A
:104520007E2807D1AC4880787F2803D19FEDAF0A61
:10453000B0EE408A9FEDAB0AB4EEC08AF1EE10FAFD
:1045400006D8B2EE040A28EE000AB0EE408A09E06E
:104550009FEDA50A38EE400AF2EE040A20EE200A8A
:10456000B0EE408A9FEDA20A38EE400AA14880EDE5
:10457000000ABDEC028B10BD10B59748407800F0E2
:104580008000002838D00A209B4981F82F0081F84C
:104590002B0081F82700012081F8260081F82A00ED
:1045A000002081F82E0000240FE006E0FCF7A4F9BB
:1045B00000B108E0012004F0F7FB02218F4801F070
:1045C000F3F90128F2D000BF641C642CEDDB40F647
:1045D000B83004F0E9FB3220874981F8330000202D
:1045E00081F82F0081F82B0081F827000122510269
:1045F000834801F0F7F900BF10BD10B57648007888
:1046000000F00200C8B100207B4981F82F0081F83A
:104610002B0081F827007B490860774981F8330037
:1046200000224FF40071764801F0DCF90020764951
:1046300008605D4908607549086010BD74480168EC
:104640000068401C724A1060642907D27148408992
:10465000714909680844704908600BE06E480068B9
:104660006421B0FBF1F06D490860002068490860E2
:10467000694908606A4801680068401C684A10601F
:10468000642907D263480089664909680844654976
:1046900008600BE0634800686421B0FBF1F06249F8
:1046A000086000205E4908605E4908605F48016854
:1046B0000068401C5D4A1060642907D25548808913
:1046C0005B49096808445A4908600BE0584800688B
:1046D0006421B0FBF1F0574908600020534908609D
:1046E00053490860544801680068401C524A1060F1
:1046F000782907D24748C0895049096808444F497A
:1047000008600BE04D4800687821B0FBF1F04C499F
:104710000860002048490860484908604948016825
:104720000068401C474A10600A2907D23948C088EF
:10473000454909680844444908600BE0424800685C
:104740000A21B0FBF1F04149086000203D490860B2
:104750003D4908603E4801680068401C3C4A1060C2
:10476000322907D22B4840883A4909680844394918
:1047700008600BE0374800683221B0FBF1F03649A1
:1047800008600020324908603249086033480168F7
:104790000068401C314A1060322966D21D480088EA
:1047A0002F49096808445DE0500300208003002081
:1047B0000000000000007A4484030020CDCCCCCC63
:1047C000CCCCEC3F9A9999999999B93F00007A43DA
:1047D000300300202C0300208C0600200000FF4244
:1047E0000C030020000034430000B44300409C460A
:1047F0000000E143CC000020040000200010024033
:104800000008024058030020540300204C030020FD
:10481000AC03002040060020B003002098000020D8
:10482000B4030020B80300209C000020BC0300203B
:10483000C0030020A4000020C4030020C8030020FF
:10484000A0000020CC030020D0030020B4000020F2
:10485000D4030020D8030020AC000020DC0300209B
:10486000E0030020FC4908600BE0FB4800683221AF
:10487000B0FBF1F0F94908600020F9490860F649F9
:1048800008607047F7480068F7490968884203DA0A
:10489000F5480068F3490860F2480068F349096880
:1048A000884203DDF1480068EE490860EB49096879
:1048B000EC4A1268881A002801DB014600E04142F8
:1048C000032928DDE5480068E6490968884204DDD7
:1048D0000020E74981F8220003E00120E44981F843
:1048E0002200DE490968DF4A1268881A002801DBC5
:1048F000014600E041424900DE4A1160104600686E
:10490000962802DD962011460860DA480078D849DA
:1049100081F8230003E00520D54981F82300D6481B
:10492000006818B90020D24981F82300704710B5FB
:10493000D248C079A0B1D148407800F0040078B1E5
:10494000C8480068C9490968884209DAC54800684A
:10495000401CC44908604FF4967004F025FA16E034
:10496000C648C07998B1C548407800F0200070B1C1
:10497000BC480068BC490968884208DDB94800683D
:10498000401EB84908604FF4C87004F00DFA10BD1D
:1049900073B52DED028B14251FED7B0AB0EE408A16
:1049A000B6480079322805DBB4480079C82801DC14
:1049B000012000E000200446B048007800F0080024
:1049C000A8B9AE48007800F0100080B9AB48007874
:1049D00000F0200058B9A948007800F0400030B934
:1049E0002CB11920FEF730FEBDEC028B7CBDA34834
:1049F000407800F0020030B19DF80C509FEDA00A05
:104A0000B0EE408A05E09DF808509FED9E0AB0EE9A
:104A1000408A9A48007800F0080098B197480078DA
:104A200000F0100070B99548007800F0200048B9F7
:104A30009248007800F0400020B929460020FEF797
:104A4000EBFEB1E08D48007800F00800A0B98B487B
:104A5000007800F0100078B18848007800F020005D
:104A600050B98648007800F0400028B929464FF434
:104A7000E160FEF7D1FE97E08048007800F0080082
:104A8000A0B97E48007800F0100078B97B48007823
:104A900000F0200050B17948007800F0400028B9BB
:104AA00029464FF46170FEF7B7FE7DE07348007849
:104AB00000F0080098B97148007800F0100070B953
:104AC0006E48007800F0200048B96C48007800F08B
:104AD000400020B129466C48FEF79EFE64E067481E
:104AE000007800F00800A0B16448007800F01000E1
:104AF00078B96248007800F0200050B15F48007833
:104B000000F0400028B929464FF4E170FEF784FE1A
:104B10004AE05A48007800F0080098B157480078F9
:104B200000F0100070B95548007800F0200048B936
:104B30005248007800F0400020B129465348FEF763
:104B40006BFE31E04D48007800F00800A0B94B48FA
:104B5000007800F0100078B14848007800F020009C
:104B600050B14648007800F0400028B9294640F28C
:104B70004650FEF751FE17E04048007800F008006C
:104B800090B93E48007800F0100068B13B480078CA
:104B900000F0200040B93948007800F0400018B11A
:104BA00029463B48FEF738FE3448007800F00800FC
:104BB000A8B93248007800F0100080B92F4800787A
:104BC00000F0200058B92D48007800F0400030B9BE
:104BD0002CB1FDF7FAFD10B11920FEF735FD14B127
:104BE000FEF75BFD27E02548007932280EDAFDF755
:104BF000ECFD28B10020B1EE480AFEF7FDFD1AE0F9
:104C00000020B1EE480AFEF7F7FD14E01B480079DA
:104C1000C8280EDDFDF7D9FD28B10020B0EE480A06
:104C2000FEF7EAFD07E00020B0EE480AFEF7E4FDDB
:104C300001E0FEF732FD00BFD6E610B501200C49B9
:104C400088700421134800F0AFFE012824D102200F
:104C50000749C870012010BDE0030020B00000200B
:104C6000DC030020380100203C010020400100202E
:104C7000040000208C0300203C0300208C06002050
:104C80009A9959403333333F7CFCFFFF3EFEFFFFD0
:104C9000BAFAFFFF001002406420FE49C8700020ED
:104CA00010BD10B50421FC4800F07EFE01280BD198
:104CB000FA48007840B96420F649C8700020F849E5
:104CC0000860F849086010BDFBF71FFE041E01DBF9
:104CD000204600E06042F4490968884208DDEF4858
:104CE0000078012804D10220EA49C8700120EAE7CF
:104CF0001E20E849C8700120E84908700020E2E75A
:104D000010B50020E34988744FF40041E24800F0F8
:104D10004BFE012804D10220DE49C874012010BDD9
:104D20006420DC49C8740020F9E710B54FF4004155
:104D3000D94800F039FE01280BD1DC48007840B991
:104D40006420D449C8740020D9490860D949086052
:104D500010BDFBF74DFE041E01DB204600E0604263
:104D6000D5490968884208DDD0480078012804D177
:104D70000220C849C8740120EAE71E20C549C8744A
:104D80000120CA4908700020E2E710B50020C1499F
:104D900088724FF48041C04800F006FE012804D11B
:104DA0000220BC49C872012010BD6420B949C872F4
:104DB0000020F9E710B54FF48041B74800F0F4FD4A
:104DC00001280CD1BD48007848B96420B149C872A7
:104DD00000204FF080414862B949086010BDFBF7E0
:104DE00050FE041E01DB204600E06042B549096820
:104DF000884208DDB1480078012804D10220A54985
:104E0000C8720120EAE71E20A249C8720120AB49FE
:104E100008700020E2E710B52DED048BFBF775FD5F
:104E2000A9490968441A002C01DB204600E06042D1
:104E3000002839DDFBF769FDA3490968884203DDD5
:104E400000209449887002E0012092498870FBF7A5
:104E50005CFD9D490968441A002C01DB214600E0F5
:104E60006142084604F0A9FD41EC190B9FED970B38
:104E700053EC102B04F0C0FC41EC180B04F0AEFD19
:104E80009449086008460068FA2801DDFA200860A5
:104E9000904800680A2802DA0A208E4908608D4886
:104EA00000787C49C87002E002207A49C870BDECE5
:104EB000048B10BD10B52DED048BFBF799FD8649D1
:104EC0000968441A002C01DB204600E060420028FB
:104ED00039DDFBF78DFD80490968884203DD01203B
:104EE0006C49887402E000206A498874FBF780FDF1
:104EF00079490968441A002C01DB214600E061422F
:104F0000084604F05AFD41EC190B9FED700B53EC71
:104F1000102B04F071FC41EC180B04F05FFD6D499F
:104F2000086008460068FA2801DDFA200860694830
:104F300000680A2802DA0A20664908606548007895
:104F40005449C87402E002205249C874BDEC048B75
:104F500010BD10B52DED048BFBF793FD5F4909687B
:104F6000441A002C01DB204600E06042002839DDB5
:104F7000FBF787FD59490968884203DD012045494F
:104F8000887202E0002043498872FBF77AFD53499A
:104F90000968441A002C01DB214600E06142084602
:104FA00004F00BFD41EC190B9FED480B53EC102B5B
:104FB00004F022FC41EC180B04F010FD4549086098
:104FC00008460068FA2801DDFA20086041480068B8
:104FD0000A2802DA0A203F4908603E4800782D4935
:104FE000C87202E002202B49C872BDEC048B10BDD0
:104FF00070B52DED108BF0EE408A04469FED380A17
:10500000B0EE40FA9FED360AB0EE408A35480068AF
:1050100004F003FD41EC1C0B9FED330B53EC102B04
:1050200004F0EAFB41EC1A0B00EE104AB8EEC00A9D
:1050300038EEC00A10EE101A084604F0EEFC41ECFF
:105040001C0B9FED2B0B53EC102B04F0D5FB41EC0C
:105050001B0B53EC1A2B04F028FB41EC190B04F04A
:10506000EFFC20490860084690ED000A20EE000A97
:1050700010EE101A084604F0D0FC41EC1A0BB0EE0A
:105080004A0AF0EE6A0A06F023FDB0EE409AF0EE0E
:10509000609A31E0040000200010024088030020E4
:1050A00024040040740000209403002089030020A1
:1050B000240C004078000020980300208B0300207F
:1050C000700000209C030020600200209A999999AA
:1050D0009999E93F8C0300206402002068020020B7
:1050E0000000000060030020CDCCCCCCCCCCEC3F49
:1050F0009A9999999999B93F51EC190B04F0A0FC30
:105100000546284604F089FC41EC1C0B9FEDD00BB2
:1051100005F0BAFBB0EE40EAF0EE60EA9FEDCE0B90
:1051200053EC102B51EC1E0B04F0D8FB41EC1D0B83
:1051300053EC1C2B04F060FB41EC1B0BB0EE4B0A54
:10514000F0EE6B0A05F07CF8B0EE40AAF0EE60AA33
:105150009FEDC30B53EC102B51EC1A0B04F04CFBDE
:1051600041EC190B04F06CFC08EE100A9FEDBE0A2E
:10517000B4EEC08AF1EE10FA04DD9FEDBB0AB0EE8A
:10518000408A0AE0B3EE040AB4EEC08AF1EE10FAE7
:1051900003D2B3EE040AB0EE408ABDEEC80AB348AB
:1051A00080ED000A0068B2490860BDEC108B70BD4C
:1051B00009E01120FDF7F6F90121AE4802F0D2FA1C
:1051C0000F2003F0F1FDF4E70CE0AB48006810B9E4
:1051D000FFF758FB03E00520A84981F823000320CE
:1051E00003F0E2FDF1E715E0A548007800F00100CA
:1051F00020B143211E20FFF7CBFB02E01920FEF770
:1052000023FAFFF708FEFFF755FEFFF7A2FE032083
:1052100003F0CAFDE8E708E0FFF710FAFDF7D6F95A
:10522000FEF763FC042003F0BFFDF5E71FB5FBF7B5
:10523000DCFCFBF719FDFBF766FFFCF73BF8FCF71E
:105240002DF9FCF7B2F8FCF7A1F9FBF778FD4FF464
:10525000E130FCF76EFA4FF4E130FCF7F3FA4FF46B
:10526000E130FCF77CFB4FF4E130FCF721FC4FF41C
:105270006120FCF7C6FC4FF4E130FCF75FFDFDF761
:10528000AEFA00BFFFF7D9FC08B9012400E0002402
:10529000FFF736FD08B9012000E000200443FFF7C6
:1052A00074FD08B9012000E000200443002CE9D17E
:1052B00000BFFFF7F6FC08B9012400E00024FFF767
:1052C00034FD08B9012000E000200443FFF772FD1F
:1052D00008B9012000E000200443002CE9D100209F
:1052E00068490860FCF76DFE002000900190029074
:1052F00003464FF4807264A10390684803F015FBE5
:10530000002000900190029003464FF4807264A147
:105310000390684803F009FB002000900190029080
:1053200003464FF4807264A10390684803F0FDFACD
:105330000020674908606BE061E0FFF75EF96548AF
:10534000018865480068FEF766FC644800685028DC
:1053500037DC4B48407800F0400008B1FFF737F8E1
:105360004748407800F0020030B14548407800F0EE
:10537000200008B1FEF77BFD4148407800F00200B4
:1053800030B13F48407800F0100008B1FEF7E0FD72
:105390003B48407800F0020030B13948407800F0D6
:1053A000040008B1FEF7F7FD3548407800F0020030
:1053B00090B13348407800F0080068B1FEF70EFE67
:1053C0000AE04648006840F26631884204DB2C4817
:1053D000807908B1FEF71BFF414890ED000AB8EE56
:1053E000C00AFEF7BFFCFEF773FEFEF71AFE39484F
:1053F0000088FEF7EDFFFEF79FFEFFF7BDF820489F
:10540000007800F00100002897D10A20FEF71CF96F
:1054100092E71FB5002000900190029003464FF4E0
:10542000807230A10390324803F07FFA0020009090
:105430000190029003464FF480722EA103903048F1
:1054400003F073FA03F08AFE002004B010BD0000E0
:10545000000000C06B28FF3F0000000000C0694052
:10546000000000000000334000007A4324030020C5
:105470001C030020004800403803002004000020E6
:105480008C060020D00000207461736B526F626F35
:1054900074416E616C79746963730000175200087F
:1054A0007461736B446965754B6869656E436F43DE
:1054B00061750000E75100087461736B446965759C
:1054C0004B6869656E436F4361753100C9510008CF
:1054D0003C0300208801002070030020B000002061
:1054E0009C0000207461736B4D61696E00000000C8
:1054F0002D5200087461736B4779726F00000000D1
:10550000B15100080CB5002001900090724800686D
:1055100040F480307049086000BF6F48006800F4B4
:10552000003000900198401C0190009818B9019833
:10553000B0F5A06FF1D16848006800F4003010B1F8
:105540000120009001E0002000900098012846D141
:1055500061484030006840F080505F494031086049
:105560005E48006840F480405C4908605A48083052
:1055700000685949083108600846006840F4004056
:1055800008600846006840F4A05008605448091FAD
:105590000860081F006840F08070091F086000BFA5
:1055A0004D48006800F000700028F9D040F2056016
:1055B0004C49086048480830006820F0030046491C
:1055C000083108600846006840F00200086000BF2B
:1055D00041480830006800F00C000828F8D10CBDE4
:1055E00010B53D48006840F001003B4908600020CC
:1055F000394908310860384800683B490840364955
:1056000008603A48091D0860081F006820F48020DF
:10561000091F0860002030490C310860FFF772FF55
:105620004FF000603249086010BD70B500200022C4
:10563000022300240221284D08352D6805F00C00B6
:1056400020B1042806D0082834D107E0294D2A4E7D
:10565000356033E0294D284E35602FE01E4D2D1D5D
:105660002D68C5F380541C4D2D1D2D6805F03F019C
:1056700054B1224DB5FBF1F5174E361D3668C6F311
:10568000881605FB06F209E01A4DB5FBF1F5124E3E
:10569000361D3668C6F3881605FB06F20E4D2D1D25
:1056A0002D68C5F301456D1C6B00B2FBF3F5124E7E
:1056B000356003E00F4D104E356000BF00BF064D52
:1056C00008352D68C5F303150D4E705D0A4D2D6824
:1056D000C540094E356070BD003802400070004082
:1056E00008544007003C0240FFFFF6FE1030002443
:1056F00008ED00E00024F400E403002000127A002A
:10570000E80300200648804706480047FEE7FEE71A
:10571000FEE7FEE7FEE7FEE7FEE7FEE7FEE7FEE761
:10572000E15500088901000832490143324A1160FD
:10573000704770B5002100230F22C4781CB32E4C93
:10574000246804F4E064C4F5E064C4F30721C1F103
:105750000404E3B20A4144789C40E1B284781440E6
:1057600021430C07210E254C05786155047804F07F
:105770001F050124AC4005786D11AD0005F1E02551
:10578000C5F8004109E0047804F01F050124AC408D
:105790001B4D0678761145F8264070BD194A0A401F
:1057A0000243154B1B1F1A60704739B1124A121D74
:1057B00012680243104B1B1D1A6006E00E4A121DB0
:1057C000126882430C4B1B1D1A607047042808D1D5
:1057D0004FF0E021096941F004014FF0E02211612E
:1057E00007E04FF0E021096921F004014FF0E022C9
:1057F000116170470000FA050CED00E000E400E0E4
:1058000080E100E080FFFF1F10B504468C48844211
:1058100008D10121084600F000FB0021012000F022
:10582000FCFA5EE08748844208D10121022000F0A2
:10583000F4FA0021022000F0F0FA52E0824884429B
:1058400008D10121042000F0E8FA0021042000F032
:10585000E4FA46E07D48844208D10121082000F0A6
:10586000DCFA0021082000F0D8FA3AE078488442B7
:1058700008D10121102000F0D0FA0021102000F002
:10588000CCFA2EE07348844208D10121202000F098
:10589000C4FA0021202000F0C0FA22E06E488442C1
:1058A00008D10121402000F0B8FA0021402000F08A
:1058B000B4FA16E06948844208D10121802000F042
:1058C000ACFA0021802000F0A8FA0AE06448844283
:1058D00007D10121801500F0A0FA0021A01500F0E9
:1058E0009CFA10BDF0B50A4600210023002400BF39
:1058F0003DE0012505FA01F3156805EA03049C4221
:1059000034D105684F000326BE40B54305601579C4
:105910004E00B5400668354305601579012D02D06B
:105920001579022D16D185684F000326BE40B54378
:10593000856055794E00B540866835438560456879
:1059400001268E40B5434560456896798E40B6B2D3
:1059500035434560C5684F000326BE40B543C5606A
:10596000D5794E00B540C6683543C560491C10293D
:10597000BFD3F0BD4FF6FF7101600021017141718D
:105980008171C171704708B54FF480320092009A5E
:105990000A430092009AC261C161009AC261C26961
:1059A0000092C269009208BD0246002013690B40B4
:1059B0000BB1012000E0002070470146086980B269
:1059C00070470246002053690B400BB1012000E0F4
:1059D000002070470146486980B2704701837047D4
:1059E000418370470AB1018300E041837047416100
:1059F000704742694A4042617047F0B50023002475
:105A00004D07ED0E02FA05F3CE1000F1200555F812
:105A100026504E07F70E0F26BE40B543CF1000F1BB
:105A2000200646F82750CE1000F1200555F82650E4
:105A300045EA0304CE1000F1200545F82640F0BDEC
:105A4000000002400004024000080240000C024036
:105A5000001002400014024000180240001C0240E6
:105A600000200240FA48006840F00100F849086050
:105A70000020F74908310860F5480068F5490840FA
:105A8000F3490860F448091D0860081F006820F405
:105A90008020091F08600020ED490C310860704724
:105AA0000021EB4A921C117011460870704710B526
:105AB00001460022002300204A11012A02D1E44CB1
:105AC000236808E0022A03D1E14C7034236802E025
:105AD000DF4C7434236801F01F02012494401C4001
