:020000040800F2
:10000000F0330020054F00084502000847020008B1
:100010004B0200084F0200085302000800000000D5
:100020000000000000000000000000009D0100082A
:100030005702000800000000E10100081F7F0008CF
:100040001F4F00081F4F00081F4F00081F4F0008D8
:100050001F4F00081F4F00081F4F00081F4F0008C8
:100060005F040008A30400081F4F000801030008F4
:10007000E30200083F0300081F4F00087502000854
:100080001F4F0008810200081F4F00081F4F000883
:100090001F4F00081F4F00081F4F00081F4F000888
:1000A0001F4F00087B030008A70300081F4F00082C
:1000B000A9030008D7030008030400081F4F000825
:1000C0001F4F00081F4F00081F4F00085B04000867
:1000D0001F4F00085D0200081F4F00081F4F000857
:1000E0001F4F00081F4F00081F4F00081F4F000838
:1000F0001F4F00081F4F00081F4F00081B03000878
:100100001F4F00081F4F00082F0400085D0400085F
:100110001F4F00081F4F00084D0300085903000837
:100120001F4F00089B020008B50200081F4F00087F
:100130001F4F00081F4F00081F4F00081F4F0008E7
:100140001F4F00081F4F00081F4F00081F4F0008D7
:10015000D50200081F4F00081F4F00081F4F00085E
:100160001F4F00081F4F00081F4F00081F4F0008B7
:100170001F4F00081F4F00081F4F00081F4F0008A7
:100180001F4F00081F4F0008DFF80CD009F02CFAB1
:1001900000480047A74C0008F0330020234B1968A3
:1001A0000868B0E8F04F80F309884FF0000080F352
:1001B000118870470000000003480068006880F361
:1001C000088862B600DF00BF08ED00E0DFF80C0031
:1001D000016841F470010160704700BF88ED00E0E4
:1001E000EFF30980114B1A681EF0100F08BF20EDC5
:1001F000108A20E9F04F106008B54FF0140080F32A
:10020000118808F054FA4FF0000080F31188BDE81F
:10021000084019680868B0E8F04F1EF0100F08BFDA
:10022000B0EC108A80F30988704700BFD403002027
:10023000EFF311804FF0140181F31188704780F3C0
:1002400011887047704700BFFEE700BFFEE700BFA0
:10025000FEE700BFFEE770477047704710B540F2F9
:100260002551904806F06FFF18B120218D4806F007
:1002700061FF10BD10B58C498C4805F099FE10BD8A
:1002800010B58B498948303005F068FE20B18849A7
:100290008648303005F08CFE10BD10B58549864883
:1002A00005F05CFE28B18349834805F081FE01F02A
:1002B00019FD10BD10B581497F48183005F078FE52
:1002C0007F4840787E49097840EA012000B27D49A4
:1002D000088010BD10B57C497748603005F068FE95
:1002E00010BD10B573497148483805F037FE30B17C
:1002F00070496E48483805F05BFE00F09FFA10BD6B
:1003000010B572496948603805F028FE20B16F4980
:100310006648603805F04CFE10BD10B56C49634866
:10032000483005F01BFE48B100216048483005F018
:100330006BFD67495D48483005F03AFE10BD10B5C9
:1003400059495A48303805F033FE10BD10B5012127
:10035000604806F055FC10BD10B501215E4806F05E
:100360004FFC7A204F49888001215C4806F0FAFD55
:1003700001215B4806F0F6FD10BD10B5012159487A
:1003800006F03EFC5748008800F0100028B156489F
:100390000068401E5449086004E053480068401C4F
:1003A0005149086010BD704710B50121880706F05B
:1003B00027FC4FF08040008800F0100028B14B4827
:1003C0000068401E4949086004E048480068401C35
:1003D0004649086010BD10B50121454806F010FCE3
:1003E0004348008800F0100028B142480068401ED1
:1003F0004049086004E03F480068401C3D490860EF
:1004000010BD10B501213C4806F0FAFB3A480088BF
:1004100000F0100028B139480068401E37490860D4
:1004200004E036480068401C3449086010BD10B52F
:100430000121334806F0E4FB3148008800F0100049
:1004400028B130480068401E2E49086004E02D485D
:100450000068401C2B49086010BD7047704710B5FC
:10046000042005F03DFED8B12021274804F0C1FE4C
:100470000421264804F098FE012804D100211648E2
:1004800005F03EFF09E00421204804F08DFE20B96C
:10049000114805F039FF1E49086004201D49086015
:1004A00010BD7047001001402080002070600240A5
:1004B0000080202000880010286402400080201066
:1004C000F00500208400002000880020208000101B
:1004D0000080002800100040001400400048004048
:1004E000001401400000014064000020680000206A
:1004F000000400406C000020000800408000002044
:10050000000C00407000002000000240000C02407F
:1005100060000020143C014070B50446204608F0FD
:10052000AFFC05462146F74808F0B1FCA0B1952282
:100530002146F44808F098FC0021F34805F064FCDB
:10054000F048F1490C310860EF48B838C0F8BC50A9
:100550000121ED4805F058FC70BD70B5044600253A
:1005600010E0605D68B1615DE84806F026FD00BFFF
:100570008021E64806F0D1FD0028F9D0681CC5B2FC
:1005800000E070BDEDE770B5044600250FE05CB1FA
:100590002146DE4806F011FD00BF8021DB4806F051
:1005A000BCFD0028F9D000E070BD681CC5B2032D69
:1005B000EDDB00BFF8E713B50C460020FFF7E3FFC3
:1005C000D3A0FFF7CAFF2346D2A29621D24809F052
:1005D00049F8D148FFF7C1FFD0A0FFF7BEFFCDA279
:1005E0009621CD48009B09F03DF8CB48FFF7B5FFB9
:1005F000CCA0FFF7B2FFFF20FFF7C5FFFF20FFF7FA
:10060000C2FFFF20FFF7BFFF1CBD70B505460C46BB
:10061000BFA0FFF7A2FF2246BEA1BF4809F03AF8EB
:10062000BD48FFF79AFFBDA0FFF797FF2846FFF7E9
:1006300094FFBCA0FFF791FFFF20FFF7A4FF70BD60
:1006400077B585B00546FF26B4A103C9CDE90301FE
:10065000B4A000680290AEA00068019000240AE0F7
:100660000020B1490855B1490855AB490855A5497D
:100670000855601CC4B21E2CF2DB0A20A649087083
:10068000FF2048708870C870A2A1A848079A09F096
:1006900001F8A64901A808F0DBFB01A99E4808F073
:1006A000D7FB03A99C4808F0D3FB29469A4808F0D9
:1006B000CFFB98A19D48069A08F0ECFF9B4996480D
:1006C00008F0C6FB02A9944808F0C2FBFF20964937
:1006D000087048708870904808F0BAFB8E48FFF7A1
:1006E0001BFF08B070BDF7B584B005460E46FF2766
:1006F0008AA103C9CDE902018AA00068019084A003
:1007000000680090002408E00020874908558749C8
:10071000085581490855601CC4B20A2CF4DB0A2034
:100720007D490870FF2048708870C87079A17F48A3
:10073000069A08F0AFFF7D49684608F089FB6946D4
:10074000754808F085FB02A9734808F081FB29462B
:10075000714808F07DFB31466F4808F079FB01A92C
:100760006D4808F075FBFF206F490870487088706D
:100770000020C8700871684808F06AFB6648FFF7F7
:10078000CBFE07B0F0BD01B58EB069A2322101A841
:100790000E9B08F067FF01A8FFF7BEFE0FB000BD7B
:1007A00073B584B00546FF265CA103C9CDE90201FB
:1007B0005CA00068019056A00068009000240AE048
:1007C00000205949085559490855534908554D497C
:1007D0000855601CC4B21E2CF2DB0A204E4908707A
:1007E000FF2048708870C8704AA15048059A08F0E8
:1007F00051FF4E49684608F02BFB6946464808F011
:1008000027FB02A9444808F023FB2946424808F088
:100810001FFB4649404808F01BFB01A93E4808F071
:1008200017FBFF2040490870487088703A4808F06C
:100830000FFB3948FFF770FE06B070BD1CB53F488E
:1008400000783E49497808443C49897808443B4946
:10085000C97808443949097908443849497908442C
:100860003649897908443549C97908443349097AB0
:100870000844C0B201903148007A00F00F000090A7
:100880009DF800000D2803D000212D4806F06AFBDA
:100890001CBD2A48007A00F00F000D2806D1274819
:1008A000007800F0010008B10D2070470020FCE73F
:1008B0002248007800F0020008B1012070470020B3
:1008C000FCE71CB51F4805F01FFD1F49096840EAF9
:1008D0000140092190FBF1F0009000243CE0194810
:1008E00005F012FD1849096840EA0140092190FB12
:1008F000F1F00190DDE90021881A002826DB01468D
:1009000025E000004A050020B86002400050004089
:100910007400000025640000140400202E74787414
:100920003D22000022000000FA040020D204002032
:100930006A302E76616C3D25640000002C06002094
:1009400000480040000C0040700000204142052992
:1009500000DA641C01980090022CC0DB01981CBDD9
:100960001CB54FF0804005F0CFFCFE49096840EA15
:100970000140092190FBF1F00090002418E04FF0B5
:10098000804005F0C1FCF749096840EA01400921AF
:1009900090FBF1F00190DDE90021881A002801DBCD
:1009A000014600E04142052900DA641C01980090EC
:1009B000022CE4DB01981CBD1CB5EB4805F0A4FC3F
:1009C000EA49096840EA0140092190FBF1F00090F2
:1009D000002417E0E44805F097FCE449096840EA80
:1009E0000140092190FBF1F00190DDE90021881A16
:1009F000002801DB014600E04142052900DA641CC1
:100A000001980090022CE5DB01981CBD1CB5D8486C
:100A100005F07AFCD749096840EA0140092190FBBA
:100A2000F1F00090002417E0D14805F06DFCD149A9
:100A3000096840EA0140092190FBF1F00190DDE9ED
:100A40000021881A002801DB014600E04142052907
:100A500000DA641C01980090022CE5DB01981CBDB3
:100A600001B581B000200090019800EBC00040006B
:100A7000009002E00098401E009000980028F9D1F4
:100A80000CBD01B581B00020009044F25061019886
:100A90004843009002E00098401E00900098002813
:100AA000F9D10CBD1CB501211F2004F061FD4FF6EA
:100AB000FF70009001208DF8040000208DF80600E2
:100AC00001208DF8070003208DF805006946AA482B
:100AD00004F008FB4FF6FF70009001208DF8040031
:100AE00000208DF8060001208DF8070003208DF806
:100AF00005006946A14804F0F5FA4FF6FF70009032
:100B000001208DF8040000208DF8060001208DF8EA
:100B1000070003208DF805006946994804F0E2FAC1
:100B20001CBD1CB501217E2004F022FDC0200090D8
:100B300000208DF8040001208DF8070002208DF8B8
:100B4000050069468F4804F0CDFA06200090002089
:100B50008DF8040001208DF8070002208DF80500B3
:100B60006946854804F0BEFA0420009000208DF804
:100B7000040001208DF8070002208DF80500694669
:100B80007E4804F0AFFA1CBD1FB54FF4E06004F0DE
:100B9000CBF936208DF8000000208DF801008DF88B
:100BA000020001208DF80300684604F0C2F901211B
:100BB000102004F010FD3220ADF8040040F2E730C0
:100BC00002900020ADF80C00ADF8060001A96E48B7
:100BD00005F04DFB01216C4806F012F80122114688
:100BE000694805F0E5FF0021674805F089FB012110
:100BF000654805F0C5FB1FBD1FB54FF4E06004F06C
:100C000093F937208DF8000000208DF801008DF851
:100C1000020001208DF80300684604F08AF90121E2
:100C2000202004F0D8FC3220ADF8040040F2E73078
:100C300002900020ADF80C00ADF8060001A9534861
:100C400005F015FB0121514805F0DAFF012211469C
:100C50004E4805F0ADFF00214C4805F051FB012145
:100C60004A4805F08DFB1FBD00B58BB00121022065
:100C700004F0C2FC01210C2004F07AFC03220621BE
:100C80003E4804F0BAFA032207213C4804F0B5FAC2
:100C900003220821394804F0B0FA03220921374819
:100CA00004F0ABFA4FF47070069002208DF81C002F
:100CB00003208DF81D0000208DF81E0001208DF806
:100CC0001F0006A92D4804F00DFAA420ADF820005D
:100CD00040F6B83009904FF48070ADF8280000203D
:100CE000ADF8220008A92A4805F0C1FA6020ADF845
:100CF00004000120ADF8060000200390ADF81000BC
:100D00000121234805F03CFB0021214805F0F8FAB9
:100D100001A91F4805F040FB01A91D4805F075FB1E
:100D200001A91B4805F0BEFB01A9194805F020FCEC
:100D30000121174805F015FF0BB000BD00B58BB0C1
:100D40000121082004F047FC0121084604F010FCB2
:100D5000022200210B4804F050FA02220121094826
:100D600018E000006800002000080040800000201B
:100D7000000400406C000020000402400008024013
:100D8000000C02400000024000100040001400402F
:100D90000004014004F031FA02221146FE4804F03A
:100DA0002CFA02220321FC4804F027FA0F200690B7
:100DB00002208DF81C0003208DF81D0000208DF806
:100DC0001E0001208DF81F0006A9F34804F08AF9DF
:100DD000BA20ADF8200042F2107009900020ADF862
:100DE0002800ADF8220008A9EC4805F040FA602080
:100DF000ADF804000120ADF8060000200390ADF826
:100E000010000121E54805F0BBFA0021E34805F098
:100E100077FA01A9E14805F0BFFA01A9DF4805F01A
:100E2000F4FA01A9DD4805F03DFB01A9DB4805F016
:100E30009FFB0121D94805F094FE0BB000BD00B521
:100E40008BB00121042004F0C6FB01210D2004F029
:100E50008FFB02220C21D24804F0CFF902220D218F
:100E6000CF4804F0CAF902220E21CD4804F0C5F99A
:100E700002220F21CA4804F0C0F94FF470400690D6
:100E800002208DF81C0003208DF81D0000208DF835
:100E90001E0001208DF81F0006A9C14804F022F9A8
:100EA000A420ADF8200040F6B83009904FF48070CF
:100EB000ADF828000020ADF8220008A9B94805F0D7
:100EC000D6F96020ADF804000120ADF8060000203E
:100ED0000390ADF810000121B24805F051FA00214D
:100EE000B04805F00DFA01A9AE4805F055FA01A980
:100EF000AC4805F08AFA01A9AA4805F0D3FA01A97D
:100F0000A84805F035FB0BB000BD00B589B0012144
:100F1000080404F071FB0121084604F029FB0322B8
:100F200011469D4804F069F9032202219A4804F011
:100F300064F90C20019002208DF8080003208DF840
:100F4000090000208DF80A0001208DF80B0001A98E
:100F5000914804F0C7F80020ADF818004FF6FF7074
:100F600007900020ADF82000ADF81A0006A98E48C1
:100F700005F07DF90420ADF80C000020ADF80E005E
:100F8000C820ADF814000120ADF8100003A9864870
:100F900005F044FD00231A460321844805F0DBFEDA
:100FA0000121824805F02CFE012211467F4805F000
:100FB000FFFD01217C4805F0E3F900217B4805F0A5
:100FC0009FF909B000BD00B589B00121084604F0C1
:100FD00002FB0121022004F0FEFA0121032004F0AB
:100FE000C7FA01220F216C4804F007F901220321FE
:100FF0006F4804F002F9022204216D4804F0FDF864
:10100000022205216A4804F0F8F8382001900220F5
:101010008DF8080003208DF8090000208DF80A00E3
:1010200001208DF80B0001A9614804F05BF84FF432
:101030000040019002208DF8080003208DF809007F
:1010400000208DF80A0001208DF80B0001A95248FC
:1010500004F048F80020ADF818004FF6FF70079034
:101060000020ADF82000ADF81A0006A94FF080402E
:1010700005F0FDF806A94F4805F0F9F80420ADF891
:101080000C000220ADF80E001420ADF81400012071
:10109000ADF8100003A9800705F0C0FC03A945487E
:1010A00005F0BCFC02231A460321580705F053FE45
:1010B00002231A4603213F4805F04DFE012188070F
:1010C00005F09EFD01213B4805F09AFD01221146E5
:1010D000900705F06DFD01221146364805F068FDC8
:1010E0000121880705F04CF90121324805F048F943
:1010F00000214FF0804005F003F900212D4805F054
:10110000FFF84FF4C06003F00FFF1D208DF80000C2
:1011100003208DF8010000208DF8020001208DF8D9
:101120000300684603F005FF1C208DF80000042032
:101130008DF8010000208DF8020001208DF80300D9
:10114000684603F0F6FE09B000BD00B589B0012184
:10115000084604F051FA0121102004F009FA4FF476
:101160002060019002208DF8080003208DF809000E
:1011700000208DF80A0001208DF80B0001A90E480F
:1011800003F0B0FF012209210B4804F036F80122D8
:101190000B21094812E0000000000240000C004052
:1011A000000C0240000800400000014000400140E7
:1011B00000040240000400400010024004F01DF84A
:1011C0000020ADF818004FF6FF7007900020ADF832
:1011D0002000ADF81A0006A9FE4805F048F80420E2
:1011E000ADF80C000020ADF80E000A20ADF8140098
:1011F0000120ADF8100003A9F64805F00FFC00230C
:101200001A460321F34805F0A6FD0121F14805F037
:10121000F7FC01221146EF4805F0CAFC0121ED4818
:1012200005F0EEFC01221146EA4805F0C1FC01215F
:10123000E84805F0A5F80021E64805F061F84FF40C
:10124000C06003F071FE19208DF8000001208DF8B8
:10125000010000208DF8020001208DF8030068468F
:1012600003F067FE09B000BD00B589B0012104207C
:1012700004F0B1F90121082004F07AF94FF440504C
:10128000019002208DF8080003208DF8090000204D
:101290008DF80A0001208DF80B0001A9CE4803F05B
:1012A00021FF0020ADF818004FF6FF7007900020D6
:1012B000ADF82000ADF81A0006A9C84804F0D7FF21
:1012C00002220C21C44803F098FF02220D21C248DB
:1012D00003F093FF0420ADF80C000220ADF80E00DF
:1012E000C820ADF814000120ADF8100003A9BB48D8
:1012F00005F094FB02231A460321B84805F02BFDA4
:101300000121B64805F07CFC01221146B34805F0E6
:101310004FFC0121B14805F033F80021AF4804F03B
:10132000EFFF0020AD49143108800120AB4908804F
:101330004FF4C06003F0F8FD1E208DF8000004207B
:101340008DF8010000208DF8020001208DF80300C7
:10135000684603F0EEFD09B000BD00B589B001217B
:10136000082004F038F90121084604F001F90320AF
:10137000019002208DF8080003208DF8090000205C
:101380008DF80A0001208DF80B0001A9944803F0A4
:10139000A9FE0020ADF818004FF6FF70079000205E
:1013A000ADF82000ADF81A0006A98E4804F05FFFE2
:1013B000022200218A4803F020FF022201218848EE
:1013C00003F01BFF0420ADF80C000220ADF80E0066
:1013D000C820ADF814000120ADF8100003A9814821
:1013E00005F01CFB02231A4603217E4805F0B3FCDE
:1013F00001217C4805F004FC01221146794805F0E2
:10140000D7FB0121774804F0BBFF0021754804F0A9
:1014100077FF00207349143108800120714908804A
:101420004FF4C06003F080FD32208DF800000420EE
:101430008DF8010000208DF8020001208DF80300D6
:10144000684603F076FD09B000BD00B59BB00121F0
:10145000654804F08DF80121080204F0CDF8002061
:101460000290624803906248049000200590082092
:101470000690002007904FF480600890400009908B
:1014800080000A9040110B9040020C9000200D90BB
:1014900001200E9000200F90109002A9554804F0F2
:1014A00079FC0121534804F0AFFC3C20009003205C
:1014B0008DF8040000208DF807006946484803F0C5
:1014C00011FE3C20009003208DF8040000208DF8D0
:1014D00007006946484803F005FE0020119012906D
:1014E0001390149011A804F0BBF94FF08070159080
:1014F00001208DF858008DF85900002017901890A1
:10150000199008208DF8680015A938484C3804F067
:1015100078F900230122022134484C3804F0F7F90D
:1015200000230222032131484C3804F0F0F9002353
:10153000032204212D484C3804F0E9F90023042249
:1015400005212A484C3804F0E2F9002305220C2139
:1015500026484C3804F0DBF9002306220D212348ED
:101560004C3804F0D4F9002307220E211F484C38D0
:1015700004F0CDF9002308220F211C484C3804F058
:10158000C6F9012119484C3804F06CFA01211748BA
:101590004C3804F05CFA012114484C3804F077F917
:1015A00012484C3804F00FFA1BB000BD08B54FF4D8
:1015B000E06003F0B9FC25208DF8000000208DF8D4
:1015C00001008DF8020001208DF80300684603F049
:1015D000B0FC08BD00000140000C024000080040C3
:1015E00000000240000C0040050040004C2001407B
:1015F000E0050020106402400008024010B596B0DB
:1016000004460121102003F0F7FF0121084603F0F2
:10161000AFFF0121880503F0ABFF4FF4C0600090DD
:1016200002208DF8040000208DF806008DF80700D8
:1016300002208DF805006946FE4803F053FD07229D
:101640000921FC4803F0D9FD07220A21F94803F0DB
:10165000D4FD02940020ADF80C00ADF80E00ADF8FA
:101660001000ADF814000C20ADF8120002A9F248E9
:1016700005F0F0FB0121F04805F074FC4FF4A06088
:1016800003F052FC3A208DF8180000208DF8190064
:101690008DF81A0001208DF81B0006A803F049FC04
:1016A000E64804F0D5FA4FF00060079000200A9059
:1016B000E34809900A200B90DF48001D08900020A5
:1016C0000C904FF480600D9000200E900F904FF41E
:1016D000807010904002119004201290032013900B
:1016E00000201490159007A9D44804F053FB012260
:1016F0004021D14805F0E3FC01221021CF4804F03D
:1017000010FC0121CD4804F07FFB16B010BD10B5D0
:1017100096B004460121480503F02AFF0121480440
:1017200003F059FF0121082003F022FF6020009000
:1017300002208DF8040000208DF806008DF80700C7
:1017400002208DF805006946BE4803F0CBFC072255
:101750000521BC4803F051FD07220621B94803F0DA
:101760004CFD02940020ADF80C00ADF80E00ADF871
:101770001000ADF814000C20ADF8120002A9B24818
:1017800005F068FB0121B04805F0ECFB4FF4A060C8
:1017900003F0CAFB11208DF8180000208DF8190005
:1017A0008DF81A0001208DF81B0006A803F0C1FB7C
:1017B000A64804F04DFA4FF00060079040200A90D0
:1017C000A348099046200B909F48001D08900020D8
:1017D0000C904FF480600D9000200E900F904FF40D
:1017E00080701090400211900420129003201390FA
:1017F00000201490159007A9944804F0CBFA012218
:101800008021914805F05BFC012280218E4805F083
:1018100056FC012210218D4804F083FB01218B48E6
:1018200004F0F2FA16B010BD10B596B004460121CE
:10183000880403F0D0FE0121082003F099FE012165
:10184000480503F095FE4FF44070009002208DF89B
:10185000040000208DF806008DF8070002208DF8A6
:1018600005006946774803F03DFC072208217548CA
:1018700003F0C3FC07220921724803F0BEFC029466
:101880000020ADF80C00ADF80E00ADF81000ADF87A
:1018900014000C20ADF8120002A96E4805F0DAFA27
:1018A00001216C4805F05EFB4FF4A06003F03CFBA7
:1018B0000C208DF8180000208DF819008DF81A0002
:1018C00001208DF81B0006A803F033FB5F48783831
:1018D00004F0BEF94FF00060079000200A905E48C7
:1018E00009900A200B905B48001D089000200C9086
:1018F0004FF480600D9000200E900F904FF4807098
:1019000010904002119004201290032013900020A8
:101910001490159007A94D48783804F03BFA01223D
:1019200040214C4805F0CBFB01224021494805F0FD
:10193000C6FB012210214548783804F0F2FA012153
:101940004248783804F060FA16B010BD10B596B071
:1019500004460121C80403F03EFE0121084603F0BD
:1019600007FE0121480503F003FE0320009002203A
:101970008DF8040000208DF806008DF80700022085
:101980008DF8050069462B4803F0ACFB08220021C6
:10199000284803F032FC08220121264803F02DFCE0
:1019A00002940020ADF80C00ADF80E00ADF8100068
:1019B000ADF814000C20ADF8120002A9274805F07C
:1019C00049FA0121254805F0CDFA4FF4A06003F053
:1019D000ABFA0D208DF8180000208DF819008DF855
:1019E0001A0001208DF81B0006A803F0A2FA174880
:1019F000603804F02DF94FF00060079000200A9045
:101A00001748099008200B901448001D08900020EA
:101A10000C904FF480600D9000200E900F904FF4CA
:101A200080701090400211900420129003201390B7
:101A3000002017E000000240001001404064024016
:101A4000F0050020000C024000440040A06002406D
:101A500004000020004800402C060020004C0040FC
:101A6000FF0500201490159007A9FB4804F092F997
:101A700001224021F94805F022FB01224021F748CC
:101A800005F01DFB01221021F34804F04AFA012160
:101A9000F14804F0B9F916B010BD10B596B004467F
:101AA0000121480503F064FD0121080503F093FDC1
:101AB00001210C2003F05CFD0420009002208DF831
:101AC000040000208DF806008DF8070002208DF834
:101AD00005006946E24803F005FB4FF48050009092
:101AE00002208DF8040000208DF806008DF8070014
:101AF00002208DF805006946DA4803F0F3FA08225F
:101B00000221D74803F079FB08220C21D54803F0C5
:101B100074FB4FF4A06003F007FA2F208DF8180033
:101B200005208DF819008DF81A0001208DF81B0092
:101B300006A803F0FEF902940020ADF80C00ADF801
:101B40000E00ADF81000ADF814000C20ADF8120036
:101B500002A9C54805F07EF90121C34805F002FA43
:101B6000BD48783004F074F84FF0006007904020D2
:101B70000A90BE48099096200B90BB48001D089023
:101B800000200C904FF480600D9000200E900F907C
:101B900010904FF400301190002012900320139009
:101BA00000201490159007A9AB48783004F0F2F8A3
:101BB00001228021AC4805F082FA01221021A648BA
:101BC000783004F0AEF90121A348783004F01CF914
:101BD00016B010BD10B596B004460121202003F0C8
:101BE0000BFD0121042003F0C3FC0121880503F053
:101BF000BFFCC020009002208DF8040000208DF86A
:101C000006008DF8070003208DF805006946954809
:101C100003F068FA08220621924803F0EEFA08223F
:101C20000721904803F0E9FA02940020ADF80C0077
:101C3000ADF80E00ADF81000ADF814000C20ADF8B2
:101C4000120002A98A4805F005F90121884805F02B
:101C500089F94FF4A06003F067F939208DF8180076
:101C600003208DF8190001208DF81A008DF81B0053
:101C700006A803F05EF97F4803F0EAFF4FF020600A
:101C8000079000200A907C48099010200B9078481B
:101C9000001D089000200C904FF480600D900020F3
:101CA0000E900F904FF4807010904002119004201D
:101CB00012900320139000201490159007A96D48EE
:101CC00004F068F801224021694805F0F8F9012282
:101CD0001021684804F025F90121664804F094F8C1
:101CE00016B010BD0FB50020039002900190009037
:101CF00061480078022849D15F48407802905E48E8
:101D0000C0785D49897840EA012001905A484079BD
:101D10005949097940EA012000B20090BDF800005D
:101D200000F4004018B1BDF8000000B20090524924
:101D30000978514A527811444F4A927811444E4AD8
:101D4000D27811444C4A127911444B4A527988187E
:101D5000C11700EB11610912A0EB0121C9B2039177
:101D6000454880799DF80C1088420FD14248C079CF
:101D700003280BD19DF8080040490870BDF8040005
:101D80003F490880BDF900003E4908800FBD00B5FD
:101D900085B00121082003F0EBFB0121880303F04B
:101DA0002BFC00208DF8100001208DF813000C2072
:101DB000039003A92A4803F095F90221032005F0B6
:101DC00017FA0420009000208DF8040010208DF8F0
:101DD000050001208DF80600684604F01BF9082074
:101DE0008DF8080000208DF809008DF80A00012008
:101DF0008DF80B0002A803F09CF805B000BD70B58B
:101E000004460D46012C0BD129461F4805F0D5F894
:101E100000BF40211C4805F080F90028F9D044E0BB
:101E2000032C0BD12946194805F0C7F800BF402103
:101E3000164805F072F90028F9D036E0042C27D1B5
:101E40002946064805F0B9F800BF4021034805F0CF
:101E500064F90028F9D028E040600240004C0040BE
:101E6000000C024000080240005000404A050020DB
:101E700000140140286402403B0600205701002066
:101E80005A01002058010020001001400048004085
:101E9000052C0AD12946FE4805F08FF800BF4021E5
:101EA000FB4805F03AF90028F9D070BD0020F94947
:101EB0004862F9490860F9490860F94908607047C3
:101EC0000020F4494862F44908604FF080414862BC
:101ED000F4490860F4490860F4490860EF49086073
:101EE000EF490860F2490860F24908607047002035
:101EF0004FF080414862EB49086070470020EA4992
:101F00000860EA490860704710B50020EA49087087
:101F1000002407E061210120FFF771FF3220FEF766
:101F2000B0FD641C022CF5D30120E34908707A202F
:101F3000E249087010BD10B50020E1490870002486
:101F400007E061210320FFF75AFF3220FEF799FDD9
:101F5000641C022CF5D30120D94908707A20D94994
:101F6000087010BD2DE9F14FAEB0D7A02D90002024
:101F70002C908DF888008DF860002E98122831D2B0
:101F8000DFE800F009313A41484F565F68717A81C5
:101F9000888F969DA5FE0221D44803F005F988B1EB
:101FA00000224FF40041D24803F01CF94FF40041E5
:101FB000CF4803F006F9044600222146CDA0FEF7E3
:101FC0003FFB0FE00122D103C94803F00BF94FF4A6
:101FD0000041C74803F0F5F8044600222146CDA091
:101FE000FEF72EFB4EE20122D248B0F9000041423A
:101FF000D1A0FEF725FB45E20222D1480168D1A01D
:10200000FEF71EFB3EE20322D1480168D1A0FEF795
:1020100017FB37E20422D2480168D2A0FEF710FB7A
:1020200030E20522D3480168D3A0FEF709FB29E27C
:10203000FEF747FC044606222146D2A0FEF700FB2D
:1020400020E2FEF78DFC044607222146D0A0FEF7D1
:10205000F7FA17E2FEF7B0FC044608222146CFA0AB
:10206000FEF7EEFA0EE2FEF7D1FC04460922214605
:10207000CDA0FEF7E5FA05E2CE4801790A22CEA00E
:10208000FEF7DEFAFEE10B22CD480178CDA0FEF787
:10209000D7FAF7E10C22CE480188CEA0FEF7D0FA9D
:1020A000F0E10D22CE480168CEA0FEF7C9FAE9E1C1
:1020B0000E22D0480168D0A0FEF7C2FAE2E10F225A
:1020C000D148B0F90010D1A0FEF7BAFADAE1012147
:1020D000D14803F069F84FF400511790844803F099
:1020E00063F804460221CC4803F05EF805464FF43D
:1020F00080417F4803F058F806460421C64803F0A3
:1021000053F84FF400411690C34803F04DF80746CA
:102110000821C14803F048F880464FF48041BE488A
:1021200003F042F881461021BB4803F03DF84FF41C
:1021300000511590B84803F037F882460821B74897
:1021400003F032F84FF480511490B34803F02CF8A8
:1021500010211390B14803F027F84FF480611290DA
:10216000AD4803F021F883468021AB4803F01CF80A
:102170004FF480711190A84803F016F8109000E019
:1021800021E01798CDE90B65CDE90D401698CDE912
:102190000798CDE90970DDE914211398CDE9042AE7
:1021A00006910390DDE91110CDE9001B02909CA27D
:1021B000282122A8109B07F055FA102222A9A1A0DD
:1021C000FEF791FA5EE18021484802F0FAFF0446EA
:1021D0000121464802F0F5FF05464021434802F040
:1021E000F0FF06464FF400418C4802F0EAFF074634
:1021F0004FF48051944802F0E4FF80464FF4806130
:102200003A4802F0DEFF81464FF400618E4802F04A
:10221000D8FF4FF400611790344802F0D2FF824695
:102220004FF480617D4802F0CCFF83464FF480512B
:102230002E4802F0C6FF4FF400611690774802F076
:10224000C0FF4FF400511590284802F0BAFF4FF438
:1022500080411490714802F0B4FF4FF48041139014
:10226000224802F0AEFF4FF480711290764802F0DF
:10227000A8FF4FF4004111901C4802F0A2FFCDE9E5
:102280000B76CDE90D5410901798CDE907A0DDE04D
:10229000005000400000014064000020240800407D
:1022A0008000002068000020240400406C00002012
:1022B000240C0040700000208900002088000020CD
:1022C0008B0000208A000020313131313131313131
:1022D00031313131313131313131313131313031EF
:1022E0003131313131313131000000000004024020
:1022F00000080240524F424F5420322044414E4782
:1023000020434841592053414E2058414E483A20DD
:1023100020200000524F424F5420322044414E476B
:1023200020434841592053414E20444F3A20202019
:102330000000000084000020494D553A00000000D4
:10234000A0000020474F432042414E3A00000000C9
:10235000F802002066696E616C5F43414D3A0000EF
:10236000F00200204C75632042616E5F43414D3A9C
:10237000200000009800002047545F4C617A6520DF
:1023800000000000454E434F4445525F464C20003C
:10239000454E434F4445525F46522000454E434F01
:1023A0004445525F524C2000454E434F4445525FD6
:1023B000525220002C06002042544E3A00000000E9
:1023C000570100206F6666736574203A00000000B4
:1023D0005A01002064697374616E63653A000000FD
:1023E000FC02002046696E616C5F4C617A65723A4E
:1023F00000000000F40200204C75632042616E2052
:102400004C617A65720000005801002064697265B1
:102410006374696F6E3A000000100240000C0240C5
:102420002564256425642564256425642564256464
:102430002564256425642564256425642564256454
:1024400000000000493A000000000240CDE9099870
:10245000DDE914121698CDE9050BCDE90312DDE98B
:1024600011121398CDE900120290AFF24C0228210C
:1024700022A8109B07F0F6F8112222A9FEA0FEF771
:1024800032F900BF00BF2FB0BDE8F08F10B50121B9
:10249000FB4803F0B9FC10BD01B5FA48006800998B
:1024A000884203DD0020F749086004E0F548006831
:1024B000401CF4490860F3480068FFF753FD08BD6D
:1024C00010B5FEF779FAF0490860FEF79FFAEF4978
:1024D0000860FEF7F6F9EE490860FEF741FAED49AB
:1024E000086010BD2DE9F0412DED088B06460F4622
:1024F000304606F062FE41EC190B9FEDE71BB0EE93
:10250000490AF0EE690A07F0D5FAB0EE408AF0EE1B
:10251000608A51EC180B06F061FE0446002C02DBC9
:10252000A4F5E16401E004F5E164384606F045FEF7
:1025300041EC1B0B9FEDD81BB0EE4B0AF0EE6B0A83
:1025400007F0B8FAB0EE409AF0EE609A304606F026
:1025500034FE41EC1B0B9FEDD01BB0EE4B0AF0EEAE
:102560006B0A07F0A7FAB0EE40AAF0EE60AA53ECAF
:10257000192B51EC1A0B06F039FD41EC180B06F043
:102580002DFE05462846211E01DB0A4600E04A4290
:10259000002801DB034600E043429A4205DA254663
:1025A0004FF0FF30BE49086003E035460120BC49CA
:1025B00008602846BDEC088BBDE8F0810146FA2989
:1025C00001DDFA2102E0032900DA0221C8B27047D6
:1025D00030B505460C4625B9B2480078B249C877EF
:1025E00016E0B24890ED000AB5EEC00AF1EE10FA1E
:1025F00007DD2846FFF7E2FFAB49C8770020887760
:1026000006E06842FFF7DAFFA749C877012088771C
:1026100024B9A4480078A449C87516E0A44890EDF0
:10262000000AB5EEC00AF1EE10FA07DD2046FFF70A
:10263000C5FF9D49C8750020887506E06042FFF718
:10264000BDFF9949C8750120887522B99548007861
:102650009549C87116E0974890ED000AB5EEC00A9A
:10266000F1EE10FA07DD1046FFF7A8FF8E49C8719A
:102670000120887106E05042FFF7A0FF8A49C87127
:102680000020887123B9874800788749C87316E00D
:10269000894890ED000AB5EEC00AF1EE10FA07DDA8
:1026A0001846FFF78BFF8049C8730120887306E046
:1026B0005842FFF783FF7C49C8730020887330BD00
:1026C00010B57E4C20607E4C21607E4C22607E4C9A
:1026D000236010BD744AD077D075D071D073704725
:1026E0007148C07F03280DDA6F48C07D032809DADE
:1026F0006D48C079032805DA6B48C07B032801DAEE
:10270000012070470020FCE70120704908607047F5
:102710006F48006847F23051884201D0012070476D
:102720000020FCE710B5FFF7EFFB10BD6948B0F9DA
:10273000000040427047B5EEC00AF1EE10FA09D22F
:102740006548D0ED000A70EE600AFDEEE00A10EE7A
:10275000900A70476048D0ED000A70EE200AFDEE46
:10276000E00A10EE900AF4E710B52DED0A8B04464E
:1027700024B99FED5A0ABDEC0A8B10BD002C25DA56
:102780005748006806F019FD41EC190B204606F089
:1027900014FD41EC1C0B9FED530B53EC102B06F07A
:1027A0002BFC41EC1B0B9FED510B53EC102B06F057
:1027B0001DFC41EC1A0B53EC192B06F08FFC41EC7D
:1027C000180B06F03DFD00EE100AD4E744480068FF
:1027D00006F0F3FC41EC190B204606F0EEFC41EC50
:1027E0001C0B9FED400B53EC102B06F005FC41EC4D
:1027F0001B0B9FED3E0B53EC102B06F056FB41ECF0
:102800001A0B53EC192B06F069FC41EC180B06F07F
:1028100017FD00EE100AAEE7F0EE400AF5EEC00A32
:10282000F1EE10FA02DBB0EE600A7047B1EE600A1A
:10283000FBE70146002901DB084670474842FCE7F8
:1028400001462C48D0ED000AF1EE600A2A48D0ED8E
:10285000001A80EEA11A00EE901AF8EEE01A254850
:10286000D0ED000A41EE210AB0EE600AFDEEC00A8A
:1028700010EE900A704700004F55543A00000000D7
:10288000A06002407C0000203403002038030020B8
:102890003C03002040030020000000000020AC406A
:1028A0004C020020A0010020040000200C020020A7
:1028B0001002002014020020180200203402002020
:1028C000380200202C020020300200208802002064
:1028D000CC010020840000206001002000000000E6
:1028E000B8010020EC51B81E85EBB13F9A99999937
:1028F0009999B93F980100209C010020B0EE402A30
:10290000DFEDFE2AB0EE620AB5EEC02AF1EE10FA53
:1029100003D2F1EE422AB0EE622AF5EEC00AF1EEE1
:1029200010FA03D2F1EE602AF0EE620AB5EEC01A98
:10293000F1EE10FA03D2F1EE412AB0EE621AF5EE92
:10294000C01AF1EE10FA03D2F1EE612AF0EE621A2B
:10295000B4EEC02AF1EE10FA01DDB0EE420AF4EE58
:10296000C00AF1EE10FA01DDB0EE600AB4EEC01A52
:10297000F1EE10FA01DDB0EE410AF4EEC01AF1EE0C
:1029800010FA01DDB0EE610A7047DD48006870475B
:10299000DC480068704710B52DED048BF0EE408ADE
:1029A000B0EE608AD848D0ED000AD84890ED000A11
:1029B00007F02AFFB0EE409A08F05DFBBDEEC00ABA
:1029C00010EE104AD24880ED008AD24880ED008A8D
:1029D000B0EE680A08F04AFAF0EE000A20EE200A8B
:1029E000CD4880ED000AB0EE680A06F0BBFFF0EEBD
:1029F000000A20EE200AC94880ED000A90ED000A86
:102A0000F2EE040A20EE200AC54880ED000AB0EE7E
:102A1000680A08F02BFAB0EE409AFFF78CFE00EE41
:102A2000100AB8EEC00ABF4880ED000ABA4890ED1F
:102A3000000AB748D0ED000A30EE600ABA4880EDCF
:102A4000000AB54890ED000AB148D0ED000A30EE1A
:102A5000200AB64880ED000AB04890ED000AAD4863
:102A6000D0ED000A30EE600AB14880ED000AAB48B4
:102A700090ED000AA748D0ED000A30EE200AAD48DC
:102A800080ED000AAA48D0ED000AA84890ED000A9F
:102A900006F040FEDFEDA80A20EE200AA748D0EDA0
:102AA000000A80EE201AA64880ED001AA5480168A9
:102AB000A34890ED000ABDEEC00A10EE100AFFF721
:102AC00011FD00EE100AB8EEC00A9D4880ED000A24
:102AD0009D4890ED000AB8EEC00A9C4880ED000ABF
:102AE0009248D0ED000A60EEA00A914890ED001ADD
:102AF000D0ED001A41EE210AB0EE600A08F0BBFAF0
:102B00009148D0ED000AF8EEE00A20EE200A904845
:102B100080ED000A8748D0ED000A844890ED000A55
:102B200006F0F8FDDFED840A20EE200A8348D0EDA0
:102B3000000A80EE201A874880ED001A8648016856
:102B4000844890ED000ABDEEC00A10EE100AFFF7AF
:102B5000C9FC00EE100AB8EEC00A7E4880ED000AFB
:102B6000794890ED000AB8EEC00A7C4880ED000A72
:102B70006E48D0ED000A60EEA00A6E4890ED001A93
:102B8000D0ED001A41EE210AB0EE600A08F073FAA7
:102B90006D48D0ED000AF8EEE00A20EE200A7048F9
:102BA00080ED000A6348D0ED000A5F4890ED000A0E
:102BB00006F0B0FDDFED600A20EE200A5F48D0EDA0
:102BC000000A80EE201A674880ED001A6648016806
:102BD000644890ED000ABDEEC00A10EE100AFFF73F
:102BE00081FC00EE100AB8EEC00A5E4880ED000AD3
:102BF000554890ED000AB8EEC00A5C4880ED000A26
:102C00004948D0ED000A60EEA00A4A4890ED001A4B
:102C1000D0ED001A41EE210AB0EE600A08F02BFA5E
:102C20004948D0ED000AF8EEE00A20EE200A5048AC
:102C300080ED000A3E48D0ED000A3B4890ED000AC6
:102C400006F068FDDFED3C0A20EE200A3B48D0ED9F
:102C5000000A80EE201A474880ED001A46480168B5
:102C6000444890ED000ABDEEC00A10EE100AFFF7CE
:102C700039FC00EE100AB8EEC00A3E4880ED000AAA
:102C8000314890ED000AB8EEC00A3C4880ED000AD9
:102C90002548D0ED000A60EEA00A254890ED001A04
:102CA000D0ED001A41EE210AB0EE600A08F0E3F917
:102CB0002548D0ED000AF8EEE00A20EE200A304860
:102CC00080ED000ABDEC048B10BD10B52DED028B1C
:102CD000B0EE408A2B48006847F23051884268D1F4
:102CE0009FED290A28EE000A284880ED000AD0ED61
:102CF000000A9FED270AFFF74EFE4BE06F12833A62
:102D0000B8010020E80100207402002078020020B1
:102D1000680200206C0200205002002054020020B3
:102D20007C02002080020020580200205C0200206B
:102D300060020020640200200000E144AC01002099
:102D400020020020400300204C020020100200203E
:102D5000000200201C0200203C0300200C02002086
:102D6000FC01002024020020340300201402002073
:102D7000040200202802002038030020180200204E
:102D800008020020CC0100200000E1437002002076
:102D9000000000001FED020AFE4880ED000AFE4818
:102DA00080ED000AFD4880ED000AFD4880ED000A34
:102DB00021E0FC480068FC490968401AFB490968A1
:102DC000081A00EE100AB8EEC00AF948D0ED000A61
:102DD00020EE200AF748D0ED000AC0EE208AF6481F
:102DE00090ED000AF54880ED000AD0ED000AB0EE43
:102DF000680AFFF7D0FDB5EEC08AF1EE10FA75D083
:102E0000EF480068052870D2DFE800F00371879D65
:102E1000B300EC4890ED000AFAEE040AB4EEE00AC2
:102E2000F1EE10FA08D390ED000AF2EE040AB4EEC7
:102E3000E00AF1EE10FA1CDDD94890ED000A30EE00
:102E4000080A80ED000AD54890ED000A30EE480AE5
:102E500080ED000AD04890ED000A30EE080A80EDBF
:102E6000000ACC4890ED000A30EE480A80ED000AD6
:102E70003BE0D54890ED000AD448D0ED000A60EE62
:102E8000200AC74890ED000A00EE880A80ED000A8B
:102E9000CD4890ED000ACE48D0ED000A60EE200A41
:102EA000BE4890ED000A00EE880A80ED000AC64890
:102EB00090ED000AC748D0ED000A60EE200AB6483F
:102EC00090ED000A00EEC80A80ED000ABE4890EDC1
:102ED000000AC148D0ED000A60EE200AAD4890ED2E
:102EE000000A00EEC80A80ED000A58E058E0AB483E
:102EF00090ED000A30EE480A80ED000AA64890EDF9
:102F0000000A30EE080A80ED000AA24890ED000A9F
:102F100030EE480A80ED000A41E0A14890ED000A39
:102F200030EE080A80ED000A9B4890ED000A30EE72
:102F3000080A80ED000A974890ED000A30EE480A32
:102F400080ED000A2BE0964890ED000A30EE080A6A
:102F500080ED000A914890ED000A30EE480A80EDBD
:102F6000000A8C4890ED000A30EE480A80ED000A15
:102F700015E08B4890ED000A30EE080A80ED000A5B
:102F8000864890ED000A30EE480A80ED000A82483B
:102F900090ED000A30EE080A80ED000A00BF00BF85
:102FA0007C48D0ED001A7C4890ED001A7B48D0EDAB
:102FB000000A7B4890ED000AFFF7A0FC8748D0ED9F
:102FC000000AF8EEE00A80EE801ABDEEC10A8448DD
:102FD00080ED000A8348006881490968884203DD62
:102FE0007F4800687F49086001207F490860BDEC88
:102FF000028B10BD10B5044600207C4908607C4857
:103000000460FCB90020774908601FED9F0A7948E9
:1030100080ED000A47F23050644908607649086044
:103020001FEDA50A644880ED000A0020644908608D
:103030007249086072490860724908601FEDAC0A65
:10304000FFF743FE10BD10B55B4890ED000AB5EEEA
:10305000C00AF1EE10FA05D15948006810B9674866
:10306000006890B11FEDB60A534880ED000A0020B9
:1030700053490860614908604A4800684A49086045
:103080004D4890ED000AFFF720FE10BD5E48C0EDF0
:10309000000A5E4880ED000A704770B52DED028B86
:1030A00005460C46B0EE408A40480068A8420BD165
:1030B0004E480068A04207D14E4890ED000AB4EE99
:1030C000480AF1EE10FA18D04848046045480068F4
:1030D00010B9052043490860324800683249086049
:1030E000444880ED008A3148056000204849086066
:1030F000314890ED000AFFF7E8FDBDEC028B70BD92
:1031000070B52DED028B0446B0EE408A0D463B486B
:103110000068A0420BD1284890ED000AB4EE480A9E
:10312000F1EE10FA03D126480068A84279D01F4872
:10313000006847F23051884222D132202B49086082
:1031400007202849086047F23050844218DA0120ED
:103150002B490860B5EEC08AF1EE10FA03DD114884
:103160000068A04208DCB5EEC08AF1EE10FA07D282
:103170000C480068A04203DAB1EE480AB0EE408A7B
:103180001E4804600E4805600B4880ED008A002050
:103190001F4940E008020020040200200002002035
:1031A000FC010020F0010020D8010020CC0100200B
:1031B000A801002078010020E0010020700200201A
:1031C000B40100207C020020500200200C020020EC
:1031D0001002002014020020180200205C010020D0
:1031E000C0010020B8010020B0010020BC01002077
:1031F000C4010020E4010020D0010020D4010020FF
:10320000E801002088020020980100209C01002095
:10321000C801002005E00860FE4890ED000AFFF7B5
:1032200054FDBDEC028B70BD10B52DED028BB0EEE0
:10323000408A04462146B0EE480A47F23050FFF774
:103240005FFFBDEC028B10BD70B504460D469FEDCF
:10325000F20A29462046FFF720FF70BD10B52DED7C
:10326000088BF0EE408A0446B0EE608AB0EE419AD8
:10327000EA4890ED000AB8EEC00AB4EE680AF1EE32
:1032800010FA0DD1E6480068A04209D1E54890ED5A
:10329000000AB8EEC00AB4EE480AF1EE10FA5ED0A9
:1032A000BDEEE80ADD4880ED000ADF4991ED000A35
:1032B000B8EEC00A38EEC00ABDEEC00A10EE100A21
:1032C0009FEDD50A2146FFF7E8FED748D0ED000A6A
:1032D000F8EEE00A78EE600AB0EE600AFFF79CFABA
:1032E000DFEDD20AB4EEE00AF1EE10FA14DDCE48BA
:1032F00090ED000AB8EEC00AB4EEC08AF1EE10FA02
:1033000002DDB0EE490A01E0B1EE490A10EE101AF2
:10331000084605F082FF13E0C34890ED000AB8EEBE
:10332000C00A38EE400A10EE101A084605F075FF84
:1033300041EC1B0B9FEDBE0B53EC102B05F05CFE1C
:1033400041EC1A0B05F07CFF09EE900A0021B0EE6B
:10335000690AFDEEC80A10EE900AFFF7D1FEBDEC37
:10336000088B10BD10B5B448006801283DDDAD499B
:103370000968AD4A1268881AFFF75BFA0A280CDA66
:10338000AD4801680068401CAB4A1060B1F5FA7F97
:103390002BDD0020FFF72EFE10BDA7480068FA289D
:1033A00008DD05209E490860A4490860FB20A24969
:1033B000086004E005209A490860A04908609A481E
:1033C000006898490968884205DDBFEE000A914807
:1033D00080ED000A04E0B7EE000A8E4880ED000A96
:1033E0008C4890ED000AFFF770FC00BFD4E710B5E1
:1033F0002DED028B924890ED000AB5EEC00AF1EE79
:1034000010FA08D18D48006828B18648006847F254
:103410003051884202DBBDEC028B10BD7D4890ED3F
:10342000000AB5EEC00AF1EE10FA7DD085480068BA
:1034300047F23051884278D1764890ED000AB5EED7
:10344000C00AF1EE10FA08DD764800687E49096886
:10345000401A75490968884210DB6E4890ED000AF1
:10346000B5EEC00AF1EE10FA7DD26E4800687649DA
:10347000096808446C490968884274DD6E48006830
:1034800005285BDA67490968674A1268881AFFF7F6
:10349000D0F9322816DA634800686C4908600020C9
:1034A000664908605E4908609FED5B0A594880EDF7
:1034B000000A022060490860564890ED000AFFF7B4
:1034C00004FCA8E75748006857490968884236DD78
:1034D0005A4890ED000AB8EEC00A4E48D0ED000AF6
:1034E00060EE200A584890ED000AB8EEC00AC0EE1F
:1034F000801AB0EE611AB0EE410AFFF78DF9494922
:103500000968494A1268881AFFF793F900EE900A91
:10351000B8EEE01AF1EE040A40EE010A474890EDD9
:10352000000AB8EEC00A01E0C9E044E080EE801A6B
:10353000B0EE418AB0EE480AFFF7C7FBBEE03F4855
:1035400090ED000AB8EEC00A3248D0ED000A60EEF5
:10355000200A3D4890ED000AB8EEC00AC0EE801A7D
:10356000B0EE611A00E020E0B0EE410AFFF754F936
:103570002C4909682C4A1268881AFFF75AF900EE9C
:10358000900AB8EEE01AF1EE040A50EE410A2B4818
:1035900090ED000AB8EEC00A80EE801AB0EE418AC3
:1035A000B0EE480AFFF791FB88E01A4890ED000A58
:1035B000FFF78BFB82E0174890ED000AB5EEC00ADA
:1035C000F1EE10FA1FDD174890ED000AB8EEC00AC0
:1035D0001A48D0ED000AF8EEE00A0E4890ED001A05
:1035E00000EEC10A1A48D0ED000AF8EEE00A70EECB
:1035F000600A0D4890ED000AB8EEC00AF4EEC00A69
:10360000F1EE10FA49D3034890ED000AB5EEC00A76
:1036100020E00000E001002000000000D0010020B8
:10362000BC010020D4010020F0010020000048422D
:10363000FCA9F1D24D62403FE8010020B801002012
:10364000E4010020CC01002094010020EC010020C6
:1036500090010020F1EE10FA2BD2F74890ED000A0D
:10366000B8EEC00AF548D0ED000AF8EEE00AF448DA
:1036700090ED001A00EEC10AF248D0ED000AF8EE13
:10368000E00A70EE200AF04890ED000AB8EEC00A99
:10369000F4EEC00AF1EE10FA0BDDE7490968EA4AD8
:1036A0001268881AFFF760F8B0EE408AFFF70DFB4A
:1036B00004E0E34890ED000AFFF707FBABE6E349BF
:1036C0000968E14A1268881AFFF74EF8B0EE408A9E
:1036D000FFF7FBFA00BF9EE600B5DD480068022850
:1036E00015DA1FED330ADB4880ED000A1FED360ABC
:1036F000D34880ED000A0020D749086047F23050D7
:10370000D6490860D64908600020CB490860D548F2
:103710000068401CD3490860D3490968884204DA2C
:10372000D2480068FEF7D6FF0EE0CF480068CD49CA
:103730000860CF48006820B1CC480068FEF7CAFF97
:1037400002E00020FEF7C6FF00BDC64A1268521C08
:10375000C44B1A60824207DDB84A12680A44B74B6C
:103760001A600022BF4B1A6070472DE9F041FEF746
:10377000DDFFB5490860FFF7F5FDBE480068002889
:1037800021DDAE480068BB49096888422AD0AB48B1
:103790000068B849096888420EDAA8480068B64946
:1037A000096888421EDAA5480068FFF749F8044610
:1037B0000121FFF7CAFF15E04FF0FF31AF48006865
:1037C000FFF7C3FF0EE09D480068002806DD4FF0BC
:1037D000FF31AB480068FFF7B8FF03E0FFF77CFF5D
:1037E000BDE8F081A748006897490968884205D07C
:1037F000FFF7FDFD94480068A2490860A2480068F0
:10380000F0B38E48D0ED000AF8EEE00A9F4890ED44
:10381000001A60EE810AB0EE600AFEF78CFF0446E3
:103820008648D0ED000AF8EEE00A994890ED001ABB
:1038300060EE810AB0EE600AFEF77DFF05467F4824
:10384000D0ED000AF8EEE00A924890ED001A60EE22
:10385000810AB0EE600AFEF76EFF06467748D0EDAB
:10386000000AF8EEE00A8C4890ED001A60EE810A3A
:10387000B0EE600AFEF75FFF074623462A4600E0E7
:1038800020E03146FEF7A4FE844890ED000ABDEE2C
:10389000C00A10EE103A824890ED000ABDEEC00A50
:1038A00010EE102A7F4890ED000ABDEEC00A10EE1F
:1038B000101A7D4890ED000ABDEEC00A10EE100A05
:1038C000FEF7FEFE00BF8BE710B57848807988B31D
:1038D0007648007800F0800060B37548007875493C
:1038E00081F82B0081F8270081F82F00012081F852
:1038F0002E00002081F8260081F82A0043F6982047
:1039000004F052FEFA206B4981F8330044F620603F
:1039100004F04AFE0020674981F82B0081F8270057
:1039200081F82F0081F8330000224FF400516248E3
:1039300001F058FC5D48807988BB5C48007800F055
:10394000800060B35D4800785A4981F82B0081F807
:10395000270081F82F00012081F82E00002081F837
:10396000260081F82A0043F6982004F01DFEFA2074
:10397000504981F8330044F6206004F015FE002021
:103980004C4981F82B0081F8270081F82F0081F83D
:10399000330000224FF40051474801F023FC434814
:1039A000407800F08000D8B12820424981F82B00EF
:1039B00081F8270081F82F00002081F82E000120D7
:1039C00081F8260081F82A0044F6206004F0ECFD1E
:1039D0000020384981F82F0081F8270081F82B005A
:1039E00010BD3248407800F0400020B1FA20314943
:1039F00081F8330003E000202E4981F8330070473E
:103A00002F49304A126841F822002E490968491CA2
:103A1000142291FBF2F302FB13112A4A1160704742
:103A2000284800681330142290FBF2F302FB1301C4
:103A3000234850F821007047D4010020B80100202D
:103A4000E001002090010020F0010020D8010020BA
:103A5000E8010020E4010020B4010020CC01002096
:103A6000D0010020C8010020A4010020A0010020F6
:103A700088020020BC010020C0010020F8010020C5
:103A8000C4010020F4010020B00100200802002041
:103A90000402002000020020FC0100202802002077
:103AA00024020020200200201C0200202C060020FE
:103AB000F80200200400002000040240FC02002064
:103AC000480600200803002010B52DED0C8B04469D
:103AD000A4F16400002801DB014600E0414200EE51
:103AE000101AB8EEC08ADFEDFE8AB7EE000AB4EE17
:103AF000C08AF1EE10FA04D89FEDFA0ABDEC0C8BE7
:103B000010BDB0EE080AB4EEC08AF1EE10FA04D28D
:103B10009FEDF50AF0EE408A51E0B3EE0E0AB4EEE6
:103B2000C08AF1EE10FA2ED218EE100A05F075FBDD
:103B300041EC1D0B9FEDED0B53EC102B05F05CFAE7
:103B400041EC1C0BB0EE4C0AF0EE6C0A07F0B0FA38
:103B5000B0EE40BAF0EE60BA9FEDE60B53EC102BDE
:103B600051EC1B0B05F048FA41EC1A0B9FEDE30BEF
:103B700053EC102B05F099F941EC190B05F060FBA3
:103B800008EE900A1BE09FEDDF0AB4EEC08AF1EE6A
:103B900010FA04D29FEDDC0AF0EE408A0FE09FEDB0
:103BA000DB0AB4EEC08AF1EE10FA04D29FEDD80A17
:103BB000F0EE408A03E0B7EE080AF0EE408AB0EE7D
:103BC000680A9BE770B52DED028B0546B6EE000A3C
:103BD000F0EE408A2846FFF713FFFFF721FF044667
:103BE000622C04DB662C02DC0020FFF72CFA204656
:103BF000FFF76AFFB0EE408A632C05DA0020B1EED1
:103C0000480AFFF711FB06E0652C04DD0020B0EE4A
:103C1000480AFFF709FBBDEC028B70BD70B5054685
:103C20000C46B4F57A6F22DA012D12D0022D05D0A0
:103C3000032D08D0A5F22B20A0B90FE01421B54820
:103C4000FFF702FB12E014214FF4E170FFF7FCFADA
:103C50000CE01421B048FFF7F7FA07E01420FFF753
:103C6000C9F903E01420FFF7C5F900BF00BF70BD1C
:103C700010B52DED0A8BF0EE408A9FED9A0AB0EE5A
:103C800040CA9FED980AB0EE408A9FEDA40AC8EEA4
:103C9000800A10EE904A204605F0BFFA41EC1B0B5B
:103CA0009FED9F1BB0EE4B0AF0EE6B0A05F084FF10
:103CB000B0EE40AAF0EE60AA9FED9B0B53EC102BE8
:103CC00051EC1A0B05F098F941EC190B05F0B8FA14
:103CD00008EE100A9FED960AB4EEC08AF1EE10FAD3
:103CE00004DD9FED930AB0EE408A0AE09FED870A5B
:103CF000B4EEC08AF1EE10FA03D29FED840AB0EE62
:103D0000408A9FED860A78EEC00A9FED841A80EE05
:103D1000810ADFED7E0A20EE200A10EE104A2046CE
:103D200005F07BFA41EC1B0B9FED820B53EC102B43
:103D300005F062F941EC1A0B9FED800B53EC102B50
:103D400005F0B3F841EC190B05F07AFA08EE100A09
:103D50009FED7C0AB4EEC08AF1EE10FA04DD9FED0F
:103D6000790AB0EE408A0AE09FED770AB4EEC08A85
:103D7000F1EE10FA03D29FED740AB0EE408ABDEE68
:103D8000C80A724880ED000ABDEEC80A704880ED8E
:103D9000000ABDEC0A8B10BD10B52DED088BF0EEBE
:103DA000408A9FED500AF0EE409A9FED4E0AB0EE29
:103DB000408A28EEA80A10EE101A084605F02DFADF
:103DC00041EC1B0BB0EE4B0AF0EE6B0A07F016F954
:103DD000B0EE40AAF0EE60AA51EC1A0B05F030FAF2
:103DE00009EE100A9FED5B0AC9EE000A9FED5A0A20
:103DF00020EE800AB0EE408A9FED4D0AB4EEC08AF4
:103E0000F1EE10FA04DD9FED4A0AB0EE408A0AE0B6
:103E10009FED3E0AB4EEC08AF1EE10FA03D29FED98
:103E20003B0AB0EE408ABDEEC80A4C4880ED000A5D
:103E300000684B49086049480068002808DB47488B
:103E40000068632804DCB2EE080A464880ED000AE8
:103E500042480068642808DB40480068702804DC99
:103E60009FED410A3F4880ED000A3C4800687128F8
:103E700008DB3A4800687C2804DCB2EE060A3948C0
:103E800080ED000A354800687D2808DB334800686B
:103E9000862804DCB2EE050A324880ED000A2F487D
:103EA0000068872808DB2D480068942804DC9FED13
:103EB0002F0A2C4880ED000A28480068952808DB66
:103EC000264800689A2804DC9FED290A254880EDE1
:103ED000000A224800689B2853DB2048006849E01C
:103EE0003333333F00000000AA65FB3E9A9999994D
:103EF0009999A93FE07A14AE47E1CA3F5C8FC2F5B9
:103F0000285CDF3F00002042355E0A3F0000484247
:103F1000F31F123FBAFAFFFF3EFEFFFF00A07F45EE
:103F20009A9999999999F13F0000000000805A40B0
:103F300000007A43666666666666E63F000000003B
:103F400000C0824000001644008009440C03002099
:103F50001003002000401C4500000C43F00200202C
:103F6000F80200200003002066663641CDCC2441D3
:103F7000CDCC1C41AA2804DC9FEDFA0AFA4880ED5A
:103F8000000AFA480068AB2808DBF8480068B42843
:103F900004DC9FEDF70AF44880ED000AF34800685E
:103FA000B52808DBF1480068C72804DC9FEDF10A5A
:103FB000ED4880ED000AED480068C82808DBEB48B2
:103FC0000068FA2804DC9FEDEB0AE74880ED000A60
:103FD000E64890ED000AB8EEC00AE348D0ED000ACA
:103FE00020EE200AF2EE040A80EE201ABDEEC10A8D
:103FF000E14880ED000ABDEC088B10BD10B52DED39
:10400000088BF0EE408A1FED490AF0EE409A1FED52
:104010004B0AB0EE408A28EEA80A10EE101A0846A5
:1040200005F0FBF841EC1B0BB0EE4B0AF0EE6B0A0F
:1040300006F0E4FFB0EE40AAF0EE60AA51EC1A0BD5
:1040400005F0FEF809EE100ADFEDCC0A89EE200A31
:10405000DFEDCB0A20EE200AB0EE408A1FED4C0ABD
:10406000B4EEC08AF1EE10FA04DD1FED4F0AB0EE97
:10407000408A0AE01FED5B0AB4EEC08AF1EE10FA46
:1040800003D21FED5E0AB0EE408ABDEEC80ABD48FD
:1040900080ED000A0068BC490860BA4800683C2806
:1040A00009DBB8480068B0F5AF7F04DC9FEDB70AC4
:1040B000B74880ED000AB34890ED000AB8EEC00A98
:1040C000B348D0ED000A20EE200AF2EE040A80EE9A
:1040D000201ABDEEC10AAC4880ED000ABDEC088B89
:1040E00010BDAC4801680068401CAA4A10606429F1
:1040F00007D2A9484089A94909680844A749086026
:104100000BE0A64800686421B0FBF1F0A449086008
:104110000020A0490860A1490860A2480168006821
:10412000401CA04A1060642907D29B4800899E4920
:10413000096808449C4908600BE09B4800686421BA
:10414000B0FBF1F099490860002096490860964953
:104150000860974801680068401C954A106064290F
:1041600007D28D48808993490968084491490860BD
:104170000BE0904800686421B0FBF1F08E490860C4
:1041800000208B4908608B4908608C4801680068F2
:10419000401C8A4A1060782907D27F48C089884924
:1041A00009680844864908600BE085480068782162
:1041B000B0FBF1F083490860002080490860804925
:1041C0000860814801680068401C7F4A10600A2925
:1041D00007D2714880887D49096808447B49086096
:1041E0000BE07A4800680A21B0FBF1F078490860DA
:1041F00000207549086075490860764801680068C4
:10420000401C744A1060322907D26348C088724942
:1042100009680844704908600BE06F480068322163
:10422000B0FBF1F06D49086000206A4908606A49F6
:1042300008606B4801680068401C694A10603229B8
:1042400007D25548008867490968084465490860ED
:104250000BE0644800683221B0FBF1F0624908606D
:1042600000205F4908605F490860704773B52DED15
:10427000028B142505261FEDE50AB0EE408A5B4847
:104280000079322805DB59480079C82801DC012073
:1042900000E0002004465548007800F00800D0B93E
:1042A0005248007800F01000A8B95048007800F09B
:1042B000200080B94D48007800F0400058B954B152
:1042C0004A48407800F0400028B90020FEF792FEEE
:1042D000BDEC028B7CBD4548407800F0020030B157
:1042E0009DF80C50B7EE000AB0EE408A05E09DF84C
:1042F00008509FED3F0AB0EE408A3C48007800F03D
:10430000080098B13948007800F0100070B93748BB
:10431000007800F0200048B93448007800F04000F0
:1043200020B929463348FEF78FFFFCE02F4800787C
:1043300000F00800A0B92D48007800F0100078B116
:104340002A48007800F0200050B92848007800F092
:10435000400028B9294640F24650FEF775FFE2E0DA
:104360004AE0000000001C4100030020F002002091
:1043700066661A4166661641F80200200000524344
:104380000000DC42F4020020FC02002066661E41B0
:10439000040300204C030020E0050020500300200F
:1043A00090000020540300205803002094000020B7
:1043B0005C030020600300209C00002064030020B8
:1043C00068030020980000206C0300207003002088
:1043D000A00000207403002078030020AC0000201F
:1043E0007C03002080030020A80000202C06002071
:1043F000CDCC4C3E3EFEFFFFF948007800F00800AF
:10440000A0B9F748007800F0100078B9F4480078B7
:1044100000F0200050B1F248007800F0400028B9C8
:1044200029464FF4E170FEF70FFF7CE0EC4800787E
:1044300000F0080098B9EA48007800F0100070B960
:10444000E748007800F0200048B9E548007800F01F
:10445000400020B12946E348FEF7F6FE63E0E0485D
:10446000007800F0080098B1DD48007800F01000F6
:1044700070B9DB48007800F0200048B1D8480078D7
:1044800000F0400020B929460020FEF7DDFE4AE09A
:10449000D348007800F0080098B1D148007800F0C7
:1044A000100070B9CE48007800F0200048B9CC4820
:1044B000007800F0400020B12946CB48FEF7C4FE4A
:1044C00031E0C748007800F00800A0B9C44800787F
:1044D00000F0100078B1C248007800F0200050B120
:1044E000BF48007800F0400028B929464FF46170B9
:1044F000FEF7AAFE17E0BA48007800F0080090B96D
:10450000B748007800F0100068B1B548007800F0B6
:10451000200040B9B248007800F0400018B12946A8
:10452000B248FEF791FEAE48007800F00800D0B91E
:10453000AB48007800F01000A8B9A948007800F056
:10454000200080B9A648007800F0400058B954B166
:10455000FEF7DEF838B1A248407800F0400010B90C
:104560000020FEF747FD14B1FEF76DFD27E09C48E3
:10457000007932280EDAFEF7CBF828B10020B1EE30
:10458000480AFEF751FE1AE00020B1EE480AFEF795
:104590004BFE14E092480079C8280EDDFEF7B8F80B
:1045A00028B10020B0EE480AFEF73EFE07E00020EA
:1045B000B0EE480AFEF738FE01E0FEF744FD00BF0A
:1045C00086E610B500208A4988704FF4004189487A
:1045D00000F0EAFD012804D102208549C8700120BD
:1045E00010BD64208249C8700020F9E710B5002092
:1045F0007F4988704FF400417E4800F0D5FD0128C6
:104600000BD17D48007840B964207949C8700020FA
:104610007A4908607A49086010BDFCF7CDF9041E9C
:1046200001DB204600E0604276490968884208DDE7
:1046300071480078012804D102206D49C87001201A
:10464000EAE732206A49C87001206B4908700020EF
:10465000E2E710B50020664988720421654800F041
:10466000A3FD012804D102206149C872012010BDB8
:1046700064205F49C8720020F9E710B504215D4845
:1046800000F092FD01280BD15F48007840B964200A
:104690005749C87200205D4908605D49086010BD37
:1046A000FCF7B4F9041E01DB204600E060425949E2
:1046B0000968884208DD54480078012804D10220A6
:1046C0004B49C8720120EAE732204949C8720120EB
:1046D0004D4908700020E2E710B500204449887673
:1046E0004FF48041434800F05FFD012804D10220CF
:1046F0003F49C876012010BD64203D49C87600209E
:10470000F9E710B500203A4988764FF480413948DE
:1047100000F04AFD01280BD13F48007840B96420E1
:104720003349C87600203D4908603D49086010BD06
:10473000FCF7C7F8041E01DB204600E0604239495F
:104740000968884208DD34480078012804D1022035
:104750002749C8760120EAE732202549C87601209A
:104760002D4908700020E2E710B500202049887428
:104770000121204800F018FD012804D102201C4925
:10478000C874012010BD64201949C8740020F9E7DD
:1047900010B50121174800F007FD01280CD122486F
:1047A000007848B964201249C87400204FF0804155
:1047B00048621E49086010BDFCF7D2F8041E01DBF8
:1047C000204600E060421A490968884232DD1648F6
:1047D000007801282ED102200549C8740120EAE79B
:1047E0002C060020BAFAFFFF7CFCFFFFF8F8FFFF61
:1047F000040000200010024018030020240800409C
:10480000800000202403002019030020240400401D
:104810006C000020280300201B030020240C004013
:10482000700000202C0300201A03002068000020E4
:10483000300300203220F849C8740120F74908707D
:104840000020B8E710B5FCF7B7F8F5490968441A35
:10485000002C01DB204600E0604214282ADDFCF732
:10486000ABF8EF490968884203DD0120EA49887006
:1048700002E00020E8498870FCF79EF8E8490968E2
:10488000441A002C01DB204600E06042E549086044
:1048900008460068FA2801DDFA200860E14800684F
:1048A0000A2802DA0A20DF490860DE480078DA497F
:1048B000C87002E00220D849C87010BD10B5FCF7DE
:1048C000A5F8D9490968441A002C01DB204600E00C
:1048D000604214282ADDFCF799F8D3490968884218
:1048E00003DD0120CC49887202E00020CA498872A9
:1048F000FCF78CF8CC490968441A002C01DB2046EF
:1049000000E06042C749086008460068FA2801DDF7
:10491000FA200860C34800680A2802DA0A20C14960
:104920000860C0480078BC49C87202E00220BA4959
:10493000C87210BD10B5FBF7C4FFBC490968441A22
:10494000002C01DB204600E0604214282ADDFBF742
:10495000B8FFB6490968884203DD0120AE49887670
:1049600002E00020AC498876FBF7ABFFAF4909684D
:10497000441A002C01DB204600E06042A94908608F
:1049800008460068FA2801DDFA200860A54800689A
:104990000A2802DA0A20A3490860A24800789E4942
:1049A000C87602E002209C49C87610BD10B5FBF71E
:1049B000D7FF9F490968441A002C01DB204600E01C
:1049C000604214282ADDFBF7CBFF99490968884229
:1049D00003DD01209049887402E000208E4988742C
:1049E000FBF7BEFF92490968441A002C01DB204600
:1049F00000E060428B49086008460068FA2801DD43
:104A0000FA200860874800680A2802DA0A208549E7
:104A10000860844800788049C87402E002207E491A
:104A2000C87410BD09E01120FDF736FD0121814851
:104A300002F098FA0F2003F0B7FDF4E704E0FFF767
:104A400050FB032003F0B0FDF9E723E07A4800783B
:104A500000F0010080B17848407800F0200030B1CB
:104A60007648018876480078FFF7D8F807E05021AB
:104A70000C20FFF7FBFB02E00A20FEF7BBFAFFF772
:104A8000E1FEFFF71BFFFFF755FFFFF78FFF032046
:104A900003F08AFDDAE706E0FDF712FDFEF765FE9A
:104AA000032003F081FDF7E71FB5FBF7FBFFFCF7E1
:104AB00038F8FCF788FAFCF748FBFCF74EFCFCF7EB
:104AC000D3FBFCF7C2FCFCF797F84FF4E130FCF79E
:104AD00095FD4FF4E130FCF71AFE4FF4E130FCF79E
:104AE000A3FE4FF46120FCF7D8FF4FF4E130FDF74F
:104AF00071F8FDF717FE00BFFFF763FD08B9012449
:104B000000E00024FFF7A5FD08B9012000E0002027
:104B10000443FFF729FE08B9012000E00020044308
:104B2000FFF7DAFD08B9012000E000200443002C63
:104B3000E2D100BFFFF75AFD08B9012400E00024CC
:104B4000FFF79BFD08B9012000E000200443FFF7B8
:104B50001FFE08B9012000E000200443FFF7D1FD4B
:104B600008B9012000E000200443002CE2D100201D
:104B700034490860FDF7A4F90020009001900290EC
:104B800003464FF4807230A10390344803F0CDFA0D
:104B9000002000900190029003464FF4807230A1F3
:104BA0000390344803F0C1FA002000900190029075
:104BB00003464FF4807230A10390344803F0B5FAF5
:104BC000002033490860144981F8380081F8370023
:104BD00081F83D0081F83C0064E01748007800F05F
:104BE0000100C0B12B4890ED000AB8EEC00AFFF7F3
:104BF00005FA1248008800EE100AB8EE400AFFF7E6
:104C0000CBF80D48C07918B10D480078FEF7DAFFEF
:104C1000FEF75AFE43E03FE0040000201A030020A4
:104C20002C0200201C03002030020020340200204F
:104C300038020020004800402C0600205A010020C5
:104C400057010020B40000207461736B526F626FD3
:104C500074416E616C79746963730000974A00084F
:104C60007461736B446965754B6869656E436F4326
:104C7000617500004B4A00087461736B4469657587
:104C80004B6869656E436F43617531003D4A0008AA
:104C9000E8020020980000201420FEF7ABF9052060
:104CA00003F082FC99E71FB500200090019002906C
:104CB00003464FF480720BA103900D4803F035FAC0
:104CC000002000900190029003464FF4807209A1E9
:104CD00003900B4803F029FA03F040FE002004B0D3
:104CE00010BD00007461736B4D61696E00000000BF
:104CF000A94A00087461736B4779726F0000000065
:104D0000254A00080CB50020019000907248006808
:104D100040F480307049086000BF6F48006800F4BC
:104D2000003000900198401C0190009818B901983B
:104D3000B0F5A06FF1D16848006800F4003010B100
:104D40000120009001E0002000900098012846D149
:104D500061484030006840F080505F494031086051
:104D60005E48006840F480405C4908605A4808305A
:104D700000685949083108600846006840F400405E
:104D800008600846006840F4A05008605448091FB5
:104D90000860081F006840F08070091F086000BFAD
:104DA0004D48006800F000700028F9D040F205601E
:104DB0004C49086048480830006820F00300464924
:104DC000083108600846006840F00200086000BF33
:104DD00041480830006800F00C000828F8D10CBDEC
:104DE00010B53D48006840F001003B4908600020D4
:104DF000394908310860384800683B49084036495D
:104E000008603A48091D0860081F006820F48020E7
:104E1000091F0860002030490C310860FFF772FF5D
:104E20004FF000603249086010BD70B500200022CC
:104E3000022300240221284D08352D6805F00C00BE
:104E400020B1042806D0082834D107E0294D2A4E85
:104E5000356033E0294D284E35602FE01E4D2D1D65
:104E60002D68C5F380541C4D2D1D2D6805F03F01A4
:104E700054B1224DB5FBF1F5174E361D3668C6F319
:104E8000881605FB06F209E01A4DB5FBF1F5124E46
:104E9000361D3668C6F3881605FB06F20E4D2D1D2D
:104EA0002D68C5F301456D1C6B00B2FBF3F5124E86
:104EB000356003E00F4D104E356000BF00BF064D5A
:104EC00008352D68C5F303150D4E705D0A4D2D682C
:104ED000C540094E356070BD00380240007000408A
:104EE00008544007003C0240FFFFF6FE103000244B
:104EF00008ED00E00024F4008403002000127A0092
:104F0000880300200648804706480047FEE7FEE782
:104F1000FEE7FEE7FEE7FEE7FEE7FEE7FEE7FEE769
:104F2000E14D00088901000832490143324A11600D
:104F3000704770B5002100230F22C4781CB32E4C9B
:104F4000246804F4E064C4F5E064C4F30721C1F10B
:104F50000404E3B20A4144789C40E1B284781440EE
:104F600021430C07210E254C05786155047804F087
:104F70001F050124AC4005786D11AD0005F1E02559
:104F8000C5F8004109E0047804F01F050124AC4095
:104F90001B4D0678761145F8264070BD194A0A4027
:104FA0000243154B1B1F1A60704739B1124A121D7C
:104FB00012680243104B1B1D1A6006E00E4A121DB8
:104FC000126882430C4B1B1D1A607047042808D1DD
:104FD0004FF0E021096941F004014FF0E022116136
:104FE00007E04FF0E021096921F004014FF0E022D1
:104FF000116170470000FA050CED00E000E400E0EC
:1050000080E100E080FFFF1F10B504468C48844219
:1050100008D10121084600F000FB0021012000F02A
:10502000FCFA5EE08748844208D10121022000F0AA
:10503000F4FA0021022000F0F0FA52E082488442A3
:1050400008D10121042000F0E8FA0021042000F03A
:10505000E4FA46E07D48844208D10121082000F0AE
:10506000DCFA0021082000F0D8FA3AE078488442BF
:1050700008D10121102000F0D0FA0021102000F00A
:10508000CCFA2EE07348844208D10121202000F0A0
:10509000C4FA0021202000F0C0FA22E06E488442C9
:1050A00008D10121402000F0B8FA0021402000F092
:1050B000B4FA16E06948844208D10121802000F04A
:1050C000ACFA0021802000F0A8FA0AE0644884428B
:1050D00007D10121801500F0A0FA0021A01500F0F1
:1050E0009CFA10BDF0B50A4600210023002400BF41
:1050F0003DE0012505FA01F3156805EA03049C4229
:1051000034D105684F000326BE40B54305601579CC
:105110004E00B5400668354305601579012D02D073
:105120001579022D16D185684F000326BE40B54380
:10513000856055794E00B540866835438560456881
:1051400001268E40B5434560456896798E40B6B2DB
:1051500035434560C5684F000326BE40B543C56072
:10516000D5794E00B540C6683543C560491C102945
:10517000BFD3F0BD4FF6FF71016000210171417195
:105180008171C171704708B54FF480320092009A66
:105190000A430092009AC261C161009AC261C26969
:1051A0000092C269009208BD0246002013690B40BC
:1051B0000BB1012000E0002070470146086980B271
:1051C00070470246002053690B400BB1012000E0FC
:1051D000002070470146486980B2704701837047DC
:1051E000418370470AB1018300E041837047416108
:1051F000704742694A4042617047F0B5002300247D
:105200004D07ED0E02FA05F3CE1000F1200555F81A
:1052100026504E07F70E0F26BE40B543CF1000F1C3
:10522000200646F82750CE1000F1200555F82650EC
:1052300045EA0304CE1000F1200545F82640F0BDF4
:10524000000002400004024000080240000C02403E
:10525000001002400014024000180240001C0240EE
:1052600000200240FA48006840F00100F849086058
:105270000020F74908310860F5480068F549084002
:10528000F3490860F448091D0860081F006820F40D
:105290008020091F08600020ED490C31086070472C
:1052A0000021EB4A921C117011460870704710B52E
:1052B00001460022002300204A11012A02D1E44CB9
:1052C000236808E0022A03D1E14C7034236802E02D
:1052D000DF4C7434236801F01F02012494401C4009
:1052E0000CB1012000E0002010BD38B50020009076
:1052F0000024002500BF3120FFF7D9FF05460098A4
:10530000401C00900098B0F5A06F01D0002DF2D0A5
:105310003120FFF7CCFF08B1012400E00024204633
:1053200038BD01460020CA4A106820F0F80040EA63
:10533000C10010607047C949086070470021C44A25
:10534000703211701170012802D004280AD104E0D3
:105350000121BF4A7032117005E00521BC4A70324C
:10536000117000E000BF00BF7047BD490860704782
:1053700070B5049C41EA82150126C6EB530645EA46
:105380000645054345EA0465B14E361D356070BDDE
:10539000B24908667047820142EA0172AC4B84331D
:1053A0001A607047AD4988667047AC49C864704759
:1053B00002460020A64B0833186820F0EC6042EA51
:1053C00001031843A24B08331860704702460020BF
:1053D0009F4B0833186820F0784042EA01031843D5
:1053E0009B4B08331860704701460020984A0832EA
:1053F000106820F00300084310607047944808309C
:10540000006800F00C00704701460020904A083206
:10541000106820F0F000084310607047014600203B
:105420008B4A0832106820F4E0500843106070473F
:1054300001460020864A0832106820F4604040EAA5
:10544000C10010607047F0B5002100220024022541
:10545000002602237E4F08373F6807F00C0121B178
:10546000042905D0082937D105E07E4F076036E0D2
:105470007D4F076033E0764F3F1D3F68C7F380568E
:10548000734F3F1D3F6807F03F036EB1764FB7FB88
:10549000F3F7DFF8BCC10CF1040CDCF800C0CCF36E
:1054A000881C07FB0CF40CE06E4FB7FBF3F7DFF83A
:1054B000A0C10CF1040CDCF800C0CCF3881C07FB85
:1054C0000CF4634F3F1D3F68C7F301477F1C7D000D
:1054D000B4FBF5F7076002E0624F076000BF00BF52
:1054E0005B4F08373F6807F0F00109095F4F7A5CAE
:1054F0000768D7404760564F08373F6807F4E051C8
:10550000890A5A4F7A5C4768D7408760504F0837FE
:105510003F6807F46041490B544F7A5C4768D740B5
:10552000C760F0BD002100F44072B2F5407F0AD19F
:10553000474A0832116821F4F8114D4A02401143DC
:10554000434A08321160424A70321268C0F30B03BA
:105550001A433F4B70331A60704741494439086021
:1055600070473F49403908607047424908607047BA
:1055700039B1374A303212680243354B30331A6042
:1055800006E0334A303212688243314B30331A60BE
:10559000704739B12E4A3432126802432C4B3433EF
:1055A0001A6006E02A4A343212688243284B3433A8
:1055B0001A60704739B1264A383212680243244BC8
:1055C00038331A6006E0224A383212688243204B90
:1055D00038331A60704739B11D4A403212680243AD
:1055E0001B4B40331A6006E0194A4032126882436E
:1055F000174B40331A60704739B1154A443212686C
:105600000243134B44331A6006E0114A44321268D5
:1056100082430F4B44331A60704739B10C4A103241
:10562000126802430A4B10331A6006E0084A10322F
:1056300012688243064B10331A607047E1B1044A86
:10564000143212680243024B14331A6019E000004E
:1056500000380240FFFFF6FE1030002400004742F1
:10566000800E47420024F40000127A0098030020C4
:10567000FFFCFF0F5C0147425B4A126882435A4BB2
:105680001A60704739B1584A121D12680243564BCE
:105690001B1D1A6006E0544A121D12688243524BC9
:1056A0001B1D1A60704739B14F4A0C321268024311
:1056B0004D4B0C331A6006E04B4A0C3212688243A1
:1056C000494B0C331A60704739B1474A103212689F
:1056D0000243454B10331A6006E0434A1032126809
:1056E0008243414B10331A60704739B13E4A3C3215
:1056F000126802433C4B3C331A6006E03A4A3C32A3
:1057000012688243384B3C331A60704739B1364ACD
:10571000403212680243344B40331A6006E0324A8A
:10572000403212688243304B40331A60704739B1BF
:105730002D4A4432126802432B4B44331A6006E070
:10574000294A443212688243274B44331A60704717
:1057500039B1254A4C3212680243234B4C331A604C
:1057600006E0214A4C32126882431F4B4C331A60C8
:10577000704739B11C4A5032126802431A4B5033F9
:105780001A6006E0184A503212688243164B5033B2
:105790001A60704739B1144AD21F12780243124B73
:1057A000DB1F1A7006E0104AD21F127882430E4B9C
:1057B000DB1F1A7070470C486030006840F0807042
:1057C000094960310860704701460020064A083ADE
:1057D00012680A400AB1012000E000207047024927
:1057E000891F0870704700001438024010B501216D
:1057F0000802FFF769FF00214FF48070FFF764FF94
:1058000010BD30B50246002000235068F84C2040FF
:105810000D790C6844EA0524204350609068F54CEB
:105820002040D1E903542C438D682C434D7944EA40
:10583000450420439060D06A20F470000C7D641E03
:10584000E4B2234340EA0350D06230BD002101603E
:10585000017141718160C160016101210175704771
:105860000021E54A1168E54A1140D0E900231A43B6
:1058700083681A43C3681A431143E14AC2F8041308
:1058800070470021016041608160C160704721B1B3
:10589000826842F00102826003E0826822F0010225
:1058A000826070470A4600214168D64B1940114377
:1058B000416070474162826270470A460021416838
:1058C00021F01F0111434160704738B1CA4909688E
:1058D00041F40001CA4AC2F8041306E0C649096847
:1058E00021F40001C64AC2F80413704738B1C24916
:1058F000096841F48001C24AC2F8041306E0BE49B7
:10590000096821F48001BE4AC2F804137047F0B55B
:1059100004460D4600200021092D11DDE068A5F1A7
:105920000A0606EB4607072606FA07F18843A5F1A3
:105930000A0606EB460603FA06F10843E0600CE0AF
:10594000206905EB4507072606FA07F1884305EBB2
:10595000450603FA06F108432061072A0FDA606B57
:10596000561E06EB86071F2606FA07F18843561EC9
:1059700006EB860605FA06F10843606322E00D2A6D
:105980000FDA206BD61F06EB86071F2606FA07F1F3
:105990008843D61F06EB860605FA06F10843206306
:1059A00010E0E06AA2F10D0606EB86071F2606FA54
:1059B00007F18843A2F10D0606EB860605FA06F10B
:1059C0000843E062F0BD816841F08041816070472A
:1059D000014600208A6802F480020AB1012000E03A
:1059E0000020704721B1826842F48062826003E047
:1059F000826822F480628260704721B1826842F03E
:105A00000202826003E0826822F002028260704734
:105A100010B50A4600210023416821F46041531E5D
:105A200041EA4331416010BD21B1426842F4006255
:105A3000426003E0426822F400624260704701461F
:105A4000C86C80B270476C48001D0068704721B177
:105A5000826842F48072826003E0826822F480727D
:105A60008260704721B1826842F40072826003E074
:105A7000826822F400728260704738B15E4909681A
:105A800041F400515E4AC2F8041306E05A4909681D
:105A900021F400515A4AC2F804137047F0B5044685
:105AA0001546002000220026092911DDE068A1F139
:105AB0000A0707EB470C072707FA0CF29043A1F1FE
:105AC0000A0707EB470703FA07F21043E0600CE010
:105AD000206901EB410C072707FA0CF2904301EB18
